ARM GAS  C:\Users\JOHNSO~1\AppData\Local\Temp\ccloGcmo.s 			page 1


   1              		.cpu cortex-m0
   2              		.fpu softvfp
   3              		.eabi_attribute 20, 1
   4              		.eabi_attribute 21, 1
   5              		.eabi_attribute 23, 3
   6              		.eabi_attribute 24, 1
   7              		.eabi_attribute 25, 1
   8              		.eabi_attribute 26, 1
   9              		.eabi_attribute 30, 1
  10              		.eabi_attribute 34, 0
  11              		.eabi_attribute 18, 4
  12              		.code	16
  13              		.file	"ADC.c"
  14              		.text
  15              	.Ltext0:
  16              		.cfi_sections	.debug_frame
  17              		.section	.text.ADC_Init,"ax",%progbits
  18              		.align	2
  19              		.global	ADC_Init
  20              		.code	16
  21              		.thumb_func
  22              		.type	ADC_Init, %function
  23              	ADC_Init:
  24              	.LFB3:
  25              		.file 1 ".\\Generated_Source\\PSoC4\\ADC.c"
   1:.\Generated_Source\PSoC4/ADC.c **** /*******************************************************************************
   2:.\Generated_Source\PSoC4/ADC.c **** * File Name: ADC.c
   3:.\Generated_Source\PSoC4/ADC.c **** * Version 2.20
   4:.\Generated_Source\PSoC4/ADC.c **** *
   5:.\Generated_Source\PSoC4/ADC.c **** * Description:
   6:.\Generated_Source\PSoC4/ADC.c **** *  This file provides the source code to the API for the Sequencing Successive
   7:.\Generated_Source\PSoC4/ADC.c **** *  Approximation ADC Component Component.
   8:.\Generated_Source\PSoC4/ADC.c **** *
   9:.\Generated_Source\PSoC4/ADC.c **** * Note:
  10:.\Generated_Source\PSoC4/ADC.c **** *
  11:.\Generated_Source\PSoC4/ADC.c **** ********************************************************************************
  12:.\Generated_Source\PSoC4/ADC.c **** * Copyright 2008-2015, Cypress Semiconductor Corporation.  All rights reserved.
  13:.\Generated_Source\PSoC4/ADC.c **** * You may use this file only in accordance with the license, terms, conditions,
  14:.\Generated_Source\PSoC4/ADC.c **** * disclaimers, and limitations in the end user license agreement accompanying
  15:.\Generated_Source\PSoC4/ADC.c **** * the software package with which this file was provided.
  16:.\Generated_Source\PSoC4/ADC.c **** *******************************************************************************/
  17:.\Generated_Source\PSoC4/ADC.c **** 
  18:.\Generated_Source\PSoC4/ADC.c **** #include "ADC.h"
  19:.\Generated_Source\PSoC4/ADC.c **** 
  20:.\Generated_Source\PSoC4/ADC.c **** 
  21:.\Generated_Source\PSoC4/ADC.c **** /***************************************
  22:.\Generated_Source\PSoC4/ADC.c **** * Global data allocation
  23:.\Generated_Source\PSoC4/ADC.c **** ***************************************/
  24:.\Generated_Source\PSoC4/ADC.c **** uint8 ADC_initVar = 0u;
  25:.\Generated_Source\PSoC4/ADC.c **** volatile int16 ADC_offset[ADC_TOTAL_CHANNELS_NUM];
  26:.\Generated_Source\PSoC4/ADC.c **** volatile int32 ADC_countsPer10Volt[ADC_TOTAL_CHANNELS_NUM];   /* Gain compensation */
  27:.\Generated_Source\PSoC4/ADC.c **** 
  28:.\Generated_Source\PSoC4/ADC.c **** 
  29:.\Generated_Source\PSoC4/ADC.c **** /***************************************
  30:.\Generated_Source\PSoC4/ADC.c **** * Local data allocation
  31:.\Generated_Source\PSoC4/ADC.c **** ***************************************/
  32:.\Generated_Source\PSoC4/ADC.c **** /* Channels configuration generated by customiser */
ARM GAS  C:\Users\JOHNSO~1\AppData\Local\Temp\ccloGcmo.s 			page 2


  33:.\Generated_Source\PSoC4/ADC.c **** static const uint32 CYCODE ADC_channelsConfig[] = { 0x00000400u, 0x00000500u, 0x00001400u, 0x000014
  34:.\Generated_Source\PSoC4/ADC.c **** 
  35:.\Generated_Source\PSoC4/ADC.c **** 
  36:.\Generated_Source\PSoC4/ADC.c **** /*******************************************************************************
  37:.\Generated_Source\PSoC4/ADC.c **** * Function Name: ADC_Start
  38:.\Generated_Source\PSoC4/ADC.c **** ********************************************************************************
  39:.\Generated_Source\PSoC4/ADC.c **** *
  40:.\Generated_Source\PSoC4/ADC.c **** * Summary:
  41:.\Generated_Source\PSoC4/ADC.c **** *  Performs all required initialization for this component
  42:.\Generated_Source\PSoC4/ADC.c **** *  and enables the power. The power will be set to the appropriate
  43:.\Generated_Source\PSoC4/ADC.c **** *  power based on the clock frequency.
  44:.\Generated_Source\PSoC4/ADC.c **** *
  45:.\Generated_Source\PSoC4/ADC.c **** * Parameters:
  46:.\Generated_Source\PSoC4/ADC.c **** *  None.
  47:.\Generated_Source\PSoC4/ADC.c **** *
  48:.\Generated_Source\PSoC4/ADC.c **** * Return:
  49:.\Generated_Source\PSoC4/ADC.c **** *  None.
  50:.\Generated_Source\PSoC4/ADC.c **** *
  51:.\Generated_Source\PSoC4/ADC.c **** * Global variables:
  52:.\Generated_Source\PSoC4/ADC.c **** *  The ADC_initVar variable is used to indicate when/if initial
  53:.\Generated_Source\PSoC4/ADC.c **** *  configuration of this component has happened. The variable is initialized to
  54:.\Generated_Source\PSoC4/ADC.c **** *  zero and set to 1 the first time ADC_Start() is called. This allows for
  55:.\Generated_Source\PSoC4/ADC.c **** *  component Re-Start without re-initialization in all subsequent calls to the
  56:.\Generated_Source\PSoC4/ADC.c **** *  ADC_Start() routine.
  57:.\Generated_Source\PSoC4/ADC.c **** *  If re-initialization of the component is required the variable should be set
  58:.\Generated_Source\PSoC4/ADC.c **** *  to zero before call of ADC_Start() routine, or the user may call
  59:.\Generated_Source\PSoC4/ADC.c **** *  ADC_Init() and ADC_Enable() as done in the
  60:.\Generated_Source\PSoC4/ADC.c **** *  ADC_Start() routine.
  61:.\Generated_Source\PSoC4/ADC.c **** *
  62:.\Generated_Source\PSoC4/ADC.c **** *******************************************************************************/
  63:.\Generated_Source\PSoC4/ADC.c **** void ADC_Start(void)
  64:.\Generated_Source\PSoC4/ADC.c **** {
  65:.\Generated_Source\PSoC4/ADC.c ****     /* If not Initialized then initialize all required hardware and software */
  66:.\Generated_Source\PSoC4/ADC.c ****     if(ADC_initVar == 0u)
  67:.\Generated_Source\PSoC4/ADC.c ****     {
  68:.\Generated_Source\PSoC4/ADC.c ****         ADC_Init();
  69:.\Generated_Source\PSoC4/ADC.c ****         ADC_initVar = 1u;
  70:.\Generated_Source\PSoC4/ADC.c ****     }
  71:.\Generated_Source\PSoC4/ADC.c ****     ADC_Enable();
  72:.\Generated_Source\PSoC4/ADC.c **** }
  73:.\Generated_Source\PSoC4/ADC.c **** 
  74:.\Generated_Source\PSoC4/ADC.c **** 
  75:.\Generated_Source\PSoC4/ADC.c **** /*******************************************************************************
  76:.\Generated_Source\PSoC4/ADC.c **** * Function Name: ADC_Init
  77:.\Generated_Source\PSoC4/ADC.c **** ********************************************************************************
  78:.\Generated_Source\PSoC4/ADC.c **** *
  79:.\Generated_Source\PSoC4/ADC.c **** * Summary:
  80:.\Generated_Source\PSoC4/ADC.c **** *  Initialize component's parameters to the parameters set by user in the
  81:.\Generated_Source\PSoC4/ADC.c **** *  customizer of the component placed onto schematic. Usually called in
  82:.\Generated_Source\PSoC4/ADC.c **** *  ADC_Start().
  83:.\Generated_Source\PSoC4/ADC.c **** *
  84:.\Generated_Source\PSoC4/ADC.c **** * Parameters:
  85:.\Generated_Source\PSoC4/ADC.c **** *  None.
  86:.\Generated_Source\PSoC4/ADC.c **** *
  87:.\Generated_Source\PSoC4/ADC.c **** * Return:
  88:.\Generated_Source\PSoC4/ADC.c **** *  None.
  89:.\Generated_Source\PSoC4/ADC.c **** *
ARM GAS  C:\Users\JOHNSO~1\AppData\Local\Temp\ccloGcmo.s 			page 3


  90:.\Generated_Source\PSoC4/ADC.c **** * Global variables:
  91:.\Generated_Source\PSoC4/ADC.c **** *  The ADC_offset variable is initialized.
  92:.\Generated_Source\PSoC4/ADC.c **** *
  93:.\Generated_Source\PSoC4/ADC.c **** *******************************************************************************/
  94:.\Generated_Source\PSoC4/ADC.c **** void ADC_Init(void)
  95:.\Generated_Source\PSoC4/ADC.c **** {
  26              		.loc 1 95 0
  27              		.cfi_startproc
  28 0000 F8B5     		push	{r3, r4, r5, r6, r7, lr}
  29              		.cfi_def_cfa_offset 24
  30              		.cfi_offset 3, -24
  31              		.cfi_offset 4, -20
  32              		.cfi_offset 5, -16
  33              		.cfi_offset 6, -12
  34              		.cfi_offset 7, -8
  35              		.cfi_offset 14, -4
  96:.\Generated_Source\PSoC4/ADC.c ****     uint32 chNum;
  97:.\Generated_Source\PSoC4/ADC.c ****     uint32 tmpRegVal;
  98:.\Generated_Source\PSoC4/ADC.c ****     int32 counts;
  99:.\Generated_Source\PSoC4/ADC.c **** 
 100:.\Generated_Source\PSoC4/ADC.c ****     #if(ADC_TOTAL_CHANNELS_NUM > 1u)
 101:.\Generated_Source\PSoC4/ADC.c ****         static const uint8 CYCODE ADC_InputsPlacement[] =
 102:.\Generated_Source\PSoC4/ADC.c ****         {
 103:.\Generated_Source\PSoC4/ADC.c ****             (uint8)(ADC_cy_psoc4_sarmux_8__CH_0_PORT << 4u) |
 104:.\Generated_Source\PSoC4/ADC.c ****             (uint8)ADC_cy_psoc4_sarmux_8__CH_0_PIN
 105:.\Generated_Source\PSoC4/ADC.c ****             ,(uint8)(ADC_cy_psoc4_sarmux_8__CH_1_PORT << 4u) |
 106:.\Generated_Source\PSoC4/ADC.c ****              (uint8)ADC_cy_psoc4_sarmux_8__CH_1_PIN
 107:.\Generated_Source\PSoC4/ADC.c ****             #if(ADC_TOTAL_CHANNELS_NUM > 2u)
 108:.\Generated_Source\PSoC4/ADC.c ****                 ,(uint8)(ADC_cy_psoc4_sarmux_8__CH_2_PORT << 4u) |
 109:.\Generated_Source\PSoC4/ADC.c ****                  (uint8)ADC_cy_psoc4_sarmux_8__CH_2_PIN
 110:.\Generated_Source\PSoC4/ADC.c ****             #endif /* End ADC_TOTAL_CHANNELS_NUM > 2u */
 111:.\Generated_Source\PSoC4/ADC.c ****             #if(ADC_TOTAL_CHANNELS_NUM > 3u)
 112:.\Generated_Source\PSoC4/ADC.c ****                 ,(uint8)(ADC_cy_psoc4_sarmux_8__CH_3_PORT << 4u) |
 113:.\Generated_Source\PSoC4/ADC.c ****                  (uint8)ADC_cy_psoc4_sarmux_8__CH_3_PIN
 114:.\Generated_Source\PSoC4/ADC.c ****             #endif /* End ADC_TOTAL_CHANNELS_NUM > 3u */
 115:.\Generated_Source\PSoC4/ADC.c ****             #if(ADC_TOTAL_CHANNELS_NUM > 4u)
 116:.\Generated_Source\PSoC4/ADC.c ****                 ,(uint8)(ADC_cy_psoc4_sarmux_8__CH_4_PORT << 4u) |
 117:.\Generated_Source\PSoC4/ADC.c ****                  (uint8)ADC_cy_psoc4_sarmux_8__CH_4_PIN
 118:.\Generated_Source\PSoC4/ADC.c ****             #endif /* End ADC_TOTAL_CHANNELS_NUM > 4u */
 119:.\Generated_Source\PSoC4/ADC.c ****             #if(ADC_TOTAL_CHANNELS_NUM > 5u)
 120:.\Generated_Source\PSoC4/ADC.c ****                 ,(uint8)(ADC_cy_psoc4_sarmux_8__CH_5_PORT << 4u) |
 121:.\Generated_Source\PSoC4/ADC.c ****                  (uint8)ADC_cy_psoc4_sarmux_8__CH_5_PIN
 122:.\Generated_Source\PSoC4/ADC.c ****             #endif /* End ADC_TOTAL_CHANNELS_NUM > 5u */
 123:.\Generated_Source\PSoC4/ADC.c ****             #if(ADC_TOTAL_CHANNELS_NUM > 6u)
 124:.\Generated_Source\PSoC4/ADC.c ****                 ,(uint8)(ADC_cy_psoc4_sarmux_8__CH_6_PORT << 4u) |
 125:.\Generated_Source\PSoC4/ADC.c ****                  (uint8)ADC_cy_psoc4_sarmux_8__CH_6_PIN
 126:.\Generated_Source\PSoC4/ADC.c ****             #endif /* End ADC_TOTAL_CHANNELS_NUM > 6u */
 127:.\Generated_Source\PSoC4/ADC.c ****             #if(ADC_TOTAL_CHANNELS_NUM > 7u)
 128:.\Generated_Source\PSoC4/ADC.c ****                 ,(uint8)(ADC_cy_psoc4_sarmux_8__CH_7_PORT << 4u) |
 129:.\Generated_Source\PSoC4/ADC.c ****                  (uint8)ADC_cy_psoc4_sarmux_8__CH_7_PIN
 130:.\Generated_Source\PSoC4/ADC.c ****             #endif /* End ADC_TOTAL_CHANNELS_NUM > 7u */
 131:.\Generated_Source\PSoC4/ADC.c ****             #if(ADC_TOTAL_CHANNELS_NUM > 8u)
 132:.\Generated_Source\PSoC4/ADC.c ****                 ,(uint8)(ADC_cy_psoc4_sarmux_8__CH_8_PORT << 4u) |
 133:.\Generated_Source\PSoC4/ADC.c ****                  (uint8)ADC_cy_psoc4_sarmux_8__CH_8_PIN
 134:.\Generated_Source\PSoC4/ADC.c ****             #endif /* End ADC_TOTAL_CHANNELS_NUM > 8u */
 135:.\Generated_Source\PSoC4/ADC.c ****             #if(ADC_TOTAL_CHANNELS_NUM > 9u)
 136:.\Generated_Source\PSoC4/ADC.c ****                 ,(uint8)(ADC_cy_psoc4_sarmux_8__CH_9_PORT << 4u) |
ARM GAS  C:\Users\JOHNSO~1\AppData\Local\Temp\ccloGcmo.s 			page 4


 137:.\Generated_Source\PSoC4/ADC.c ****                  (uint8)ADC_cy_psoc4_sarmux_8__CH_9_PIN
 138:.\Generated_Source\PSoC4/ADC.c ****             #endif /* End ADC_TOTAL_CHANNELS_NUM > 9u */
 139:.\Generated_Source\PSoC4/ADC.c ****             #if(ADC_TOTAL_CHANNELS_NUM > 10u)
 140:.\Generated_Source\PSoC4/ADC.c ****                 ,(uint8)(ADC_cy_psoc4_sarmux_8__CH_10_PORT << 4u) |
 141:.\Generated_Source\PSoC4/ADC.c ****                  (uint8)ADC_cy_psoc4_sarmux_8__CH_10_PIN
 142:.\Generated_Source\PSoC4/ADC.c ****             #endif /* End ADC_TOTAL_CHANNELS_NUM > 10u */
 143:.\Generated_Source\PSoC4/ADC.c ****             #if(ADC_TOTAL_CHANNELS_NUM > 11u)
 144:.\Generated_Source\PSoC4/ADC.c ****                 ,(uint8)(ADC_cy_psoc4_sarmux_8__CH_11_PORT << 4u) |
 145:.\Generated_Source\PSoC4/ADC.c ****                  (uint8)ADC_cy_psoc4_sarmux_8__CH_11_PIN
 146:.\Generated_Source\PSoC4/ADC.c ****             #endif /* End ADC_TOTAL_CHANNELS_NUM > 11u */
 147:.\Generated_Source\PSoC4/ADC.c ****             #if(ADC_TOTAL_CHANNELS_NUM > 12u)
 148:.\Generated_Source\PSoC4/ADC.c ****                 ,(uint8)(ADC_cy_psoc4_sarmux_8__CH_12_PORT << 4u) |
 149:.\Generated_Source\PSoC4/ADC.c ****                  (uint8)ADC_cy_psoc4_sarmux_8__CH_12_PIN
 150:.\Generated_Source\PSoC4/ADC.c ****             #endif /* End ADC_TOTAL_CHANNELS_NUM > 12u */
 151:.\Generated_Source\PSoC4/ADC.c ****             #if(ADC_TOTAL_CHANNELS_NUM > 13u)
 152:.\Generated_Source\PSoC4/ADC.c ****                 ,(uint8)(ADC_cy_psoc4_sarmux_8__CH_13_PORT << 4u) |
 153:.\Generated_Source\PSoC4/ADC.c ****                  (uint8)ADC_cy_psoc4_sarmux_8__CH_13_PIN
 154:.\Generated_Source\PSoC4/ADC.c ****             #endif /* End ADC_TOTAL_CHANNELS_NUM > 13u */
 155:.\Generated_Source\PSoC4/ADC.c ****             #if(ADC_TOTAL_CHANNELS_NUM > 14u)
 156:.\Generated_Source\PSoC4/ADC.c ****                 ,(uint8)(ADC_cy_psoc4_sarmux_8__CH_14_PORT << 4u) |
 157:.\Generated_Source\PSoC4/ADC.c ****                  (uint8)ADC_cy_psoc4_sarmux_8__CH_14_PIN
 158:.\Generated_Source\PSoC4/ADC.c ****             #endif /* End ADC_TOTAL_CHANNELS_NUM > 14u */
 159:.\Generated_Source\PSoC4/ADC.c ****             #if(ADC_TOTAL_CHANNELS_NUM > 15u)
 160:.\Generated_Source\PSoC4/ADC.c ****                 ,(uint8)(ADC_cy_psoc4_sarmux_8__CH_15_PORT << 4u) |
 161:.\Generated_Source\PSoC4/ADC.c ****                  (uint8)ADC_cy_psoc4_sarmux_8__CH_15_PIN
 162:.\Generated_Source\PSoC4/ADC.c ****             #endif /* End ADC_TOTAL_CHANNELS_NUM > 15u */
 163:.\Generated_Source\PSoC4/ADC.c ****             #if(ADC_TOTAL_CHANNELS_NUM > 16u)
 164:.\Generated_Source\PSoC4/ADC.c ****                 ,(uint8)(ADC_cy_psoc4_sarmux_8__CH_16_PORT << 4u) |
 165:.\Generated_Source\PSoC4/ADC.c ****                  (uint8)ADC_cy_psoc4_sarmux_8__CH_16_PIN
 166:.\Generated_Source\PSoC4/ADC.c ****             #endif /* End ADC_TOTAL_CHANNELS_NUM > 16u */
 167:.\Generated_Source\PSoC4/ADC.c ****         };
 168:.\Generated_Source\PSoC4/ADC.c ****     #endif /* End ADC_TOTAL_CHANNELS_NUM > 1u */
 169:.\Generated_Source\PSoC4/ADC.c **** 
 170:.\Generated_Source\PSoC4/ADC.c ****     #if(ADC_IRQ_REMOVE == 0u)
 171:.\Generated_Source\PSoC4/ADC.c ****         /* Start and set interrupt vector */
 172:.\Generated_Source\PSoC4/ADC.c ****         CyIntSetPriority(ADC_INTC_NUMBER, ADC_INTC_PRIOR_NUMBER);
  36              		.loc 1 172 0
  37 0002 0F20     		mov	r0, #15
  38 0004 0321     		mov	r1, #3
  39 0006 FFF7FEFF 		bl	CyIntSetPriority
  40              	.LVL0:
 173:.\Generated_Source\PSoC4/ADC.c ****         (void)CyIntSetVector(ADC_INTC_NUMBER, &ADC_ISR);
  41              		.loc 1 173 0
  42 000a 0F20     		mov	r0, #15
  43 000c 4B49     		ldr	r1, .L14
  44 000e FFF7FEFF 		bl	CyIntSetVector
  45              	.LVL1:
 174:.\Generated_Source\PSoC4/ADC.c ****     #endif   /* End ADC_IRQ_REMOVE */
 175:.\Generated_Source\PSoC4/ADC.c **** 
 176:.\Generated_Source\PSoC4/ADC.c ****     /* Init SAR and MUX registers */
 177:.\Generated_Source\PSoC4/ADC.c ****     ADC_SAR_CHAN_EN_REG = ADC_DEFAULT_EN_CHANNELS;
  46              		.loc 1 177 0
  47 0012 0F22     		mov	r2, #15
  48 0014 4A4B     		ldr	r3, .L14+4
  49 0016 1A60     		str	r2, [r3]
 178:.\Generated_Source\PSoC4/ADC.c ****     ADC_SAR_CTRL_REG |= ADC_DEFAULT_CTRL_REG_CFG | 
  50              		.loc 1 178 0
ARM GAS  C:\Users\JOHNSO~1\AppData\Local\Temp\ccloGcmo.s 			page 5


  51 0018 4A4B     		ldr	r3, .L14+8
  52 001a 1A68     		ldr	r2, [r3]
 179:.\Generated_Source\PSoC4/ADC.c ****         /* Enable the SAR internal pump when global pump is enabled */
 180:.\Generated_Source\PSoC4/ADC.c ****         (((ADC_PUMP_CTRL_REG & ADC_PUMP_CTRL_ENABLED) != 0u) ? 
  53              		.loc 1 180 0
  54 001c 4A4B     		ldr	r3, .L14+12
  55 001e 1B68     		ldr	r3, [r3]
 178:.\Generated_Source\PSoC4/ADC.c ****     ADC_SAR_CTRL_REG |= ADC_DEFAULT_CTRL_REG_CFG | 
  56              		.loc 1 178 0
  57 0020 002B     		cmp	r3, #0
  58 0022 01DA     		bge	.L12
  59 0024 494B     		ldr	r3, .L14+16
  60 0026 00E0     		b	.L2
  61              	.L12:
  62 0028 494B     		ldr	r3, .L14+20
  63              	.L2:
 178:.\Generated_Source\PSoC4/ADC.c ****     ADC_SAR_CTRL_REG |= ADC_DEFAULT_CTRL_REG_CFG | 
  64              		.loc 1 178 0 is_stmt 0 discriminator 3
  65 002a 1A43     		orr	r2, r3
  66 002c 454B     		ldr	r3, .L14+8
  67 002e 1A60     		str	r2, [r3]
 181:.\Generated_Source\PSoC4/ADC.c ****         ADC_BOOSTPUMP_EN : 0u);
 182:.\Generated_Source\PSoC4/ADC.c ****     ADC_SAR_SAMPLE_CTRL_REG = ADC_DEFAULT_SAMPLE_CTRL_REG_CFG;
  68              		.loc 1 182 0 is_stmt 1 discriminator 3
  69 0030 484A     		ldr	r2, .L14+24
  70 0032 494B     		ldr	r3, .L14+28
  71 0034 1A60     		str	r2, [r3]
 183:.\Generated_Source\PSoC4/ADC.c ****     ADC_SAR_RANGE_THRES_REG = ADC_DEFAULT_RANGE_THRES_REG_CFG;
  72              		.loc 1 183 0 discriminator 3
  73 0036 494A     		ldr	r2, .L14+32
  74 0038 494B     		ldr	r3, .L14+36
  75 003a 1A60     		str	r2, [r3]
 184:.\Generated_Source\PSoC4/ADC.c ****     ADC_SAR_RANGE_COND_REG  = ADC_COMPARE_MODE;
  76              		.loc 1 184 0 discriminator 3
  77 003c 0023     		mov	r3, #0
  78 003e 494A     		ldr	r2, .L14+40
  79 0040 1360     		str	r3, [r2]
 185:.\Generated_Source\PSoC4/ADC.c ****     ADC_SAR_SAMPLE_TIME01_REG = ADC_DEFAULT_SAMPLE_TIME01_REG_CFG;
  80              		.loc 1 185 0 discriminator 3
  81 0042 4949     		ldr	r1, .L14+44
  82 0044 494A     		ldr	r2, .L14+48
  83 0046 1160     		str	r1, [r2]
 186:.\Generated_Source\PSoC4/ADC.c ****     ADC_SAR_SAMPLE_TIME23_REG = ADC_DEFAULT_SAMPLE_TIME23_REG_CFG;
  84              		.loc 1 186 0 discriminator 3
  85 0048 4949     		ldr	r1, .L14+52
  86 004a 4A4A     		ldr	r2, .L14+56
  87 004c 1160     		str	r1, [r2]
 187:.\Generated_Source\PSoC4/ADC.c ****     
 188:.\Generated_Source\PSoC4/ADC.c ****     /* Connect Vm to VSSA when even one channel is single-ended or multiple channels configured */
 189:.\Generated_Source\PSoC4/ADC.c ****     #if(ADC_DEFAULT_MUX_SWITCH0 != 0u)
 190:.\Generated_Source\PSoC4/ADC.c ****         ADC_MUX_SWITCH0_REG |= ADC_DEFAULT_MUX_SWITCH0;
 191:.\Generated_Source\PSoC4/ADC.c ****         /* Set MUX_HW_CTRL_VSSA in MUX_SWITCH_HW_CTRL when multiple channels enabled */
 192:.\Generated_Source\PSoC4/ADC.c ****         #if(ADC_TOTAL_CHANNELS_NUM > 1u)
 193:.\Generated_Source\PSoC4/ADC.c ****             ADC_MUX_SWITCH_HW_CTRL_REG |= ADC_DEFAULT_MUX_SWITCH0;
 194:.\Generated_Source\PSoC4/ADC.c ****         #endif /* ADC_TOTAL_CHANNELS_NUM > 1u */
 195:.\Generated_Source\PSoC4/ADC.c ****     #endif /*ADC_CHANNELS_MODE !=0 */
 196:.\Generated_Source\PSoC4/ADC.c **** 
ARM GAS  C:\Users\JOHNSO~1\AppData\Local\Temp\ccloGcmo.s 			page 6


 197:.\Generated_Source\PSoC4/ADC.c ****     ADC_SAR_SATURATE_INTR_MASK_REG = 0u;
  88              		.loc 1 197 0 discriminator 3
  89 004e 4A4A     		ldr	r2, .L14+60
  90 0050 1360     		str	r3, [r2]
 198:.\Generated_Source\PSoC4/ADC.c ****     ADC_SAR_RANGE_INTR_MASK_REG = 0u;
  91              		.loc 1 198 0 discriminator 3
  92 0052 4A4A     		ldr	r2, .L14+64
  93 0054 1360     		str	r3, [r2]
 199:.\Generated_Source\PSoC4/ADC.c ****     ADC_SAR_INTR_MASK_REG = ADC_SAR_INTR_MASK;
  94              		.loc 1 199 0 discriminator 3
  95 0056 1122     		mov	r2, #17
  96 0058 494B     		ldr	r3, .L14+68
  97 005a 1A60     		str	r2, [r3]
 200:.\Generated_Source\PSoC4/ADC.c **** 
 201:.\Generated_Source\PSoC4/ADC.c ****     #if(ADC_CY_SAR_IP_VER == ADC_CY_SAR_IP_VER0)
 202:.\Generated_Source\PSoC4/ADC.c ****         ADC_ANA_TRIM_REG = ADC_TRIM_COEF;
 203:.\Generated_Source\PSoC4/ADC.c ****     #endif /* (ADC_CY_SAR_IP_VER == ADC_CY_SAR_IP_VER0) */
 204:.\Generated_Source\PSoC4/ADC.c **** 
 205:.\Generated_Source\PSoC4/ADC.c ****     /* Read and modify default configuration based on characterization */
 206:.\Generated_Source\PSoC4/ADC.c ****     tmpRegVal = ADC_SAR_DFT_CTRL_REG;
  98              		.loc 1 206 0 discriminator 3
  99 005c 494B     		ldr	r3, .L14+72
 100 005e 1968     		ldr	r1, [r3]
 101              	.LVL2:
 207:.\Generated_Source\PSoC4/ADC.c ****     tmpRegVal &= (uint32)~ADC_DCEN;
 102              		.loc 1 207 0 discriminator 3
 103 0060 494A     		ldr	r2, .L14+76
 104 0062 0A40     		and	r2, r1
 105              	.LVL3:
 208:.\Generated_Source\PSoC4/ADC.c ****     
 209:.\Generated_Source\PSoC4/ADC.c ****     #if(ADC_CY_SAR_IP_VER == ADC_CY_SAR_IP_VER0)
 210:.\Generated_Source\PSoC4/ADC.c ****         #if(ADC_NOMINAL_CLOCK_FREQ > (ADC_MAX_FREQUENCY / 2))
 211:.\Generated_Source\PSoC4/ADC.c ****             tmpRegVal |= ADC_SEL_CSEL_DFT_CHAR;
 212:.\Generated_Source\PSoC4/ADC.c ****         #else  /* clock speed < 9 Mhz */
 213:.\Generated_Source\PSoC4/ADC.c ****             tmpRegVal |= ADC_DLY_INC;
 214:.\Generated_Source\PSoC4/ADC.c ****         #endif /* clock speed > 9 Mhz */
 215:.\Generated_Source\PSoC4/ADC.c ****     #else
 216:.\Generated_Source\PSoC4/ADC.c ****         #if ((ADC_DEFAULT_VREF_SEL == ADC__INTERNAL1024) || \
 217:.\Generated_Source\PSoC4/ADC.c ****              (ADC_DEFAULT_VREF_SEL == ADC__INTERNALVREF))
 218:.\Generated_Source\PSoC4/ADC.c ****             tmpRegVal |= ADC_DLY_INC;
 106              		.loc 1 218 0 discriminator 3
 107 0064 0121     		mov	r1, #1
 108 0066 0A43     		orr	r2, r1
 109              	.LVL4:
 219:.\Generated_Source\PSoC4/ADC.c ****         #else
 220:.\Generated_Source\PSoC4/ADC.c ****             tmpRegVal |= ADC_DCEN;
 221:.\Generated_Source\PSoC4/ADC.c ****             tmpRegVal &= (uint32)~ADC_DLY_INC;
 222:.\Generated_Source\PSoC4/ADC.c ****         #endif /* ((ADC_DEFAULT_VREF_SEL == ADC__INTERNAL1024) || \
 223:.\Generated_Source\PSoC4/ADC.c ****                    (ADC_DEFAULT_VREF_SEL == ADC__INTERNALVREF)) */
 224:.\Generated_Source\PSoC4/ADC.c ****     #endif /* (ADC_CY_SAR_IP_VER == ADC_CY_SAR_IP_VER0) */
 225:.\Generated_Source\PSoC4/ADC.c ****     
 226:.\Generated_Source\PSoC4/ADC.c ****     ADC_SAR_DFT_CTRL_REG = tmpRegVal;
 110              		.loc 1 226 0 discriminator 3
 111 0068 1A60     		str	r2, [r3]
 112              	.LVL5:
 227:.\Generated_Source\PSoC4/ADC.c **** 
 228:.\Generated_Source\PSoC4/ADC.c ****     #if(ADC_MAX_RESOLUTION != ADC_RESOLUTION_12)
ARM GAS  C:\Users\JOHNSO~1\AppData\Local\Temp\ccloGcmo.s 			page 7


 229:.\Generated_Source\PSoC4/ADC.c ****         ADC_WOUNDING_REG = ADC_ALT_WOUNDING;
 230:.\Generated_Source\PSoC4/ADC.c ****     #endif /* ADC_MAX_RESOLUTION != ADC_RESOLUTION_12 */
 231:.\Generated_Source\PSoC4/ADC.c **** 
 232:.\Generated_Source\PSoC4/ADC.c ****     for(chNum = 0u; chNum < ADC_TOTAL_CHANNELS_NUM; chNum++)
 113              		.loc 1 232 0 discriminator 3
 114 006a 0023     		mov	r3, #0
 233:.\Generated_Source\PSoC4/ADC.c ****     {
 234:.\Generated_Source\PSoC4/ADC.c ****         tmpRegVal = (ADC_channelsConfig[chNum] & ADC_CHANNEL_CONFIG_MASK);
 115              		.loc 1 234 0 discriminator 3
 116 006c 4748     		ldr	r0, .L14+80
 235:.\Generated_Source\PSoC4/ADC.c ****         #if(ADC_TOTAL_CHANNELS_NUM > 1u)
 236:.\Generated_Source\PSoC4/ADC.c ****             tmpRegVal |= ADC_InputsPlacement[chNum];
 237:.\Generated_Source\PSoC4/ADC.c ****         #endif /* End ADC_TOTAL_CHANNELS_NUM > 1u */
 238:.\Generated_Source\PSoC4/ADC.c ****         
 239:.\Generated_Source\PSoC4/ADC.c ****         
 240:.\Generated_Source\PSoC4/ADC.c ****         /* When the part is limited to 10-bit then the SUB_RESOLUTION bit
 241:.\Generated_Source\PSoC4/ADC.c ****         *  will be ignored and the RESOLUTION bit selects between 10-bit
 242:.\Generated_Source\PSoC4/ADC.c ****         *  (0) and 8-bit (1) resolution.
 243:.\Generated_Source\PSoC4/ADC.c ****         */
 244:.\Generated_Source\PSoC4/ADC.c ****         #if((ADC_MAX_RESOLUTION != ADC_RESOLUTION_12) && \
 245:.\Generated_Source\PSoC4/ADC.c ****             (ADC_ALT_WOUNDING == ADC_WOUNDING_10BIT))
 246:.\Generated_Source\PSoC4/ADC.c ****             tmpRegVal &= (uint32)(~ADC_ALT_RESOLUTION_ON);
 247:.\Generated_Source\PSoC4/ADC.c ****         #endif /* ADC_MAX_RESOLUTION != ADC_RESOLUTION_12 */
 248:.\Generated_Source\PSoC4/ADC.c **** 
 249:.\Generated_Source\PSoC4/ADC.c ****         #if(ADC_INJ_CHANNEL_ENABLED)
 250:.\Generated_Source\PSoC4/ADC.c ****         if(chNum < ADC_SEQUENCED_CHANNELS_NUM)
 251:.\Generated_Source\PSoC4/ADC.c ****         #endif /* ADC_INJ_CHANNEL_ENABLED */
 252:.\Generated_Source\PSoC4/ADC.c ****         {
 253:.\Generated_Source\PSoC4/ADC.c ****             CY_SET_REG32((reg32 *)(ADC_SAR_CHAN_CONFIG_IND + (uint32)(chNum << 2)), tmpRegVal);
 254:.\Generated_Source\PSoC4/ADC.c **** 
 255:.\Generated_Source\PSoC4/ADC.c ****             if((ADC_channelsConfig[chNum] & ADC_IS_SATURATE_EN_MASK) != 0u)
 256:.\Generated_Source\PSoC4/ADC.c ****             {
 257:.\Generated_Source\PSoC4/ADC.c ****                 ADC_SAR_SATURATE_INTR_MASK_REG |= (uint16)((uint16)1 << chNum);
 258:.\Generated_Source\PSoC4/ADC.c ****             }
 259:.\Generated_Source\PSoC4/ADC.c **** 
 260:.\Generated_Source\PSoC4/ADC.c ****             if((ADC_channelsConfig[chNum] & ADC_IS_RANGE_CTRL_EN_MASK) != 0u)
 261:.\Generated_Source\PSoC4/ADC.c ****             {
 262:.\Generated_Source\PSoC4/ADC.c ****                 ADC_SAR_RANGE_INTR_MASK_REG |= (uint16)((uint16)1 << chNum);
 263:.\Generated_Source\PSoC4/ADC.c ****             }
 264:.\Generated_Source\PSoC4/ADC.c ****         }
 265:.\Generated_Source\PSoC4/ADC.c ****         #if(ADC_INJ_CHANNEL_ENABLED)
 266:.\Generated_Source\PSoC4/ADC.c ****             else
 267:.\Generated_Source\PSoC4/ADC.c ****             {
 268:.\Generated_Source\PSoC4/ADC.c ****                 CY_SET_REG32(ADC_SAR_INJ_CHAN_CONFIG_PTR, tmpRegVal | ADC_INJ_TAILGATING);
 269:.\Generated_Source\PSoC4/ADC.c **** 
 270:.\Generated_Source\PSoC4/ADC.c ****                 if((ADC_channelsConfig[chNum] & ADC_IS_SATURATE_EN_MASK) != 0u)
 271:.\Generated_Source\PSoC4/ADC.c ****                 {
 272:.\Generated_Source\PSoC4/ADC.c ****                     ADC_SAR_INTR_MASK_REG |= ADC_INJ_SATURATE_MASK;
 273:.\Generated_Source\PSoC4/ADC.c ****                 }
 274:.\Generated_Source\PSoC4/ADC.c **** 
 275:.\Generated_Source\PSoC4/ADC.c ****                 if((ADC_channelsConfig[chNum] & ADC_IS_RANGE_CTRL_EN_MASK) != 0u)
 276:.\Generated_Source\PSoC4/ADC.c ****                 {
 277:.\Generated_Source\PSoC4/ADC.c ****                     ADC_SAR_INTR_MASK_REG |= ADC_INJ_RANGE_MASK;
 278:.\Generated_Source\PSoC4/ADC.c ****                 }
 279:.\Generated_Source\PSoC4/ADC.c ****             }
 280:.\Generated_Source\PSoC4/ADC.c ****         #endif /* ADC_INJ_CHANNEL_ENABLED */
 281:.\Generated_Source\PSoC4/ADC.c **** 
ARM GAS  C:\Users\JOHNSO~1\AppData\Local\Temp\ccloGcmo.s 			page 8


 282:.\Generated_Source\PSoC4/ADC.c ****         if((ADC_channelsConfig[chNum] & ADC_ALT_RESOLUTION_ON) != 0u)
 117              		.loc 1 282 0 discriminator 3
 118 006e 051C     		mov	r5, r0
 283:.\Generated_Source\PSoC4/ADC.c ****         {
 284:.\Generated_Source\PSoC4/ADC.c ****                counts = (int32)ADC_DEFAULT_MAX_WRK_ALT;
 285:.\Generated_Source\PSoC4/ADC.c ****         }
 286:.\Generated_Source\PSoC4/ADC.c ****         else
 287:.\Generated_Source\PSoC4/ADC.c ****         {
 288:.\Generated_Source\PSoC4/ADC.c ****                counts = (int32)ADC_SAR_WRK_MAX_12BIT;
 289:.\Generated_Source\PSoC4/ADC.c ****         }
 290:.\Generated_Source\PSoC4/ADC.c **** 
 291:.\Generated_Source\PSoC4/ADC.c ****         if((ADC_channelsConfig[chNum] & ADC_DIFFERENTIAL_EN) == 0u)
 292:.\Generated_Source\PSoC4/ADC.c ****         {
 293:.\Generated_Source\PSoC4/ADC.c ****             #if((ADC_DEFAULT_SE_RESULT_FORMAT_SEL == ADC__FSIGNED) && \
 294:.\Generated_Source\PSoC4/ADC.c ****                 (ADC_DEFAULT_NEG_INPUT_SEL == ADC__VREF))
 295:.\Generated_Source\PSoC4/ADC.c ****                 /* Set offset to the minus half scale to convert results to unsigned format */
 296:.\Generated_Source\PSoC4/ADC.c ****                 ADC_offset[chNum] = (int16)(counts / -2);
 297:.\Generated_Source\PSoC4/ADC.c ****             #else
 298:.\Generated_Source\PSoC4/ADC.c ****                 ADC_offset[chNum] = 0;
 299:.\Generated_Source\PSoC4/ADC.c ****             #endif /* end DEFAULT_SE_RESULT_FORMAT_SEL == ADC__FSIGNED */
 300:.\Generated_Source\PSoC4/ADC.c ****         }
 301:.\Generated_Source\PSoC4/ADC.c ****         else    /* Differential channel */
 302:.\Generated_Source\PSoC4/ADC.c ****         {
 303:.\Generated_Source\PSoC4/ADC.c ****             #if(ADC_DEFAULT_DIFF_RESULT_FORMAT_SEL == ADC__FUNSIGNED)
 304:.\Generated_Source\PSoC4/ADC.c ****                 /* Set offset to the half scale to convert results to signed format */
 305:.\Generated_Source\PSoC4/ADC.c ****                 ADC_offset[chNum] = (int16)(counts / 2);
 306:.\Generated_Source\PSoC4/ADC.c ****             #else
 307:.\Generated_Source\PSoC4/ADC.c ****                 ADC_offset[chNum] = 0;
 308:.\Generated_Source\PSoC4/ADC.c ****             #endif /* end ADC_DEFAULT_DIFF_RESULT_FORMAT_SEL == ADC__FUNSIGNED */
 309:.\Generated_Source\PSoC4/ADC.c ****         }
 310:.\Generated_Source\PSoC4/ADC.c ****         /* Calculate gain in counts per 10 volts with rounding */
 311:.\Generated_Source\PSoC4/ADC.c ****         ADC_countsPer10Volt[chNum] = (int16)(((counts * ADC_10MV_COUNTS) +
 119              		.loc 1 311 0 discriminator 3
 120 0070 474F     		ldr	r7, .L14+84
 232:.\Generated_Source\PSoC4/ADC.c ****     for(chNum = 0u; chNum < ADC_TOTAL_CHANNELS_NUM; chNum++)
 121              		.loc 1 232 0 discriminator 3
 122 0072 5FE0     		b	.L3
 123              	.LVL6:
 124              	.L11:
 234:.\Generated_Source\PSoC4/ADC.c ****         tmpRegVal = (ADC_channelsConfig[chNum] & ADC_CHANNEL_CONFIG_MASK);
 125              		.loc 1 234 0
 126 0074 9A00     		lsl	r2, r3, #2
 127 0076 1258     		ldr	r2, [r2, r0]
 128 0078 DC21     		mov	r1, #220
 129 007a 8901     		lsl	r1, r1, #6
 130 007c 1140     		and	r1, r2
 131              	.LVL7:
 236:.\Generated_Source\PSoC4/ADC.c ****             tmpRegVal |= ADC_InputsPlacement[chNum];
 132              		.loc 1 236 0
 133 007e C618     		add	r6, r0, r3
 134 0080 367D     		ldrb	r6, [r6, #20]
 135 0082 3143     		orr	r1, r6
 136              	.LVL8:
 250:.\Generated_Source\PSoC4/ADC.c ****         if(chNum < ADC_SEQUENCED_CHANNELS_NUM)
 137              		.loc 1 250 0
 138 0084 032B     		cmp	r3, #3
 139 0086 1BD8     		bhi	.L4
ARM GAS  C:\Users\JOHNSO~1\AppData\Local\Temp\ccloGcmo.s 			page 9


 253:.\Generated_Source\PSoC4/ADC.c ****             CY_SET_REG32((reg32 *)(ADC_SAR_CHAN_CONFIG_IND + (uint32)(chNum << 2)), tmpRegVal);
 140              		.loc 1 253 0
 141 0088 9E00     		lsl	r6, r3, #2
 142 008a 424C     		ldr	r4, .L14+88
 143 008c 3619     		add	r6, r6, r4
 144 008e 3160     		str	r1, [r6]
 255:.\Generated_Source\PSoC4/ADC.c ****             if((ADC_channelsConfig[chNum] & ADC_IS_SATURATE_EN_MASK) != 0u)
 145              		.loc 1 255 0
 146 0090 D107     		lsl	r1, r2, #31
 147 0092 07D5     		bpl	.L5
 148              	.LVL9:
 257:.\Generated_Source\PSoC4/ADC.c ****                 ADC_SAR_SATURATE_INTR_MASK_REG |= (uint16)((uint16)1 << chNum);
 149              		.loc 1 257 0
 150 0094 384A     		ldr	r2, .L14+60
 151 0096 1668     		ldr	r6, [r2]
 152              	.LVL10:
 153 0098 8021     		mov	r1, #128
 154 009a 4902     		lsl	r1, r1, #9
 155 009c 9940     		lsl	r1, r1, r3
 156 009e 090C     		lsr	r1, r1, #16
 157 00a0 3143     		orr	r1, r6
 158 00a2 1160     		str	r1, [r2]
 159              	.LVL11:
 160              	.L5:
 260:.\Generated_Source\PSoC4/ADC.c ****             if((ADC_channelsConfig[chNum] & ADC_IS_RANGE_CTRL_EN_MASK) != 0u)
 161              		.loc 1 260 0
 162 00a4 9A00     		lsl	r2, r3, #2
 163 00a6 394C     		ldr	r4, .L14+80
 164 00a8 1259     		ldr	r2, [r2, r4]
 165 00aa 9107     		lsl	r1, r2, #30
 166 00ac 21D5     		bpl	.L6
 262:.\Generated_Source\PSoC4/ADC.c ****                 ADC_SAR_RANGE_INTR_MASK_REG |= (uint16)((uint16)1 << chNum);
 167              		.loc 1 262 0
 168 00ae 334A     		ldr	r2, .L14+64
 169 00b0 1668     		ldr	r6, [r2]
 170 00b2 8021     		mov	r1, #128
 171 00b4 4902     		lsl	r1, r1, #9
 172 00b6 9940     		lsl	r1, r1, r3
 173 00b8 090C     		lsr	r1, r1, #16
 174 00ba 3143     		orr	r1, r6
 175 00bc 1160     		str	r1, [r2]
 176 00be 18E0     		b	.L6
 177              	.LVL12:
 178              	.L4:
 268:.\Generated_Source\PSoC4/ADC.c ****                 CY_SET_REG32(ADC_SAR_INJ_CHAN_CONFIG_PTR, tmpRegVal | ADC_INJ_TAILGATING);
 179              		.loc 1 268 0
 180 00c0 8022     		mov	r2, #128
 181 00c2 D205     		lsl	r2, r2, #23
 182 00c4 1143     		orr	r1, r2
 183              	.LVL13:
 184 00c6 344A     		ldr	r2, .L14+92
 185 00c8 1160     		str	r1, [r2]
 270:.\Generated_Source\PSoC4/ADC.c ****                 if((ADC_channelsConfig[chNum] & ADC_IS_SATURATE_EN_MASK) != 0u)
 186              		.loc 1 270 0
 187 00ca 9A00     		lsl	r2, r3, #2
 188 00cc 2F4C     		ldr	r4, .L14+80
 189 00ce 1259     		ldr	r2, [r2, r4]
ARM GAS  C:\Users\JOHNSO~1\AppData\Local\Temp\ccloGcmo.s 			page 10


 190 00d0 D107     		lsl	r1, r2, #31
 191 00d2 04D5     		bpl	.L7
 272:.\Generated_Source\PSoC4/ADC.c ****                     ADC_SAR_INTR_MASK_REG |= ADC_INJ_SATURATE_MASK;
 192              		.loc 1 272 0
 193 00d4 2A4A     		ldr	r2, .L14+68
 194 00d6 1668     		ldr	r6, [r2]
 195              	.LVL14:
 196 00d8 2021     		mov	r1, #32
 197 00da 3143     		orr	r1, r6
 198 00dc 1160     		str	r1, [r2]
 199              	.L7:
 275:.\Generated_Source\PSoC4/ADC.c ****                 if((ADC_channelsConfig[chNum] & ADC_IS_RANGE_CTRL_EN_MASK) != 0u)
 200              		.loc 1 275 0
 201 00de 9A00     		lsl	r2, r3, #2
 202 00e0 2A4C     		ldr	r4, .L14+80
 203 00e2 1259     		ldr	r2, [r2, r4]
 204 00e4 9107     		lsl	r1, r2, #30
 205 00e6 04D5     		bpl	.L6
 277:.\Generated_Source\PSoC4/ADC.c ****                     ADC_SAR_INTR_MASK_REG |= ADC_INJ_RANGE_MASK;
 206              		.loc 1 277 0
 207 00e8 254A     		ldr	r2, .L14+68
 208 00ea 1668     		ldr	r6, [r2]
 209 00ec 4021     		mov	r1, #64
 210 00ee 3143     		orr	r1, r6
 211 00f0 1160     		str	r1, [r2]
 212              	.L6:
 282:.\Generated_Source\PSoC4/ADC.c ****         if((ADC_channelsConfig[chNum] & ADC_ALT_RESOLUTION_ON) != 0u)
 213              		.loc 1 282 0
 214 00f2 9A00     		lsl	r2, r3, #2
 215 00f4 5159     		ldr	r1, [r2, r5]
 216 00f6 8A05     		lsl	r2, r1, #22
 217 00f8 02D5     		bpl	.L13
 284:.\Generated_Source\PSoC4/ADC.c ****                counts = (int32)ADC_DEFAULT_MAX_WRK_ALT;
 218              		.loc 1 284 0
 219 00fa 8022     		mov	r2, #128
 220 00fc 5200     		lsl	r2, r2, #1
 221 00fe 01E0     		b	.L8
 222              	.L13:
 288:.\Generated_Source\PSoC4/ADC.c ****                counts = (int32)ADC_SAR_WRK_MAX_12BIT;
 223              		.loc 1 288 0
 224 0100 8022     		mov	r2, #128
 225 0102 5201     		lsl	r2, r2, #5
 226              	.L8:
 227              	.LVL15:
 291:.\Generated_Source\PSoC4/ADC.c ****         if((ADC_channelsConfig[chNum] & ADC_DIFFERENTIAL_EN) == 0u)
 228              		.loc 1 291 0
 229 0104 CC05     		lsl	r4, r1, #23
 230 0106 04D4     		bmi	.L9
 298:.\Generated_Source\PSoC4/ADC.c ****                 ADC_offset[chNum] = 0;
 231              		.loc 1 298 0
 232 0108 5900     		lsl	r1, r3, #1
 233 010a 0026     		mov	r6, #0
 234 010c 234C     		ldr	r4, .L14+96
 235 010e 0E53     		strh	r6, [r1, r4]
 236 0110 03E0     		b	.L10
 237              	.L9:
 307:.\Generated_Source\PSoC4/ADC.c ****                 ADC_offset[chNum] = 0;
ARM GAS  C:\Users\JOHNSO~1\AppData\Local\Temp\ccloGcmo.s 			page 11


 238              		.loc 1 307 0
 239 0112 5900     		lsl	r1, r3, #1
 240 0114 0026     		mov	r6, #0
 241 0116 214C     		ldr	r4, .L14+96
 242 0118 0E53     		strh	r6, [r1, r4]
 243              	.L10:
 244              		.loc 1 311 0
 245 011a 2149     		ldr	r1, .L14+100
 246 011c 4A43     		mul	r2, r1
 247              	.LVL16:
 248 011e 8021     		mov	r1, #128
 249 0120 C900     		lsl	r1, r1, #3
 250 0122 5218     		add	r2, r2, r1
 312:.\Generated_Source\PSoC4/ADC.c ****                             ADC_DEFAULT_VREF_MV_VALUE) / (ADC_DEFAULT_VREF_MV_VALUE * 2));
 251              		.loc 1 312 0
 252 0124 D117     		asr	r1, r2, #31
 253 0126 490D     		lsr	r1, r1, #21
 254 0128 8A18     		add	r2, r1, r2
 255 012a D212     		asr	r2, r2, #11
 311:.\Generated_Source\PSoC4/ADC.c ****         ADC_countsPer10Volt[chNum] = (int16)(((counts * ADC_10MV_COUNTS) +
 256              		.loc 1 311 0
 257 012c 12B2     		sxth	r2, r2
 258 012e 9900     		lsl	r1, r3, #2
 259 0130 CA51     		str	r2, [r1, r7]
 232:.\Generated_Source\PSoC4/ADC.c ****     for(chNum = 0u; chNum < ADC_TOTAL_CHANNELS_NUM; chNum++)
 260              		.loc 1 232 0
 261 0132 0133     		add	r3, r3, #1
 262              	.LVL17:
 263              	.L3:
 232:.\Generated_Source\PSoC4/ADC.c ****     for(chNum = 0u; chNum < ADC_TOTAL_CHANNELS_NUM; chNum++)
 264              		.loc 1 232 0 is_stmt 0 discriminator 1
 265 0134 042B     		cmp	r3, #4
 266 0136 9DD9     		bls	.L11
 313:.\Generated_Source\PSoC4/ADC.c ****     }
 314:.\Generated_Source\PSoC4/ADC.c **** }
 267              		.loc 1 314 0 is_stmt 1
 268              		@ sp needed
 269 0138 F8BD     		pop	{r3, r4, r5, r6, r7, pc}
 270              	.L15:
 271 013a C046     		.align	2
 272              	.L14:
 273 013c 00000000 		.word	ADC_ISR
 274 0140 20003A40 		.word	1077542944
 275 0144 00003A40 		.word	1077542912
 276 0148 80033A40 		.word	1077543808
 277 014c 402E1013 		.word	319827520
 278 0150 402E0013 		.word	318778944
 279 0154 A8000080 		.word	-2147483480
 280 0158 04003A40 		.word	1077542916
 281 015c 0000FF07 		.word	134152192
 282 0160 18003A40 		.word	1077542936
 283 0164 1C003A40 		.word	1077542940
 284 0168 E9030400 		.word	263145
 285 016c 10003A40 		.word	1077542928
 286 0170 04000400 		.word	262148
 287 0174 14003A40 		.word	1077542932
 288 0178 28023A40 		.word	1077543464
ARM GAS  C:\Users\JOHNSO~1\AppData\Local\Temp\ccloGcmo.s 			page 12


 289 017c 38023A40 		.word	1077543480
 290 0180 18023A40 		.word	1077543448
 291 0184 30003A40 		.word	1077542960
 292 0188 FFFFFFDF 		.word	-536870913
 293 018c 00000000 		.word	.LANCHOR0
 294 0190 00000000 		.word	ADC_countsPer10Volt
 295 0194 80003A40 		.word	1077543040
 296 0198 80023A40 		.word	1077543552
 297 019c 00000000 		.word	ADC_offset
 298 01a0 10270000 		.word	10000
 299              		.cfi_endproc
 300              	.LFE3:
 301              		.size	ADC_Init, .-ADC_Init
 302              		.section	.text.ADC_Enable,"ax",%progbits
 303              		.align	2
 304              		.global	ADC_Enable
 305              		.code	16
 306              		.thumb_func
 307              		.type	ADC_Enable, %function
 308              	ADC_Enable:
 309              	.LFB4:
 315:.\Generated_Source\PSoC4/ADC.c **** 
 316:.\Generated_Source\PSoC4/ADC.c **** /*******************************************************************************
 317:.\Generated_Source\PSoC4/ADC.c **** * Function Name: ADC_SAR_1_Enable
 318:.\Generated_Source\PSoC4/ADC.c **** ********************************************************************************
 319:.\Generated_Source\PSoC4/ADC.c **** *
 320:.\Generated_Source\PSoC4/ADC.c **** * Summary:
 321:.\Generated_Source\PSoC4/ADC.c **** *  Enables the clock and analog power for SAR ADC.
 322:.\Generated_Source\PSoC4/ADC.c **** *
 323:.\Generated_Source\PSoC4/ADC.c **** * Parameters:
 324:.\Generated_Source\PSoC4/ADC.c **** *  None.
 325:.\Generated_Source\PSoC4/ADC.c **** *
 326:.\Generated_Source\PSoC4/ADC.c **** * Return:
 327:.\Generated_Source\PSoC4/ADC.c **** *  None.
 328:.\Generated_Source\PSoC4/ADC.c **** *
 329:.\Generated_Source\PSoC4/ADC.c **** *******************************************************************************/
 330:.\Generated_Source\PSoC4/ADC.c **** void ADC_Enable(void)
 331:.\Generated_Source\PSoC4/ADC.c **** {
 310              		.loc 1 331 0
 311              		.cfi_startproc
 312 0000 08B5     		push	{r3, lr}
 313              		.cfi_def_cfa_offset 8
 314              		.cfi_offset 3, -8
 315              		.cfi_offset 14, -4
 332:.\Generated_Source\PSoC4/ADC.c ****     if (0u == (ADC_SAR_CTRL_REG & ADC_ENABLE))
 316              		.loc 1 332 0
 317 0002 094B     		ldr	r3, .L21
 318 0004 1B68     		ldr	r3, [r3]
 319 0006 002B     		cmp	r3, #0
 320 0008 0CDB     		blt	.L16
 333:.\Generated_Source\PSoC4/ADC.c ****     {
 334:.\Generated_Source\PSoC4/ADC.c ****         #if(ADC_CY_SAR_IP_VER != ADC_CY_SAR_IP_VER0)
 335:.\Generated_Source\PSoC4/ADC.c **** 
 336:.\Generated_Source\PSoC4/ADC.c ****             while (0u != (ADC_SAR_STATUS_REG & ADC_STATUS_BUSY))
 321              		.loc 1 336 0 discriminator 1
 322 000a 084A     		ldr	r2, .L21+4
 323              	.L19:
ARM GAS  C:\Users\JOHNSO~1\AppData\Local\Temp\ccloGcmo.s 			page 13


 324 000c 1368     		ldr	r3, [r2]
 325 000e 002B     		cmp	r3, #0
 326 0010 FCDB     		blt	.L19
 337:.\Generated_Source\PSoC4/ADC.c ****             {
 338:.\Generated_Source\PSoC4/ADC.c ****                 /* wait for SAR to go idle to avoid deadlock */
 339:.\Generated_Source\PSoC4/ADC.c ****             }
 340:.\Generated_Source\PSoC4/ADC.c ****         #endif /* (ADC_CY_SAR_IP_VER != ADC_CY_SAR_IP_VER0) */
 341:.\Generated_Source\PSoC4/ADC.c ****         
 342:.\Generated_Source\PSoC4/ADC.c ****         ADC_SAR_CTRL_REG |= ADC_ENABLE;
 327              		.loc 1 342 0
 328 0012 054B     		ldr	r3, .L21
 329 0014 1968     		ldr	r1, [r3]
 330 0016 8022     		mov	r2, #128
 331 0018 1206     		lsl	r2, r2, #24
 332 001a 0A43     		orr	r2, r1
 333 001c 1A60     		str	r2, [r3]
 343:.\Generated_Source\PSoC4/ADC.c ****         
 344:.\Generated_Source\PSoC4/ADC.c ****         /* The block is ready to use 10 us after the enable signal is set high. */
 345:.\Generated_Source\PSoC4/ADC.c ****         CyDelayUs(ADC_10US_DELAY);         
 334              		.loc 1 345 0
 335 001e 0A20     		mov	r0, #10
 336 0020 FFF7FEFF 		bl	CyDelayUs
 337              	.LVL18:
 338              	.L16:
 346:.\Generated_Source\PSoC4/ADC.c ****     }
 347:.\Generated_Source\PSoC4/ADC.c **** }
 339              		.loc 1 347 0
 340              		@ sp needed
 341 0024 08BD     		pop	{r3, pc}
 342              	.L22:
 343 0026 C046     		.align	2
 344              	.L21:
 345 0028 00003A40 		.word	1077542912
 346 002c 08023A40 		.word	1077543432
 347              		.cfi_endproc
 348              	.LFE4:
 349              		.size	ADC_Enable, .-ADC_Enable
 350              		.section	.text.ADC_Start,"ax",%progbits
 351              		.align	2
 352              		.global	ADC_Start
 353              		.code	16
 354              		.thumb_func
 355              		.type	ADC_Start, %function
 356              	ADC_Start:
 357              	.LFB2:
  64:.\Generated_Source\PSoC4/ADC.c **** {
 358              		.loc 1 64 0
 359              		.cfi_startproc
 360 0000 08B5     		push	{r3, lr}
 361              		.cfi_def_cfa_offset 8
 362              		.cfi_offset 3, -8
 363              		.cfi_offset 14, -4
  66:.\Generated_Source\PSoC4/ADC.c ****     if(ADC_initVar == 0u)
 364              		.loc 1 66 0
 365 0002 064B     		ldr	r3, .L25
 366 0004 1B78     		ldrb	r3, [r3]
 367 0006 002B     		cmp	r3, #0
ARM GAS  C:\Users\JOHNSO~1\AppData\Local\Temp\ccloGcmo.s 			page 14


 368 0008 04D1     		bne	.L24
  68:.\Generated_Source\PSoC4/ADC.c ****         ADC_Init();
 369              		.loc 1 68 0
 370 000a FFF7FEFF 		bl	ADC_Init
 371              	.LVL19:
  69:.\Generated_Source\PSoC4/ADC.c ****         ADC_initVar = 1u;
 372              		.loc 1 69 0
 373 000e 0122     		mov	r2, #1
 374 0010 024B     		ldr	r3, .L25
 375 0012 1A70     		strb	r2, [r3]
 376              	.L24:
  71:.\Generated_Source\PSoC4/ADC.c ****     ADC_Enable();
 377              		.loc 1 71 0
 378 0014 FFF7FEFF 		bl	ADC_Enable
 379              	.LVL20:
  72:.\Generated_Source\PSoC4/ADC.c **** }
 380              		.loc 1 72 0
 381              		@ sp needed
 382 0018 08BD     		pop	{r3, pc}
 383              	.L26:
 384 001a C046     		.align	2
 385              	.L25:
 386 001c 00000000 		.word	.LANCHOR1
 387              		.cfi_endproc
 388              	.LFE2:
 389              		.size	ADC_Start, .-ADC_Start
 390              		.section	.text.ADC_Stop,"ax",%progbits
 391              		.align	2
 392              		.global	ADC_Stop
 393              		.code	16
 394              		.thumb_func
 395              		.type	ADC_Stop, %function
 396              	ADC_Stop:
 397              	.LFB5:
 348:.\Generated_Source\PSoC4/ADC.c **** 
 349:.\Generated_Source\PSoC4/ADC.c **** 
 350:.\Generated_Source\PSoC4/ADC.c **** /*******************************************************************************
 351:.\Generated_Source\PSoC4/ADC.c **** * Function Name: ADC_Stop
 352:.\Generated_Source\PSoC4/ADC.c **** ********************************************************************************
 353:.\Generated_Source\PSoC4/ADC.c **** *
 354:.\Generated_Source\PSoC4/ADC.c **** * Summary:
 355:.\Generated_Source\PSoC4/ADC.c **** *  This function stops ADC conversions and puts the ADC into its lowest power
 356:.\Generated_Source\PSoC4/ADC.c **** *  mode.
 357:.\Generated_Source\PSoC4/ADC.c **** *
 358:.\Generated_Source\PSoC4/ADC.c **** * Parameters:
 359:.\Generated_Source\PSoC4/ADC.c **** *  None.
 360:.\Generated_Source\PSoC4/ADC.c **** *
 361:.\Generated_Source\PSoC4/ADC.c **** * Return:
 362:.\Generated_Source\PSoC4/ADC.c **** *  None.
 363:.\Generated_Source\PSoC4/ADC.c **** *
 364:.\Generated_Source\PSoC4/ADC.c **** *******************************************************************************/
 365:.\Generated_Source\PSoC4/ADC.c **** void ADC_Stop(void)
 366:.\Generated_Source\PSoC4/ADC.c **** {
 398              		.loc 1 366 0
 399              		.cfi_startproc
 367:.\Generated_Source\PSoC4/ADC.c ****     ADC_SAR_CTRL_REG &= (uint32)~ADC_ENABLE;
 400              		.loc 1 367 0
ARM GAS  C:\Users\JOHNSO~1\AppData\Local\Temp\ccloGcmo.s 			page 15


 401 0000 024B     		ldr	r3, .L28
 402 0002 1A68     		ldr	r2, [r3]
 403 0004 5200     		lsl	r2, r2, #1
 404 0006 5208     		lsr	r2, r2, #1
 405 0008 1A60     		str	r2, [r3]
 368:.\Generated_Source\PSoC4/ADC.c **** }
 406              		.loc 1 368 0
 407              		@ sp needed
 408 000a 7047     		bx	lr
 409              	.L29:
 410              		.align	2
 411              	.L28:
 412 000c 00003A40 		.word	1077542912
 413              		.cfi_endproc
 414              	.LFE5:
 415              		.size	ADC_Stop, .-ADC_Stop
 416              		.section	.text.ADC_StartConvert,"ax",%progbits
 417              		.align	2
 418              		.global	ADC_StartConvert
 419              		.code	16
 420              		.thumb_func
 421              		.type	ADC_StartConvert, %function
 422              	ADC_StartConvert:
 423              	.LFB6:
 369:.\Generated_Source\PSoC4/ADC.c **** 
 370:.\Generated_Source\PSoC4/ADC.c **** 
 371:.\Generated_Source\PSoC4/ADC.c **** /*******************************************************************************
 372:.\Generated_Source\PSoC4/ADC.c **** * Function Name: ADC_StartConvert
 373:.\Generated_Source\PSoC4/ADC.c **** ********************************************************************************
 374:.\Generated_Source\PSoC4/ADC.c **** *
 375:.\Generated_Source\PSoC4/ADC.c **** * Summary:
 376:.\Generated_Source\PSoC4/ADC.c **** *  Description:
 377:.\Generated_Source\PSoC4/ADC.c **** *  For free running mode, this API starts the conversion process and it
 378:.\Generated_Source\PSoC4/ADC.c **** *  runs continuously.
 379:.\Generated_Source\PSoC4/ADC.c **** *
 380:.\Generated_Source\PSoC4/ADC.c **** *  In a triggered mode, this routine triggers every conversion by
 381:.\Generated_Source\PSoC4/ADC.c **** *  writing into the FW_TRIGGER bit in SAR_START_CTRL reg. In triggered mode,
 382:.\Generated_Source\PSoC4/ADC.c **** *  every conversion has to start by this API.
 383:.\Generated_Source\PSoC4/ADC.c **** *
 384:.\Generated_Source\PSoC4/ADC.c **** * Parameters:
 385:.\Generated_Source\PSoC4/ADC.c **** *  None.
 386:.\Generated_Source\PSoC4/ADC.c **** *
 387:.\Generated_Source\PSoC4/ADC.c **** * Return:
 388:.\Generated_Source\PSoC4/ADC.c **** *  None.
 389:.\Generated_Source\PSoC4/ADC.c **** *
 390:.\Generated_Source\PSoC4/ADC.c **** *******************************************************************************/
 391:.\Generated_Source\PSoC4/ADC.c **** void ADC_StartConvert(void)
 392:.\Generated_Source\PSoC4/ADC.c **** {
 424              		.loc 1 392 0
 425              		.cfi_startproc
 393:.\Generated_Source\PSoC4/ADC.c ****     #if(ADC_DEFAULT_SAMPLE_MODE_SEL == ADC__FREERUNNING)
 394:.\Generated_Source\PSoC4/ADC.c ****         ADC_SAR_SAMPLE_CTRL_REG |= ADC_CONTINUOUS_EN;
 426              		.loc 1 394 0
 427 0000 034B     		ldr	r3, .L31
 428 0002 1968     		ldr	r1, [r3]
 429 0004 8022     		mov	r2, #128
 430 0006 5202     		lsl	r2, r2, #9
ARM GAS  C:\Users\JOHNSO~1\AppData\Local\Temp\ccloGcmo.s 			page 16


 431 0008 0A43     		orr	r2, r1
 432 000a 1A60     		str	r2, [r3]
 395:.\Generated_Source\PSoC4/ADC.c ****     #else /* Firmware trigger */
 396:.\Generated_Source\PSoC4/ADC.c ****         ADC_SAR_START_CTRL_REG = ADC_FW_TRIGGER;
 397:.\Generated_Source\PSoC4/ADC.c ****     #endif /* End ADC_DEFAULT_SAMPLE_MODE == ADC__FREERUNNING */
 398:.\Generated_Source\PSoC4/ADC.c **** 
 399:.\Generated_Source\PSoC4/ADC.c **** }
 433              		.loc 1 399 0
 434              		@ sp needed
 435 000c 7047     		bx	lr
 436              	.L32:
 437 000e C046     		.align	2
 438              	.L31:
 439 0010 04003A40 		.word	1077542916
 440              		.cfi_endproc
 441              	.LFE6:
 442              		.size	ADC_StartConvert, .-ADC_StartConvert
 443              		.section	.text.ADC_StopConvert,"ax",%progbits
 444              		.align	2
 445              		.global	ADC_StopConvert
 446              		.code	16
 447              		.thumb_func
 448              		.type	ADC_StopConvert, %function
 449              	ADC_StopConvert:
 450              	.LFB7:
 400:.\Generated_Source\PSoC4/ADC.c **** 
 401:.\Generated_Source\PSoC4/ADC.c **** 
 402:.\Generated_Source\PSoC4/ADC.c **** /*******************************************************************************
 403:.\Generated_Source\PSoC4/ADC.c **** * Function Name: ADC_StopConvert
 404:.\Generated_Source\PSoC4/ADC.c **** ********************************************************************************
 405:.\Generated_Source\PSoC4/ADC.c **** *
 406:.\Generated_Source\PSoC4/ADC.c **** * Summary:
 407:.\Generated_Source\PSoC4/ADC.c **** *  Forces the ADC to stop all conversions.
 408:.\Generated_Source\PSoC4/ADC.c **** *
 409:.\Generated_Source\PSoC4/ADC.c **** * Parameters:
 410:.\Generated_Source\PSoC4/ADC.c **** *  None.
 411:.\Generated_Source\PSoC4/ADC.c **** *
 412:.\Generated_Source\PSoC4/ADC.c **** * Return:
 413:.\Generated_Source\PSoC4/ADC.c **** *  None.
 414:.\Generated_Source\PSoC4/ADC.c **** *
 415:.\Generated_Source\PSoC4/ADC.c **** *******************************************************************************/
 416:.\Generated_Source\PSoC4/ADC.c **** void ADC_StopConvert(void)
 417:.\Generated_Source\PSoC4/ADC.c **** {
 451              		.loc 1 417 0
 452              		.cfi_startproc
 418:.\Generated_Source\PSoC4/ADC.c ****     #if(ADC_DEFAULT_SAMPLE_MODE_SEL == ADC__FREERUNNING)
 419:.\Generated_Source\PSoC4/ADC.c ****         ADC_SAR_SAMPLE_CTRL_REG &= (uint32)(~ADC_CONTINUOUS_EN);
 453              		.loc 1 419 0
 454 0000 024B     		ldr	r3, .L34
 455 0002 1968     		ldr	r1, [r3]
 456 0004 024A     		ldr	r2, .L34+4
 457 0006 0A40     		and	r2, r1
 458 0008 1A60     		str	r2, [r3]
 420:.\Generated_Source\PSoC4/ADC.c ****     #endif /* ADC_DEFAULT_SAMPLE_MODE == ADC__FREERUNNING */
 421:.\Generated_Source\PSoC4/ADC.c **** }
 459              		.loc 1 421 0
 460              		@ sp needed
ARM GAS  C:\Users\JOHNSO~1\AppData\Local\Temp\ccloGcmo.s 			page 17


 461 000a 7047     		bx	lr
 462              	.L35:
 463              		.align	2
 464              	.L34:
 465 000c 04003A40 		.word	1077542916
 466 0010 FFFFFEFF 		.word	-65537
 467              		.cfi_endproc
 468              	.LFE7:
 469              		.size	ADC_StopConvert, .-ADC_StopConvert
 470              		.section	.text.ADC_IsEndConversion,"ax",%progbits
 471              		.align	2
 472              		.global	ADC_IsEndConversion
 473              		.code	16
 474              		.thumb_func
 475              		.type	ADC_IsEndConversion, %function
 476              	ADC_IsEndConversion:
 477              	.LFB8:
 422:.\Generated_Source\PSoC4/ADC.c **** 
 423:.\Generated_Source\PSoC4/ADC.c **** 
 424:.\Generated_Source\PSoC4/ADC.c **** /*******************************************************************************
 425:.\Generated_Source\PSoC4/ADC.c **** * Function Name: ADC_IsEndConversion
 426:.\Generated_Source\PSoC4/ADC.c **** ********************************************************************************
 427:.\Generated_Source\PSoC4/ADC.c **** *
 428:.\Generated_Source\PSoC4/ADC.c **** * Summary:
 429:.\Generated_Source\PSoC4/ADC.c **** *  Description: Checks for ADC end of conversion for the case one
 430:.\Generated_Source\PSoC4/ADC.c **** *  channel and end of scan for the case of multiple channels. It acts
 431:.\Generated_Source\PSoC4/ADC.c **** *  as a software version of the EOC. This function provides the
 432:.\Generated_Source\PSoC4/ADC.c **** *  programmer with two options. In one mode this function
 433:.\Generated_Source\PSoC4/ADC.c **** *  immediately returns with the conversion status. In the other mode,
 434:.\Generated_Source\PSoC4/ADC.c **** *  the function does not return (blocking) until the conversion has
 435:.\Generated_Source\PSoC4/ADC.c **** *  completed.
 436:.\Generated_Source\PSoC4/ADC.c **** *
 437:.\Generated_Source\PSoC4/ADC.c **** * Parameters:
 438:.\Generated_Source\PSoC4/ADC.c **** *  ADC_RETURN_STATUS        -> Immediately returns conversion result status
 439:.\Generated_Source\PSoC4/ADC.c **** *  ADC_WAIT_FOR_RESULT      -> Does not return until ADC complete
 440:.\Generated_Source\PSoC4/ADC.c **** *  ADC_RETURN_STATUS_INJ    -> Immediately returns conversion result status
 441:.\Generated_Source\PSoC4/ADC.c **** *                              for injection channel
 442:.\Generated_Source\PSoC4/ADC.c **** *  ADC_WAIT_FOR_RESULT_INJ  -> Does not return until ADC completes injection
 443:.\Generated_Source\PSoC4/ADC.c **** *                              channel conversion
 444:.\Generated_Source\PSoC4/ADC.c **** *
 445:.\Generated_Source\PSoC4/ADC.c **** * Return:
 446:.\Generated_Source\PSoC4/ADC.c **** *  If a non-zero value is returned, the last conversion or scan has completed.
 447:.\Generated_Source\PSoC4/ADC.c **** *  If the returned value is zero, the ADC is still in the process of a scan.
 448:.\Generated_Source\PSoC4/ADC.c **** *
 449:.\Generated_Source\PSoC4/ADC.c **** *******************************************************************************/
 450:.\Generated_Source\PSoC4/ADC.c **** uint32 ADC_IsEndConversion(uint32 retMode)
 451:.\Generated_Source\PSoC4/ADC.c **** {
 478              		.loc 1 451 0
 479              		.cfi_startproc
 480              	.LVL21:
 481 0000 10B5     		push	{r4, lr}
 482              		.cfi_def_cfa_offset 8
 483              		.cfi_offset 4, -8
 484              		.cfi_offset 14, -4
 485              	.LVL22:
 452:.\Generated_Source\PSoC4/ADC.c ****     uint32 status = 0u;
 453:.\Generated_Source\PSoC4/ADC.c **** 
ARM GAS  C:\Users\JOHNSO~1\AppData\Local\Temp\ccloGcmo.s 			page 18


 454:.\Generated_Source\PSoC4/ADC.c ****     if((retMode & (ADC_RETURN_STATUS | ADC_WAIT_FOR_RESULT)) != 0u)
 486              		.loc 1 454 0
 487 0002 8307     		lsl	r3, r0, #30
 488 0004 0ED0     		beq	.L43
 455:.\Generated_Source\PSoC4/ADC.c ****     {
 456:.\Generated_Source\PSoC4/ADC.c ****         do
 457:.\Generated_Source\PSoC4/ADC.c ****         {
 458:.\Generated_Source\PSoC4/ADC.c ****             status = ADC_SAR_INTR_REG & ADC_EOS_MASK;
 489              		.loc 1 458 0 discriminator 1
 490 0006 1349     		ldr	r1, .L48
 491 0008 0122     		mov	r2, #1
 459:.\Generated_Source\PSoC4/ADC.c ****         }while((status == 0u) && ((retMode & ADC_WAIT_FOR_RESULT) != 0u));
 492              		.loc 1 459 0 discriminator 1
 493 000a 0224     		mov	r4, #2
 494 000c 0440     		and	r4, r0
 495              	.LVL23:
 496              	.L45:
 458:.\Generated_Source\PSoC4/ADC.c ****             status = ADC_SAR_INTR_REG & ADC_EOS_MASK;
 497              		.loc 1 458 0 discriminator 1
 498 000e 0B68     		ldr	r3, [r1]
 499 0010 1340     		and	r3, r2
 500              	.LVL24:
 501              		.loc 1 459 0 discriminator 1
 502 0012 01D1     		bne	.L38
 503 0014 002C     		cmp	r4, #0
 504 0016 FAD1     		bne	.L45
 505              	.L38:
 460:.\Generated_Source\PSoC4/ADC.c **** 
 461:.\Generated_Source\PSoC4/ADC.c ****         if(status != 0u)
 506              		.loc 1 461 0
 507 0018 002B     		cmp	r3, #0
 508 001a 04D0     		beq	.L37
 462:.\Generated_Source\PSoC4/ADC.c ****         {
 463:.\Generated_Source\PSoC4/ADC.c ****             /* Clear EOS bit */
 464:.\Generated_Source\PSoC4/ADC.c ****             ADC_SAR_INTR_REG = ADC_EOS_MASK;
 509              		.loc 1 464 0
 510 001c 0121     		mov	r1, #1
 511 001e 0D4A     		ldr	r2, .L48
 512 0020 1160     		str	r1, [r2]
 513 0022 00E0     		b	.L37
 514              	.LVL25:
 515              	.L43:
 452:.\Generated_Source\PSoC4/ADC.c ****     uint32 status = 0u;
 516              		.loc 1 452 0
 517 0024 0023     		mov	r3, #0
 518              	.LVL26:
 519              	.L37:
 465:.\Generated_Source\PSoC4/ADC.c ****         }
 466:.\Generated_Source\PSoC4/ADC.c ****     }
 467:.\Generated_Source\PSoC4/ADC.c **** 
 468:.\Generated_Source\PSoC4/ADC.c ****     #if(ADC_INJ_CHANNEL_ENABLED)
 469:.\Generated_Source\PSoC4/ADC.c ****         if((retMode & (ADC_RETURN_STATUS_INJ | ADC_WAIT_FOR_RESULT_INJ)) != 0u)
 520              		.loc 1 469 0
 521 0026 0C22     		mov	r2, #12
 522 0028 0242     		tst	r2, r0
 523 002a 10D0     		beq	.L40
 470:.\Generated_Source\PSoC4/ADC.c ****         {
ARM GAS  C:\Users\JOHNSO~1\AppData\Local\Temp\ccloGcmo.s 			page 19


 471:.\Generated_Source\PSoC4/ADC.c ****             do
 472:.\Generated_Source\PSoC4/ADC.c ****             {
 473:.\Generated_Source\PSoC4/ADC.c ****                 status |= ADC_SAR_INTR_REG & ADC_INJ_EOC_MASK;
 524              		.loc 1 473 0
 525 002c 094C     		ldr	r4, .L48
 526 002e 1021     		mov	r1, #16
 474:.\Generated_Source\PSoC4/ADC.c ****             }while(((status & ADC_INJ_EOC_MASK) == 0u) &&
 475:.\Generated_Source\PSoC4/ADC.c ****                    ((retMode & ADC_WAIT_FOR_RESULT_INJ) != 0u));
 527              		.loc 1 475 0
 528 0030 0822     		mov	r2, #8
 529 0032 1040     		and	r0, r2
 530              	.LVL27:
 531              	.L44:
 473:.\Generated_Source\PSoC4/ADC.c ****                 status |= ADC_SAR_INTR_REG & ADC_INJ_EOC_MASK;
 532              		.loc 1 473 0
 533 0034 2268     		ldr	r2, [r4]
 534 0036 0A40     		and	r2, r1
 535 0038 1343     		orr	r3, r2
 536              	.LVL28:
 474:.\Generated_Source\PSoC4/ADC.c ****             }while(((status & ADC_INJ_EOC_MASK) == 0u) &&
 537              		.loc 1 474 0
 538 003a 0A1C     		mov	r2, r1
 539 003c 1A40     		and	r2, r3
 540              		.loc 1 475 0
 541 003e 01D1     		bne	.L41
 474:.\Generated_Source\PSoC4/ADC.c ****             }while(((status & ADC_INJ_EOC_MASK) == 0u) &&
 542              		.loc 1 474 0 discriminator 1
 543 0040 0028     		cmp	r0, #0
 544 0042 F7D1     		bne	.L44
 545              	.L41:
 476:.\Generated_Source\PSoC4/ADC.c **** 
 477:.\Generated_Source\PSoC4/ADC.c ****             if((status & ADC_INJ_EOC_MASK) != 0u)
 546              		.loc 1 477 0
 547 0044 002A     		cmp	r2, #0
 548 0046 02D0     		beq	.L40
 478:.\Generated_Source\PSoC4/ADC.c ****             {
 479:.\Generated_Source\PSoC4/ADC.c ****                 /* Clear Injection EOS bit */
 480:.\Generated_Source\PSoC4/ADC.c ****                 ADC_SAR_INTR_REG = ADC_INJ_EOC_MASK;
 549              		.loc 1 480 0
 550 0048 1021     		mov	r1, #16
 551 004a 024A     		ldr	r2, .L48
 552 004c 1160     		str	r1, [r2]
 553              	.L40:
 481:.\Generated_Source\PSoC4/ADC.c ****             }
 482:.\Generated_Source\PSoC4/ADC.c ****         }
 483:.\Generated_Source\PSoC4/ADC.c ****     #endif /* ADC_INJ_CHANNEL_ENABLED */
 484:.\Generated_Source\PSoC4/ADC.c **** 
 485:.\Generated_Source\PSoC4/ADC.c ****     return (status);
 486:.\Generated_Source\PSoC4/ADC.c **** }
 554              		.loc 1 486 0
 555 004e 181C     		mov	r0, r3
 556              		@ sp needed
 557 0050 10BD     		pop	{r4, pc}
 558              	.L49:
 559 0052 C046     		.align	2
 560              	.L48:
 561 0054 10023A40 		.word	1077543440
ARM GAS  C:\Users\JOHNSO~1\AppData\Local\Temp\ccloGcmo.s 			page 20


 562              		.cfi_endproc
 563              	.LFE8:
 564              		.size	ADC_IsEndConversion, .-ADC_IsEndConversion
 565              		.section	.text.ADC_GetResult16,"ax",%progbits
 566              		.align	2
 567              		.global	ADC_GetResult16
 568              		.code	16
 569              		.thumb_func
 570              		.type	ADC_GetResult16, %function
 571              	ADC_GetResult16:
 572              	.LFB9:
 487:.\Generated_Source\PSoC4/ADC.c **** 
 488:.\Generated_Source\PSoC4/ADC.c **** 
 489:.\Generated_Source\PSoC4/ADC.c **** /*******************************************************************************
 490:.\Generated_Source\PSoC4/ADC.c **** * Function Name: ADC_GetResult16
 491:.\Generated_Source\PSoC4/ADC.c **** ********************************************************************************
 492:.\Generated_Source\PSoC4/ADC.c **** *
 493:.\Generated_Source\PSoC4/ADC.c **** * Summary:
 494:.\Generated_Source\PSoC4/ADC.c **** *  Gets the data available in the SAR DATA register.
 495:.\Generated_Source\PSoC4/ADC.c **** *
 496:.\Generated_Source\PSoC4/ADC.c **** * Parameters:
 497:.\Generated_Source\PSoC4/ADC.c **** *  chan: The ADC channel in which to return the result. The first channel
 498:.\Generated_Source\PSoC4/ADC.c **** *  is 0 and the injection channel if enabled is the number of valid channels.
 499:.\Generated_Source\PSoC4/ADC.c **** *
 500:.\Generated_Source\PSoC4/ADC.c **** * Return:
 501:.\Generated_Source\PSoC4/ADC.c **** *  Returns converted data as a signed 16-bit integer
 502:.\Generated_Source\PSoC4/ADC.c **** *
 503:.\Generated_Source\PSoC4/ADC.c **** *******************************************************************************/
 504:.\Generated_Source\PSoC4/ADC.c **** int16 ADC_GetResult16(uint32 chan)
 505:.\Generated_Source\PSoC4/ADC.c **** {
 573              		.loc 1 505 0
 574              		.cfi_startproc
 575              	.LVL29:
 576 0000 10B5     		push	{r4, lr}
 577              		.cfi_def_cfa_offset 8
 578              		.cfi_offset 4, -8
 579              		.cfi_offset 14, -4
 580 0002 041E     		sub	r4, r0, #0
 506:.\Generated_Source\PSoC4/ADC.c ****     uint32 result;
 507:.\Generated_Source\PSoC4/ADC.c **** 
 508:.\Generated_Source\PSoC4/ADC.c ****     /* Halt CPU in debug mode if channel is out of valid range */
 509:.\Generated_Source\PSoC4/ADC.c ****     CYASSERT(chan < ADC_TOTAL_CHANNELS_NUM);
 581              		.loc 1 509 0
 582 0004 042C     		cmp	r4, #4
 583 0006 02D9     		bls	.L51
 584              		.loc 1 509 0 is_stmt 0 discriminator 1
 585 0008 0020     		mov	r0, #0
 586              	.LVL30:
 587 000a FFF7FEFF 		bl	CyHalt
 588              	.LVL31:
 589              	.L51:
 510:.\Generated_Source\PSoC4/ADC.c **** 
 511:.\Generated_Source\PSoC4/ADC.c ****     if(chan < ADC_SEQUENCED_CHANNELS_NUM)
 590              		.loc 1 511 0 is_stmt 1
 591 000e 032C     		cmp	r4, #3
 592 0010 06D8     		bhi	.L52
 512:.\Generated_Source\PSoC4/ADC.c ****     {
ARM GAS  C:\Users\JOHNSO~1\AppData\Local\Temp\ccloGcmo.s 			page 21


 513:.\Generated_Source\PSoC4/ADC.c ****         result = CY_GET_REG32((reg32 *)(ADC_SAR_CHAN_RESULT_IND + (uint32)(chan << 2u))) &
 593              		.loc 1 513 0
 594 0012 A400     		lsl	r4, r4, #2
 595              	.LVL32:
 596 0014 054B     		ldr	r3, .L54
 597 0016 E418     		add	r4, r4, r3
 598 0018 2068     		ldr	r0, [r4]
 599 001a 0004     		lsl	r0, r0, #16
 600 001c 000C     		lsr	r0, r0, #16
 601              	.LVL33:
 602 001e 03E0     		b	.L53
 603              	.LVL34:
 604              	.L52:
 514:.\Generated_Source\PSoC4/ADC.c ****                 ADC_RESULT_MASK;
 515:.\Generated_Source\PSoC4/ADC.c ****     }
 516:.\Generated_Source\PSoC4/ADC.c ****     else
 517:.\Generated_Source\PSoC4/ADC.c ****     {
 518:.\Generated_Source\PSoC4/ADC.c ****         #if(ADC_INJ_CHANNEL_ENABLED)
 519:.\Generated_Source\PSoC4/ADC.c ****             result = ADC_SAR_INJ_RESULT_REG & ADC_RESULT_MASK;
 605              		.loc 1 519 0
 606 0020 034B     		ldr	r3, .L54+4
 607 0022 1868     		ldr	r0, [r3]
 608 0024 0004     		lsl	r0, r0, #16
 609 0026 000C     		lsr	r0, r0, #16
 610              	.LVL35:
 611              	.L53:
 520:.\Generated_Source\PSoC4/ADC.c ****         #else
 521:.\Generated_Source\PSoC4/ADC.c ****             result = 0u;
 522:.\Generated_Source\PSoC4/ADC.c ****         #endif /* ADC_INJ_CHANNEL_ENABLED */
 523:.\Generated_Source\PSoC4/ADC.c ****     }
 524:.\Generated_Source\PSoC4/ADC.c **** 
 525:.\Generated_Source\PSoC4/ADC.c ****     return ( (int16)result );
 612              		.loc 1 525 0
 613 0028 00B2     		sxth	r0, r0
 614              	.LVL36:
 526:.\Generated_Source\PSoC4/ADC.c **** }
 615              		.loc 1 526 0
 616              		@ sp needed
 617 002a 10BD     		pop	{r4, pc}
 618              	.L55:
 619              		.align	2
 620              	.L54:
 621 002c 80013A40 		.word	1077543296
 622 0030 90023A40 		.word	1077543568
 623              		.cfi_endproc
 624              	.LFE9:
 625              		.size	ADC_GetResult16, .-ADC_GetResult16
 626              		.section	.text.ADC_SetChanMask,"ax",%progbits
 627              		.align	2
 628              		.global	ADC_SetChanMask
 629              		.code	16
 630              		.thumb_func
 631              		.type	ADC_SetChanMask, %function
 632              	ADC_SetChanMask:
 633              	.LFB10:
 527:.\Generated_Source\PSoC4/ADC.c **** 
 528:.\Generated_Source\PSoC4/ADC.c **** 
ARM GAS  C:\Users\JOHNSO~1\AppData\Local\Temp\ccloGcmo.s 			page 22


 529:.\Generated_Source\PSoC4/ADC.c **** /*******************************************************************************
 530:.\Generated_Source\PSoC4/ADC.c **** * Function Name: ADC_SetChanMask
 531:.\Generated_Source\PSoC4/ADC.c **** ********************************************************************************
 532:.\Generated_Source\PSoC4/ADC.c **** *
 533:.\Generated_Source\PSoC4/ADC.c **** * Summary:
 534:.\Generated_Source\PSoC4/ADC.c **** *  Sets the channel enable mask.
 535:.\Generated_Source\PSoC4/ADC.c **** *
 536:.\Generated_Source\PSoC4/ADC.c **** * Parameters:
 537:.\Generated_Source\PSoC4/ADC.c **** *  mask: Sets which channels that will be
 538:.\Generated_Source\PSoC4/ADC.c **** *  scanned. Setting bits for channels that do not exist will have no
 539:.\Generated_Source\PSoC4/ADC.c **** *  effect. For example, if only 6 channels were enabled, setting a
 540:.\Generated_Source\PSoC4/ADC.c **** *  mask of 0x0103 would only enable the last two channels (0 and 1).
 541:.\Generated_Source\PSoC4/ADC.c **** *  This API will not enable the injection channel.
 542:.\Generated_Source\PSoC4/ADC.c **** *  Examples: If the component is setup to sequence through 8
 543:.\Generated_Source\PSoC4/ADC.c **** *  channels, a mask of 0x000F would enable channels 0, 1, 2, and 3.
 544:.\Generated_Source\PSoC4/ADC.c **** *
 545:.\Generated_Source\PSoC4/ADC.c **** * Return:
 546:.\Generated_Source\PSoC4/ADC.c **** *  None.
 547:.\Generated_Source\PSoC4/ADC.c **** *
 548:.\Generated_Source\PSoC4/ADC.c **** *******************************************************************************/
 549:.\Generated_Source\PSoC4/ADC.c **** void ADC_SetChanMask(uint32 mask)
 550:.\Generated_Source\PSoC4/ADC.c **** {
 634              		.loc 1 550 0
 635              		.cfi_startproc
 636              	.LVL37:
 551:.\Generated_Source\PSoC4/ADC.c ****     ADC_SAR_CHAN_EN_REG = mask & ADC_MAX_CHANNELS_EN_MASK;
 637              		.loc 1 551 0
 638 0000 0F23     		mov	r3, #15
 639 0002 1840     		and	r0, r3
 640              	.LVL38:
 641 0004 014B     		ldr	r3, .L57
 642 0006 1860     		str	r0, [r3]
 552:.\Generated_Source\PSoC4/ADC.c **** }
 643              		.loc 1 552 0
 644              		@ sp needed
 645 0008 7047     		bx	lr
 646              	.L58:
 647 000a C046     		.align	2
 648              	.L57:
 649 000c 20003A40 		.word	1077542944
 650              		.cfi_endproc
 651              	.LFE10:
 652              		.size	ADC_SetChanMask, .-ADC_SetChanMask
 653              		.section	.text.ADC_EnableInjection,"ax",%progbits
 654              		.align	2
 655              		.global	ADC_EnableInjection
 656              		.code	16
 657              		.thumb_func
 658              		.type	ADC_EnableInjection, %function
 659              	ADC_EnableInjection:
 660              	.LFB11:
 553:.\Generated_Source\PSoC4/ADC.c **** 
 554:.\Generated_Source\PSoC4/ADC.c **** #if(ADC_INJ_CHANNEL_ENABLED)
 555:.\Generated_Source\PSoC4/ADC.c **** 
 556:.\Generated_Source\PSoC4/ADC.c **** 
 557:.\Generated_Source\PSoC4/ADC.c ****     /*******************************************************************************
 558:.\Generated_Source\PSoC4/ADC.c ****     * Function Name: ADC_EnableInjection
ARM GAS  C:\Users\JOHNSO~1\AppData\Local\Temp\ccloGcmo.s 			page 23


 559:.\Generated_Source\PSoC4/ADC.c ****     ********************************************************************************
 560:.\Generated_Source\PSoC4/ADC.c ****     *
 561:.\Generated_Source\PSoC4/ADC.c ****     * Summary:
 562:.\Generated_Source\PSoC4/ADC.c ****     *  Enables the injection channel for the next scan only.
 563:.\Generated_Source\PSoC4/ADC.c ****     *
 564:.\Generated_Source\PSoC4/ADC.c ****     * Parameters:
 565:.\Generated_Source\PSoC4/ADC.c ****     *  None.
 566:.\Generated_Source\PSoC4/ADC.c ****     *
 567:.\Generated_Source\PSoC4/ADC.c ****     * Return:
 568:.\Generated_Source\PSoC4/ADC.c ****     *  None.
 569:.\Generated_Source\PSoC4/ADC.c ****     *
 570:.\Generated_Source\PSoC4/ADC.c ****     *******************************************************************************/
 571:.\Generated_Source\PSoC4/ADC.c ****     void ADC_EnableInjection(void)
 572:.\Generated_Source\PSoC4/ADC.c ****     {
 661              		.loc 1 572 0
 662              		.cfi_startproc
 573:.\Generated_Source\PSoC4/ADC.c ****         ADC_SAR_INJ_CHAN_CONFIG_REG |= ADC_INJ_CHAN_EN;
 663              		.loc 1 573 0
 664 0000 034B     		ldr	r3, .L60
 665 0002 1968     		ldr	r1, [r3]
 666 0004 8022     		mov	r2, #128
 667 0006 1206     		lsl	r2, r2, #24
 668 0008 0A43     		orr	r2, r1
 669 000a 1A60     		str	r2, [r3]
 574:.\Generated_Source\PSoC4/ADC.c ****     }
 670              		.loc 1 574 0
 671              		@ sp needed
 672 000c 7047     		bx	lr
 673              	.L61:
 674 000e C046     		.align	2
 675              	.L60:
 676 0010 80023A40 		.word	1077543552
 677              		.cfi_endproc
 678              	.LFE11:
 679              		.size	ADC_EnableInjection, .-ADC_EnableInjection
 680              		.section	.text.ADC_SetLowLimit,"ax",%progbits
 681              		.align	2
 682              		.global	ADC_SetLowLimit
 683              		.code	16
 684              		.thumb_func
 685              		.type	ADC_SetLowLimit, %function
 686              	ADC_SetLowLimit:
 687              	.LFB12:
 575:.\Generated_Source\PSoC4/ADC.c **** 
 576:.\Generated_Source\PSoC4/ADC.c **** #endif /* ADC_INJ_CHANNEL_ENABLED */
 577:.\Generated_Source\PSoC4/ADC.c **** 
 578:.\Generated_Source\PSoC4/ADC.c **** 
 579:.\Generated_Source\PSoC4/ADC.c **** /*******************************************************************************
 580:.\Generated_Source\PSoC4/ADC.c **** * Function Name: ADC_SetLowLimit
 581:.\Generated_Source\PSoC4/ADC.c **** ********************************************************************************
 582:.\Generated_Source\PSoC4/ADC.c **** *
 583:.\Generated_Source\PSoC4/ADC.c **** * Summary:
 584:.\Generated_Source\PSoC4/ADC.c **** *  Sets the low limit parameter for a limit condition.
 585:.\Generated_Source\PSoC4/ADC.c **** *
 586:.\Generated_Source\PSoC4/ADC.c **** * Parameters:
 587:.\Generated_Source\PSoC4/ADC.c **** *  lowLimit: The low limit for a limit condition.
 588:.\Generated_Source\PSoC4/ADC.c **** *
ARM GAS  C:\Users\JOHNSO~1\AppData\Local\Temp\ccloGcmo.s 			page 24


 589:.\Generated_Source\PSoC4/ADC.c **** * Return:
 590:.\Generated_Source\PSoC4/ADC.c **** *  None.
 591:.\Generated_Source\PSoC4/ADC.c **** *
 592:.\Generated_Source\PSoC4/ADC.c **** *******************************************************************************/
 593:.\Generated_Source\PSoC4/ADC.c **** void ADC_SetLowLimit(uint32 lowLimit)
 594:.\Generated_Source\PSoC4/ADC.c **** {
 688              		.loc 1 594 0
 689              		.cfi_startproc
 690              	.LVL39:
 595:.\Generated_Source\PSoC4/ADC.c ****     ADC_SAR_RANGE_THRES_REG &= (uint32)(~ADC_RANGE_LOW_MASK);
 691              		.loc 1 595 0
 692 0000 054B     		ldr	r3, .L63
 693 0002 1A68     		ldr	r2, [r3]
 694 0004 120C     		lsr	r2, r2, #16
 695 0006 1204     		lsl	r2, r2, #16
 696 0008 1A60     		str	r2, [r3]
 596:.\Generated_Source\PSoC4/ADC.c ****     ADC_SAR_RANGE_THRES_REG |= lowLimit & ADC_RANGE_LOW_MASK;
 697              		.loc 1 596 0
 698 000a 1A68     		ldr	r2, [r3]
 699 000c 0004     		lsl	r0, r0, #16
 700              	.LVL40:
 701 000e 000C     		lsr	r0, r0, #16
 702 0010 1043     		orr	r0, r2
 703 0012 1860     		str	r0, [r3]
 597:.\Generated_Source\PSoC4/ADC.c **** }
 704              		.loc 1 597 0
 705              		@ sp needed
 706 0014 7047     		bx	lr
 707              	.L64:
 708 0016 C046     		.align	2
 709              	.L63:
 710 0018 18003A40 		.word	1077542936
 711              		.cfi_endproc
 712              	.LFE12:
 713              		.size	ADC_SetLowLimit, .-ADC_SetLowLimit
 714              		.section	.text.ADC_SetHighLimit,"ax",%progbits
 715              		.align	2
 716              		.global	ADC_SetHighLimit
 717              		.code	16
 718              		.thumb_func
 719              		.type	ADC_SetHighLimit, %function
 720              	ADC_SetHighLimit:
 721              	.LFB13:
 598:.\Generated_Source\PSoC4/ADC.c **** 
 599:.\Generated_Source\PSoC4/ADC.c **** 
 600:.\Generated_Source\PSoC4/ADC.c **** /*******************************************************************************
 601:.\Generated_Source\PSoC4/ADC.c **** * Function Name: ADC_SetHighLimit
 602:.\Generated_Source\PSoC4/ADC.c **** ********************************************************************************
 603:.\Generated_Source\PSoC4/ADC.c **** *
 604:.\Generated_Source\PSoC4/ADC.c **** * Summary:
 605:.\Generated_Source\PSoC4/ADC.c **** *  Sets the low limit parameter for a limit condition.
 606:.\Generated_Source\PSoC4/ADC.c **** *
 607:.\Generated_Source\PSoC4/ADC.c **** * Parameters:
 608:.\Generated_Source\PSoC4/ADC.c **** *  highLimit: The high limit for a limit condition.
 609:.\Generated_Source\PSoC4/ADC.c **** *
 610:.\Generated_Source\PSoC4/ADC.c **** * Return:
 611:.\Generated_Source\PSoC4/ADC.c **** *  None.
ARM GAS  C:\Users\JOHNSO~1\AppData\Local\Temp\ccloGcmo.s 			page 25


 612:.\Generated_Source\PSoC4/ADC.c **** *
 613:.\Generated_Source\PSoC4/ADC.c **** *******************************************************************************/
 614:.\Generated_Source\PSoC4/ADC.c **** void ADC_SetHighLimit(uint32 highLimit)
 615:.\Generated_Source\PSoC4/ADC.c **** {
 722              		.loc 1 615 0
 723              		.cfi_startproc
 724              	.LVL41:
 616:.\Generated_Source\PSoC4/ADC.c ****     ADC_SAR_RANGE_THRES_REG &= (uint32)(~ADC_RANGE_HIGH_MASK);
 725              		.loc 1 616 0
 726 0000 044B     		ldr	r3, .L66
 727 0002 1A68     		ldr	r2, [r3]
 728 0004 1204     		lsl	r2, r2, #16
 729 0006 120C     		lsr	r2, r2, #16
 730 0008 1A60     		str	r2, [r3]
 617:.\Generated_Source\PSoC4/ADC.c ****     ADC_SAR_RANGE_THRES_REG |= (uint32)(highLimit << ADC_RANGE_HIGH_OFFSET);
 731              		.loc 1 617 0
 732 000a 1A68     		ldr	r2, [r3]
 733 000c 0004     		lsl	r0, r0, #16
 734              	.LVL42:
 735 000e 1043     		orr	r0, r2
 736 0010 1860     		str	r0, [r3]
 618:.\Generated_Source\PSoC4/ADC.c **** }
 737              		.loc 1 618 0
 738              		@ sp needed
 739 0012 7047     		bx	lr
 740              	.L67:
 741              		.align	2
 742              	.L66:
 743 0014 18003A40 		.word	1077542936
 744              		.cfi_endproc
 745              	.LFE13:
 746              		.size	ADC_SetHighLimit, .-ADC_SetHighLimit
 747              		.section	.text.ADC_SetLimitMask,"ax",%progbits
 748              		.align	2
 749              		.global	ADC_SetLimitMask
 750              		.code	16
 751              		.thumb_func
 752              		.type	ADC_SetLimitMask, %function
 753              	ADC_SetLimitMask:
 754              	.LFB14:
 619:.\Generated_Source\PSoC4/ADC.c **** 
 620:.\Generated_Source\PSoC4/ADC.c **** 
 621:.\Generated_Source\PSoC4/ADC.c **** /*******************************************************************************
 622:.\Generated_Source\PSoC4/ADC.c **** * Function Name: ADC_SetLimitMask
 623:.\Generated_Source\PSoC4/ADC.c **** ********************************************************************************
 624:.\Generated_Source\PSoC4/ADC.c **** *
 625:.\Generated_Source\PSoC4/ADC.c **** * Summary:
 626:.\Generated_Source\PSoC4/ADC.c **** *  Sets the channel limit condition mask.
 627:.\Generated_Source\PSoC4/ADC.c **** *
 628:.\Generated_Source\PSoC4/ADC.c **** * Parameters:
 629:.\Generated_Source\PSoC4/ADC.c **** *  mask: Sets which channels that may cause a
 630:.\Generated_Source\PSoC4/ADC.c **** *  limit condition interrupt. Setting bits for channels that do not exist
 631:.\Generated_Source\PSoC4/ADC.c **** *  will have no effect. For example, if only 6 channels were enabled,
 632:.\Generated_Source\PSoC4/ADC.c **** *  setting a mask of 0x0103 would only enable the last two channels (0 and 1).
 633:.\Generated_Source\PSoC4/ADC.c **** *
 634:.\Generated_Source\PSoC4/ADC.c **** * Return:
 635:.\Generated_Source\PSoC4/ADC.c **** *  None.
ARM GAS  C:\Users\JOHNSO~1\AppData\Local\Temp\ccloGcmo.s 			page 26


 636:.\Generated_Source\PSoC4/ADC.c **** *
 637:.\Generated_Source\PSoC4/ADC.c **** *******************************************************************************/
 638:.\Generated_Source\PSoC4/ADC.c **** void ADC_SetLimitMask(uint32 mask)
 639:.\Generated_Source\PSoC4/ADC.c **** {
 755              		.loc 1 639 0
 756              		.cfi_startproc
 757              	.LVL43:
 640:.\Generated_Source\PSoC4/ADC.c ****     ADC_SAR_RANGE_INTR_MASK_REG = mask & ADC_MAX_CHANNELS_EN_MASK;
 758              		.loc 1 640 0
 759 0000 0F23     		mov	r3, #15
 760 0002 1840     		and	r0, r3
 761              	.LVL44:
 762 0004 014B     		ldr	r3, .L69
 763 0006 1860     		str	r0, [r3]
 641:.\Generated_Source\PSoC4/ADC.c **** }
 764              		.loc 1 641 0
 765              		@ sp needed
 766 0008 7047     		bx	lr
 767              	.L70:
 768 000a C046     		.align	2
 769              	.L69:
 770 000c 38023A40 		.word	1077543480
 771              		.cfi_endproc
 772              	.LFE14:
 773              		.size	ADC_SetLimitMask, .-ADC_SetLimitMask
 774              		.section	.text.ADC_SetSatMask,"ax",%progbits
 775              		.align	2
 776              		.global	ADC_SetSatMask
 777              		.code	16
 778              		.thumb_func
 779              		.type	ADC_SetSatMask, %function
 780              	ADC_SetSatMask:
 781              	.LFB15:
 642:.\Generated_Source\PSoC4/ADC.c **** 
 643:.\Generated_Source\PSoC4/ADC.c **** 
 644:.\Generated_Source\PSoC4/ADC.c **** /*******************************************************************************
 645:.\Generated_Source\PSoC4/ADC.c **** * Function Name: ADC_SetSatMask
 646:.\Generated_Source\PSoC4/ADC.c **** ********************************************************************************
 647:.\Generated_Source\PSoC4/ADC.c **** *
 648:.\Generated_Source\PSoC4/ADC.c **** * Summary:
 649:.\Generated_Source\PSoC4/ADC.c **** *  Sets the channel saturation event mask.
 650:.\Generated_Source\PSoC4/ADC.c **** *
 651:.\Generated_Source\PSoC4/ADC.c **** * Parameters:
 652:.\Generated_Source\PSoC4/ADC.c **** *  mask: Sets which channels that may cause a
 653:.\Generated_Source\PSoC4/ADC.c **** *  saturation event interrupt. Setting bits for channels that do not exist
 654:.\Generated_Source\PSoC4/ADC.c **** *  will have no effect. For example, if only 8 channels were enabled,
 655:.\Generated_Source\PSoC4/ADC.c **** *  setting a mask of 0x01C0 would only enable two channels (6 and 7).
 656:.\Generated_Source\PSoC4/ADC.c **** *
 657:.\Generated_Source\PSoC4/ADC.c **** * Return:
 658:.\Generated_Source\PSoC4/ADC.c **** *  None.
 659:.\Generated_Source\PSoC4/ADC.c **** *
 660:.\Generated_Source\PSoC4/ADC.c **** *******************************************************************************/
 661:.\Generated_Source\PSoC4/ADC.c **** void ADC_SetSatMask(uint32 mask)
 662:.\Generated_Source\PSoC4/ADC.c **** {
 782              		.loc 1 662 0
 783              		.cfi_startproc
 784              	.LVL45:
ARM GAS  C:\Users\JOHNSO~1\AppData\Local\Temp\ccloGcmo.s 			page 27


 663:.\Generated_Source\PSoC4/ADC.c ****     ADC_SAR_SATURATE_INTR_MASK_REG = mask & ADC_MAX_CHANNELS_EN_MASK;
 785              		.loc 1 663 0
 786 0000 0F23     		mov	r3, #15
 787 0002 1840     		and	r0, r3
 788              	.LVL46:
 789 0004 014B     		ldr	r3, .L72
 790 0006 1860     		str	r0, [r3]
 664:.\Generated_Source\PSoC4/ADC.c **** }
 791              		.loc 1 664 0
 792              		@ sp needed
 793 0008 7047     		bx	lr
 794              	.L73:
 795 000a C046     		.align	2
 796              	.L72:
 797 000c 28023A40 		.word	1077543464
 798              		.cfi_endproc
 799              	.LFE15:
 800              		.size	ADC_SetSatMask, .-ADC_SetSatMask
 801              		.section	.text.ADC_SetOffset,"ax",%progbits
 802              		.align	2
 803              		.global	ADC_SetOffset
 804              		.code	16
 805              		.thumb_func
 806              		.type	ADC_SetOffset, %function
 807              	ADC_SetOffset:
 808              	.LFB16:
 665:.\Generated_Source\PSoC4/ADC.c **** 
 666:.\Generated_Source\PSoC4/ADC.c **** 
 667:.\Generated_Source\PSoC4/ADC.c **** /*******************************************************************************
 668:.\Generated_Source\PSoC4/ADC.c **** * Function Name: ADC_SetOffset
 669:.\Generated_Source\PSoC4/ADC.c **** ********************************************************************************
 670:.\Generated_Source\PSoC4/ADC.c **** *
 671:.\Generated_Source\PSoC4/ADC.c **** * Summary:
 672:.\Generated_Source\PSoC4/ADC.c **** *   Description: Sets the ADC offset which is used by the functions
 673:.\Generated_Source\PSoC4/ADC.c **** *   ADC_CountsTo_uVolts, ADC_CountsTo_mVolts and ADC_CountsTo_Volts
 674:.\Generated_Source\PSoC4/ADC.c **** *   to substract the offset from the given reading
 675:.\Generated_Source\PSoC4/ADC.c **** *   before calculating the voltage conversion.
 676:.\Generated_Source\PSoC4/ADC.c **** *
 677:.\Generated_Source\PSoC4/ADC.c **** * Parameters:
 678:.\Generated_Source\PSoC4/ADC.c **** *  chan: ADC channel number.
 679:.\Generated_Source\PSoC4/ADC.c **** *  offset: This value is a measured value when the
 680:.\Generated_Source\PSoC4/ADC.c **** *          inputs are shorted or connected to the same input voltage.
 681:.\Generated_Source\PSoC4/ADC.c **** *
 682:.\Generated_Source\PSoC4/ADC.c **** * Return:
 683:.\Generated_Source\PSoC4/ADC.c **** *  None.
 684:.\Generated_Source\PSoC4/ADC.c **** *
 685:.\Generated_Source\PSoC4/ADC.c **** * Global variables:
 686:.\Generated_Source\PSoC4/ADC.c **** *  ADC_Offset:  Modified to set the user provided offset.
 687:.\Generated_Source\PSoC4/ADC.c **** *
 688:.\Generated_Source\PSoC4/ADC.c **** *******************************************************************************/
 689:.\Generated_Source\PSoC4/ADC.c **** void ADC_SetOffset(uint32 chan, int16 offset)
 690:.\Generated_Source\PSoC4/ADC.c **** {
 809              		.loc 1 690 0
 810              		.cfi_startproc
 811              	.LVL47:
 812 0000 38B5     		push	{r3, r4, r5, lr}
 813              		.cfi_def_cfa_offset 16
ARM GAS  C:\Users\JOHNSO~1\AppData\Local\Temp\ccloGcmo.s 			page 28


 814              		.cfi_offset 3, -16
 815              		.cfi_offset 4, -12
 816              		.cfi_offset 5, -8
 817              		.cfi_offset 14, -4
 818 0002 041C     		mov	r4, r0
 819 0004 0D1C     		mov	r5, r1
 691:.\Generated_Source\PSoC4/ADC.c ****     /* Halt CPU in debug mode if channel is out of valid range */
 692:.\Generated_Source\PSoC4/ADC.c ****     CYASSERT(chan < ADC_TOTAL_CHANNELS_NUM);
 820              		.loc 1 692 0
 821 0006 0428     		cmp	r0, #4
 822 0008 02D9     		bls	.L75
 823              		.loc 1 692 0 is_stmt 0 discriminator 1
 824 000a 0020     		mov	r0, #0
 825              	.LVL48:
 826 000c FFF7FEFF 		bl	CyHalt
 827              	.LVL49:
 828              	.L75:
 693:.\Generated_Source\PSoC4/ADC.c **** 
 694:.\Generated_Source\PSoC4/ADC.c ****     ADC_offset[chan] = offset;
 829              		.loc 1 694 0 is_stmt 1
 830 0010 6400     		lsl	r4, r4, #1
 831              	.LVL50:
 832 0012 014B     		ldr	r3, .L76
 833 0014 E552     		strh	r5, [r4, r3]
 695:.\Generated_Source\PSoC4/ADC.c **** }
 834              		.loc 1 695 0
 835              		@ sp needed
 836 0016 38BD     		pop	{r3, r4, r5, pc}
 837              	.L77:
 838              		.align	2
 839              	.L76:
 840 0018 00000000 		.word	ADC_offset
 841              		.cfi_endproc
 842              	.LFE16:
 843              		.size	ADC_SetOffset, .-ADC_SetOffset
 844              		.section	.text.ADC_SetGain,"ax",%progbits
 845              		.align	2
 846              		.global	ADC_SetGain
 847              		.code	16
 848              		.thumb_func
 849              		.type	ADC_SetGain, %function
 850              	ADC_SetGain:
 851              	.LFB17:
 696:.\Generated_Source\PSoC4/ADC.c **** 
 697:.\Generated_Source\PSoC4/ADC.c **** 
 698:.\Generated_Source\PSoC4/ADC.c **** /*******************************************************************************
 699:.\Generated_Source\PSoC4/ADC.c **** * Function Name: ADC_SetGain
 700:.\Generated_Source\PSoC4/ADC.c **** ********************************************************************************
 701:.\Generated_Source\PSoC4/ADC.c **** *
 702:.\Generated_Source\PSoC4/ADC.c **** * Summary:
 703:.\Generated_Source\PSoC4/ADC.c **** *  Description: Sets the ADC gain in counts per 10 volt for the voltage
 704:.\Generated_Source\PSoC4/ADC.c **** *  conversion functions below. This value is set by default by the
 705:.\Generated_Source\PSoC4/ADC.c **** *  reference and input range settings. It should only be used to further
 706:.\Generated_Source\PSoC4/ADC.c **** *  calibrate the ADC with a known input or if an external reference is
 707:.\Generated_Source\PSoC4/ADC.c **** *  used. Affects the ADC_CountsTo_uVolts, ADC_CountsTo_mVolts
 708:.\Generated_Source\PSoC4/ADC.c **** *  and ADC_CountsTo_Volts functions by supplying the correct
 709:.\Generated_Source\PSoC4/ADC.c **** *  conversion between ADC counts and voltage.
ARM GAS  C:\Users\JOHNSO~1\AppData\Local\Temp\ccloGcmo.s 			page 29


 710:.\Generated_Source\PSoC4/ADC.c **** *
 711:.\Generated_Source\PSoC4/ADC.c **** * Parameters:
 712:.\Generated_Source\PSoC4/ADC.c **** *  chan: ADC channel number.
 713:.\Generated_Source\PSoC4/ADC.c **** *  adcGain: ADC gain in counts per 10 volts.
 714:.\Generated_Source\PSoC4/ADC.c **** *
 715:.\Generated_Source\PSoC4/ADC.c **** * Return:
 716:.\Generated_Source\PSoC4/ADC.c **** *  None.
 717:.\Generated_Source\PSoC4/ADC.c **** *
 718:.\Generated_Source\PSoC4/ADC.c **** * Global variables:
 719:.\Generated_Source\PSoC4/ADC.c **** *  ADC_CountsPer10Volt:  modified to set the ADC gain in counts
 720:.\Generated_Source\PSoC4/ADC.c **** *   per 10 volt.
 721:.\Generated_Source\PSoC4/ADC.c **** *
 722:.\Generated_Source\PSoC4/ADC.c **** *******************************************************************************/
 723:.\Generated_Source\PSoC4/ADC.c **** void ADC_SetGain(uint32 chan, int32 adcGain)
 724:.\Generated_Source\PSoC4/ADC.c **** {
 852              		.loc 1 724 0
 853              		.cfi_startproc
 854              	.LVL51:
 855 0000 38B5     		push	{r3, r4, r5, lr}
 856              		.cfi_def_cfa_offset 16
 857              		.cfi_offset 3, -16
 858              		.cfi_offset 4, -12
 859              		.cfi_offset 5, -8
 860              		.cfi_offset 14, -4
 861 0002 041C     		mov	r4, r0
 862 0004 0D1C     		mov	r5, r1
 725:.\Generated_Source\PSoC4/ADC.c ****     /* Halt CPU in debug mode if channel is out of valid range */
 726:.\Generated_Source\PSoC4/ADC.c ****     CYASSERT(chan < ADC_TOTAL_CHANNELS_NUM);
 863              		.loc 1 726 0
 864 0006 0428     		cmp	r0, #4
 865 0008 02D9     		bls	.L79
 866              		.loc 1 726 0 is_stmt 0 discriminator 1
 867 000a 0020     		mov	r0, #0
 868              	.LVL52:
 869 000c FFF7FEFF 		bl	CyHalt
 870              	.LVL53:
 871              	.L79:
 727:.\Generated_Source\PSoC4/ADC.c **** 
 728:.\Generated_Source\PSoC4/ADC.c ****     ADC_countsPer10Volt[chan] = adcGain;
 872              		.loc 1 728 0 is_stmt 1
 873 0010 A400     		lsl	r4, r4, #2
 874              	.LVL54:
 875 0012 014B     		ldr	r3, .L80
 876 0014 E550     		str	r5, [r4, r3]
 729:.\Generated_Source\PSoC4/ADC.c **** }
 877              		.loc 1 729 0
 878              		@ sp needed
 879              	.LVL55:
 880 0016 38BD     		pop	{r3, r4, r5, pc}
 881              	.L81:
 882              		.align	2
 883              	.L80:
 884 0018 00000000 		.word	ADC_countsPer10Volt
 885              		.cfi_endproc
 886              	.LFE17:
 887              		.size	ADC_SetGain, .-ADC_SetGain
 888              		.global	__aeabi_idiv
ARM GAS  C:\Users\JOHNSO~1\AppData\Local\Temp\ccloGcmo.s 			page 30


 889              		.section	.text.ADC_CountsTo_mVolts,"ax",%progbits
 890              		.align	2
 891              		.global	ADC_CountsTo_mVolts
 892              		.code	16
 893              		.thumb_func
 894              		.type	ADC_CountsTo_mVolts, %function
 895              	ADC_CountsTo_mVolts:
 896              	.LFB18:
 730:.\Generated_Source\PSoC4/ADC.c **** 
 731:.\Generated_Source\PSoC4/ADC.c **** 
 732:.\Generated_Source\PSoC4/ADC.c **** #if(ADC_DEFAULT_JUSTIFICATION_SEL == ADC__RIGHT)
 733:.\Generated_Source\PSoC4/ADC.c **** 
 734:.\Generated_Source\PSoC4/ADC.c **** 
 735:.\Generated_Source\PSoC4/ADC.c ****     /*******************************************************************************
 736:.\Generated_Source\PSoC4/ADC.c ****     * Function Name: ADC_CountsTo_mVolts
 737:.\Generated_Source\PSoC4/ADC.c ****     ********************************************************************************
 738:.\Generated_Source\PSoC4/ADC.c ****     *
 739:.\Generated_Source\PSoC4/ADC.c ****     * Summary:
 740:.\Generated_Source\PSoC4/ADC.c ****     *  This function converts ADC counts to mVolts
 741:.\Generated_Source\PSoC4/ADC.c ****     *  This function is not available when left data format justification selected.
 742:.\Generated_Source\PSoC4/ADC.c ****     *
 743:.\Generated_Source\PSoC4/ADC.c ****     * Parameters:
 744:.\Generated_Source\PSoC4/ADC.c ****     *  chan: The ADC channel number.
 745:.\Generated_Source\PSoC4/ADC.c ****     *  adcCounts: Result from the ADC conversion
 746:.\Generated_Source\PSoC4/ADC.c ****     *
 747:.\Generated_Source\PSoC4/ADC.c ****     * Return:
 748:.\Generated_Source\PSoC4/ADC.c ****     *  Results in mVolts
 749:.\Generated_Source\PSoC4/ADC.c ****     *
 750:.\Generated_Source\PSoC4/ADC.c ****     * Global variables:
 751:.\Generated_Source\PSoC4/ADC.c ****     *  ADC_countsPer10Volt:  used to convert ADC counts to mVolts.
 752:.\Generated_Source\PSoC4/ADC.c ****     *  ADC_Offset:  Used as the offset while converting ADC counts
 753:.\Generated_Source\PSoC4/ADC.c ****     *   to mVolts.
 754:.\Generated_Source\PSoC4/ADC.c ****     *
 755:.\Generated_Source\PSoC4/ADC.c ****     *******************************************************************************/
 756:.\Generated_Source\PSoC4/ADC.c ****     int16 ADC_CountsTo_mVolts(uint32 chan, int16 adcCounts)
 757:.\Generated_Source\PSoC4/ADC.c ****     {
 897              		.loc 1 757 0
 898              		.cfi_startproc
 899              	.LVL56:
 900 0000 38B5     		push	{r3, r4, r5, lr}
 901              		.cfi_def_cfa_offset 16
 902              		.cfi_offset 3, -16
 903              		.cfi_offset 4, -12
 904              		.cfi_offset 5, -8
 905              		.cfi_offset 14, -4
 906 0002 041C     		mov	r4, r0
 907 0004 0D1C     		mov	r5, r1
 758:.\Generated_Source\PSoC4/ADC.c ****         int16 mVolts;
 759:.\Generated_Source\PSoC4/ADC.c **** 
 760:.\Generated_Source\PSoC4/ADC.c ****         /* Halt CPU in debug mode if channel is out of valid range */
 761:.\Generated_Source\PSoC4/ADC.c ****         CYASSERT(chan < ADC_TOTAL_CHANNELS_NUM);
 908              		.loc 1 761 0
 909 0006 0428     		cmp	r0, #4
 910 0008 02D9     		bls	.L83
 911              		.loc 1 761 0 is_stmt 0 discriminator 1
 912 000a 0020     		mov	r0, #0
 913              	.LVL57:
ARM GAS  C:\Users\JOHNSO~1\AppData\Local\Temp\ccloGcmo.s 			page 31


 914 000c FFF7FEFF 		bl	CyHalt
 915              	.LVL58:
 916              	.L83:
 762:.\Generated_Source\PSoC4/ADC.c **** 
 763:.\Generated_Source\PSoC4/ADC.c ****         /* Divide the adcCount when accumulate averaging mode selected */
 764:.\Generated_Source\PSoC4/ADC.c ****         #if(ADC_DEFAULT_AVG_MODE == ADC__ACCUMULATE)
 765:.\Generated_Source\PSoC4/ADC.c ****             if((ADC_channelsConfig[chan] & ADC_AVERAGING_EN) != 0u)
 766:.\Generated_Source\PSoC4/ADC.c ****             {
 767:.\Generated_Source\PSoC4/ADC.c ****                 adcCounts /= ADC_DEFAULT_AVG_SAMPLES_DIV;
 768:.\Generated_Source\PSoC4/ADC.c ****             }
 769:.\Generated_Source\PSoC4/ADC.c ****         #endif /* ADC_DEFAULT_AVG_MODE == ADC__ACCUMULATE */
 770:.\Generated_Source\PSoC4/ADC.c **** 
 771:.\Generated_Source\PSoC4/ADC.c ****         /* Subtract ADC offset */
 772:.\Generated_Source\PSoC4/ADC.c ****         adcCounts -= ADC_offset[chan];
 917              		.loc 1 772 0 is_stmt 1
 918 0010 6300     		lsl	r3, r4, #1
 919 0012 0F4A     		ldr	r2, .L86
 920 0014 995A     		ldrh	r1, [r3, r2]
 921 0016 691A     		sub	r1, r5, r1
 922 0018 09B2     		sxth	r1, r1
 923              	.LVL59:
 773:.\Generated_Source\PSoC4/ADC.c **** 
 774:.\Generated_Source\PSoC4/ADC.c ****         mVolts = (int16)((((int32)adcCounts * ADC_10MV_COUNTS) + ( (adcCounts > 0) ?
 924              		.loc 1 774 0
 925 001a 0E4B     		ldr	r3, .L86+4
 926 001c 4B43     		mul	r3, r1
 775:.\Generated_Source\PSoC4/ADC.c ****                  (ADC_countsPer10Volt[chan] / 2) : (-(ADC_countsPer10Volt[chan] / 2)) ))
 927              		.loc 1 775 0
 928 001e 0029     		cmp	r1, #0
 929 0020 06DD     		ble	.L84
 930              		.loc 1 775 0 is_stmt 0 discriminator 1
 931 0022 A200     		lsl	r2, r4, #2
 932 0024 0C49     		ldr	r1, .L86+8
 933              	.LVL60:
 934 0026 5258     		ldr	r2, [r2, r1]
 935 0028 D00F     		lsr	r0, r2, #31
 936 002a 8018     		add	r0, r0, r2
 937 002c 4010     		asr	r0, r0, #1
 938 002e 06E0     		b	.L85
 939              	.LVL61:
 940              	.L84:
 941              		.loc 1 775 0 discriminator 2
 942 0030 A200     		lsl	r2, r4, #2
 943 0032 0949     		ldr	r1, .L86+8
 944              	.LVL62:
 945 0034 5258     		ldr	r2, [r2, r1]
 946 0036 D00F     		lsr	r0, r2, #31
 947 0038 8018     		add	r0, r0, r2
 948 003a 4010     		asr	r0, r0, #1
 949 003c 4042     		neg	r0, r0
 950              	.L85:
 774:.\Generated_Source\PSoC4/ADC.c ****         mVolts = (int16)((((int32)adcCounts * ADC_10MV_COUNTS) + ( (adcCounts > 0) ?
 951              		.loc 1 774 0 is_stmt 1
 952 003e 1818     		add	r0, r3, r0
 776:.\Generated_Source\PSoC4/ADC.c ****                  / ADC_countsPer10Volt[chan]);
 953              		.loc 1 776 0
 954 0040 A400     		lsl	r4, r4, #2
ARM GAS  C:\Users\JOHNSO~1\AppData\Local\Temp\ccloGcmo.s 			page 32


 955              	.LVL63:
 956 0042 054B     		ldr	r3, .L86+8
 957 0044 E158     		ldr	r1, [r4, r3]
 958 0046 FFF7FEFF 		bl	__aeabi_idiv
 959              	.LVL64:
 777:.\Generated_Source\PSoC4/ADC.c **** 
 778:.\Generated_Source\PSoC4/ADC.c ****         return( mVolts );
 960              		.loc 1 778 0
 961 004a 00B2     		sxth	r0, r0
 962              	.LVL65:
 779:.\Generated_Source\PSoC4/ADC.c ****     }
 963              		.loc 1 779 0
 964              		@ sp needed
 965 004c 38BD     		pop	{r3, r4, r5, pc}
 966              	.L87:
 967 004e C046     		.align	2
 968              	.L86:
 969 0050 00000000 		.word	ADC_offset
 970 0054 10270000 		.word	10000
 971 0058 00000000 		.word	ADC_countsPer10Volt
 972              		.cfi_endproc
 973              	.LFE18:
 974              		.size	ADC_CountsTo_mVolts, .-ADC_CountsTo_mVolts
 975              		.global	__aeabi_lmul
 976              		.global	__aeabi_ldivmod
 977              		.section	.text.ADC_CountsTo_uVolts,"ax",%progbits
 978              		.align	2
 979              		.global	ADC_CountsTo_uVolts
 980              		.code	16
 981              		.thumb_func
 982              		.type	ADC_CountsTo_uVolts, %function
 983              	ADC_CountsTo_uVolts:
 984              	.LFB19:
 780:.\Generated_Source\PSoC4/ADC.c **** 
 781:.\Generated_Source\PSoC4/ADC.c **** 
 782:.\Generated_Source\PSoC4/ADC.c ****     /*******************************************************************************
 783:.\Generated_Source\PSoC4/ADC.c ****     * Function Name: ADC_CountsTo_uVolts
 784:.\Generated_Source\PSoC4/ADC.c ****     ********************************************************************************
 785:.\Generated_Source\PSoC4/ADC.c ****     *
 786:.\Generated_Source\PSoC4/ADC.c ****     * Summary:
 787:.\Generated_Source\PSoC4/ADC.c ****     *  This function converts ADC counts to micro Volts
 788:.\Generated_Source\PSoC4/ADC.c ****     *  This function is not available when left data format justification selected.
 789:.\Generated_Source\PSoC4/ADC.c ****     *
 790:.\Generated_Source\PSoC4/ADC.c ****     * Parameters:
 791:.\Generated_Source\PSoC4/ADC.c ****     *  chan: The ADC channel number.
 792:.\Generated_Source\PSoC4/ADC.c ****     *  adcCounts: Result from the ADC conversion
 793:.\Generated_Source\PSoC4/ADC.c ****     *
 794:.\Generated_Source\PSoC4/ADC.c ****     * Return:
 795:.\Generated_Source\PSoC4/ADC.c ****     *  Results in uVolts
 796:.\Generated_Source\PSoC4/ADC.c ****     *
 797:.\Generated_Source\PSoC4/ADC.c ****     * Global variables:
 798:.\Generated_Source\PSoC4/ADC.c ****     *  ADC_countsPer10Volt:  used to convert ADC counts to uVolts.
 799:.\Generated_Source\PSoC4/ADC.c ****     *  ADC_Offset:  Used as the offset while converting ADC counts
 800:.\Generated_Source\PSoC4/ADC.c ****     *   to mVolts.
 801:.\Generated_Source\PSoC4/ADC.c ****     *
 802:.\Generated_Source\PSoC4/ADC.c ****     * Theory:
 803:.\Generated_Source\PSoC4/ADC.c ****     *  Care must be taken to not exceed the maximum value for a 31 bit signed
ARM GAS  C:\Users\JOHNSO~1\AppData\Local\Temp\ccloGcmo.s 			page 33


 804:.\Generated_Source\PSoC4/ADC.c ****     *  number in the conversion to uVolts and at the same time not loose
 805:.\Generated_Source\PSoC4/ADC.c ****     *  resolution.
 806:.\Generated_Source\PSoC4/ADC.c ****     *  To convert adcCounts to microVolts it is required to be multiplied
 807:.\Generated_Source\PSoC4/ADC.c ****     *  on 10 million and later divide on gain in counts per 10V.
 808:.\Generated_Source\PSoC4/ADC.c ****     *
 809:.\Generated_Source\PSoC4/ADC.c ****     *******************************************************************************/
 810:.\Generated_Source\PSoC4/ADC.c ****     int32 ADC_CountsTo_uVolts(uint32 chan, int16 adcCounts)
 811:.\Generated_Source\PSoC4/ADC.c ****     {
 985              		.loc 1 811 0
 986              		.cfi_startproc
 987              	.LVL66:
 988 0000 58B5     		push	{r3, r4, r6, lr}
 989              		.cfi_def_cfa_offset 16
 990              		.cfi_offset 3, -16
 991              		.cfi_offset 4, -12
 992              		.cfi_offset 6, -8
 993              		.cfi_offset 14, -4
 994 0002 061C     		mov	r6, r0
 995 0004 0C1C     		mov	r4, r1
 812:.\Generated_Source\PSoC4/ADC.c ****         int64 uVolts;
 813:.\Generated_Source\PSoC4/ADC.c **** 
 814:.\Generated_Source\PSoC4/ADC.c ****         /* Halt CPU in debug mode if channel is out of valid range */
 815:.\Generated_Source\PSoC4/ADC.c ****         CYASSERT(chan < ADC_TOTAL_CHANNELS_NUM);
 996              		.loc 1 815 0
 997 0006 0428     		cmp	r0, #4
 998 0008 02D9     		bls	.L89
 999              		.loc 1 815 0 is_stmt 0 discriminator 1
 1000 000a 0020     		mov	r0, #0
 1001              	.LVL67:
 1002 000c FFF7FEFF 		bl	CyHalt
 1003              	.LVL68:
 1004              	.L89:
 816:.\Generated_Source\PSoC4/ADC.c **** 
 817:.\Generated_Source\PSoC4/ADC.c ****         /* Divide the adcCount when accumulate averaging mode selected */
 818:.\Generated_Source\PSoC4/ADC.c ****         #if(ADC_DEFAULT_AVG_MODE == ADC__ACCUMULATE)
 819:.\Generated_Source\PSoC4/ADC.c ****             if((ADC_channelsConfig[chan] & ADC_AVERAGING_EN) != 0u)
 820:.\Generated_Source\PSoC4/ADC.c ****             {
 821:.\Generated_Source\PSoC4/ADC.c ****                 adcCounts /= ADC_DEFAULT_AVG_SAMPLES_DIV;
 822:.\Generated_Source\PSoC4/ADC.c ****             }
 823:.\Generated_Source\PSoC4/ADC.c ****         #endif /* ADC_DEFAULT_AVG_MODE == ADC__ACCUMULATE */
 824:.\Generated_Source\PSoC4/ADC.c **** 
 825:.\Generated_Source\PSoC4/ADC.c ****         /* Subtract ADC offset */
 826:.\Generated_Source\PSoC4/ADC.c ****         adcCounts -= ADC_offset[chan];
 1005              		.loc 1 826 0 is_stmt 1
 1006 0010 7200     		lsl	r2, r6, #1
 1007 0012 0B4B     		ldr	r3, .L90+8
 1008 0014 D05A     		ldrh	r0, [r2, r3]
 1009 0016 201A     		sub	r0, r4, r0
 1010 0018 00B2     		sxth	r0, r0
 1011              	.LVL69:
 827:.\Generated_Source\PSoC4/ADC.c **** 
 828:.\Generated_Source\PSoC4/ADC.c ****         uVolts = ((int64)adcCounts * ADC_10UV_COUNTS) / ADC_countsPer10Volt[chan];
 1012              		.loc 1 828 0
 1013 001a C117     		asr	r1, r0, #31
 1014 001c 074B     		ldr	r3, .L90+4
 1015 001e 064A     		ldr	r2, .L90
 1016 0020 FFF7FEFF 		bl	__aeabi_lmul
ARM GAS  C:\Users\JOHNSO~1\AppData\Local\Temp\ccloGcmo.s 			page 34


 1017              	.LVL70:
 1018 0024 B600     		lsl	r6, r6, #2
 1019              	.LVL71:
 1020 0026 074B     		ldr	r3, .L90+12
 1021 0028 F258     		ldr	r2, [r6, r3]
 1022 002a D317     		asr	r3, r2, #31
 1023 002c FFF7FEFF 		bl	__aeabi_ldivmod
 1024              	.LVL72:
 829:.\Generated_Source\PSoC4/ADC.c **** 
 830:.\Generated_Source\PSoC4/ADC.c ****         return( (int32)uVolts );
 831:.\Generated_Source\PSoC4/ADC.c ****     }
 1025              		.loc 1 831 0
 1026              		@ sp needed
 1027 0030 58BD     		pop	{r3, r4, r6, pc}
 1028              	.L91:
 1029 0032 C046C046 		.align	3
 1029      C046
 1030              	.L90:
 1031 0038 80969800 		.word	10000000
 1032 003c 00000000 		.word	0
 1033 0040 00000000 		.word	ADC_offset
 1034 0044 00000000 		.word	ADC_countsPer10Volt
 1035              		.cfi_endproc
 1036              	.LFE19:
 1037              		.size	ADC_CountsTo_uVolts, .-ADC_CountsTo_uVolts
 1038              		.global	__aeabi_i2f
 1039              		.global	__aeabi_fmul
 1040              		.global	__aeabi_fdiv
 1041              		.section	.text.ADC_CountsTo_Volts,"ax",%progbits
 1042              		.align	2
 1043              		.global	ADC_CountsTo_Volts
 1044              		.code	16
 1045              		.thumb_func
 1046              		.type	ADC_CountsTo_Volts, %function
 1047              	ADC_CountsTo_Volts:
 1048              	.LFB20:
 832:.\Generated_Source\PSoC4/ADC.c **** 
 833:.\Generated_Source\PSoC4/ADC.c **** 
 834:.\Generated_Source\PSoC4/ADC.c ****     /*******************************************************************************
 835:.\Generated_Source\PSoC4/ADC.c ****     * Function Name: ADC_CountsTo_Volts
 836:.\Generated_Source\PSoC4/ADC.c ****     ********************************************************************************
 837:.\Generated_Source\PSoC4/ADC.c ****     *
 838:.\Generated_Source\PSoC4/ADC.c ****     * Summary:
 839:.\Generated_Source\PSoC4/ADC.c ****     *  Converts the ADC output to Volts as a floating point number.
 840:.\Generated_Source\PSoC4/ADC.c ****     *  This function is not available when left data format justification selected.
 841:.\Generated_Source\PSoC4/ADC.c ****     *
 842:.\Generated_Source\PSoC4/ADC.c ****     * Parameters:
 843:.\Generated_Source\PSoC4/ADC.c ****     *  chan: The ADC channel number.
 844:.\Generated_Source\PSoC4/ADC.c ****     *  Result from the ADC conversion
 845:.\Generated_Source\PSoC4/ADC.c ****     *
 846:.\Generated_Source\PSoC4/ADC.c ****     * Return:
 847:.\Generated_Source\PSoC4/ADC.c ****     *  Results in Volts
 848:.\Generated_Source\PSoC4/ADC.c ****     *
 849:.\Generated_Source\PSoC4/ADC.c ****     * Global variables:
 850:.\Generated_Source\PSoC4/ADC.c ****     *  ADC_countsPer10Volt:  used to convert ADC counts to Volts.
 851:.\Generated_Source\PSoC4/ADC.c ****     *  ADC_Offset:  Used as the offset while converting ADC counts
 852:.\Generated_Source\PSoC4/ADC.c ****     *   to mVolts.
ARM GAS  C:\Users\JOHNSO~1\AppData\Local\Temp\ccloGcmo.s 			page 35


 853:.\Generated_Source\PSoC4/ADC.c ****     *
 854:.\Generated_Source\PSoC4/ADC.c ****     *******************************************************************************/
 855:.\Generated_Source\PSoC4/ADC.c ****     float32 ADC_CountsTo_Volts(uint32 chan, int16 adcCounts)
 856:.\Generated_Source\PSoC4/ADC.c ****     {
 1049              		.loc 1 856 0
 1050              		.cfi_startproc
 1051              	.LVL73:
 1052 0000 38B5     		push	{r3, r4, r5, lr}
 1053              		.cfi_def_cfa_offset 16
 1054              		.cfi_offset 3, -16
 1055              		.cfi_offset 4, -12
 1056              		.cfi_offset 5, -8
 1057              		.cfi_offset 14, -4
 1058 0002 041C     		mov	r4, r0
 1059 0004 0D1C     		mov	r5, r1
 857:.\Generated_Source\PSoC4/ADC.c ****         float32 volts;
 858:.\Generated_Source\PSoC4/ADC.c **** 
 859:.\Generated_Source\PSoC4/ADC.c ****         /* Halt CPU in debug mode if channel is out of valid range */
 860:.\Generated_Source\PSoC4/ADC.c ****         CYASSERT(chan < ADC_TOTAL_CHANNELS_NUM);
 1060              		.loc 1 860 0
 1061 0006 0428     		cmp	r0, #4
 1062 0008 02D9     		bls	.L93
 1063              		.loc 1 860 0 is_stmt 0 discriminator 1
 1064 000a 0020     		mov	r0, #0
 1065              	.LVL74:
 1066 000c FFF7FEFF 		bl	CyHalt
 1067              	.LVL75:
 1068              	.L93:
 861:.\Generated_Source\PSoC4/ADC.c **** 
 862:.\Generated_Source\PSoC4/ADC.c ****         /* Divide the adcCount when accumulate averaging mode selected */
 863:.\Generated_Source\PSoC4/ADC.c ****         #if(ADC_DEFAULT_AVG_MODE == ADC__ACCUMULATE)
 864:.\Generated_Source\PSoC4/ADC.c ****             if((ADC_channelsConfig[chan] & ADC_AVERAGING_EN) != 0u)
 865:.\Generated_Source\PSoC4/ADC.c ****             {
 866:.\Generated_Source\PSoC4/ADC.c ****                 adcCounts /= ADC_DEFAULT_AVG_SAMPLES_DIV;
 867:.\Generated_Source\PSoC4/ADC.c ****             }
 868:.\Generated_Source\PSoC4/ADC.c ****         #endif /* ADC_DEFAULT_AVG_MODE == ADC__ACCUMULATE */
 869:.\Generated_Source\PSoC4/ADC.c **** 
 870:.\Generated_Source\PSoC4/ADC.c ****         /* Subtract ADC offset */
 871:.\Generated_Source\PSoC4/ADC.c ****         adcCounts -= ADC_offset[chan];
 1069              		.loc 1 871 0 is_stmt 1
 1070 0010 6200     		lsl	r2, r4, #1
 1071 0012 0A4B     		ldr	r3, .L94
 1072 0014 D05A     		ldrh	r0, [r2, r3]
 1073 0016 2D1A     		sub	r5, r5, r0
 1074 0018 28B2     		sxth	r0, r5
 1075              	.LVL76:
 872:.\Generated_Source\PSoC4/ADC.c **** 
 873:.\Generated_Source\PSoC4/ADC.c ****         volts = ((float32)adcCounts * ADC_10V_COUNTS) / (float32)ADC_countsPer10Volt[chan];
 1076              		.loc 1 873 0
 1077 001a FFF7FEFF 		bl	__aeabi_i2f
 1078              	.LVL77:
 1079 001e 0849     		ldr	r1, .L94+4
 1080 0020 FFF7FEFF 		bl	__aeabi_fmul
 1081              	.LVL78:
 1082 0024 051C     		add	r5, r0, #0
 1083              	.LVL79:
 1084 0026 A400     		lsl	r4, r4, #2
ARM GAS  C:\Users\JOHNSO~1\AppData\Local\Temp\ccloGcmo.s 			page 36


 1085              	.LVL80:
 1086 0028 064B     		ldr	r3, .L94+8
 1087 002a E058     		ldr	r0, [r4, r3]
 1088 002c FFF7FEFF 		bl	__aeabi_i2f
 1089              	.LVL81:
 1090 0030 011C     		add	r1, r0, #0
 1091 0032 281C     		add	r0, r5, #0
 1092 0034 FFF7FEFF 		bl	__aeabi_fdiv
 1093              	.LVL82:
 874:.\Generated_Source\PSoC4/ADC.c **** 
 875:.\Generated_Source\PSoC4/ADC.c ****         return( volts );
 876:.\Generated_Source\PSoC4/ADC.c ****     }
 1094              		.loc 1 876 0
 1095              		@ sp needed
 1096 0038 38BD     		pop	{r3, r4, r5, pc}
 1097              	.L95:
 1098 003a C046     		.align	2
 1099              	.L94:
 1100 003c 00000000 		.word	ADC_offset
 1101 0040 00002041 		.word	1092616192
 1102 0044 00000000 		.word	ADC_countsPer10Volt
 1103              		.cfi_endproc
 1104              	.LFE20:
 1105              		.size	ADC_CountsTo_Volts, .-ADC_CountsTo_Volts
 1106              		.comm	ADC_countsPer10Volt,20,4
 1107              		.comm	ADC_offset,10,4
 1108              		.global	ADC_initVar
 1109              		.section	.rodata
 1110              		.align	2
 1111              		.set	.LANCHOR0,. + 0
 1112              		.type	ADC_channelsConfig, %object
 1113              		.size	ADC_channelsConfig, 20
 1114              	ADC_channelsConfig:
 1115 0000 00040000 		.word	1024
 1116 0004 00050000 		.word	1280
 1117 0008 00140000 		.word	5120
 1118 000c 00140000 		.word	5120
 1119 0010 00000000 		.word	0
 1120              		.type	ADC_InputsPlacement.4773, %object
 1121              		.size	ADC_InputsPlacement.4773, 5
 1122              	ADC_InputsPlacement.4773:
 1123 0014 00       		.byte	0
 1124 0015 04       		.byte	4
 1125 0016 12       		.byte	18
 1126 0017 13       		.byte	19
 1127 0018 70       		.byte	112
 1128 0019 000000   		.bss
 1129              		.set	.LANCHOR1,. + 0
 1130              		.type	ADC_initVar, %object
 1131              		.size	ADC_initVar, 1
 1132              	ADC_initVar:
 1133 0000 00       		.space	1
 1134              		.text
 1135              	.Letext0:
 1136              		.file 2 ".\\Generated_Source\\PSoC4\\cytypes.h"
 1137              		.file 3 ".\\Generated_Source\\PSoC4\\CyLib.h"
