ARM GAS  C:\Users\JOHNSO~1\AppData\Local\Temp\cci6bjf1.s 			page 1


   1              		.cpu cortex-m0
   2              		.fpu softvfp
   3              		.eabi_attribute 20, 1
   4              		.eabi_attribute 21, 1
   5              		.eabi_attribute 23, 3
   6              		.eabi_attribute 24, 1
   7              		.eabi_attribute 25, 1
   8              		.eabi_attribute 26, 1
   9              		.eabi_attribute 30, 1
  10              		.eabi_attribute 34, 0
  11              		.eabi_attribute 18, 4
  12              		.code	16
  13              		.file	"BLUE.c"
  14              		.text
  15              	.Ltext0:
  16              		.cfi_sections	.debug_frame
  17              		.section	.text.BLUE_Write,"ax",%progbits
  18              		.align	2
  19              		.global	BLUE_Write
  20              		.code	16
  21              		.thumb_func
  22              		.type	BLUE_Write, %function
  23              	BLUE_Write:
  24              	.LFB0:
  25              		.file 1 ".\\Generated_Source\\PSoC4\\BLUE.c"
   1:.\Generated_Source\PSoC4/BLUE.c **** /*******************************************************************************
   2:.\Generated_Source\PSoC4/BLUE.c **** * File Name: BLUE.c  
   3:.\Generated_Source\PSoC4/BLUE.c **** * Version 2.10
   4:.\Generated_Source\PSoC4/BLUE.c **** *
   5:.\Generated_Source\PSoC4/BLUE.c **** * Description:
   6:.\Generated_Source\PSoC4/BLUE.c **** *  This file contains API to enable firmware control of a Pins component.
   7:.\Generated_Source\PSoC4/BLUE.c **** *
   8:.\Generated_Source\PSoC4/BLUE.c **** * Note:
   9:.\Generated_Source\PSoC4/BLUE.c **** *
  10:.\Generated_Source\PSoC4/BLUE.c **** ********************************************************************************
  11:.\Generated_Source\PSoC4/BLUE.c **** * Copyright 2008-2014, Cypress Semiconductor Corporation.  All rights reserved.
  12:.\Generated_Source\PSoC4/BLUE.c **** * You may use this file only in accordance with the license, terms, conditions, 
  13:.\Generated_Source\PSoC4/BLUE.c **** * disclaimers, and limitations in the end user license agreement accompanying 
  14:.\Generated_Source\PSoC4/BLUE.c **** * the software package with which this file was provided.
  15:.\Generated_Source\PSoC4/BLUE.c **** *******************************************************************************/
  16:.\Generated_Source\PSoC4/BLUE.c **** 
  17:.\Generated_Source\PSoC4/BLUE.c **** #include "cytypes.h"
  18:.\Generated_Source\PSoC4/BLUE.c **** #include "BLUE.h"
  19:.\Generated_Source\PSoC4/BLUE.c **** 
  20:.\Generated_Source\PSoC4/BLUE.c **** #define SetP4PinDriveMode(shift, mode)  \
  21:.\Generated_Source\PSoC4/BLUE.c ****     do { \
  22:.\Generated_Source\PSoC4/BLUE.c ****         BLUE_PC =   (BLUE_PC & \
  23:.\Generated_Source\PSoC4/BLUE.c ****                                 (uint32)(~(uint32)(BLUE_DRIVE_MODE_IND_MASK << (BLUE_DRIVE_MODE_BIT
  24:.\Generated_Source\PSoC4/BLUE.c ****                                 (uint32)((uint32)(mode) << (BLUE_DRIVE_MODE_BITS * (shift))); \
  25:.\Generated_Source\PSoC4/BLUE.c ****     } while (0)
  26:.\Generated_Source\PSoC4/BLUE.c **** 
  27:.\Generated_Source\PSoC4/BLUE.c **** 
  28:.\Generated_Source\PSoC4/BLUE.c **** /*******************************************************************************
  29:.\Generated_Source\PSoC4/BLUE.c **** * Function Name: BLUE_Write
  30:.\Generated_Source\PSoC4/BLUE.c **** ********************************************************************************
  31:.\Generated_Source\PSoC4/BLUE.c **** *
  32:.\Generated_Source\PSoC4/BLUE.c **** * Summary:
ARM GAS  C:\Users\JOHNSO~1\AppData\Local\Temp\cci6bjf1.s 			page 2


  33:.\Generated_Source\PSoC4/BLUE.c **** *  Assign a new value to the digital port's data output register.  
  34:.\Generated_Source\PSoC4/BLUE.c **** *
  35:.\Generated_Source\PSoC4/BLUE.c **** * Parameters:  
  36:.\Generated_Source\PSoC4/BLUE.c **** *  prtValue:  The value to be assigned to the Digital Port. 
  37:.\Generated_Source\PSoC4/BLUE.c **** *
  38:.\Generated_Source\PSoC4/BLUE.c **** * Return: 
  39:.\Generated_Source\PSoC4/BLUE.c **** *  None 
  40:.\Generated_Source\PSoC4/BLUE.c **** *  
  41:.\Generated_Source\PSoC4/BLUE.c **** *******************************************************************************/
  42:.\Generated_Source\PSoC4/BLUE.c **** void BLUE_Write(uint8 value) 
  43:.\Generated_Source\PSoC4/BLUE.c **** {
  26              		.loc 1 43 0
  27              		.cfi_startproc
  28              	.LVL0:
  44:.\Generated_Source\PSoC4/BLUE.c ****     uint8 drVal = (uint8)(BLUE_DR & (uint8)(~BLUE_MASK));
  29              		.loc 1 44 0
  30 0000 044B     		ldr	r3, .L2
  31 0002 1968     		ldr	r1, [r3]
  32 0004 7F22     		mov	r2, #127
  33 0006 0A40     		and	r2, r1
  34              	.LVL1:
  45:.\Generated_Source\PSoC4/BLUE.c ****     drVal = (drVal | ((uint8)(value << BLUE_SHIFT) & BLUE_MASK));
  35              		.loc 1 45 0
  36 0008 C001     		lsl	r0, r0, #7
  37              	.LVL2:
  38 000a C0B2     		uxtb	r0, r0
  39 000c 1043     		orr	r0, r2
  40              	.LVL3:
  46:.\Generated_Source\PSoC4/BLUE.c ****     BLUE_DR = (uint32)drVal;
  41              		.loc 1 46 0
  42 000e 1860     		str	r0, [r3]
  47:.\Generated_Source\PSoC4/BLUE.c **** }
  43              		.loc 1 47 0
  44              		@ sp needed
  45 0010 7047     		bx	lr
  46              	.L3:
  47 0012 C046     		.align	2
  48              	.L2:
  49 0014 00030440 		.word	1074004736
  50              		.cfi_endproc
  51              	.LFE0:
  52              		.size	BLUE_Write, .-BLUE_Write
  53              		.section	.text.BLUE_SetDriveMode,"ax",%progbits
  54              		.align	2
  55              		.global	BLUE_SetDriveMode
  56              		.code	16
  57              		.thumb_func
  58              		.type	BLUE_SetDriveMode, %function
  59              	BLUE_SetDriveMode:
  60              	.LFB1:
  48:.\Generated_Source\PSoC4/BLUE.c **** 
  49:.\Generated_Source\PSoC4/BLUE.c **** 
  50:.\Generated_Source\PSoC4/BLUE.c **** /*******************************************************************************
  51:.\Generated_Source\PSoC4/BLUE.c **** * Function Name: BLUE_SetDriveMode
  52:.\Generated_Source\PSoC4/BLUE.c **** ********************************************************************************
  53:.\Generated_Source\PSoC4/BLUE.c **** *
  54:.\Generated_Source\PSoC4/BLUE.c **** * Summary:
ARM GAS  C:\Users\JOHNSO~1\AppData\Local\Temp\cci6bjf1.s 			page 3


  55:.\Generated_Source\PSoC4/BLUE.c **** *  Change the drive mode on the pins of the port.
  56:.\Generated_Source\PSoC4/BLUE.c **** * 
  57:.\Generated_Source\PSoC4/BLUE.c **** * Parameters:  
  58:.\Generated_Source\PSoC4/BLUE.c **** *  mode:  Change the pins to one of the following drive modes.
  59:.\Generated_Source\PSoC4/BLUE.c **** *
  60:.\Generated_Source\PSoC4/BLUE.c **** *  BLUE_DM_STRONG     Strong Drive 
  61:.\Generated_Source\PSoC4/BLUE.c **** *  BLUE_DM_OD_HI      Open Drain, Drives High 
  62:.\Generated_Source\PSoC4/BLUE.c **** *  BLUE_DM_OD_LO      Open Drain, Drives Low 
  63:.\Generated_Source\PSoC4/BLUE.c **** *  BLUE_DM_RES_UP     Resistive Pull Up 
  64:.\Generated_Source\PSoC4/BLUE.c **** *  BLUE_DM_RES_DWN    Resistive Pull Down 
  65:.\Generated_Source\PSoC4/BLUE.c **** *  BLUE_DM_RES_UPDWN  Resistive Pull Up/Down 
  66:.\Generated_Source\PSoC4/BLUE.c **** *  BLUE_DM_DIG_HIZ    High Impedance Digital 
  67:.\Generated_Source\PSoC4/BLUE.c **** *  BLUE_DM_ALG_HIZ    High Impedance Analog 
  68:.\Generated_Source\PSoC4/BLUE.c **** *
  69:.\Generated_Source\PSoC4/BLUE.c **** * Return: 
  70:.\Generated_Source\PSoC4/BLUE.c **** *  None
  71:.\Generated_Source\PSoC4/BLUE.c **** *
  72:.\Generated_Source\PSoC4/BLUE.c **** *******************************************************************************/
  73:.\Generated_Source\PSoC4/BLUE.c **** void BLUE_SetDriveMode(uint8 mode) 
  74:.\Generated_Source\PSoC4/BLUE.c **** {
  61              		.loc 1 74 0
  62              		.cfi_startproc
  63              	.LVL4:
  75:.\Generated_Source\PSoC4/BLUE.c **** 	SetP4PinDriveMode(BLUE__0__SHIFT, mode);
  64              		.loc 1 75 0
  65 0000 044B     		ldr	r3, .L5
  66 0002 1968     		ldr	r1, [r3]
  67 0004 044A     		ldr	r2, .L5+4
  68 0006 1140     		and	r1, r2
  69 0008 4205     		lsl	r2, r0, #21
  70 000a 081C     		mov	r0, r1
  71              	.LVL5:
  72 000c 1043     		orr	r0, r2
  73 000e 1860     		str	r0, [r3]
  76:.\Generated_Source\PSoC4/BLUE.c **** }
  74              		.loc 1 76 0
  75              		@ sp needed
  76 0010 7047     		bx	lr
  77              	.L6:
  78 0012 C046     		.align	2
  79              	.L5:
  80 0014 08030440 		.word	1074004744
  81 0018 FFFF1FFF 		.word	-14680065
  82              		.cfi_endproc
  83              	.LFE1:
  84              		.size	BLUE_SetDriveMode, .-BLUE_SetDriveMode
  85              		.section	.text.BLUE_Read,"ax",%progbits
  86              		.align	2
  87              		.global	BLUE_Read
  88              		.code	16
  89              		.thumb_func
  90              		.type	BLUE_Read, %function
  91              	BLUE_Read:
  92              	.LFB2:
  77:.\Generated_Source\PSoC4/BLUE.c **** 
  78:.\Generated_Source\PSoC4/BLUE.c **** 
  79:.\Generated_Source\PSoC4/BLUE.c **** /*******************************************************************************
ARM GAS  C:\Users\JOHNSO~1\AppData\Local\Temp\cci6bjf1.s 			page 4


  80:.\Generated_Source\PSoC4/BLUE.c **** * Function Name: BLUE_Read
  81:.\Generated_Source\PSoC4/BLUE.c **** ********************************************************************************
  82:.\Generated_Source\PSoC4/BLUE.c **** *
  83:.\Generated_Source\PSoC4/BLUE.c **** * Summary:
  84:.\Generated_Source\PSoC4/BLUE.c **** *  Read the current value on the pins of the Digital Port in right justified 
  85:.\Generated_Source\PSoC4/BLUE.c **** *  form.
  86:.\Generated_Source\PSoC4/BLUE.c **** *
  87:.\Generated_Source\PSoC4/BLUE.c **** * Parameters:  
  88:.\Generated_Source\PSoC4/BLUE.c **** *  None 
  89:.\Generated_Source\PSoC4/BLUE.c **** *
  90:.\Generated_Source\PSoC4/BLUE.c **** * Return: 
  91:.\Generated_Source\PSoC4/BLUE.c **** *  Returns the current value of the Digital Port as a right justified number
  92:.\Generated_Source\PSoC4/BLUE.c **** *  
  93:.\Generated_Source\PSoC4/BLUE.c **** * Note:
  94:.\Generated_Source\PSoC4/BLUE.c **** *  Macro BLUE_ReadPS calls this function. 
  95:.\Generated_Source\PSoC4/BLUE.c **** *  
  96:.\Generated_Source\PSoC4/BLUE.c **** *******************************************************************************/
  97:.\Generated_Source\PSoC4/BLUE.c **** uint8 BLUE_Read(void) 
  98:.\Generated_Source\PSoC4/BLUE.c **** {
  93              		.loc 1 98 0
  94              		.cfi_startproc
  99:.\Generated_Source\PSoC4/BLUE.c ****     return (uint8)((BLUE_PS & BLUE_MASK) >> BLUE_SHIFT);
  95              		.loc 1 99 0
  96 0000 024B     		ldr	r3, .L8
  97 0002 1868     		ldr	r0, [r3]
  98 0004 0006     		lsl	r0, r0, #24
  99 0006 C00F     		lsr	r0, r0, #31
 100:.\Generated_Source\PSoC4/BLUE.c **** }
 100              		.loc 1 100 0
 101              		@ sp needed
 102 0008 7047     		bx	lr
 103              	.L9:
 104 000a C046     		.align	2
 105              	.L8:
 106 000c 04030440 		.word	1074004740
 107              		.cfi_endproc
 108              	.LFE2:
 109              		.size	BLUE_Read, .-BLUE_Read
 110              		.section	.text.BLUE_ReadDataReg,"ax",%progbits
 111              		.align	2
 112              		.global	BLUE_ReadDataReg
 113              		.code	16
 114              		.thumb_func
 115              		.type	BLUE_ReadDataReg, %function
 116              	BLUE_ReadDataReg:
 117              	.LFB3:
 101:.\Generated_Source\PSoC4/BLUE.c **** 
 102:.\Generated_Source\PSoC4/BLUE.c **** 
 103:.\Generated_Source\PSoC4/BLUE.c **** /*******************************************************************************
 104:.\Generated_Source\PSoC4/BLUE.c **** * Function Name: BLUE_ReadDataReg
 105:.\Generated_Source\PSoC4/BLUE.c **** ********************************************************************************
 106:.\Generated_Source\PSoC4/BLUE.c **** *
 107:.\Generated_Source\PSoC4/BLUE.c **** * Summary:
 108:.\Generated_Source\PSoC4/BLUE.c **** *  Read the current value assigned to a Digital Port's data output register
 109:.\Generated_Source\PSoC4/BLUE.c **** *
 110:.\Generated_Source\PSoC4/BLUE.c **** * Parameters:  
 111:.\Generated_Source\PSoC4/BLUE.c **** *  None 
ARM GAS  C:\Users\JOHNSO~1\AppData\Local\Temp\cci6bjf1.s 			page 5


 112:.\Generated_Source\PSoC4/BLUE.c **** *
 113:.\Generated_Source\PSoC4/BLUE.c **** * Return: 
 114:.\Generated_Source\PSoC4/BLUE.c **** *  Returns the current value assigned to the Digital Port's data output register
 115:.\Generated_Source\PSoC4/BLUE.c **** *  
 116:.\Generated_Source\PSoC4/BLUE.c **** *******************************************************************************/
 117:.\Generated_Source\PSoC4/BLUE.c **** uint8 BLUE_ReadDataReg(void) 
 118:.\Generated_Source\PSoC4/BLUE.c **** {
 118              		.loc 1 118 0
 119              		.cfi_startproc
 119:.\Generated_Source\PSoC4/BLUE.c ****     return (uint8)((BLUE_DR & BLUE_MASK) >> BLUE_SHIFT);
 120              		.loc 1 119 0
 121 0000 024B     		ldr	r3, .L11
 122 0002 1868     		ldr	r0, [r3]
 123 0004 0006     		lsl	r0, r0, #24
 124 0006 C00F     		lsr	r0, r0, #31
 120:.\Generated_Source\PSoC4/BLUE.c **** }
 125              		.loc 1 120 0
 126              		@ sp needed
 127 0008 7047     		bx	lr
 128              	.L12:
 129 000a C046     		.align	2
 130              	.L11:
 131 000c 00030440 		.word	1074004736
 132              		.cfi_endproc
 133              	.LFE3:
 134              		.size	BLUE_ReadDataReg, .-BLUE_ReadDataReg
 135              		.section	.text.BLUE_ClearInterrupt,"ax",%progbits
 136              		.align	2
 137              		.global	BLUE_ClearInterrupt
 138              		.code	16
 139              		.thumb_func
 140              		.type	BLUE_ClearInterrupt, %function
 141              	BLUE_ClearInterrupt:
 142              	.LFB4:
 121:.\Generated_Source\PSoC4/BLUE.c **** 
 122:.\Generated_Source\PSoC4/BLUE.c **** 
 123:.\Generated_Source\PSoC4/BLUE.c **** /* If Interrupts Are Enabled for this Pins component */ 
 124:.\Generated_Source\PSoC4/BLUE.c **** #if defined(BLUE_INTSTAT) 
 125:.\Generated_Source\PSoC4/BLUE.c **** 
 126:.\Generated_Source\PSoC4/BLUE.c ****     /*******************************************************************************
 127:.\Generated_Source\PSoC4/BLUE.c ****     * Function Name: BLUE_ClearInterrupt
 128:.\Generated_Source\PSoC4/BLUE.c ****     ********************************************************************************
 129:.\Generated_Source\PSoC4/BLUE.c ****     *
 130:.\Generated_Source\PSoC4/BLUE.c ****     * Summary:
 131:.\Generated_Source\PSoC4/BLUE.c ****     *  Clears any active interrupts attached to port and returns the value of the 
 132:.\Generated_Source\PSoC4/BLUE.c ****     *  interrupt status register.
 133:.\Generated_Source\PSoC4/BLUE.c ****     *
 134:.\Generated_Source\PSoC4/BLUE.c ****     * Parameters:  
 135:.\Generated_Source\PSoC4/BLUE.c ****     *  None 
 136:.\Generated_Source\PSoC4/BLUE.c ****     *
 137:.\Generated_Source\PSoC4/BLUE.c ****     * Return: 
 138:.\Generated_Source\PSoC4/BLUE.c ****     *  Returns the value of the interrupt status register
 139:.\Generated_Source\PSoC4/BLUE.c ****     *  
 140:.\Generated_Source\PSoC4/BLUE.c ****     *******************************************************************************/
 141:.\Generated_Source\PSoC4/BLUE.c ****     uint8 BLUE_ClearInterrupt(void) 
 142:.\Generated_Source\PSoC4/BLUE.c ****     {
 143              		.loc 1 142 0
ARM GAS  C:\Users\JOHNSO~1\AppData\Local\Temp\cci6bjf1.s 			page 6


 144              		.cfi_startproc
 143:.\Generated_Source\PSoC4/BLUE.c **** 		uint8 maskedStatus = (uint8)(BLUE_INTSTAT & BLUE_MASK);
 145              		.loc 1 143 0
 146 0000 034B     		ldr	r3, .L14
 147 0002 1868     		ldr	r0, [r3]
 148 0004 8022     		mov	r2, #128
 149 0006 1040     		and	r0, r2
 150              	.LVL6:
 144:.\Generated_Source\PSoC4/BLUE.c **** 		BLUE_INTSTAT = maskedStatus;
 151              		.loc 1 144 0
 152 0008 1860     		str	r0, [r3]
 145:.\Generated_Source\PSoC4/BLUE.c ****         return maskedStatus >> BLUE_SHIFT;
 153              		.loc 1 145 0
 154 000a C009     		lsr	r0, r0, #7
 155              	.LVL7:
 156 000c C0B2     		uxtb	r0, r0
 146:.\Generated_Source\PSoC4/BLUE.c ****     }
 157              		.loc 1 146 0
 158              		@ sp needed
 159 000e 7047     		bx	lr
 160              	.L15:
 161              		.align	2
 162              	.L14:
 163 0010 10030440 		.word	1074004752
 164              		.cfi_endproc
 165              	.LFE4:
 166              		.size	BLUE_ClearInterrupt, .-BLUE_ClearInterrupt
 167              		.text
 168              	.Letext0:
 169              		.file 2 ".\\Generated_Source\\PSoC4\\cytypes.h"
