ARM GAS  C:\Users\JOHNSO~1\AppData\Local\Temp\ccLjRXjm.s 			page 1


   1              		.cpu cortex-m0
   2              		.fpu softvfp
   3              		.eabi_attribute 20, 1
   4              		.eabi_attribute 21, 1
   5              		.eabi_attribute 23, 3
   6              		.eabi_attribute 24, 1
   7              		.eabi_attribute 25, 1
   8              		.eabi_attribute 26, 1
   9              		.eabi_attribute 30, 1
  10              		.eabi_attribute 34, 0
  11              		.eabi_attribute 18, 4
  12              		.code	16
  13              		.file	"I2C_I2C_INT.c"
  14              		.text
  15              	.Ltext0:
  16              		.cfi_sections	.debug_frame
  17              		.section	.text.I2C_I2C_ISR,"ax",%progbits
  18              		.align	2
  19              		.global	I2C_I2C_ISR
  20              		.code	16
  21              		.thumb_func
  22              		.type	I2C_I2C_ISR, %function
  23              	I2C_I2C_ISR:
  24              	.LFB2:
  25              		.file 1 ".\\Generated_Source\\PSoC4\\I2C_I2C_INT.c"
   1:.\Generated_Source\PSoC4/I2C_I2C_INT.c **** /*******************************************************************************
   2:.\Generated_Source\PSoC4/I2C_I2C_INT.c **** * File Name: I2C_I2C_INT.c
   3:.\Generated_Source\PSoC4/I2C_I2C_INT.c **** * Version 3.0
   4:.\Generated_Source\PSoC4/I2C_I2C_INT.c **** *
   5:.\Generated_Source\PSoC4/I2C_I2C_INT.c **** * Description:
   6:.\Generated_Source\PSoC4/I2C_I2C_INT.c **** *  This file provides the source code to the Interrupt Service Routine for
   7:.\Generated_Source\PSoC4/I2C_I2C_INT.c **** *  the SCB Component in I2C mode.
   8:.\Generated_Source\PSoC4/I2C_I2C_INT.c **** *
   9:.\Generated_Source\PSoC4/I2C_I2C_INT.c **** * Note:
  10:.\Generated_Source\PSoC4/I2C_I2C_INT.c **** *
  11:.\Generated_Source\PSoC4/I2C_I2C_INT.c **** ********************************************************************************
  12:.\Generated_Source\PSoC4/I2C_I2C_INT.c **** * Copyright 2013-2015, Cypress Semiconductor Corporation.  All rights reserved.
  13:.\Generated_Source\PSoC4/I2C_I2C_INT.c **** * You may use this file only in accordance with the license, terms, conditions,
  14:.\Generated_Source\PSoC4/I2C_I2C_INT.c **** * disclaimers, and limitations in the end user license agreement accompanying
  15:.\Generated_Source\PSoC4/I2C_I2C_INT.c **** * the software package with which this file was provided.
  16:.\Generated_Source\PSoC4/I2C_I2C_INT.c **** *******************************************************************************/
  17:.\Generated_Source\PSoC4/I2C_I2C_INT.c **** 
  18:.\Generated_Source\PSoC4/I2C_I2C_INT.c **** #include "I2C_PVT.h"
  19:.\Generated_Source\PSoC4/I2C_I2C_INT.c **** #include "I2C_I2C_PVT.h"
  20:.\Generated_Source\PSoC4/I2C_I2C_INT.c **** 
  21:.\Generated_Source\PSoC4/I2C_I2C_INT.c **** 
  22:.\Generated_Source\PSoC4/I2C_I2C_INT.c **** /*******************************************************************************
  23:.\Generated_Source\PSoC4/I2C_I2C_INT.c **** * Function Name: I2C_I2C_ISR
  24:.\Generated_Source\PSoC4/I2C_I2C_INT.c **** ********************************************************************************
  25:.\Generated_Source\PSoC4/I2C_I2C_INT.c **** *
  26:.\Generated_Source\PSoC4/I2C_I2C_INT.c **** * Summary:
  27:.\Generated_Source\PSoC4/I2C_I2C_INT.c **** *  Handles the Interrupt Service Routine for the SCB I2C mode.
  28:.\Generated_Source\PSoC4/I2C_I2C_INT.c **** *
  29:.\Generated_Source\PSoC4/I2C_I2C_INT.c **** * Parameters:
  30:.\Generated_Source\PSoC4/I2C_I2C_INT.c **** *  None
  31:.\Generated_Source\PSoC4/I2C_I2C_INT.c **** *
  32:.\Generated_Source\PSoC4/I2C_I2C_INT.c **** * Return:
ARM GAS  C:\Users\JOHNSO~1\AppData\Local\Temp\ccLjRXjm.s 			page 2


  33:.\Generated_Source\PSoC4/I2C_I2C_INT.c **** *  None
  34:.\Generated_Source\PSoC4/I2C_I2C_INT.c **** *
  35:.\Generated_Source\PSoC4/I2C_I2C_INT.c **** *******************************************************************************/
  36:.\Generated_Source\PSoC4/I2C_I2C_INT.c **** CY_ISR(I2C_I2C_ISR)
  37:.\Generated_Source\PSoC4/I2C_I2C_INT.c **** {
  26              		.loc 1 37 0
  27              		.cfi_startproc
  28 0000 F0B5     		push	{r4, r5, r6, r7, lr}
  29              		.cfi_def_cfa_offset 20
  30              		.cfi_offset 4, -20
  31              		.cfi_offset 5, -16
  32              		.cfi_offset 6, -12
  33              		.cfi_offset 7, -8
  34              		.cfi_offset 14, -4
  35 0002 4746     		mov	r7, r8
  36 0004 80B4     		push	{r7}
  37              		.cfi_def_cfa_offset 24
  38              		.cfi_offset 8, -24
  39              	.LVL0:
  38:.\Generated_Source\PSoC4/I2C_I2C_INT.c ****     uint32 diffCount;
  39:.\Generated_Source\PSoC4/I2C_I2C_INT.c ****     uint32 endTransfer;
  40:.\Generated_Source\PSoC4/I2C_I2C_INT.c **** 
  41:.\Generated_Source\PSoC4/I2C_I2C_INT.c **** #if (I2C_I2C_CUSTOM_ADDRESS_HANDLER_CONST)
  42:.\Generated_Source\PSoC4/I2C_I2C_INT.c ****     uint32 response;
  43:.\Generated_Source\PSoC4/I2C_I2C_INT.c **** 
  44:.\Generated_Source\PSoC4/I2C_I2C_INT.c ****     response = I2C_I2C_ACK_ADDR;
  45:.\Generated_Source\PSoC4/I2C_I2C_INT.c **** #endif /* (I2C_I2C_CUSTOM_ADDRESS_HANDLER_CONST) */
  46:.\Generated_Source\PSoC4/I2C_I2C_INT.c **** 
  47:.\Generated_Source\PSoC4/I2C_I2C_INT.c ****     endTransfer = 0u; /* Continue active transfer */
  48:.\Generated_Source\PSoC4/I2C_I2C_INT.c **** 
  49:.\Generated_Source\PSoC4/I2C_I2C_INT.c ****     /* Calls customer routine if registered */
  50:.\Generated_Source\PSoC4/I2C_I2C_INT.c ****     if(NULL != I2C_customIntrHandler)
  40              		.loc 1 50 0
  41 0006 C64B     		ldr	r3, .L42
  42 0008 1B68     		ldr	r3, [r3]
  43 000a 002B     		cmp	r3, #0
  44 000c 00D0     		beq	.L2
  51:.\Generated_Source\PSoC4/I2C_I2C_INT.c ****     {
  52:.\Generated_Source\PSoC4/I2C_I2C_INT.c ****         I2C_customIntrHandler();
  45              		.loc 1 52 0
  46 000e 9847     		blx	r3
  47              	.LVL1:
  48              	.L2:
  53:.\Generated_Source\PSoC4/I2C_I2C_INT.c ****     }
  54:.\Generated_Source\PSoC4/I2C_I2C_INT.c **** 
  55:.\Generated_Source\PSoC4/I2C_I2C_INT.c ****     if(I2C_CHECK_INTR_I2C_EC_MASKED(I2C_INTR_I2C_EC_WAKE_UP))
  49              		.loc 1 55 0
  50 0010 C44B     		ldr	r3, .L42+4
  51 0012 1B68     		ldr	r3, [r3]
  52 0014 D807     		lsl	r0, r3, #31
  53 0016 02D5     		bpl	.L3
  56:.\Generated_Source\PSoC4/I2C_I2C_INT.c ****     {
  57:.\Generated_Source\PSoC4/I2C_I2C_INT.c ****         /* Mask-off after wakeup */
  58:.\Generated_Source\PSoC4/I2C_I2C_INT.c ****         I2C_SetI2CExtClkInterruptMode(I2C_NO_INTR_SOURCES);
  54              		.loc 1 58 0
  55 0018 0022     		mov	r2, #0
  56 001a C34B     		ldr	r3, .L42+8
ARM GAS  C:\Users\JOHNSO~1\AppData\Local\Temp\ccLjRXjm.s 			page 3


  57 001c 1A60     		str	r2, [r3]
  58              	.L3:
  59:.\Generated_Source\PSoC4/I2C_I2C_INT.c ****     }
  60:.\Generated_Source\PSoC4/I2C_I2C_INT.c **** 
  61:.\Generated_Source\PSoC4/I2C_I2C_INT.c ****     /* Master and Slave error tracking:
  62:.\Generated_Source\PSoC4/I2C_I2C_INT.c ****     * Add the master state check to track only the master errors when the master is active or
  63:.\Generated_Source\PSoC4/I2C_I2C_INT.c ****     * track slave errors when the slave is active or idle.
  64:.\Generated_Source\PSoC4/I2C_I2C_INT.c ****     * A special MMS case: in the address phase with misplaced Start: the master sets the LOST_ARB a
  65:.\Generated_Source\PSoC4/I2C_I2C_INT.c ****     * slave BUS_ERR. The valid event is LOST_ARB comes from the master.
  66:.\Generated_Source\PSoC4/I2C_I2C_INT.c ****     */
  67:.\Generated_Source\PSoC4/I2C_I2C_INT.c ****     if(I2C_CHECK_I2C_FSM_MASTER)
  59              		.loc 1 67 0
  60 001e C34B     		ldr	r3, .L42+12
  61 0020 1B78     		ldrb	r3, [r3]
  62 0022 9906     		lsl	r1, r3, #26
  63 0024 1FD4     		bmi	.L4
  68:.\Generated_Source\PSoC4/I2C_I2C_INT.c ****     {
  69:.\Generated_Source\PSoC4/I2C_I2C_INT.c ****         #if(I2C_I2C_MASTER)
  70:.\Generated_Source\PSoC4/I2C_I2C_INT.c ****         {
  71:.\Generated_Source\PSoC4/I2C_I2C_INT.c ****             /* INTR_MASTER_I2C_BUS_ERROR:
  72:.\Generated_Source\PSoC4/I2C_I2C_INT.c ****             * A misplaced Start or Stop condition occurred on the bus: complete the transaction.
  73:.\Generated_Source\PSoC4/I2C_I2C_INT.c ****             * The interrupt is cleared in I2C_FSM_EXIT_IDLE.
  74:.\Generated_Source\PSoC4/I2C_I2C_INT.c ****             */
  75:.\Generated_Source\PSoC4/I2C_I2C_INT.c ****             if(I2C_CHECK_INTR_MASTER_MASKED(I2C_INTR_MASTER_I2C_BUS_ERROR))
  76:.\Generated_Source\PSoC4/I2C_I2C_INT.c ****             {
  77:.\Generated_Source\PSoC4/I2C_I2C_INT.c ****                 I2C_mstrStatus |= (uint16) (I2C_I2C_MSTAT_ERR_XFER |
  78:.\Generated_Source\PSoC4/I2C_I2C_INT.c ****                                                          I2C_I2C_MSTAT_ERR_BUS_ERROR);
  79:.\Generated_Source\PSoC4/I2C_I2C_INT.c **** 
  80:.\Generated_Source\PSoC4/I2C_I2C_INT.c ****                 endTransfer = I2C_I2C_CMPLT_ANY_TRANSFER;
  81:.\Generated_Source\PSoC4/I2C_I2C_INT.c ****             }
  82:.\Generated_Source\PSoC4/I2C_I2C_INT.c **** 
  83:.\Generated_Source\PSoC4/I2C_I2C_INT.c ****             /* INTR_MASTER_I2C_ARB_LOST:
  84:.\Generated_Source\PSoC4/I2C_I2C_INT.c ****             * The MultiMaster lost arbitrage during transaction.
  85:.\Generated_Source\PSoC4/I2C_I2C_INT.c ****             * A Misplaced Start or Stop condition is treated as lost arbitration when the master dr
  86:.\Generated_Source\PSoC4/I2C_I2C_INT.c ****             * The interrupt source is cleared in I2C_FSM_EXIT_IDLE.
  87:.\Generated_Source\PSoC4/I2C_I2C_INT.c ****             */
  88:.\Generated_Source\PSoC4/I2C_I2C_INT.c ****             if(I2C_CHECK_INTR_MASTER_MASKED(I2C_INTR_MASTER_I2C_ARB_LOST))
  89:.\Generated_Source\PSoC4/I2C_I2C_INT.c ****             {
  90:.\Generated_Source\PSoC4/I2C_I2C_INT.c ****                 I2C_mstrStatus |= (uint16) (I2C_I2C_MSTAT_ERR_XFER |
  91:.\Generated_Source\PSoC4/I2C_I2C_INT.c ****                                                          I2C_I2C_MSTAT_ERR_ARB_LOST);
  92:.\Generated_Source\PSoC4/I2C_I2C_INT.c **** 
  93:.\Generated_Source\PSoC4/I2C_I2C_INT.c ****                 endTransfer = I2C_I2C_CMPLT_ANY_TRANSFER;
  94:.\Generated_Source\PSoC4/I2C_I2C_INT.c ****             }
  95:.\Generated_Source\PSoC4/I2C_I2C_INT.c **** 
  96:.\Generated_Source\PSoC4/I2C_I2C_INT.c ****             #if(I2C_I2C_MULTI_MASTER_SLAVE)
  97:.\Generated_Source\PSoC4/I2C_I2C_INT.c ****             {
  98:.\Generated_Source\PSoC4/I2C_I2C_INT.c ****                 /* I2C_MASTER_CMD_M_START_ON_IDLE:
  99:.\Generated_Source\PSoC4/I2C_I2C_INT.c ****                 * MultiMaster-Slave does not generate start, because Slave was addressed.
 100:.\Generated_Source\PSoC4/I2C_I2C_INT.c ****                 * Pass control to slave.
 101:.\Generated_Source\PSoC4/I2C_I2C_INT.c ****                 */
 102:.\Generated_Source\PSoC4/I2C_I2C_INT.c ****                 if(I2C_CHECK_I2C_MASTER_CMD(I2C_I2C_MASTER_CMD_M_START_ON_IDLE))
 103:.\Generated_Source\PSoC4/I2C_I2C_INT.c ****                 {
 104:.\Generated_Source\PSoC4/I2C_I2C_INT.c ****                     I2C_mstrStatus |= (uint16) (I2C_I2C_MSTAT_ERR_XFER |
 105:.\Generated_Source\PSoC4/I2C_I2C_INT.c ****                                                              I2C_I2C_MSTAT_ERR_ABORT_XFER);
 106:.\Generated_Source\PSoC4/I2C_I2C_INT.c **** 
 107:.\Generated_Source\PSoC4/I2C_I2C_INT.c ****                     endTransfer = I2C_I2C_CMPLT_ANY_TRANSFER;
 108:.\Generated_Source\PSoC4/I2C_I2C_INT.c ****                 }
ARM GAS  C:\Users\JOHNSO~1\AppData\Local\Temp\ccLjRXjm.s 			page 4


 109:.\Generated_Source\PSoC4/I2C_I2C_INT.c ****             }
 110:.\Generated_Source\PSoC4/I2C_I2C_INT.c ****             #endif
 111:.\Generated_Source\PSoC4/I2C_I2C_INT.c **** 
 112:.\Generated_Source\PSoC4/I2C_I2C_INT.c ****             /* The error handling common part:
 113:.\Generated_Source\PSoC4/I2C_I2C_INT.c ****             * Sets a completion flag of the master transaction and passes control to:
 114:.\Generated_Source\PSoC4/I2C_I2C_INT.c ****             *  - I2C_FSM_EXIT_IDLE - to complete transaction in case of: ARB_LOST or BUS_ERR.
 115:.\Generated_Source\PSoC4/I2C_I2C_INT.c ****             *  - I2C_FSM_IDLE      - to take chance for the slave to process incoming transaction.
 116:.\Generated_Source\PSoC4/I2C_I2C_INT.c ****             */
 117:.\Generated_Source\PSoC4/I2C_I2C_INT.c ****             if(0u != endTransfer)
 118:.\Generated_Source\PSoC4/I2C_I2C_INT.c ****             {
 119:.\Generated_Source\PSoC4/I2C_I2C_INT.c ****                 /* Set completion flags for master */
 120:.\Generated_Source\PSoC4/I2C_I2C_INT.c ****                 I2C_mstrStatus |= (uint16) I2C_GET_I2C_MSTAT_CMPLT;
 121:.\Generated_Source\PSoC4/I2C_I2C_INT.c **** 
 122:.\Generated_Source\PSoC4/I2C_I2C_INT.c ****                 #if(I2C_I2C_MULTI_MASTER_SLAVE)
 123:.\Generated_Source\PSoC4/I2C_I2C_INT.c ****                 {
 124:.\Generated_Source\PSoC4/I2C_I2C_INT.c ****                     if(I2C_CHECK_I2C_FSM_ADDR)
 125:.\Generated_Source\PSoC4/I2C_I2C_INT.c ****                     {
 126:.\Generated_Source\PSoC4/I2C_I2C_INT.c ****                         /* Start generation is set after another master starts accessing Slave.
 127:.\Generated_Source\PSoC4/I2C_I2C_INT.c ****                         * Clean-up master and turn to slave. Set state to IDLE.
 128:.\Generated_Source\PSoC4/I2C_I2C_INT.c ****                         */
 129:.\Generated_Source\PSoC4/I2C_I2C_INT.c ****                         if(I2C_CHECK_I2C_MASTER_CMD(I2C_I2C_MASTER_CMD_M_START_ON_IDLE))
 130:.\Generated_Source\PSoC4/I2C_I2C_INT.c ****                         {
 131:.\Generated_Source\PSoC4/I2C_I2C_INT.c ****                             I2C_I2C_MASTER_CLEAR_START;
 132:.\Generated_Source\PSoC4/I2C_I2C_INT.c **** 
 133:.\Generated_Source\PSoC4/I2C_I2C_INT.c ****                             endTransfer = I2C_I2C_CMPLT_ANY_TRANSFER; /* Pass control to Slave */
 134:.\Generated_Source\PSoC4/I2C_I2C_INT.c ****                         }
 135:.\Generated_Source\PSoC4/I2C_I2C_INT.c ****                         /* Valid arbitration lost on the address phase happens only when: master LO
 136:.\Generated_Source\PSoC4/I2C_I2C_INT.c ****                         * slave BUS_ERR is cleared. Only in that case set the state to IDLE without
 137:.\Generated_Source\PSoC4/I2C_I2C_INT.c ****                         */
 138:.\Generated_Source\PSoC4/I2C_I2C_INT.c ****                         else if((!I2C_CHECK_INTR_SLAVE_MASKED(I2C_INTR_SLAVE_I2C_BUS_ERROR))
 139:.\Generated_Source\PSoC4/I2C_I2C_INT.c ****                                && I2C_CHECK_INTR_MASTER_MASKED(I2C_INTR_MASTER_I2C_ARB_LOST))
 140:.\Generated_Source\PSoC4/I2C_I2C_INT.c ****                         {
 141:.\Generated_Source\PSoC4/I2C_I2C_INT.c ****                             endTransfer = I2C_I2C_CMPLT_ANY_TRANSFER; /* Pass control to Slave */
 142:.\Generated_Source\PSoC4/I2C_I2C_INT.c ****                         }
 143:.\Generated_Source\PSoC4/I2C_I2C_INT.c ****                         else
 144:.\Generated_Source\PSoC4/I2C_I2C_INT.c ****                         {
 145:.\Generated_Source\PSoC4/I2C_I2C_INT.c ****                             endTransfer = 0u; /* Causes I2C_FSM_EXIT_IDLE to be set below */
 146:.\Generated_Source\PSoC4/I2C_I2C_INT.c ****                         }
 147:.\Generated_Source\PSoC4/I2C_I2C_INT.c **** 
 148:.\Generated_Source\PSoC4/I2C_I2C_INT.c ****                         if(0u != endTransfer) /* Clean-up master to proceed with slave */
 149:.\Generated_Source\PSoC4/I2C_I2C_INT.c ****                         {
 150:.\Generated_Source\PSoC4/I2C_I2C_INT.c ****                             I2C_CLEAR_TX_FIFO; /* Shifter keeps address, clear it */
 151:.\Generated_Source\PSoC4/I2C_I2C_INT.c **** 
 152:.\Generated_Source\PSoC4/I2C_I2C_INT.c ****                             I2C_DISABLE_MASTER_AUTO_DATA_ACK; /* In case of reading disable autoACK
 153:.\Generated_Source\PSoC4/I2C_I2C_INT.c **** 
 154:.\Generated_Source\PSoC4/I2C_I2C_INT.c ****                             /* Clean-up master interrupt sources */
 155:.\Generated_Source\PSoC4/I2C_I2C_INT.c ****                             I2C_ClearMasterInterruptSource(I2C_INTR_MASTER_ALL);
 156:.\Generated_Source\PSoC4/I2C_I2C_INT.c **** 
 157:.\Generated_Source\PSoC4/I2C_I2C_INT.c ****                             /* Disable data processing interrupts: they have to be cleared before *
 158:.\Generated_Source\PSoC4/I2C_I2C_INT.c ****                             I2C_SetRxInterruptMode(I2C_NO_INTR_SOURCES);
 159:.\Generated_Source\PSoC4/I2C_I2C_INT.c ****                             I2C_SetTxInterruptMode(I2C_NO_INTR_SOURCES);
 160:.\Generated_Source\PSoC4/I2C_I2C_INT.c **** 
 161:.\Generated_Source\PSoC4/I2C_I2C_INT.c ****                             I2C_state = I2C_I2C_FSM_IDLE;
 162:.\Generated_Source\PSoC4/I2C_I2C_INT.c ****                         }
 163:.\Generated_Source\PSoC4/I2C_I2C_INT.c ****                         else
 164:.\Generated_Source\PSoC4/I2C_I2C_INT.c ****                         {
 165:.\Generated_Source\PSoC4/I2C_I2C_INT.c ****                             /* Set I2C_FSM_EXIT_IDLE for BUS_ERR and ARB_LOST (that is really bus e
ARM GAS  C:\Users\JOHNSO~1\AppData\Local\Temp\ccLjRXjm.s 			page 5


 166:.\Generated_Source\PSoC4/I2C_I2C_INT.c ****                             I2C_state = I2C_I2C_FSM_EXIT_IDLE;
 167:.\Generated_Source\PSoC4/I2C_I2C_INT.c ****                         }
 168:.\Generated_Source\PSoC4/I2C_I2C_INT.c ****                     }
 169:.\Generated_Source\PSoC4/I2C_I2C_INT.c ****                     else
 170:.\Generated_Source\PSoC4/I2C_I2C_INT.c ****                     {
 171:.\Generated_Source\PSoC4/I2C_I2C_INT.c ****                         /* Set I2C_FSM_EXIT_IDLE if any other state than address */
 172:.\Generated_Source\PSoC4/I2C_I2C_INT.c ****                         I2C_state = I2C_I2C_FSM_EXIT_IDLE;
 173:.\Generated_Source\PSoC4/I2C_I2C_INT.c ****                     }
 174:.\Generated_Source\PSoC4/I2C_I2C_INT.c ****                 }
 175:.\Generated_Source\PSoC4/I2C_I2C_INT.c ****                 #else
 176:.\Generated_Source\PSoC4/I2C_I2C_INT.c ****                 {
 177:.\Generated_Source\PSoC4/I2C_I2C_INT.c ****                     /* In case of LOST*/
 178:.\Generated_Source\PSoC4/I2C_I2C_INT.c ****                     I2C_state = I2C_I2C_FSM_EXIT_IDLE;
 179:.\Generated_Source\PSoC4/I2C_I2C_INT.c ****                 }
 180:.\Generated_Source\PSoC4/I2C_I2C_INT.c ****                 #endif
 181:.\Generated_Source\PSoC4/I2C_I2C_INT.c ****             }
 182:.\Generated_Source\PSoC4/I2C_I2C_INT.c ****         }
 183:.\Generated_Source\PSoC4/I2C_I2C_INT.c ****         #endif
 184:.\Generated_Source\PSoC4/I2C_I2C_INT.c ****     }
 185:.\Generated_Source\PSoC4/I2C_I2C_INT.c ****     else /* (I2C_CHECK_I2C_FSM_SLAVE) */
 186:.\Generated_Source\PSoC4/I2C_I2C_INT.c ****     {
 187:.\Generated_Source\PSoC4/I2C_I2C_INT.c ****         #if(I2C_I2C_SLAVE)
 188:.\Generated_Source\PSoC4/I2C_I2C_INT.c ****         {
 189:.\Generated_Source\PSoC4/I2C_I2C_INT.c ****             /* INTR_SLAVE_I2C_BUS_ERROR or I2C_INTR_SLAVE_I2C_ARB_LOST:
 190:.\Generated_Source\PSoC4/I2C_I2C_INT.c ****             * A Misplaced Start or Stop condition occurred on the bus: set a flag
 191:.\Generated_Source\PSoC4/I2C_I2C_INT.c ****             * to notify an error condition.
 192:.\Generated_Source\PSoC4/I2C_I2C_INT.c ****             */
 193:.\Generated_Source\PSoC4/I2C_I2C_INT.c ****             if(I2C_CHECK_INTR_SLAVE_MASKED(I2C_INTR_SLAVE_I2C_BUS_ERROR |
  64              		.loc 1 193 0
  65 0026 C24B     		ldr	r3, .L42+16
  66 0028 1A68     		ldr	r2, [r3]
  67 002a 0223     		mov	r3, #2
  68 002c FF33     		add	r3, r3, #255
  69 002e 1A42     		tst	r2, r3
  70 0030 19D0     		beq	.L4
 194:.\Generated_Source\PSoC4/I2C_I2C_INT.c ****                                                         I2C_INTR_SLAVE_I2C_ARB_LOST))
 195:.\Generated_Source\PSoC4/I2C_I2C_INT.c ****             {
 196:.\Generated_Source\PSoC4/I2C_I2C_INT.c ****                 if(I2C_CHECK_I2C_FSM_RD)
  71              		.loc 1 196 0
  72 0032 BE4B     		ldr	r3, .L42+12
  73 0034 1B78     		ldrb	r3, [r3]
  74 0036 DA07     		lsl	r2, r3, #31
  75 0038 09D5     		bpl	.L5
 197:.\Generated_Source\PSoC4/I2C_I2C_INT.c ****                 {
 198:.\Generated_Source\PSoC4/I2C_I2C_INT.c ****                     /* TX direction: master reads from slave */
 199:.\Generated_Source\PSoC4/I2C_I2C_INT.c ****                     I2C_slStatus &= (uint8) ~I2C_I2C_SSTAT_RD_BUSY;
  76              		.loc 1 199 0
  77 003a BE4B     		ldr	r3, .L42+20
  78 003c 1A78     		ldrb	r2, [r3]
  79 003e 0221     		mov	r1, #2
  80 0040 8A43     		bic	r2, r1
  81 0042 1A70     		strb	r2, [r3]
 200:.\Generated_Source\PSoC4/I2C_I2C_INT.c ****                     I2C_slStatus |= (uint8) (I2C_I2C_SSTAT_RD_ERR |
  82              		.loc 1 200 0
  83 0044 1978     		ldrb	r1, [r3]
  84 0046 0922     		mov	r2, #9
  85 0048 0A43     		orr	r2, r1
ARM GAS  C:\Users\JOHNSO~1\AppData\Local\Temp\ccLjRXjm.s 			page 6


  86 004a 1A70     		strb	r2, [r3]
  87 004c 08E0     		b	.L6
  88              	.L5:
 201:.\Generated_Source\PSoC4/I2C_I2C_INT.c ****                                                           I2C_I2C_SSTAT_RD_CMPLT);
 202:.\Generated_Source\PSoC4/I2C_I2C_INT.c ****                 }
 203:.\Generated_Source\PSoC4/I2C_I2C_INT.c ****                 else
 204:.\Generated_Source\PSoC4/I2C_I2C_INT.c ****                 {
 205:.\Generated_Source\PSoC4/I2C_I2C_INT.c ****                     /* RX direction: master writes into slave */
 206:.\Generated_Source\PSoC4/I2C_I2C_INT.c ****                     I2C_slStatus &= (uint8) ~I2C_I2C_SSTAT_WR_BUSY;
  89              		.loc 1 206 0
  90 004e B94B     		ldr	r3, .L42+20
  91 0050 1A78     		ldrb	r2, [r3]
  92 0052 2021     		mov	r1, #32
  93 0054 8A43     		bic	r2, r1
  94 0056 1A70     		strb	r2, [r3]
 207:.\Generated_Source\PSoC4/I2C_I2C_INT.c ****                     I2C_slStatus |= (uint8) (I2C_I2C_SSTAT_WR_ERR |
  95              		.loc 1 207 0
  96 0058 1978     		ldrb	r1, [r3]
  97 005a 9022     		mov	r2, #144
  98 005c 0A43     		orr	r2, r1
  99 005e 1A70     		strb	r2, [r3]
 100              	.L6:
 208:.\Generated_Source\PSoC4/I2C_I2C_INT.c ****                                                           I2C_I2C_SSTAT_WR_CMPLT);
 209:.\Generated_Source\PSoC4/I2C_I2C_INT.c ****                 }
 210:.\Generated_Source\PSoC4/I2C_I2C_INT.c **** 
 211:.\Generated_Source\PSoC4/I2C_I2C_INT.c ****                 I2C_state = I2C_I2C_FSM_EXIT_IDLE;
 101              		.loc 1 211 0
 102 0060 0022     		mov	r2, #0
 103 0062 B24B     		ldr	r3, .L42+12
 104 0064 1A70     		strb	r2, [r3]
 105              	.L4:
 212:.\Generated_Source\PSoC4/I2C_I2C_INT.c ****             }
 213:.\Generated_Source\PSoC4/I2C_I2C_INT.c ****         }
 214:.\Generated_Source\PSoC4/I2C_I2C_INT.c ****         #endif
 215:.\Generated_Source\PSoC4/I2C_I2C_INT.c ****     }
 216:.\Generated_Source\PSoC4/I2C_I2C_INT.c **** 
 217:.\Generated_Source\PSoC4/I2C_I2C_INT.c ****     /* States description:
 218:.\Generated_Source\PSoC4/I2C_I2C_INT.c ****     * Any Master operation starts from: the ADDR_RD/WR state as the master generates traffic on the
 219:.\Generated_Source\PSoC4/I2C_I2C_INT.c ****     * Any Slave operation starts from: the IDLE state as the slave always waits for actions from th
 220:.\Generated_Source\PSoC4/I2C_I2C_INT.c ****     */
 221:.\Generated_Source\PSoC4/I2C_I2C_INT.c **** 
 222:.\Generated_Source\PSoC4/I2C_I2C_INT.c ****     /* FSM Master */
 223:.\Generated_Source\PSoC4/I2C_I2C_INT.c ****     if(I2C_CHECK_I2C_FSM_MASTER)
 106              		.loc 1 223 0
 107 0066 B14B     		ldr	r3, .L42+12
 108 0068 1B78     		ldrb	r3, [r3]
 109 006a 9806     		lsl	r0, r3, #26
 110 006c 00D5     		bpl	.LCB102
 111 006e B3E1     		b	.L1	@long jump
 112              	.LCB102:
 224:.\Generated_Source\PSoC4/I2C_I2C_INT.c ****     {
 225:.\Generated_Source\PSoC4/I2C_I2C_INT.c ****         #if(I2C_I2C_MASTER)
 226:.\Generated_Source\PSoC4/I2C_I2C_INT.c ****         {
 227:.\Generated_Source\PSoC4/I2C_I2C_INT.c ****             /* INTR_MASTER_I2C_STOP:
 228:.\Generated_Source\PSoC4/I2C_I2C_INT.c ****             * A Stop condition was generated by the master: the end of the transaction.
 229:.\Generated_Source\PSoC4/I2C_I2C_INT.c ****             * Set completion flags to notify the API.
 230:.\Generated_Source\PSoC4/I2C_I2C_INT.c ****             */
ARM GAS  C:\Users\JOHNSO~1\AppData\Local\Temp\ccLjRXjm.s 			page 7


 231:.\Generated_Source\PSoC4/I2C_I2C_INT.c ****             if(I2C_CHECK_INTR_MASTER_MASKED(I2C_INTR_MASTER_I2C_STOP))
 232:.\Generated_Source\PSoC4/I2C_I2C_INT.c ****             {
 233:.\Generated_Source\PSoC4/I2C_I2C_INT.c ****                 I2C_ClearMasterInterruptSource(I2C_INTR_MASTER_I2C_STOP);
 234:.\Generated_Source\PSoC4/I2C_I2C_INT.c **** 
 235:.\Generated_Source\PSoC4/I2C_I2C_INT.c ****                 I2C_mstrStatus |= (uint16) I2C_GET_I2C_MSTAT_CMPLT;
 236:.\Generated_Source\PSoC4/I2C_I2C_INT.c ****                 I2C_state       = I2C_I2C_FSM_IDLE;
 237:.\Generated_Source\PSoC4/I2C_I2C_INT.c ****             }
 238:.\Generated_Source\PSoC4/I2C_I2C_INT.c ****             else
 239:.\Generated_Source\PSoC4/I2C_I2C_INT.c ****             {
 240:.\Generated_Source\PSoC4/I2C_I2C_INT.c ****                 if(I2C_CHECK_I2C_FSM_ADDR) /* Address stage */
 241:.\Generated_Source\PSoC4/I2C_I2C_INT.c ****                 {
 242:.\Generated_Source\PSoC4/I2C_I2C_INT.c ****                     /* INTR_MASTER_I2C_NACK:
 243:.\Generated_Source\PSoC4/I2C_I2C_INT.c ****                     * The master sent an address but it was NACKed by the slave. Complete transacti
 244:.\Generated_Source\PSoC4/I2C_I2C_INT.c ****                     */
 245:.\Generated_Source\PSoC4/I2C_I2C_INT.c ****                     if(I2C_CHECK_INTR_MASTER_MASKED(I2C_INTR_MASTER_I2C_NACK))
 246:.\Generated_Source\PSoC4/I2C_I2C_INT.c ****                     {
 247:.\Generated_Source\PSoC4/I2C_I2C_INT.c ****                         I2C_ClearMasterInterruptSource(I2C_INTR_MASTER_I2C_NACK);
 248:.\Generated_Source\PSoC4/I2C_I2C_INT.c **** 
 249:.\Generated_Source\PSoC4/I2C_I2C_INT.c ****                         I2C_mstrStatus |= (uint16) (I2C_I2C_MSTAT_ERR_XFER |
 250:.\Generated_Source\PSoC4/I2C_I2C_INT.c ****                                                                  I2C_I2C_MSTAT_ERR_ADDR_NAK);
 251:.\Generated_Source\PSoC4/I2C_I2C_INT.c **** 
 252:.\Generated_Source\PSoC4/I2C_I2C_INT.c ****                         endTransfer = I2C_I2C_CMPLT_ANY_TRANSFER;
 253:.\Generated_Source\PSoC4/I2C_I2C_INT.c ****                     }
 254:.\Generated_Source\PSoC4/I2C_I2C_INT.c ****                     /* INTR_TX_UNDERFLOW. The master sent an address:
 255:.\Generated_Source\PSoC4/I2C_I2C_INT.c ****                     *  - TX direction: the clock is stretched after the ACK phase, because the TX F
 256:.\Generated_Source\PSoC4/I2C_I2C_INT.c ****                     *    EMPTY. The TX EMPTY cleans all the TX interrupt sources.
 257:.\Generated_Source\PSoC4/I2C_I2C_INT.c ****                     *  - RX direction: the 1st byte is received, but there is no ACK permission,
 258:.\Generated_Source\PSoC4/I2C_I2C_INT.c ****                     *    the clock is stretched after 1 byte is received.
 259:.\Generated_Source\PSoC4/I2C_I2C_INT.c ****                     */
 260:.\Generated_Source\PSoC4/I2C_I2C_INT.c ****                     else
 261:.\Generated_Source\PSoC4/I2C_I2C_INT.c ****                     {
 262:.\Generated_Source\PSoC4/I2C_I2C_INT.c ****                         if(I2C_CHECK_I2C_FSM_RD) /* Reading */
 263:.\Generated_Source\PSoC4/I2C_I2C_INT.c ****                         {
 264:.\Generated_Source\PSoC4/I2C_I2C_INT.c ****                             I2C_state = I2C_I2C_FSM_MSTR_RD_DATA;
 265:.\Generated_Source\PSoC4/I2C_I2C_INT.c ****                         }
 266:.\Generated_Source\PSoC4/I2C_I2C_INT.c ****                         else /* Writing */
 267:.\Generated_Source\PSoC4/I2C_I2C_INT.c ****                         {
 268:.\Generated_Source\PSoC4/I2C_I2C_INT.c ****                             I2C_state = I2C_I2C_FSM_MSTR_WR_DATA;
 269:.\Generated_Source\PSoC4/I2C_I2C_INT.c ****                             if(0u != I2C_mstrWrBufSize)
 270:.\Generated_Source\PSoC4/I2C_I2C_INT.c ****                             {
 271:.\Generated_Source\PSoC4/I2C_I2C_INT.c ****                                 /* Enable INTR.TX_EMPTY if there is data to transmit */
 272:.\Generated_Source\PSoC4/I2C_I2C_INT.c ****                                 I2C_SetTxInterruptMode(I2C_INTR_TX_EMPTY);
 273:.\Generated_Source\PSoC4/I2C_I2C_INT.c ****                             }
 274:.\Generated_Source\PSoC4/I2C_I2C_INT.c ****                         }
 275:.\Generated_Source\PSoC4/I2C_I2C_INT.c ****                     }
 276:.\Generated_Source\PSoC4/I2C_I2C_INT.c ****                 }
 277:.\Generated_Source\PSoC4/I2C_I2C_INT.c **** 
 278:.\Generated_Source\PSoC4/I2C_I2C_INT.c ****                 if(I2C_CHECK_I2C_FSM_DATA) /* Data phase */
 279:.\Generated_Source\PSoC4/I2C_I2C_INT.c ****                 {
 280:.\Generated_Source\PSoC4/I2C_I2C_INT.c ****                     if(I2C_CHECK_I2C_FSM_RD) /* Reading */
 281:.\Generated_Source\PSoC4/I2C_I2C_INT.c ****                     {
 282:.\Generated_Source\PSoC4/I2C_I2C_INT.c ****                         /* INTR_RX_FULL:
 283:.\Generated_Source\PSoC4/I2C_I2C_INT.c ****                         * RX direction: the master received 8 bytes.
 284:.\Generated_Source\PSoC4/I2C_I2C_INT.c ****                         * Get data from RX FIFO and decide whether to ACK or  NACK the following by
 285:.\Generated_Source\PSoC4/I2C_I2C_INT.c ****                         */
 286:.\Generated_Source\PSoC4/I2C_I2C_INT.c ****                         if(I2C_CHECK_INTR_RX_MASKED(I2C_INTR_RX_FULL))
 287:.\Generated_Source\PSoC4/I2C_I2C_INT.c ****                         {
ARM GAS  C:\Users\JOHNSO~1\AppData\Local\Temp\ccLjRXjm.s 			page 8


 288:.\Generated_Source\PSoC4/I2C_I2C_INT.c ****                             /* Calculate difference */
 289:.\Generated_Source\PSoC4/I2C_I2C_INT.c ****                             diffCount =  I2C_mstrRdBufSize -
 290:.\Generated_Source\PSoC4/I2C_I2C_INT.c ****                                         (I2C_mstrRdBufIndex + I2C_GET_RX_FIFO_ENTRIES);
 291:.\Generated_Source\PSoC4/I2C_I2C_INT.c **** 
 292:.\Generated_Source\PSoC4/I2C_I2C_INT.c ****                             /* Proceed transaction or end it when RX FIFO becomes FULL again */
 293:.\Generated_Source\PSoC4/I2C_I2C_INT.c ****                             if(diffCount > I2C_I2C_FIFO_SIZE)
 294:.\Generated_Source\PSoC4/I2C_I2C_INT.c ****                             {
 295:.\Generated_Source\PSoC4/I2C_I2C_INT.c ****                                 diffCount = I2C_I2C_FIFO_SIZE;
 296:.\Generated_Source\PSoC4/I2C_I2C_INT.c ****                             }
 297:.\Generated_Source\PSoC4/I2C_I2C_INT.c ****                             else
 298:.\Generated_Source\PSoC4/I2C_I2C_INT.c ****                             {
 299:.\Generated_Source\PSoC4/I2C_I2C_INT.c ****                                 if(0u == diffCount)
 300:.\Generated_Source\PSoC4/I2C_I2C_INT.c ****                                 {
 301:.\Generated_Source\PSoC4/I2C_I2C_INT.c ****                                     I2C_DISABLE_MASTER_AUTO_DATA_ACK;
 302:.\Generated_Source\PSoC4/I2C_I2C_INT.c **** 
 303:.\Generated_Source\PSoC4/I2C_I2C_INT.c ****                                     diffCount   = I2C_I2C_FIFO_SIZE;
 304:.\Generated_Source\PSoC4/I2C_I2C_INT.c ****                                     endTransfer = I2C_I2C_CMPLT_ANY_TRANSFER;
 305:.\Generated_Source\PSoC4/I2C_I2C_INT.c ****                                 }
 306:.\Generated_Source\PSoC4/I2C_I2C_INT.c ****                             }
 307:.\Generated_Source\PSoC4/I2C_I2C_INT.c **** 
 308:.\Generated_Source\PSoC4/I2C_I2C_INT.c ****                             for(; (0u != diffCount); diffCount--)
 309:.\Generated_Source\PSoC4/I2C_I2C_INT.c ****                             {
 310:.\Generated_Source\PSoC4/I2C_I2C_INT.c ****                                 I2C_mstrRdBufPtr[I2C_mstrRdBufIndex] = (uint8)
 311:.\Generated_Source\PSoC4/I2C_I2C_INT.c ****                                                                                         I2C_RX_FIFO
 312:.\Generated_Source\PSoC4/I2C_I2C_INT.c ****                                 I2C_mstrRdBufIndex++;
 313:.\Generated_Source\PSoC4/I2C_I2C_INT.c ****                             }
 314:.\Generated_Source\PSoC4/I2C_I2C_INT.c ****                         }
 315:.\Generated_Source\PSoC4/I2C_I2C_INT.c ****                         /* INTR_RX_NOT_EMPTY:
 316:.\Generated_Source\PSoC4/I2C_I2C_INT.c ****                         * RX direction: the master received one data byte, ACK or NACK it.
 317:.\Generated_Source\PSoC4/I2C_I2C_INT.c ****                         * The last byte is stored and NACKed by the master. The NACK and Stop is
 318:.\Generated_Source\PSoC4/I2C_I2C_INT.c ****                         * generated by one command generate Stop.
 319:.\Generated_Source\PSoC4/I2C_I2C_INT.c ****                         */
 320:.\Generated_Source\PSoC4/I2C_I2C_INT.c ****                         else if(I2C_CHECK_INTR_RX_MASKED(I2C_INTR_RX_NOT_EMPTY))
 321:.\Generated_Source\PSoC4/I2C_I2C_INT.c ****                         {
 322:.\Generated_Source\PSoC4/I2C_I2C_INT.c ****                             /* Put data in component buffer */
 323:.\Generated_Source\PSoC4/I2C_I2C_INT.c ****                             I2C_mstrRdBufPtr[I2C_mstrRdBufIndex] = (uint8) I2C_RX_FIFO_RD_REG;
 324:.\Generated_Source\PSoC4/I2C_I2C_INT.c ****                             I2C_mstrRdBufIndex++;
 325:.\Generated_Source\PSoC4/I2C_I2C_INT.c **** 
 326:.\Generated_Source\PSoC4/I2C_I2C_INT.c ****                             if(I2C_mstrRdBufIndex < I2C_mstrRdBufSize)
 327:.\Generated_Source\PSoC4/I2C_I2C_INT.c ****                             {
 328:.\Generated_Source\PSoC4/I2C_I2C_INT.c ****                                 I2C_I2C_MASTER_GENERATE_ACK;
 329:.\Generated_Source\PSoC4/I2C_I2C_INT.c ****                             }
 330:.\Generated_Source\PSoC4/I2C_I2C_INT.c ****                             else
 331:.\Generated_Source\PSoC4/I2C_I2C_INT.c ****                             {
 332:.\Generated_Source\PSoC4/I2C_I2C_INT.c ****                                endTransfer = I2C_I2C_CMPLT_ANY_TRANSFER;
 333:.\Generated_Source\PSoC4/I2C_I2C_INT.c ****                             }
 334:.\Generated_Source\PSoC4/I2C_I2C_INT.c ****                         }
 335:.\Generated_Source\PSoC4/I2C_I2C_INT.c ****                         else
 336:.\Generated_Source\PSoC4/I2C_I2C_INT.c ****                         {
 337:.\Generated_Source\PSoC4/I2C_I2C_INT.c ****                             /* Do nothing */
 338:.\Generated_Source\PSoC4/I2C_I2C_INT.c ****                         }
 339:.\Generated_Source\PSoC4/I2C_I2C_INT.c **** 
 340:.\Generated_Source\PSoC4/I2C_I2C_INT.c ****                         I2C_ClearRxInterruptSource(I2C_INTR_RX_ALL);
 341:.\Generated_Source\PSoC4/I2C_I2C_INT.c ****                     }
 342:.\Generated_Source\PSoC4/I2C_I2C_INT.c ****                     else /* Writing */
 343:.\Generated_Source\PSoC4/I2C_I2C_INT.c ****                     {
 344:.\Generated_Source\PSoC4/I2C_I2C_INT.c ****                         /* INTR_MASTER_I2C_NACK :
ARM GAS  C:\Users\JOHNSO~1\AppData\Local\Temp\ccLjRXjm.s 			page 9


 345:.\Generated_Source\PSoC4/I2C_I2C_INT.c ****                         * The master writes data to the slave and NACK was received: not all the by
 346:.\Generated_Source\PSoC4/I2C_I2C_INT.c ****                         * written to the slave from the TX FIFO. Revert the index if there is data 
 347:.\Generated_Source\PSoC4/I2C_I2C_INT.c ****                         * the TX FIFO and pass control to a complete transfer.
 348:.\Generated_Source\PSoC4/I2C_I2C_INT.c ****                         */
 349:.\Generated_Source\PSoC4/I2C_I2C_INT.c ****                         if(I2C_CHECK_INTR_MASTER_MASKED(I2C_INTR_MASTER_I2C_NACK))
 350:.\Generated_Source\PSoC4/I2C_I2C_INT.c ****                         {
 351:.\Generated_Source\PSoC4/I2C_I2C_INT.c ****                             I2C_ClearMasterInterruptSource(I2C_INTR_MASTER_I2C_NACK);
 352:.\Generated_Source\PSoC4/I2C_I2C_INT.c **** 
 353:.\Generated_Source\PSoC4/I2C_I2C_INT.c ****                             /* Rollback write buffer index: NACKed byte remains in shifter */
 354:.\Generated_Source\PSoC4/I2C_I2C_INT.c ****                             I2C_mstrWrBufIndexTmp -= (I2C_GET_TX_FIFO_ENTRIES +
 355:.\Generated_Source\PSoC4/I2C_I2C_INT.c ****                                                                    I2C_GET_TX_FIFO_SR_VALID);
 356:.\Generated_Source\PSoC4/I2C_I2C_INT.c **** 
 357:.\Generated_Source\PSoC4/I2C_I2C_INT.c ****                             /* Update number of transferred bytes */
 358:.\Generated_Source\PSoC4/I2C_I2C_INT.c ****                             I2C_mstrWrBufIndex = I2C_mstrWrBufIndexTmp;
 359:.\Generated_Source\PSoC4/I2C_I2C_INT.c **** 
 360:.\Generated_Source\PSoC4/I2C_I2C_INT.c ****                             I2C_mstrStatus |= (uint16) (I2C_I2C_MSTAT_ERR_XFER |
 361:.\Generated_Source\PSoC4/I2C_I2C_INT.c ****                                                                      I2C_I2C_MSTAT_ERR_SHORT_XFER);
 362:.\Generated_Source\PSoC4/I2C_I2C_INT.c **** 
 363:.\Generated_Source\PSoC4/I2C_I2C_INT.c ****                             I2C_CLEAR_TX_FIFO;
 364:.\Generated_Source\PSoC4/I2C_I2C_INT.c **** 
 365:.\Generated_Source\PSoC4/I2C_I2C_INT.c ****                             endTransfer = I2C_I2C_CMPLT_ANY_TRANSFER;
 366:.\Generated_Source\PSoC4/I2C_I2C_INT.c ****                         }
 367:.\Generated_Source\PSoC4/I2C_I2C_INT.c ****                         /* INTR_TX_EMPTY :
 368:.\Generated_Source\PSoC4/I2C_I2C_INT.c ****                         * TX direction: the TX FIFO is EMPTY, the data from the buffer needs to be 
 369:.\Generated_Source\PSoC4/I2C_I2C_INT.c ****                         * When there is no data in the component buffer, the underflow interrupt is
 370:.\Generated_Source\PSoC4/I2C_I2C_INT.c ****                         * enabled to catch when all the data has been transferred.
 371:.\Generated_Source\PSoC4/I2C_I2C_INT.c ****                         */
 372:.\Generated_Source\PSoC4/I2C_I2C_INT.c ****                         else if(I2C_CHECK_INTR_TX_MASKED(I2C_INTR_TX_EMPTY))
 373:.\Generated_Source\PSoC4/I2C_I2C_INT.c ****                         {
 374:.\Generated_Source\PSoC4/I2C_I2C_INT.c ****                             while(I2C_I2C_FIFO_SIZE != I2C_GET_TX_FIFO_ENTRIES)
 375:.\Generated_Source\PSoC4/I2C_I2C_INT.c ****                             {
 376:.\Generated_Source\PSoC4/I2C_I2C_INT.c ****                                 /* The temporary mstrWrBufIndexTmp is used because slave could NACK
 377:.\Generated_Source\PSoC4/I2C_I2C_INT.c ****                                 * roll-back required in this case. The mstrWrBufIndex is updated at
 378:.\Generated_Source\PSoC4/I2C_I2C_INT.c ****                                 */
 379:.\Generated_Source\PSoC4/I2C_I2C_INT.c ****                                 if(I2C_mstrWrBufIndexTmp < I2C_mstrWrBufSize)
 380:.\Generated_Source\PSoC4/I2C_I2C_INT.c ****                                 {
 381:.\Generated_Source\PSoC4/I2C_I2C_INT.c ****                                 #if(!I2C_CY_SCBIP_V0)
 382:.\Generated_Source\PSoC4/I2C_I2C_INT.c ****                                    /* Clear INTR_TX.UNDERFLOW before putting the last byte into TX 
 383:.\Generated_Source\PSoC4/I2C_I2C_INT.c ****                                     * a proper trigger at the end of transaction when INTR_TX.UNDER
 384:.\Generated_Source\PSoC4/I2C_I2C_INT.c ****                                     * event. Ticket ID# 156735.
 385:.\Generated_Source\PSoC4/I2C_I2C_INT.c ****                                     */
 386:.\Generated_Source\PSoC4/I2C_I2C_INT.c ****                                     if(I2C_mstrWrBufIndexTmp == (I2C_mstrWrBufSize - 1u))
 387:.\Generated_Source\PSoC4/I2C_I2C_INT.c ****                                     {
 388:.\Generated_Source\PSoC4/I2C_I2C_INT.c ****                                         I2C_ClearTxInterruptSource(I2C_INTR_TX_UNDERFLOW);
 389:.\Generated_Source\PSoC4/I2C_I2C_INT.c ****                                         I2C_SetTxInterruptMode(I2C_INTR_TX_UNDERFLOW);
 390:.\Generated_Source\PSoC4/I2C_I2C_INT.c ****                                     }
 391:.\Generated_Source\PSoC4/I2C_I2C_INT.c ****                                  #endif /* (!I2C_CY_SCBIP_V0) */
 392:.\Generated_Source\PSoC4/I2C_I2C_INT.c **** 
 393:.\Generated_Source\PSoC4/I2C_I2C_INT.c ****                                     /* Put data into TX FIFO */
 394:.\Generated_Source\PSoC4/I2C_I2C_INT.c ****                                     I2C_TX_FIFO_WR_REG = (uint32) I2C_mstrWrBufPtr[I2C_mstrWrBufInd
 395:.\Generated_Source\PSoC4/I2C_I2C_INT.c ****                                     I2C_mstrWrBufIndexTmp++;
 396:.\Generated_Source\PSoC4/I2C_I2C_INT.c ****                                 }
 397:.\Generated_Source\PSoC4/I2C_I2C_INT.c ****                                 else
 398:.\Generated_Source\PSoC4/I2C_I2C_INT.c ****                                 {
 399:.\Generated_Source\PSoC4/I2C_I2C_INT.c ****                                     break; /* No more data to put */
 400:.\Generated_Source\PSoC4/I2C_I2C_INT.c ****                                 }
 401:.\Generated_Source\PSoC4/I2C_I2C_INT.c ****                             }
ARM GAS  C:\Users\JOHNSO~1\AppData\Local\Temp\ccLjRXjm.s 			page 10


 402:.\Generated_Source\PSoC4/I2C_I2C_INT.c **** 
 403:.\Generated_Source\PSoC4/I2C_I2C_INT.c ****                         #if(I2C_CY_SCBIP_V0)
 404:.\Generated_Source\PSoC4/I2C_I2C_INT.c ****                             if(I2C_mstrWrBufIndexTmp == I2C_mstrWrBufSize)
 405:.\Generated_Source\PSoC4/I2C_I2C_INT.c ****                             {
 406:.\Generated_Source\PSoC4/I2C_I2C_INT.c ****                                 I2C_SetTxInterruptMode(I2C_INTR_TX_UNDERFLOW);
 407:.\Generated_Source\PSoC4/I2C_I2C_INT.c ****                             }
 408:.\Generated_Source\PSoC4/I2C_I2C_INT.c **** 
 409:.\Generated_Source\PSoC4/I2C_I2C_INT.c ****                             I2C_ClearTxInterruptSource(I2C_INTR_TX_ALL);
 410:.\Generated_Source\PSoC4/I2C_I2C_INT.c ****                         #else
 411:.\Generated_Source\PSoC4/I2C_I2C_INT.c ****                             I2C_ClearTxInterruptSource(I2C_INTR_TX_EMPTY);
 412:.\Generated_Source\PSoC4/I2C_I2C_INT.c ****                         #endif /* (I2C_CY_SCBIP_V0) */
 413:.\Generated_Source\PSoC4/I2C_I2C_INT.c ****                         }
 414:.\Generated_Source\PSoC4/I2C_I2C_INT.c ****                         /* INTR_TX_UNDERFLOW:
 415:.\Generated_Source\PSoC4/I2C_I2C_INT.c ****                         * TX direction: all data from the TX FIFO was transferred to the slave.
 416:.\Generated_Source\PSoC4/I2C_I2C_INT.c ****                         * The transaction needs to be completed.
 417:.\Generated_Source\PSoC4/I2C_I2C_INT.c ****                         */
 418:.\Generated_Source\PSoC4/I2C_I2C_INT.c ****                         else if(I2C_CHECK_INTR_TX_MASKED(I2C_INTR_TX_UNDERFLOW))
 419:.\Generated_Source\PSoC4/I2C_I2C_INT.c ****                         {
 420:.\Generated_Source\PSoC4/I2C_I2C_INT.c ****                             /* Update number of transferred bytes */
 421:.\Generated_Source\PSoC4/I2C_I2C_INT.c ****                             I2C_mstrWrBufIndex = I2C_mstrWrBufIndexTmp;
 422:.\Generated_Source\PSoC4/I2C_I2C_INT.c **** 
 423:.\Generated_Source\PSoC4/I2C_I2C_INT.c ****                             endTransfer = I2C_I2C_CMPLT_ANY_TRANSFER;
 424:.\Generated_Source\PSoC4/I2C_I2C_INT.c ****                         }
 425:.\Generated_Source\PSoC4/I2C_I2C_INT.c ****                         else
 426:.\Generated_Source\PSoC4/I2C_I2C_INT.c ****                         {
 427:.\Generated_Source\PSoC4/I2C_I2C_INT.c ****                             /* Do nothing */
 428:.\Generated_Source\PSoC4/I2C_I2C_INT.c ****                         }
 429:.\Generated_Source\PSoC4/I2C_I2C_INT.c ****                     }
 430:.\Generated_Source\PSoC4/I2C_I2C_INT.c ****                 }
 431:.\Generated_Source\PSoC4/I2C_I2C_INT.c **** 
 432:.\Generated_Source\PSoC4/I2C_I2C_INT.c ****                 if(0u != endTransfer) /* Complete transfer */
 433:.\Generated_Source\PSoC4/I2C_I2C_INT.c ****                 {
 434:.\Generated_Source\PSoC4/I2C_I2C_INT.c ****                     /* Clean-up master after reading: only in case of NACK */
 435:.\Generated_Source\PSoC4/I2C_I2C_INT.c ****                     I2C_DISABLE_MASTER_AUTO_DATA_ACK;
 436:.\Generated_Source\PSoC4/I2C_I2C_INT.c **** 
 437:.\Generated_Source\PSoC4/I2C_I2C_INT.c ****                     /* Disable data processing interrupts: they have to be cleared before */
 438:.\Generated_Source\PSoC4/I2C_I2C_INT.c ****                     I2C_SetRxInterruptMode(I2C_NO_INTR_SOURCES);
 439:.\Generated_Source\PSoC4/I2C_I2C_INT.c ****                     I2C_SetTxInterruptMode(I2C_NO_INTR_SOURCES);
 440:.\Generated_Source\PSoC4/I2C_I2C_INT.c **** 
 441:.\Generated_Source\PSoC4/I2C_I2C_INT.c ****                     if(I2C_CHECK_I2C_MODE_NO_STOP(I2C_mstrControl))
 442:.\Generated_Source\PSoC4/I2C_I2C_INT.c ****                     {
 443:.\Generated_Source\PSoC4/I2C_I2C_INT.c ****                         /* On-going transaction is suspended: the ReStart is generated by the API r
 444:.\Generated_Source\PSoC4/I2C_I2C_INT.c ****                         I2C_mstrStatus |= (uint16) (I2C_I2C_MSTAT_XFER_HALT |
 445:.\Generated_Source\PSoC4/I2C_I2C_INT.c ****                                                                  I2C_GET_I2C_MSTAT_CMPLT);
 446:.\Generated_Source\PSoC4/I2C_I2C_INT.c **** 
 447:.\Generated_Source\PSoC4/I2C_I2C_INT.c ****                         I2C_state = I2C_I2C_FSM_MSTR_HALT;
 448:.\Generated_Source\PSoC4/I2C_I2C_INT.c ****                     }
 449:.\Generated_Source\PSoC4/I2C_I2C_INT.c ****                     else
 450:.\Generated_Source\PSoC4/I2C_I2C_INT.c ****                     {
 451:.\Generated_Source\PSoC4/I2C_I2C_INT.c ****                         /* Complete transaction: exclude the data processing state and generate Sto
 452:.\Generated_Source\PSoC4/I2C_I2C_INT.c ****                         * The completion status will be set after Stop generation.
 453:.\Generated_Source\PSoC4/I2C_I2C_INT.c ****                         * A special case is read: because NACK and Stop are generated by the comman
 454:.\Generated_Source\PSoC4/I2C_I2C_INT.c ****                         * Lost arbitration can occur during NACK generation when
 455:.\Generated_Source\PSoC4/I2C_I2C_INT.c ****                         * the other master is still reading from the slave.
 456:.\Generated_Source\PSoC4/I2C_I2C_INT.c ****                         */
 457:.\Generated_Source\PSoC4/I2C_I2C_INT.c ****                         I2C_I2C_MASTER_GENERATE_STOP;
 458:.\Generated_Source\PSoC4/I2C_I2C_INT.c ****                     }
ARM GAS  C:\Users\JOHNSO~1\AppData\Local\Temp\ccLjRXjm.s 			page 11


 459:.\Generated_Source\PSoC4/I2C_I2C_INT.c ****                 }
 460:.\Generated_Source\PSoC4/I2C_I2C_INT.c ****             }
 461:.\Generated_Source\PSoC4/I2C_I2C_INT.c **** 
 462:.\Generated_Source\PSoC4/I2C_I2C_INT.c ****         } /* (I2C_I2C_MASTER) */
 463:.\Generated_Source\PSoC4/I2C_I2C_INT.c ****         #endif
 464:.\Generated_Source\PSoC4/I2C_I2C_INT.c **** 
 465:.\Generated_Source\PSoC4/I2C_I2C_INT.c ****     } /* (I2C_CHECK_I2C_FSM_MASTER) */
 466:.\Generated_Source\PSoC4/I2C_I2C_INT.c **** 
 467:.\Generated_Source\PSoC4/I2C_I2C_INT.c **** 
 468:.\Generated_Source\PSoC4/I2C_I2C_INT.c ****     /* FSM Slave */
 469:.\Generated_Source\PSoC4/I2C_I2C_INT.c ****     else if(I2C_CHECK_I2C_FSM_SLAVE)
 113              		.loc 1 469 0
 114 0070 AE4B     		ldr	r3, .L42+12
 115 0072 1B78     		ldrb	r3, [r3]
 116 0074 D906     		lsl	r1, r3, #27
 117 0076 00D4     		bmi	.LCB110
 118 0078 98E1     		b	.L8	@long jump
 119              	.LCB110:
 470:.\Generated_Source\PSoC4/I2C_I2C_INT.c ****     {
 471:.\Generated_Source\PSoC4/I2C_I2C_INT.c ****         #if(I2C_I2C_SLAVE)
 472:.\Generated_Source\PSoC4/I2C_I2C_INT.c ****         {
 473:.\Generated_Source\PSoC4/I2C_I2C_INT.c ****             /* INTR_SLAVE_NACK:
 474:.\Generated_Source\PSoC4/I2C_I2C_INT.c ****             * The master completes reading the slave: the appropriate flags have to be set.
 475:.\Generated_Source\PSoC4/I2C_I2C_INT.c ****             * The TX FIFO is cleared after an overflow condition is set.
 476:.\Generated_Source\PSoC4/I2C_I2C_INT.c ****             */
 477:.\Generated_Source\PSoC4/I2C_I2C_INT.c ****             if(I2C_CHECK_INTR_SLAVE_MASKED(I2C_INTR_SLAVE_I2C_NACK))
 120              		.loc 1 477 0
 121 007a AD4B     		ldr	r3, .L42+16
 122 007c 1B68     		ldr	r3, [r3]
 123 007e 9A07     		lsl	r2, r3, #30
 124 0080 3ED5     		bpl	.L9
 478:.\Generated_Source\PSoC4/I2C_I2C_INT.c ****             {
 479:.\Generated_Source\PSoC4/I2C_I2C_INT.c ****                 I2C_ClearSlaveInterruptSource(I2C_INTR_SLAVE_I2C_NACK);
 125              		.loc 1 479 0
 126 0082 0222     		mov	r2, #2
 127 0084 AC4B     		ldr	r3, .L42+24
 128 0086 1A60     		str	r2, [r3]
 480:.\Generated_Source\PSoC4/I2C_I2C_INT.c **** 
 481:.\Generated_Source\PSoC4/I2C_I2C_INT.c ****                 /* All entries that remain in TX FIFO max value is 9: 8 (FIFO) + 1 (SHIFTER) */
 482:.\Generated_Source\PSoC4/I2C_I2C_INT.c ****                 diffCount = (I2C_GET_TX_FIFO_ENTRIES + I2C_GET_TX_FIFO_SR_VALID);
 129              		.loc 1 482 0
 130 0088 AC4B     		ldr	r3, .L42+28
 131 008a 1A68     		ldr	r2, [r3]
 132 008c 1F21     		mov	r1, #31
 133 008e 0A40     		and	r2, r1
 134 0090 1B68     		ldr	r3, [r3]
 135 0092 1804     		lsl	r0, r3, #16
 136 0094 01D5     		bpl	.L36
 137 0096 0123     		mov	r3, #1
 138 0098 00E0     		b	.L10
 139              	.L36:
 140 009a 0023     		mov	r3, #0
 141              	.L10:
 142              		.loc 1 482 0 is_stmt 0 discriminator 3
 143 009c D318     		add	r3, r2, r3
 144              	.LVL2:
 483:.\Generated_Source\PSoC4/I2C_I2C_INT.c **** 
ARM GAS  C:\Users\JOHNSO~1\AppData\Local\Temp\ccLjRXjm.s 			page 12


 484:.\Generated_Source\PSoC4/I2C_I2C_INT.c ****                 if(I2C_slOverFlowCount > diffCount) /* Overflow */
 145              		.loc 1 484 0 is_stmt 1 discriminator 3
 146 009e A84A     		ldr	r2, .L42+32
 147 00a0 1278     		ldrb	r2, [r2]
 148 00a2 D2B2     		uxtb	r2, r2
 149 00a4 9A42     		cmp	r2, r3
 150 00a6 05D9     		bls	.L11
 485:.\Generated_Source\PSoC4/I2C_I2C_INT.c ****                 {
 486:.\Generated_Source\PSoC4/I2C_I2C_INT.c ****                     I2C_slStatus |= (uint8) I2C_I2C_SSTAT_RD_OVFL;
 151              		.loc 1 486 0
 152 00a8 A24B     		ldr	r3, .L42+20
 153              	.LVL3:
 154 00aa 1978     		ldrb	r1, [r3]
 155 00ac 0422     		mov	r2, #4
 156 00ae 0A43     		orr	r2, r1
 157 00b0 1A70     		strb	r2, [r3]
 158 00b2 06E0     		b	.L12
 159              	.LVL4:
 160              	.L11:
 487:.\Generated_Source\PSoC4/I2C_I2C_INT.c ****                 }
 488:.\Generated_Source\PSoC4/I2C_I2C_INT.c ****                 else /* No Overflow */
 489:.\Generated_Source\PSoC4/I2C_I2C_INT.c ****                 {
 490:.\Generated_Source\PSoC4/I2C_I2C_INT.c ****                     /* Roll-back temporary index */
 491:.\Generated_Source\PSoC4/I2C_I2C_INT.c ****                     I2C_slRdBufIndexTmp -= (diffCount - I2C_slOverFlowCount);
 161              		.loc 1 491 0
 162 00b4 A24A     		ldr	r2, .L42+32
 163 00b6 1278     		ldrb	r2, [r2]
 164 00b8 D31A     		sub	r3, r2, r3
 165              	.LVL5:
 166 00ba A24A     		ldr	r2, .L42+36
 167 00bc 1168     		ldr	r1, [r2]
 168 00be 5B18     		add	r3, r3, r1
 169 00c0 1360     		str	r3, [r2]
 170              	.L12:
 492:.\Generated_Source\PSoC4/I2C_I2C_INT.c ****                 }
 493:.\Generated_Source\PSoC4/I2C_I2C_INT.c **** 
 494:.\Generated_Source\PSoC4/I2C_I2C_INT.c ****                 /* Update slave of transferred bytes */
 495:.\Generated_Source\PSoC4/I2C_I2C_INT.c ****                 I2C_slRdBufIndex = I2C_slRdBufIndexTmp;
 171              		.loc 1 495 0
 172 00c2 A04B     		ldr	r3, .L42+36
 173 00c4 1A68     		ldr	r2, [r3]
 174 00c6 A04B     		ldr	r3, .L42+40
 175 00c8 1A60     		str	r2, [r3]
 496:.\Generated_Source\PSoC4/I2C_I2C_INT.c **** 
 497:.\Generated_Source\PSoC4/I2C_I2C_INT.c ****                 /* Clean-up TX FIFO */
 498:.\Generated_Source\PSoC4/I2C_I2C_INT.c ****                 I2C_SetTxInterruptMode(I2C_NO_INTR_SOURCES);
 176              		.loc 1 498 0
 177 00ca 0023     		mov	r3, #0
 178 00cc 9F4A     		ldr	r2, .L42+44
 179 00ce 1360     		str	r3, [r2]
 499:.\Generated_Source\PSoC4/I2C_I2C_INT.c ****                 I2C_slOverFlowCount = 0u;
 180              		.loc 1 499 0
 181 00d0 9B4A     		ldr	r2, .L42+32
 182 00d2 1370     		strb	r3, [r2]
 500:.\Generated_Source\PSoC4/I2C_I2C_INT.c ****                 I2C_CLEAR_TX_FIFO;
 183              		.loc 1 500 0
 184 00d4 9E4B     		ldr	r3, .L42+48
ARM GAS  C:\Users\JOHNSO~1\AppData\Local\Temp\ccLjRXjm.s 			page 13


 185 00d6 1968     		ldr	r1, [r3]
 186 00d8 8022     		mov	r2, #128
 187 00da 5202     		lsl	r2, r2, #9
 188 00dc 0A43     		orr	r2, r1
 189 00de 1A60     		str	r2, [r3]
 190 00e0 1968     		ldr	r1, [r3]
 191 00e2 9C4A     		ldr	r2, .L42+52
 192 00e4 0A40     		and	r2, r1
 193 00e6 1A60     		str	r2, [r3]
 501:.\Generated_Source\PSoC4/I2C_I2C_INT.c **** 
 502:.\Generated_Source\PSoC4/I2C_I2C_INT.c ****                 /* Complete master reading */
 503:.\Generated_Source\PSoC4/I2C_I2C_INT.c ****                 I2C_slStatus &= (uint8) ~I2C_I2C_SSTAT_RD_BUSY;
 194              		.loc 1 503 0
 195 00e8 924B     		ldr	r3, .L42+20
 196 00ea 1A78     		ldrb	r2, [r3]
 197 00ec 0221     		mov	r1, #2
 198 00ee 8A43     		bic	r2, r1
 199 00f0 1A70     		strb	r2, [r3]
 504:.\Generated_Source\PSoC4/I2C_I2C_INT.c ****                 I2C_slStatus |= (uint8)  I2C_I2C_SSTAT_RD_CMPLT;
 200              		.loc 1 504 0
 201 00f2 1978     		ldrb	r1, [r3]
 202 00f4 0122     		mov	r2, #1
 203 00f6 0A43     		orr	r2, r1
 204 00f8 1A70     		strb	r2, [r3]
 505:.\Generated_Source\PSoC4/I2C_I2C_INT.c ****                 I2C_state     =  I2C_I2C_FSM_IDLE;
 205              		.loc 1 505 0
 206 00fa 1022     		mov	r2, #16
 207 00fc 8B4B     		ldr	r3, .L42+12
 208 00fe 1A70     		strb	r2, [r3]
 209              	.L9:
 506:.\Generated_Source\PSoC4/I2C_I2C_INT.c ****             }
 507:.\Generated_Source\PSoC4/I2C_I2C_INT.c **** 
 508:.\Generated_Source\PSoC4/I2C_I2C_INT.c **** 
 509:.\Generated_Source\PSoC4/I2C_I2C_INT.c ****             /* INTR_SLAVE_I2C_WRITE_STOP:
 510:.\Generated_Source\PSoC4/I2C_I2C_INT.c ****             * The master completes writing to the slave: the appropriate flags have to be set.
 511:.\Generated_Source\PSoC4/I2C_I2C_INT.c ****             * The RX FIFO contains 1-8 bytes from the previous transaction which needs to be read.
 512:.\Generated_Source\PSoC4/I2C_I2C_INT.c ****             * There is a possibility that RX FIFO contains an address, it needs to leave it there.
 513:.\Generated_Source\PSoC4/I2C_I2C_INT.c ****             */
 514:.\Generated_Source\PSoC4/I2C_I2C_INT.c ****             if(I2C_CHECK_INTR_SLAVE_MASKED(I2C_INTR_SLAVE_I2C_WRITE_STOP))
 210              		.loc 1 514 0
 211 0100 8B4B     		ldr	r3, .L42+16
 212 0102 1B68     		ldr	r3, [r3]
 213 0104 1907     		lsl	r1, r3, #28
 214 0106 39D5     		bpl	.L13
 515:.\Generated_Source\PSoC4/I2C_I2C_INT.c ****             {
 516:.\Generated_Source\PSoC4/I2C_I2C_INT.c ****                 I2C_ClearSlaveInterruptSource(I2C_INTR_SLAVE_I2C_WRITE_STOP);
 215              		.loc 1 516 0
 216 0108 0822     		mov	r2, #8
 217 010a 8B4B     		ldr	r3, .L42+24
 218 010c 1A60     		str	r2, [r3]
 517:.\Generated_Source\PSoC4/I2C_I2C_INT.c **** 
 518:.\Generated_Source\PSoC4/I2C_I2C_INT.c ****                 /* Read bytes from RX FIFO when auto data ACK receive logic is enabled. Otherwise a
 519:.\Generated_Source\PSoC4/I2C_I2C_INT.c ****                 * were already read from the RX FIFO except for address byte which has to stay here
 520:.\Generated_Source\PSoC4/I2C_I2C_INT.c ****                 * I2C_ADDR_MATCH.
 521:.\Generated_Source\PSoC4/I2C_I2C_INT.c ****                 */
 522:.\Generated_Source\PSoC4/I2C_I2C_INT.c ****                 if (0u != (I2C_I2C_CTRL_REG & I2C_I2C_CTRL_S_READY_DATA_ACK))
 219              		.loc 1 522 0
ARM GAS  C:\Users\JOHNSO~1\AppData\Local\Temp\ccLjRXjm.s 			page 14


 220 010e 924B     		ldr	r3, .L42+56
 221 0110 1B68     		ldr	r3, [r3]
 222 0112 9A04     		lsl	r2, r3, #18
 223 0114 0AD4     		bmi	.L14
 224 0116 16E0     		b	.L15
 225              	.L16:
 523:.\Generated_Source\PSoC4/I2C_I2C_INT.c ****                 {
 524:.\Generated_Source\PSoC4/I2C_I2C_INT.c ****                     while(0u != I2C_GET_RX_FIFO_ENTRIES)
 525:.\Generated_Source\PSoC4/I2C_I2C_INT.c ****                     {
 526:.\Generated_Source\PSoC4/I2C_I2C_INT.c ****                         #if(I2C_CHECK_I2C_ACCEPT_ADDRESS)
 527:.\Generated_Source\PSoC4/I2C_I2C_INT.c ****                         {
 528:.\Generated_Source\PSoC4/I2C_I2C_INT.c ****                             if((1u == I2C_GET_RX_FIFO_ENTRIES) &&
 529:.\Generated_Source\PSoC4/I2C_I2C_INT.c ****                                (I2C_CHECK_INTR_SLAVE_MASKED(I2C_INTR_SLAVE_I2C_ADDR_MATCH)))
 530:.\Generated_Source\PSoC4/I2C_I2C_INT.c ****                             {
 531:.\Generated_Source\PSoC4/I2C_I2C_INT.c ****                                 break; /* Leave address in RX FIFO */
 532:.\Generated_Source\PSoC4/I2C_I2C_INT.c ****                             }
 533:.\Generated_Source\PSoC4/I2C_I2C_INT.c ****                         }
 534:.\Generated_Source\PSoC4/I2C_I2C_INT.c ****                         #endif
 535:.\Generated_Source\PSoC4/I2C_I2C_INT.c **** 
 536:.\Generated_Source\PSoC4/I2C_I2C_INT.c ****                         /* Put data in component buffer */
 537:.\Generated_Source\PSoC4/I2C_I2C_INT.c ****                         I2C_slWrBufPtr[I2C_slWrBufIndex] = (uint8) I2C_RX_FIFO_RD_REG;
 226              		.loc 1 537 0
 227 0118 1A68     		ldr	r2, [r3]
 228 011a 3168     		ldr	r1, [r6]
 229 011c 8A18     		add	r2, r1, r2
 230 011e 2968     		ldr	r1, [r5]
 231 0120 C9B2     		uxtb	r1, r1
 232 0122 1170     		strb	r1, [r2]
 538:.\Generated_Source\PSoC4/I2C_I2C_INT.c ****                         I2C_slWrBufIndex++;
 233              		.loc 1 538 0
 234 0124 1A68     		ldr	r2, [r3]
 235 0126 0132     		add	r2, r2, #1
 236 0128 1A60     		str	r2, [r3]
 237 012a 04E0     		b	.L40
 238              	.L14:
 524:.\Generated_Source\PSoC4/I2C_I2C_INT.c ****                     while(0u != I2C_GET_RX_FIFO_ENTRIES)
 239              		.loc 1 524 0 discriminator 1
 240 012c 8B4C     		ldr	r4, .L42+60
 241 012e 1F20     		mov	r0, #31
 537:.\Generated_Source\PSoC4/I2C_I2C_INT.c ****                         I2C_slWrBufPtr[I2C_slWrBufIndex] = (uint8) I2C_RX_FIFO_RD_REG;
 242              		.loc 1 537 0 discriminator 1
 243 0130 8B4B     		ldr	r3, .L42+64
 244 0132 8C4E     		ldr	r6, .L42+68
 245 0134 8C4D     		ldr	r5, .L42+72
 246              	.L40:
 524:.\Generated_Source\PSoC4/I2C_I2C_INT.c ****                     while(0u != I2C_GET_RX_FIFO_ENTRIES)
 247              		.loc 1 524 0 discriminator 1
 248 0136 2268     		ldr	r2, [r4]
 249 0138 1042     		tst	r0, r2
 250 013a EDD1     		bne	.L16
 539:.\Generated_Source\PSoC4/I2C_I2C_INT.c ****                     }
 540:.\Generated_Source\PSoC4/I2C_I2C_INT.c **** 
 541:.\Generated_Source\PSoC4/I2C_I2C_INT.c ****                     I2C_DISABLE_SLAVE_AUTO_DATA;
 251              		.loc 1 541 0
 252 013c 864B     		ldr	r3, .L42+56
 253 013e 1968     		ldr	r1, [r3]
 254 0140 8A4A     		ldr	r2, .L42+76
ARM GAS  C:\Users\JOHNSO~1\AppData\Local\Temp\ccLjRXjm.s 			page 15


 255 0142 0A40     		and	r2, r1
 256 0144 1A60     		str	r2, [r3]
 257              	.L15:
 542:.\Generated_Source\PSoC4/I2C_I2C_INT.c ****                 }
 543:.\Generated_Source\PSoC4/I2C_I2C_INT.c **** 
 544:.\Generated_Source\PSoC4/I2C_I2C_INT.c ****                 if(I2C_CHECK_INTR_RX(I2C_INTR_RX_OVERFLOW))
 258              		.loc 1 544 0
 259 0146 8A4B     		ldr	r3, .L42+80
 260 0148 1B68     		ldr	r3, [r3]
 261 014a 9A06     		lsl	r2, r3, #26
 262 014c 04D5     		bpl	.L17
 545:.\Generated_Source\PSoC4/I2C_I2C_INT.c ****                 {
 546:.\Generated_Source\PSoC4/I2C_I2C_INT.c ****                     I2C_slStatus |= (uint8) I2C_I2C_SSTAT_WR_OVFL;
 263              		.loc 1 546 0
 264 014e 794B     		ldr	r3, .L42+20
 265 0150 1978     		ldrb	r1, [r3]
 266 0152 4022     		mov	r2, #64
 267 0154 0A43     		orr	r2, r1
 268 0156 1A70     		strb	r2, [r3]
 269              	.L17:
 547:.\Generated_Source\PSoC4/I2C_I2C_INT.c ****                 }
 548:.\Generated_Source\PSoC4/I2C_I2C_INT.c **** 
 549:.\Generated_Source\PSoC4/I2C_I2C_INT.c ****                 /* Clears RX interrupt sources triggered on data receiving */
 550:.\Generated_Source\PSoC4/I2C_I2C_INT.c ****                 I2C_SetRxInterruptMode(I2C_NO_INTR_SOURCES);
 270              		.loc 1 550 0
 271 0158 0022     		mov	r2, #0
 272 015a 864B     		ldr	r3, .L42+84
 273 015c 1A60     		str	r2, [r3]
 551:.\Generated_Source\PSoC4/I2C_I2C_INT.c ****                 I2C_ClearRxInterruptSource(I2C_INTR_RX_ALL);
 274              		.loc 1 551 0
 275 015e 864A     		ldr	r2, .L42+88
 276 0160 834B     		ldr	r3, .L42+80
 277 0162 1A60     		str	r2, [r3]
 552:.\Generated_Source\PSoC4/I2C_I2C_INT.c **** 
 553:.\Generated_Source\PSoC4/I2C_I2C_INT.c ****                 /* Complete master writing */
 554:.\Generated_Source\PSoC4/I2C_I2C_INT.c ****                 I2C_slStatus &= (uint8) ~I2C_I2C_SSTAT_WR_BUSY;
 278              		.loc 1 554 0
 279 0164 734B     		ldr	r3, .L42+20
 280 0166 1A78     		ldrb	r2, [r3]
 281 0168 2021     		mov	r1, #32
 282 016a 8A43     		bic	r2, r1
 283 016c 1A70     		strb	r2, [r3]
 555:.\Generated_Source\PSoC4/I2C_I2C_INT.c ****                 I2C_slStatus |= (uint8)  I2C_I2C_SSTAT_WR_CMPLT;
 284              		.loc 1 555 0
 285 016e 1978     		ldrb	r1, [r3]
 286 0170 1022     		mov	r2, #16
 287 0172 0A43     		orr	r2, r1
 288 0174 1A70     		strb	r2, [r3]
 556:.\Generated_Source\PSoC4/I2C_I2C_INT.c ****                 I2C_state     =  I2C_I2C_FSM_IDLE;
 289              		.loc 1 556 0
 290 0176 6D4B     		ldr	r3, .L42+12
 291 0178 1022     		mov	r2, #16
 292 017a 1A70     		strb	r2, [r3]
 293              	.L13:
 557:.\Generated_Source\PSoC4/I2C_I2C_INT.c ****             }
 558:.\Generated_Source\PSoC4/I2C_I2C_INT.c **** 
 559:.\Generated_Source\PSoC4/I2C_I2C_INT.c **** 
ARM GAS  C:\Users\JOHNSO~1\AppData\Local\Temp\ccLjRXjm.s 			page 16


 560:.\Generated_Source\PSoC4/I2C_I2C_INT.c ****             /* INTR_SLAVE_I2C_ADDR_MATCH or INTR_SLAVE_I2C_GENERAL:
 561:.\Generated_Source\PSoC4/I2C_I2C_INT.c ****             * The address match or general call address event starts the slave operation:
 562:.\Generated_Source\PSoC4/I2C_I2C_INT.c ****             * after leaving the TX or RX direction has to be chosen.
 563:.\Generated_Source\PSoC4/I2C_I2C_INT.c ****             * The wakeup interrupt must be cleared only after an address match is set.
 564:.\Generated_Source\PSoC4/I2C_I2C_INT.c ****             */
 565:.\Generated_Source\PSoC4/I2C_I2C_INT.c ****         #if (I2C_I2C_CUSTOM_ADDRESS_HANDLER_CONST)
 566:.\Generated_Source\PSoC4/I2C_I2C_INT.c ****             if (I2C_CHECK_INTR_SLAVE_MASKED(I2C_INTR_SLAVE_I2C_ADDR_MATCH |
 567:.\Generated_Source\PSoC4/I2C_I2C_INT.c ****                                                          I2C_INTR_SLAVE_I2C_GENERAL))
 568:.\Generated_Source\PSoC4/I2C_I2C_INT.c ****         #else
 569:.\Generated_Source\PSoC4/I2C_I2C_INT.c ****             if (I2C_CHECK_INTR_SLAVE_MASKED(I2C_INTR_SLAVE_I2C_ADDR_MATCH))
 294              		.loc 1 569 0
 295 017c 6C4B     		ldr	r3, .L42+16
 296 017e 1B68     		ldr	r3, [r3]
 297 0180 5806     		lsl	r0, r3, #25
 298 0182 46D5     		bpl	.L18
 570:.\Generated_Source\PSoC4/I2C_I2C_INT.c ****         #endif /* (I2C_I2C_CUSTOM_ADDRESS_HANDLER_CONST) */
 571:.\Generated_Source\PSoC4/I2C_I2C_INT.c ****             {
 572:.\Generated_Source\PSoC4/I2C_I2C_INT.c ****                 /* Clear externally clocked address match interrupt source when internally clocked 
 573:.\Generated_Source\PSoC4/I2C_I2C_INT.c ****                 I2C_ClearI2CExtClkInterruptSource(I2C_INTR_I2C_EC_WAKE_UP);
 299              		.loc 1 573 0
 300 0184 0122     		mov	r2, #1
 301 0186 7D4B     		ldr	r3, .L42+92
 302 0188 1A60     		str	r2, [r3]
 574:.\Generated_Source\PSoC4/I2C_I2C_INT.c **** 
 575:.\Generated_Source\PSoC4/I2C_I2C_INT.c ****                 #if (I2C_I2C_CUSTOM_ADDRESS_HANDLER)
 576:.\Generated_Source\PSoC4/I2C_I2C_INT.c ****                 {
 577:.\Generated_Source\PSoC4/I2C_I2C_INT.c ****                     if (NULL != I2C_customAddressHandler)
 578:.\Generated_Source\PSoC4/I2C_I2C_INT.c ****                     {
 579:.\Generated_Source\PSoC4/I2C_I2C_INT.c ****                         /* Call custom address handler */
 580:.\Generated_Source\PSoC4/I2C_I2C_INT.c ****                         response = I2C_customAddressHandler();
 581:.\Generated_Source\PSoC4/I2C_I2C_INT.c ****                     }
 582:.\Generated_Source\PSoC4/I2C_I2C_INT.c ****                     else
 583:.\Generated_Source\PSoC4/I2C_I2C_INT.c ****                     {
 584:.\Generated_Source\PSoC4/I2C_I2C_INT.c ****                         /* Read address from the RX FIFO. If there is no address underflow triggers
 585:.\Generated_Source\PSoC4/I2C_I2C_INT.c ****                         * componnet does not use that source. */
 586:.\Generated_Source\PSoC4/I2C_I2C_INT.c ****                         (void) I2C_RX_FIFO_RD_REG;
 587:.\Generated_Source\PSoC4/I2C_I2C_INT.c ****                         response = I2C_I2C_ACK_ADDR;
 588:.\Generated_Source\PSoC4/I2C_I2C_INT.c ****                     }
 589:.\Generated_Source\PSoC4/I2C_I2C_INT.c **** 
 590:.\Generated_Source\PSoC4/I2C_I2C_INT.c ****                     /* Clears RX sources after address was received in the RX FIFO */
 591:.\Generated_Source\PSoC4/I2C_I2C_INT.c ****                     I2C_ClearRxInterruptSource(I2C_INTR_RX_ALL);
 592:.\Generated_Source\PSoC4/I2C_I2C_INT.c ****                 }
 593:.\Generated_Source\PSoC4/I2C_I2C_INT.c ****                 #endif
 594:.\Generated_Source\PSoC4/I2C_I2C_INT.c **** 
 595:.\Generated_Source\PSoC4/I2C_I2C_INT.c ****             #if (I2C_I2C_CUSTOM_ADDRESS_HANDLER_CONST)
 596:.\Generated_Source\PSoC4/I2C_I2C_INT.c ****                 if (response == I2C_I2C_NAK_ADDR)
 597:.\Generated_Source\PSoC4/I2C_I2C_INT.c ****                 {
 598:.\Generated_Source\PSoC4/I2C_I2C_INT.c ****                 #if (!I2C_CY_SCBIP_V0)
 599:.\Generated_Source\PSoC4/I2C_I2C_INT.c ****                     /* Disable write stop interrupt source as it triggers after address was NACKed.
 600:.\Generated_Source\PSoC4/I2C_I2C_INT.c ****                     I2C_DISABLE_INTR_SLAVE(I2C_INTR_SLAVE_I2C_WRITE_STOP);
 601:.\Generated_Source\PSoC4/I2C_I2C_INT.c ****                 #endif /* (!I2C_CY_SCBIP_V0) */
 602:.\Generated_Source\PSoC4/I2C_I2C_INT.c **** 
 603:.\Generated_Source\PSoC4/I2C_I2C_INT.c ****                     /* Clear address match and stop history */
 604:.\Generated_Source\PSoC4/I2C_I2C_INT.c ****                     I2C_ClearSlaveInterruptSource(I2C_INTR_SLAVE_ALL);
 605:.\Generated_Source\PSoC4/I2C_I2C_INT.c **** 
 606:.\Generated_Source\PSoC4/I2C_I2C_INT.c ****                     /* ACK the address byte */
 607:.\Generated_Source\PSoC4/I2C_I2C_INT.c ****                     I2C_I2C_SLAVE_GENERATE_NACK;
ARM GAS  C:\Users\JOHNSO~1\AppData\Local\Temp\ccLjRXjm.s 			page 17


 608:.\Generated_Source\PSoC4/I2C_I2C_INT.c ****                 }
 609:.\Generated_Source\PSoC4/I2C_I2C_INT.c ****                 else
 610:.\Generated_Source\PSoC4/I2C_I2C_INT.c ****             #endif /* (I2C_I2C_CUSTOM_ADDRESS_HANDLER_CONST) */
 611:.\Generated_Source\PSoC4/I2C_I2C_INT.c ****                 {
 612:.\Generated_Source\PSoC4/I2C_I2C_INT.c ****                     if(I2C_CHECK_I2C_STATUS(I2C_I2C_STATUS_S_READ))
 303              		.loc 1 612 0
 304 018a 7D4B     		ldr	r3, .L42+96
 305 018c 1B68     		ldr	r3, [r3]
 306 018e D906     		lsl	r1, r3, #27
 307 0190 0FD5     		bpl	.L19
 613:.\Generated_Source\PSoC4/I2C_I2C_INT.c ****                     /* TX direction: master reads from slave */
 614:.\Generated_Source\PSoC4/I2C_I2C_INT.c ****                     {
 615:.\Generated_Source\PSoC4/I2C_I2C_INT.c ****                         I2C_SetTxInterruptMode(I2C_INTR_TX_EMPTY);
 308              		.loc 1 615 0
 309 0192 1022     		mov	r2, #16
 310 0194 6D4B     		ldr	r3, .L42+44
 311 0196 1A60     		str	r2, [r3]
 616:.\Generated_Source\PSoC4/I2C_I2C_INT.c **** 
 617:.\Generated_Source\PSoC4/I2C_I2C_INT.c ****                         /* Set temporary index to address buffer clear from API */
 618:.\Generated_Source\PSoC4/I2C_I2C_INT.c ****                         I2C_slRdBufIndexTmp = I2C_slRdBufIndex;
 312              		.loc 1 618 0
 313 0198 6B4B     		ldr	r3, .L42+40
 314 019a 1A68     		ldr	r2, [r3]
 315 019c 694B     		ldr	r3, .L42+36
 316 019e 1A60     		str	r2, [r3]
 619:.\Generated_Source\PSoC4/I2C_I2C_INT.c **** 
 620:.\Generated_Source\PSoC4/I2C_I2C_INT.c ****                         /* Start master reading */
 621:.\Generated_Source\PSoC4/I2C_I2C_INT.c ****                         I2C_slStatus |= (uint8) I2C_I2C_SSTAT_RD_BUSY;
 317              		.loc 1 621 0
 318 01a0 644B     		ldr	r3, .L42+20
 319 01a2 1978     		ldrb	r1, [r3]
 320 01a4 0222     		mov	r2, #2
 321 01a6 0A43     		orr	r2, r1
 322 01a8 1A70     		strb	r2, [r3]
 622:.\Generated_Source\PSoC4/I2C_I2C_INT.c ****                         I2C_state     = I2C_I2C_FSM_SL_RD;
 323              		.loc 1 622 0
 324 01aa 1222     		mov	r2, #18
 325 01ac 5F4B     		ldr	r3, .L42+12
 326 01ae 1A70     		strb	r2, [r3]
 327 01b0 24E0     		b	.L20
 328              	.L19:
 623:.\Generated_Source\PSoC4/I2C_I2C_INT.c ****                     }
 624:.\Generated_Source\PSoC4/I2C_I2C_INT.c ****                     else
 625:.\Generated_Source\PSoC4/I2C_I2C_INT.c ****                     /* RX direction: master writes into slave */
 626:.\Generated_Source\PSoC4/I2C_I2C_INT.c ****                     {
 627:.\Generated_Source\PSoC4/I2C_I2C_INT.c ****                         /* Calculate available buffer size */
 628:.\Generated_Source\PSoC4/I2C_I2C_INT.c ****                         diffCount = (I2C_slWrBufSize - I2C_slWrBufIndex);
 329              		.loc 1 628 0
 330 01b2 744B     		ldr	r3, .L42+100
 331 01b4 1A68     		ldr	r2, [r3]
 332 01b6 6A4B     		ldr	r3, .L42+64
 333 01b8 1B68     		ldr	r3, [r3]
 334 01ba D31A     		sub	r3, r2, r3
 335              	.LVL6:
 629:.\Generated_Source\PSoC4/I2C_I2C_INT.c **** 
 630:.\Generated_Source\PSoC4/I2C_I2C_INT.c ****                     #if (I2C_CY_SCBIP_V0)
 631:.\Generated_Source\PSoC4/I2C_I2C_INT.c ****                         if(diffCount < I2C_I2C_FIFO_SIZE)
ARM GAS  C:\Users\JOHNSO~1\AppData\Local\Temp\ccLjRXjm.s 			page 18


 632:.\Generated_Source\PSoC4/I2C_I2C_INT.c ****                         /* Receive data: byte-by-byte */
 633:.\Generated_Source\PSoC4/I2C_I2C_INT.c ****                         {
 634:.\Generated_Source\PSoC4/I2C_I2C_INT.c ****                             I2C_SetRxInterruptMode(I2C_INTR_RX_NOT_EMPTY);
 635:.\Generated_Source\PSoC4/I2C_I2C_INT.c ****                         }
 636:.\Generated_Source\PSoC4/I2C_I2C_INT.c ****                         else
 637:.\Generated_Source\PSoC4/I2C_I2C_INT.c ****                         /* Receive data: into RX FIFO */
 638:.\Generated_Source\PSoC4/I2C_I2C_INT.c ****                         {
 639:.\Generated_Source\PSoC4/I2C_I2C_INT.c ****                             if(diffCount == I2C_I2C_FIFO_SIZE)
 640:.\Generated_Source\PSoC4/I2C_I2C_INT.c ****                             {
 641:.\Generated_Source\PSoC4/I2C_I2C_INT.c ****                                 /* NACK when RX FIFO become FULL */
 642:.\Generated_Source\PSoC4/I2C_I2C_INT.c ****                                 I2C_ENABLE_SLAVE_AUTO_DATA;
 643:.\Generated_Source\PSoC4/I2C_I2C_INT.c ****                             }
 644:.\Generated_Source\PSoC4/I2C_I2C_INT.c ****                             else
 645:.\Generated_Source\PSoC4/I2C_I2C_INT.c ****                             {
 646:.\Generated_Source\PSoC4/I2C_I2C_INT.c ****                                 /* Stretch clock when RX FIFO becomes FULL */
 647:.\Generated_Source\PSoC4/I2C_I2C_INT.c ****                                 I2C_ENABLE_SLAVE_AUTO_DATA_ACK;
 648:.\Generated_Source\PSoC4/I2C_I2C_INT.c ****                                 I2C_SetRxInterruptMode(I2C_INTR_RX_FULL);
 649:.\Generated_Source\PSoC4/I2C_I2C_INT.c ****                             }
 650:.\Generated_Source\PSoC4/I2C_I2C_INT.c ****                         }
 651:.\Generated_Source\PSoC4/I2C_I2C_INT.c **** 
 652:.\Generated_Source\PSoC4/I2C_I2C_INT.c ****                     #else
 653:.\Generated_Source\PSoC4/I2C_I2C_INT.c ****                         #if(I2C_CHECK_I2C_ACCEPT_ADDRESS)
 654:.\Generated_Source\PSoC4/I2C_I2C_INT.c ****                         {
 655:.\Generated_Source\PSoC4/I2C_I2C_INT.c ****                             /* Enable RX.NOT_EMPTY interrupt source to receive byte by byte.
 656:.\Generated_Source\PSoC4/I2C_I2C_INT.c ****                             * The byte by byte receive is always chosen for the case when an addres
 657:.\Generated_Source\PSoC4/I2C_I2C_INT.c ****                             * in RX FIFO. Ticket ID#175559.
 658:.\Generated_Source\PSoC4/I2C_I2C_INT.c ****                             */
 659:.\Generated_Source\PSoC4/I2C_I2C_INT.c ****                             I2C_SetRxInterruptMode(I2C_INTR_RX_NOT_EMPTY);
 660:.\Generated_Source\PSoC4/I2C_I2C_INT.c ****                         }
 661:.\Generated_Source\PSoC4/I2C_I2C_INT.c ****                         #else
 662:.\Generated_Source\PSoC4/I2C_I2C_INT.c ****                         {
 663:.\Generated_Source\PSoC4/I2C_I2C_INT.c ****                             if(diffCount < I2C_I2C_FIFO_SIZE)
 336              		.loc 1 663 0
 337 01bc 072B     		cmp	r3, #7
 338 01be 03D8     		bhi	.L21
 664:.\Generated_Source\PSoC4/I2C_I2C_INT.c ****                             /* Receive data: byte-by-byte */
 665:.\Generated_Source\PSoC4/I2C_I2C_INT.c ****                             {
 666:.\Generated_Source\PSoC4/I2C_I2C_INT.c ****                                 I2C_SetRxInterruptMode(I2C_INTR_RX_NOT_EMPTY);
 339              		.loc 1 666 0
 340 01c0 0422     		mov	r2, #4
 341 01c2 6C4B     		ldr	r3, .L42+84
 342              	.LVL7:
 343 01c4 1A60     		str	r2, [r3]
 344 01c6 11E0     		b	.L22
 345              	.LVL8:
 346              	.L21:
 667:.\Generated_Source\PSoC4/I2C_I2C_INT.c ****                             }
 668:.\Generated_Source\PSoC4/I2C_I2C_INT.c ****                             else
 669:.\Generated_Source\PSoC4/I2C_I2C_INT.c ****                             /* Receive data: into RX FIFO */
 670:.\Generated_Source\PSoC4/I2C_I2C_INT.c ****                             {
 671:.\Generated_Source\PSoC4/I2C_I2C_INT.c ****                                 if(diffCount == I2C_I2C_FIFO_SIZE)
 347              		.loc 1 671 0
 348 01c8 082B     		cmp	r3, #8
 349 01ca 06D1     		bne	.L23
 672:.\Generated_Source\PSoC4/I2C_I2C_INT.c ****                                 {
 673:.\Generated_Source\PSoC4/I2C_I2C_INT.c ****                                     /* NACK when RX FIFO become FULL */
 674:.\Generated_Source\PSoC4/I2C_I2C_INT.c ****                                     I2C_ENABLE_SLAVE_AUTO_DATA;
ARM GAS  C:\Users\JOHNSO~1\AppData\Local\Temp\ccLjRXjm.s 			page 19


 350              		.loc 1 674 0
 351 01cc 624B     		ldr	r3, .L42+56
 352              	.LVL9:
 353 01ce 1968     		ldr	r1, [r3]
 354 01d0 A022     		mov	r2, #160
 355 01d2 1202     		lsl	r2, r2, #8
 356 01d4 0A43     		orr	r2, r1
 357 01d6 1A60     		str	r2, [r3]
 358 01d8 08E0     		b	.L22
 359              	.LVL10:
 360              	.L23:
 675:.\Generated_Source\PSoC4/I2C_I2C_INT.c ****                                 }
 676:.\Generated_Source\PSoC4/I2C_I2C_INT.c ****                                 else
 677:.\Generated_Source\PSoC4/I2C_I2C_INT.c ****                                 {
 678:.\Generated_Source\PSoC4/I2C_I2C_INT.c ****                                     /* Stretch clock when RX FIFO becomes FULL */
 679:.\Generated_Source\PSoC4/I2C_I2C_INT.c ****                                     I2C_ENABLE_SLAVE_AUTO_DATA_ACK;
 361              		.loc 1 679 0
 362 01da 5F4B     		ldr	r3, .L42+56
 363              	.LVL11:
 364 01dc 1968     		ldr	r1, [r3]
 365 01de 8022     		mov	r2, #128
 366 01e0 9201     		lsl	r2, r2, #6
 367 01e2 0A43     		orr	r2, r1
 368 01e4 1A60     		str	r2, [r3]
 680:.\Generated_Source\PSoC4/I2C_I2C_INT.c ****                                     I2C_SetRxInterruptMode(I2C_INTR_RX_FULL);
 369              		.loc 1 680 0
 370 01e6 0822     		mov	r2, #8
 371 01e8 624B     		ldr	r3, .L42+84
 372 01ea 1A60     		str	r2, [r3]
 373              	.L22:
 681:.\Generated_Source\PSoC4/I2C_I2C_INT.c ****                                 }
 682:.\Generated_Source\PSoC4/I2C_I2C_INT.c ****                             }
 683:.\Generated_Source\PSoC4/I2C_I2C_INT.c ****                         }
 684:.\Generated_Source\PSoC4/I2C_I2C_INT.c ****                         #endif
 685:.\Generated_Source\PSoC4/I2C_I2C_INT.c ****                     #endif /* (I2C_CY_SCBIP_V0) */
 686:.\Generated_Source\PSoC4/I2C_I2C_INT.c **** 
 687:.\Generated_Source\PSoC4/I2C_I2C_INT.c ****                         /* Start master reading */
 688:.\Generated_Source\PSoC4/I2C_I2C_INT.c ****                         I2C_slStatus |= (uint8) I2C_I2C_SSTAT_WR_BUSY;
 374              		.loc 1 688 0
 375 01ec 514B     		ldr	r3, .L42+20
 376 01ee 1978     		ldrb	r1, [r3]
 377 01f0 2022     		mov	r2, #32
 378 01f2 0A43     		orr	r2, r1
 379 01f4 1A70     		strb	r2, [r3]
 689:.\Generated_Source\PSoC4/I2C_I2C_INT.c ****                         I2C_state     = I2C_I2C_FSM_SL_WR;
 380              		.loc 1 689 0
 381 01f6 1122     		mov	r2, #17
 382 01f8 4C4B     		ldr	r3, .L42+12
 383 01fa 1A70     		strb	r2, [r3]
 384              	.L20:
 690:.\Generated_Source\PSoC4/I2C_I2C_INT.c ****                     }
 691:.\Generated_Source\PSoC4/I2C_I2C_INT.c **** 
 692:.\Generated_Source\PSoC4/I2C_I2C_INT.c ****                     /* Clear address match and stop history */
 693:.\Generated_Source\PSoC4/I2C_I2C_INT.c ****                     I2C_ClearSlaveInterruptSource(I2C_INTR_SLAVE_ALL);
 385              		.loc 1 693 0
 386 01fc 624A     		ldr	r2, .L42+104
 387 01fe 4E4B     		ldr	r3, .L42+24
ARM GAS  C:\Users\JOHNSO~1\AppData\Local\Temp\ccLjRXjm.s 			page 20


 388 0200 1A60     		str	r2, [r3]
 694:.\Generated_Source\PSoC4/I2C_I2C_INT.c **** 
 695:.\Generated_Source\PSoC4/I2C_I2C_INT.c ****                 #if (!I2C_CY_SCBIP_V0)
 696:.\Generated_Source\PSoC4/I2C_I2C_INT.c ****                     /* Enable write stop interrupt source as it triggers after address was NACKed. 
 697:.\Generated_Source\PSoC4/I2C_I2C_INT.c ****                     I2C_ENABLE_INTR_SLAVE(I2C_INTR_SLAVE_I2C_WRITE_STOP);
 389              		.loc 1 697 0
 390 0202 624B     		ldr	r3, .L42+108
 391 0204 1968     		ldr	r1, [r3]
 392 0206 0822     		mov	r2, #8
 393 0208 0A43     		orr	r2, r1
 394 020a 1A60     		str	r2, [r3]
 698:.\Generated_Source\PSoC4/I2C_I2C_INT.c ****                 #endif /* (!I2C_CY_SCBIP_V0) */
 699:.\Generated_Source\PSoC4/I2C_I2C_INT.c **** 
 700:.\Generated_Source\PSoC4/I2C_I2C_INT.c ****                     /* ACK the address byte */
 701:.\Generated_Source\PSoC4/I2C_I2C_INT.c ****                     I2C_I2C_SLAVE_GENERATE_ACK;
 395              		.loc 1 701 0
 396 020c 0122     		mov	r2, #1
 397 020e 604B     		ldr	r3, .L42+112
 398 0210 1A60     		str	r2, [r3]
 399              	.L18:
 702:.\Generated_Source\PSoC4/I2C_I2C_INT.c ****                 }
 703:.\Generated_Source\PSoC4/I2C_I2C_INT.c ****             }
 704:.\Generated_Source\PSoC4/I2C_I2C_INT.c **** 
 705:.\Generated_Source\PSoC4/I2C_I2C_INT.c ****             /* I2C_INTR_RX_FULL:
 706:.\Generated_Source\PSoC4/I2C_I2C_INT.c ****             * Get data from the RX FIFO and decide whether to ACK or NACK the following bytes
 707:.\Generated_Source\PSoC4/I2C_I2C_INT.c ****             */
 708:.\Generated_Source\PSoC4/I2C_I2C_INT.c ****             if(I2C_CHECK_INTR_RX_MASKED(I2C_INTR_RX_FULL))
 400              		.loc 1 708 0
 401 0212 604B     		ldr	r3, .L42+116
 402 0214 1B68     		ldr	r3, [r3]
 403 0216 1A07     		lsl	r2, r3, #28
 404 0218 2BD5     		bpl	.L24
 709:.\Generated_Source\PSoC4/I2C_I2C_INT.c ****             {
 710:.\Generated_Source\PSoC4/I2C_I2C_INT.c ****                 /* Calculate available buffer size to take into account that RX FIFO is FULL */
 711:.\Generated_Source\PSoC4/I2C_I2C_INT.c ****                 diffCount =  I2C_slWrBufSize -
 405              		.loc 1 711 0
 406 021a 5A4B     		ldr	r3, .L42+100
 407 021c 1A68     		ldr	r2, [r3]
 408 021e 504B     		ldr	r3, .L42+64
 409 0220 1B68     		ldr	r3, [r3]
 410 0222 D31A     		sub	r3, r2, r3
 411 0224 083B     		sub	r3, r3, #8
 412              	.LVL12:
 712:.\Generated_Source\PSoC4/I2C_I2C_INT.c ****                             (I2C_slWrBufIndex + I2C_I2C_FIFO_SIZE);
 713:.\Generated_Source\PSoC4/I2C_I2C_INT.c **** 
 714:.\Generated_Source\PSoC4/I2C_I2C_INT.c ****                 if(diffCount > I2C_I2C_FIFO_SIZE) /* Proceed transaction */
 413              		.loc 1 714 0
 414 0226 082B     		cmp	r3, #8
 415 0228 02D9     		bls	.L37
 715:.\Generated_Source\PSoC4/I2C_I2C_INT.c ****                 {
 716:.\Generated_Source\PSoC4/I2C_I2C_INT.c ****                     diffCount   = I2C_I2C_FIFO_SIZE;
 717:.\Generated_Source\PSoC4/I2C_I2C_INT.c ****                     endTransfer = 0u;  /* Continue active transfer */
 416              		.loc 1 717 0
 417 022a 0026     		mov	r6, #0
 716:.\Generated_Source\PSoC4/I2C_I2C_INT.c ****                     diffCount   = I2C_I2C_FIFO_SIZE;
 418              		.loc 1 716 0
 419 022c 0823     		mov	r3, #8
ARM GAS  C:\Users\JOHNSO~1\AppData\Local\Temp\ccLjRXjm.s 			page 21


 420              	.LVL13:
 421 022e 0CE0     		b	.L26
 422              	.LVL14:
 423              	.L37:
 718:.\Generated_Source\PSoC4/I2C_I2C_INT.c ****                 }
 719:.\Generated_Source\PSoC4/I2C_I2C_INT.c ****                 else /* End when FIFO becomes FULL again */
 720:.\Generated_Source\PSoC4/I2C_I2C_INT.c ****                 {
 721:.\Generated_Source\PSoC4/I2C_I2C_INT.c ****                     endTransfer = I2C_I2C_CMPLT_ANY_TRANSFER;
 424              		.loc 1 721 0
 425 0230 0126     		mov	r6, #1
 426 0232 0AE0     		b	.L26
 427              	.LVL15:
 428              	.L27:
 722:.\Generated_Source\PSoC4/I2C_I2C_INT.c ****                 }
 723:.\Generated_Source\PSoC4/I2C_I2C_INT.c **** 
 724:.\Generated_Source\PSoC4/I2C_I2C_INT.c ****                 for(; (0u != diffCount); diffCount--)
 725:.\Generated_Source\PSoC4/I2C_I2C_INT.c ****                 {
 726:.\Generated_Source\PSoC4/I2C_I2C_INT.c ****                     /* Put data in component buffer */
 727:.\Generated_Source\PSoC4/I2C_I2C_INT.c ****                     I2C_slWrBufPtr[I2C_slWrBufIndex] = (uint8) I2C_RX_FIFO_RD_REG;
 429              		.loc 1 727 0 discriminator 2
 430 0234 1168     		ldr	r1, [r2]
 431 0236 2868     		ldr	r0, [r5]
 432 0238 4118     		add	r1, r0, r1
 433 023a 2068     		ldr	r0, [r4]
 434 023c C0B2     		uxtb	r0, r0
 435 023e 0870     		strb	r0, [r1]
 728:.\Generated_Source\PSoC4/I2C_I2C_INT.c ****                     I2C_slWrBufIndex++;
 436              		.loc 1 728 0 discriminator 2
 437 0240 1168     		ldr	r1, [r2]
 438 0242 0131     		add	r1, r1, #1
 439 0244 1160     		str	r1, [r2]
 724:.\Generated_Source\PSoC4/I2C_I2C_INT.c ****                 for(; (0u != diffCount); diffCount--)
 440              		.loc 1 724 0 discriminator 2
 441 0246 013B     		sub	r3, r3, #1
 442              	.LVL16:
 443 0248 02E0     		b	.L41
 444              	.LVL17:
 445              	.L26:
 727:.\Generated_Source\PSoC4/I2C_I2C_INT.c ****                     I2C_slWrBufPtr[I2C_slWrBufIndex] = (uint8) I2C_RX_FIFO_RD_REG;
 446              		.loc 1 727 0 discriminator 1
 447 024a 454A     		ldr	r2, .L42+64
 448 024c 454D     		ldr	r5, .L42+68
 449 024e 464C     		ldr	r4, .L42+72
 450              	.LVL18:
 451              	.L41:
 724:.\Generated_Source\PSoC4/I2C_I2C_INT.c ****                 for(; (0u != diffCount); diffCount--)
 452              		.loc 1 724 0 discriminator 1
 453 0250 002B     		cmp	r3, #0
 454 0252 EFD1     		bne	.L27
 729:.\Generated_Source\PSoC4/I2C_I2C_INT.c ****                 }
 730:.\Generated_Source\PSoC4/I2C_I2C_INT.c **** 
 731:.\Generated_Source\PSoC4/I2C_I2C_INT.c ****                 if(0u != endTransfer) /* End transfer sending NACK */
 455              		.loc 1 731 0
 456 0254 002E     		cmp	r6, #0
 457 0256 08D0     		beq	.L28
 732:.\Generated_Source\PSoC4/I2C_I2C_INT.c ****                 {
 733:.\Generated_Source\PSoC4/I2C_I2C_INT.c ****                     I2C_ENABLE_SLAVE_AUTO_DATA_NACK;
ARM GAS  C:\Users\JOHNSO~1\AppData\Local\Temp\ccLjRXjm.s 			page 22


 458              		.loc 1 733 0
 459 0258 3F4B     		ldr	r3, .L42+56
 460              	.LVL19:
 461 025a 1968     		ldr	r1, [r3]
 462 025c 8022     		mov	r2, #128
 463 025e 1202     		lsl	r2, r2, #8
 464 0260 0A43     		orr	r2, r1
 465 0262 1A60     		str	r2, [r3]
 734:.\Generated_Source\PSoC4/I2C_I2C_INT.c **** 
 735:.\Generated_Source\PSoC4/I2C_I2C_INT.c ****                     /* INTR_RX_FULL triggers earlier than INTR_SLAVE_I2C_STOP:
 736:.\Generated_Source\PSoC4/I2C_I2C_INT.c ****                     * disable all RX interrupt sources.
 737:.\Generated_Source\PSoC4/I2C_I2C_INT.c ****                     */
 738:.\Generated_Source\PSoC4/I2C_I2C_INT.c ****                     I2C_SetRxInterruptMode(I2C_NO_INTR_SOURCES);
 466              		.loc 1 738 0
 467 0264 0022     		mov	r2, #0
 468 0266 434B     		ldr	r3, .L42+84
 469 0268 1A60     		str	r2, [r3]
 470              	.L28:
 739:.\Generated_Source\PSoC4/I2C_I2C_INT.c ****                 }
 740:.\Generated_Source\PSoC4/I2C_I2C_INT.c **** 
 741:.\Generated_Source\PSoC4/I2C_I2C_INT.c ****                 I2C_ClearRxInterruptSource(I2C_INTR_RX_FULL);
 471              		.loc 1 741 0
 472 026a 0822     		mov	r2, #8
 473 026c 404B     		ldr	r3, .L42+80
 474 026e 1A60     		str	r2, [r3]
 475 0270 24E0     		b	.L29
 476              	.LVL20:
 477              	.L24:
 742:.\Generated_Source\PSoC4/I2C_I2C_INT.c ****             }
 743:.\Generated_Source\PSoC4/I2C_I2C_INT.c ****             /* I2C_INTR_RX_NOT_EMPTY:
 744:.\Generated_Source\PSoC4/I2C_I2C_INT.c ****             * The buffer size is less than 8: it requires processing in byte-by-byte mode.
 745:.\Generated_Source\PSoC4/I2C_I2C_INT.c ****             */
 746:.\Generated_Source\PSoC4/I2C_I2C_INT.c ****             else if(I2C_CHECK_INTR_RX_MASKED(I2C_INTR_RX_NOT_EMPTY))
 478              		.loc 1 746 0
 479 0272 484B     		ldr	r3, .L42+116
 480 0274 1B68     		ldr	r3, [r3]
 481 0276 5907     		lsl	r1, r3, #29
 482 0278 20D5     		bpl	.L29
 747:.\Generated_Source\PSoC4/I2C_I2C_INT.c ****             {
 748:.\Generated_Source\PSoC4/I2C_I2C_INT.c ****                 diffCount = I2C_RX_FIFO_RD_REG;
 483              		.loc 1 748 0
 484 027a 3B4B     		ldr	r3, .L42+72
 485 027c 1968     		ldr	r1, [r3]
 486              	.LVL21:
 749:.\Generated_Source\PSoC4/I2C_I2C_INT.c **** 
 750:.\Generated_Source\PSoC4/I2C_I2C_INT.c ****                 if(I2C_slWrBufIndex < I2C_slWrBufSize)
 487              		.loc 1 750 0
 488 027e 384B     		ldr	r3, .L42+64
 489 0280 1A68     		ldr	r2, [r3]
 490 0282 404B     		ldr	r3, .L42+100
 491 0284 1B68     		ldr	r3, [r3]
 492 0286 9A42     		cmp	r2, r3
 493 0288 0DD2     		bcs	.L30
 751:.\Generated_Source\PSoC4/I2C_I2C_INT.c ****                 {
 752:.\Generated_Source\PSoC4/I2C_I2C_INT.c ****                     I2C_I2C_SLAVE_GENERATE_ACK;
 494              		.loc 1 752 0
 495 028a 0122     		mov	r2, #1
ARM GAS  C:\Users\JOHNSO~1\AppData\Local\Temp\ccLjRXjm.s 			page 23


 496 028c 404B     		ldr	r3, .L42+112
 497 028e 1A60     		str	r2, [r3]
 753:.\Generated_Source\PSoC4/I2C_I2C_INT.c **** 
 754:.\Generated_Source\PSoC4/I2C_I2C_INT.c ****                     /* Put data into component buffer */
 755:.\Generated_Source\PSoC4/I2C_I2C_INT.c ****                     I2C_slWrBufPtr[I2C_slWrBufIndex] = (uint8) diffCount;
 498              		.loc 1 755 0
 499 0290 334B     		ldr	r3, .L42+64
 500 0292 1A68     		ldr	r2, [r3]
 501 0294 3348     		ldr	r0, .L42+68
 502 0296 0068     		ldr	r0, [r0]
 503 0298 8218     		add	r2, r0, r2
 504 029a C9B2     		uxtb	r1, r1
 505              	.LVL22:
 506 029c 1170     		strb	r1, [r2]
 756:.\Generated_Source\PSoC4/I2C_I2C_INT.c ****                     I2C_slWrBufIndex++;
 507              		.loc 1 756 0
 508 029e 1A68     		ldr	r2, [r3]
 509 02a0 0132     		add	r2, r2, #1
 510 02a2 1A60     		str	r2, [r3]
 511 02a4 07E0     		b	.L31
 512              	.LVL23:
 513              	.L30:
 757:.\Generated_Source\PSoC4/I2C_I2C_INT.c ****                 }
 758:.\Generated_Source\PSoC4/I2C_I2C_INT.c ****                 else /* Overflow: there is no space in write buffer */
 759:.\Generated_Source\PSoC4/I2C_I2C_INT.c ****                 {
 760:.\Generated_Source\PSoC4/I2C_I2C_INT.c ****                     I2C_I2C_SLAVE_GENERATE_NACK;
 514              		.loc 1 760 0
 515 02a6 0222     		mov	r2, #2
 516 02a8 394B     		ldr	r3, .L42+112
 517 02aa 1A60     		str	r2, [r3]
 761:.\Generated_Source\PSoC4/I2C_I2C_INT.c **** 
 762:.\Generated_Source\PSoC4/I2C_I2C_INT.c ****                     I2C_slStatus |= (uint8) I2C_I2C_SSTAT_WR_OVFL;
 518              		.loc 1 762 0
 519 02ac 214B     		ldr	r3, .L42+20
 520 02ae 1978     		ldrb	r1, [r3]
 521              	.LVL24:
 522 02b0 4022     		mov	r2, #64
 523 02b2 0A43     		orr	r2, r1
 524 02b4 1A70     		strb	r2, [r3]
 525              	.L31:
 763:.\Generated_Source\PSoC4/I2C_I2C_INT.c ****                 }
 764:.\Generated_Source\PSoC4/I2C_I2C_INT.c **** 
 765:.\Generated_Source\PSoC4/I2C_I2C_INT.c ****                 I2C_ClearRxInterruptSource(I2C_INTR_RX_NOT_EMPTY);
 526              		.loc 1 765 0 discriminator 1
 527 02b6 0422     		mov	r2, #4
 528 02b8 2D4B     		ldr	r3, .L42+80
 529 02ba 1A60     		str	r2, [r3]
 530              	.LVL25:
 531              	.L29:
 766:.\Generated_Source\PSoC4/I2C_I2C_INT.c ****             }
 767:.\Generated_Source\PSoC4/I2C_I2C_INT.c ****             else
 768:.\Generated_Source\PSoC4/I2C_I2C_INT.c ****             {
 769:.\Generated_Source\PSoC4/I2C_I2C_INT.c ****                 /* Does nothing */
 770:.\Generated_Source\PSoC4/I2C_I2C_INT.c ****             }
 771:.\Generated_Source\PSoC4/I2C_I2C_INT.c **** 
 772:.\Generated_Source\PSoC4/I2C_I2C_INT.c **** 
 773:.\Generated_Source\PSoC4/I2C_I2C_INT.c ****             /* I2C_INTR_TX_EMPTY:
ARM GAS  C:\Users\JOHNSO~1\AppData\Local\Temp\ccLjRXjm.s 			page 24


 774:.\Generated_Source\PSoC4/I2C_I2C_INT.c ****             * The master reads the slave: provide data to read or 0xFF in the case of the end of th
 775:.\Generated_Source\PSoC4/I2C_I2C_INT.c ****             * The overflow condition must be captured, but not set until the end of transaction.
 776:.\Generated_Source\PSoC4/I2C_I2C_INT.c ****             * There is a possibility of a false overflow due to TX FIFO utilization.
 777:.\Generated_Source\PSoC4/I2C_I2C_INT.c ****             */
 778:.\Generated_Source\PSoC4/I2C_I2C_INT.c ****             if(I2C_CHECK_INTR_TX_MASKED(I2C_INTR_TX_EMPTY))
 532              		.loc 1 778 0
 533 02bc 364B     		ldr	r3, .L42+120
 534 02be 1B68     		ldr	r3, [r3]
 535 02c0 DA06     		lsl	r2, r3, #27
 536 02c2 1CD4     		bmi	.L38
 537 02c4 88E0     		b	.L1
 538              	.L35:
 779:.\Generated_Source\PSoC4/I2C_I2C_INT.c ****             {
 780:.\Generated_Source\PSoC4/I2C_I2C_INT.c ****                 while(I2C_I2C_FIFO_SIZE != I2C_GET_TX_FIFO_ENTRIES)
 781:.\Generated_Source\PSoC4/I2C_I2C_INT.c ****                 {
 782:.\Generated_Source\PSoC4/I2C_I2C_INT.c ****                     /* Temporary slRdBufIndexTmp is used because the master can NACK the byte and
 783:.\Generated_Source\PSoC4/I2C_I2C_INT.c ****                     * index roll-back is required in this case. The slRdBufIndex is updated at the 
 784:.\Generated_Source\PSoC4/I2C_I2C_INT.c ****                     * of the read transfer.
 785:.\Generated_Source\PSoC4/I2C_I2C_INT.c ****                     */
 786:.\Generated_Source\PSoC4/I2C_I2C_INT.c ****                     if(I2C_slRdBufIndexTmp < I2C_slRdBufSize)
 539              		.loc 1 786 0
 540 02c6 3268     		ldr	r2, [r6]
 541 02c8 2B68     		ldr	r3, [r5]
 542 02ca 9A42     		cmp	r2, r3
 543 02cc 0AD2     		bcs	.L33
 787:.\Generated_Source\PSoC4/I2C_I2C_INT.c ****                     /* Data from buffer */
 788:.\Generated_Source\PSoC4/I2C_I2C_INT.c ****                     {
 789:.\Generated_Source\PSoC4/I2C_I2C_INT.c ****                         I2C_TX_FIFO_WR_REG = (uint32) I2C_slRdBufPtr[I2C_slRdBufIndexTmp];
 544              		.loc 1 789 0
 545 02ce 0B68     		ldr	r3, [r1]
 546 02d0 3A68     		ldr	r2, [r7]
 547 02d2 D318     		add	r3, r2, r3
 548 02d4 1A78     		ldrb	r2, [r3]
 549 02d6 D2B2     		uxtb	r2, r2
 550 02d8 304B     		ldr	r3, .L42+124
 551 02da 1A60     		str	r2, [r3]
 790:.\Generated_Source\PSoC4/I2C_I2C_INT.c ****                         I2C_slRdBufIndexTmp++;
 552              		.loc 1 790 0
 553 02dc 0B68     		ldr	r3, [r1]
 554 02de 0133     		add	r3, r3, #1
 555 02e0 0B60     		str	r3, [r1]
 556 02e2 15E0     		b	.L39
 557              	.L33:
 791:.\Generated_Source\PSoC4/I2C_I2C_INT.c ****                     }
 792:.\Generated_Source\PSoC4/I2C_I2C_INT.c ****                     else
 793:.\Generated_Source\PSoC4/I2C_I2C_INT.c ****                     /* Probably Overflow */
 794:.\Generated_Source\PSoC4/I2C_I2C_INT.c ****                     {
 795:.\Generated_Source\PSoC4/I2C_I2C_INT.c ****                         I2C_TX_FIFO_WR_REG = I2C_I2C_SLAVE_OVFL_RETURN;
 558              		.loc 1 795 0
 559 02e4 FF22     		mov	r2, #255
 560 02e6 2D4B     		ldr	r3, .L42+124
 561 02e8 1A60     		str	r2, [r3]
 796:.\Generated_Source\PSoC4/I2C_I2C_INT.c **** 
 797:.\Generated_Source\PSoC4/I2C_I2C_INT.c ****                         if(0u == (I2C_INTR_TX_OVERFLOW & I2C_slOverFlowCount))
 562              		.loc 1 797 0
 563 02ea 6246     		mov	r2, ip
 564 02ec 1378     		ldrb	r3, [r2]
ARM GAS  C:\Users\JOHNSO~1\AppData\Local\Temp\ccLjRXjm.s 			page 25


 565 02ee 9A06     		lsl	r2, r3, #26
 566 02f0 0ED4     		bmi	.L39
 798:.\Generated_Source\PSoC4/I2C_I2C_INT.c ****                         {
 799:.\Generated_Source\PSoC4/I2C_I2C_INT.c ****                             /* Get counter in range of byte: value 10 is overflow */
 800:.\Generated_Source\PSoC4/I2C_I2C_INT.c ****                             I2C_slOverFlowCount++;
 567              		.loc 1 800 0
 568 02f2 4246     		mov	r2, r8
 569 02f4 1378     		ldrb	r3, [r2]
 570 02f6 0133     		add	r3, r3, #1
 571 02f8 DBB2     		uxtb	r3, r3
 572 02fa 1370     		strb	r3, [r2]
 573 02fc 08E0     		b	.L39
 574              	.L38:
 780:.\Generated_Source\PSoC4/I2C_I2C_INT.c ****                 while(I2C_I2C_FIFO_SIZE != I2C_GET_TX_FIFO_ENTRIES)
 575              		.loc 1 780 0 discriminator 1
 576 02fe 0F4C     		ldr	r4, .L42+28
 577 0300 1F20     		mov	r0, #31
 786:.\Generated_Source\PSoC4/I2C_I2C_INT.c ****                     if(I2C_slRdBufIndexTmp < I2C_slRdBufSize)
 578              		.loc 1 786 0 discriminator 1
 579 0302 104E     		ldr	r6, .L42+36
 580 0304 264D     		ldr	r5, .L42+128
 797:.\Generated_Source\PSoC4/I2C_I2C_INT.c ****                         if(0u == (I2C_INTR_TX_OVERFLOW & I2C_slOverFlowCount))
 581              		.loc 1 797 0 discriminator 1
 582 0306 0E4B     		ldr	r3, .L42+32
 583 0308 9C46     		mov	ip, r3
 584              		.loc 1 800 0 discriminator 1
 585 030a 9846     		mov	r8, r3
 789:.\Generated_Source\PSoC4/I2C_I2C_INT.c ****                         I2C_TX_FIFO_WR_REG = (uint32) I2C_slRdBufPtr[I2C_slRdBufIndexTmp];
 586              		.loc 1 789 0 discriminator 1
 587 030c 311C     		mov	r1, r6
 588 030e 254F     		ldr	r7, .L42+132
 589              	.L39:
 780:.\Generated_Source\PSoC4/I2C_I2C_INT.c ****                 while(I2C_I2C_FIFO_SIZE != I2C_GET_TX_FIFO_ENTRIES)
 590              		.loc 1 780 0 discriminator 1
 591 0310 2368     		ldr	r3, [r4]
 592 0312 0340     		and	r3, r0
 593 0314 082B     		cmp	r3, #8
 594 0316 D6D1     		bne	.L35
 801:.\Generated_Source\PSoC4/I2C_I2C_INT.c ****                         }
 802:.\Generated_Source\PSoC4/I2C_I2C_INT.c ****                     }
 803:.\Generated_Source\PSoC4/I2C_I2C_INT.c ****                 }
 804:.\Generated_Source\PSoC4/I2C_I2C_INT.c **** 
 805:.\Generated_Source\PSoC4/I2C_I2C_INT.c ****                 I2C_ClearTxInterruptSource(I2C_INTR_TX_EMPTY);
 595              		.loc 1 805 0
 596 0318 1022     		mov	r2, #16
 597 031a 234B     		ldr	r3, .L42+136
 598 031c 1A60     		str	r2, [r3]
 599 031e 5BE0     		b	.L1
 600              	.L43:
 601              		.align	2
 602              	.L42:
 603 0320 00000000 		.word	I2C_customIntrHandler
 604 0324 8C0E2540 		.word	1076170380
 605 0328 880E2540 		.word	1076170376
 606 032c 00000000 		.word	I2C_state
 607 0330 4C0F2540 		.word	1076170572
 608 0334 00000000 		.word	I2C_slStatus
ARM GAS  C:\Users\JOHNSO~1\AppData\Local\Temp\ccLjRXjm.s 			page 26


 609 0338 400F2540 		.word	1076170560
 610 033c 08022540 		.word	1076167176
 611 0340 00000000 		.word	I2C_slOverFlowCount
 612 0344 00000000 		.word	I2C_slRdBufIndexTmp
 613 0348 00000000 		.word	I2C_slRdBufIndex
 614 034c 880F2540 		.word	1076170632
 615 0350 04022540 		.word	1076167172
 616 0354 FFFFFEFF 		.word	-65537
 617 0358 60002540 		.word	1076166752
 618 035c 08032540 		.word	1076167432
 619 0360 00000000 		.word	I2C_slWrBufIndex
 620 0364 00000000 		.word	I2C_slWrBufPtr
 621 0368 40032540 		.word	1076167488
 622 036c FF5FFFFF 		.word	-40961
 623 0370 C00F2540 		.word	1076170688
 624 0374 C80F2540 		.word	1076170696
 625 0378 ED0F0000 		.word	4077
 626 037c 800E2540 		.word	1076170368
 627 0380 64002540 		.word	1076166756
 628 0384 00000000 		.word	I2C_slWrBufSize
 629 0388 FF0F0000 		.word	4095
 630 038c 480F2540 		.word	1076170568
 631 0390 6C002540 		.word	1076166764
 632 0394 CC0F2540 		.word	1076170700
 633 0398 8C0F2540 		.word	1076170636
 634 039c 40022540 		.word	1076167232
 635 03a0 00000000 		.word	I2C_slRdBufSize
 636 03a4 00000000 		.word	I2C_slRdBufPtr
 637 03a8 800F2540 		.word	1076170624
 638              	.LVL26:
 639              	.L8:
 806:.\Generated_Source\PSoC4/I2C_I2C_INT.c ****             }
 807:.\Generated_Source\PSoC4/I2C_I2C_INT.c **** 
 808:.\Generated_Source\PSoC4/I2C_I2C_INT.c ****         }  /* (I2C_I2C_SLAVE) */
 809:.\Generated_Source\PSoC4/I2C_I2C_INT.c ****         #endif
 810:.\Generated_Source\PSoC4/I2C_I2C_INT.c ****     }
 811:.\Generated_Source\PSoC4/I2C_I2C_INT.c **** 
 812:.\Generated_Source\PSoC4/I2C_I2C_INT.c **** 
 813:.\Generated_Source\PSoC4/I2C_I2C_INT.c ****     /* FSM EXIT:
 814:.\Generated_Source\PSoC4/I2C_I2C_INT.c ****     * Slave:  INTR_SLAVE_I2C_BUS_ERROR, INTR_SLAVE_I2C_ARB_LOST
 815:.\Generated_Source\PSoC4/I2C_I2C_INT.c ****     * Master: INTR_MASTER_I2C_BUS_ERROR, INTR_MASTER_I2C_ARB_LOST.
 816:.\Generated_Source\PSoC4/I2C_I2C_INT.c ****     */
 817:.\Generated_Source\PSoC4/I2C_I2C_INT.c ****     else
 818:.\Generated_Source\PSoC4/I2C_I2C_INT.c ****     {
 819:.\Generated_Source\PSoC4/I2C_I2C_INT.c ****         I2C_CTRL_REG &= (uint32) ~I2C_CTRL_ENABLED; /* Disable scb IP */
 640              		.loc 1 819 0
 641 03ac 0C4B     		ldr	r3, .L44
 642 03ae 1A68     		ldr	r2, [r3]
 643 03b0 5200     		lsl	r2, r2, #1
 644 03b2 5208     		lsr	r2, r2, #1
 645 03b4 1A60     		str	r2, [r3]
 820:.\Generated_Source\PSoC4/I2C_I2C_INT.c **** 
 821:.\Generated_Source\PSoC4/I2C_I2C_INT.c ****         I2C_state = I2C_I2C_FSM_IDLE;
 646              		.loc 1 821 0
 647 03b6 1021     		mov	r1, #16
 648 03b8 0A4A     		ldr	r2, .L44+4
 649 03ba 1170     		strb	r1, [r2]
ARM GAS  C:\Users\JOHNSO~1\AppData\Local\Temp\ccLjRXjm.s 			page 27


 822:.\Generated_Source\PSoC4/I2C_I2C_INT.c **** 
 823:.\Generated_Source\PSoC4/I2C_I2C_INT.c ****         I2C_DISABLE_SLAVE_AUTO_DATA;
 650              		.loc 1 823 0
 651 03bc 0A4A     		ldr	r2, .L44+8
 652 03be 1068     		ldr	r0, [r2]
 653 03c0 0A49     		ldr	r1, .L44+12
 654 03c2 0140     		and	r1, r0
 655 03c4 1160     		str	r1, [r2]
 824:.\Generated_Source\PSoC4/I2C_I2C_INT.c ****         I2C_DISABLE_MASTER_AUTO_DATA;
 656              		.loc 1 824 0
 657 03c6 1068     		ldr	r0, [r2]
 658 03c8 0949     		ldr	r1, .L44+16
 659 03ca 0140     		and	r1, r0
 660 03cc 1160     		str	r1, [r2]
 825:.\Generated_Source\PSoC4/I2C_I2C_INT.c **** 
 826:.\Generated_Source\PSoC4/I2C_I2C_INT.c ****     #if(I2C_CY_SCBIP_V0)
 827:.\Generated_Source\PSoC4/I2C_I2C_INT.c ****         I2C_SetRxInterruptMode(I2C_NO_INTR_SOURCES);
 828:.\Generated_Source\PSoC4/I2C_I2C_INT.c ****         I2C_SetTxInterruptMode(I2C_NO_INTR_SOURCES);
 829:.\Generated_Source\PSoC4/I2C_I2C_INT.c **** 
 830:.\Generated_Source\PSoC4/I2C_I2C_INT.c ****         /* Clear interrupt sources as they are not automatically cleared after SCB is disabled */
 831:.\Generated_Source\PSoC4/I2C_I2C_INT.c ****         I2C_ClearTxInterruptSource(I2C_INTR_RX_ALL);
 832:.\Generated_Source\PSoC4/I2C_I2C_INT.c ****         I2C_ClearRxInterruptSource(I2C_INTR_TX_ALL);
 833:.\Generated_Source\PSoC4/I2C_I2C_INT.c ****         I2C_ClearSlaveInterruptSource(I2C_INTR_SLAVE_ALL);
 834:.\Generated_Source\PSoC4/I2C_I2C_INT.c ****         I2C_ClearMasterInterruptSource(I2C_INTR_MASTER_ALL);
 835:.\Generated_Source\PSoC4/I2C_I2C_INT.c ****     #endif /* (I2C_CY_SCBIP_V0) */
 836:.\Generated_Source\PSoC4/I2C_I2C_INT.c **** 
 837:.\Generated_Source\PSoC4/I2C_I2C_INT.c ****         I2C_CTRL_REG |= (uint32) I2C_CTRL_ENABLED;  /* Enable scb IP */
 661              		.loc 1 837 0
 662 03ce 1968     		ldr	r1, [r3]
 663 03d0 8022     		mov	r2, #128
 664 03d2 1206     		lsl	r2, r2, #24
 665 03d4 0A43     		orr	r2, r1
 666 03d6 1A60     		str	r2, [r3]
 667              	.LVL27:
 668              	.L1:
 838:.\Generated_Source\PSoC4/I2C_I2C_INT.c ****     }
 839:.\Generated_Source\PSoC4/I2C_I2C_INT.c **** }
 669              		.loc 1 839 0
 670              		@ sp needed
 671 03d8 04BC     		pop	{r2}
 672 03da 9046     		mov	r8, r2
 673 03dc F0BD     		pop	{r4, r5, r6, r7, pc}
 674              	.L45:
 675 03de C046     		.align	2
 676              	.L44:
 677 03e0 00002540 		.word	1076166656
 678 03e4 00000000 		.word	I2C_state
 679 03e8 60002540 		.word	1076166752
 680 03ec FF5FFFFF 		.word	-40961
 681 03f0 FFFCFFFF 		.word	-769
 682              		.cfi_endproc
 683              	.LFE2:
 684              		.size	I2C_I2C_ISR, .-I2C_I2C_ISR
 685              		.text
 686              	.Letext0:
 687              		.file 2 "Generated_Source\\PSoC4/cytypes.h"
 688              		.file 3 ".\\Generated_Source\\PSoC4\\I2C_PVT.h"
ARM GAS  C:\Users\JOHNSO~1\AppData\Local\Temp\ccLjRXjm.s 			page 28


 689              		.file 4 ".\\Generated_Source\\PSoC4\\I2C_I2C_PVT.h"
