ARM GAS  C:\Users\JOHNSO~1\AppData\Local\Temp\ccZXYwgB.s 			page 1


   1              		.cpu cortex-m0
   2              		.fpu softvfp
   3              		.eabi_attribute 20, 1
   4              		.eabi_attribute 21, 1
   5              		.eabi_attribute 23, 3
   6              		.eabi_attribute 24, 1
   7              		.eabi_attribute 25, 1
   8              		.eabi_attribute 26, 1
   9              		.eabi_attribute 30, 1
  10              		.eabi_attribute 34, 0
  11              		.eabi_attribute 18, 4
  12              		.code	16
  13              		.file	"I2C_SCBCLK.c"
  14              		.text
  15              	.Ltext0:
  16              		.cfi_sections	.debug_frame
  17              		.section	.text.I2C_SCBCLK_StartEx,"ax",%progbits
  18              		.align	2
  19              		.global	I2C_SCBCLK_StartEx
  20              		.code	16
  21              		.thumb_func
  22              		.type	I2C_SCBCLK_StartEx, %function
  23              	I2C_SCBCLK_StartEx:
  24              	.LFB0:
  25              		.file 1 ".\\Generated_Source\\PSoC4\\I2C_SCBCLK.c"
   1:.\Generated_Source\PSoC4/I2C_SCBCLK.c **** /*******************************************************************************
   2:.\Generated_Source\PSoC4/I2C_SCBCLK.c **** * File Name: I2C_SCBCLK.c
   3:.\Generated_Source\PSoC4/I2C_SCBCLK.c **** * Version 2.20
   4:.\Generated_Source\PSoC4/I2C_SCBCLK.c **** *
   5:.\Generated_Source\PSoC4/I2C_SCBCLK.c **** *  Description:
   6:.\Generated_Source\PSoC4/I2C_SCBCLK.c **** *   Provides system API for the clocking, interrupts and watchdog timer.
   7:.\Generated_Source\PSoC4/I2C_SCBCLK.c **** *
   8:.\Generated_Source\PSoC4/I2C_SCBCLK.c **** *  Note:
   9:.\Generated_Source\PSoC4/I2C_SCBCLK.c **** *   Documentation of the API's in this file is located in the
  10:.\Generated_Source\PSoC4/I2C_SCBCLK.c **** *   System Reference Guide provided with PSoC Creator.
  11:.\Generated_Source\PSoC4/I2C_SCBCLK.c **** *
  12:.\Generated_Source\PSoC4/I2C_SCBCLK.c **** ********************************************************************************
  13:.\Generated_Source\PSoC4/I2C_SCBCLK.c **** * Copyright 2008-2012, Cypress Semiconductor Corporation.  All rights reserved.
  14:.\Generated_Source\PSoC4/I2C_SCBCLK.c **** * You may use this file only in accordance with the license, terms, conditions,
  15:.\Generated_Source\PSoC4/I2C_SCBCLK.c **** * disclaimers, and limitations in the end user license agreement accompanying
  16:.\Generated_Source\PSoC4/I2C_SCBCLK.c **** * the software package with which this file was provided.
  17:.\Generated_Source\PSoC4/I2C_SCBCLK.c **** *******************************************************************************/
  18:.\Generated_Source\PSoC4/I2C_SCBCLK.c **** 
  19:.\Generated_Source\PSoC4/I2C_SCBCLK.c **** #include <cydevice_trm.h>
  20:.\Generated_Source\PSoC4/I2C_SCBCLK.c **** #include "I2C_SCBCLK.h"
  21:.\Generated_Source\PSoC4/I2C_SCBCLK.c **** 
  22:.\Generated_Source\PSoC4/I2C_SCBCLK.c **** #if defined CYREG_PERI_DIV_CMD
  23:.\Generated_Source\PSoC4/I2C_SCBCLK.c **** 
  24:.\Generated_Source\PSoC4/I2C_SCBCLK.c **** /*******************************************************************************
  25:.\Generated_Source\PSoC4/I2C_SCBCLK.c **** * Function Name: I2C_SCBCLK_StartEx
  26:.\Generated_Source\PSoC4/I2C_SCBCLK.c **** ********************************************************************************
  27:.\Generated_Source\PSoC4/I2C_SCBCLK.c **** *
  28:.\Generated_Source\PSoC4/I2C_SCBCLK.c **** * Summary:
  29:.\Generated_Source\PSoC4/I2C_SCBCLK.c **** *  Starts the clock, aligned to the specified running clock.
  30:.\Generated_Source\PSoC4/I2C_SCBCLK.c **** *
  31:.\Generated_Source\PSoC4/I2C_SCBCLK.c **** * Parameters:
  32:.\Generated_Source\PSoC4/I2C_SCBCLK.c **** *  alignClkDiv:  The divider to which phase alignment is performed when the
ARM GAS  C:\Users\JOHNSO~1\AppData\Local\Temp\ccZXYwgB.s 			page 2


  33:.\Generated_Source\PSoC4/I2C_SCBCLK.c **** *    clock is started.
  34:.\Generated_Source\PSoC4/I2C_SCBCLK.c **** *
  35:.\Generated_Source\PSoC4/I2C_SCBCLK.c **** * Returns:
  36:.\Generated_Source\PSoC4/I2C_SCBCLK.c **** *  None
  37:.\Generated_Source\PSoC4/I2C_SCBCLK.c **** *
  38:.\Generated_Source\PSoC4/I2C_SCBCLK.c **** *******************************************************************************/
  39:.\Generated_Source\PSoC4/I2C_SCBCLK.c **** void I2C_SCBCLK_StartEx(uint32 alignClkDiv)
  40:.\Generated_Source\PSoC4/I2C_SCBCLK.c **** {
  26              		.loc 1 40 0
  27              		.cfi_startproc
  28              	.LVL0:
  41:.\Generated_Source\PSoC4/I2C_SCBCLK.c ****     /* Make sure any previous start command has finished. */
  42:.\Generated_Source\PSoC4/I2C_SCBCLK.c ****     while((I2C_SCBCLK_CMD_REG & I2C_SCBCLK_CMD_ENABLE_MASK) != 0u)
  29              		.loc 1 42 0
  30 0000 044A     		ldr	r2, .L4
  31              	.L2:
  32              		.loc 1 42 0 is_stmt 0 discriminator 1
  33 0002 1368     		ldr	r3, [r2]
  34 0004 002B     		cmp	r3, #0
  35 0006 FCDB     		blt	.L2
  43:.\Generated_Source\PSoC4/I2C_SCBCLK.c ****     {
  44:.\Generated_Source\PSoC4/I2C_SCBCLK.c ****     }
  45:.\Generated_Source\PSoC4/I2C_SCBCLK.c ****     
  46:.\Generated_Source\PSoC4/I2C_SCBCLK.c ****     /* Specify the target divider and it's alignment divider, and enable. */
  47:.\Generated_Source\PSoC4/I2C_SCBCLK.c ****     I2C_SCBCLK_CMD_REG =
  48:.\Generated_Source\PSoC4/I2C_SCBCLK.c ****         ((uint32)I2C_SCBCLK__DIV_ID << I2C_SCBCLK_CMD_DIV_SHIFT)|
  49:.\Generated_Source\PSoC4/I2C_SCBCLK.c ****         (alignClkDiv << I2C_SCBCLK_CMD_PA_DIV_SHIFT) |
  36              		.loc 1 49 0 is_stmt 1
  37 0008 0002     		lsl	r0, r0, #8
  38              	.LVL1:
  39 000a 034B     		ldr	r3, .L4+4
  40 000c 1843     		orr	r0, r3
  47:.\Generated_Source\PSoC4/I2C_SCBCLK.c ****     I2C_SCBCLK_CMD_REG =
  41              		.loc 1 47 0
  42 000e 014B     		ldr	r3, .L4
  43 0010 1860     		str	r0, [r3]
  50:.\Generated_Source\PSoC4/I2C_SCBCLK.c ****         (uint32)I2C_SCBCLK_CMD_ENABLE_MASK;
  51:.\Generated_Source\PSoC4/I2C_SCBCLK.c **** }
  44              		.loc 1 51 0
  45              		@ sp needed
  46 0012 7047     		bx	lr
  47              	.L5:
  48              		.align	2
  49              	.L4:
  50 0014 00000140 		.word	1073807360
  51 0018 42000080 		.word	-2147483582
  52              		.cfi_endproc
  53              	.LFE0:
  54              		.size	I2C_SCBCLK_StartEx, .-I2C_SCBCLK_StartEx
  55              		.section	.text.I2C_SCBCLK_Stop,"ax",%progbits
  56              		.align	2
  57              		.global	I2C_SCBCLK_Stop
  58              		.code	16
  59              		.thumb_func
  60              		.type	I2C_SCBCLK_Stop, %function
  61              	I2C_SCBCLK_Stop:
  62              	.LFB1:
ARM GAS  C:\Users\JOHNSO~1\AppData\Local\Temp\ccZXYwgB.s 			page 3


  52:.\Generated_Source\PSoC4/I2C_SCBCLK.c **** 
  53:.\Generated_Source\PSoC4/I2C_SCBCLK.c **** #else
  54:.\Generated_Source\PSoC4/I2C_SCBCLK.c **** 
  55:.\Generated_Source\PSoC4/I2C_SCBCLK.c **** /*******************************************************************************
  56:.\Generated_Source\PSoC4/I2C_SCBCLK.c **** * Function Name: I2C_SCBCLK_Start
  57:.\Generated_Source\PSoC4/I2C_SCBCLK.c **** ********************************************************************************
  58:.\Generated_Source\PSoC4/I2C_SCBCLK.c **** *
  59:.\Generated_Source\PSoC4/I2C_SCBCLK.c **** * Summary:
  60:.\Generated_Source\PSoC4/I2C_SCBCLK.c **** *  Starts the clock.
  61:.\Generated_Source\PSoC4/I2C_SCBCLK.c **** *
  62:.\Generated_Source\PSoC4/I2C_SCBCLK.c **** * Parameters:
  63:.\Generated_Source\PSoC4/I2C_SCBCLK.c **** *  None
  64:.\Generated_Source\PSoC4/I2C_SCBCLK.c **** *
  65:.\Generated_Source\PSoC4/I2C_SCBCLK.c **** * Returns:
  66:.\Generated_Source\PSoC4/I2C_SCBCLK.c **** *  None
  67:.\Generated_Source\PSoC4/I2C_SCBCLK.c **** *
  68:.\Generated_Source\PSoC4/I2C_SCBCLK.c **** *******************************************************************************/
  69:.\Generated_Source\PSoC4/I2C_SCBCLK.c **** 
  70:.\Generated_Source\PSoC4/I2C_SCBCLK.c **** void I2C_SCBCLK_Start(void)
  71:.\Generated_Source\PSoC4/I2C_SCBCLK.c **** {
  72:.\Generated_Source\PSoC4/I2C_SCBCLK.c ****     /* Set the bit to enable the clock. */
  73:.\Generated_Source\PSoC4/I2C_SCBCLK.c ****     I2C_SCBCLK_ENABLE_REG |= I2C_SCBCLK__ENABLE_MASK;
  74:.\Generated_Source\PSoC4/I2C_SCBCLK.c **** }
  75:.\Generated_Source\PSoC4/I2C_SCBCLK.c **** 
  76:.\Generated_Source\PSoC4/I2C_SCBCLK.c **** #endif /* CYREG_PERI_DIV_CMD */
  77:.\Generated_Source\PSoC4/I2C_SCBCLK.c **** 
  78:.\Generated_Source\PSoC4/I2C_SCBCLK.c **** 
  79:.\Generated_Source\PSoC4/I2C_SCBCLK.c **** /*******************************************************************************
  80:.\Generated_Source\PSoC4/I2C_SCBCLK.c **** * Function Name: I2C_SCBCLK_Stop
  81:.\Generated_Source\PSoC4/I2C_SCBCLK.c **** ********************************************************************************
  82:.\Generated_Source\PSoC4/I2C_SCBCLK.c **** *
  83:.\Generated_Source\PSoC4/I2C_SCBCLK.c **** * Summary:
  84:.\Generated_Source\PSoC4/I2C_SCBCLK.c **** *  Stops the clock and returns immediately. This API does not require the
  85:.\Generated_Source\PSoC4/I2C_SCBCLK.c **** *  source clock to be running but may return before the hardware is actually
  86:.\Generated_Source\PSoC4/I2C_SCBCLK.c **** *  disabled.
  87:.\Generated_Source\PSoC4/I2C_SCBCLK.c **** *
  88:.\Generated_Source\PSoC4/I2C_SCBCLK.c **** * Parameters:
  89:.\Generated_Source\PSoC4/I2C_SCBCLK.c **** *  None
  90:.\Generated_Source\PSoC4/I2C_SCBCLK.c **** *
  91:.\Generated_Source\PSoC4/I2C_SCBCLK.c **** * Returns:
  92:.\Generated_Source\PSoC4/I2C_SCBCLK.c **** *  None
  93:.\Generated_Source\PSoC4/I2C_SCBCLK.c **** *
  94:.\Generated_Source\PSoC4/I2C_SCBCLK.c **** *******************************************************************************/
  95:.\Generated_Source\PSoC4/I2C_SCBCLK.c **** void I2C_SCBCLK_Stop(void)
  96:.\Generated_Source\PSoC4/I2C_SCBCLK.c **** {
  63              		.loc 1 96 0
  64              		.cfi_startproc
  97:.\Generated_Source\PSoC4/I2C_SCBCLK.c **** #if defined CYREG_PERI_DIV_CMD
  98:.\Generated_Source\PSoC4/I2C_SCBCLK.c **** 
  99:.\Generated_Source\PSoC4/I2C_SCBCLK.c ****     /* Make sure any previous start command has finished. */
 100:.\Generated_Source\PSoC4/I2C_SCBCLK.c ****     while((I2C_SCBCLK_CMD_REG & I2C_SCBCLK_CMD_ENABLE_MASK) != 0u)
  65              		.loc 1 100 0
  66 0000 034A     		ldr	r2, .L9
  67              	.L7:
  68              		.loc 1 100 0 is_stmt 0 discriminator 1
  69 0002 1368     		ldr	r3, [r2]
  70 0004 002B     		cmp	r3, #0
ARM GAS  C:\Users\JOHNSO~1\AppData\Local\Temp\ccZXYwgB.s 			page 4


  71 0006 FCDB     		blt	.L7
 101:.\Generated_Source\PSoC4/I2C_SCBCLK.c ****     {
 102:.\Generated_Source\PSoC4/I2C_SCBCLK.c ****     }
 103:.\Generated_Source\PSoC4/I2C_SCBCLK.c ****     
 104:.\Generated_Source\PSoC4/I2C_SCBCLK.c ****     /* Specify the target divider and it's alignment divider, and disable. */
 105:.\Generated_Source\PSoC4/I2C_SCBCLK.c ****     I2C_SCBCLK_CMD_REG =
  72              		.loc 1 105 0 is_stmt 1
  73 0008 024A     		ldr	r2, .L9+4
  74 000a 014B     		ldr	r3, .L9
  75 000c 1A60     		str	r2, [r3]
 106:.\Generated_Source\PSoC4/I2C_SCBCLK.c ****         ((uint32)I2C_SCBCLK__DIV_ID << I2C_SCBCLK_CMD_DIV_SHIFT)|
 107:.\Generated_Source\PSoC4/I2C_SCBCLK.c ****         ((uint32)I2C_SCBCLK_CMD_DISABLE_MASK);
 108:.\Generated_Source\PSoC4/I2C_SCBCLK.c **** 
 109:.\Generated_Source\PSoC4/I2C_SCBCLK.c **** #else
 110:.\Generated_Source\PSoC4/I2C_SCBCLK.c **** 
 111:.\Generated_Source\PSoC4/I2C_SCBCLK.c ****     /* Clear the bit to disable the clock. */
 112:.\Generated_Source\PSoC4/I2C_SCBCLK.c ****     I2C_SCBCLK_ENABLE_REG &= (uint32)(~I2C_SCBCLK__ENABLE_MASK);
 113:.\Generated_Source\PSoC4/I2C_SCBCLK.c ****     
 114:.\Generated_Source\PSoC4/I2C_SCBCLK.c **** #endif /* CYREG_PERI_DIV_CMD */
 115:.\Generated_Source\PSoC4/I2C_SCBCLK.c **** }
  76              		.loc 1 115 0
  77              		@ sp needed
  78 000e 7047     		bx	lr
  79              	.L10:
  80              		.align	2
  81              	.L9:
  82 0010 00000140 		.word	1073807360
  83 0014 42000040 		.word	1073741890
  84              		.cfi_endproc
  85              	.LFE1:
  86              		.size	I2C_SCBCLK_Stop, .-I2C_SCBCLK_Stop
  87              		.section	.text.I2C_SCBCLK_SetFractionalDividerRegister,"ax",%progbits
  88              		.align	2
  89              		.global	I2C_SCBCLK_SetFractionalDividerRegister
  90              		.code	16
  91              		.thumb_func
  92              		.type	I2C_SCBCLK_SetFractionalDividerRegister, %function
  93              	I2C_SCBCLK_SetFractionalDividerRegister:
  94              	.LFB2:
 116:.\Generated_Source\PSoC4/I2C_SCBCLK.c **** 
 117:.\Generated_Source\PSoC4/I2C_SCBCLK.c **** 
 118:.\Generated_Source\PSoC4/I2C_SCBCLK.c **** /*******************************************************************************
 119:.\Generated_Source\PSoC4/I2C_SCBCLK.c **** * Function Name: I2C_SCBCLK_SetFractionalDividerRegister
 120:.\Generated_Source\PSoC4/I2C_SCBCLK.c **** ********************************************************************************
 121:.\Generated_Source\PSoC4/I2C_SCBCLK.c **** *
 122:.\Generated_Source\PSoC4/I2C_SCBCLK.c **** * Summary:
 123:.\Generated_Source\PSoC4/I2C_SCBCLK.c **** *  Modifies the clock divider and the fractional divider.
 124:.\Generated_Source\PSoC4/I2C_SCBCLK.c **** *
 125:.\Generated_Source\PSoC4/I2C_SCBCLK.c **** * Parameters:
 126:.\Generated_Source\PSoC4/I2C_SCBCLK.c **** *  clkDivider:  Divider register value (0-65535). This value is NOT the
 127:.\Generated_Source\PSoC4/I2C_SCBCLK.c **** *    divider; the clock hardware divides by clkDivider plus one. For example,
 128:.\Generated_Source\PSoC4/I2C_SCBCLK.c **** *    to divide the clock by 2, this parameter should be set to 1.
 129:.\Generated_Source\PSoC4/I2C_SCBCLK.c **** *  fracDivider:  Fractional Divider register value (0-31).
 130:.\Generated_Source\PSoC4/I2C_SCBCLK.c **** * Returns:
 131:.\Generated_Source\PSoC4/I2C_SCBCLK.c **** *  None
 132:.\Generated_Source\PSoC4/I2C_SCBCLK.c **** *
 133:.\Generated_Source\PSoC4/I2C_SCBCLK.c **** *******************************************************************************/
ARM GAS  C:\Users\JOHNSO~1\AppData\Local\Temp\ccZXYwgB.s 			page 5


 134:.\Generated_Source\PSoC4/I2C_SCBCLK.c **** void I2C_SCBCLK_SetFractionalDividerRegister(uint16 clkDivider, uint8 clkFractional)
 135:.\Generated_Source\PSoC4/I2C_SCBCLK.c **** {
  95              		.loc 1 135 0
  96              		.cfi_startproc
  97              	.LVL2:
  98 0000 10B5     		push	{r4, lr}
  99              		.cfi_def_cfa_offset 8
 100              		.cfi_offset 4, -8
 101              		.cfi_offset 14, -4
 136:.\Generated_Source\PSoC4/I2C_SCBCLK.c ****     uint32 maskVal;
 137:.\Generated_Source\PSoC4/I2C_SCBCLK.c ****     uint32 regVal;
 138:.\Generated_Source\PSoC4/I2C_SCBCLK.c ****     
 139:.\Generated_Source\PSoC4/I2C_SCBCLK.c **** #if defined (I2C_SCBCLK__FRAC_MASK) || defined (CYREG_PERI_DIV_CMD)
 140:.\Generated_Source\PSoC4/I2C_SCBCLK.c ****     
 141:.\Generated_Source\PSoC4/I2C_SCBCLK.c **** 	/* get all but divider bits */
 142:.\Generated_Source\PSoC4/I2C_SCBCLK.c ****     maskVal = I2C_SCBCLK_DIV_REG & 
 102              		.loc 1 142 0
 103 0002 064B     		ldr	r3, .L12
 104 0004 1A68     		ldr	r2, [r3]
 105 0006 0724     		mov	r4, #7
 106 0008 2240     		and	r2, r4
 107              	.LVL3:
 143:.\Generated_Source\PSoC4/I2C_SCBCLK.c ****                     (uint32)(~(uint32)(I2C_SCBCLK_DIV_INT_MASK | I2C_SCBCLK_DIV_FRAC_MASK)); 
 144:.\Generated_Source\PSoC4/I2C_SCBCLK.c **** 	/* combine mask and new divider vals into 32-bit value */
 145:.\Generated_Source\PSoC4/I2C_SCBCLK.c ****     regVal = maskVal |
 146:.\Generated_Source\PSoC4/I2C_SCBCLK.c ****         ((uint32)((uint32)clkDivider <<  I2C_SCBCLK_DIV_INT_SHIFT) & I2C_SCBCLK_DIV_INT_MASK) |
 108              		.loc 1 146 0
 109 000a 0002     		lsl	r0, r0, #8
 110              	.LVL4:
 145:.\Generated_Source\PSoC4/I2C_SCBCLK.c ****     regVal = maskVal |
 111              		.loc 1 145 0
 112 000c 1043     		orr	r0, r2
 147:.\Generated_Source\PSoC4/I2C_SCBCLK.c ****         ((uint32)((uint32)clkFractional << I2C_SCBCLK_DIV_FRAC_SHIFT) & I2C_SCBCLK_DIV_FRAC_MASK);
 113              		.loc 1 147 0
 114 000e C900     		lsl	r1, r1, #3
 115              	.LVL5:
 116 0010 FF22     		mov	r2, #255
 117              	.LVL6:
 118 0012 1140     		and	r1, r2
 145:.\Generated_Source\PSoC4/I2C_SCBCLK.c ****     regVal = maskVal |
 119              		.loc 1 145 0
 120 0014 0843     		orr	r0, r1
 121              	.LVL7:
 148:.\Generated_Source\PSoC4/I2C_SCBCLK.c ****     
 149:.\Generated_Source\PSoC4/I2C_SCBCLK.c **** #else
 150:.\Generated_Source\PSoC4/I2C_SCBCLK.c ****     /* get all but integer divider bits */
 151:.\Generated_Source\PSoC4/I2C_SCBCLK.c ****     maskVal = I2C_SCBCLK_DIV_REG & (uint32)(~(uint32)I2C_SCBCLK__DIVIDER_MASK);
 152:.\Generated_Source\PSoC4/I2C_SCBCLK.c ****     /* combine mask and new divider val into 32-bit value */
 153:.\Generated_Source\PSoC4/I2C_SCBCLK.c ****     regVal = clkDivider | maskVal;
 154:.\Generated_Source\PSoC4/I2C_SCBCLK.c ****     
 155:.\Generated_Source\PSoC4/I2C_SCBCLK.c **** #endif /* I2C_SCBCLK__FRAC_MASK || CYREG_PERI_DIV_CMD */
 156:.\Generated_Source\PSoC4/I2C_SCBCLK.c **** 
 157:.\Generated_Source\PSoC4/I2C_SCBCLK.c ****     I2C_SCBCLK_DIV_REG = regVal;
 122              		.loc 1 157 0
 123 0016 1860     		str	r0, [r3]
 158:.\Generated_Source\PSoC4/I2C_SCBCLK.c **** }
 124              		.loc 1 158 0
ARM GAS  C:\Users\JOHNSO~1\AppData\Local\Temp\ccZXYwgB.s 			page 6


 125              		@ sp needed
 126 0018 10BD     		pop	{r4, pc}
 127              	.L13:
 128 001a C046     		.align	2
 129              	.L12:
 130 001c 08030140 		.word	1073808136
 131              		.cfi_endproc
 132              	.LFE2:
 133              		.size	I2C_SCBCLK_SetFractionalDividerRegister, .-I2C_SCBCLK_SetFractionalDividerRegister
 134              		.section	.text.I2C_SCBCLK_GetDividerRegister,"ax",%progbits
 135              		.align	2
 136              		.global	I2C_SCBCLK_GetDividerRegister
 137              		.code	16
 138              		.thumb_func
 139              		.type	I2C_SCBCLK_GetDividerRegister, %function
 140              	I2C_SCBCLK_GetDividerRegister:
 141              	.LFB3:
 159:.\Generated_Source\PSoC4/I2C_SCBCLK.c **** 
 160:.\Generated_Source\PSoC4/I2C_SCBCLK.c **** 
 161:.\Generated_Source\PSoC4/I2C_SCBCLK.c **** /*******************************************************************************
 162:.\Generated_Source\PSoC4/I2C_SCBCLK.c **** * Function Name: I2C_SCBCLK_GetDividerRegister
 163:.\Generated_Source\PSoC4/I2C_SCBCLK.c **** ********************************************************************************
 164:.\Generated_Source\PSoC4/I2C_SCBCLK.c **** *
 165:.\Generated_Source\PSoC4/I2C_SCBCLK.c **** * Summary:
 166:.\Generated_Source\PSoC4/I2C_SCBCLK.c **** *  Gets the clock divider register value.
 167:.\Generated_Source\PSoC4/I2C_SCBCLK.c **** *
 168:.\Generated_Source\PSoC4/I2C_SCBCLK.c **** * Parameters:
 169:.\Generated_Source\PSoC4/I2C_SCBCLK.c **** *  None
 170:.\Generated_Source\PSoC4/I2C_SCBCLK.c **** *
 171:.\Generated_Source\PSoC4/I2C_SCBCLK.c **** * Returns:
 172:.\Generated_Source\PSoC4/I2C_SCBCLK.c **** *  Divide value of the clock minus 1. For example, if the clock is set to
 173:.\Generated_Source\PSoC4/I2C_SCBCLK.c **** *  divide by 2, the return value will be 1.
 174:.\Generated_Source\PSoC4/I2C_SCBCLK.c **** *
 175:.\Generated_Source\PSoC4/I2C_SCBCLK.c **** *******************************************************************************/
 176:.\Generated_Source\PSoC4/I2C_SCBCLK.c **** uint16 I2C_SCBCLK_GetDividerRegister(void)
 177:.\Generated_Source\PSoC4/I2C_SCBCLK.c **** {
 142              		.loc 1 177 0
 143              		.cfi_startproc
 178:.\Generated_Source\PSoC4/I2C_SCBCLK.c ****     return (uint16)((I2C_SCBCLK_DIV_REG & I2C_SCBCLK_DIV_INT_MASK)
 144              		.loc 1 178 0
 145 0000 024B     		ldr	r3, .L15
 146 0002 1868     		ldr	r0, [r3]
 179:.\Generated_Source\PSoC4/I2C_SCBCLK.c ****         >> I2C_SCBCLK_DIV_INT_SHIFT);
 147              		.loc 1 179 0
 148 0004 000A     		lsr	r0, r0, #8
 178:.\Generated_Source\PSoC4/I2C_SCBCLK.c ****     return (uint16)((I2C_SCBCLK_DIV_REG & I2C_SCBCLK_DIV_INT_MASK)
 149              		.loc 1 178 0
 150 0006 80B2     		uxth	r0, r0
 180:.\Generated_Source\PSoC4/I2C_SCBCLK.c **** }
 151              		.loc 1 180 0
 152              		@ sp needed
 153 0008 7047     		bx	lr
 154              	.L16:
 155 000a C046     		.align	2
 156              	.L15:
 157 000c 08030140 		.word	1073808136
 158              		.cfi_endproc
ARM GAS  C:\Users\JOHNSO~1\AppData\Local\Temp\ccZXYwgB.s 			page 7


 159              	.LFE3:
 160              		.size	I2C_SCBCLK_GetDividerRegister, .-I2C_SCBCLK_GetDividerRegister
 161              		.section	.text.I2C_SCBCLK_GetFractionalDividerRegister,"ax",%progbits
 162              		.align	2
 163              		.global	I2C_SCBCLK_GetFractionalDividerRegister
 164              		.code	16
 165              		.thumb_func
 166              		.type	I2C_SCBCLK_GetFractionalDividerRegister, %function
 167              	I2C_SCBCLK_GetFractionalDividerRegister:
 168              	.LFB4:
 181:.\Generated_Source\PSoC4/I2C_SCBCLK.c **** 
 182:.\Generated_Source\PSoC4/I2C_SCBCLK.c **** 
 183:.\Generated_Source\PSoC4/I2C_SCBCLK.c **** /*******************************************************************************
 184:.\Generated_Source\PSoC4/I2C_SCBCLK.c **** * Function Name: I2C_SCBCLK_GetFractionalDividerRegister
 185:.\Generated_Source\PSoC4/I2C_SCBCLK.c **** ********************************************************************************
 186:.\Generated_Source\PSoC4/I2C_SCBCLK.c **** *
 187:.\Generated_Source\PSoC4/I2C_SCBCLK.c **** * Summary:
 188:.\Generated_Source\PSoC4/I2C_SCBCLK.c **** *  Gets the clock fractional divider register value.
 189:.\Generated_Source\PSoC4/I2C_SCBCLK.c **** *
 190:.\Generated_Source\PSoC4/I2C_SCBCLK.c **** * Parameters:
 191:.\Generated_Source\PSoC4/I2C_SCBCLK.c **** *  None
 192:.\Generated_Source\PSoC4/I2C_SCBCLK.c **** *
 193:.\Generated_Source\PSoC4/I2C_SCBCLK.c **** * Returns:
 194:.\Generated_Source\PSoC4/I2C_SCBCLK.c **** *  Fractional Divide value of the clock
 195:.\Generated_Source\PSoC4/I2C_SCBCLK.c **** *  0 if the fractional divider is not in use.
 196:.\Generated_Source\PSoC4/I2C_SCBCLK.c **** *
 197:.\Generated_Source\PSoC4/I2C_SCBCLK.c **** *******************************************************************************/
 198:.\Generated_Source\PSoC4/I2C_SCBCLK.c **** uint8 I2C_SCBCLK_GetFractionalDividerRegister(void)
 199:.\Generated_Source\PSoC4/I2C_SCBCLK.c **** {
 169              		.loc 1 199 0
 170              		.cfi_startproc
 200:.\Generated_Source\PSoC4/I2C_SCBCLK.c **** #if defined (I2C_SCBCLK__FRAC_MASK)
 201:.\Generated_Source\PSoC4/I2C_SCBCLK.c ****     /* return fractional divider bits */
 202:.\Generated_Source\PSoC4/I2C_SCBCLK.c ****     return (uint8)((I2C_SCBCLK_DIV_REG & I2C_SCBCLK_DIV_FRAC_MASK)
 203:.\Generated_Source\PSoC4/I2C_SCBCLK.c ****         >> I2C_SCBCLK_DIV_FRAC_SHIFT);
 204:.\Generated_Source\PSoC4/I2C_SCBCLK.c **** #else
 205:.\Generated_Source\PSoC4/I2C_SCBCLK.c ****     return 0u;
 206:.\Generated_Source\PSoC4/I2C_SCBCLK.c **** #endif /* I2C_SCBCLK__FRAC_MASK */
 207:.\Generated_Source\PSoC4/I2C_SCBCLK.c **** }
 171              		.loc 1 207 0
 172 0000 0020     		mov	r0, #0
 173              		@ sp needed
 174 0002 7047     		bx	lr
 175              		.cfi_endproc
 176              	.LFE4:
 177              		.size	I2C_SCBCLK_GetFractionalDividerRegister, .-I2C_SCBCLK_GetFractionalDividerRegister
 178              		.text
 179              	.Letext0:
 180              		.file 2 "Generated_Source\\PSoC4/cytypes.h"
