ARM GAS  C:\Users\JOHNSO~1\AppData\Local\Temp\ccGqWBaL.s 			page 1


   1              		.cpu cortex-m0
   2              		.fpu softvfp
   3              		.eabi_attribute 20, 1
   4              		.eabi_attribute 21, 1
   5              		.eabi_attribute 23, 3
   6              		.eabi_attribute 24, 1
   7              		.eabi_attribute 25, 1
   8              		.eabi_attribute 26, 1
   9              		.eabi_attribute 30, 1
  10              		.eabi_attribute 34, 0
  11              		.eabi_attribute 18, 4
  12              		.code	16
  13              		.file	"Input_1_Int.c"
  14              		.text
  15              	.Ltext0:
  16              		.cfi_sections	.debug_frame
  17              		.section	.text.Input_1_Int_Interrupt,"ax",%progbits
  18              		.align	2
  19              		.global	Input_1_Int_Interrupt
  20              		.code	16
  21              		.thumb_func
  22              		.type	Input_1_Int_Interrupt, %function
  23              	Input_1_Int_Interrupt:
  24              	.LFB5:
  25              		.file 1 ".\\Generated_Source\\PSoC4\\Input_1_Int.c"
   1:.\Generated_Source\PSoC4/Input_1_Int.c **** /*******************************************************************************
   2:.\Generated_Source\PSoC4/Input_1_Int.c **** * File Name: Input_1_Int.c  
   3:.\Generated_Source\PSoC4/Input_1_Int.c **** * Version 1.70
   4:.\Generated_Source\PSoC4/Input_1_Int.c **** *
   5:.\Generated_Source\PSoC4/Input_1_Int.c **** *  Description:
   6:.\Generated_Source\PSoC4/Input_1_Int.c **** *   API for controlling the state of an interrupt.
   7:.\Generated_Source\PSoC4/Input_1_Int.c **** *
   8:.\Generated_Source\PSoC4/Input_1_Int.c **** *
   9:.\Generated_Source\PSoC4/Input_1_Int.c **** *  Note:
  10:.\Generated_Source\PSoC4/Input_1_Int.c **** *
  11:.\Generated_Source\PSoC4/Input_1_Int.c **** ********************************************************************************
  12:.\Generated_Source\PSoC4/Input_1_Int.c **** * Copyright 2008-2015, Cypress Semiconductor Corporation.  All rights reserved.
  13:.\Generated_Source\PSoC4/Input_1_Int.c **** * You may use this file only in accordance with the license, terms, conditions, 
  14:.\Generated_Source\PSoC4/Input_1_Int.c **** * disclaimers, and limitations in the end user license agreement accompanying 
  15:.\Generated_Source\PSoC4/Input_1_Int.c **** * the software package with which this file was provided.
  16:.\Generated_Source\PSoC4/Input_1_Int.c **** *******************************************************************************/
  17:.\Generated_Source\PSoC4/Input_1_Int.c **** 
  18:.\Generated_Source\PSoC4/Input_1_Int.c **** 
  19:.\Generated_Source\PSoC4/Input_1_Int.c **** #include <cydevice_trm.h>
  20:.\Generated_Source\PSoC4/Input_1_Int.c **** #include <CyLib.h>
  21:.\Generated_Source\PSoC4/Input_1_Int.c **** #include <Input_1_Int.h>
  22:.\Generated_Source\PSoC4/Input_1_Int.c **** 
  23:.\Generated_Source\PSoC4/Input_1_Int.c **** #if !defined(Input_1_Int__REMOVED) /* Check for removal by optimization */
  24:.\Generated_Source\PSoC4/Input_1_Int.c **** 
  25:.\Generated_Source\PSoC4/Input_1_Int.c **** /*******************************************************************************
  26:.\Generated_Source\PSoC4/Input_1_Int.c **** *  Place your includes, defines and code here 
  27:.\Generated_Source\PSoC4/Input_1_Int.c **** ********************************************************************************/
  28:.\Generated_Source\PSoC4/Input_1_Int.c **** /* `#START Input_1_Int_intc` */
  29:.\Generated_Source\PSoC4/Input_1_Int.c **** 
  30:.\Generated_Source\PSoC4/Input_1_Int.c **** /* `#END` */
  31:.\Generated_Source\PSoC4/Input_1_Int.c **** 
  32:.\Generated_Source\PSoC4/Input_1_Int.c **** extern cyisraddress CyRamVectors[CYINT_IRQ_BASE + CY_NUM_INTERRUPTS];
ARM GAS  C:\Users\JOHNSO~1\AppData\Local\Temp\ccGqWBaL.s 			page 2


  33:.\Generated_Source\PSoC4/Input_1_Int.c **** 
  34:.\Generated_Source\PSoC4/Input_1_Int.c **** /* Declared in startup, used to set unused interrupts to. */
  35:.\Generated_Source\PSoC4/Input_1_Int.c **** CY_ISR_PROTO(IntDefaultHandler);
  36:.\Generated_Source\PSoC4/Input_1_Int.c **** 
  37:.\Generated_Source\PSoC4/Input_1_Int.c **** 
  38:.\Generated_Source\PSoC4/Input_1_Int.c **** /*******************************************************************************
  39:.\Generated_Source\PSoC4/Input_1_Int.c **** * Function Name: Input_1_Int_Start
  40:.\Generated_Source\PSoC4/Input_1_Int.c **** ********************************************************************************
  41:.\Generated_Source\PSoC4/Input_1_Int.c **** *
  42:.\Generated_Source\PSoC4/Input_1_Int.c **** * Summary:
  43:.\Generated_Source\PSoC4/Input_1_Int.c **** *  Set up the interrupt and enable it. This function disables the interrupt, 
  44:.\Generated_Source\PSoC4/Input_1_Int.c **** *  sets the default interrupt vector, sets the priority from the value in the
  45:.\Generated_Source\PSoC4/Input_1_Int.c **** *  Design Wide Resources Interrupt Editor, then enables the interrupt to the 
  46:.\Generated_Source\PSoC4/Input_1_Int.c **** *  interrupt controller.
  47:.\Generated_Source\PSoC4/Input_1_Int.c **** *
  48:.\Generated_Source\PSoC4/Input_1_Int.c **** * Parameters:  
  49:.\Generated_Source\PSoC4/Input_1_Int.c **** *   None
  50:.\Generated_Source\PSoC4/Input_1_Int.c **** *
  51:.\Generated_Source\PSoC4/Input_1_Int.c **** * Return:
  52:.\Generated_Source\PSoC4/Input_1_Int.c **** *   None
  53:.\Generated_Source\PSoC4/Input_1_Int.c **** *
  54:.\Generated_Source\PSoC4/Input_1_Int.c **** *******************************************************************************/
  55:.\Generated_Source\PSoC4/Input_1_Int.c **** void Input_1_Int_Start(void)
  56:.\Generated_Source\PSoC4/Input_1_Int.c **** {
  57:.\Generated_Source\PSoC4/Input_1_Int.c ****     /* For all we know the interrupt is active. */
  58:.\Generated_Source\PSoC4/Input_1_Int.c ****     Input_1_Int_Disable();
  59:.\Generated_Source\PSoC4/Input_1_Int.c **** 
  60:.\Generated_Source\PSoC4/Input_1_Int.c ****     /* Set the ISR to point to the Input_1_Int Interrupt. */
  61:.\Generated_Source\PSoC4/Input_1_Int.c ****     Input_1_Int_SetVector(&Input_1_Int_Interrupt);
  62:.\Generated_Source\PSoC4/Input_1_Int.c **** 
  63:.\Generated_Source\PSoC4/Input_1_Int.c ****     /* Set the priority. */
  64:.\Generated_Source\PSoC4/Input_1_Int.c ****     Input_1_Int_SetPriority((uint8)Input_1_Int_INTC_PRIOR_NUMBER);
  65:.\Generated_Source\PSoC4/Input_1_Int.c **** 
  66:.\Generated_Source\PSoC4/Input_1_Int.c ****     /* Enable it. */
  67:.\Generated_Source\PSoC4/Input_1_Int.c ****     Input_1_Int_Enable();
  68:.\Generated_Source\PSoC4/Input_1_Int.c **** }
  69:.\Generated_Source\PSoC4/Input_1_Int.c **** 
  70:.\Generated_Source\PSoC4/Input_1_Int.c **** 
  71:.\Generated_Source\PSoC4/Input_1_Int.c **** /*******************************************************************************
  72:.\Generated_Source\PSoC4/Input_1_Int.c **** * Function Name: Input_1_Int_StartEx
  73:.\Generated_Source\PSoC4/Input_1_Int.c **** ********************************************************************************
  74:.\Generated_Source\PSoC4/Input_1_Int.c **** *
  75:.\Generated_Source\PSoC4/Input_1_Int.c **** * Summary:
  76:.\Generated_Source\PSoC4/Input_1_Int.c **** *  Sets up the interrupt and enables it. This function disables the interrupt,
  77:.\Generated_Source\PSoC4/Input_1_Int.c **** *  sets the interrupt vector based on the address passed in, sets the priority 
  78:.\Generated_Source\PSoC4/Input_1_Int.c **** *  from the value in the Design Wide Resources Interrupt Editor, then enables 
  79:.\Generated_Source\PSoC4/Input_1_Int.c **** *  the interrupt to the interrupt controller.
  80:.\Generated_Source\PSoC4/Input_1_Int.c **** *  
  81:.\Generated_Source\PSoC4/Input_1_Int.c **** *  When defining ISR functions, the CY_ISR and CY_ISR_PROTO macros should be 
  82:.\Generated_Source\PSoC4/Input_1_Int.c **** *  used to provide consistent definition across compilers:
  83:.\Generated_Source\PSoC4/Input_1_Int.c **** *  
  84:.\Generated_Source\PSoC4/Input_1_Int.c **** *  Function definition example:
  85:.\Generated_Source\PSoC4/Input_1_Int.c **** *   CY_ISR(MyISR)
  86:.\Generated_Source\PSoC4/Input_1_Int.c **** *   {
  87:.\Generated_Source\PSoC4/Input_1_Int.c **** *   }
  88:.\Generated_Source\PSoC4/Input_1_Int.c **** *   Function prototype example:
  89:.\Generated_Source\PSoC4/Input_1_Int.c **** *   CY_ISR_PROTO(MyISR);
ARM GAS  C:\Users\JOHNSO~1\AppData\Local\Temp\ccGqWBaL.s 			page 3


  90:.\Generated_Source\PSoC4/Input_1_Int.c **** *
  91:.\Generated_Source\PSoC4/Input_1_Int.c **** * Parameters:  
  92:.\Generated_Source\PSoC4/Input_1_Int.c **** *   address: Address of the ISR to set in the interrupt vector table.
  93:.\Generated_Source\PSoC4/Input_1_Int.c **** *
  94:.\Generated_Source\PSoC4/Input_1_Int.c **** * Return:
  95:.\Generated_Source\PSoC4/Input_1_Int.c **** *   None
  96:.\Generated_Source\PSoC4/Input_1_Int.c **** *
  97:.\Generated_Source\PSoC4/Input_1_Int.c **** *******************************************************************************/
  98:.\Generated_Source\PSoC4/Input_1_Int.c **** void Input_1_Int_StartEx(cyisraddress address)
  99:.\Generated_Source\PSoC4/Input_1_Int.c **** {
 100:.\Generated_Source\PSoC4/Input_1_Int.c ****     /* For all we know the interrupt is active. */
 101:.\Generated_Source\PSoC4/Input_1_Int.c ****     Input_1_Int_Disable();
 102:.\Generated_Source\PSoC4/Input_1_Int.c **** 
 103:.\Generated_Source\PSoC4/Input_1_Int.c ****     /* Set the ISR to point to the Input_1_Int Interrupt. */
 104:.\Generated_Source\PSoC4/Input_1_Int.c ****     Input_1_Int_SetVector(address);
 105:.\Generated_Source\PSoC4/Input_1_Int.c **** 
 106:.\Generated_Source\PSoC4/Input_1_Int.c ****     /* Set the priority. */
 107:.\Generated_Source\PSoC4/Input_1_Int.c ****     Input_1_Int_SetPriority((uint8)Input_1_Int_INTC_PRIOR_NUMBER);
 108:.\Generated_Source\PSoC4/Input_1_Int.c **** 
 109:.\Generated_Source\PSoC4/Input_1_Int.c ****     /* Enable it. */
 110:.\Generated_Source\PSoC4/Input_1_Int.c ****     Input_1_Int_Enable();
 111:.\Generated_Source\PSoC4/Input_1_Int.c **** }
 112:.\Generated_Source\PSoC4/Input_1_Int.c **** 
 113:.\Generated_Source\PSoC4/Input_1_Int.c **** 
 114:.\Generated_Source\PSoC4/Input_1_Int.c **** /*******************************************************************************
 115:.\Generated_Source\PSoC4/Input_1_Int.c **** * Function Name: Input_1_Int_Stop
 116:.\Generated_Source\PSoC4/Input_1_Int.c **** ********************************************************************************
 117:.\Generated_Source\PSoC4/Input_1_Int.c **** *
 118:.\Generated_Source\PSoC4/Input_1_Int.c **** * Summary:
 119:.\Generated_Source\PSoC4/Input_1_Int.c **** *   Disables and removes the interrupt.
 120:.\Generated_Source\PSoC4/Input_1_Int.c **** *
 121:.\Generated_Source\PSoC4/Input_1_Int.c **** * Parameters:  
 122:.\Generated_Source\PSoC4/Input_1_Int.c **** *   None
 123:.\Generated_Source\PSoC4/Input_1_Int.c **** *
 124:.\Generated_Source\PSoC4/Input_1_Int.c **** * Return:
 125:.\Generated_Source\PSoC4/Input_1_Int.c **** *   None
 126:.\Generated_Source\PSoC4/Input_1_Int.c **** *
 127:.\Generated_Source\PSoC4/Input_1_Int.c **** *******************************************************************************/
 128:.\Generated_Source\PSoC4/Input_1_Int.c **** void Input_1_Int_Stop(void)
 129:.\Generated_Source\PSoC4/Input_1_Int.c **** {
 130:.\Generated_Source\PSoC4/Input_1_Int.c ****     /* Disable this interrupt. */
 131:.\Generated_Source\PSoC4/Input_1_Int.c ****     Input_1_Int_Disable();
 132:.\Generated_Source\PSoC4/Input_1_Int.c **** 
 133:.\Generated_Source\PSoC4/Input_1_Int.c ****     /* Set the ISR to point to the passive one. */
 134:.\Generated_Source\PSoC4/Input_1_Int.c ****     Input_1_Int_SetVector(&IntDefaultHandler);
 135:.\Generated_Source\PSoC4/Input_1_Int.c **** }
 136:.\Generated_Source\PSoC4/Input_1_Int.c **** 
 137:.\Generated_Source\PSoC4/Input_1_Int.c **** 
 138:.\Generated_Source\PSoC4/Input_1_Int.c **** /*******************************************************************************
 139:.\Generated_Source\PSoC4/Input_1_Int.c **** * Function Name: Input_1_Int_Interrupt
 140:.\Generated_Source\PSoC4/Input_1_Int.c **** ********************************************************************************
 141:.\Generated_Source\PSoC4/Input_1_Int.c **** *
 142:.\Generated_Source\PSoC4/Input_1_Int.c **** * Summary:
 143:.\Generated_Source\PSoC4/Input_1_Int.c **** *   The default Interrupt Service Routine for Input_1_Int.
 144:.\Generated_Source\PSoC4/Input_1_Int.c **** *
 145:.\Generated_Source\PSoC4/Input_1_Int.c **** *   Add custom code between the START and END comments to keep the next version
 146:.\Generated_Source\PSoC4/Input_1_Int.c **** *   of this file from over-writing your code.
ARM GAS  C:\Users\JOHNSO~1\AppData\Local\Temp\ccGqWBaL.s 			page 4


 147:.\Generated_Source\PSoC4/Input_1_Int.c **** *
 148:.\Generated_Source\PSoC4/Input_1_Int.c **** *   Note You may use either the default ISR by using this API, or you may define
 149:.\Generated_Source\PSoC4/Input_1_Int.c **** *   your own separate ISR through ISR_StartEx().
 150:.\Generated_Source\PSoC4/Input_1_Int.c **** *
 151:.\Generated_Source\PSoC4/Input_1_Int.c **** * Parameters:  
 152:.\Generated_Source\PSoC4/Input_1_Int.c **** *   None
 153:.\Generated_Source\PSoC4/Input_1_Int.c **** *
 154:.\Generated_Source\PSoC4/Input_1_Int.c **** * Return:
 155:.\Generated_Source\PSoC4/Input_1_Int.c **** *   None
 156:.\Generated_Source\PSoC4/Input_1_Int.c **** *
 157:.\Generated_Source\PSoC4/Input_1_Int.c **** *******************************************************************************/
 158:.\Generated_Source\PSoC4/Input_1_Int.c **** CY_ISR(Input_1_Int_Interrupt)
 159:.\Generated_Source\PSoC4/Input_1_Int.c **** {
  26              		.loc 1 159 0
  27              		.cfi_startproc
 160:.\Generated_Source\PSoC4/Input_1_Int.c ****     /*  Place your Interrupt code here. */
 161:.\Generated_Source\PSoC4/Input_1_Int.c ****     /* `#START Input_1_Int_Interrupt` */
 162:.\Generated_Source\PSoC4/Input_1_Int.c **** 
 163:.\Generated_Source\PSoC4/Input_1_Int.c ****     /* `#END` */
 164:.\Generated_Source\PSoC4/Input_1_Int.c **** }
  28              		.loc 1 164 0
  29              		@ sp needed
  30 0000 7047     		bx	lr
  31              		.cfi_endproc
  32              	.LFE5:
  33              		.size	Input_1_Int_Interrupt, .-Input_1_Int_Interrupt
  34 0002 C046     		.section	.text.Input_1_Int_SetVector,"ax",%progbits
  35              		.align	2
  36              		.global	Input_1_Int_SetVector
  37              		.code	16
  38              		.thumb_func
  39              		.type	Input_1_Int_SetVector, %function
  40              	Input_1_Int_SetVector:
  41              	.LFB6:
 165:.\Generated_Source\PSoC4/Input_1_Int.c **** 
 166:.\Generated_Source\PSoC4/Input_1_Int.c **** 
 167:.\Generated_Source\PSoC4/Input_1_Int.c **** /*******************************************************************************
 168:.\Generated_Source\PSoC4/Input_1_Int.c **** * Function Name: Input_1_Int_SetVector
 169:.\Generated_Source\PSoC4/Input_1_Int.c **** ********************************************************************************
 170:.\Generated_Source\PSoC4/Input_1_Int.c **** *
 171:.\Generated_Source\PSoC4/Input_1_Int.c **** * Summary:
 172:.\Generated_Source\PSoC4/Input_1_Int.c **** *   Change the ISR vector for the Interrupt. Note calling Input_1_Int_Start
 173:.\Generated_Source\PSoC4/Input_1_Int.c **** *   will override any effect this method would have had. To set the vector 
 174:.\Generated_Source\PSoC4/Input_1_Int.c **** *   before the component has been started use Input_1_Int_StartEx instead.
 175:.\Generated_Source\PSoC4/Input_1_Int.c **** * 
 176:.\Generated_Source\PSoC4/Input_1_Int.c **** *   When defining ISR functions, the CY_ISR and CY_ISR_PROTO macros should be 
 177:.\Generated_Source\PSoC4/Input_1_Int.c **** *   used to provide consistent definition across compilers:
 178:.\Generated_Source\PSoC4/Input_1_Int.c **** *
 179:.\Generated_Source\PSoC4/Input_1_Int.c **** *   Function definition example:
 180:.\Generated_Source\PSoC4/Input_1_Int.c **** *   CY_ISR(MyISR)
 181:.\Generated_Source\PSoC4/Input_1_Int.c **** *   {
 182:.\Generated_Source\PSoC4/Input_1_Int.c **** *   }
 183:.\Generated_Source\PSoC4/Input_1_Int.c **** *
 184:.\Generated_Source\PSoC4/Input_1_Int.c **** *   Function prototype example:
 185:.\Generated_Source\PSoC4/Input_1_Int.c **** *     CY_ISR_PROTO(MyISR);
 186:.\Generated_Source\PSoC4/Input_1_Int.c **** *
 187:.\Generated_Source\PSoC4/Input_1_Int.c **** * Parameters:
ARM GAS  C:\Users\JOHNSO~1\AppData\Local\Temp\ccGqWBaL.s 			page 5


 188:.\Generated_Source\PSoC4/Input_1_Int.c **** *   address: Address of the ISR to set in the interrupt vector table.
 189:.\Generated_Source\PSoC4/Input_1_Int.c **** *
 190:.\Generated_Source\PSoC4/Input_1_Int.c **** * Return:
 191:.\Generated_Source\PSoC4/Input_1_Int.c **** *   None
 192:.\Generated_Source\PSoC4/Input_1_Int.c **** *
 193:.\Generated_Source\PSoC4/Input_1_Int.c **** *******************************************************************************/
 194:.\Generated_Source\PSoC4/Input_1_Int.c **** void Input_1_Int_SetVector(cyisraddress address)
 195:.\Generated_Source\PSoC4/Input_1_Int.c **** {
  42              		.loc 1 195 0
  43              		.cfi_startproc
  44              	.LVL0:
 196:.\Generated_Source\PSoC4/Input_1_Int.c ****     CyRamVectors[CYINT_IRQ_BASE + Input_1_Int__INTC_NUMBER] = address;
  45              		.loc 1 196 0
  46 0000 014B     		ldr	r3, .L3
  47 0002 9864     		str	r0, [r3, #72]
 197:.\Generated_Source\PSoC4/Input_1_Int.c **** }
  48              		.loc 1 197 0
  49              		@ sp needed
  50 0004 7047     		bx	lr
  51              	.L4:
  52 0006 C046     		.align	2
  53              	.L3:
  54 0008 00000000 		.word	CyRamVectors
  55              		.cfi_endproc
  56              	.LFE6:
  57              		.size	Input_1_Int_SetVector, .-Input_1_Int_SetVector
  58              		.section	.text.Input_1_Int_GetVector,"ax",%progbits
  59              		.align	2
  60              		.global	Input_1_Int_GetVector
  61              		.code	16
  62              		.thumb_func
  63              		.type	Input_1_Int_GetVector, %function
  64              	Input_1_Int_GetVector:
  65              	.LFB7:
 198:.\Generated_Source\PSoC4/Input_1_Int.c **** 
 199:.\Generated_Source\PSoC4/Input_1_Int.c **** 
 200:.\Generated_Source\PSoC4/Input_1_Int.c **** /*******************************************************************************
 201:.\Generated_Source\PSoC4/Input_1_Int.c **** * Function Name: Input_1_Int_GetVector
 202:.\Generated_Source\PSoC4/Input_1_Int.c **** ********************************************************************************
 203:.\Generated_Source\PSoC4/Input_1_Int.c **** *
 204:.\Generated_Source\PSoC4/Input_1_Int.c **** * Summary:
 205:.\Generated_Source\PSoC4/Input_1_Int.c **** *   Gets the "address" of the current ISR vector for the Interrupt.
 206:.\Generated_Source\PSoC4/Input_1_Int.c **** *
 207:.\Generated_Source\PSoC4/Input_1_Int.c **** * Parameters:
 208:.\Generated_Source\PSoC4/Input_1_Int.c **** *   None
 209:.\Generated_Source\PSoC4/Input_1_Int.c **** *
 210:.\Generated_Source\PSoC4/Input_1_Int.c **** * Return:
 211:.\Generated_Source\PSoC4/Input_1_Int.c **** *   Address of the ISR in the interrupt vector table.
 212:.\Generated_Source\PSoC4/Input_1_Int.c **** *
 213:.\Generated_Source\PSoC4/Input_1_Int.c **** *******************************************************************************/
 214:.\Generated_Source\PSoC4/Input_1_Int.c **** cyisraddress Input_1_Int_GetVector(void)
 215:.\Generated_Source\PSoC4/Input_1_Int.c **** {
  66              		.loc 1 215 0
  67              		.cfi_startproc
 216:.\Generated_Source\PSoC4/Input_1_Int.c ****     return CyRamVectors[CYINT_IRQ_BASE + Input_1_Int__INTC_NUMBER];
  68              		.loc 1 216 0
  69 0000 014B     		ldr	r3, .L6
ARM GAS  C:\Users\JOHNSO~1\AppData\Local\Temp\ccGqWBaL.s 			page 6


  70 0002 986C     		ldr	r0, [r3, #72]
 217:.\Generated_Source\PSoC4/Input_1_Int.c **** }
  71              		.loc 1 217 0
  72              		@ sp needed
  73 0004 7047     		bx	lr
  74              	.L7:
  75 0006 C046     		.align	2
  76              	.L6:
  77 0008 00000000 		.word	CyRamVectors
  78              		.cfi_endproc
  79              	.LFE7:
  80              		.size	Input_1_Int_GetVector, .-Input_1_Int_GetVector
  81              		.section	.text.Input_1_Int_SetPriority,"ax",%progbits
  82              		.align	2
  83              		.global	Input_1_Int_SetPriority
  84              		.code	16
  85              		.thumb_func
  86              		.type	Input_1_Int_SetPriority, %function
  87              	Input_1_Int_SetPriority:
  88              	.LFB8:
 218:.\Generated_Source\PSoC4/Input_1_Int.c **** 
 219:.\Generated_Source\PSoC4/Input_1_Int.c **** 
 220:.\Generated_Source\PSoC4/Input_1_Int.c **** /*******************************************************************************
 221:.\Generated_Source\PSoC4/Input_1_Int.c **** * Function Name: Input_1_Int_SetPriority
 222:.\Generated_Source\PSoC4/Input_1_Int.c **** ********************************************************************************
 223:.\Generated_Source\PSoC4/Input_1_Int.c **** *
 224:.\Generated_Source\PSoC4/Input_1_Int.c **** * Summary:
 225:.\Generated_Source\PSoC4/Input_1_Int.c **** *   Sets the Priority of the Interrupt. 
 226:.\Generated_Source\PSoC4/Input_1_Int.c **** *
 227:.\Generated_Source\PSoC4/Input_1_Int.c **** *   Note calling Input_1_Int_Start or Input_1_Int_StartEx will 
 228:.\Generated_Source\PSoC4/Input_1_Int.c **** *   override any effect this API would have had. This API should only be called
 229:.\Generated_Source\PSoC4/Input_1_Int.c **** *   after Input_1_Int_Start or Input_1_Int_StartEx has been called. 
 230:.\Generated_Source\PSoC4/Input_1_Int.c **** *   To set the initial priority for the component, use the Design-Wide Resources
 231:.\Generated_Source\PSoC4/Input_1_Int.c **** *   Interrupt Editor.
 232:.\Generated_Source\PSoC4/Input_1_Int.c **** *
 233:.\Generated_Source\PSoC4/Input_1_Int.c **** *   Note This API has no effect on Non-maskable interrupt NMI).
 234:.\Generated_Source\PSoC4/Input_1_Int.c **** *
 235:.\Generated_Source\PSoC4/Input_1_Int.c **** * Parameters:
 236:.\Generated_Source\PSoC4/Input_1_Int.c **** *   priority: Priority of the interrupt, 0 being the highest priority
 237:.\Generated_Source\PSoC4/Input_1_Int.c **** *             PSoC 3 and PSoC 5LP: Priority is from 0 to 7.
 238:.\Generated_Source\PSoC4/Input_1_Int.c **** *             PSoC 4: Priority is from 0 to 3.
 239:.\Generated_Source\PSoC4/Input_1_Int.c **** *
 240:.\Generated_Source\PSoC4/Input_1_Int.c **** * Return:
 241:.\Generated_Source\PSoC4/Input_1_Int.c **** *   None
 242:.\Generated_Source\PSoC4/Input_1_Int.c **** *
 243:.\Generated_Source\PSoC4/Input_1_Int.c **** *******************************************************************************/
 244:.\Generated_Source\PSoC4/Input_1_Int.c **** void Input_1_Int_SetPriority(uint8 priority)
 245:.\Generated_Source\PSoC4/Input_1_Int.c **** {
  89              		.loc 1 245 0
  90              		.cfi_startproc
  91              	.LVL1:
  92 0000 10B5     		push	{r4, lr}
  93              		.cfi_def_cfa_offset 8
  94              		.cfi_offset 4, -8
  95              		.cfi_offset 14, -4
  96 0002 041C     		mov	r4, r0
  97              	.LVL2:
ARM GAS  C:\Users\JOHNSO~1\AppData\Local\Temp\ccGqWBaL.s 			page 7


 246:.\Generated_Source\PSoC4/Input_1_Int.c **** 	uint8 interruptState;
 247:.\Generated_Source\PSoC4/Input_1_Int.c ****     uint32 priorityOffset = ((Input_1_Int__INTC_NUMBER % 4u) * 8u) + 6u;
 248:.\Generated_Source\PSoC4/Input_1_Int.c ****     
 249:.\Generated_Source\PSoC4/Input_1_Int.c **** 	interruptState = CyEnterCriticalSection();
  98              		.loc 1 249 0
  99 0004 FFF7FEFF 		bl	CyEnterCriticalSection
 100              	.LVL3:
 250:.\Generated_Source\PSoC4/Input_1_Int.c ****     *Input_1_Int_INTC_PRIOR = (*Input_1_Int_INTC_PRIOR & (uint32)(~Input_1_Int__INTC_PRIOR_MASK)) |
 101              		.loc 1 250 0
 102 0008 054B     		ldr	r3, .L9
 103 000a 1968     		ldr	r1, [r3]
 104 000c 054A     		ldr	r2, .L9+4
 105 000e 1140     		and	r1, r2
 251:.\Generated_Source\PSoC4/Input_1_Int.c ****                                     ((uint32)priority << priorityOffset);
 106              		.loc 1 251 0
 107 0010 A205     		lsl	r2, r4, #22
 250:.\Generated_Source\PSoC4/Input_1_Int.c ****     *Input_1_Int_INTC_PRIOR = (*Input_1_Int_INTC_PRIOR & (uint32)(~Input_1_Int__INTC_PRIOR_MASK)) |
 108              		.loc 1 250 0
 109 0012 0C1C     		mov	r4, r1
 110 0014 1443     		orr	r4, r2
 111 0016 1C60     		str	r4, [r3]
 252:.\Generated_Source\PSoC4/Input_1_Int.c **** 	CyExitCriticalSection(interruptState);
 112              		.loc 1 252 0
 113 0018 FFF7FEFF 		bl	CyExitCriticalSection
 114              	.LVL4:
 253:.\Generated_Source\PSoC4/Input_1_Int.c **** }
 115              		.loc 1 253 0
 116              		@ sp needed
 117 001c 10BD     		pop	{r4, pc}
 118              	.L10:
 119 001e C046     		.align	2
 120              	.L9:
 121 0020 00E400E0 		.word	-536812544
 122 0024 FFFF3FFF 		.word	-12582913
 123              		.cfi_endproc
 124              	.LFE8:
 125              		.size	Input_1_Int_SetPriority, .-Input_1_Int_SetPriority
 126              		.section	.text.Input_1_Int_GetPriority,"ax",%progbits
 127              		.align	2
 128              		.global	Input_1_Int_GetPriority
 129              		.code	16
 130              		.thumb_func
 131              		.type	Input_1_Int_GetPriority, %function
 132              	Input_1_Int_GetPriority:
 133              	.LFB9:
 254:.\Generated_Source\PSoC4/Input_1_Int.c **** 
 255:.\Generated_Source\PSoC4/Input_1_Int.c **** 
 256:.\Generated_Source\PSoC4/Input_1_Int.c **** /*******************************************************************************
 257:.\Generated_Source\PSoC4/Input_1_Int.c **** * Function Name: Input_1_Int_GetPriority
 258:.\Generated_Source\PSoC4/Input_1_Int.c **** ********************************************************************************
 259:.\Generated_Source\PSoC4/Input_1_Int.c **** *
 260:.\Generated_Source\PSoC4/Input_1_Int.c **** * Summary:
 261:.\Generated_Source\PSoC4/Input_1_Int.c **** *   Gets the Priority of the Interrupt.
 262:.\Generated_Source\PSoC4/Input_1_Int.c **** *
 263:.\Generated_Source\PSoC4/Input_1_Int.c **** * Parameters:
 264:.\Generated_Source\PSoC4/Input_1_Int.c **** *   None
 265:.\Generated_Source\PSoC4/Input_1_Int.c **** *
ARM GAS  C:\Users\JOHNSO~1\AppData\Local\Temp\ccGqWBaL.s 			page 8


 266:.\Generated_Source\PSoC4/Input_1_Int.c **** * Return:
 267:.\Generated_Source\PSoC4/Input_1_Int.c **** *   Priority of the interrupt, 0 being the highest priority
 268:.\Generated_Source\PSoC4/Input_1_Int.c **** *    PSoC 3 and PSoC 5LP: Priority is from 0 to 7.
 269:.\Generated_Source\PSoC4/Input_1_Int.c **** *    PSoC 4: Priority is from 0 to 3.
 270:.\Generated_Source\PSoC4/Input_1_Int.c **** *
 271:.\Generated_Source\PSoC4/Input_1_Int.c **** *******************************************************************************/
 272:.\Generated_Source\PSoC4/Input_1_Int.c **** uint8 Input_1_Int_GetPriority(void)
 273:.\Generated_Source\PSoC4/Input_1_Int.c **** {
 134              		.loc 1 273 0
 135              		.cfi_startproc
 136              	.LVL5:
 274:.\Generated_Source\PSoC4/Input_1_Int.c ****     uint32 priority;
 275:.\Generated_Source\PSoC4/Input_1_Int.c **** 	uint32 priorityOffset = ((Input_1_Int__INTC_NUMBER % 4u) * 8u) + 6u;
 276:.\Generated_Source\PSoC4/Input_1_Int.c **** 
 277:.\Generated_Source\PSoC4/Input_1_Int.c ****     priority = (*Input_1_Int_INTC_PRIOR & Input_1_Int__INTC_PRIOR_MASK) >> priorityOffset;
 137              		.loc 1 277 0
 138 0000 024B     		ldr	r3, .L12
 139 0002 1868     		ldr	r0, [r3]
 140 0004 0002     		lsl	r0, r0, #8
 141              	.LVL6:
 278:.\Generated_Source\PSoC4/Input_1_Int.c **** 
 279:.\Generated_Source\PSoC4/Input_1_Int.c ****     return (uint8)priority;
 142              		.loc 1 279 0
 143 0006 800F     		lsr	r0, r0, #30
 144              	.LVL7:
 280:.\Generated_Source\PSoC4/Input_1_Int.c **** }
 145              		.loc 1 280 0
 146              		@ sp needed
 147 0008 7047     		bx	lr
 148              	.L13:
 149 000a C046     		.align	2
 150              	.L12:
 151 000c 00E400E0 		.word	-536812544
 152              		.cfi_endproc
 153              	.LFE9:
 154              		.size	Input_1_Int_GetPriority, .-Input_1_Int_GetPriority
 155              		.section	.text.Input_1_Int_Enable,"ax",%progbits
 156              		.align	2
 157              		.global	Input_1_Int_Enable
 158              		.code	16
 159              		.thumb_func
 160              		.type	Input_1_Int_Enable, %function
 161              	Input_1_Int_Enable:
 162              	.LFB10:
 281:.\Generated_Source\PSoC4/Input_1_Int.c **** 
 282:.\Generated_Source\PSoC4/Input_1_Int.c **** 
 283:.\Generated_Source\PSoC4/Input_1_Int.c **** /*******************************************************************************
 284:.\Generated_Source\PSoC4/Input_1_Int.c **** * Function Name: Input_1_Int_Enable
 285:.\Generated_Source\PSoC4/Input_1_Int.c **** ********************************************************************************
 286:.\Generated_Source\PSoC4/Input_1_Int.c **** *
 287:.\Generated_Source\PSoC4/Input_1_Int.c **** * Summary:
 288:.\Generated_Source\PSoC4/Input_1_Int.c **** *   Enables the interrupt to the interrupt controller. Do not call this function
 289:.\Generated_Source\PSoC4/Input_1_Int.c **** *   unless ISR_Start() has been called or the functionality of the ISR_Start() 
 290:.\Generated_Source\PSoC4/Input_1_Int.c **** *   function, which sets the vector and the priority, has been called.
 291:.\Generated_Source\PSoC4/Input_1_Int.c **** *
 292:.\Generated_Source\PSoC4/Input_1_Int.c **** * Parameters:
 293:.\Generated_Source\PSoC4/Input_1_Int.c **** *   None
ARM GAS  C:\Users\JOHNSO~1\AppData\Local\Temp\ccGqWBaL.s 			page 9


 294:.\Generated_Source\PSoC4/Input_1_Int.c **** *
 295:.\Generated_Source\PSoC4/Input_1_Int.c **** * Return:
 296:.\Generated_Source\PSoC4/Input_1_Int.c **** *   None
 297:.\Generated_Source\PSoC4/Input_1_Int.c **** *
 298:.\Generated_Source\PSoC4/Input_1_Int.c **** *******************************************************************************/
 299:.\Generated_Source\PSoC4/Input_1_Int.c **** void Input_1_Int_Enable(void)
 300:.\Generated_Source\PSoC4/Input_1_Int.c **** {
 163              		.loc 1 300 0
 164              		.cfi_startproc
 301:.\Generated_Source\PSoC4/Input_1_Int.c ****     /* Enable the general interrupt. */
 302:.\Generated_Source\PSoC4/Input_1_Int.c ****     *Input_1_Int_INTC_SET_EN = Input_1_Int__INTC_MASK;
 165              		.loc 1 302 0
 166 0000 0422     		mov	r2, #4
 167 0002 014B     		ldr	r3, .L15
 168 0004 1A60     		str	r2, [r3]
 303:.\Generated_Source\PSoC4/Input_1_Int.c **** }
 169              		.loc 1 303 0
 170              		@ sp needed
 171 0006 7047     		bx	lr
 172              	.L16:
 173              		.align	2
 174              	.L15:
 175 0008 00E100E0 		.word	-536813312
 176              		.cfi_endproc
 177              	.LFE10:
 178              		.size	Input_1_Int_Enable, .-Input_1_Int_Enable
 179              		.section	.text.Input_1_Int_GetState,"ax",%progbits
 180              		.align	2
 181              		.global	Input_1_Int_GetState
 182              		.code	16
 183              		.thumb_func
 184              		.type	Input_1_Int_GetState, %function
 185              	Input_1_Int_GetState:
 186              	.LFB11:
 304:.\Generated_Source\PSoC4/Input_1_Int.c **** 
 305:.\Generated_Source\PSoC4/Input_1_Int.c **** 
 306:.\Generated_Source\PSoC4/Input_1_Int.c **** /*******************************************************************************
 307:.\Generated_Source\PSoC4/Input_1_Int.c **** * Function Name: Input_1_Int_GetState
 308:.\Generated_Source\PSoC4/Input_1_Int.c **** ********************************************************************************
 309:.\Generated_Source\PSoC4/Input_1_Int.c **** *
 310:.\Generated_Source\PSoC4/Input_1_Int.c **** * Summary:
 311:.\Generated_Source\PSoC4/Input_1_Int.c **** *   Gets the state (enabled, disabled) of the Interrupt.
 312:.\Generated_Source\PSoC4/Input_1_Int.c **** *
 313:.\Generated_Source\PSoC4/Input_1_Int.c **** * Parameters:
 314:.\Generated_Source\PSoC4/Input_1_Int.c **** *   None
 315:.\Generated_Source\PSoC4/Input_1_Int.c **** *
 316:.\Generated_Source\PSoC4/Input_1_Int.c **** * Return:
 317:.\Generated_Source\PSoC4/Input_1_Int.c **** *   1 if enabled, 0 if disabled.
 318:.\Generated_Source\PSoC4/Input_1_Int.c **** *
 319:.\Generated_Source\PSoC4/Input_1_Int.c **** *******************************************************************************/
 320:.\Generated_Source\PSoC4/Input_1_Int.c **** uint8 Input_1_Int_GetState(void)
 321:.\Generated_Source\PSoC4/Input_1_Int.c **** {
 187              		.loc 1 321 0
 188              		.cfi_startproc
 322:.\Generated_Source\PSoC4/Input_1_Int.c ****     /* Get the state of the general interrupt. */
 323:.\Generated_Source\PSoC4/Input_1_Int.c ****     return ((*Input_1_Int_INTC_SET_EN & (uint32)Input_1_Int__INTC_MASK) != 0u) ? 1u:0u;
 189              		.loc 1 323 0
ARM GAS  C:\Users\JOHNSO~1\AppData\Local\Temp\ccGqWBaL.s 			page 10


 190 0000 034B     		ldr	r3, .L20
 191 0002 1B68     		ldr	r3, [r3]
 192 0004 5A07     		lsl	r2, r3, #29
 193 0006 01D5     		bpl	.L19
 194 0008 0120     		mov	r0, #1
 195 000a 00E0     		b	.L18
 196              	.L19:
 197 000c 0020     		mov	r0, #0
 198              	.L18:
 324:.\Generated_Source\PSoC4/Input_1_Int.c **** }
 199              		.loc 1 324 0 discriminator 3
 200              		@ sp needed
 201 000e 7047     		bx	lr
 202              	.L21:
 203              		.align	2
 204              	.L20:
 205 0010 00E100E0 		.word	-536813312
 206              		.cfi_endproc
 207              	.LFE11:
 208              		.size	Input_1_Int_GetState, .-Input_1_Int_GetState
 209              		.section	.text.Input_1_Int_Disable,"ax",%progbits
 210              		.align	2
 211              		.global	Input_1_Int_Disable
 212              		.code	16
 213              		.thumb_func
 214              		.type	Input_1_Int_Disable, %function
 215              	Input_1_Int_Disable:
 216              	.LFB12:
 325:.\Generated_Source\PSoC4/Input_1_Int.c **** 
 326:.\Generated_Source\PSoC4/Input_1_Int.c **** 
 327:.\Generated_Source\PSoC4/Input_1_Int.c **** /*******************************************************************************
 328:.\Generated_Source\PSoC4/Input_1_Int.c **** * Function Name: Input_1_Int_Disable
 329:.\Generated_Source\PSoC4/Input_1_Int.c **** ********************************************************************************
 330:.\Generated_Source\PSoC4/Input_1_Int.c **** *
 331:.\Generated_Source\PSoC4/Input_1_Int.c **** * Summary:
 332:.\Generated_Source\PSoC4/Input_1_Int.c **** *   Disables the Interrupt in the interrupt controller.
 333:.\Generated_Source\PSoC4/Input_1_Int.c **** *
 334:.\Generated_Source\PSoC4/Input_1_Int.c **** * Parameters:
 335:.\Generated_Source\PSoC4/Input_1_Int.c **** *   None
 336:.\Generated_Source\PSoC4/Input_1_Int.c **** *
 337:.\Generated_Source\PSoC4/Input_1_Int.c **** * Return:
 338:.\Generated_Source\PSoC4/Input_1_Int.c **** *   None
 339:.\Generated_Source\PSoC4/Input_1_Int.c **** *
 340:.\Generated_Source\PSoC4/Input_1_Int.c **** *******************************************************************************/
 341:.\Generated_Source\PSoC4/Input_1_Int.c **** void Input_1_Int_Disable(void)
 342:.\Generated_Source\PSoC4/Input_1_Int.c **** {
 217              		.loc 1 342 0
 218              		.cfi_startproc
 343:.\Generated_Source\PSoC4/Input_1_Int.c ****     /* Disable the general interrupt. */
 344:.\Generated_Source\PSoC4/Input_1_Int.c ****     *Input_1_Int_INTC_CLR_EN = Input_1_Int__INTC_MASK;
 219              		.loc 1 344 0
 220 0000 0422     		mov	r2, #4
 221 0002 014B     		ldr	r3, .L23
 222 0004 1A60     		str	r2, [r3]
 345:.\Generated_Source\PSoC4/Input_1_Int.c **** }
 223              		.loc 1 345 0
 224              		@ sp needed
ARM GAS  C:\Users\JOHNSO~1\AppData\Local\Temp\ccGqWBaL.s 			page 11


 225 0006 7047     		bx	lr
 226              	.L24:
 227              		.align	2
 228              	.L23:
 229 0008 80E100E0 		.word	-536813184
 230              		.cfi_endproc
 231              	.LFE12:
 232              		.size	Input_1_Int_Disable, .-Input_1_Int_Disable
 233              		.section	.text.Input_1_Int_Start,"ax",%progbits
 234              		.align	2
 235              		.global	Input_1_Int_Start
 236              		.code	16
 237              		.thumb_func
 238              		.type	Input_1_Int_Start, %function
 239              	Input_1_Int_Start:
 240              	.LFB2:
  56:.\Generated_Source\PSoC4/Input_1_Int.c **** {
 241              		.loc 1 56 0
 242              		.cfi_startproc
 243 0000 08B5     		push	{r3, lr}
 244              		.cfi_def_cfa_offset 8
 245              		.cfi_offset 3, -8
 246              		.cfi_offset 14, -4
  58:.\Generated_Source\PSoC4/Input_1_Int.c ****     Input_1_Int_Disable();
 247              		.loc 1 58 0
 248 0002 FFF7FEFF 		bl	Input_1_Int_Disable
 249              	.LVL8:
  61:.\Generated_Source\PSoC4/Input_1_Int.c ****     Input_1_Int_SetVector(&Input_1_Int_Interrupt);
 250              		.loc 1 61 0
 251 0006 0448     		ldr	r0, .L26
 252 0008 FFF7FEFF 		bl	Input_1_Int_SetVector
 253              	.LVL9:
  64:.\Generated_Source\PSoC4/Input_1_Int.c ****     Input_1_Int_SetPriority((uint8)Input_1_Int_INTC_PRIOR_NUMBER);
 254              		.loc 1 64 0
 255 000c 0320     		mov	r0, #3
 256 000e FFF7FEFF 		bl	Input_1_Int_SetPriority
 257              	.LVL10:
  67:.\Generated_Source\PSoC4/Input_1_Int.c ****     Input_1_Int_Enable();
 258              		.loc 1 67 0
 259 0012 FFF7FEFF 		bl	Input_1_Int_Enable
 260              	.LVL11:
  68:.\Generated_Source\PSoC4/Input_1_Int.c **** }
 261              		.loc 1 68 0
 262              		@ sp needed
 263 0016 08BD     		pop	{r3, pc}
 264              	.L27:
 265              		.align	2
 266              	.L26:
 267 0018 00000000 		.word	Input_1_Int_Interrupt
 268              		.cfi_endproc
 269              	.LFE2:
 270              		.size	Input_1_Int_Start, .-Input_1_Int_Start
 271              		.section	.text.Input_1_Int_StartEx,"ax",%progbits
 272              		.align	2
 273              		.global	Input_1_Int_StartEx
 274              		.code	16
 275              		.thumb_func
ARM GAS  C:\Users\JOHNSO~1\AppData\Local\Temp\ccGqWBaL.s 			page 12


 276              		.type	Input_1_Int_StartEx, %function
 277              	Input_1_Int_StartEx:
 278              	.LFB3:
  99:.\Generated_Source\PSoC4/Input_1_Int.c **** {
 279              		.loc 1 99 0
 280              		.cfi_startproc
 281              	.LVL12:
 282 0000 10B5     		push	{r4, lr}
 283              		.cfi_def_cfa_offset 8
 284              		.cfi_offset 4, -8
 285              		.cfi_offset 14, -4
 286 0002 041C     		mov	r4, r0
 101:.\Generated_Source\PSoC4/Input_1_Int.c ****     Input_1_Int_Disable();
 287              		.loc 1 101 0
 288 0004 FFF7FEFF 		bl	Input_1_Int_Disable
 289              	.LVL13:
 104:.\Generated_Source\PSoC4/Input_1_Int.c ****     Input_1_Int_SetVector(address);
 290              		.loc 1 104 0
 291 0008 201C     		mov	r0, r4
 292 000a FFF7FEFF 		bl	Input_1_Int_SetVector
 293              	.LVL14:
 107:.\Generated_Source\PSoC4/Input_1_Int.c ****     Input_1_Int_SetPriority((uint8)Input_1_Int_INTC_PRIOR_NUMBER);
 294              		.loc 1 107 0
 295 000e 0320     		mov	r0, #3
 296 0010 FFF7FEFF 		bl	Input_1_Int_SetPriority
 297              	.LVL15:
 110:.\Generated_Source\PSoC4/Input_1_Int.c ****     Input_1_Int_Enable();
 298              		.loc 1 110 0
 299 0014 FFF7FEFF 		bl	Input_1_Int_Enable
 300              	.LVL16:
 111:.\Generated_Source\PSoC4/Input_1_Int.c **** }
 301              		.loc 1 111 0
 302              		@ sp needed
 303              	.LVL17:
 304 0018 10BD     		pop	{r4, pc}
 305              		.cfi_endproc
 306              	.LFE3:
 307              		.size	Input_1_Int_StartEx, .-Input_1_Int_StartEx
 308 001a C046     		.section	.text.Input_1_Int_Stop,"ax",%progbits
 309              		.align	2
 310              		.global	Input_1_Int_Stop
 311              		.code	16
 312              		.thumb_func
 313              		.type	Input_1_Int_Stop, %function
 314              	Input_1_Int_Stop:
 315              	.LFB4:
 129:.\Generated_Source\PSoC4/Input_1_Int.c **** {
 316              		.loc 1 129 0
 317              		.cfi_startproc
 318 0000 08B5     		push	{r3, lr}
 319              		.cfi_def_cfa_offset 8
 320              		.cfi_offset 3, -8
 321              		.cfi_offset 14, -4
 131:.\Generated_Source\PSoC4/Input_1_Int.c ****     Input_1_Int_Disable();
 322              		.loc 1 131 0
 323 0002 FFF7FEFF 		bl	Input_1_Int_Disable
 324              	.LVL18:
ARM GAS  C:\Users\JOHNSO~1\AppData\Local\Temp\ccGqWBaL.s 			page 13


 134:.\Generated_Source\PSoC4/Input_1_Int.c ****     Input_1_Int_SetVector(&IntDefaultHandler);
 325              		.loc 1 134 0
 326 0006 0248     		ldr	r0, .L30
 327 0008 FFF7FEFF 		bl	Input_1_Int_SetVector
 328              	.LVL19:
 135:.\Generated_Source\PSoC4/Input_1_Int.c **** }
 329              		.loc 1 135 0
 330              		@ sp needed
 331 000c 08BD     		pop	{r3, pc}
 332              	.L31:
 333 000e C046     		.align	2
 334              	.L30:
 335 0010 00000000 		.word	IntDefaultHandler
 336              		.cfi_endproc
 337              	.LFE4:
 338              		.size	Input_1_Int_Stop, .-Input_1_Int_Stop
 339              		.section	.text.Input_1_Int_SetPending,"ax",%progbits
 340              		.align	2
 341              		.global	Input_1_Int_SetPending
 342              		.code	16
 343              		.thumb_func
 344              		.type	Input_1_Int_SetPending, %function
 345              	Input_1_Int_SetPending:
 346              	.LFB13:
 346:.\Generated_Source\PSoC4/Input_1_Int.c **** 
 347:.\Generated_Source\PSoC4/Input_1_Int.c **** 
 348:.\Generated_Source\PSoC4/Input_1_Int.c **** /*******************************************************************************
 349:.\Generated_Source\PSoC4/Input_1_Int.c **** * Function Name: Input_1_Int_SetPending
 350:.\Generated_Source\PSoC4/Input_1_Int.c **** ********************************************************************************
 351:.\Generated_Source\PSoC4/Input_1_Int.c **** *
 352:.\Generated_Source\PSoC4/Input_1_Int.c **** * Summary:
 353:.\Generated_Source\PSoC4/Input_1_Int.c **** *   Causes the Interrupt to enter the pending state, a software method of
 354:.\Generated_Source\PSoC4/Input_1_Int.c **** *   generating the interrupt.
 355:.\Generated_Source\PSoC4/Input_1_Int.c **** *
 356:.\Generated_Source\PSoC4/Input_1_Int.c **** * Parameters:
 357:.\Generated_Source\PSoC4/Input_1_Int.c **** *   None
 358:.\Generated_Source\PSoC4/Input_1_Int.c **** *
 359:.\Generated_Source\PSoC4/Input_1_Int.c **** * Return:
 360:.\Generated_Source\PSoC4/Input_1_Int.c **** *   None
 361:.\Generated_Source\PSoC4/Input_1_Int.c **** *
 362:.\Generated_Source\PSoC4/Input_1_Int.c **** * Side Effects:
 363:.\Generated_Source\PSoC4/Input_1_Int.c **** *   If interrupts are enabled and the interrupt is set up properly, the ISR is
 364:.\Generated_Source\PSoC4/Input_1_Int.c **** *   entered (depending on the priority of this interrupt and other pending 
 365:.\Generated_Source\PSoC4/Input_1_Int.c **** *   interrupts).
 366:.\Generated_Source\PSoC4/Input_1_Int.c **** *
 367:.\Generated_Source\PSoC4/Input_1_Int.c **** *******************************************************************************/
 368:.\Generated_Source\PSoC4/Input_1_Int.c **** void Input_1_Int_SetPending(void)
 369:.\Generated_Source\PSoC4/Input_1_Int.c **** {
 347              		.loc 1 369 0
 348              		.cfi_startproc
 370:.\Generated_Source\PSoC4/Input_1_Int.c ****     *Input_1_Int_INTC_SET_PD = Input_1_Int__INTC_MASK;
 349              		.loc 1 370 0
 350 0000 0422     		mov	r2, #4
 351 0002 014B     		ldr	r3, .L33
 352 0004 1A60     		str	r2, [r3]
 371:.\Generated_Source\PSoC4/Input_1_Int.c **** }
 353              		.loc 1 371 0
ARM GAS  C:\Users\JOHNSO~1\AppData\Local\Temp\ccGqWBaL.s 			page 14


 354              		@ sp needed
 355 0006 7047     		bx	lr
 356              	.L34:
 357              		.align	2
 358              	.L33:
 359 0008 00E200E0 		.word	-536813056
 360              		.cfi_endproc
 361              	.LFE13:
 362              		.size	Input_1_Int_SetPending, .-Input_1_Int_SetPending
 363              		.section	.text.Input_1_Int_ClearPending,"ax",%progbits
 364              		.align	2
 365              		.global	Input_1_Int_ClearPending
 366              		.code	16
 367              		.thumb_func
 368              		.type	Input_1_Int_ClearPending, %function
 369              	Input_1_Int_ClearPending:
 370              	.LFB14:
 372:.\Generated_Source\PSoC4/Input_1_Int.c **** 
 373:.\Generated_Source\PSoC4/Input_1_Int.c **** 
 374:.\Generated_Source\PSoC4/Input_1_Int.c **** /*******************************************************************************
 375:.\Generated_Source\PSoC4/Input_1_Int.c **** * Function Name: Input_1_Int_ClearPending
 376:.\Generated_Source\PSoC4/Input_1_Int.c **** ********************************************************************************
 377:.\Generated_Source\PSoC4/Input_1_Int.c **** *
 378:.\Generated_Source\PSoC4/Input_1_Int.c **** * Summary:
 379:.\Generated_Source\PSoC4/Input_1_Int.c **** *   Clears a pending interrupt in the interrupt controller.
 380:.\Generated_Source\PSoC4/Input_1_Int.c **** *
 381:.\Generated_Source\PSoC4/Input_1_Int.c **** *   Note Some interrupt sources are clear-on-read and require the block 
 382:.\Generated_Source\PSoC4/Input_1_Int.c **** *   interrupt/status register to be read/cleared with the appropriate block API 
 383:.\Generated_Source\PSoC4/Input_1_Int.c **** *   (GPIO, UART, and so on). Otherwise the ISR will continue to remain in 
 384:.\Generated_Source\PSoC4/Input_1_Int.c **** *   pending state even though the interrupt itself is cleared using this API.
 385:.\Generated_Source\PSoC4/Input_1_Int.c **** *
 386:.\Generated_Source\PSoC4/Input_1_Int.c **** * Parameters:
 387:.\Generated_Source\PSoC4/Input_1_Int.c **** *   None
 388:.\Generated_Source\PSoC4/Input_1_Int.c **** *
 389:.\Generated_Source\PSoC4/Input_1_Int.c **** * Return:
 390:.\Generated_Source\PSoC4/Input_1_Int.c **** *   None
 391:.\Generated_Source\PSoC4/Input_1_Int.c **** *
 392:.\Generated_Source\PSoC4/Input_1_Int.c **** *******************************************************************************/
 393:.\Generated_Source\PSoC4/Input_1_Int.c **** void Input_1_Int_ClearPending(void)
 394:.\Generated_Source\PSoC4/Input_1_Int.c **** {
 371              		.loc 1 394 0
 372              		.cfi_startproc
 395:.\Generated_Source\PSoC4/Input_1_Int.c ****     *Input_1_Int_INTC_CLR_PD = Input_1_Int__INTC_MASK;
 373              		.loc 1 395 0
 374 0000 0422     		mov	r2, #4
 375 0002 014B     		ldr	r3, .L36
 376 0004 1A60     		str	r2, [r3]
 396:.\Generated_Source\PSoC4/Input_1_Int.c **** }
 377              		.loc 1 396 0
 378              		@ sp needed
 379 0006 7047     		bx	lr
 380              	.L37:
 381              		.align	2
 382              	.L36:
 383 0008 80E200E0 		.word	-536812928
 384              		.cfi_endproc
 385              	.LFE14:
ARM GAS  C:\Users\JOHNSO~1\AppData\Local\Temp\ccGqWBaL.s 			page 15


 386              		.size	Input_1_Int_ClearPending, .-Input_1_Int_ClearPending
 387              		.text
 388              	.Letext0:
 389              		.file 2 "Generated_Source\\PSoC4/cytypes.h"
 390              		.file 3 "Generated_Source\\PSoC4/CyLib.h"
