ARM GAS  C:\Users\JOHNSO~1\AppData\Local\Temp\ccEYW2GY.s 			page 1


   1              		.cpu cortex-m0
   2              		.fpu softvfp
   3              		.eabi_attribute 20, 1
   4              		.eabi_attribute 21, 1
   5              		.eabi_attribute 23, 3
   6              		.eabi_attribute 24, 1
   7              		.eabi_attribute 25, 1
   8              		.eabi_attribute 26, 1
   9              		.eabi_attribute 30, 1
  10              		.eabi_attribute 34, 0
  11              		.eabi_attribute 18, 4
  12              		.code	16
  13              		.file	"main.c"
  14              		.text
  15              	.Ltext0:
  16              		.cfi_sections	.debug_frame
  17              		.section	.text.GeneralEventHandler,"ax",%progbits
  18              		.align	2
  19              		.global	GeneralEventHandler
  20              		.code	16
  21              		.thumb_func
  22              		.type	GeneralEventHandler, %function
  23              	GeneralEventHandler:
  24              	.LFB36:
  25              		.file 1 ".\\main.c"
   1:.\main.c      **** /* ========================================
   2:.\main.c      ****  *
   3:.\main.c      ****  * Copyright YOUR COMPANY, THE YEAR
   4:.\main.c      ****  * All Rights Reserved
   5:.\main.c      ****  * UNPUBLISHED, LICENSED SOFTWARE.
   6:.\main.c      ****  *
   7:.\main.c      ****  * CONFIDENTIAL AND PROPRIETARY INFORMATION
   8:.\main.c      ****  * WHICH IS THE PROPERTY OF your company.
   9:.\main.c      ****  *
  10:.\main.c      ****  * ========================================
  11:.\main.c      **** */
  12:.\main.c      **** #include <project.h>
  13:.\main.c      **** #include "BLEProcess.h"
  14:.\main.c      **** #include "main.h"
  15:.\main.c      **** #include "led.h"
  16:.\main.c      **** 
  17:.\main.c      **** enum STATES { init, waitForCommand, sendCommand, reset, stop } systemState;
  18:.\main.c      **** int8 STOP, RESET, IDLE,commandReceived;
  19:.\main.c      **** //uint8 CommandData[1]; //LENGTH SHOULD EQUAL . Sending 1
  20:.\main.c      **** uint8 CommandData; //LENGTH SHOULD EQUAL . Sending 1
  21:.\main.c      **** uint8 result = 0x00;
  22:.\main.c      **** //void StackEventHandler( uint32 eventCode, void *eventParam );
  23:.\main.c      **** void GeneralEventHandler( uint32 eventCode, void *eventParam );
  24:.\main.c      **** void initialize();
  25:.\main.c      **** void sending(uint8_t cmd);
  26:.\main.c      **** void resetSystem();
  27:.\main.c      **** void stopSystem();
  28:.\main.c      **** CY_ISR(EmergencyStop);
  29:.\main.c      **** 
  30:.\main.c      **** int main()
  31:.\main.c      **** {
  32:.\main.c      ****     CyGlobalIntEnable;   /* Enable global interrupts */
ARM GAS  C:\Users\JOHNSO~1\AppData\Local\Temp\ccEYW2GY.s 			page 2


  33:.\main.c      ****     
  34:.\main.c      ****     /* Place your initialization/startup code here (e.g. MyInst_Start()) */
  35:.\main.c      **** 
  36:.\main.c      ****     //CyBle_Start( StackEventHandler );
  37:.\main.c      ****         PrISM_1_Start();
  38:.\main.c      ****          PrISM_2_Start();
  39:.\main.c      ****         /* Switch off the RGB LEDs through PrISM modules */
  40:.\main.c      ****         PrISM_1_WritePulse0(RGB_LED_OFF);
  41:.\main.c      ****          PrISM_1_WritePulse1(RGB_LED_OFF);
  42:.\main.c      ****          PrISM_2_WritePulse0(RGB_LED_OFF);
  43:.\main.c      ****          /* Set Drive modes of the output pins to Strong drive */
  44:.\main.c      ****         RED_SetDriveMode(RED_DM_STRONG);
  45:.\main.c      ****         GREEN_SetDriveMode(GREEN_DM_STRONG);
  46:.\main.c      ****          BLUE_SetDriveMode(BLUE_DM_STRONG);
  47:.\main.c      ****     systemState = init;
  48:.\main.c      ****     
  49:.\main.c      ****     
  50:.\main.c      ****     
  51:.\main.c      ****     for(;;)
  52:.\main.c      ****     {
  53:.\main.c      ****         /* Place your application code here */
  54:.\main.c      ****         //CyBle_ProcessEvents();
  55:.\main.c      ****         switch(systemState){
  56:.\main.c      ****             case init:
  57:.\main.c      ****             initialize();
  58:.\main.c      ****             systemState = waitForCommand;
  59:.\main.c      ****             break;
  60:.\main.c      ****             
  61:.\main.c      ****             case waitForCommand:
  62:.\main.c      ****                 /*PrISM_1_WritePulse0(0x00);
  63:.\main.c      ****                 PrISM_1_WritePulse1(0x00);
  64:.\main.c      ****                 PrISM_2_WritePulse0(RGB_LED_MAX_VAL);*/
  65:.\main.c      ****             
  66:.\main.c      ****             
  67:.\main.c      ****             while(commandReceived == 0){
  68:.\main.c      ****             CyBle_ProcessEvents();
  69:.\main.c      ****             if(STOP == 1){ //check first
  70:.\main.c      ****                 systemState = stop; 
  71:.\main.c      ****                 break;
  72:.\main.c      ****             }
  73:.\main.c      ****             else if(RESET == 1){ //chec 
  74:.\main.c      ****                 systemState = reset;
  75:.\main.c      ****                 break;
  76:.\main.c      ****             }
  77:.\main.c      ****         }
  78:.\main.c      ****                 if(commandReceived == 1){
  79:.\main.c      ****                     systemState = sendCommand;
  80:.\main.c      ****                 }
  81:.\main.c      ****                 
  82:.\main.c      ****             
  83:.\main.c      ****             break;
  84:.\main.c      ****             
  85:.\main.c      ****             case sendCommand:
  86:.\main.c      ****                 //do stuff first
  87:.\main.c      ****                 //sending(CommandData);
  88:.\main.c      ****                 //send the command to the MEGA
  89:.\main.c      ****                 //change the command Received back to 0
ARM GAS  C:\Users\JOHNSO~1\AppData\Local\Temp\ccEYW2GY.s 			page 3


  90:.\main.c      ****                 commandReceived = 0;
  91:.\main.c      ****                 //wait for another command 
  92:.\main.c      ****                 systemState = waitForCommand; //for Now just go back to waiting for a command
  93:.\main.c      ****             break;
  94:.\main.c      ****             
  95:.\main.c      ****             case reset:
  96:.\main.c      ****             resetSystem();
  97:.\main.c      ****             break;
  98:.\main.c      ****             
  99:.\main.c      ****             case stop:
 100:.\main.c      ****             stopSystem();
 101:.\main.c      ****             break; 
 102:.\main.c      ****         }
 103:.\main.c      ****     }
 104:.\main.c      **** }
 105:.\main.c      **** 
 106:.\main.c      **** 
 107:.\main.c      **** void GeneralEventHandler(uint32 event, void * eventParam)
 108:.\main.c      ****       {
  26              		.loc 1 108 0
  27              		.cfi_startproc
  28              	.LVL0:
  29 0000 38B5     		push	{r3, r4, r5, lr}
  30              		.cfi_def_cfa_offset 16
  31              		.cfi_offset 3, -16
  32              		.cfi_offset 4, -12
  33              		.cfi_offset 5, -8
  34              		.cfi_offset 14, -4
  35 0002 041C     		mov	r4, r0
  36 0004 0D1C     		mov	r5, r1
 109:.\main.c      ****         /* Structure to store data written by Client */
 110:.\main.c      ****         CYBLE_GATTS_WRITE_REQ_PARAM_T *wrReqParam;
 111:.\main.c      ****         /* 'CommandData[]' is an array to store 1 bytes of Commans data*/
 112:.\main.c      ****             PrISM_1_WritePulse0(0X00);
  37              		.loc 1 112 0
  38 0006 0020     		mov	r0, #0
  39              	.LVL1:
  40 0008 FFF7FEFF 		bl	PrISM_1_WritePulse0
  41              	.LVL2:
 113:.\main.c      ****             PrISM_1_WritePulse1(0x00);
  42              		.loc 1 113 0
  43 000c 0020     		mov	r0, #0
  44 000e FFF7FEFF 		bl	PrISM_1_WritePulse1
  45              	.LVL3:
 114:.\main.c      ****             PrISM_2_WritePulse0(0XFF);
  46              		.loc 1 114 0
  47 0012 FF20     		mov	r0, #255
  48 0014 FFF7FEFF 		bl	PrISM_2_WritePulse0
  49              	.LVL4:
 115:.\main.c      ****             switch(event)
  50              		.loc 1 115 0
  51 0018 282C     		cmp	r4, #40
  52 001a 17D0     		beq	.L3
  53 001c 04D8     		bhi	.L4
  54 001e 012C     		cmp	r4, #1
  55 0020 07D0     		beq	.L5
  56 0022 262C     		cmp	r4, #38
ARM GAS  C:\Users\JOHNSO~1\AppData\Local\Temp\ccEYW2GY.s 			page 4


  57 0024 09D0     		beq	.L6
  58 0026 8FE0     		b	.L1
  59              	.L4:
  60 0028 422C     		cmp	r4, #66
  61 002a 79D0     		beq	.L7
  62 002c 4C2C     		cmp	r4, #76
  63 002e 14D0     		beq	.L8
  64 0030 8AE0     		b	.L1
  65              	.L5:
 116:.\main.c      ****              {
 117:.\main.c      ****             case CYBLE_EVT_STACK_ON:
 118:.\main.c      ****             /* This event is generated when BLE stack is ON */
 119:.\main.c      ****             CyBle_GappStartAdvertisement(CYBLE_ADVERTISING_FAST);
  66              		.loc 1 119 0
  67 0032 0020     		mov	r0, #0
  68 0034 FFF7FEFF 		bl	CyBle_GappStartAdvertisement
  69              	.LVL5:
 120:.\main.c      ****             break;
  70              		.loc 1 120 0
  71 0038 86E0     		b	.L1
  72              	.L6:
 121:.\main.c      **** 
 122:.\main.c      ****             
 123:.\main.c      ****             
 124:.\main.c      ****             
 125:.\main.c      ****             case CYBLE_EVT_GAPP_ADVERTISEMENT_START_STOP:
 126:.\main.c      ****                 /* This event is generated whenever Advertisement starts or stops */
 127:.\main.c      ****             if(CyBle_GetState() == CYBLE_STATE_DISCONNECTED)
  73              		.loc 1 127 0
  74 003a 444B     		ldr	r3, .L15
  75 003c 1B78     		ldrb	r3, [r3]
  76 003e 042B     		cmp	r3, #4
  77 0040 00D0     		beq	.LCB55
  78 0042 81E0     		b	.L1	@long jump
  79              	.LCB55:
 128:.\main.c      ****             {
 129:.\main.c      ****                 CyBle_GappStartAdvertisement(CYBLE_ADVERTISING_FAST);
  80              		.loc 1 129 0
  81 0044 0020     		mov	r0, #0
  82 0046 FFF7FEFF 		bl	CyBle_GappStartAdvertisement
  83              	.LVL6:
  84 004a 7DE0     		b	.L1
  85              	.L3:
 130:.\main.c      ****              }
 131:.\main.c      ****             break;
 132:.\main.c      ****             
 133:.\main.c      ****             
 134:.\main.c      ****             
 135:.\main.c      ****             
 136:.\main.c      ****             case CYBLE_EVT_GAP_DEVICE_DISCONNECTED:
 137:.\main.c      ****             /* This event is generated at GAP disconnection. */
 138:.\main.c      ****             CyBle_GappStartAdvertisement(CYBLE_ADVERTISING_FAST);
  86              		.loc 1 138 0
  87 004c 0020     		mov	r0, #0
  88 004e FFF7FEFF 		bl	CyBle_GappStartAdvertisement
  89              	.LVL7:
 139:.\main.c      ****             systemState = waitForCommand;
ARM GAS  C:\Users\JOHNSO~1\AppData\Local\Temp\ccEYW2GY.s 			page 5


  90              		.loc 1 139 0
  91 0052 0122     		mov	r2, #1
  92 0054 3E4B     		ldr	r3, .L15+4
  93 0056 1A70     		strb	r2, [r3]
 140:.\main.c      ****             break;
  94              		.loc 1 140 0
  95 0058 76E0     		b	.L1
  96              	.L8:
  97              	.LVL8:
 141:.\main.c      ****             
 142:.\main.c      ****             
 143:.\main.c      ****             
 144:.\main.c      ****             
 145:.\main.c      ****              case CYBLE_EVT_GATTS_WRITE_REQ:
 146:.\main.c      ****             /* This event is generated when the connected Central */
 147:.\main.c      ****             /* device sends a Write request. */
 148:.\main.c      ****             /* The parameter ‘eventParam’ contains the data written */
 149:.\main.c      ****             
 150:.\main.c      ****             /* Extract the Write data sent by Client */
 151:.\main.c      ****             wrReqParam = (CYBLE_GATTS_WRITE_REQ_PARAM_T *) eventParam;
 152:.\main.c      ****             
 153:.\main.c      ****             
 154:.\main.c      ****             /* If the attribute handle of the characteristic written to * is equal to that of Robot
 155:.\main.c      ****             if(CYBLE_ROBOT_COMMAND_ROBOT_COMMAND_RXTX_CHAR_HANDLE == wrReqParam->handleValPair.attr
  98              		.loc 1 155 0
  99 005a AB89     		ldrh	r3, [r5, #12]
 100 005c 0E2B     		cmp	r3, #14
 101 005e 57D1     		bne	.L9
 156:.\main.c      ****             { 
 157:.\main.c      ****                 //commandReceived = 1; // a command is received
 158:.\main.c      ****                 
 159:.\main.c      ****                 
 160:.\main.c      ****                 //should store DATA into command variable.
 161:.\main.c      ****                 //should check to see whether command is stop or reset,
 162:.\main.c      ****                 //if stop or reset, then set STOP = 1 or RESET = 1 respectively
 163:.\main.c      ****                 //otherwise store data and move state to send command state
 164:.\main.c      ****                 /* Store RGB LED data in local array */
 165:.\main.c      ****                 CommandData = wrReqParam->handleValPair.value.val[0]; //data stored at index 0
 102              		.loc 1 165 0
 103 0060 6B68     		ldr	r3, [r5, #4]
 104 0062 1B78     		ldrb	r3, [r3]
 105 0064 3B4C     		ldr	r4, .L15+8
 106              	.LVL9:
 107 0066 2370     		strb	r3, [r4]
 166:.\main.c      ****                 /*if(CommandData[0] == 0x04){ //stop command
 167:.\main.c      ****                     STOP = 1; //stop the system by going into stop state
 168:.\main.c      ****                 }
 169:.\main.c      ****                 if(CommandData[0] == 0x03){ //reset command
 170:.\main.c      ****                     RESET = 1;//reset the system by going into reset state
 171:.\main.c      ****                 }*/
 172:.\main.c      ****                 
 173:.\main.c      ****                 /* Update the GATT DB for Robot Command read characteristics*/
 174:.\main.c      ****                 UpdateRobotCommandcharacteristic(&CommandData, sizeof(CommandData), CYBLE_ROBOT_COM
 108              		.loc 1 174 0
 109 0068 201C     		mov	r0, r4
 110 006a 0121     		mov	r1, #1
 111 006c 0E22     		mov	r2, #14
ARM GAS  C:\Users\JOHNSO~1\AppData\Local\Temp\ccEYW2GY.s 			page 6


 112 006e FFF7FEFF 		bl	UpdateRobotCommandcharacteristic
 113              	.LVL10:
 175:.\main.c      ****                     
 176:.\main.c      ****                     if(CommandData == 0x11){ //BLUE  //turn right
 114              		.loc 1 176 0
 115 0072 2378     		ldrb	r3, [r4]
 116 0074 112B     		cmp	r3, #17
 117 0076 08D1     		bne	.L10
 177:.\main.c      ****                     PrISM_1_WritePulse0(0XFF);
 118              		.loc 1 177 0
 119 0078 FF20     		mov	r0, #255
 120 007a FFF7FEFF 		bl	PrISM_1_WritePulse0
 121              	.LVL11:
 178:.\main.c      ****                     PrISM_1_WritePulse1(0xFF);
 122              		.loc 1 178 0
 123 007e FF20     		mov	r0, #255
 124 0080 FFF7FEFF 		bl	PrISM_1_WritePulse1
 125              	.LVL12:
 179:.\main.c      ****                     PrISM_2_WritePulse0(0X00);
 126              		.loc 1 179 0
 127 0084 0020     		mov	r0, #0
 128 0086 FFF7FEFF 		bl	PrISM_2_WritePulse0
 129              	.LVL13:
 130              	.L10:
 180:.\main.c      ****                     //CyDelay(2000);
 181:.\main.c      ****                     }
 182:.\main.c      ****                     if(CommandData == 0x12){ //RED //turn left
 131              		.loc 1 182 0
 132 008a 324B     		ldr	r3, .L15+8
 133 008c 1B78     		ldrb	r3, [r3]
 134 008e 122B     		cmp	r3, #18
 135 0090 08D1     		bne	.L11
 183:.\main.c      ****                     PrISM_1_WritePulse0(0X00);
 136              		.loc 1 183 0
 137 0092 0020     		mov	r0, #0
 138 0094 FFF7FEFF 		bl	PrISM_1_WritePulse0
 139              	.LVL14:
 184:.\main.c      ****                     PrISM_1_WritePulse1(0xFF);
 140              		.loc 1 184 0
 141 0098 FF20     		mov	r0, #255
 142 009a FFF7FEFF 		bl	PrISM_1_WritePulse1
 143              	.LVL15:
 185:.\main.c      ****                     PrISM_2_WritePulse0(0XFF);
 144              		.loc 1 185 0
 145 009e FF20     		mov	r0, #255
 146 00a0 FFF7FEFF 		bl	PrISM_2_WritePulse0
 147              	.LVL16:
 148              	.L11:
 186:.\main.c      ****                     //CyDelay(2000);
 187:.\main.c      ****                     }
 188:.\main.c      ****                     if(CommandData == 0x13){ //GREEN/BLUE/RED  //walk forward
 149              		.loc 1 188 0
 150 00a4 2B4B     		ldr	r3, .L15+8
 151 00a6 1B78     		ldrb	r3, [r3]
 152 00a8 132B     		cmp	r3, #19
 153 00aa 08D1     		bne	.L12
 189:.\main.c      ****                     PrISM_1_WritePulse0(0XFF);
ARM GAS  C:\Users\JOHNSO~1\AppData\Local\Temp\ccEYW2GY.s 			page 7


 154              		.loc 1 189 0
 155 00ac FF20     		mov	r0, #255
 156 00ae FFF7FEFF 		bl	PrISM_1_WritePulse0
 157              	.LVL17:
 190:.\main.c      ****                     PrISM_1_WritePulse1(0x00);
 158              		.loc 1 190 0
 159 00b2 0020     		mov	r0, #0
 160 00b4 FFF7FEFF 		bl	PrISM_1_WritePulse1
 161              	.LVL18:
 191:.\main.c      ****                     PrISM_2_WritePulse0(0XFF);
 162              		.loc 1 191 0
 163 00b8 FF20     		mov	r0, #255
 164 00ba FFF7FEFF 		bl	PrISM_2_WritePulse0
 165              	.LVL19:
 166              	.L12:
 192:.\main.c      ****                     //CyDelay(2000);
 193:.\main.c      ****                     }
 194:.\main.c      ****                     if(CommandData == 0x14){ //PURPLE walk backwards
 167              		.loc 1 194 0
 168 00be 254B     		ldr	r3, .L15+8
 169 00c0 1B78     		ldrb	r3, [r3]
 170 00c2 142B     		cmp	r3, #20
 171 00c4 08D1     		bne	.L13
 195:.\main.c      ****                     PrISM_1_WritePulse0(0X00);
 172              		.loc 1 195 0
 173 00c6 0020     		mov	r0, #0
 174 00c8 FFF7FEFF 		bl	PrISM_1_WritePulse0
 175              	.LVL20:
 196:.\main.c      ****                     PrISM_1_WritePulse1(0xFF);
 176              		.loc 1 196 0
 177 00cc FF20     		mov	r0, #255
 178 00ce FFF7FEFF 		bl	PrISM_1_WritePulse1
 179              	.LVL21:
 197:.\main.c      ****                     PrISM_2_WritePulse0(0X00);
 180              		.loc 1 197 0
 181 00d2 0020     		mov	r0, #0
 182 00d4 FFF7FEFF 		bl	PrISM_2_WritePulse0
 183              	.LVL22:
 184              	.L13:
 198:.\main.c      ****                     }
 199:.\main.c      ****                     if(CommandData == 0x15){ // GREEN& BLUE STOP
 185              		.loc 1 199 0
 186 00d8 1E4B     		ldr	r3, .L15+8
 187 00da 1B78     		ldrb	r3, [r3]
 188 00dc 152B     		cmp	r3, #21
 189 00de 0CD1     		bne	.L14
 200:.\main.c      ****                     PrISM_1_WritePulse0(0xFF);
 190              		.loc 1 200 0
 191 00e0 FF20     		mov	r0, #255
 192 00e2 FFF7FEFF 		bl	PrISM_1_WritePulse0
 193              	.LVL23:
 201:.\main.c      ****                     PrISM_1_WritePulse1(0x00);
 194              		.loc 1 201 0
 195 00e6 0020     		mov	r0, #0
 196 00e8 FFF7FEFF 		bl	PrISM_1_WritePulse1
 197              	.LVL24:
 202:.\main.c      ****                     PrISM_2_WritePulse0(0X00);
ARM GAS  C:\Users\JOHNSO~1\AppData\Local\Temp\ccEYW2GY.s 			page 8


 198              		.loc 1 202 0
 199 00ec 0020     		mov	r0, #0
 200 00ee FFF7FEFF 		bl	PrISM_2_WritePulse0
 201              	.LVL25:
 203:.\main.c      ****                     systemState = stop;
 202              		.loc 1 203 0
 203 00f2 0422     		mov	r2, #4
 204 00f4 164B     		ldr	r3, .L15+4
 205 00f6 1A70     		strb	r2, [r3]
 204:.\main.c      ****                     break;
 206              		.loc 1 204 0
 207 00f8 26E0     		b	.L1
 208              	.L14:
 205:.\main.c      ****                     }
 206:.\main.c      ****                     if(CommandData == 0x16){ // GREEN& BLUE RESET
 209              		.loc 1 206 0
 210 00fa 162B     		cmp	r3, #22
 211 00fc 08D1     		bne	.L9
 207:.\main.c      ****                     PrISM_1_WritePulse0(0x00);
 212              		.loc 1 207 0
 213 00fe 0020     		mov	r0, #0
 214 0100 FFF7FEFF 		bl	PrISM_1_WritePulse0
 215              	.LVL26:
 208:.\main.c      ****                     PrISM_1_WritePulse1(0x0F);
 216              		.loc 1 208 0
 217 0104 0F20     		mov	r0, #15
 218 0106 FFF7FEFF 		bl	PrISM_1_WritePulse1
 219              	.LVL27:
 209:.\main.c      ****                     PrISM_2_WritePulse0(0X00);
 220              		.loc 1 209 0
 221 010a 0020     		mov	r0, #0
 222 010c FFF7FEFF 		bl	PrISM_2_WritePulse0
 223              	.LVL28:
 224              	.L9:
 210:.\main.c      ****                     }
 211:.\main.c      ****             }
 212:.\main.c      ****             
 213:.\main.c      ****             
 214:.\main.c      ****             /* Send the response to the write request received. */
 215:.\main.c      ****             CyBle_GattsWriteRsp(cyBle_connHandle);
 225              		.loc 1 215 0
 226 0110 114B     		ldr	r3, .L15+12
 227 0112 1A78     		ldrb	r2, [r3]
 228 0114 5878     		ldrb	r0, [r3, #1]
 229 0116 0002     		lsl	r0, r0, #8
 230 0118 1043     		orr	r0, r2
 231 011a FFF7FEFF 		bl	CyBle_GattsWriteRsp
 232              	.LVL29:
 216:.\main.c      ****             
 217:.\main.c      ****             
 218:.\main.c      ****             break;
 233              		.loc 1 218 0
 234 011e 13E0     		b	.L1
 235              	.LVL30:
 236              	.L7:
 219:.\main.c      ****             
 220:.\main.c      ****             
ARM GAS  C:\Users\JOHNSO~1\AppData\Local\Temp\ccEYW2GY.s 			page 9


 221:.\main.c      **** 
 222:.\main.c      ****             case CYBLE_EVT_GATT_DISCONNECT_IND:
 223:.\main.c      ****             /* This event is generated at GATT disconnection. */
 224:.\main.c      ****             
 225:.\main.c      ****             /* Reset the color values*/
 226:.\main.c      ****             CommandData = FALSE;
 237              		.loc 1 226 0
 238 0120 0C4C     		ldr	r4, .L15+8
 239              	.LVL31:
 240 0122 0023     		mov	r3, #0
 241 0124 2370     		strb	r3, [r4]
 227:.\main.c      ****                 PrISM_1_WritePulse0(0X00);
 242              		.loc 1 227 0
 243 0126 0020     		mov	r0, #0
 244 0128 FFF7FEFF 		bl	PrISM_1_WritePulse0
 245              	.LVL32:
 228:.\main.c      ****                 PrISM_1_WritePulse1(0x00);
 246              		.loc 1 228 0
 247 012c 0020     		mov	r0, #0
 248 012e FFF7FEFF 		bl	PrISM_1_WritePulse1
 249              	.LVL33:
 229:.\main.c      ****                 PrISM_2_WritePulse0(0X00);
 250              		.loc 1 229 0
 251 0132 0020     		mov	r0, #0
 252 0134 FFF7FEFF 		bl	PrISM_2_WritePulse0
 253              	.LVL34:
 230:.\main.c      ****             
 231:.\main.c      ****             
 232:.\main.c      ****             /* Switch off LEDs */
 233:.\main.c      ****             //UpdateRGBLED(RGBledData, sizeof(RGBledData));
 234:.\main.c      ****             //SHOW WAITING FOR CONNECTION ON LED's
 235:.\main.c      ****             
 236:.\main.c      ****             /* Register the new color in GATT DB*/
 237:.\main.c      ****             UpdateRobotCommandcharacteristic(&CommandData,
 254              		.loc 1 237 0
 255 0138 201C     		mov	r0, r4
 256 013a 0121     		mov	r1, #1
 257 013c 0E22     		mov	r2, #14
 258 013e FFF7FEFF 		bl	UpdateRobotCommandcharacteristic
 259              	.LVL35:
 238:.\main.c      ****             sizeof(CommandData),
 239:.\main.c      ****             CYBLE_ROBOT_COMMAND_ROBOT_COMMAND_RXTX_CHAR_HANDLE);
 240:.\main.c      ****             systemState = waitForCommand;
 260              		.loc 1 240 0
 261 0142 0122     		mov	r2, #1
 262 0144 024B     		ldr	r3, .L15+4
 263 0146 1A70     		strb	r2, [r3]
 264              	.L1:
 241:.\main.c      ****             break;
 242:.\main.c      ****             
 243:.\main.c      ****             
 244:.\main.c      ****              default:
 245:.\main.c      ****              break;
 246:.\main.c      ****             }
 247:.\main.c      ****       }
 265              		.loc 1 247 0
 266              		@ sp needed
ARM GAS  C:\Users\JOHNSO~1\AppData\Local\Temp\ccEYW2GY.s 			page 10


 267              	.LVL36:
 268 0148 38BD     		pop	{r3, r4, r5, pc}
 269              	.L16:
 270 014a C046     		.align	2
 271              	.L15:
 272 014c 00000000 		.word	cyBle_state
 273 0150 00000000 		.word	systemState
 274 0154 00000000 		.word	CommandData
 275 0158 00000000 		.word	cyBle_connHandle
 276              		.cfi_endproc
 277              	.LFE36:
 278              		.size	GeneralEventHandler, .-GeneralEventHandler
 279              		.section	.text.EmergencyStop,"ax",%progbits
 280              		.align	2
 281              		.global	EmergencyStop
 282              		.code	16
 283              		.thumb_func
 284              		.type	EmergencyStop, %function
 285              	EmergencyStop:
 286              	.LFB40:
 248:.\main.c      **** void initialize(){
 249:.\main.c      ****     //turn on RED LED
 250:.\main.c      ****     PrISM_1_WritePulse0(0xFF);
 251:.\main.c      ****     PrISM_1_WritePulse1(0x00);
 252:.\main.c      ****     PrISM_2_WritePulse0(0X00);
 253:.\main.c      ****     CyDelay(1500);
 254:.\main.c      ****     E_Stop_Start();
 255:.\main.c      ****     E_Stop_StartEx(EmergencyStop);
 256:.\main.c      ****     CyGlobalIntEnable; //enable interrupts
 257:.\main.c      ****     CyBle_Start(GeneralEventHandler);
 258:.\main.c      ****     
 259:.\main.c      ****     //reset RESET and STOP
 260:.\main.c      ****     RESET = 0;
 261:.\main.c      ****     STOP = 0;
 262:.\main.c      ****     
 263:.\main.c      ****     //turn on green LED
 264:.\main.c      ****     PrISM_1_WritePulse0(0X00);
 265:.\main.c      ****     PrISM_1_WritePulse1(0XFF);
 266:.\main.c      ****     PrISM_2_WritePulse0(0X00);
 267:.\main.c      ****     //CyDelay(1500);
 268:.\main.c      ****     
 269:.\main.c      **** }
 270:.\main.c      **** 
 271:.\main.c      **** void resetSystem(){
 272:.\main.c      ****     //CyGlobalIntEnable; //enable interrupts
 273:.\main.c      ****     CyBle_SoftReset();
 274:.\main.c      ****     systemState = init;
 275:.\main.c      **** }
 276:.\main.c      **** void stopSystem(){
 277:.\main.c      ****     CyGlobalIntDisable; //Disable interrupts
 278:.\main.c      ****     CyBle_Stop();
 279:.\main.c      ****     //turn off LEDs
 280:.\main.c      ****     PrISM_1_WritePulse0(RGB_LED_OFF);
 281:.\main.c      ****     PrISM_1_WritePulse1(RGB_LED_OFF);
 282:.\main.c      ****     PrISM_2_WritePulse0(RGB_LED_OFF);
 283:.\main.c      ****     
 284:.\main.c      **** }
ARM GAS  C:\Users\JOHNSO~1\AppData\Local\Temp\ccEYW2GY.s 			page 11


 285:.\main.c      **** 
 286:.\main.c      **** CY_ISR(EmergencyStop){
 287              		.loc 1 286 0
 288              		.cfi_startproc
 289 0000 08B5     		push	{r3, lr}
 290              		.cfi_def_cfa_offset 8
 291              		.cfi_offset 3, -8
 292              		.cfi_offset 14, -4
 287:.\main.c      ****     //return pin to 0
 288:.\main.c      ****     EStopIn_Write(0);
 293              		.loc 1 288 0
 294 0002 0020     		mov	r0, #0
 295 0004 FFF7FEFF 		bl	EStopIn_Write
 296              	.LVL37:
 289:.\main.c      ****     //set STOP flag to 1
 290:.\main.c      ****     STOP = 1;
 297              		.loc 1 290 0
 298 0008 0122     		mov	r2, #1
 299 000a 034B     		ldr	r3, .L18
 300 000c 1A70     		strb	r2, [r3]
 291:.\main.c      ****     //move state to STOP state
 292:.\main.c      ****     systemState = stop;
 301              		.loc 1 292 0
 302 000e 0422     		mov	r2, #4
 303 0010 024B     		ldr	r3, .L18+4
 304 0012 1A70     		strb	r2, [r3]
 293:.\main.c      **** }
 305              		.loc 1 293 0
 306              		@ sp needed
 307 0014 08BD     		pop	{r3, pc}
 308              	.L19:
 309 0016 C046     		.align	2
 310              	.L18:
 311 0018 00000000 		.word	STOP
 312 001c 00000000 		.word	systemState
 313              		.cfi_endproc
 314              	.LFE40:
 315              		.size	EmergencyStop, .-EmergencyStop
 316              		.section	.text.initialize,"ax",%progbits
 317              		.align	2
 318              		.global	initialize
 319              		.code	16
 320              		.thumb_func
 321              		.type	initialize, %function
 322              	initialize:
 323              	.LFB37:
 248:.\main.c      **** void initialize(){
 324              		.loc 1 248 0
 325              		.cfi_startproc
 326 0000 08B5     		push	{r3, lr}
 327              		.cfi_def_cfa_offset 8
 328              		.cfi_offset 3, -8
 329              		.cfi_offset 14, -4
 250:.\main.c      ****     PrISM_1_WritePulse0(0xFF);
 330              		.loc 1 250 0
 331 0002 FF20     		mov	r0, #255
 332 0004 FFF7FEFF 		bl	PrISM_1_WritePulse0
ARM GAS  C:\Users\JOHNSO~1\AppData\Local\Temp\ccEYW2GY.s 			page 12


 333              	.LVL38:
 251:.\main.c      ****     PrISM_1_WritePulse1(0x00);
 334              		.loc 1 251 0
 335 0008 0020     		mov	r0, #0
 336 000a FFF7FEFF 		bl	PrISM_1_WritePulse1
 337              	.LVL39:
 252:.\main.c      ****     PrISM_2_WritePulse0(0X00);
 338              		.loc 1 252 0
 339 000e 0020     		mov	r0, #0
 340 0010 FFF7FEFF 		bl	PrISM_2_WritePulse0
 341              	.LVL40:
 253:.\main.c      ****     CyDelay(1500);
 342              		.loc 1 253 0
 343 0014 0D48     		ldr	r0, .L21
 344 0016 FFF7FEFF 		bl	CyDelay
 345              	.LVL41:
 254:.\main.c      ****     E_Stop_Start();
 346              		.loc 1 254 0
 347 001a FFF7FEFF 		bl	E_Stop_Start
 348              	.LVL42:
 255:.\main.c      ****     E_Stop_StartEx(EmergencyStop);
 349              		.loc 1 255 0
 350 001e 0C48     		ldr	r0, .L21+4
 351 0020 FFF7FEFF 		bl	E_Stop_StartEx
 352              	.LVL43:
 256:.\main.c      ****     CyGlobalIntEnable; //enable interrupts
 353              		.loc 1 256 0
 354              	@ 256 ".\main.c" 1
 355 0024 62B6     		CPSIE   i
 356              	@ 0 "" 2
 257:.\main.c      ****     CyBle_Start(GeneralEventHandler);
 357              		.loc 1 257 0
 358              		.code	16
 359 0026 0B48     		ldr	r0, .L21+8
 360 0028 FFF7FEFF 		bl	CyBle_Start
 361              	.LVL44:
 260:.\main.c      ****     RESET = 0;
 362              		.loc 1 260 0
 363 002c 0023     		mov	r3, #0
 364 002e 0A4A     		ldr	r2, .L21+12
 365 0030 1370     		strb	r3, [r2]
 261:.\main.c      ****     STOP = 0;
 366              		.loc 1 261 0
 367 0032 0A4A     		ldr	r2, .L21+16
 368 0034 1370     		strb	r3, [r2]
 264:.\main.c      ****     PrISM_1_WritePulse0(0X00);
 369              		.loc 1 264 0
 370 0036 0020     		mov	r0, #0
 371 0038 FFF7FEFF 		bl	PrISM_1_WritePulse0
 372              	.LVL45:
 265:.\main.c      ****     PrISM_1_WritePulse1(0XFF);
 373              		.loc 1 265 0
 374 003c FF20     		mov	r0, #255
 375 003e FFF7FEFF 		bl	PrISM_1_WritePulse1
 376              	.LVL46:
 266:.\main.c      ****     PrISM_2_WritePulse0(0X00);
 377              		.loc 1 266 0
ARM GAS  C:\Users\JOHNSO~1\AppData\Local\Temp\ccEYW2GY.s 			page 13


 378 0042 0020     		mov	r0, #0
 379 0044 FFF7FEFF 		bl	PrISM_2_WritePulse0
 380              	.LVL47:
 269:.\main.c      **** }
 381              		.loc 1 269 0
 382              		@ sp needed
 383 0048 08BD     		pop	{r3, pc}
 384              	.L22:
 385 004a C046     		.align	2
 386              	.L21:
 387 004c DC050000 		.word	1500
 388 0050 00000000 		.word	EmergencyStop
 389 0054 00000000 		.word	GeneralEventHandler
 390 0058 00000000 		.word	RESET
 391 005c 00000000 		.word	STOP
 392              		.cfi_endproc
 393              	.LFE37:
 394              		.size	initialize, .-initialize
 395              		.section	.text.resetSystem,"ax",%progbits
 396              		.align	2
 397              		.global	resetSystem
 398              		.code	16
 399              		.thumb_func
 400              		.type	resetSystem, %function
 401              	resetSystem:
 402              	.LFB38:
 271:.\main.c      **** void resetSystem(){
 403              		.loc 1 271 0
 404              		.cfi_startproc
 405 0000 08B5     		push	{r3, lr}
 406              		.cfi_def_cfa_offset 8
 407              		.cfi_offset 3, -8
 408              		.cfi_offset 14, -4
 273:.\main.c      ****     CyBle_SoftReset();
 409              		.loc 1 273 0
 410 0002 FFF7FEFF 		bl	CyBle_SoftReset
 411              	.LVL48:
 274:.\main.c      ****     systemState = init;
 412              		.loc 1 274 0
 413 0006 0022     		mov	r2, #0
 414 0008 014B     		ldr	r3, .L24
 415 000a 1A70     		strb	r2, [r3]
 275:.\main.c      **** }
 416              		.loc 1 275 0
 417              		@ sp needed
 418 000c 08BD     		pop	{r3, pc}
 419              	.L25:
 420 000e C046     		.align	2
 421              	.L24:
 422 0010 00000000 		.word	systemState
 423              		.cfi_endproc
 424              	.LFE38:
 425              		.size	resetSystem, .-resetSystem
 426              		.section	.text.stopSystem,"ax",%progbits
 427              		.align	2
 428              		.global	stopSystem
 429              		.code	16
ARM GAS  C:\Users\JOHNSO~1\AppData\Local\Temp\ccEYW2GY.s 			page 14


 430              		.thumb_func
 431              		.type	stopSystem, %function
 432              	stopSystem:
 433              	.LFB39:
 276:.\main.c      **** void stopSystem(){
 434              		.loc 1 276 0
 435              		.cfi_startproc
 436 0000 08B5     		push	{r3, lr}
 437              		.cfi_def_cfa_offset 8
 438              		.cfi_offset 3, -8
 439              		.cfi_offset 14, -4
 277:.\main.c      ****     CyGlobalIntDisable; //Disable interrupts
 440              		.loc 1 277 0
 441              	@ 277 ".\main.c" 1
 442 0002 72B6     		CPSID   i
 443              	@ 0 "" 2
 278:.\main.c      ****     CyBle_Stop();
 444              		.loc 1 278 0
 445              		.code	16
 446 0004 FFF7FEFF 		bl	CyBle_Stop
 447              	.LVL49:
 280:.\main.c      ****     PrISM_1_WritePulse0(RGB_LED_OFF);
 448              		.loc 1 280 0
 449 0008 FF20     		mov	r0, #255
 450 000a FFF7FEFF 		bl	PrISM_1_WritePulse0
 451              	.LVL50:
 281:.\main.c      ****     PrISM_1_WritePulse1(RGB_LED_OFF);
 452              		.loc 1 281 0
 453 000e FF20     		mov	r0, #255
 454 0010 FFF7FEFF 		bl	PrISM_1_WritePulse1
 455              	.LVL51:
 282:.\main.c      ****     PrISM_2_WritePulse0(RGB_LED_OFF);
 456              		.loc 1 282 0
 457 0014 FF20     		mov	r0, #255
 458 0016 FFF7FEFF 		bl	PrISM_2_WritePulse0
 459              	.LVL52:
 284:.\main.c      **** }
 460              		.loc 1 284 0
 461              		@ sp needed
 462 001a 08BD     		pop	{r3, pc}
 463              		.cfi_endproc
 464              	.LFE39:
 465              		.size	stopSystem, .-stopSystem
 466              		.section	.text.main,"ax",%progbits
 467              		.align	2
 468              		.global	main
 469              		.code	16
 470              		.thumb_func
 471              		.type	main, %function
 472              	main:
 473              	.LFB35:
  31:.\main.c      **** {
 474              		.loc 1 31 0
 475              		.cfi_startproc
 476 0000 F0B5     		push	{r4, r5, r6, r7, lr}
 477              		.cfi_def_cfa_offset 20
 478              		.cfi_offset 4, -20
ARM GAS  C:\Users\JOHNSO~1\AppData\Local\Temp\ccEYW2GY.s 			page 15


 479              		.cfi_offset 5, -16
 480              		.cfi_offset 6, -12
 481              		.cfi_offset 7, -8
 482              		.cfi_offset 14, -4
 483 0002 4746     		mov	r7, r8
 484 0004 80B4     		push	{r7}
 485              		.cfi_def_cfa_offset 24
 486              		.cfi_offset 8, -24
  32:.\main.c      ****     CyGlobalIntEnable;   /* Enable global interrupts */
 487              		.loc 1 32 0
 488              	@ 32 ".\main.c" 1
 489 0006 62B6     		CPSIE   i
 490              	@ 0 "" 2
  37:.\main.c      ****         PrISM_1_Start();
 491              		.loc 1 37 0
 492              		.code	16
 493 0008 FFF7FEFF 		bl	PrISM_1_Start
 494              	.LVL53:
  38:.\main.c      ****          PrISM_2_Start();
 495              		.loc 1 38 0
 496 000c FFF7FEFF 		bl	PrISM_2_Start
 497              	.LVL54:
  40:.\main.c      ****         PrISM_1_WritePulse0(RGB_LED_OFF);
 498              		.loc 1 40 0
 499 0010 FF20     		mov	r0, #255
 500 0012 FFF7FEFF 		bl	PrISM_1_WritePulse0
 501              	.LVL55:
  41:.\main.c      ****          PrISM_1_WritePulse1(RGB_LED_OFF);
 502              		.loc 1 41 0
 503 0016 FF20     		mov	r0, #255
 504 0018 FFF7FEFF 		bl	PrISM_1_WritePulse1
 505              	.LVL56:
  42:.\main.c      ****          PrISM_2_WritePulse0(RGB_LED_OFF);
 506              		.loc 1 42 0
 507 001c FF20     		mov	r0, #255
 508 001e FFF7FEFF 		bl	PrISM_2_WritePulse0
 509              	.LVL57:
  44:.\main.c      ****         RED_SetDriveMode(RED_DM_STRONG);
 510              		.loc 1 44 0
 511 0022 0620     		mov	r0, #6
 512 0024 FFF7FEFF 		bl	RED_SetDriveMode
 513              	.LVL58:
  45:.\main.c      ****         GREEN_SetDriveMode(GREEN_DM_STRONG);
 514              		.loc 1 45 0
 515 0028 0620     		mov	r0, #6
 516 002a FFF7FEFF 		bl	GREEN_SetDriveMode
 517              	.LVL59:
  46:.\main.c      ****          BLUE_SetDriveMode(BLUE_DM_STRONG);
 518              		.loc 1 46 0
 519 002e 0620     		mov	r0, #6
 520 0030 FFF7FEFF 		bl	BLUE_SetDriveMode
 521              	.LVL60:
  47:.\main.c      ****     systemState = init;
 522              		.loc 1 47 0
 523 0034 0022     		mov	r2, #0
 524 0036 204B     		ldr	r3, .L43
 525 0038 1A70     		strb	r2, [r3]
ARM GAS  C:\Users\JOHNSO~1\AppData\Local\Temp\ccEYW2GY.s 			page 16


  55:.\main.c      ****         switch(systemState){
 526              		.loc 1 55 0
 527 003a 1E1C     		mov	r6, r3
 528 003c 1F4A     		ldr	r2, .L43+4
 529 003e 9046     		mov	r8, r2
  67:.\main.c      ****             while(commandReceived == 0){
 530              		.loc 1 67 0
 531 0040 1F4D     		ldr	r5, .L43+8
 532              	.L42:
  55:.\main.c      ****         switch(systemState){
 533              		.loc 1 55 0
 534 0042 3378     		ldrb	r3, [r6]
 535 0044 042B     		cmp	r3, #4
 536 0046 FCD8     		bhi	.L42
 537 0048 9B00     		lsl	r3, r3, #2
 538 004a 4246     		mov	r2, r8
 539 004c D358     		ldr	r3, [r2, r3]
 540 004e 9F46     		mov	pc, r3
 541              		.section	.rodata
 542              		.align	2
 543              	.L31:
 544 0000 50000000 		.word	.L30
 545 0004 80000000 		.word	.L32
 546 0008 9C000000 		.word	.L33
 547 000c AA000000 		.word	.L34
 548 0010 B0000000 		.word	.L35
 549              		.section	.text.main
 550              	.L30:
  57:.\main.c      ****             initialize();
 551              		.loc 1 57 0
 552 0050 FFF7FEFF 		bl	initialize
 553              	.LVL61:
  58:.\main.c      ****             systemState = waitForCommand;
 554              		.loc 1 58 0
 555 0054 0122     		mov	r2, #1
 556 0056 184B     		ldr	r3, .L43
 557 0058 1A70     		strb	r2, [r3]
  59:.\main.c      ****             break;
 558              		.loc 1 59 0
 559 005a F2E7     		b	.L42
 560              	.L39:
  68:.\main.c      ****             CyBle_ProcessEvents();
 561              		.loc 1 68 0
 562 005c FFF7FEFF 		bl	CyBle_ProcessEvents
 563              	.LVL62:
  69:.\main.c      ****             if(STOP == 1){ //check first
 564              		.loc 1 69 0
 565 0060 0023     		mov	r3, #0
 566 0062 E356     		ldrsb	r3, [r4, r3]
 567 0064 012B     		cmp	r3, #1
 568 0066 03D1     		bne	.L37
  70:.\main.c      ****                 systemState = stop; 
 569              		.loc 1 70 0
 570 0068 0422     		mov	r2, #4
 571 006a 134B     		ldr	r3, .L43
 572 006c 1A70     		strb	r2, [r3]
  71:.\main.c      ****                 break;
ARM GAS  C:\Users\JOHNSO~1\AppData\Local\Temp\ccEYW2GY.s 			page 17


 573              		.loc 1 71 0
 574 006e 0CE0     		b	.L38
 575              	.L37:
  73:.\main.c      ****             else if(RESET == 1){ //chec 
 576              		.loc 1 73 0
 577 0070 0023     		mov	r3, #0
 578 0072 FB56     		ldrsb	r3, [r7, r3]
 579 0074 012B     		cmp	r3, #1
 580 0076 05D1     		bne	.L40
  74:.\main.c      ****                 systemState = reset;
 581              		.loc 1 74 0
 582 0078 0322     		mov	r2, #3
 583 007a 0F4B     		ldr	r3, .L43
 584 007c 1A70     		strb	r2, [r3]
  75:.\main.c      ****                 break;
 585              		.loc 1 75 0
 586 007e 04E0     		b	.L38
 587              	.L32:
  69:.\main.c      ****             if(STOP == 1){ //check first
 588              		.loc 1 69 0 discriminator 1
 589 0080 104C     		ldr	r4, .L43+12
  73:.\main.c      ****             else if(RESET == 1){ //chec 
 590              		.loc 1 73 0 discriminator 1
 591 0082 114F     		ldr	r7, .L43+16
 592              	.L40:
  67:.\main.c      ****             while(commandReceived == 0){
 593              		.loc 1 67 0 discriminator 1
 594 0084 2B78     		ldrb	r3, [r5]
 595 0086 002B     		cmp	r3, #0
 596 0088 E8D0     		beq	.L39
 597              	.L38:
  78:.\main.c      ****                 if(commandReceived == 1){
 598              		.loc 1 78 0
 599 008a 0D4B     		ldr	r3, .L43+8
 600 008c 1B78     		ldrb	r3, [r3]
 601 008e 5BB2     		sxtb	r3, r3
 602 0090 012B     		cmp	r3, #1
 603 0092 D6D1     		bne	.L42
  79:.\main.c      ****                     systemState = sendCommand;
 604              		.loc 1 79 0
 605 0094 0222     		mov	r2, #2
 606 0096 084B     		ldr	r3, .L43
 607 0098 1A70     		strb	r2, [r3]
 608 009a D2E7     		b	.L42
 609              	.L33:
  90:.\main.c      ****                 commandReceived = 0;
 610              		.loc 1 90 0
 611 009c 0022     		mov	r2, #0
 612 009e 084B     		ldr	r3, .L43+8
 613 00a0 1A70     		strb	r2, [r3]
  92:.\main.c      ****                 systemState = waitForCommand; //for Now just go back to waiting for a command
 614              		.loc 1 92 0
 615 00a2 0122     		mov	r2, #1
 616 00a4 044B     		ldr	r3, .L43
 617 00a6 1A70     		strb	r2, [r3]
  93:.\main.c      ****             break;
 618              		.loc 1 93 0
ARM GAS  C:\Users\JOHNSO~1\AppData\Local\Temp\ccEYW2GY.s 			page 18


 619 00a8 CBE7     		b	.L42
 620              	.L34:
  96:.\main.c      ****             resetSystem();
 621              		.loc 1 96 0
 622 00aa FFF7FEFF 		bl	resetSystem
 623              	.LVL63:
  97:.\main.c      ****             break;
 624              		.loc 1 97 0
 625 00ae C8E7     		b	.L42
 626              	.L35:
 100:.\main.c      ****             stopSystem();
 627              		.loc 1 100 0
 628 00b0 FFF7FEFF 		bl	stopSystem
 629              	.LVL64:
 101:.\main.c      ****             break; 
 630              		.loc 1 101 0
 631 00b4 C5E7     		b	.L42
 632              	.L44:
 633 00b6 C046     		.align	2
 634              	.L43:
 635 00b8 00000000 		.word	systemState
 636 00bc 00000000 		.word	.L31
 637 00c0 00000000 		.word	commandReceived
 638 00c4 00000000 		.word	STOP
 639 00c8 00000000 		.word	RESET
 640              		.cfi_endproc
 641              	.LFE35:
 642              		.size	main, .-main
 643              		.global	result
 644              		.comm	CommandData,1,1
 645              		.comm	commandReceived,1,1
 646              		.comm	IDLE,1,1
 647              		.comm	RESET,1,1
 648              		.comm	STOP,1,1
 649              		.comm	systemState,1,1
 650              		.bss
 651              		.type	result, %object
 652              		.size	result, 1
 653              	result:
 654 0000 00       		.space	1
 655              		.text
 656              	.Letext0:
 657              		.file 2 "Generated_Source\\PSoC4/cytypes.h"
 658              		.file 3 "Generated_Source\\PSoC4/BLE_Stack.h"
 659              		.file 4 "Generated_Source\\PSoC4/BLE_StackGatt.h"
 660              		.file 5 "Generated_Source\\PSoC4/BLE_StackGattServer.h"
 661              		.file 6 "Generated_Source\\PSoC4/BLE.h"
 662              		.file 7 "Generated_Source\\PSoC4/BLE_eventHandler.h"
 663              		.file 8 "Generated_Source\\PSoC4/PrISM_1.h"
 664              		.file 9 "Generated_Source\\PSoC4/PrISM_2.h"
 665              		.file 10 ".\\BLEProcess.h"
 666              		.file 11 "Generated_Source\\PSoC4/EStopIn.h"
 667              		.file 12 "Generated_Source\\PSoC4/CyLib.h"
 668              		.file 13 "Generated_Source\\PSoC4/E_Stop.h"
 669              		.file 14 "Generated_Source\\PSoC4/RED.h"
 670              		.file 15 "Generated_Source\\PSoC4/GREEN.h"
 671              		.file 16 "Generated_Source\\PSoC4/BLUE.h"
ARM GAS  C:\Users\JOHNSO~1\AppData\Local\Temp\ccEYW2GY.s 			page 19


