ARM GAS  C:\Users\JOHNSO~1\AppData\Local\Temp\ccXnsYvW.s 			page 1


   1              		.cpu cortex-m0
   2              		.fpu softvfp
   3              		.eabi_attribute 20, 1
   4              		.eabi_attribute 21, 1
   5              		.eabi_attribute 23, 3
   6              		.eabi_attribute 24, 1
   7              		.eabi_attribute 25, 1
   8              		.eabi_attribute 26, 1
   9              		.eabi_attribute 30, 1
  10              		.eabi_attribute 34, 0
  11              		.eabi_attribute 18, 4
  12              		.code	16
  13              		.file	"PrISM_1.c"
  14              		.text
  15              	.Ltext0:
  16              		.cfi_sections	.debug_frame
  17              		.section	.text.PrISM_1_Enable,"ax",%progbits
  18              		.align	2
  19              		.global	PrISM_1_Enable
  20              		.code	16
  21              		.thumb_func
  22              		.type	PrISM_1_Enable, %function
  23              	PrISM_1_Enable:
  24              	.LFB4:
  25              		.file 1 ".\\Generated_Source\\PSoC4\\PrISM_1.c"
   1:.\Generated_Source\PSoC4/PrISM_1.c **** /*******************************************************************************
   2:.\Generated_Source\PSoC4/PrISM_1.c **** * File Name: PrISM_1.c
   3:.\Generated_Source\PSoC4/PrISM_1.c **** * Version 2.20
   4:.\Generated_Source\PSoC4/PrISM_1.c **** *
   5:.\Generated_Source\PSoC4/PrISM_1.c **** * Description:
   6:.\Generated_Source\PSoC4/PrISM_1.c **** *  This file provides the source code of the API for the PrISM Component.
   7:.\Generated_Source\PSoC4/PrISM_1.c **** *
   8:.\Generated_Source\PSoC4/PrISM_1.c **** * Note:
   9:.\Generated_Source\PSoC4/PrISM_1.c **** *  The PRiSM Component consists of a 8, 16, 24, 32 - bit PrISM, it
  10:.\Generated_Source\PSoC4/PrISM_1.c **** *  depends on length Polynomial value and user selected Seed Value. 
  11:.\Generated_Source\PSoC4/PrISM_1.c **** *
  12:.\Generated_Source\PSoC4/PrISM_1.c **** ********************************************************************************
  13:.\Generated_Source\PSoC4/PrISM_1.c **** * Copyright 2008-2012, Cypress Semiconductor Corporation.  All rights reserved.
  14:.\Generated_Source\PSoC4/PrISM_1.c **** * You may use this file only in accordance with the license, terms, conditions, 
  15:.\Generated_Source\PSoC4/PrISM_1.c **** * disclaimers, and limitations in the end user license agreement accompanying 
  16:.\Generated_Source\PSoC4/PrISM_1.c **** * the software package with which this file was provided.
  17:.\Generated_Source\PSoC4/PrISM_1.c **** *******************************************************************************/
  18:.\Generated_Source\PSoC4/PrISM_1.c **** 
  19:.\Generated_Source\PSoC4/PrISM_1.c **** #include "PrISM_1.h"
  20:.\Generated_Source\PSoC4/PrISM_1.c **** 
  21:.\Generated_Source\PSoC4/PrISM_1.c **** 
  22:.\Generated_Source\PSoC4/PrISM_1.c **** /***************************************
  23:.\Generated_Source\PSoC4/PrISM_1.c **** * Local data allocation
  24:.\Generated_Source\PSoC4/PrISM_1.c **** ***************************************/
  25:.\Generated_Source\PSoC4/PrISM_1.c **** 
  26:.\Generated_Source\PSoC4/PrISM_1.c **** uint8 PrISM_1_initVar = 0u;
  27:.\Generated_Source\PSoC4/PrISM_1.c **** 
  28:.\Generated_Source\PSoC4/PrISM_1.c **** 
  29:.\Generated_Source\PSoC4/PrISM_1.c **** /*******************************************************************************
  30:.\Generated_Source\PSoC4/PrISM_1.c **** * FUNCTION NAME:   PrISM_1_Start
  31:.\Generated_Source\PSoC4/PrISM_1.c **** ********************************************************************************
  32:.\Generated_Source\PSoC4/PrISM_1.c **** *
ARM GAS  C:\Users\JOHNSO~1\AppData\Local\Temp\ccXnsYvW.s 			page 2


  33:.\Generated_Source\PSoC4/PrISM_1.c **** * Summary:
  34:.\Generated_Source\PSoC4/PrISM_1.c **** *  The start function sets Polynomial, Seed and Pulse Density registers provided
  35:.\Generated_Source\PSoC4/PrISM_1.c **** *  by customizer. PrISM computation starts on rising edge of input clock.
  36:.\Generated_Source\PSoC4/PrISM_1.c **** *
  37:.\Generated_Source\PSoC4/PrISM_1.c **** * Parameters:  
  38:.\Generated_Source\PSoC4/PrISM_1.c **** *  None.
  39:.\Generated_Source\PSoC4/PrISM_1.c **** *
  40:.\Generated_Source\PSoC4/PrISM_1.c **** * Return:  
  41:.\Generated_Source\PSoC4/PrISM_1.c **** *  None.
  42:.\Generated_Source\PSoC4/PrISM_1.c **** *
  43:.\Generated_Source\PSoC4/PrISM_1.c **** * Global variables:
  44:.\Generated_Source\PSoC4/PrISM_1.c **** *  The PrISM_1_initVar variable is used to indicate initial
  45:.\Generated_Source\PSoC4/PrISM_1.c **** *  configuration of this component.  The variable is initialized to zero and
  46:.\Generated_Source\PSoC4/PrISM_1.c **** *  set to 1 the first time PrISM_1_Start() is called. This allows for
  47:.\Generated_Source\PSoC4/PrISM_1.c **** *  component initialization without re-initialization in all subsequent calls
  48:.\Generated_Source\PSoC4/PrISM_1.c **** *  to the PrISM_1_Start() routine. 
  49:.\Generated_Source\PSoC4/PrISM_1.c **** 
  50:.\Generated_Source\PSoC4/PrISM_1.c **** * Reentrant:
  51:.\Generated_Source\PSoC4/PrISM_1.c **** *  No.
  52:.\Generated_Source\PSoC4/PrISM_1.c **** *
  53:.\Generated_Source\PSoC4/PrISM_1.c **** *******************************************************************************/
  54:.\Generated_Source\PSoC4/PrISM_1.c **** void PrISM_1_Start(void) 
  55:.\Generated_Source\PSoC4/PrISM_1.c **** {
  56:.\Generated_Source\PSoC4/PrISM_1.c ****     /* If not Initialized then initialize all required hardware and software */
  57:.\Generated_Source\PSoC4/PrISM_1.c ****     if(PrISM_1_initVar == 0u)
  58:.\Generated_Source\PSoC4/PrISM_1.c ****     {
  59:.\Generated_Source\PSoC4/PrISM_1.c ****         PrISM_1_Init();
  60:.\Generated_Source\PSoC4/PrISM_1.c ****         PrISM_1_initVar = 1u;
  61:.\Generated_Source\PSoC4/PrISM_1.c ****     }
  62:.\Generated_Source\PSoC4/PrISM_1.c ****     PrISM_1_Enable();
  63:.\Generated_Source\PSoC4/PrISM_1.c **** }
  64:.\Generated_Source\PSoC4/PrISM_1.c **** 
  65:.\Generated_Source\PSoC4/PrISM_1.c **** 
  66:.\Generated_Source\PSoC4/PrISM_1.c **** /*******************************************************************************
  67:.\Generated_Source\PSoC4/PrISM_1.c **** * Function Name: PrISM_1_Init
  68:.\Generated_Source\PSoC4/PrISM_1.c **** ********************************************************************************
  69:.\Generated_Source\PSoC4/PrISM_1.c **** *
  70:.\Generated_Source\PSoC4/PrISM_1.c **** * Summary:
  71:.\Generated_Source\PSoC4/PrISM_1.c **** *  Initialize component's parameters to the parameters set by user in the 
  72:.\Generated_Source\PSoC4/PrISM_1.c **** *  customizer of the component placed onto schematic. Usually called in 
  73:.\Generated_Source\PSoC4/PrISM_1.c **** *  PrISM_1_Start().
  74:.\Generated_Source\PSoC4/PrISM_1.c **** *
  75:.\Generated_Source\PSoC4/PrISM_1.c **** * Parameters:  
  76:.\Generated_Source\PSoC4/PrISM_1.c **** *  None.
  77:.\Generated_Source\PSoC4/PrISM_1.c **** *
  78:.\Generated_Source\PSoC4/PrISM_1.c **** * Return: 
  79:.\Generated_Source\PSoC4/PrISM_1.c **** *  None.
  80:.\Generated_Source\PSoC4/PrISM_1.c **** *
  81:.\Generated_Source\PSoC4/PrISM_1.c **** *******************************************************************************/
  82:.\Generated_Source\PSoC4/PrISM_1.c **** void PrISM_1_Init(void) 
  83:.\Generated_Source\PSoC4/PrISM_1.c **** {
  84:.\Generated_Source\PSoC4/PrISM_1.c ****     uint8 enableInterrupts;
  85:.\Generated_Source\PSoC4/PrISM_1.c ****     
  86:.\Generated_Source\PSoC4/PrISM_1.c ****     /* Writes Seed value, polynom value and density provided by customizer */
  87:.\Generated_Source\PSoC4/PrISM_1.c ****     PrISM_1_WriteSeed(PrISM_1_SEED);
  88:.\Generated_Source\PSoC4/PrISM_1.c ****     PrISM_1_WritePolynomial(PrISM_1_POLYNOM);
  89:.\Generated_Source\PSoC4/PrISM_1.c ****     PrISM_1_WritePulse0(PrISM_1_DENSITY0);
ARM GAS  C:\Users\JOHNSO~1\AppData\Local\Temp\ccXnsYvW.s 			page 3


  90:.\Generated_Source\PSoC4/PrISM_1.c ****     PrISM_1_WritePulse1(PrISM_1_DENSITY1);
  91:.\Generated_Source\PSoC4/PrISM_1.c ****     
  92:.\Generated_Source\PSoC4/PrISM_1.c ****     enableInterrupts = CyEnterCriticalSection();
  93:.\Generated_Source\PSoC4/PrISM_1.c ****     /* Set FIFO0_CLR bit to use FIFO0 as a simple one-byte buffer*/
  94:.\Generated_Source\PSoC4/PrISM_1.c ****     CY_SET_REG8(PrISM_1_AUX_CONTROL_PTR, 
  95:.\Generated_Source\PSoC4/PrISM_1.c ****                         CY_GET_REG8(PrISM_1_AUX_CONTROL_PTR) | PrISM_1_FIFO0_CLR);
  96:.\Generated_Source\PSoC4/PrISM_1.c ****     CyExitCriticalSection(enableInterrupts);
  97:.\Generated_Source\PSoC4/PrISM_1.c ****     
  98:.\Generated_Source\PSoC4/PrISM_1.c ****     #if(!PrISM_1_PULSE_TYPE_HARDCODED)
  99:.\Generated_Source\PSoC4/PrISM_1.c ****         /* Writes density type provided by customizer */
 100:.\Generated_Source\PSoC4/PrISM_1.c ****         #if(PrISM_1_GREATERTHAN_OR_EQUAL == PrISM_1_COMPARE0)
 101:.\Generated_Source\PSoC4/PrISM_1.c ****             PrISM_1_CONTROL_REG |= PrISM_1_CTRL_COMPARE_TYPE0_GREATER_THAN_OR_EQUAL;
 102:.\Generated_Source\PSoC4/PrISM_1.c ****         #else
 103:.\Generated_Source\PSoC4/PrISM_1.c ****             PrISM_1_CONTROL_REG &= (uint8)~PrISM_1_CTRL_COMPARE_TYPE0_GREATER_THAN_OR_EQUAL;
 104:.\Generated_Source\PSoC4/PrISM_1.c ****         #endif /* End PrISM_1_COMPARE0 */    
 105:.\Generated_Source\PSoC4/PrISM_1.c ****     
 106:.\Generated_Source\PSoC4/PrISM_1.c ****         #if(PrISM_1_GREATERTHAN_OR_EQUAL == PrISM_1_COMPARE1)
 107:.\Generated_Source\PSoC4/PrISM_1.c ****             PrISM_1_CONTROL_REG |= PrISM_1_CTRL_COMPARE_TYPE1_GREATER_THAN_OR_EQUAL;
 108:.\Generated_Source\PSoC4/PrISM_1.c ****         #else
 109:.\Generated_Source\PSoC4/PrISM_1.c ****             PrISM_1_CONTROL_REG &= (uint8)~PrISM_1_CTRL_COMPARE_TYPE1_GREATER_THAN_OR_EQUAL;
 110:.\Generated_Source\PSoC4/PrISM_1.c ****         #endif /* End PrISM_1_COMPARE1 */    
 111:.\Generated_Source\PSoC4/PrISM_1.c ****     #endif /* End PrISM_1_PULSE_TYPE_HARDCODED */
 112:.\Generated_Source\PSoC4/PrISM_1.c **** }
 113:.\Generated_Source\PSoC4/PrISM_1.c **** 
 114:.\Generated_Source\PSoC4/PrISM_1.c **** 
 115:.\Generated_Source\PSoC4/PrISM_1.c **** /*******************************************************************************
 116:.\Generated_Source\PSoC4/PrISM_1.c **** * Function Name: PrISM_1_Enable
 117:.\Generated_Source\PSoC4/PrISM_1.c **** ********************************************************************************
 118:.\Generated_Source\PSoC4/PrISM_1.c **** *  
 119:.\Generated_Source\PSoC4/PrISM_1.c **** * Summary: 
 120:.\Generated_Source\PSoC4/PrISM_1.c **** *  Enables the PrISM block operation
 121:.\Generated_Source\PSoC4/PrISM_1.c **** *
 122:.\Generated_Source\PSoC4/PrISM_1.c **** * Parameters:  
 123:.\Generated_Source\PSoC4/PrISM_1.c **** *  None.
 124:.\Generated_Source\PSoC4/PrISM_1.c **** *
 125:.\Generated_Source\PSoC4/PrISM_1.c **** * Return: 
 126:.\Generated_Source\PSoC4/PrISM_1.c **** *  None.
 127:.\Generated_Source\PSoC4/PrISM_1.c **** *
 128:.\Generated_Source\PSoC4/PrISM_1.c **** *******************************************************************************/
 129:.\Generated_Source\PSoC4/PrISM_1.c **** void PrISM_1_Enable(void) 
 130:.\Generated_Source\PSoC4/PrISM_1.c **** {
  26              		.loc 1 130 0
  27              		.cfi_startproc
 131:.\Generated_Source\PSoC4/PrISM_1.c ****     #if(!PrISM_1_PULSE_TYPE_HARDCODED)
 132:.\Generated_Source\PSoC4/PrISM_1.c ****         /* Enable the PrISM computation */
 133:.\Generated_Source\PSoC4/PrISM_1.c ****         PrISM_1_CONTROL_REG |= PrISM_1_CTRL_ENABLE;
  28              		.loc 1 133 0
  29 0000 024B     		ldr	r3, .L2
  30 0002 1978     		ldrb	r1, [r3]
  31 0004 0122     		mov	r2, #1
  32 0006 0A43     		orr	r2, r1
  33 0008 1A70     		strb	r2, [r3]
 134:.\Generated_Source\PSoC4/PrISM_1.c ****     #endif /* End PrISM_1_PULSE_TYPE_HARDCODED */
 135:.\Generated_Source\PSoC4/PrISM_1.c **** }
  34              		.loc 1 135 0
  35              		@ sp needed
  36 000a 7047     		bx	lr
ARM GAS  C:\Users\JOHNSO~1\AppData\Local\Temp\ccXnsYvW.s 			page 4


  37              	.L3:
  38              		.align	2
  39              	.L2:
  40 000c 73000F40 		.word	1074724979
  41              		.cfi_endproc
  42              	.LFE4:
  43              		.size	PrISM_1_Enable, .-PrISM_1_Enable
  44              		.section	.text.PrISM_1_Stop,"ax",%progbits
  45              		.align	2
  46              		.global	PrISM_1_Stop
  47              		.code	16
  48              		.thumb_func
  49              		.type	PrISM_1_Stop, %function
  50              	PrISM_1_Stop:
  51              	.LFB5:
 136:.\Generated_Source\PSoC4/PrISM_1.c **** 
 137:.\Generated_Source\PSoC4/PrISM_1.c **** 
 138:.\Generated_Source\PSoC4/PrISM_1.c **** /*******************************************************************************
 139:.\Generated_Source\PSoC4/PrISM_1.c **** * FUNCTION NAME:   PrISM_1_Stop
 140:.\Generated_Source\PSoC4/PrISM_1.c **** ********************************************************************************
 141:.\Generated_Source\PSoC4/PrISM_1.c **** *
 142:.\Generated_Source\PSoC4/PrISM_1.c **** * Summary:
 143:.\Generated_Source\PSoC4/PrISM_1.c **** *  Stops PrISM computation. Outputs remain constant.
 144:.\Generated_Source\PSoC4/PrISM_1.c **** *
 145:.\Generated_Source\PSoC4/PrISM_1.c **** * Parameters:  
 146:.\Generated_Source\PSoC4/PrISM_1.c **** *  None.
 147:.\Generated_Source\PSoC4/PrISM_1.c **** *
 148:.\Generated_Source\PSoC4/PrISM_1.c **** * Return: 
 149:.\Generated_Source\PSoC4/PrISM_1.c **** *  None.
 150:.\Generated_Source\PSoC4/PrISM_1.c **** *
 151:.\Generated_Source\PSoC4/PrISM_1.c **** *******************************************************************************/
 152:.\Generated_Source\PSoC4/PrISM_1.c **** void PrISM_1_Stop(void) 
 153:.\Generated_Source\PSoC4/PrISM_1.c **** {
  52              		.loc 1 153 0
  53              		.cfi_startproc
 154:.\Generated_Source\PSoC4/PrISM_1.c ****     #if(!PrISM_1_PULSE_TYPE_HARDCODED)
 155:.\Generated_Source\PSoC4/PrISM_1.c ****         PrISM_1_CONTROL_REG &= (uint8)~PrISM_1_CTRL_ENABLE;
  54              		.loc 1 155 0
  55 0000 024B     		ldr	r3, .L5
  56 0002 1A78     		ldrb	r2, [r3]
  57 0004 0121     		mov	r1, #1
  58 0006 8A43     		bic	r2, r1
  59 0008 1A70     		strb	r2, [r3]
 156:.\Generated_Source\PSoC4/PrISM_1.c ****     #else
 157:.\Generated_Source\PSoC4/PrISM_1.c ****         /* PulseTypeHardoded option enabled - to stop PrISM use enable input */
 158:.\Generated_Source\PSoC4/PrISM_1.c ****     #endif /* End $INSTANCE_NAME`_PULSE_TYPE_HARDCODED */
 159:.\Generated_Source\PSoC4/PrISM_1.c **** }
  60              		.loc 1 159 0
  61              		@ sp needed
  62 000a 7047     		bx	lr
  63              	.L6:
  64              		.align	2
  65              	.L5:
  66 000c 73000F40 		.word	1074724979
  67              		.cfi_endproc
  68              	.LFE5:
  69              		.size	PrISM_1_Stop, .-PrISM_1_Stop
ARM GAS  C:\Users\JOHNSO~1\AppData\Local\Temp\ccXnsYvW.s 			page 5


  70              		.section	.text.PrISM_1_SetPulse0Mode,"ax",%progbits
  71              		.align	2
  72              		.global	PrISM_1_SetPulse0Mode
  73              		.code	16
  74              		.thumb_func
  75              		.type	PrISM_1_SetPulse0Mode, %function
  76              	PrISM_1_SetPulse0Mode:
  77              	.LFB6:
 160:.\Generated_Source\PSoC4/PrISM_1.c **** 
 161:.\Generated_Source\PSoC4/PrISM_1.c **** #if(!PrISM_1_PULSE_TYPE_HARDCODED)
 162:.\Generated_Source\PSoC4/PrISM_1.c **** 
 163:.\Generated_Source\PSoC4/PrISM_1.c **** 
 164:.\Generated_Source\PSoC4/PrISM_1.c ****     /***************************************************************************
 165:.\Generated_Source\PSoC4/PrISM_1.c ****     * FUNCTION NAME:     PrISM_1_SetPulse0Mode
 166:.\Generated_Source\PSoC4/PrISM_1.c ****     ****************************************************************************
 167:.\Generated_Source\PSoC4/PrISM_1.c ****     *
 168:.\Generated_Source\PSoC4/PrISM_1.c ****     * Summary:
 169:.\Generated_Source\PSoC4/PrISM_1.c ****     *  Sets the pulse density type for Density0. Less than or Equal(<=) or 
 170:.\Generated_Source\PSoC4/PrISM_1.c ****     *  Greater than or Equal(>=).
 171:.\Generated_Source\PSoC4/PrISM_1.c ****     *
 172:.\Generated_Source\PSoC4/PrISM_1.c ****     * Parameters:
 173:.\Generated_Source\PSoC4/PrISM_1.c ****     *  pulse0Type: Selected pulse density type.
 174:.\Generated_Source\PSoC4/PrISM_1.c ****     *
 175:.\Generated_Source\PSoC4/PrISM_1.c ****     * Return:
 176:.\Generated_Source\PSoC4/PrISM_1.c ****     *  None.
 177:.\Generated_Source\PSoC4/PrISM_1.c ****     *
 178:.\Generated_Source\PSoC4/PrISM_1.c ****     ***************************************************************************/
 179:.\Generated_Source\PSoC4/PrISM_1.c ****     void PrISM_1_SetPulse0Mode(uint8 pulse0Type) 
 180:.\Generated_Source\PSoC4/PrISM_1.c ****     {
  78              		.loc 1 180 0
  79              		.cfi_startproc
  80              	.LVL0:
 181:.\Generated_Source\PSoC4/PrISM_1.c ****         if(pulse0Type == PrISM_1_GREATERTHAN_OR_EQUAL)
  81              		.loc 1 181 0
  82 0000 0128     		cmp	r0, #1
  83 0002 05D1     		bne	.L8
 182:.\Generated_Source\PSoC4/PrISM_1.c ****         {
 183:.\Generated_Source\PSoC4/PrISM_1.c ****             PrISM_1_CONTROL_REG |= PrISM_1_CTRL_COMPARE_TYPE0_GREATER_THAN_OR_EQUAL;
  84              		.loc 1 183 0
  85 0004 054B     		ldr	r3, .L10
  86 0006 1978     		ldrb	r1, [r3]
  87 0008 0222     		mov	r2, #2
  88 000a 0A43     		orr	r2, r1
  89 000c 1A70     		strb	r2, [r3]
  90 000e 04E0     		b	.L7
  91              	.L8:
 184:.\Generated_Source\PSoC4/PrISM_1.c ****         }
 185:.\Generated_Source\PSoC4/PrISM_1.c ****         else
 186:.\Generated_Source\PSoC4/PrISM_1.c ****         {
 187:.\Generated_Source\PSoC4/PrISM_1.c ****             PrISM_1_CONTROL_REG &= (uint8)~PrISM_1_CTRL_COMPARE_TYPE0_GREATER_THAN_OR_EQUAL;
  92              		.loc 1 187 0
  93 0010 024B     		ldr	r3, .L10
  94 0012 1A78     		ldrb	r2, [r3]
  95 0014 0221     		mov	r1, #2
  96 0016 8A43     		bic	r2, r1
  97 0018 1A70     		strb	r2, [r3]
  98              	.L7:
ARM GAS  C:\Users\JOHNSO~1\AppData\Local\Temp\ccXnsYvW.s 			page 6


 188:.\Generated_Source\PSoC4/PrISM_1.c ****         }
 189:.\Generated_Source\PSoC4/PrISM_1.c ****     }
  99              		.loc 1 189 0
 100              		@ sp needed
 101 001a 7047     		bx	lr
 102              	.L11:
 103              		.align	2
 104              	.L10:
 105 001c 73000F40 		.word	1074724979
 106              		.cfi_endproc
 107              	.LFE6:
 108              		.size	PrISM_1_SetPulse0Mode, .-PrISM_1_SetPulse0Mode
 109              		.section	.text.PrISM_1_SetPulse1Mode,"ax",%progbits
 110              		.align	2
 111              		.global	PrISM_1_SetPulse1Mode
 112              		.code	16
 113              		.thumb_func
 114              		.type	PrISM_1_SetPulse1Mode, %function
 115              	PrISM_1_SetPulse1Mode:
 116              	.LFB7:
 190:.\Generated_Source\PSoC4/PrISM_1.c ****     
 191:.\Generated_Source\PSoC4/PrISM_1.c ****     
 192:.\Generated_Source\PSoC4/PrISM_1.c ****     /***************************************************************************
 193:.\Generated_Source\PSoC4/PrISM_1.c ****     * FUNCTION NAME:   PrISM_1_SetPulse1Mode
 194:.\Generated_Source\PSoC4/PrISM_1.c ****     ****************************************************************************
 195:.\Generated_Source\PSoC4/PrISM_1.c ****     *
 196:.\Generated_Source\PSoC4/PrISM_1.c ****     * Summary:
 197:.\Generated_Source\PSoC4/PrISM_1.c ****     *  Sets the pulse density type for Density1. Less than or Equal(<=) or 
 198:.\Generated_Source\PSoC4/PrISM_1.c ****     *  Greater than or Equal(>=).
 199:.\Generated_Source\PSoC4/PrISM_1.c ****     *
 200:.\Generated_Source\PSoC4/PrISM_1.c ****     * Parameters:  
 201:.\Generated_Source\PSoC4/PrISM_1.c ****     *  pulse1Type: Selected pulse density type.
 202:.\Generated_Source\PSoC4/PrISM_1.c ****     *
 203:.\Generated_Source\PSoC4/PrISM_1.c ****     * Return:
 204:.\Generated_Source\PSoC4/PrISM_1.c ****     *  None.
 205:.\Generated_Source\PSoC4/PrISM_1.c ****     *
 206:.\Generated_Source\PSoC4/PrISM_1.c ****     ***************************************************************************/
 207:.\Generated_Source\PSoC4/PrISM_1.c ****     void PrISM_1_SetPulse1Mode(uint8 pulse1Type) 
 208:.\Generated_Source\PSoC4/PrISM_1.c ****     {
 117              		.loc 1 208 0
 118              		.cfi_startproc
 119              	.LVL1:
 209:.\Generated_Source\PSoC4/PrISM_1.c ****         if(pulse1Type == PrISM_1_GREATERTHAN_OR_EQUAL)
 120              		.loc 1 209 0
 121 0000 0128     		cmp	r0, #1
 122 0002 05D1     		bne	.L13
 210:.\Generated_Source\PSoC4/PrISM_1.c ****         {
 211:.\Generated_Source\PSoC4/PrISM_1.c ****             PrISM_1_CONTROL_REG |= PrISM_1_CTRL_COMPARE_TYPE1_GREATER_THAN_OR_EQUAL;
 123              		.loc 1 211 0
 124 0004 054B     		ldr	r3, .L15
 125 0006 1978     		ldrb	r1, [r3]
 126 0008 0422     		mov	r2, #4
 127 000a 0A43     		orr	r2, r1
 128 000c 1A70     		strb	r2, [r3]
 129 000e 04E0     		b	.L12
 130              	.L13:
 212:.\Generated_Source\PSoC4/PrISM_1.c ****         }
ARM GAS  C:\Users\JOHNSO~1\AppData\Local\Temp\ccXnsYvW.s 			page 7


 213:.\Generated_Source\PSoC4/PrISM_1.c ****         else
 214:.\Generated_Source\PSoC4/PrISM_1.c ****         {
 215:.\Generated_Source\PSoC4/PrISM_1.c ****             PrISM_1_CONTROL_REG &= (uint8)~PrISM_1_CTRL_COMPARE_TYPE1_GREATER_THAN_OR_EQUAL;
 131              		.loc 1 215 0
 132 0010 024B     		ldr	r3, .L15
 133 0012 1A78     		ldrb	r2, [r3]
 134 0014 0421     		mov	r1, #4
 135 0016 8A43     		bic	r2, r1
 136 0018 1A70     		strb	r2, [r3]
 137              	.L12:
 216:.\Generated_Source\PSoC4/PrISM_1.c ****         }
 217:.\Generated_Source\PSoC4/PrISM_1.c ****     }
 138              		.loc 1 217 0
 139              		@ sp needed
 140 001a 7047     		bx	lr
 141              	.L16:
 142              		.align	2
 143              	.L15:
 144 001c 73000F40 		.word	1074724979
 145              		.cfi_endproc
 146              	.LFE7:
 147              		.size	PrISM_1_SetPulse1Mode, .-PrISM_1_SetPulse1Mode
 148              		.section	.text.PrISM_1_ReadSeed,"ax",%progbits
 149              		.align	2
 150              		.global	PrISM_1_ReadSeed
 151              		.code	16
 152              		.thumb_func
 153              		.type	PrISM_1_ReadSeed, %function
 154              	PrISM_1_ReadSeed:
 155              	.LFB8:
 218:.\Generated_Source\PSoC4/PrISM_1.c **** 
 219:.\Generated_Source\PSoC4/PrISM_1.c **** #endif /* End PrISM_1_PULSE_TYPE_HARDCODED == 0 */
 220:.\Generated_Source\PSoC4/PrISM_1.c **** 
 221:.\Generated_Source\PSoC4/PrISM_1.c **** 
 222:.\Generated_Source\PSoC4/PrISM_1.c **** /*******************************************************************************
 223:.\Generated_Source\PSoC4/PrISM_1.c **** * FUNCTION NAME:   PrISM_1_ReadSeed
 224:.\Generated_Source\PSoC4/PrISM_1.c **** ********************************************************************************
 225:.\Generated_Source\PSoC4/PrISM_1.c **** *
 226:.\Generated_Source\PSoC4/PrISM_1.c **** * Summary:
 227:.\Generated_Source\PSoC4/PrISM_1.c **** *  Reads the PrISM Seed register.
 228:.\Generated_Source\PSoC4/PrISM_1.c **** *
 229:.\Generated_Source\PSoC4/PrISM_1.c **** * Parameters:
 230:.\Generated_Source\PSoC4/PrISM_1.c **** *  None.
 231:.\Generated_Source\PSoC4/PrISM_1.c **** *
 232:.\Generated_Source\PSoC4/PrISM_1.c **** * Return:
 233:.\Generated_Source\PSoC4/PrISM_1.c **** *  Current Period register value.
 234:.\Generated_Source\PSoC4/PrISM_1.c **** *
 235:.\Generated_Source\PSoC4/PrISM_1.c **** *******************************************************************************/
 236:.\Generated_Source\PSoC4/PrISM_1.c **** uint8 PrISM_1_ReadSeed(void) 
 237:.\Generated_Source\PSoC4/PrISM_1.c **** {
 156              		.loc 1 237 0
 157              		.cfi_startproc
 238:.\Generated_Source\PSoC4/PrISM_1.c ****     return( CY_GET_REG8(PrISM_1_SEED_PTR) );
 158              		.loc 1 238 0
 159 0000 014B     		ldr	r3, .L18
 160 0002 1878     		ldrb	r0, [r3]
 161 0004 C0B2     		uxtb	r0, r0
ARM GAS  C:\Users\JOHNSO~1\AppData\Local\Temp\ccXnsYvW.s 			page 8


 239:.\Generated_Source\PSoC4/PrISM_1.c **** }
 162              		.loc 1 239 0
 163              		@ sp needed
 164 0006 7047     		bx	lr
 165              	.L19:
 166              		.align	2
 167              	.L18:
 168 0008 03000F40 		.word	1074724867
 169              		.cfi_endproc
 170              	.LFE8:
 171              		.size	PrISM_1_ReadSeed, .-PrISM_1_ReadSeed
 172              		.section	.text.PrISM_1_WriteSeed,"ax",%progbits
 173              		.align	2
 174              		.global	PrISM_1_WriteSeed
 175              		.code	16
 176              		.thumb_func
 177              		.type	PrISM_1_WriteSeed, %function
 178              	PrISM_1_WriteSeed:
 179              	.LFB9:
 240:.\Generated_Source\PSoC4/PrISM_1.c **** 
 241:.\Generated_Source\PSoC4/PrISM_1.c **** 
 242:.\Generated_Source\PSoC4/PrISM_1.c **** /*******************************************************************************
 243:.\Generated_Source\PSoC4/PrISM_1.c **** * FUNCTION NAME:   PrISM_1_WriteSeed
 244:.\Generated_Source\PSoC4/PrISM_1.c **** ********************************************************************************
 245:.\Generated_Source\PSoC4/PrISM_1.c **** *
 246:.\Generated_Source\PSoC4/PrISM_1.c **** * Summary:
 247:.\Generated_Source\PSoC4/PrISM_1.c **** *  Writes the PrISM Seed register with the start value.
 248:.\Generated_Source\PSoC4/PrISM_1.c **** *
 249:.\Generated_Source\PSoC4/PrISM_1.c **** * Parameters:
 250:.\Generated_Source\PSoC4/PrISM_1.c **** *  seed: Seed register value.
 251:.\Generated_Source\PSoC4/PrISM_1.c **** *
 252:.\Generated_Source\PSoC4/PrISM_1.c **** * Return:
 253:.\Generated_Source\PSoC4/PrISM_1.c **** *  None.
 254:.\Generated_Source\PSoC4/PrISM_1.c **** *
 255:.\Generated_Source\PSoC4/PrISM_1.c **** *******************************************************************************/
 256:.\Generated_Source\PSoC4/PrISM_1.c **** void PrISM_1_WriteSeed(uint8 seed) 
 257:.\Generated_Source\PSoC4/PrISM_1.c **** {
 180              		.loc 1 257 0
 181              		.cfi_startproc
 182              	.LVL2:
 258:.\Generated_Source\PSoC4/PrISM_1.c ****     if(seed != 0u)
 183              		.loc 1 258 0
 184 0000 0028     		cmp	r0, #0
 185 0002 03D0     		beq	.L20
 259:.\Generated_Source\PSoC4/PrISM_1.c ****     {
 260:.\Generated_Source\PSoC4/PrISM_1.c ****         CY_SET_REG8(PrISM_1_SEED_COPY_PTR, seed);
 186              		.loc 1 260 0
 187 0004 024B     		ldr	r3, .L22
 188 0006 1870     		strb	r0, [r3]
 261:.\Generated_Source\PSoC4/PrISM_1.c ****         CY_SET_REG8(PrISM_1_SEED_PTR, seed);
 189              		.loc 1 261 0
 190 0008 024B     		ldr	r3, .L22+4
 191 000a 1870     		strb	r0, [r3]
 192              	.L20:
 262:.\Generated_Source\PSoC4/PrISM_1.c ****     }
 263:.\Generated_Source\PSoC4/PrISM_1.c **** }
 193              		.loc 1 263 0
ARM GAS  C:\Users\JOHNSO~1\AppData\Local\Temp\ccXnsYvW.s 			page 9


 194              		@ sp needed
 195 000c 7047     		bx	lr
 196              	.L23:
 197 000e C046     		.align	2
 198              	.L22:
 199 0010 43000F40 		.word	1074724931
 200 0014 03000F40 		.word	1074724867
 201              		.cfi_endproc
 202              	.LFE9:
 203              		.size	PrISM_1_WriteSeed, .-PrISM_1_WriteSeed
 204              		.section	.text.PrISM_1_ReadPolynomial,"ax",%progbits
 205              		.align	2
 206              		.global	PrISM_1_ReadPolynomial
 207              		.code	16
 208              		.thumb_func
 209              		.type	PrISM_1_ReadPolynomial, %function
 210              	PrISM_1_ReadPolynomial:
 211              	.LFB10:
 264:.\Generated_Source\PSoC4/PrISM_1.c **** 
 265:.\Generated_Source\PSoC4/PrISM_1.c **** 
 266:.\Generated_Source\PSoC4/PrISM_1.c **** /*******************************************************************************
 267:.\Generated_Source\PSoC4/PrISM_1.c **** * FUNCTION NAME:   PrISM_1_ReadPolynomial
 268:.\Generated_Source\PSoC4/PrISM_1.c **** ********************************************************************************
 269:.\Generated_Source\PSoC4/PrISM_1.c **** *
 270:.\Generated_Source\PSoC4/PrISM_1.c **** * Summary:
 271:.\Generated_Source\PSoC4/PrISM_1.c **** *  Reads the PrISM polynomial.
 272:.\Generated_Source\PSoC4/PrISM_1.c **** *
 273:.\Generated_Source\PSoC4/PrISM_1.c **** * Parameters:
 274:.\Generated_Source\PSoC4/PrISM_1.c **** *  None.
 275:.\Generated_Source\PSoC4/PrISM_1.c **** *
 276:.\Generated_Source\PSoC4/PrISM_1.c **** * Return:
 277:.\Generated_Source\PSoC4/PrISM_1.c **** *  PrISM polynomial.
 278:.\Generated_Source\PSoC4/PrISM_1.c **** *
 279:.\Generated_Source\PSoC4/PrISM_1.c **** *******************************************************************************/
 280:.\Generated_Source\PSoC4/PrISM_1.c **** uint8 PrISM_1_ReadPolynomial(void) 
 281:.\Generated_Source\PSoC4/PrISM_1.c **** {
 212              		.loc 1 281 0
 213              		.cfi_startproc
 282:.\Generated_Source\PSoC4/PrISM_1.c ****     return( CY_GET_REG8(PrISM_1_POLYNOM_PTR) );
 214              		.loc 1 282 0
 215 0000 014B     		ldr	r3, .L25
 216 0002 1878     		ldrb	r0, [r3]
 217 0004 C0B2     		uxtb	r0, r0
 283:.\Generated_Source\PSoC4/PrISM_1.c **** }
 218              		.loc 1 283 0
 219              		@ sp needed
 220 0006 7047     		bx	lr
 221              	.L26:
 222              		.align	2
 223              	.L25:
 224 0008 13000F40 		.word	1074724883
 225              		.cfi_endproc
 226              	.LFE10:
 227              		.size	PrISM_1_ReadPolynomial, .-PrISM_1_ReadPolynomial
 228              		.section	.text.PrISM_1_WritePolynomial,"ax",%progbits
 229              		.align	2
 230              		.global	PrISM_1_WritePolynomial
ARM GAS  C:\Users\JOHNSO~1\AppData\Local\Temp\ccXnsYvW.s 			page 10


 231              		.code	16
 232              		.thumb_func
 233              		.type	PrISM_1_WritePolynomial, %function
 234              	PrISM_1_WritePolynomial:
 235              	.LFB11:
 284:.\Generated_Source\PSoC4/PrISM_1.c **** 
 285:.\Generated_Source\PSoC4/PrISM_1.c **** 
 286:.\Generated_Source\PSoC4/PrISM_1.c **** /*******************************************************************************
 287:.\Generated_Source\PSoC4/PrISM_1.c **** * FUNCTION NAME:   PrISM_1_WritePolynomial
 288:.\Generated_Source\PSoC4/PrISM_1.c **** ********************************************************************************
 289:.\Generated_Source\PSoC4/PrISM_1.c **** *
 290:.\Generated_Source\PSoC4/PrISM_1.c **** * Summary:
 291:.\Generated_Source\PSoC4/PrISM_1.c **** *  Writes the PrISM polynomial.
 292:.\Generated_Source\PSoC4/PrISM_1.c **** *
 293:.\Generated_Source\PSoC4/PrISM_1.c **** * Parameters:
 294:.\Generated_Source\PSoC4/PrISM_1.c **** *  polynomial: PrISM polynomial.
 295:.\Generated_Source\PSoC4/PrISM_1.c **** *
 296:.\Generated_Source\PSoC4/PrISM_1.c **** * Return:
 297:.\Generated_Source\PSoC4/PrISM_1.c **** *  None.
 298:.\Generated_Source\PSoC4/PrISM_1.c **** *
 299:.\Generated_Source\PSoC4/PrISM_1.c **** *******************************************************************************/
 300:.\Generated_Source\PSoC4/PrISM_1.c **** void PrISM_1_WritePolynomial(uint8 polynomial) \
 301:.\Generated_Source\PSoC4/PrISM_1.c ****                                                                 
 302:.\Generated_Source\PSoC4/PrISM_1.c **** {
 236              		.loc 1 302 0
 237              		.cfi_startproc
 238              	.LVL3:
 303:.\Generated_Source\PSoC4/PrISM_1.c ****     CY_SET_REG8(PrISM_1_POLYNOM_PTR, polynomial);
 239              		.loc 1 303 0
 240 0000 014B     		ldr	r3, .L28
 241 0002 1870     		strb	r0, [r3]
 304:.\Generated_Source\PSoC4/PrISM_1.c ****     
 305:.\Generated_Source\PSoC4/PrISM_1.c **** }
 242              		.loc 1 305 0
 243              		@ sp needed
 244 0004 7047     		bx	lr
 245              	.L29:
 246 0006 C046     		.align	2
 247              	.L28:
 248 0008 13000F40 		.word	1074724883
 249              		.cfi_endproc
 250              	.LFE11:
 251              		.size	PrISM_1_WritePolynomial, .-PrISM_1_WritePolynomial
 252              		.section	.text.PrISM_1_ReadPulse0,"ax",%progbits
 253              		.align	2
 254              		.global	PrISM_1_ReadPulse0
 255              		.code	16
 256              		.thumb_func
 257              		.type	PrISM_1_ReadPulse0, %function
 258              	PrISM_1_ReadPulse0:
 259              	.LFB12:
 306:.\Generated_Source\PSoC4/PrISM_1.c **** 
 307:.\Generated_Source\PSoC4/PrISM_1.c **** 
 308:.\Generated_Source\PSoC4/PrISM_1.c **** /*******************************************************************************
 309:.\Generated_Source\PSoC4/PrISM_1.c **** * FUNCTION NAME:   PrISM_1_ReadPulse0
 310:.\Generated_Source\PSoC4/PrISM_1.c **** ********************************************************************************
 311:.\Generated_Source\PSoC4/PrISM_1.c **** *
ARM GAS  C:\Users\JOHNSO~1\AppData\Local\Temp\ccXnsYvW.s 			page 11


 312:.\Generated_Source\PSoC4/PrISM_1.c **** * Summary:
 313:.\Generated_Source\PSoC4/PrISM_1.c **** *  Reads the PrISM Pulse Density0 register.
 314:.\Generated_Source\PSoC4/PrISM_1.c **** *
 315:.\Generated_Source\PSoC4/PrISM_1.c **** * Parameters:
 316:.\Generated_Source\PSoC4/PrISM_1.c **** *  None.
 317:.\Generated_Source\PSoC4/PrISM_1.c **** *
 318:.\Generated_Source\PSoC4/PrISM_1.c **** * Return:
 319:.\Generated_Source\PSoC4/PrISM_1.c **** *  Pulse Density0 register value.
 320:.\Generated_Source\PSoC4/PrISM_1.c **** *
 321:.\Generated_Source\PSoC4/PrISM_1.c **** *******************************************************************************/
 322:.\Generated_Source\PSoC4/PrISM_1.c **** uint8 PrISM_1_ReadPulse0(void) 
 323:.\Generated_Source\PSoC4/PrISM_1.c **** {
 260              		.loc 1 323 0
 261              		.cfi_startproc
 324:.\Generated_Source\PSoC4/PrISM_1.c ****     return( CY_GET_REG8(PrISM_1_DENSITY0_PTR) );
 262              		.loc 1 324 0
 263 0000 014B     		ldr	r3, .L31
 264 0002 1878     		ldrb	r0, [r3]
 265 0004 C0B2     		uxtb	r0, r0
 325:.\Generated_Source\PSoC4/PrISM_1.c **** }
 266              		.loc 1 325 0
 267              		@ sp needed
 268 0006 7047     		bx	lr
 269              	.L32:
 270              		.align	2
 271              	.L31:
 272 0008 23000F40 		.word	1074724899
 273              		.cfi_endproc
 274              	.LFE12:
 275              		.size	PrISM_1_ReadPulse0, .-PrISM_1_ReadPulse0
 276              		.section	.text.PrISM_1_WritePulse0,"ax",%progbits
 277              		.align	2
 278              		.global	PrISM_1_WritePulse0
 279              		.code	16
 280              		.thumb_func
 281              		.type	PrISM_1_WritePulse0, %function
 282              	PrISM_1_WritePulse0:
 283              	.LFB13:
 326:.\Generated_Source\PSoC4/PrISM_1.c **** 
 327:.\Generated_Source\PSoC4/PrISM_1.c **** 
 328:.\Generated_Source\PSoC4/PrISM_1.c **** /*******************************************************************************
 329:.\Generated_Source\PSoC4/PrISM_1.c **** * FUNCTION NAME:   PrISM_1_WritePulse0
 330:.\Generated_Source\PSoC4/PrISM_1.c **** ********************************************************************************
 331:.\Generated_Source\PSoC4/PrISM_1.c **** *
 332:.\Generated_Source\PSoC4/PrISM_1.c **** * Summary:
 333:.\Generated_Source\PSoC4/PrISM_1.c **** *  Writes the PrISM Pulse Density0 register with the Pulse Density value.
 334:.\Generated_Source\PSoC4/PrISM_1.c **** *
 335:.\Generated_Source\PSoC4/PrISM_1.c **** * Parameters:
 336:.\Generated_Source\PSoC4/PrISM_1.c **** *  pulseDensity0: Pulse Density value.
 337:.\Generated_Source\PSoC4/PrISM_1.c **** *
 338:.\Generated_Source\PSoC4/PrISM_1.c **** * Return:
 339:.\Generated_Source\PSoC4/PrISM_1.c **** *  None.
 340:.\Generated_Source\PSoC4/PrISM_1.c **** *
 341:.\Generated_Source\PSoC4/PrISM_1.c **** *******************************************************************************/
 342:.\Generated_Source\PSoC4/PrISM_1.c **** void PrISM_1_WritePulse0(uint8 pulseDensity0) \
 343:.\Generated_Source\PSoC4/PrISM_1.c ****                                                                 
 344:.\Generated_Source\PSoC4/PrISM_1.c **** {
ARM GAS  C:\Users\JOHNSO~1\AppData\Local\Temp\ccXnsYvW.s 			page 12


 284              		.loc 1 344 0
 285              		.cfi_startproc
 286              	.LVL4:
 345:.\Generated_Source\PSoC4/PrISM_1.c ****     CY_SET_REG8(PrISM_1_DENSITY0_PTR, pulseDensity0);
 287              		.loc 1 345 0
 288 0000 014B     		ldr	r3, .L34
 289 0002 1870     		strb	r0, [r3]
 346:.\Generated_Source\PSoC4/PrISM_1.c **** }
 290              		.loc 1 346 0
 291              		@ sp needed
 292 0004 7047     		bx	lr
 293              	.L35:
 294 0006 C046     		.align	2
 295              	.L34:
 296 0008 23000F40 		.word	1074724899
 297              		.cfi_endproc
 298              	.LFE13:
 299              		.size	PrISM_1_WritePulse0, .-PrISM_1_WritePulse0
 300              		.section	.text.PrISM_1_ReadPulse1,"ax",%progbits
 301              		.align	2
 302              		.global	PrISM_1_ReadPulse1
 303              		.code	16
 304              		.thumb_func
 305              		.type	PrISM_1_ReadPulse1, %function
 306              	PrISM_1_ReadPulse1:
 307              	.LFB14:
 347:.\Generated_Source\PSoC4/PrISM_1.c **** 
 348:.\Generated_Source\PSoC4/PrISM_1.c **** 
 349:.\Generated_Source\PSoC4/PrISM_1.c **** /*******************************************************************************
 350:.\Generated_Source\PSoC4/PrISM_1.c **** * FUNCTION NAME:   PrISM_1_ReadPulse1
 351:.\Generated_Source\PSoC4/PrISM_1.c **** ********************************************************************************
 352:.\Generated_Source\PSoC4/PrISM_1.c **** *
 353:.\Generated_Source\PSoC4/PrISM_1.c **** * Summary:
 354:.\Generated_Source\PSoC4/PrISM_1.c **** *  Reads the PrISM Pulse Density1 register.
 355:.\Generated_Source\PSoC4/PrISM_1.c **** *
 356:.\Generated_Source\PSoC4/PrISM_1.c **** * Parameters:
 357:.\Generated_Source\PSoC4/PrISM_1.c **** *  None.
 358:.\Generated_Source\PSoC4/PrISM_1.c **** *
 359:.\Generated_Source\PSoC4/PrISM_1.c **** * Return:
 360:.\Generated_Source\PSoC4/PrISM_1.c **** *  Pulse Density1 register value.
 361:.\Generated_Source\PSoC4/PrISM_1.c **** *
 362:.\Generated_Source\PSoC4/PrISM_1.c **** *******************************************************************************/
 363:.\Generated_Source\PSoC4/PrISM_1.c **** uint8 PrISM_1_ReadPulse1(void) 
 364:.\Generated_Source\PSoC4/PrISM_1.c **** {
 308              		.loc 1 364 0
 309              		.cfi_startproc
 365:.\Generated_Source\PSoC4/PrISM_1.c ****     return( CY_GET_REG8(PrISM_1_DENSITY1_PTR) );
 310              		.loc 1 365 0
 311 0000 014B     		ldr	r3, .L37
 312 0002 1878     		ldrb	r0, [r3]
 313 0004 C0B2     		uxtb	r0, r0
 366:.\Generated_Source\PSoC4/PrISM_1.c **** }
 314              		.loc 1 366 0
 315              		@ sp needed
 316 0006 7047     		bx	lr
 317              	.L38:
 318              		.align	2
ARM GAS  C:\Users\JOHNSO~1\AppData\Local\Temp\ccXnsYvW.s 			page 13


 319              	.L37:
 320 0008 33000F40 		.word	1074724915
 321              		.cfi_endproc
 322              	.LFE14:
 323              		.size	PrISM_1_ReadPulse1, .-PrISM_1_ReadPulse1
 324              		.section	.text.PrISM_1_WritePulse1,"ax",%progbits
 325              		.align	2
 326              		.global	PrISM_1_WritePulse1
 327              		.code	16
 328              		.thumb_func
 329              		.type	PrISM_1_WritePulse1, %function
 330              	PrISM_1_WritePulse1:
 331              	.LFB15:
 367:.\Generated_Source\PSoC4/PrISM_1.c **** 
 368:.\Generated_Source\PSoC4/PrISM_1.c **** 
 369:.\Generated_Source\PSoC4/PrISM_1.c **** /*******************************************************************************
 370:.\Generated_Source\PSoC4/PrISM_1.c **** * FUNCTION NAME:   PrISM_1_WritePulse1
 371:.\Generated_Source\PSoC4/PrISM_1.c **** ********************************************************************************
 372:.\Generated_Source\PSoC4/PrISM_1.c **** *
 373:.\Generated_Source\PSoC4/PrISM_1.c **** * Summary:
 374:.\Generated_Source\PSoC4/PrISM_1.c **** *  Writes the PrISM Pulse Density1 register with the Pulse Density value.
 375:.\Generated_Source\PSoC4/PrISM_1.c **** *
 376:.\Generated_Source\PSoC4/PrISM_1.c **** * Parameters:
 377:.\Generated_Source\PSoC4/PrISM_1.c **** *  pulseDensity1: Pulse Density value.
 378:.\Generated_Source\PSoC4/PrISM_1.c **** *
 379:.\Generated_Source\PSoC4/PrISM_1.c **** * Return:
 380:.\Generated_Source\PSoC4/PrISM_1.c **** *  None.
 381:.\Generated_Source\PSoC4/PrISM_1.c **** *
 382:.\Generated_Source\PSoC4/PrISM_1.c **** *******************************************************************************/
 383:.\Generated_Source\PSoC4/PrISM_1.c **** void PrISM_1_WritePulse1(uint8 pulseDensity1) \
 384:.\Generated_Source\PSoC4/PrISM_1.c ****                                                                     
 385:.\Generated_Source\PSoC4/PrISM_1.c **** {
 332              		.loc 1 385 0
 333              		.cfi_startproc
 334              	.LVL5:
 386:.\Generated_Source\PSoC4/PrISM_1.c ****     CY_SET_REG8(PrISM_1_DENSITY1_PTR, pulseDensity1);
 335              		.loc 1 386 0
 336 0000 014B     		ldr	r3, .L40
 337 0002 1870     		strb	r0, [r3]
 387:.\Generated_Source\PSoC4/PrISM_1.c **** }
 338              		.loc 1 387 0
 339              		@ sp needed
 340 0004 7047     		bx	lr
 341              	.L41:
 342 0006 C046     		.align	2
 343              	.L40:
 344 0008 33000F40 		.word	1074724915
 345              		.cfi_endproc
 346              	.LFE15:
 347              		.size	PrISM_1_WritePulse1, .-PrISM_1_WritePulse1
 348              		.section	.text.PrISM_1_Init,"ax",%progbits
 349              		.align	2
 350              		.global	PrISM_1_Init
 351              		.code	16
 352              		.thumb_func
 353              		.type	PrISM_1_Init, %function
 354              	PrISM_1_Init:
ARM GAS  C:\Users\JOHNSO~1\AppData\Local\Temp\ccXnsYvW.s 			page 14


 355              	.LFB3:
  83:.\Generated_Source\PSoC4/PrISM_1.c **** {
 356              		.loc 1 83 0
 357              		.cfi_startproc
 358 0000 08B5     		push	{r3, lr}
 359              		.cfi_def_cfa_offset 8
 360              		.cfi_offset 3, -8
 361              		.cfi_offset 14, -4
  87:.\Generated_Source\PSoC4/PrISM_1.c ****     PrISM_1_WriteSeed(PrISM_1_SEED);
 362              		.loc 1 87 0
 363 0002 FF20     		mov	r0, #255
 364 0004 FFF7FEFF 		bl	PrISM_1_WriteSeed
 365              	.LVL6:
  88:.\Generated_Source\PSoC4/PrISM_1.c ****     PrISM_1_WritePolynomial(PrISM_1_POLYNOM);
 366              		.loc 1 88 0
 367 0008 B820     		mov	r0, #184
 368 000a FFF7FEFF 		bl	PrISM_1_WritePolynomial
 369              	.LVL7:
  89:.\Generated_Source\PSoC4/PrISM_1.c ****     PrISM_1_WritePulse0(PrISM_1_DENSITY0);
 370              		.loc 1 89 0
 371 000e 0120     		mov	r0, #1
 372 0010 FFF7FEFF 		bl	PrISM_1_WritePulse0
 373              	.LVL8:
  90:.\Generated_Source\PSoC4/PrISM_1.c ****     PrISM_1_WritePulse1(PrISM_1_DENSITY1);
 374              		.loc 1 90 0
 375 0014 0120     		mov	r0, #1
 376 0016 FFF7FEFF 		bl	PrISM_1_WritePulse1
 377              	.LVL9:
  92:.\Generated_Source\PSoC4/PrISM_1.c ****     enableInterrupts = CyEnterCriticalSection();
 378              		.loc 1 92 0
 379 001a FFF7FEFF 		bl	CyEnterCriticalSection
 380              	.LVL10:
  94:.\Generated_Source\PSoC4/PrISM_1.c ****     CY_SET_REG8(PrISM_1_AUX_CONTROL_PTR, 
 381              		.loc 1 94 0
 382 001e 084B     		ldr	r3, .L43
 383 0020 1978     		ldrb	r1, [r3]
 384 0022 0122     		mov	r2, #1
 385 0024 0A43     		orr	r2, r1
 386 0026 1A70     		strb	r2, [r3]
  96:.\Generated_Source\PSoC4/PrISM_1.c ****     CyExitCriticalSection(enableInterrupts);
 387              		.loc 1 96 0
 388 0028 FFF7FEFF 		bl	CyExitCriticalSection
 389              	.LVL11:
 103:.\Generated_Source\PSoC4/PrISM_1.c ****             PrISM_1_CONTROL_REG &= (uint8)~PrISM_1_CTRL_COMPARE_TYPE0_GREATER_THAN_OR_EQUAL;
 390              		.loc 1 103 0
 391 002c 054B     		ldr	r3, .L43+4
 392 002e 1A78     		ldrb	r2, [r3]
 393 0030 0221     		mov	r1, #2
 394 0032 8A43     		bic	r2, r1
 395 0034 1A70     		strb	r2, [r3]
 109:.\Generated_Source\PSoC4/PrISM_1.c ****             PrISM_1_CONTROL_REG &= (uint8)~PrISM_1_CTRL_COMPARE_TYPE1_GREATER_THAN_OR_EQUAL;
 396              		.loc 1 109 0
 397 0036 1A78     		ldrb	r2, [r3]
 398 0038 0421     		mov	r1, #4
 399 003a 8A43     		bic	r2, r1
 400 003c 1A70     		strb	r2, [r3]
 112:.\Generated_Source\PSoC4/PrISM_1.c **** }
ARM GAS  C:\Users\JOHNSO~1\AppData\Local\Temp\ccXnsYvW.s 			page 15


 401              		.loc 1 112 0
 402              		@ sp needed
 403 003e 08BD     		pop	{r3, pc}
 404              	.L44:
 405              		.align	2
 406              	.L43:
 407 0040 93000F40 		.word	1074725011
 408 0044 73000F40 		.word	1074724979
 409              		.cfi_endproc
 410              	.LFE3:
 411              		.size	PrISM_1_Init, .-PrISM_1_Init
 412              		.section	.text.PrISM_1_Start,"ax",%progbits
 413              		.align	2
 414              		.global	PrISM_1_Start
 415              		.code	16
 416              		.thumb_func
 417              		.type	PrISM_1_Start, %function
 418              	PrISM_1_Start:
 419              	.LFB2:
  55:.\Generated_Source\PSoC4/PrISM_1.c **** {
 420              		.loc 1 55 0
 421              		.cfi_startproc
 422 0000 08B5     		push	{r3, lr}
 423              		.cfi_def_cfa_offset 8
 424              		.cfi_offset 3, -8
 425              		.cfi_offset 14, -4
  57:.\Generated_Source\PSoC4/PrISM_1.c ****     if(PrISM_1_initVar == 0u)
 426              		.loc 1 57 0
 427 0002 064B     		ldr	r3, .L47
 428 0004 1B78     		ldrb	r3, [r3]
 429 0006 002B     		cmp	r3, #0
 430 0008 04D1     		bne	.L46
  59:.\Generated_Source\PSoC4/PrISM_1.c ****         PrISM_1_Init();
 431              		.loc 1 59 0
 432 000a FFF7FEFF 		bl	PrISM_1_Init
 433              	.LVL12:
  60:.\Generated_Source\PSoC4/PrISM_1.c ****         PrISM_1_initVar = 1u;
 434              		.loc 1 60 0
 435 000e 0122     		mov	r2, #1
 436 0010 024B     		ldr	r3, .L47
 437 0012 1A70     		strb	r2, [r3]
 438              	.L46:
  62:.\Generated_Source\PSoC4/PrISM_1.c ****     PrISM_1_Enable();
 439              		.loc 1 62 0
 440 0014 FFF7FEFF 		bl	PrISM_1_Enable
 441              	.LVL13:
  63:.\Generated_Source\PSoC4/PrISM_1.c **** }
 442              		.loc 1 63 0
 443              		@ sp needed
 444 0018 08BD     		pop	{r3, pc}
 445              	.L48:
 446 001a C046     		.align	2
 447              	.L47:
 448 001c 00000000 		.word	.LANCHOR0
 449              		.cfi_endproc
 450              	.LFE2:
 451              		.size	PrISM_1_Start, .-PrISM_1_Start
ARM GAS  C:\Users\JOHNSO~1\AppData\Local\Temp\ccXnsYvW.s 			page 16


 452              		.global	PrISM_1_initVar
 453              		.bss
 454              		.set	.LANCHOR0,. + 0
 455              		.type	PrISM_1_initVar, %object
 456              		.size	PrISM_1_initVar, 1
 457              	PrISM_1_initVar:
 458 0000 00       		.space	1
 459              		.text
 460              	.Letext0:
 461              		.file 2 ".\\Generated_Source\\PSoC4\\cytypes.h"
 462              		.file 3 ".\\Generated_Source\\PSoC4\\CyLib.h"
