ARM GAS  C:\Users\JOHNSO~1\AppData\Local\Temp\ccNanWq6.s 			page 1


   1              		.cpu cortex-m0
   2              		.fpu softvfp
   3              		.eabi_attribute 20, 1
   4              		.eabi_attribute 21, 1
   5              		.eabi_attribute 23, 3
   6              		.eabi_attribute 24, 1
   7              		.eabi_attribute 25, 1
   8              		.eabi_attribute 26, 1
   9              		.eabi_attribute 30, 1
  10              		.eabi_attribute 34, 0
  11              		.eabi_attribute 18, 4
  12              		.code	16
  13              		.file	"PrISM_1_PM.c"
  14              		.text
  15              	.Ltext0:
  16              		.cfi_sections	.debug_frame
  17              		.section	.text.PrISM_1_SaveConfig,"ax",%progbits
  18              		.align	2
  19              		.global	PrISM_1_SaveConfig
  20              		.code	16
  21              		.thumb_func
  22              		.type	PrISM_1_SaveConfig, %function
  23              	PrISM_1_SaveConfig:
  24              	.LFB2:
  25              		.file 1 ".\\Generated_Source\\PSoC4\\PrISM_1_PM.c"
   1:.\Generated_Source\PSoC4/PrISM_1_PM.c **** /*******************************************************************************
   2:.\Generated_Source\PSoC4/PrISM_1_PM.c **** * File Name: PrISM_1_PM.c
   3:.\Generated_Source\PSoC4/PrISM_1_PM.c **** * Version 2.20
   4:.\Generated_Source\PSoC4/PrISM_1_PM.c **** *
   5:.\Generated_Source\PSoC4/PrISM_1_PM.c **** * Description:
   6:.\Generated_Source\PSoC4/PrISM_1_PM.c **** *  This file provides Sleep/WakeUp APIs functionality of the PrISM component
   7:.\Generated_Source\PSoC4/PrISM_1_PM.c **** *
   8:.\Generated_Source\PSoC4/PrISM_1_PM.c **** * Note:
   9:.\Generated_Source\PSoC4/PrISM_1_PM.c **** *
  10:.\Generated_Source\PSoC4/PrISM_1_PM.c **** ********************************************************************************
  11:.\Generated_Source\PSoC4/PrISM_1_PM.c **** * Copyright 2008-2012, Cypress Semiconductor Corporation.  All rights reserved.
  12:.\Generated_Source\PSoC4/PrISM_1_PM.c **** * You may use this file only in accordance with the license, terms, conditions, 
  13:.\Generated_Source\PSoC4/PrISM_1_PM.c **** * disclaimers, and limitations in the end user license agreement accompanying 
  14:.\Generated_Source\PSoC4/PrISM_1_PM.c **** * the software package with which this file was provided.
  15:.\Generated_Source\PSoC4/PrISM_1_PM.c **** *******************************************************************************/
  16:.\Generated_Source\PSoC4/PrISM_1_PM.c **** 
  17:.\Generated_Source\PSoC4/PrISM_1_PM.c **** #include "PrISM_1.h"
  18:.\Generated_Source\PSoC4/PrISM_1_PM.c **** 
  19:.\Generated_Source\PSoC4/PrISM_1_PM.c **** 
  20:.\Generated_Source\PSoC4/PrISM_1_PM.c **** /***************************************
  21:.\Generated_Source\PSoC4/PrISM_1_PM.c **** * Local data allocation
  22:.\Generated_Source\PSoC4/PrISM_1_PM.c **** ***************************************/
  23:.\Generated_Source\PSoC4/PrISM_1_PM.c **** static PrISM_1_BACKUP_STRUCT  PrISM_1_backup = 
  24:.\Generated_Source\PSoC4/PrISM_1_PM.c **** {
  25:.\Generated_Source\PSoC4/PrISM_1_PM.c ****     /* enableState */
  26:.\Generated_Source\PSoC4/PrISM_1_PM.c ****     0u,
  27:.\Generated_Source\PSoC4/PrISM_1_PM.c ****     /* cr */
  28:.\Generated_Source\PSoC4/PrISM_1_PM.c ****     #if(!PrISM_1_PULSE_TYPE_HARDCODED)
  29:.\Generated_Source\PSoC4/PrISM_1_PM.c ****        (((PrISM_1_GREATERTHAN_OR_EQUAL == PrISM_1_COMPARE0) ? \
  30:.\Generated_Source\PSoC4/PrISM_1_PM.c ****                                                 PrISM_1_CTRL_COMPARE_TYPE0_GREATER_THAN_OR_EQUAL : 
  31:.\Generated_Source\PSoC4/PrISM_1_PM.c ****         ((PrISM_1_GREATERTHAN_OR_EQUAL == PrISM_1_COMPARE1) ? \
  32:.\Generated_Source\PSoC4/PrISM_1_PM.c ****                                                 PrISM_1_CTRL_COMPARE_TYPE1_GREATER_THAN_OR_EQUAL : 
ARM GAS  C:\Users\JOHNSO~1\AppData\Local\Temp\ccNanWq6.s 			page 2


  33:.\Generated_Source\PSoC4/PrISM_1_PM.c ****     #endif /* End PrISM_1_PULSE_TYPE_HARDCODED */
  34:.\Generated_Source\PSoC4/PrISM_1_PM.c ****     /* seed */    
  35:.\Generated_Source\PSoC4/PrISM_1_PM.c ****     PrISM_1_SEED,
  36:.\Generated_Source\PSoC4/PrISM_1_PM.c ****     /* seed_copy */    
  37:.\Generated_Source\PSoC4/PrISM_1_PM.c ****     PrISM_1_SEED,
  38:.\Generated_Source\PSoC4/PrISM_1_PM.c ****     /* polynom */
  39:.\Generated_Source\PSoC4/PrISM_1_PM.c ****     PrISM_1_POLYNOM,
  40:.\Generated_Source\PSoC4/PrISM_1_PM.c ****     #if(CY_UDB_V0)
  41:.\Generated_Source\PSoC4/PrISM_1_PM.c ****         /* density0 */
  42:.\Generated_Source\PSoC4/PrISM_1_PM.c ****         PrISM_1_DENSITY0,
  43:.\Generated_Source\PSoC4/PrISM_1_PM.c ****         /* density1 */
  44:.\Generated_Source\PSoC4/PrISM_1_PM.c ****         PrISM_1_DENSITY1,
  45:.\Generated_Source\PSoC4/PrISM_1_PM.c ****     #endif /*End CY_UDB_V0*/
  46:.\Generated_Source\PSoC4/PrISM_1_PM.c **** };
  47:.\Generated_Source\PSoC4/PrISM_1_PM.c **** 
  48:.\Generated_Source\PSoC4/PrISM_1_PM.c **** 
  49:.\Generated_Source\PSoC4/PrISM_1_PM.c **** /*******************************************************************************
  50:.\Generated_Source\PSoC4/PrISM_1_PM.c **** * Function Name: PrISM_1_SaveConfig
  51:.\Generated_Source\PSoC4/PrISM_1_PM.c **** ********************************************************************************
  52:.\Generated_Source\PSoC4/PrISM_1_PM.c **** *
  53:.\Generated_Source\PSoC4/PrISM_1_PM.c **** * Summary:
  54:.\Generated_Source\PSoC4/PrISM_1_PM.c **** *  Saves the current user configuration.
  55:.\Generated_Source\PSoC4/PrISM_1_PM.c **** *  
  56:.\Generated_Source\PSoC4/PrISM_1_PM.c **** * Parameters:  
  57:.\Generated_Source\PSoC4/PrISM_1_PM.c **** *  None.
  58:.\Generated_Source\PSoC4/PrISM_1_PM.c **** *
  59:.\Generated_Source\PSoC4/PrISM_1_PM.c **** * Return: 
  60:.\Generated_Source\PSoC4/PrISM_1_PM.c **** *  None.
  61:.\Generated_Source\PSoC4/PrISM_1_PM.c **** *
  62:.\Generated_Source\PSoC4/PrISM_1_PM.c **** * Global Variables:
  63:.\Generated_Source\PSoC4/PrISM_1_PM.c **** *  PrISM_1_backup - modified when non-retention registers are saved.
  64:.\Generated_Source\PSoC4/PrISM_1_PM.c **** *
  65:.\Generated_Source\PSoC4/PrISM_1_PM.c **** * Reentrant:
  66:.\Generated_Source\PSoC4/PrISM_1_PM.c **** *  No.
  67:.\Generated_Source\PSoC4/PrISM_1_PM.c **** *
  68:.\Generated_Source\PSoC4/PrISM_1_PM.c **** *******************************************************************************/
  69:.\Generated_Source\PSoC4/PrISM_1_PM.c **** void PrISM_1_SaveConfig(void) 
  70:.\Generated_Source\PSoC4/PrISM_1_PM.c **** {
  26              		.loc 1 70 0
  27              		.cfi_startproc
  28 0000 10B5     		push	{r4, lr}
  29              		.cfi_def_cfa_offset 8
  30              		.cfi_offset 4, -8
  31              		.cfi_offset 14, -4
  71:.\Generated_Source\PSoC4/PrISM_1_PM.c ****     #if (CY_UDB_V0)
  72:.\Generated_Source\PSoC4/PrISM_1_PM.c ****         #if(!PrISM_1_PULSE_TYPE_HARDCODED)
  73:.\Generated_Source\PSoC4/PrISM_1_PM.c ****             PrISM_1_backup.cr = PrISM_1_CONTROL_REG;
  74:.\Generated_Source\PSoC4/PrISM_1_PM.c ****         #endif /* End PrISM_1_PULSE_TYPE_HARDCODED */
  75:.\Generated_Source\PSoC4/PrISM_1_PM.c ****         PrISM_1_backup.seed = PrISM_1_ReadSeed();
  76:.\Generated_Source\PSoC4/PrISM_1_PM.c ****         PrISM_1_backup.seed_copy = CY_GET_REG8(PrISM_1_SEED_COPY_PTR);
  77:.\Generated_Source\PSoC4/PrISM_1_PM.c ****         PrISM_1_backup.polynom = PrISM_1_ReadPolynomial();
  78:.\Generated_Source\PSoC4/PrISM_1_PM.c ****         PrISM_1_backup.density0 = PrISM_1_ReadPulse0();
  79:.\Generated_Source\PSoC4/PrISM_1_PM.c ****         PrISM_1_backup.density1 = PrISM_1_ReadPulse1();
  80:.\Generated_Source\PSoC4/PrISM_1_PM.c ****     #else /* CY_UDB_V1 */
  81:.\Generated_Source\PSoC4/PrISM_1_PM.c ****         #if(!PrISM_1_PULSE_TYPE_HARDCODED)
  82:.\Generated_Source\PSoC4/PrISM_1_PM.c ****             PrISM_1_backup.cr = PrISM_1_CONTROL_REG;
  32              		.loc 1 82 0
ARM GAS  C:\Users\JOHNSO~1\AppData\Local\Temp\ccNanWq6.s 			page 3


  33 0002 074B     		ldr	r3, .L2
  34 0004 1B78     		ldrb	r3, [r3]
  35 0006 074C     		ldr	r4, .L2+4
  36 0008 6370     		strb	r3, [r4, #1]
  83:.\Generated_Source\PSoC4/PrISM_1_PM.c ****         #endif /* End PrISM_1_PULSE_TYPE_HARDCODED */
  84:.\Generated_Source\PSoC4/PrISM_1_PM.c ****         PrISM_1_backup.seed = PrISM_1_ReadSeed();
  37              		.loc 1 84 0
  38 000a FFF7FEFF 		bl	PrISM_1_ReadSeed
  39              	.LVL0:
  40 000e A070     		strb	r0, [r4, #2]
  85:.\Generated_Source\PSoC4/PrISM_1_PM.c ****         PrISM_1_backup.seed_copy = CY_GET_REG8(PrISM_1_SEED_COPY_PTR);
  41              		.loc 1 85 0
  42 0010 054B     		ldr	r3, .L2+8
  43 0012 1B78     		ldrb	r3, [r3]
  44 0014 E370     		strb	r3, [r4, #3]
  86:.\Generated_Source\PSoC4/PrISM_1_PM.c ****         PrISM_1_backup.polynom = PrISM_1_ReadPolynomial();
  45              		.loc 1 86 0
  46 0016 FFF7FEFF 		bl	PrISM_1_ReadPolynomial
  47              	.LVL1:
  48 001a 2071     		strb	r0, [r4, #4]
  87:.\Generated_Source\PSoC4/PrISM_1_PM.c ****     #endif  /* CY_UDB_V0 */
  88:.\Generated_Source\PSoC4/PrISM_1_PM.c **** }
  49              		.loc 1 88 0
  50              		@ sp needed
  51 001c 10BD     		pop	{r4, pc}
  52              	.L3:
  53 001e C046     		.align	2
  54              	.L2:
  55 0020 73000F40 		.word	1074724979
  56 0024 00000000 		.word	.LANCHOR0
  57 0028 43000F40 		.word	1074724931
  58              		.cfi_endproc
  59              	.LFE2:
  60              		.size	PrISM_1_SaveConfig, .-PrISM_1_SaveConfig
  61              		.section	.text.PrISM_1_RestoreConfig,"ax",%progbits
  62              		.align	2
  63              		.global	PrISM_1_RestoreConfig
  64              		.code	16
  65              		.thumb_func
  66              		.type	PrISM_1_RestoreConfig, %function
  67              	PrISM_1_RestoreConfig:
  68              	.LFB3:
  89:.\Generated_Source\PSoC4/PrISM_1_PM.c **** 
  90:.\Generated_Source\PSoC4/PrISM_1_PM.c **** 
  91:.\Generated_Source\PSoC4/PrISM_1_PM.c **** /*******************************************************************************
  92:.\Generated_Source\PSoC4/PrISM_1_PM.c **** * Function Name: PrISM_1_RestoreConfig
  93:.\Generated_Source\PSoC4/PrISM_1_PM.c **** ********************************************************************************
  94:.\Generated_Source\PSoC4/PrISM_1_PM.c **** *
  95:.\Generated_Source\PSoC4/PrISM_1_PM.c **** * Summary:
  96:.\Generated_Source\PSoC4/PrISM_1_PM.c **** *  Restores the current user configuration.
  97:.\Generated_Source\PSoC4/PrISM_1_PM.c **** *
  98:.\Generated_Source\PSoC4/PrISM_1_PM.c **** * Parameters:  
  99:.\Generated_Source\PSoC4/PrISM_1_PM.c **** *  None.
 100:.\Generated_Source\PSoC4/PrISM_1_PM.c **** *
 101:.\Generated_Source\PSoC4/PrISM_1_PM.c **** * Return: 
 102:.\Generated_Source\PSoC4/PrISM_1_PM.c **** *  None.
 103:.\Generated_Source\PSoC4/PrISM_1_PM.c **** *
ARM GAS  C:\Users\JOHNSO~1\AppData\Local\Temp\ccNanWq6.s 			page 4


 104:.\Generated_Source\PSoC4/PrISM_1_PM.c **** * Global Variables:
 105:.\Generated_Source\PSoC4/PrISM_1_PM.c **** *  PrISM_1_backup - used when non-retention registers are restored.
 106:.\Generated_Source\PSoC4/PrISM_1_PM.c **** *
 107:.\Generated_Source\PSoC4/PrISM_1_PM.c **** *******************************************************************************/
 108:.\Generated_Source\PSoC4/PrISM_1_PM.c **** void PrISM_1_RestoreConfig(void) 
 109:.\Generated_Source\PSoC4/PrISM_1_PM.c **** {
  69              		.loc 1 109 0
  70              		.cfi_startproc
  71 0000 08B5     		push	{r3, lr}
  72              		.cfi_def_cfa_offset 8
  73              		.cfi_offset 3, -8
  74              		.cfi_offset 14, -4
 110:.\Generated_Source\PSoC4/PrISM_1_PM.c ****     #if (CY_UDB_V0)
 111:.\Generated_Source\PSoC4/PrISM_1_PM.c ****     
 112:.\Generated_Source\PSoC4/PrISM_1_PM.c ****         uint8 enableInterrupts;
 113:.\Generated_Source\PSoC4/PrISM_1_PM.c ****         
 114:.\Generated_Source\PSoC4/PrISM_1_PM.c ****         #if(!PrISM_1_PULSE_TYPE_HARDCODED)
 115:.\Generated_Source\PSoC4/PrISM_1_PM.c ****             PrISM_1_CONTROL_REG = PrISM_1_backup.cr;
 116:.\Generated_Source\PSoC4/PrISM_1_PM.c ****         #endif /* End PrISM_1_PULSE_TYPE_HARDCODED */
 117:.\Generated_Source\PSoC4/PrISM_1_PM.c **** 
 118:.\Generated_Source\PSoC4/PrISM_1_PM.c ****         CY_SET_REG8(PrISM_1_SEED_COPY_PTR, PrISM_1_backup.seed_copy);
 119:.\Generated_Source\PSoC4/PrISM_1_PM.c ****         CY_SET_REG8(PrISM_1_SEED_PTR, PrISM_1_backup.seed);
 120:.\Generated_Source\PSoC4/PrISM_1_PM.c ****         PrISM_1_WritePolynomial(PrISM_1_backup.polynom);
 121:.\Generated_Source\PSoC4/PrISM_1_PM.c ****         PrISM_1_WritePulse0(PrISM_1_backup.density0);
 122:.\Generated_Source\PSoC4/PrISM_1_PM.c ****         PrISM_1_WritePulse1(PrISM_1_backup.density1);
 123:.\Generated_Source\PSoC4/PrISM_1_PM.c ****         
 124:.\Generated_Source\PSoC4/PrISM_1_PM.c ****         enableInterrupts = CyEnterCriticalSection();
 125:.\Generated_Source\PSoC4/PrISM_1_PM.c ****         /* Set FIFO0_CLR bit to use FIFO0 as a simple one-byte buffer*/
 126:.\Generated_Source\PSoC4/PrISM_1_PM.c ****         CY_SET_REG8(PrISM_1_AUX_CONTROL_PTR, 
 127:.\Generated_Source\PSoC4/PrISM_1_PM.c ****                         CY_GET_REG8(PrISM_1_AUX_CONTROL_PTR) | PrISM_1_FIFO0_CLR);
 128:.\Generated_Source\PSoC4/PrISM_1_PM.c ****         CyExitCriticalSection(enableInterrupts);
 129:.\Generated_Source\PSoC4/PrISM_1_PM.c **** 
 130:.\Generated_Source\PSoC4/PrISM_1_PM.c ****     #else   /* CY_UDB_V1 */
 131:.\Generated_Source\PSoC4/PrISM_1_PM.c **** 
 132:.\Generated_Source\PSoC4/PrISM_1_PM.c ****         #if(!PrISM_1_PULSE_TYPE_HARDCODED)
 133:.\Generated_Source\PSoC4/PrISM_1_PM.c ****             PrISM_1_CONTROL_REG = PrISM_1_backup.cr;
  75              		.loc 1 133 0
  76 0002 074B     		ldr	r3, .L5
  77 0004 5978     		ldrb	r1, [r3, #1]
  78 0006 074A     		ldr	r2, .L5+4
  79 0008 1170     		strb	r1, [r2]
 134:.\Generated_Source\PSoC4/PrISM_1_PM.c ****         #endif /* End PrISM_1_PULSE_TYPE_HARDCODED */
 135:.\Generated_Source\PSoC4/PrISM_1_PM.c **** 
 136:.\Generated_Source\PSoC4/PrISM_1_PM.c ****         CY_SET_REG8(PrISM_1_SEED_COPY_PTR, PrISM_1_backup.seed_copy);
  80              		.loc 1 136 0
  81 000a D978     		ldrb	r1, [r3, #3]
  82 000c 064A     		ldr	r2, .L5+8
  83 000e 1170     		strb	r1, [r2]
 137:.\Generated_Source\PSoC4/PrISM_1_PM.c ****         CY_SET_REG8(PrISM_1_SEED_PTR, PrISM_1_backup.seed);
  84              		.loc 1 137 0
  85 0010 9978     		ldrb	r1, [r3, #2]
  86 0012 064A     		ldr	r2, .L5+12
  87 0014 1170     		strb	r1, [r2]
 138:.\Generated_Source\PSoC4/PrISM_1_PM.c ****         PrISM_1_WritePolynomial(PrISM_1_backup.polynom);
  88              		.loc 1 138 0
  89 0016 1879     		ldrb	r0, [r3, #4]
  90 0018 FFF7FEFF 		bl	PrISM_1_WritePolynomial
ARM GAS  C:\Users\JOHNSO~1\AppData\Local\Temp\ccNanWq6.s 			page 5


  91              	.LVL2:
 139:.\Generated_Source\PSoC4/PrISM_1_PM.c ****     
 140:.\Generated_Source\PSoC4/PrISM_1_PM.c ****     #endif  /* End CY_UDB_V0 */
 141:.\Generated_Source\PSoC4/PrISM_1_PM.c **** }
  92              		.loc 1 141 0
  93              		@ sp needed
  94 001c 08BD     		pop	{r3, pc}
  95              	.L6:
  96 001e C046     		.align	2
  97              	.L5:
  98 0020 00000000 		.word	.LANCHOR0
  99 0024 73000F40 		.word	1074724979
 100 0028 43000F40 		.word	1074724931
 101 002c 03000F40 		.word	1074724867
 102              		.cfi_endproc
 103              	.LFE3:
 104              		.size	PrISM_1_RestoreConfig, .-PrISM_1_RestoreConfig
 105              		.section	.text.PrISM_1_Sleep,"ax",%progbits
 106              		.align	2
 107              		.global	PrISM_1_Sleep
 108              		.code	16
 109              		.thumb_func
 110              		.type	PrISM_1_Sleep, %function
 111              	PrISM_1_Sleep:
 112              	.LFB4:
 142:.\Generated_Source\PSoC4/PrISM_1_PM.c **** 
 143:.\Generated_Source\PSoC4/PrISM_1_PM.c **** 
 144:.\Generated_Source\PSoC4/PrISM_1_PM.c **** /*******************************************************************************
 145:.\Generated_Source\PSoC4/PrISM_1_PM.c **** * Function Name: PrISM_1_Sleep
 146:.\Generated_Source\PSoC4/PrISM_1_PM.c **** ********************************************************************************
 147:.\Generated_Source\PSoC4/PrISM_1_PM.c **** *
 148:.\Generated_Source\PSoC4/PrISM_1_PM.c **** * Summary:
 149:.\Generated_Source\PSoC4/PrISM_1_PM.c **** *  Stops and saves the user configuration
 150:.\Generated_Source\PSoC4/PrISM_1_PM.c **** *  
 151:.\Generated_Source\PSoC4/PrISM_1_PM.c **** * Parameters:  
 152:.\Generated_Source\PSoC4/PrISM_1_PM.c **** *  None.
 153:.\Generated_Source\PSoC4/PrISM_1_PM.c **** *
 154:.\Generated_Source\PSoC4/PrISM_1_PM.c **** * Return: 
 155:.\Generated_Source\PSoC4/PrISM_1_PM.c **** *  None.
 156:.\Generated_Source\PSoC4/PrISM_1_PM.c **** *
 157:.\Generated_Source\PSoC4/PrISM_1_PM.c **** * Global Variables:
 158:.\Generated_Source\PSoC4/PrISM_1_PM.c **** *  PrISM_1_backup - modified when non-retention registers are saved.
 159:.\Generated_Source\PSoC4/PrISM_1_PM.c **** *
 160:.\Generated_Source\PSoC4/PrISM_1_PM.c **** * Reentrant:
 161:.\Generated_Source\PSoC4/PrISM_1_PM.c **** *  No.
 162:.\Generated_Source\PSoC4/PrISM_1_PM.c **** *
 163:.\Generated_Source\PSoC4/PrISM_1_PM.c **** *******************************************************************************/
 164:.\Generated_Source\PSoC4/PrISM_1_PM.c **** void PrISM_1_Sleep(void) 
 165:.\Generated_Source\PSoC4/PrISM_1_PM.c **** {
 113              		.loc 1 165 0
 114              		.cfi_startproc
 115 0000 08B5     		push	{r3, lr}
 116              		.cfi_def_cfa_offset 8
 117              		.cfi_offset 3, -8
 118              		.cfi_offset 14, -4
 166:.\Generated_Source\PSoC4/PrISM_1_PM.c ****     #if(!PrISM_1_PULSE_TYPE_HARDCODED)
 167:.\Generated_Source\PSoC4/PrISM_1_PM.c ****         if((PrISM_1_CONTROL_REG & PrISM_1_CTRL_ENABLE) != 0u) 
ARM GAS  C:\Users\JOHNSO~1\AppData\Local\Temp\ccNanWq6.s 			page 6


 119              		.loc 1 167 0
 120 0002 084B     		ldr	r3, .L10
 121 0004 1B78     		ldrb	r3, [r3]
 122 0006 DA07     		lsl	r2, r3, #31
 123 0008 03D5     		bpl	.L8
 168:.\Generated_Source\PSoC4/PrISM_1_PM.c ****         {
 169:.\Generated_Source\PSoC4/PrISM_1_PM.c ****             PrISM_1_backup.enableState = 1u;
 124              		.loc 1 169 0
 125 000a 0122     		mov	r2, #1
 126 000c 064B     		ldr	r3, .L10+4
 127 000e 1A70     		strb	r2, [r3]
 128 0010 02E0     		b	.L9
 129              	.L8:
 170:.\Generated_Source\PSoC4/PrISM_1_PM.c ****         }
 171:.\Generated_Source\PSoC4/PrISM_1_PM.c ****         else
 172:.\Generated_Source\PSoC4/PrISM_1_PM.c ****         {
 173:.\Generated_Source\PSoC4/PrISM_1_PM.c ****             PrISM_1_backup.enableState = 0u;
 130              		.loc 1 173 0
 131 0012 0022     		mov	r2, #0
 132 0014 044B     		ldr	r3, .L10+4
 133 0016 1A70     		strb	r2, [r3]
 134              	.L9:
 174:.\Generated_Source\PSoC4/PrISM_1_PM.c ****         }
 175:.\Generated_Source\PSoC4/PrISM_1_PM.c ****     #endif /* End PrISM_1_PULSE_TYPE_HARDCODED */
 176:.\Generated_Source\PSoC4/PrISM_1_PM.c ****     PrISM_1_Stop();
 135              		.loc 1 176 0
 136 0018 FFF7FEFF 		bl	PrISM_1_Stop
 137              	.LVL3:
 177:.\Generated_Source\PSoC4/PrISM_1_PM.c ****     PrISM_1_SaveConfig();
 138              		.loc 1 177 0
 139 001c FFF7FEFF 		bl	PrISM_1_SaveConfig
 140              	.LVL4:
 178:.\Generated_Source\PSoC4/PrISM_1_PM.c **** }
 141              		.loc 1 178 0
 142              		@ sp needed
 143 0020 08BD     		pop	{r3, pc}
 144              	.L11:
 145 0022 C046     		.align	2
 146              	.L10:
 147 0024 73000F40 		.word	1074724979
 148 0028 00000000 		.word	.LANCHOR0
 149              		.cfi_endproc
 150              	.LFE4:
 151              		.size	PrISM_1_Sleep, .-PrISM_1_Sleep
 152              		.section	.text.PrISM_1_Wakeup,"ax",%progbits
 153              		.align	2
 154              		.global	PrISM_1_Wakeup
 155              		.code	16
 156              		.thumb_func
 157              		.type	PrISM_1_Wakeup, %function
 158              	PrISM_1_Wakeup:
 159              	.LFB5:
 179:.\Generated_Source\PSoC4/PrISM_1_PM.c **** 
 180:.\Generated_Source\PSoC4/PrISM_1_PM.c **** 
 181:.\Generated_Source\PSoC4/PrISM_1_PM.c **** /*******************************************************************************
 182:.\Generated_Source\PSoC4/PrISM_1_PM.c **** * Function Name: PrISM_1_Wakeup
 183:.\Generated_Source\PSoC4/PrISM_1_PM.c **** ********************************************************************************
ARM GAS  C:\Users\JOHNSO~1\AppData\Local\Temp\ccNanWq6.s 			page 7


 184:.\Generated_Source\PSoC4/PrISM_1_PM.c **** *
 185:.\Generated_Source\PSoC4/PrISM_1_PM.c **** * Summary:
 186:.\Generated_Source\PSoC4/PrISM_1_PM.c **** *  Restores and enables the user configuration
 187:.\Generated_Source\PSoC4/PrISM_1_PM.c **** *  
 188:.\Generated_Source\PSoC4/PrISM_1_PM.c **** * Parameters:  
 189:.\Generated_Source\PSoC4/PrISM_1_PM.c **** *  None.
 190:.\Generated_Source\PSoC4/PrISM_1_PM.c **** *
 191:.\Generated_Source\PSoC4/PrISM_1_PM.c **** * Return: 
 192:.\Generated_Source\PSoC4/PrISM_1_PM.c **** *  None.
 193:.\Generated_Source\PSoC4/PrISM_1_PM.c **** *
 194:.\Generated_Source\PSoC4/PrISM_1_PM.c **** * Global Variables:
 195:.\Generated_Source\PSoC4/PrISM_1_PM.c **** *  PrISM_1_backup - used when non-retention registers are restored.
 196:.\Generated_Source\PSoC4/PrISM_1_PM.c **** *
 197:.\Generated_Source\PSoC4/PrISM_1_PM.c **** *******************************************************************************/
 198:.\Generated_Source\PSoC4/PrISM_1_PM.c **** void PrISM_1_Wakeup(void) 
 199:.\Generated_Source\PSoC4/PrISM_1_PM.c **** {
 160              		.loc 1 199 0
 161              		.cfi_startproc
 162 0000 08B5     		push	{r3, lr}
 163              		.cfi_def_cfa_offset 8
 164              		.cfi_offset 3, -8
 165              		.cfi_offset 14, -4
 200:.\Generated_Source\PSoC4/PrISM_1_PM.c ****     PrISM_1_RestoreConfig();
 166              		.loc 1 200 0
 167 0002 FFF7FEFF 		bl	PrISM_1_RestoreConfig
 168              	.LVL5:
 201:.\Generated_Source\PSoC4/PrISM_1_PM.c ****     if(PrISM_1_backup.enableState != 0u)
 169              		.loc 1 201 0
 170 0006 034B     		ldr	r3, .L14
 171 0008 1B78     		ldrb	r3, [r3]
 172 000a 002B     		cmp	r3, #0
 173 000c 01D0     		beq	.L12
 202:.\Generated_Source\PSoC4/PrISM_1_PM.c ****     {
 203:.\Generated_Source\PSoC4/PrISM_1_PM.c ****         PrISM_1_Enable();
 174              		.loc 1 203 0
 175 000e FFF7FEFF 		bl	PrISM_1_Enable
 176              	.LVL6:
 177              	.L12:
 204:.\Generated_Source\PSoC4/PrISM_1_PM.c ****     } 
 205:.\Generated_Source\PSoC4/PrISM_1_PM.c **** }
 178              		.loc 1 205 0
 179              		@ sp needed
 180 0012 08BD     		pop	{r3, pc}
 181              	.L15:
 182              		.align	2
 183              	.L14:
 184 0014 00000000 		.word	.LANCHOR0
 185              		.cfi_endproc
 186              	.LFE5:
 187              		.size	PrISM_1_Wakeup, .-PrISM_1_Wakeup
 188              		.data
 189              		.align	2
 190              		.set	.LANCHOR0,. + 0
 191              		.type	PrISM_1_backup, %object
 192              		.size	PrISM_1_backup, 5
 193              	PrISM_1_backup:
 194 0000 00       		.byte	0
ARM GAS  C:\Users\JOHNSO~1\AppData\Local\Temp\ccNanWq6.s 			page 8


 195 0001 00       		.byte	0
 196 0002 FF       		.byte	-1
 197 0003 FF       		.byte	-1
 198 0004 B8       		.byte	-72
 199 0005 000000   		.text
 200              	.Letext0:
 201              		.file 2 ".\\Generated_Source\\PSoC4\\cytypes.h"
 202              		.file 3 ".\\Generated_Source\\PSoC4\\PrISM_1.h"
