ARM GAS  C:\Users\JOHNSO~1\AppData\Local\Temp\ccaL6Noa.s 			page 1


   1              		.cpu cortex-m0
   2              		.fpu softvfp
   3              		.eabi_attribute 20, 1
   4              		.eabi_attribute 21, 1
   5              		.eabi_attribute 23, 3
   6              		.eabi_attribute 24, 1
   7              		.eabi_attribute 25, 1
   8              		.eabi_attribute 26, 1
   9              		.eabi_attribute 30, 1
  10              		.eabi_attribute 34, 0
  11              		.eabi_attribute 18, 4
  12              		.code	16
  13              		.file	"BLE_eventHandler.c"
  14              		.text
  15              	.Ltext0:
  16              		.cfi_sections	.debug_frame
  17              		.section	.text.CyBle_GattDisconnectEventHandler,"ax",%progbits
  18              		.align	2
  19              		.code	16
  20              		.thumb_func
  21              		.type	CyBle_GattDisconnectEventHandler, %function
  22              	CyBle_GattDisconnectEventHandler:
  23              	.LFB4:
  24              		.file 1 ".\\Generated_Source\\PSoC4\\BLE_eventHandler.c"
   1:.\Generated_Source\PSoC4/BLE_eventHandler.c **** /*******************************************************************************
   2:.\Generated_Source\PSoC4/BLE_eventHandler.c **** File Name: CYBLE_eventHandler.c
   3:.\Generated_Source\PSoC4/BLE_eventHandler.c **** Version 2.10
   4:.\Generated_Source\PSoC4/BLE_eventHandler.c **** 
   5:.\Generated_Source\PSoC4/BLE_eventHandler.c **** Description:
   6:.\Generated_Source\PSoC4/BLE_eventHandler.c ****  This file contains the source code for the Event Handler State Machine
   7:.\Generated_Source\PSoC4/BLE_eventHandler.c ****  of the BLE Component.
   8:.\Generated_Source\PSoC4/BLE_eventHandler.c **** 
   9:.\Generated_Source\PSoC4/BLE_eventHandler.c **** ********************************************************************************
  10:.\Generated_Source\PSoC4/BLE_eventHandler.c **** Copyright 2014-2015, Cypress Semiconductor Corporation.  All rights reserved.
  11:.\Generated_Source\PSoC4/BLE_eventHandler.c **** You may use this file only in accordance with the license, terms, conditions,
  12:.\Generated_Source\PSoC4/BLE_eventHandler.c **** disclaimers, and limitations in the end user license agreement accompanying
  13:.\Generated_Source\PSoC4/BLE_eventHandler.c **** the software package with which this file was provided.
  14:.\Generated_Source\PSoC4/BLE_eventHandler.c **** *******************************************************************************/
  15:.\Generated_Source\PSoC4/BLE_eventHandler.c **** 
  16:.\Generated_Source\PSoC4/BLE_eventHandler.c **** #include "BLE_eventHandler.h"
  17:.\Generated_Source\PSoC4/BLE_eventHandler.c **** 
  18:.\Generated_Source\PSoC4/BLE_eventHandler.c **** 
  19:.\Generated_Source\PSoC4/BLE_eventHandler.c **** /***************************************
  20:.\Generated_Source\PSoC4/BLE_eventHandler.c **** ##Private Function Prototypes
  21:.\Generated_Source\PSoC4/BLE_eventHandler.c **** ***************************************/
  22:.\Generated_Source\PSoC4/BLE_eventHandler.c **** 
  23:.\Generated_Source\PSoC4/BLE_eventHandler.c **** #if (CYBLE_GATT_ROLE_SERVER || CYBLE_GATT_ROLE_CLIENT)
  24:.\Generated_Source\PSoC4/BLE_eventHandler.c **** 
  25:.\Generated_Source\PSoC4/BLE_eventHandler.c **** static uint8 CyBle_IsDeviceAddressValid(const CYBLE_GAP_BD_ADDR_T *sflashDeviceAddress);
  26:.\Generated_Source\PSoC4/BLE_eventHandler.c **** 
  27:.\Generated_Source\PSoC4/BLE_eventHandler.c **** #endif /* CYBLE_GATT_ROLE_SERVER || CYBLE_GATT_ROLE_CLIENT */
  28:.\Generated_Source\PSoC4/BLE_eventHandler.c **** 
  29:.\Generated_Source\PSoC4/BLE_eventHandler.c **** static void CyBle_GattDisconnectEventHandler(void);
  30:.\Generated_Source\PSoC4/BLE_eventHandler.c **** static void CyBle_TimeOutEventHandler(const CYBLE_TO_REASON_CODE_T *eventParam);
  31:.\Generated_Source\PSoC4/BLE_eventHandler.c **** static void CyBle_GattConnectReqHandler(void);
  32:.\Generated_Source\PSoC4/BLE_eventHandler.c **** static void CyBle_L2Cap_ConnParamUpdateRspEventHandler(uint16 response);
  33:.\Generated_Source\PSoC4/BLE_eventHandler.c **** static void CyBle_GapConnUpdateCompleteEventHandler(const CYBLE_GAP_CONN_PARAM_UPDATED_IN_CONTROLLE
ARM GAS  C:\Users\JOHNSO~1\AppData\Local\Temp\ccaL6Noa.s 			page 2


  34:.\Generated_Source\PSoC4/BLE_eventHandler.c **** 
  35:.\Generated_Source\PSoC4/BLE_eventHandler.c **** 
  36:.\Generated_Source\PSoC4/BLE_eventHandler.c **** #if (CYBLE_GATT_ROLE_SERVER)
  37:.\Generated_Source\PSoC4/BLE_eventHandler.c **** 
  38:.\Generated_Source\PSoC4/BLE_eventHandler.c **** static void CyBle_WriteReqHandler(CYBLE_GATTS_WRITE_REQ_PARAM_T *eventParam);
  39:.\Generated_Source\PSoC4/BLE_eventHandler.c **** static void CyBle_ValueConfirmation(const CYBLE_CONN_HANDLE_T *eventParam);
  40:.\Generated_Source\PSoC4/BLE_eventHandler.c **** 
  41:.\Generated_Source\PSoC4/BLE_eventHandler.c **** #endif /* CYBLE_GATT_ROLE_SERVER */
  42:.\Generated_Source\PSoC4/BLE_eventHandler.c **** 
  43:.\Generated_Source\PSoC4/BLE_eventHandler.c **** #if (CYBLE_GATT_ROLE_CLIENT)
  44:.\Generated_Source\PSoC4/BLE_eventHandler.c **** 
  45:.\Generated_Source\PSoC4/BLE_eventHandler.c **** static void CyBle_GapcDiscoverCharacteristicsEventHandler(CYBLE_DISC_CHAR_INFO_T *discCharInfo);
  46:.\Generated_Source\PSoC4/BLE_eventHandler.c **** static CYBLE_GATT_ATTR_HANDLE_RANGE_T CyBle_GetCharRange(void);
  47:.\Generated_Source\PSoC4/BLE_eventHandler.c **** static void CyBle_GattcWriteResponseEventHandler(const CYBLE_CONN_HANDLE_T *eventParam);
  48:.\Generated_Source\PSoC4/BLE_eventHandler.c **** static void CyBle_NotificationEventHandler(CYBLE_GATTC_HANDLE_VALUE_NTF_PARAM_T *eventParam);
  49:.\Generated_Source\PSoC4/BLE_eventHandler.c **** static void CyBle_IndicationEventHandler(CYBLE_GATTC_HANDLE_VALUE_IND_PARAM_T *eventParam);
  50:.\Generated_Source\PSoC4/BLE_eventHandler.c **** static void CyBle_ReadResponseEventHandler(CYBLE_GATTC_READ_RSP_PARAM_T *eventParam);
  51:.\Generated_Source\PSoC4/BLE_eventHandler.c **** 
  52:.\Generated_Source\PSoC4/BLE_eventHandler.c **** #endif /* CYBLE_GATT_ROLE_CLIENT */
  53:.\Generated_Source\PSoC4/BLE_eventHandler.c **** 
  54:.\Generated_Source\PSoC4/BLE_eventHandler.c **** 
  55:.\Generated_Source\PSoC4/BLE_eventHandler.c **** /***************************************
  56:.\Generated_Source\PSoC4/BLE_eventHandler.c **** ##Global Variables
  57:.\Generated_Source\PSoC4/BLE_eventHandler.c **** ***************************************/
  58:.\Generated_Source\PSoC4/BLE_eventHandler.c **** 
  59:.\Generated_Source\PSoC4/BLE_eventHandler.c **** /* This global variable is initialized after connection with peer device, 
  60:.\Generated_Source\PSoC4/BLE_eventHandler.c ****    after CYBLE_EVT_GATT_CONNECT_IND event, and could be used by application code
  61:.\Generated_Source\PSoC4/BLE_eventHandler.c ****    to send data to peer device. 
  62:.\Generated_Source\PSoC4/BLE_eventHandler.c **** */
  63:.\Generated_Source\PSoC4/BLE_eventHandler.c **** CYBLE_CONN_HANDLE_T cyBle_connHandle;
  64:.\Generated_Source\PSoC4/BLE_eventHandler.c **** 
  65:.\Generated_Source\PSoC4/BLE_eventHandler.c **** volatile uint8 cyBle_eventHandlerFlag;
  66:.\Generated_Source\PSoC4/BLE_eventHandler.c **** volatile uint8 cyBle_busyStatus;
  67:.\Generated_Source\PSoC4/BLE_eventHandler.c **** 
  68:.\Generated_Source\PSoC4/BLE_eventHandler.c **** #if(CYBLE_GAP_ROLE_PERIPHERAL || CYBLE_GAP_ROLE_BROADCASTER) 
  69:.\Generated_Source\PSoC4/BLE_eventHandler.c ****     uint8 cyBle_advertisingIntervalType;
  70:.\Generated_Source\PSoC4/BLE_eventHandler.c **** #endif /* CYBLE_GAP_ROLE_PERIPHERAL || CYBLE_GAP_ROLE_BROADCASTER) */
  71:.\Generated_Source\PSoC4/BLE_eventHandler.c **** 
  72:.\Generated_Source\PSoC4/BLE_eventHandler.c **** #if(CYBLE_GAP_ROLE_CENTRAL || CYBLE_GAP_ROLE_OBSERVER) 
  73:.\Generated_Source\PSoC4/BLE_eventHandler.c ****     uint8 cyBle_scanningIntervalType;
  74:.\Generated_Source\PSoC4/BLE_eventHandler.c **** #endif /* CYBLE_GAP_ROLE_CENTRAL || CYBLE_GAP_ROLE_OBSERVER */
  75:.\Generated_Source\PSoC4/BLE_eventHandler.c **** 
  76:.\Generated_Source\PSoC4/BLE_eventHandler.c **** #if(CYBLE_GATT_ROLE_SERVER)
  77:.\Generated_Source\PSoC4/BLE_eventHandler.c **** #if defined CYBLE_CTS_SERVER || defined CYBLE_ESS_SERVER
  78:.\Generated_Source\PSoC4/BLE_eventHandler.c **** CYBLE_GATT_ERR_CODE_T cyBle_gattError;
  79:.\Generated_Source\PSoC4/BLE_eventHandler.c **** #endif /* defined CYBLE_CTS_SERVER || defined CYBLE_ESS_SERVER */
  80:.\Generated_Source\PSoC4/BLE_eventHandler.c **** #endif /* CYBLE_GATT_ROLE_SERVER */
  81:.\Generated_Source\PSoC4/BLE_eventHandler.c **** 
  82:.\Generated_Source\PSoC4/BLE_eventHandler.c **** #if(CYBLE_GATT_ROLE_CLIENT)
  83:.\Generated_Source\PSoC4/BLE_eventHandler.c **** uint8 cyBle_disCount; /* Counter for discovery procedures */
  84:.\Generated_Source\PSoC4/BLE_eventHandler.c **** static CYBLE_GATT_DB_ATTR_HANDLE_T cyBle_charEndHandle;
  85:.\Generated_Source\PSoC4/BLE_eventHandler.c **** /* Discovery included service information, used for 128-bit UUID read response handle 
  86:.\Generated_Source\PSoC4/BLE_eventHandler.c ****    and for continue discovery. 
  87:.\Generated_Source\PSoC4/BLE_eventHandler.c **** */
  88:.\Generated_Source\PSoC4/BLE_eventHandler.c **** static CYBLE_DISC_INCL_INFO_T cyBle_discInclInfo;
  89:.\Generated_Source\PSoC4/BLE_eventHandler.c **** #ifdef CYBLE_HIDS_CLIENT
  90:.\Generated_Source\PSoC4/BLE_eventHandler.c ****     static uint8 disServiceIndex;      /* To discovery descriptors for multiple HID service instanc
ARM GAS  C:\Users\JOHNSO~1\AppData\Local\Temp\ccaL6Noa.s 			page 3


  91:.\Generated_Source\PSoC4/BLE_eventHandler.c **** #endif /* CYBLE_HIDS_CLIENT */
  92:.\Generated_Source\PSoC4/BLE_eventHandler.c **** 
  93:.\Generated_Source\PSoC4/BLE_eventHandler.c **** CYBLE_DISC_SRVC_INFO_T cyBle_serverInfo[CYBLE_SRVI_COUNT] = /*3*/
  94:.\Generated_Source\PSoC4/BLE_eventHandler.c **** {
  95:.\Generated_Source\PSoC4/BLE_eventHandler.c ****     {{CYBLE_GATT_INVALID_ATTR_HANDLE_VALUE, CYBLE_GATT_INVALID_ATTR_HANDLE_VALUE}, CYBLE_UUID_GAP_S
  96:.\Generated_Source\PSoC4/BLE_eventHandler.c ****     {{CYBLE_GATT_INVALID_ATTR_HANDLE_VALUE, CYBLE_GATT_INVALID_ATTR_HANDLE_VALUE}, CYBLE_UUID_GATT_
  97:.\Generated_Source\PSoC4/BLE_eventHandler.c **** #ifdef CYBLE_ANCS_CLIENT
  98:.\Generated_Source\PSoC4/BLE_eventHandler.c ****     {{CYBLE_GATT_INVALID_ATTR_HANDLE_VALUE, CYBLE_GATT_INVALID_ATTR_HANDLE_VALUE}, 0x0000u},
  99:.\Generated_Source\PSoC4/BLE_eventHandler.c **** #endif /* CYBLE_ANCS_CLIENT */
 100:.\Generated_Source\PSoC4/BLE_eventHandler.c **** #ifdef CYBLE_ANS_CLIENT
 101:.\Generated_Source\PSoC4/BLE_eventHandler.c ****     {{CYBLE_GATT_INVALID_ATTR_HANDLE_VALUE, CYBLE_GATT_INVALID_ATTR_HANDLE_VALUE}, 
 102:.\Generated_Source\PSoC4/BLE_eventHandler.c ****         CYBLE_UUID_ALERT_NOTIFICATION_SERVICE},
 103:.\Generated_Source\PSoC4/BLE_eventHandler.c **** #endif /* CYBLE_ANS_CLIENT */
 104:.\Generated_Source\PSoC4/BLE_eventHandler.c **** #ifdef CYBLE_BAS_CLIENT
 105:.\Generated_Source\PSoC4/BLE_eventHandler.c ****     {{CYBLE_GATT_INVALID_ATTR_HANDLE_VALUE, CYBLE_GATT_INVALID_ATTR_HANDLE_VALUE}, CYBLE_UUID_BAS_S
 106:.\Generated_Source\PSoC4/BLE_eventHandler.c ****     #if(CYBLE_BASC_SERVICE_COUNT > 1u) /* Generate it by GUI */
 107:.\Generated_Source\PSoC4/BLE_eventHandler.c ****         
 108:.\Generated_Source\PSoC4/BLE_eventHandler.c ****     #endif /* CYBLE_BASC_SERVICE_COUNT > 1u */
 109:.\Generated_Source\PSoC4/BLE_eventHandler.c **** #endif /* CYBLE_BAS_CLIENT */
 110:.\Generated_Source\PSoC4/BLE_eventHandler.c **** #ifdef CYBLE_BLS_CLIENT
 111:.\Generated_Source\PSoC4/BLE_eventHandler.c ****     {{CYBLE_GATT_INVALID_ATTR_HANDLE_VALUE, CYBLE_GATT_INVALID_ATTR_HANDLE_VALUE}, CYBLE_UUID_BLOOD
 112:.\Generated_Source\PSoC4/BLE_eventHandler.c **** #endif /* CYBLE_BLS_CLIENT */
 113:.\Generated_Source\PSoC4/BLE_eventHandler.c **** #ifdef CYBLE_BMS_CLIENT
 114:.\Generated_Source\PSoC4/BLE_eventHandler.c ****     {{CYBLE_GATT_INVALID_ATTR_HANDLE_VALUE, CYBLE_GATT_INVALID_ATTR_HANDLE_VALUE}, CYBLE_UUID_BOND_
 115:.\Generated_Source\PSoC4/BLE_eventHandler.c **** #endif /* CYBLE_BMS_CLIENT */
 116:.\Generated_Source\PSoC4/BLE_eventHandler.c **** #ifdef CYBLE_CGMS_CLIENT
 117:.\Generated_Source\PSoC4/BLE_eventHandler.c ****     {{CYBLE_GATT_INVALID_ATTR_HANDLE_VALUE, CYBLE_GATT_INVALID_ATTR_HANDLE_VALUE}, CYBLE_UUID_CGM_S
 118:.\Generated_Source\PSoC4/BLE_eventHandler.c **** #endif /* CYBLE_CGMS_CLIENT */
 119:.\Generated_Source\PSoC4/BLE_eventHandler.c **** #ifdef CYBLE_CPS_CLIENT
 120:.\Generated_Source\PSoC4/BLE_eventHandler.c ****     {{CYBLE_GATT_INVALID_ATTR_HANDLE_VALUE, CYBLE_GATT_INVALID_ATTR_HANDLE_VALUE}, CYBLE_UUID_CPS_S
 121:.\Generated_Source\PSoC4/BLE_eventHandler.c **** #endif /* CYBLE_CPS_CLIENT */
 122:.\Generated_Source\PSoC4/BLE_eventHandler.c **** #ifdef CYBLE_CSCS_CLIENT
 123:.\Generated_Source\PSoC4/BLE_eventHandler.c ****     {{CYBLE_GATT_INVALID_ATTR_HANDLE_VALUE, CYBLE_GATT_INVALID_ATTR_HANDLE_VALUE}, 
 124:.\Generated_Source\PSoC4/BLE_eventHandler.c ****         CYBLE_UUID_CYCLING_SPEED_AND_CADENCE_SERVICE},
 125:.\Generated_Source\PSoC4/BLE_eventHandler.c **** #endif /* CYBLE_CSCS_CLIENT */
 126:.\Generated_Source\PSoC4/BLE_eventHandler.c **** #ifdef CYBLE_CTS_CLIENT
 127:.\Generated_Source\PSoC4/BLE_eventHandler.c ****     {{CYBLE_GATT_INVALID_ATTR_HANDLE_VALUE, CYBLE_GATT_INVALID_ATTR_HANDLE_VALUE}, CYBLE_UUID_CURRE
 128:.\Generated_Source\PSoC4/BLE_eventHandler.c **** #endif /* CYBLE_CTS_CLIENT */
 129:.\Generated_Source\PSoC4/BLE_eventHandler.c **** #ifdef CYBLE_CUSTOM_CLIENT
 130:.\Generated_Source\PSoC4/BLE_eventHandler.c ****     
 131:.\Generated_Source\PSoC4/BLE_eventHandler.c **** #endif /* CYBLE_CUSTOM_CLIENT */
 132:.\Generated_Source\PSoC4/BLE_eventHandler.c **** #ifdef CYBLE_DIS_CLIENT
 133:.\Generated_Source\PSoC4/BLE_eventHandler.c ****     {{CYBLE_GATT_INVALID_ATTR_HANDLE_VALUE, CYBLE_GATT_INVALID_ATTR_HANDLE_VALUE}, CYBLE_UUID_DEVIC
 134:.\Generated_Source\PSoC4/BLE_eventHandler.c **** #endif /* CYBLE_DIS_CLIENT */
 135:.\Generated_Source\PSoC4/BLE_eventHandler.c **** #ifdef CYBLE_ESS_CLIENT
 136:.\Generated_Source\PSoC4/BLE_eventHandler.c ****     {{CYBLE_GATT_INVALID_ATTR_HANDLE_VALUE, CYBLE_GATT_INVALID_ATTR_HANDLE_VALUE}, 
 137:.\Generated_Source\PSoC4/BLE_eventHandler.c ****         CYBLE_UUID_ENVIRONMENTAL_SENSING_SERVICE},
 138:.\Generated_Source\PSoC4/BLE_eventHandler.c **** #endif /* CYBLE_ESS_CLIENT */
 139:.\Generated_Source\PSoC4/BLE_eventHandler.c **** #ifdef CYBLE_GLS_CLIENT
 140:.\Generated_Source\PSoC4/BLE_eventHandler.c ****     {{CYBLE_GATT_INVALID_ATTR_HANDLE_VALUE, CYBLE_GATT_INVALID_ATTR_HANDLE_VALUE}, CYBLE_UUID_GLUCO
 141:.\Generated_Source\PSoC4/BLE_eventHandler.c **** #endif /* CYBLE_GLS_CLIENT */
 142:.\Generated_Source\PSoC4/BLE_eventHandler.c **** #ifdef CYBLE_HIDS_CLIENT
 143:.\Generated_Source\PSoC4/BLE_eventHandler.c ****     {{CYBLE_GATT_INVALID_ATTR_HANDLE_VALUE, CYBLE_GATT_INVALID_ATTR_HANDLE_VALUE}, CYBLE_UUID_HIDS_
 144:.\Generated_Source\PSoC4/BLE_eventHandler.c ****     #if(CYBLE_HIDSC_SERVICE_COUNT > 1u) /* Generate it by GUI */
 145:.\Generated_Source\PSoC4/BLE_eventHandler.c ****         
 146:.\Generated_Source\PSoC4/BLE_eventHandler.c ****     #endif /* CYBLE_HIDSC_SERVICE_COUNT > 1u */
 147:.\Generated_Source\PSoC4/BLE_eventHandler.c **** #endif /* CYBLE_HIDS_CLIENT */
ARM GAS  C:\Users\JOHNSO~1\AppData\Local\Temp\ccaL6Noa.s 			page 4


 148:.\Generated_Source\PSoC4/BLE_eventHandler.c **** #ifdef CYBLE_HRS_CLIENT
 149:.\Generated_Source\PSoC4/BLE_eventHandler.c ****     {{CYBLE_GATT_INVALID_ATTR_HANDLE_VALUE, CYBLE_GATT_INVALID_ATTR_HANDLE_VALUE}, CYBLE_UUID_HEART
 150:.\Generated_Source\PSoC4/BLE_eventHandler.c **** #endif /* CYBLE_HRS_CLIENT */
 151:.\Generated_Source\PSoC4/BLE_eventHandler.c **** #ifdef CYBLE_HTS_CLIENT
 152:.\Generated_Source\PSoC4/BLE_eventHandler.c ****     {{CYBLE_GATT_INVALID_ATTR_HANDLE_VALUE, CYBLE_GATT_INVALID_ATTR_HANDLE_VALUE}, CYBLE_UUID_HEALT
 153:.\Generated_Source\PSoC4/BLE_eventHandler.c **** #endif /* CYBLE_HTS_CLIENT */
 154:.\Generated_Source\PSoC4/BLE_eventHandler.c **** #ifdef CYBLE_IAS_CLIENT
 155:.\Generated_Source\PSoC4/BLE_eventHandler.c ****     {{CYBLE_GATT_INVALID_ATTR_HANDLE_VALUE, CYBLE_GATT_INVALID_ATTR_HANDLE_VALUE}, CYBLE_UUID_IMMED
 156:.\Generated_Source\PSoC4/BLE_eventHandler.c **** #endif /* CYBLE_IAS_CLIENT */
 157:.\Generated_Source\PSoC4/BLE_eventHandler.c **** #ifdef CYBLE_LLS_CLIENT
 158:.\Generated_Source\PSoC4/BLE_eventHandler.c ****     {{CYBLE_GATT_INVALID_ATTR_HANDLE_VALUE, CYBLE_GATT_INVALID_ATTR_HANDLE_VALUE}, CYBLE_UUID_LINK_
 159:.\Generated_Source\PSoC4/BLE_eventHandler.c **** #endif /* CYBLE_LLS_CLIENT */
 160:.\Generated_Source\PSoC4/BLE_eventHandler.c **** #ifdef CYBLE_LNS_CLIENT
 161:.\Generated_Source\PSoC4/BLE_eventHandler.c ****     {{CYBLE_GATT_INVALID_ATTR_HANDLE_VALUE, CYBLE_GATT_INVALID_ATTR_HANDLE_VALUE}, CYBLE_UUID_LOCAT
 162:.\Generated_Source\PSoC4/BLE_eventHandler.c **** #endif /* CYBLE_LNS_CLIENT */
 163:.\Generated_Source\PSoC4/BLE_eventHandler.c **** #ifdef CYBLE_NDCS_CLIENT
 164:.\Generated_Source\PSoC4/BLE_eventHandler.c ****     {{CYBLE_GATT_INVALID_ATTR_HANDLE_VALUE, CYBLE_GATT_INVALID_ATTR_HANDLE_VALUE}, CYBLE_UUID_NEXT_
 165:.\Generated_Source\PSoC4/BLE_eventHandler.c **** #endif /* CYBLE_NDCS_CLIENT */
 166:.\Generated_Source\PSoC4/BLE_eventHandler.c **** #ifdef CYBLE_IPSS_CLIENT
 167:.\Generated_Source\PSoC4/BLE_eventHandler.c ****     {{CYBLE_GATT_INVALID_ATTR_HANDLE_VALUE, CYBLE_GATT_INVALID_ATTR_HANDLE_VALUE}, CYBLE_UUID_INTER
 168:.\Generated_Source\PSoC4/BLE_eventHandler.c **** #endif /* CYBLE_IPSS_CLIENT */
 169:.\Generated_Source\PSoC4/BLE_eventHandler.c **** #ifdef CYBLE_PASS_CLIENT
 170:.\Generated_Source\PSoC4/BLE_eventHandler.c ****     {{CYBLE_GATT_INVALID_ATTR_HANDLE_VALUE, CYBLE_GATT_INVALID_ATTR_HANDLE_VALUE}, CYBLE_UUID_PHONE
 171:.\Generated_Source\PSoC4/BLE_eventHandler.c **** #endif /* CYBLE_PASS_CLIENT */
 172:.\Generated_Source\PSoC4/BLE_eventHandler.c **** #ifdef CYBLE_RSCS_CLIENT
 173:.\Generated_Source\PSoC4/BLE_eventHandler.c ****     {{CYBLE_GATT_INVALID_ATTR_HANDLE_VALUE, CYBLE_GATT_INVALID_ATTR_HANDLE_VALUE}, CYBLE_UUID_RUNNI
 174:.\Generated_Source\PSoC4/BLE_eventHandler.c **** #endif /* CYBLE_RSCS_CLIENT */
 175:.\Generated_Source\PSoC4/BLE_eventHandler.c **** #ifdef CYBLE_RTUS_CLIENT
 176:.\Generated_Source\PSoC4/BLE_eventHandler.c ****     {{CYBLE_GATT_INVALID_ATTR_HANDLE_VALUE, CYBLE_GATT_INVALID_ATTR_HANDLE_VALUE}, CYBLE_UUID_REF_T
 177:.\Generated_Source\PSoC4/BLE_eventHandler.c **** #endif /* CYBLE_RTUS_CLIENT */
 178:.\Generated_Source\PSoC4/BLE_eventHandler.c **** #ifdef CYBLE_SCPS_CLIENT
 179:.\Generated_Source\PSoC4/BLE_eventHandler.c ****     {{CYBLE_GATT_INVALID_ATTR_HANDLE_VALUE, CYBLE_GATT_INVALID_ATTR_HANDLE_VALUE}, CYBLE_UUID_SCAN_
 180:.\Generated_Source\PSoC4/BLE_eventHandler.c **** #endif /* CYBLE_SCPS_CLIENT */
 181:.\Generated_Source\PSoC4/BLE_eventHandler.c **** #ifdef CYBLE_TPS_CLIENT
 182:.\Generated_Source\PSoC4/BLE_eventHandler.c ****     {{CYBLE_GATT_INVALID_ATTR_HANDLE_VALUE, CYBLE_GATT_INVALID_ATTR_HANDLE_VALUE}, CYBLE_UUID_TX_PO
 183:.\Generated_Source\PSoC4/BLE_eventHandler.c **** #endif /* CYBLE_TPS_CLIENT */
 184:.\Generated_Source\PSoC4/BLE_eventHandler.c **** #ifdef CYBLE_UDS_CLIENT
 185:.\Generated_Source\PSoC4/BLE_eventHandler.c ****     {{CYBLE_GATT_INVALID_ATTR_HANDLE_VALUE, CYBLE_GATT_INVALID_ATTR_HANDLE_VALUE}, CYBLE_UUID_USER_
 186:.\Generated_Source\PSoC4/BLE_eventHandler.c **** #endif /* CYBLE_UDS_CLIENT */
 187:.\Generated_Source\PSoC4/BLE_eventHandler.c **** #ifdef CYBLE_WPTS_CLIENT
 188:.\Generated_Source\PSoC4/BLE_eventHandler.c ****     {{CYBLE_GATT_INVALID_ATTR_HANDLE_VALUE, CYBLE_GATT_INVALID_ATTR_HANDLE_VALUE}, CYBLE_UUID_WIREL
 189:.\Generated_Source\PSoC4/BLE_eventHandler.c **** #endif /* CYBLE_WPTS_CLIENT */
 190:.\Generated_Source\PSoC4/BLE_eventHandler.c **** };
 191:.\Generated_Source\PSoC4/BLE_eventHandler.c **** 
 192:.\Generated_Source\PSoC4/BLE_eventHandler.c **** CYBLE_GAPC_T cyBle_gapc;
 193:.\Generated_Source\PSoC4/BLE_eventHandler.c **** 
 194:.\Generated_Source\PSoC4/BLE_eventHandler.c **** #endif /* CYBLE_GATT_ROLE_CLIENT */
 195:.\Generated_Source\PSoC4/BLE_eventHandler.c **** 
 196:.\Generated_Source\PSoC4/BLE_eventHandler.c **** /* Default device security */
 197:.\Generated_Source\PSoC4/BLE_eventHandler.c **** CYBLE_GAP_AUTH_INFO_T cyBle_authInfo =
 198:.\Generated_Source\PSoC4/BLE_eventHandler.c **** {
 199:.\Generated_Source\PSoC4/BLE_eventHandler.c ****     (CYBLE_GAP_SEC_MODE_1 | CYBLE_GAP_SEC_LEVEL_1 ), /* uint8 security */
 200:.\Generated_Source\PSoC4/BLE_eventHandler.c ****     CYBLE_GAP_BONDING, /* uint8 bonding */
 201:.\Generated_Source\PSoC4/BLE_eventHandler.c ****     0x10u,      /* uint8 ekeySize */
 202:.\Generated_Source\PSoC4/BLE_eventHandler.c ****     CYBLE_GAP_AUTH_ERROR_NONE, /* CYBLE_AUTH_FAILED_REASON_T authErr */
 203:.\Generated_Source\PSoC4/BLE_eventHandler.c **** };
 204:.\Generated_Source\PSoC4/BLE_eventHandler.c **** 
ARM GAS  C:\Users\JOHNSO~1\AppData\Local\Temp\ccaL6Noa.s 			page 5


 205:.\Generated_Source\PSoC4/BLE_eventHandler.c **** #if(CYBLE_GATT_ROLE_SERVER)
 206:.\Generated_Source\PSoC4/BLE_eventHandler.c **** 
 207:.\Generated_Source\PSoC4/BLE_eventHandler.c **** 
 208:.\Generated_Source\PSoC4/BLE_eventHandler.c **** /******************************************************************************    
 209:.\Generated_Source\PSoC4/BLE_eventHandler.c **** ##Function Name: CyBle_WriteReqHandler
 210:.\Generated_Source\PSoC4/BLE_eventHandler.c **** *******************************************************************************
 211:.\Generated_Source\PSoC4/BLE_eventHandler.c **** 
 212:.\Generated_Source\PSoC4/BLE_eventHandler.c **** Summary:
 213:.\Generated_Source\PSoC4/BLE_eventHandler.c ****  Handles the Write Request event from BLE stack.
 214:.\Generated_Source\PSoC4/BLE_eventHandler.c **** 
 215:.\Generated_Source\PSoC4/BLE_eventHandler.c **** Parameters:
 216:.\Generated_Source\PSoC4/BLE_eventHandler.c ****  CYBLE_GATTS_WRITE_REQ_PARAM_T * eventParam - event parameter
 217:.\Generated_Source\PSoC4/BLE_eventHandler.c **** 
 218:.\Generated_Source\PSoC4/BLE_eventHandler.c **** Return:
 219:.\Generated_Source\PSoC4/BLE_eventHandler.c ****  None
 220:.\Generated_Source\PSoC4/BLE_eventHandler.c **** 
 221:.\Generated_Source\PSoC4/BLE_eventHandler.c **** ******************************************************************************/
 222:.\Generated_Source\PSoC4/BLE_eventHandler.c **** static void CyBle_WriteReqHandler(CYBLE_GATTS_WRITE_REQ_PARAM_T *eventParam)
 223:.\Generated_Source\PSoC4/BLE_eventHandler.c **** {
 224:.\Generated_Source\PSoC4/BLE_eventHandler.c ****     CYBLE_GATT_ERR_CODE_T gattErr;
 225:.\Generated_Source\PSoC4/BLE_eventHandler.c **** #if defined CYBLE_CTS_SERVER || defined CYBLE_ESS_SERVER
 226:.\Generated_Source\PSoC4/BLE_eventHandler.c ****     cyBle_gattError = CYBLE_GATT_ERR_NONE;
 227:.\Generated_Source\PSoC4/BLE_eventHandler.c **** #endif /* defined CYBLE_CTS_SERVER || defined CYBLE_ESS_SERVER */
 228:.\Generated_Source\PSoC4/BLE_eventHandler.c ****     
 229:.\Generated_Source\PSoC4/BLE_eventHandler.c ****     gattErr = CyBle_GattsWriteEventHandler(eventParam);
 230:.\Generated_Source\PSoC4/BLE_eventHandler.c **** #ifdef CYBLE_ANCS_SERVER
 231:.\Generated_Source\PSoC4/BLE_eventHandler.c ****     if(((cyBle_eventHandlerFlag & CYBLE_CALLBACK) != 0u) && (gattErr == CYBLE_GATT_ERR_NONE))
 232:.\Generated_Source\PSoC4/BLE_eventHandler.c ****     {
 233:.\Generated_Source\PSoC4/BLE_eventHandler.c ****         gattErr = CyBle_AncssWriteEventHandler(eventParam);
 234:.\Generated_Source\PSoC4/BLE_eventHandler.c ****     }
 235:.\Generated_Source\PSoC4/BLE_eventHandler.c **** #endif /* CYBLE_ANCS_SERVER */
 236:.\Generated_Source\PSoC4/BLE_eventHandler.c **** #ifdef CYBLE_ANS_SERVER
 237:.\Generated_Source\PSoC4/BLE_eventHandler.c ****     if(((cyBle_eventHandlerFlag & CYBLE_CALLBACK) != 0u) && (gattErr == CYBLE_GATT_ERR_NONE))
 238:.\Generated_Source\PSoC4/BLE_eventHandler.c ****     {
 239:.\Generated_Source\PSoC4/BLE_eventHandler.c ****         gattErr = CyBle_AnssWriteEventHandler(eventParam);
 240:.\Generated_Source\PSoC4/BLE_eventHandler.c ****     }
 241:.\Generated_Source\PSoC4/BLE_eventHandler.c **** #endif /* CYBLE_ANS_SERVER */
 242:.\Generated_Source\PSoC4/BLE_eventHandler.c **** #ifdef CYBLE_BAS_SERVER
 243:.\Generated_Source\PSoC4/BLE_eventHandler.c ****     if(((cyBle_eventHandlerFlag & CYBLE_CALLBACK) != 0u) && (gattErr == CYBLE_GATT_ERR_NONE))
 244:.\Generated_Source\PSoC4/BLE_eventHandler.c ****     {
 245:.\Generated_Source\PSoC4/BLE_eventHandler.c ****         gattErr = CyBle_BassWriteEventHandler(eventParam);
 246:.\Generated_Source\PSoC4/BLE_eventHandler.c ****     }
 247:.\Generated_Source\PSoC4/BLE_eventHandler.c **** #endif /* CYBLE_BAS_SERVER */
 248:.\Generated_Source\PSoC4/BLE_eventHandler.c **** #ifdef CYBLE_BCS_SERVER
 249:.\Generated_Source\PSoC4/BLE_eventHandler.c ****     if(((cyBle_eventHandlerFlag & CYBLE_CALLBACK) != 0u) && (gattErr == CYBLE_GATT_ERR_NONE))
 250:.\Generated_Source\PSoC4/BLE_eventHandler.c ****     {
 251:.\Generated_Source\PSoC4/BLE_eventHandler.c ****         gattErr = CyBle_BcssWriteEventHandler(eventParam);
 252:.\Generated_Source\PSoC4/BLE_eventHandler.c ****     }
 253:.\Generated_Source\PSoC4/BLE_eventHandler.c **** #endif /* CYBLE_BCS_SERVER */
 254:.\Generated_Source\PSoC4/BLE_eventHandler.c **** #ifdef CYBLE_BLS_SERVER
 255:.\Generated_Source\PSoC4/BLE_eventHandler.c ****     if(((cyBle_eventHandlerFlag & CYBLE_CALLBACK) != 0u) && (gattErr == CYBLE_GATT_ERR_NONE))
 256:.\Generated_Source\PSoC4/BLE_eventHandler.c ****     {
 257:.\Generated_Source\PSoC4/BLE_eventHandler.c ****         gattErr = CyBle_BlssWriteEventHandler(eventParam);
 258:.\Generated_Source\PSoC4/BLE_eventHandler.c ****     }
 259:.\Generated_Source\PSoC4/BLE_eventHandler.c **** #endif /* CYBLE_BLS_SERVER */
 260:.\Generated_Source\PSoC4/BLE_eventHandler.c **** #ifdef CYBLE_BMS_SERVER
 261:.\Generated_Source\PSoC4/BLE_eventHandler.c ****     if(((cyBle_eventHandlerFlag & CYBLE_CALLBACK) != 0u) && (gattErr == CYBLE_GATT_ERR_NONE))
ARM GAS  C:\Users\JOHNSO~1\AppData\Local\Temp\ccaL6Noa.s 			page 6


 262:.\Generated_Source\PSoC4/BLE_eventHandler.c ****     {
 263:.\Generated_Source\PSoC4/BLE_eventHandler.c ****         gattErr = CyBle_BmssWriteEventHandler(eventParam);
 264:.\Generated_Source\PSoC4/BLE_eventHandler.c ****     }
 265:.\Generated_Source\PSoC4/BLE_eventHandler.c **** #endif /* CYBLE_BMS_SERVER */
 266:.\Generated_Source\PSoC4/BLE_eventHandler.c **** #ifdef CYBLE_BTS_SERVER
 267:.\Generated_Source\PSoC4/BLE_eventHandler.c ****     if((cyBle_eventHandlerFlag & CYBLE_CALLBACK) != 0u)
 268:.\Generated_Source\PSoC4/BLE_eventHandler.c ****     {
 269:.\Generated_Source\PSoC4/BLE_eventHandler.c ****         gattErr = CyBle_BtsWriteEventHandler(eventParam);
 270:.\Generated_Source\PSoC4/BLE_eventHandler.c ****     }
 271:.\Generated_Source\PSoC4/BLE_eventHandler.c **** #endif /* CYBLE_BTS_SERVER */
 272:.\Generated_Source\PSoC4/BLE_eventHandler.c **** #ifdef CYBLE_CGMS_SERVER
 273:.\Generated_Source\PSoC4/BLE_eventHandler.c ****     if(((cyBle_eventHandlerFlag & CYBLE_CALLBACK) != 0u) && (gattErr == CYBLE_GATT_ERR_NONE))
 274:.\Generated_Source\PSoC4/BLE_eventHandler.c ****     {
 275:.\Generated_Source\PSoC4/BLE_eventHandler.c ****         gattErr = CyBle_CgmssWriteEventHandler(eventParam);
 276:.\Generated_Source\PSoC4/BLE_eventHandler.c ****     }
 277:.\Generated_Source\PSoC4/BLE_eventHandler.c **** #endif /* CYBLE_CGMS_SERVER */
 278:.\Generated_Source\PSoC4/BLE_eventHandler.c **** #ifdef CYBLE_CPS_SERVER
 279:.\Generated_Source\PSoC4/BLE_eventHandler.c ****     if(((cyBle_eventHandlerFlag & CYBLE_CALLBACK) != 0u) && (gattErr == CYBLE_GATT_ERR_NONE))
 280:.\Generated_Source\PSoC4/BLE_eventHandler.c ****     {
 281:.\Generated_Source\PSoC4/BLE_eventHandler.c ****         gattErr = CyBle_CpssWriteEventHandler(eventParam);
 282:.\Generated_Source\PSoC4/BLE_eventHandler.c ****     }
 283:.\Generated_Source\PSoC4/BLE_eventHandler.c **** #endif /* CYBLE_CPS_SERVER */
 284:.\Generated_Source\PSoC4/BLE_eventHandler.c **** #ifdef CYBLE_CSCS_SERVER
 285:.\Generated_Source\PSoC4/BLE_eventHandler.c ****     if(((cyBle_eventHandlerFlag & CYBLE_CALLBACK) != 0u) && (gattErr == CYBLE_GATT_ERR_NONE))
 286:.\Generated_Source\PSoC4/BLE_eventHandler.c ****     {
 287:.\Generated_Source\PSoC4/BLE_eventHandler.c ****         gattErr = CyBle_CscssWriteEventHandler(eventParam);
 288:.\Generated_Source\PSoC4/BLE_eventHandler.c ****     }
 289:.\Generated_Source\PSoC4/BLE_eventHandler.c **** #endif /* CYBLE_CSCS_SERVER */
 290:.\Generated_Source\PSoC4/BLE_eventHandler.c **** #ifdef CYBLE_CTS_SERVER
 291:.\Generated_Source\PSoC4/BLE_eventHandler.c ****     if(((cyBle_eventHandlerFlag & CYBLE_CALLBACK) != 0u) && (gattErr == CYBLE_GATT_ERR_NONE))
 292:.\Generated_Source\PSoC4/BLE_eventHandler.c ****     {
 293:.\Generated_Source\PSoC4/BLE_eventHandler.c ****         gattErr = CyBle_CtssWriteEventHandler(eventParam);
 294:.\Generated_Source\PSoC4/BLE_eventHandler.c ****     }
 295:.\Generated_Source\PSoC4/BLE_eventHandler.c **** #endif /* CYBLE_CTS_SERVER */
 296:.\Generated_Source\PSoC4/BLE_eventHandler.c **** #ifdef CYBLE_ESS_SERVER
 297:.\Generated_Source\PSoC4/BLE_eventHandler.c ****     if(((cyBle_eventHandlerFlag & CYBLE_CALLBACK) != 0u) && (gattErr == CYBLE_GATT_ERR_NONE))
 298:.\Generated_Source\PSoC4/BLE_eventHandler.c ****     {
 299:.\Generated_Source\PSoC4/BLE_eventHandler.c ****         gattErr = CyBle_EsssWriteEventHandler(eventParam);
 300:.\Generated_Source\PSoC4/BLE_eventHandler.c ****     }
 301:.\Generated_Source\PSoC4/BLE_eventHandler.c **** #endif /* CYBLE_ESS_SERVER */
 302:.\Generated_Source\PSoC4/BLE_eventHandler.c **** #ifdef CYBLE_GLS_SERVER
 303:.\Generated_Source\PSoC4/BLE_eventHandler.c ****     if(((cyBle_eventHandlerFlag & CYBLE_CALLBACK) != 0u) && (gattErr == CYBLE_GATT_ERR_NONE))
 304:.\Generated_Source\PSoC4/BLE_eventHandler.c ****     {
 305:.\Generated_Source\PSoC4/BLE_eventHandler.c ****         gattErr = CyBle_GlssWriteEventHandler(eventParam);
 306:.\Generated_Source\PSoC4/BLE_eventHandler.c ****     }
 307:.\Generated_Source\PSoC4/BLE_eventHandler.c **** #endif /* CYBLE_GLS_SERVER */
 308:.\Generated_Source\PSoC4/BLE_eventHandler.c **** #ifdef CYBLE_HIDS_SERVER
 309:.\Generated_Source\PSoC4/BLE_eventHandler.c ****     if(((cyBle_eventHandlerFlag & CYBLE_CALLBACK) != 0u) && (gattErr == CYBLE_GATT_ERR_NONE))
 310:.\Generated_Source\PSoC4/BLE_eventHandler.c ****     {
 311:.\Generated_Source\PSoC4/BLE_eventHandler.c ****         gattErr = CyBle_HidssWriteEventHandler(eventParam);
 312:.\Generated_Source\PSoC4/BLE_eventHandler.c ****     }
 313:.\Generated_Source\PSoC4/BLE_eventHandler.c **** #endif /* CYBLE_HIDS_SERVER */
 314:.\Generated_Source\PSoC4/BLE_eventHandler.c **** #ifdef CYBLE_HRS_SERVER
 315:.\Generated_Source\PSoC4/BLE_eventHandler.c ****     if(((cyBle_eventHandlerFlag & CYBLE_CALLBACK) != 0u) && (gattErr == CYBLE_GATT_ERR_NONE))
 316:.\Generated_Source\PSoC4/BLE_eventHandler.c ****     {
 317:.\Generated_Source\PSoC4/BLE_eventHandler.c ****         gattErr = CyBle_HrssWriteEventHandler(eventParam);
 318:.\Generated_Source\PSoC4/BLE_eventHandler.c ****     }
ARM GAS  C:\Users\JOHNSO~1\AppData\Local\Temp\ccaL6Noa.s 			page 7


 319:.\Generated_Source\PSoC4/BLE_eventHandler.c **** #endif /* CYBLE_HRS_SERVER */
 320:.\Generated_Source\PSoC4/BLE_eventHandler.c **** #ifdef CYBLE_HTS_SERVER
 321:.\Generated_Source\PSoC4/BLE_eventHandler.c ****     if(((cyBle_eventHandlerFlag & CYBLE_CALLBACK) != 0u) && (gattErr == CYBLE_GATT_ERR_NONE))
 322:.\Generated_Source\PSoC4/BLE_eventHandler.c ****     {
 323:.\Generated_Source\PSoC4/BLE_eventHandler.c ****         gattErr = CyBle_HtssWriteEventHandler(eventParam);
 324:.\Generated_Source\PSoC4/BLE_eventHandler.c ****     }
 325:.\Generated_Source\PSoC4/BLE_eventHandler.c **** #endif /* CYBLE_HTS_SERVER */
 326:.\Generated_Source\PSoC4/BLE_eventHandler.c **** #ifdef CYBLE_LLS_SERVER
 327:.\Generated_Source\PSoC4/BLE_eventHandler.c ****     if(((cyBle_eventHandlerFlag & CYBLE_CALLBACK) != 0u) && (gattErr == CYBLE_GATT_ERR_NONE))
 328:.\Generated_Source\PSoC4/BLE_eventHandler.c ****     {
 329:.\Generated_Source\PSoC4/BLE_eventHandler.c ****         gattErr = CyBle_LlssWriteEventHandler(eventParam);
 330:.\Generated_Source\PSoC4/BLE_eventHandler.c ****     }
 331:.\Generated_Source\PSoC4/BLE_eventHandler.c **** #endif /* CYBLE_LLS_SERVER */
 332:.\Generated_Source\PSoC4/BLE_eventHandler.c **** #ifdef CYBLE_LNS_SERVER
 333:.\Generated_Source\PSoC4/BLE_eventHandler.c ****     if(((cyBle_eventHandlerFlag & CYBLE_CALLBACK) != 0u) && (gattErr == CYBLE_GATT_ERR_NONE))
 334:.\Generated_Source\PSoC4/BLE_eventHandler.c ****     {
 335:.\Generated_Source\PSoC4/BLE_eventHandler.c ****         gattErr = CyBle_LnssWriteEventHandler(eventParam);
 336:.\Generated_Source\PSoC4/BLE_eventHandler.c ****     }
 337:.\Generated_Source\PSoC4/BLE_eventHandler.c **** #endif /* CYBLE_LNS_SERVER */
 338:.\Generated_Source\PSoC4/BLE_eventHandler.c **** #ifdef CYBLE_PASS_SERVER
 339:.\Generated_Source\PSoC4/BLE_eventHandler.c ****     if(((cyBle_eventHandlerFlag & CYBLE_CALLBACK) != 0u) && (gattErr == CYBLE_GATT_ERR_NONE))
 340:.\Generated_Source\PSoC4/BLE_eventHandler.c ****     {
 341:.\Generated_Source\PSoC4/BLE_eventHandler.c ****         gattErr = CyBle_PasssWriteEventHandler(eventParam);
 342:.\Generated_Source\PSoC4/BLE_eventHandler.c ****     }
 343:.\Generated_Source\PSoC4/BLE_eventHandler.c **** #endif /* CYBLE_PASS_SERVER */
 344:.\Generated_Source\PSoC4/BLE_eventHandler.c **** #ifdef CYBLE_RSCS_SERVER
 345:.\Generated_Source\PSoC4/BLE_eventHandler.c ****     if(((cyBle_eventHandlerFlag & CYBLE_CALLBACK) != 0u) && (gattErr == CYBLE_GATT_ERR_NONE))
 346:.\Generated_Source\PSoC4/BLE_eventHandler.c ****     {
 347:.\Generated_Source\PSoC4/BLE_eventHandler.c ****         gattErr = CyBle_RscssWriteEventHandler(eventParam);
 348:.\Generated_Source\PSoC4/BLE_eventHandler.c ****     }
 349:.\Generated_Source\PSoC4/BLE_eventHandler.c **** #endif /* CYBLE_RSCS_SERVER */
 350:.\Generated_Source\PSoC4/BLE_eventHandler.c **** #ifdef CYBLE_SCPS_SERVER
 351:.\Generated_Source\PSoC4/BLE_eventHandler.c ****     if(((cyBle_eventHandlerFlag & CYBLE_CALLBACK) != 0u) && (gattErr == CYBLE_GATT_ERR_NONE))
 352:.\Generated_Source\PSoC4/BLE_eventHandler.c ****     {
 353:.\Generated_Source\PSoC4/BLE_eventHandler.c ****         gattErr = CyBle_ScpssWriteEventHandler(eventParam);
 354:.\Generated_Source\PSoC4/BLE_eventHandler.c ****     }
 355:.\Generated_Source\PSoC4/BLE_eventHandler.c **** #endif /* CYBLE_SCPS_SERVER */
 356:.\Generated_Source\PSoC4/BLE_eventHandler.c **** #ifdef CYBLE_TPS_SERVER
 357:.\Generated_Source\PSoC4/BLE_eventHandler.c ****     if(((cyBle_eventHandlerFlag & CYBLE_CALLBACK) != 0u) && (gattErr == CYBLE_GATT_ERR_NONE))
 358:.\Generated_Source\PSoC4/BLE_eventHandler.c ****     {
 359:.\Generated_Source\PSoC4/BLE_eventHandler.c ****         gattErr = CyBle_TpssWriteEventHandler(eventParam);
 360:.\Generated_Source\PSoC4/BLE_eventHandler.c ****     }
 361:.\Generated_Source\PSoC4/BLE_eventHandler.c **** #endif /* CYBLE_TPS_SERVER */
 362:.\Generated_Source\PSoC4/BLE_eventHandler.c **** #ifdef CYBLE_UDS_SERVER
 363:.\Generated_Source\PSoC4/BLE_eventHandler.c ****     if(((cyBle_eventHandlerFlag & CYBLE_CALLBACK) != 0u) && (gattErr == CYBLE_GATT_ERR_NONE))
 364:.\Generated_Source\PSoC4/BLE_eventHandler.c ****     {
 365:.\Generated_Source\PSoC4/BLE_eventHandler.c ****         gattErr = CyBle_UdssWriteEventHandler(eventParam);
 366:.\Generated_Source\PSoC4/BLE_eventHandler.c ****     }
 367:.\Generated_Source\PSoC4/BLE_eventHandler.c **** #endif /* CYBLE_UDS_SERVER */
 368:.\Generated_Source\PSoC4/BLE_eventHandler.c **** #ifdef CYBLE_WPTS_SERVER
 369:.\Generated_Source\PSoC4/BLE_eventHandler.c ****     if(((cyBle_eventHandlerFlag & CYBLE_CALLBACK) != 0u) && (gattErr == CYBLE_GATT_ERR_NONE))
 370:.\Generated_Source\PSoC4/BLE_eventHandler.c ****     {
 371:.\Generated_Source\PSoC4/BLE_eventHandler.c ****         gattErr = CyBle_WptssWriteEventHandler(eventParam);
 372:.\Generated_Source\PSoC4/BLE_eventHandler.c ****     }
 373:.\Generated_Source\PSoC4/BLE_eventHandler.c **** #endif /* CYBLE_WPTS_SERVER */
 374:.\Generated_Source\PSoC4/BLE_eventHandler.c **** #ifdef CYBLE_WSS_SERVER
 375:.\Generated_Source\PSoC4/BLE_eventHandler.c ****     if(((cyBle_eventHandlerFlag & CYBLE_CALLBACK) != 0u) && (gattErr == CYBLE_GATT_ERR_NONE))
ARM GAS  C:\Users\JOHNSO~1\AppData\Local\Temp\ccaL6Noa.s 			page 8


 376:.\Generated_Source\PSoC4/BLE_eventHandler.c ****     {
 377:.\Generated_Source\PSoC4/BLE_eventHandler.c ****         gattErr = CyBle_WsssWriteEventHandler(eventParam);
 378:.\Generated_Source\PSoC4/BLE_eventHandler.c ****     }
 379:.\Generated_Source\PSoC4/BLE_eventHandler.c **** #endif /* CYBLE_WSS_SERVER */
 380:.\Generated_Source\PSoC4/BLE_eventHandler.c **** 
 381:.\Generated_Source\PSoC4/BLE_eventHandler.c ****     /* Send response when event was handled by service */
 382:.\Generated_Source\PSoC4/BLE_eventHandler.c ****     if((cyBle_eventHandlerFlag & CYBLE_CALLBACK) == 0u)
 383:.\Generated_Source\PSoC4/BLE_eventHandler.c ****     {
 384:.\Generated_Source\PSoC4/BLE_eventHandler.c ****         if(gattErr != CYBLE_GATT_ERR_NONE)
 385:.\Generated_Source\PSoC4/BLE_eventHandler.c ****         {
 386:.\Generated_Source\PSoC4/BLE_eventHandler.c ****             CYBLE_GATTS_ERR_PARAM_T err_param;
 387:.\Generated_Source\PSoC4/BLE_eventHandler.c ****             
 388:.\Generated_Source\PSoC4/BLE_eventHandler.c ****             err_param.opcode = (uint8) CYBLE_GATT_WRITE_REQ;
 389:.\Generated_Source\PSoC4/BLE_eventHandler.c ****             err_param.attrHandle = eventParam->handleValPair.attrHandle;
 390:.\Generated_Source\PSoC4/BLE_eventHandler.c ****             err_param.errorCode = gattErr;
 391:.\Generated_Source\PSoC4/BLE_eventHandler.c **** 
 392:.\Generated_Source\PSoC4/BLE_eventHandler.c ****             /* Send Error Response */
 393:.\Generated_Source\PSoC4/BLE_eventHandler.c ****             (void)CyBle_GattsErrorRsp(eventParam->connHandle, &err_param);
 394:.\Generated_Source\PSoC4/BLE_eventHandler.c ****         }
 395:.\Generated_Source\PSoC4/BLE_eventHandler.c ****         else
 396:.\Generated_Source\PSoC4/BLE_eventHandler.c ****         {
 397:.\Generated_Source\PSoC4/BLE_eventHandler.c ****             (void)CyBle_GattsWriteRsp(eventParam->connHandle);
 398:.\Generated_Source\PSoC4/BLE_eventHandler.c ****         }
 399:.\Generated_Source\PSoC4/BLE_eventHandler.c ****     }
 400:.\Generated_Source\PSoC4/BLE_eventHandler.c **** }
 401:.\Generated_Source\PSoC4/BLE_eventHandler.c **** 
 402:.\Generated_Source\PSoC4/BLE_eventHandler.c **** 
 403:.\Generated_Source\PSoC4/BLE_eventHandler.c **** /****************************************************************************** 
 404:.\Generated_Source\PSoC4/BLE_eventHandler.c **** ##Function Name: CyBle_ValueConfirmation
 405:.\Generated_Source\PSoC4/BLE_eventHandler.c **** *******************************************************************************
 406:.\Generated_Source\PSoC4/BLE_eventHandler.c **** 
 407:.\Generated_Source\PSoC4/BLE_eventHandler.c **** Summary:
 408:.\Generated_Source\PSoC4/BLE_eventHandler.c ****  Handles the Value Confirmation request event from the BLE stack.
 409:.\Generated_Source\PSoC4/BLE_eventHandler.c **** 
 410:.\Generated_Source\PSoC4/BLE_eventHandler.c **** Parameters:
 411:.\Generated_Source\PSoC4/BLE_eventHandler.c ****  CYBLE_CONN_HANDLE_T *eventParam - Pointer to a structure
 412:.\Generated_Source\PSoC4/BLE_eventHandler.c ****     of type 'CYBLE_CONN_HANDLE_T'
 413:.\Generated_Source\PSoC4/BLE_eventHandler.c **** 
 414:.\Generated_Source\PSoC4/BLE_eventHandler.c **** Return:
 415:.\Generated_Source\PSoC4/BLE_eventHandler.c ****  None
 416:.\Generated_Source\PSoC4/BLE_eventHandler.c **** 
 417:.\Generated_Source\PSoC4/BLE_eventHandler.c **** ******************************************************************************/
 418:.\Generated_Source\PSoC4/BLE_eventHandler.c **** static void CyBle_ValueConfirmation(const CYBLE_CONN_HANDLE_T *eventParam)
 419:.\Generated_Source\PSoC4/BLE_eventHandler.c **** {
 420:.\Generated_Source\PSoC4/BLE_eventHandler.c ****     if(eventParam != NULL)
 421:.\Generated_Source\PSoC4/BLE_eventHandler.c ****     {
 422:.\Generated_Source\PSoC4/BLE_eventHandler.c ****     #ifdef CYBLE_BCS_SERVER
 423:.\Generated_Source\PSoC4/BLE_eventHandler.c ****         CyBle_BcssConfirmationEventHandler(eventParam);
 424:.\Generated_Source\PSoC4/BLE_eventHandler.c ****     #endif /* CYBLE_BCS_SERVER */
 425:.\Generated_Source\PSoC4/BLE_eventHandler.c ****     #ifdef CYBLE_BLS_SERVER
 426:.\Generated_Source\PSoC4/BLE_eventHandler.c ****         if((cyBle_eventHandlerFlag & CYBLE_CALLBACK) != 0u)
 427:.\Generated_Source\PSoC4/BLE_eventHandler.c ****         {
 428:.\Generated_Source\PSoC4/BLE_eventHandler.c ****             CyBle_BlssConfirmationEventHandler(eventParam);
 429:.\Generated_Source\PSoC4/BLE_eventHandler.c ****         }
 430:.\Generated_Source\PSoC4/BLE_eventHandler.c ****     #endif /* CYBLE_BLS_SERVER */
 431:.\Generated_Source\PSoC4/BLE_eventHandler.c ****     
 432:.\Generated_Source\PSoC4/BLE_eventHandler.c ****     #ifdef CYBLE_CGMS_SERVER
ARM GAS  C:\Users\JOHNSO~1\AppData\Local\Temp\ccaL6Noa.s 			page 9


 433:.\Generated_Source\PSoC4/BLE_eventHandler.c ****         if((cyBle_eventHandlerFlag & CYBLE_CALLBACK) != 0u)
 434:.\Generated_Source\PSoC4/BLE_eventHandler.c ****         {
 435:.\Generated_Source\PSoC4/BLE_eventHandler.c ****             CyBle_CgmssConfirmationEventHandler(eventParam);
 436:.\Generated_Source\PSoC4/BLE_eventHandler.c ****         }
 437:.\Generated_Source\PSoC4/BLE_eventHandler.c ****     #endif /* CYBLE_CGMS_SERVER */
 438:.\Generated_Source\PSoC4/BLE_eventHandler.c ****     
 439:.\Generated_Source\PSoC4/BLE_eventHandler.c ****     #ifdef CYBLE_CPS_SERVER
 440:.\Generated_Source\PSoC4/BLE_eventHandler.c ****         if((cyBle_eventHandlerFlag & CYBLE_CALLBACK) != 0u)
 441:.\Generated_Source\PSoC4/BLE_eventHandler.c ****         {
 442:.\Generated_Source\PSoC4/BLE_eventHandler.c ****             CyBle_CpssConfirmationEventHandler(eventParam);
 443:.\Generated_Source\PSoC4/BLE_eventHandler.c ****         }
 444:.\Generated_Source\PSoC4/BLE_eventHandler.c ****     #endif /* CYBLE_CPS_SERVER */
 445:.\Generated_Source\PSoC4/BLE_eventHandler.c ****     
 446:.\Generated_Source\PSoC4/BLE_eventHandler.c ****     #ifdef CYBLE_CSCS_SERVER
 447:.\Generated_Source\PSoC4/BLE_eventHandler.c ****         if((cyBle_eventHandlerFlag & CYBLE_CALLBACK) != 0u)
 448:.\Generated_Source\PSoC4/BLE_eventHandler.c ****         {
 449:.\Generated_Source\PSoC4/BLE_eventHandler.c ****             CyBle_CscssConfirmationEventHandler(eventParam);
 450:.\Generated_Source\PSoC4/BLE_eventHandler.c ****         }
 451:.\Generated_Source\PSoC4/BLE_eventHandler.c ****     #endif /* CYBLE_CSCS_SERVER */
 452:.\Generated_Source\PSoC4/BLE_eventHandler.c ****     
 453:.\Generated_Source\PSoC4/BLE_eventHandler.c ****     #ifdef CYBLE_ESS_SERVER
 454:.\Generated_Source\PSoC4/BLE_eventHandler.c ****         if((cyBle_eventHandlerFlag & CYBLE_CALLBACK) != 0u)
 455:.\Generated_Source\PSoC4/BLE_eventHandler.c ****         {
 456:.\Generated_Source\PSoC4/BLE_eventHandler.c ****             CyBle_EsssConfirmationEventHandler(eventParam);
 457:.\Generated_Source\PSoC4/BLE_eventHandler.c ****         }
 458:.\Generated_Source\PSoC4/BLE_eventHandler.c ****     #endif /* CYBLE_ESS_SERVER */
 459:.\Generated_Source\PSoC4/BLE_eventHandler.c ****     
 460:.\Generated_Source\PSoC4/BLE_eventHandler.c ****     #ifdef CYBLE_GLS_SERVER
 461:.\Generated_Source\PSoC4/BLE_eventHandler.c ****         if((cyBle_eventHandlerFlag & CYBLE_CALLBACK) != 0u)
 462:.\Generated_Source\PSoC4/BLE_eventHandler.c ****         {
 463:.\Generated_Source\PSoC4/BLE_eventHandler.c ****             CyBle_GlssConfirmationEventHandler(eventParam);
 464:.\Generated_Source\PSoC4/BLE_eventHandler.c ****         }
 465:.\Generated_Source\PSoC4/BLE_eventHandler.c ****     #endif /* CYBLE_GLS_SERVER */
 466:.\Generated_Source\PSoC4/BLE_eventHandler.c ****     
 467:.\Generated_Source\PSoC4/BLE_eventHandler.c ****     #ifdef CYBLE_HTS_SERVER
 468:.\Generated_Source\PSoC4/BLE_eventHandler.c ****         if((cyBle_eventHandlerFlag & CYBLE_CALLBACK) != 0u)
 469:.\Generated_Source\PSoC4/BLE_eventHandler.c ****         {
 470:.\Generated_Source\PSoC4/BLE_eventHandler.c ****             CyBle_HtssConfirmationEventHandler(eventParam);
 471:.\Generated_Source\PSoC4/BLE_eventHandler.c ****         }
 472:.\Generated_Source\PSoC4/BLE_eventHandler.c ****     #endif /* CYBLE_HTS_SERVER */
 473:.\Generated_Source\PSoC4/BLE_eventHandler.c **** 
 474:.\Generated_Source\PSoC4/BLE_eventHandler.c ****     #ifdef CYBLE_LNS_SERVER
 475:.\Generated_Source\PSoC4/BLE_eventHandler.c ****         if((cyBle_eventHandlerFlag & CYBLE_CALLBACK) != 0u)
 476:.\Generated_Source\PSoC4/BLE_eventHandler.c ****         {
 477:.\Generated_Source\PSoC4/BLE_eventHandler.c ****             CyBle_LnssConfirmationEventHandler(eventParam);
 478:.\Generated_Source\PSoC4/BLE_eventHandler.c ****         }
 479:.\Generated_Source\PSoC4/BLE_eventHandler.c ****     #endif /* CYBLE_LNS_SERVER */
 480:.\Generated_Source\PSoC4/BLE_eventHandler.c ****     
 481:.\Generated_Source\PSoC4/BLE_eventHandler.c ****     #ifdef CYBLE_RSCS_SERVER
 482:.\Generated_Source\PSoC4/BLE_eventHandler.c ****         if((cyBle_eventHandlerFlag & CYBLE_CALLBACK) != 0u)
 483:.\Generated_Source\PSoC4/BLE_eventHandler.c ****         {
 484:.\Generated_Source\PSoC4/BLE_eventHandler.c ****             CyBle_RscssConfirmationEventHandler(eventParam);
 485:.\Generated_Source\PSoC4/BLE_eventHandler.c ****         }
 486:.\Generated_Source\PSoC4/BLE_eventHandler.c ****     #endif /* CYBLE_RSCS_SERVER */
 487:.\Generated_Source\PSoC4/BLE_eventHandler.c ****     
 488:.\Generated_Source\PSoC4/BLE_eventHandler.c ****     #ifdef CYBLE_UDS_SERVER
 489:.\Generated_Source\PSoC4/BLE_eventHandler.c ****         if((cyBle_eventHandlerFlag & CYBLE_CALLBACK) != 0u)
ARM GAS  C:\Users\JOHNSO~1\AppData\Local\Temp\ccaL6Noa.s 			page 10


 490:.\Generated_Source\PSoC4/BLE_eventHandler.c ****         {
 491:.\Generated_Source\PSoC4/BLE_eventHandler.c ****             CyBle_UdssConfirmationEventHandler(eventParam);
 492:.\Generated_Source\PSoC4/BLE_eventHandler.c ****         }
 493:.\Generated_Source\PSoC4/BLE_eventHandler.c ****     #endif /* CYBLE_UDS_SERVER */
 494:.\Generated_Source\PSoC4/BLE_eventHandler.c ****     
 495:.\Generated_Source\PSoC4/BLE_eventHandler.c ****     #ifdef CYBLE_WPTS_SERVER
 496:.\Generated_Source\PSoC4/BLE_eventHandler.c ****         if((cyBle_eventHandlerFlag & CYBLE_CALLBACK) != 0u)
 497:.\Generated_Source\PSoC4/BLE_eventHandler.c ****         {
 498:.\Generated_Source\PSoC4/BLE_eventHandler.c ****             CyBle_WptssConfirmationEventHandler(eventParam);
 499:.\Generated_Source\PSoC4/BLE_eventHandler.c ****         }
 500:.\Generated_Source\PSoC4/BLE_eventHandler.c ****     #endif /* CYBLE_WPTS_SERVER */
 501:.\Generated_Source\PSoC4/BLE_eventHandler.c ****     
 502:.\Generated_Source\PSoC4/BLE_eventHandler.c ****     #ifdef CYBLE_WSS_SERVER
 503:.\Generated_Source\PSoC4/BLE_eventHandler.c ****         if((cyBle_eventHandlerFlag & CYBLE_CALLBACK) != 0u)
 504:.\Generated_Source\PSoC4/BLE_eventHandler.c ****         {
 505:.\Generated_Source\PSoC4/BLE_eventHandler.c ****             CyBle_WsssConfirmationEventHandler(eventParam);
 506:.\Generated_Source\PSoC4/BLE_eventHandler.c ****         }
 507:.\Generated_Source\PSoC4/BLE_eventHandler.c ****     #endif /* CYBLE_WSS_SERVER */
 508:.\Generated_Source\PSoC4/BLE_eventHandler.c ****     }
 509:.\Generated_Source\PSoC4/BLE_eventHandler.c **** }
 510:.\Generated_Source\PSoC4/BLE_eventHandler.c **** 
 511:.\Generated_Source\PSoC4/BLE_eventHandler.c **** #endif /* CYBLE_GATT_ROLE_SERVER */
 512:.\Generated_Source\PSoC4/BLE_eventHandler.c **** 
 513:.\Generated_Source\PSoC4/BLE_eventHandler.c **** 
 514:.\Generated_Source\PSoC4/BLE_eventHandler.c **** #if (CYBLE_GATT_ROLE_CLIENT)
 515:.\Generated_Source\PSoC4/BLE_eventHandler.c **** 
 516:.\Generated_Source\PSoC4/BLE_eventHandler.c **** /****************************************************************************** 
 517:.\Generated_Source\PSoC4/BLE_eventHandler.c **** ##Function Name: CyBle_GattcWriteResponseEventHandler
 518:.\Generated_Source\PSoC4/BLE_eventHandler.c **** *******************************************************************************
 519:.\Generated_Source\PSoC4/BLE_eventHandler.c **** 
 520:.\Generated_Source\PSoC4/BLE_eventHandler.c **** Summary:
 521:.\Generated_Source\PSoC4/BLE_eventHandler.c ****  Handles the Write response event from the BLE stack.
 522:.\Generated_Source\PSoC4/BLE_eventHandler.c **** 
 523:.\Generated_Source\PSoC4/BLE_eventHandler.c **** Parameters:
 524:.\Generated_Source\PSoC4/BLE_eventHandler.c ****  CYBLE_CONN_HANDLE_T *eventParam - Pointer to a structure
 525:.\Generated_Source\PSoC4/BLE_eventHandler.c ****     of type 'CYBLE_CONN_HANDLE_T'
 526:.\Generated_Source\PSoC4/BLE_eventHandler.c **** 
 527:.\Generated_Source\PSoC4/BLE_eventHandler.c **** Return:
 528:.\Generated_Source\PSoC4/BLE_eventHandler.c ****  None
 529:.\Generated_Source\PSoC4/BLE_eventHandler.c **** 
 530:.\Generated_Source\PSoC4/BLE_eventHandler.c **** ******************************************************************************/
 531:.\Generated_Source\PSoC4/BLE_eventHandler.c **** static void CyBle_GattcWriteResponseEventHandler(const CYBLE_CONN_HANDLE_T *eventParam)
 532:.\Generated_Source\PSoC4/BLE_eventHandler.c **** {
 533:.\Generated_Source\PSoC4/BLE_eventHandler.c **** #ifdef CYBLE_ANCS_CLIENT
 534:.\Generated_Source\PSoC4/BLE_eventHandler.c ****     CyBle_AncscWriteResponseEventHandler(eventParam);
 535:.\Generated_Source\PSoC4/BLE_eventHandler.c **** #endif /* CYBLE_ANCS_CLIENT */
 536:.\Generated_Source\PSoC4/BLE_eventHandler.c **** 
 537:.\Generated_Source\PSoC4/BLE_eventHandler.c **** #ifdef CYBLE_ANS_CLIENT
 538:.\Generated_Source\PSoC4/BLE_eventHandler.c ****     if((cyBle_eventHandlerFlag & CYBLE_CALLBACK) != 0u)
 539:.\Generated_Source\PSoC4/BLE_eventHandler.c ****     {
 540:.\Generated_Source\PSoC4/BLE_eventHandler.c ****         CyBle_AnscWriteResponseEventHandler(eventParam);
 541:.\Generated_Source\PSoC4/BLE_eventHandler.c ****     }
 542:.\Generated_Source\PSoC4/BLE_eventHandler.c **** #endif /* CYBLE_ANS_CLIENT */
 543:.\Generated_Source\PSoC4/BLE_eventHandler.c **** 
 544:.\Generated_Source\PSoC4/BLE_eventHandler.c **** #ifdef CYBLE_BAS_CLIENT
 545:.\Generated_Source\PSoC4/BLE_eventHandler.c ****     if((cyBle_eventHandlerFlag & CYBLE_CALLBACK) != 0u)
 546:.\Generated_Source\PSoC4/BLE_eventHandler.c ****     {
ARM GAS  C:\Users\JOHNSO~1\AppData\Local\Temp\ccaL6Noa.s 			page 11


 547:.\Generated_Source\PSoC4/BLE_eventHandler.c ****         CyBle_BascWriteResponseEventHandler(eventParam);
 548:.\Generated_Source\PSoC4/BLE_eventHandler.c ****     }
 549:.\Generated_Source\PSoC4/BLE_eventHandler.c **** #endif /* CYBLE_BAS_CLIENT */
 550:.\Generated_Source\PSoC4/BLE_eventHandler.c **** 
 551:.\Generated_Source\PSoC4/BLE_eventHandler.c **** #ifdef CYBLE_BLS_CLIENT
 552:.\Generated_Source\PSoC4/BLE_eventHandler.c ****     if((cyBle_eventHandlerFlag & CYBLE_CALLBACK) != 0u)
 553:.\Generated_Source\PSoC4/BLE_eventHandler.c ****     {
 554:.\Generated_Source\PSoC4/BLE_eventHandler.c ****         CyBle_BlscWriteResponseEventHandler(eventParam);
 555:.\Generated_Source\PSoC4/BLE_eventHandler.c ****     }
 556:.\Generated_Source\PSoC4/BLE_eventHandler.c **** #endif /* CYBLE_BLS_CLIENT */
 557:.\Generated_Source\PSoC4/BLE_eventHandler.c **** 
 558:.\Generated_Source\PSoC4/BLE_eventHandler.c **** #ifdef CYBLE_BMS_CLIENT
 559:.\Generated_Source\PSoC4/BLE_eventHandler.c ****     if((cyBle_eventHandlerFlag & CYBLE_CALLBACK) != 0u)
 560:.\Generated_Source\PSoC4/BLE_eventHandler.c ****     {
 561:.\Generated_Source\PSoC4/BLE_eventHandler.c ****         CyBle_BmscWriteResponseEventHandler(eventParam);
 562:.\Generated_Source\PSoC4/BLE_eventHandler.c ****     }
 563:.\Generated_Source\PSoC4/BLE_eventHandler.c **** #endif /* CYBLE_BMS_CLIENT */
 564:.\Generated_Source\PSoC4/BLE_eventHandler.c **** 
 565:.\Generated_Source\PSoC4/BLE_eventHandler.c **** #ifdef CYBLE_CGMS_CLIENT
 566:.\Generated_Source\PSoC4/BLE_eventHandler.c ****     if((cyBle_eventHandlerFlag & CYBLE_CALLBACK) != 0u)
 567:.\Generated_Source\PSoC4/BLE_eventHandler.c ****     {
 568:.\Generated_Source\PSoC4/BLE_eventHandler.c ****         CyBle_CgmscWriteResponseEventHandler(eventParam);
 569:.\Generated_Source\PSoC4/BLE_eventHandler.c ****     }
 570:.\Generated_Source\PSoC4/BLE_eventHandler.c **** #endif /* CYBLE_CGMS_CLIENT */
 571:.\Generated_Source\PSoC4/BLE_eventHandler.c **** 
 572:.\Generated_Source\PSoC4/BLE_eventHandler.c **** #ifdef CYBLE_CPS_CLIENT
 573:.\Generated_Source\PSoC4/BLE_eventHandler.c ****     if((cyBle_eventHandlerFlag & CYBLE_CALLBACK) != 0u)
 574:.\Generated_Source\PSoC4/BLE_eventHandler.c ****     {
 575:.\Generated_Source\PSoC4/BLE_eventHandler.c ****         CyBle_CpscWriteResponseEventHandler(eventParam);
 576:.\Generated_Source\PSoC4/BLE_eventHandler.c ****     }
 577:.\Generated_Source\PSoC4/BLE_eventHandler.c **** #endif /* CYBLE_CPS_CLIENT */
 578:.\Generated_Source\PSoC4/BLE_eventHandler.c **** 
 579:.\Generated_Source\PSoC4/BLE_eventHandler.c **** #ifdef CYBLE_CSCS_CLIENT
 580:.\Generated_Source\PSoC4/BLE_eventHandler.c ****     if((cyBle_eventHandlerFlag & CYBLE_CALLBACK) != 0u)
 581:.\Generated_Source\PSoC4/BLE_eventHandler.c ****     {
 582:.\Generated_Source\PSoC4/BLE_eventHandler.c ****         CyBle_CscscWriteResponseEventHandler(eventParam);
 583:.\Generated_Source\PSoC4/BLE_eventHandler.c ****     }
 584:.\Generated_Source\PSoC4/BLE_eventHandler.c **** #endif /* CYBLE_CSCS_CLIENT */
 585:.\Generated_Source\PSoC4/BLE_eventHandler.c **** 
 586:.\Generated_Source\PSoC4/BLE_eventHandler.c **** #ifdef CYBLE_CTS_CLIENT
 587:.\Generated_Source\PSoC4/BLE_eventHandler.c ****     if((cyBle_eventHandlerFlag & CYBLE_CALLBACK) != 0u)
 588:.\Generated_Source\PSoC4/BLE_eventHandler.c ****     {
 589:.\Generated_Source\PSoC4/BLE_eventHandler.c ****         CyBle_CtscWriteResponseEventHandler(eventParam);
 590:.\Generated_Source\PSoC4/BLE_eventHandler.c ****     }
 591:.\Generated_Source\PSoC4/BLE_eventHandler.c **** #endif /* CYBLE_CTS_CLIENT */
 592:.\Generated_Source\PSoC4/BLE_eventHandler.c **** 
 593:.\Generated_Source\PSoC4/BLE_eventHandler.c **** #ifdef CYBLE_ESS_CLIENT
 594:.\Generated_Source\PSoC4/BLE_eventHandler.c ****     if((cyBle_eventHandlerFlag & CYBLE_CALLBACK) != 0u)
 595:.\Generated_Source\PSoC4/BLE_eventHandler.c ****     {
 596:.\Generated_Source\PSoC4/BLE_eventHandler.c ****         CyBle_EsscWriteResponseEventHandler(eventParam);
 597:.\Generated_Source\PSoC4/BLE_eventHandler.c ****     }
 598:.\Generated_Source\PSoC4/BLE_eventHandler.c **** #endif /* CYBLE_ESS_CLIENT */
 599:.\Generated_Source\PSoC4/BLE_eventHandler.c **** 
 600:.\Generated_Source\PSoC4/BLE_eventHandler.c **** #ifdef CYBLE_GLS_CLIENT
 601:.\Generated_Source\PSoC4/BLE_eventHandler.c ****     if((cyBle_eventHandlerFlag & CYBLE_CALLBACK) != 0u)
 602:.\Generated_Source\PSoC4/BLE_eventHandler.c ****     {
 603:.\Generated_Source\PSoC4/BLE_eventHandler.c ****         CyBle_GlscWriteResponseEventHandler(eventParam);
ARM GAS  C:\Users\JOHNSO~1\AppData\Local\Temp\ccaL6Noa.s 			page 12


 604:.\Generated_Source\PSoC4/BLE_eventHandler.c ****     }
 605:.\Generated_Source\PSoC4/BLE_eventHandler.c **** #endif /* CYBLE_GLS_CLIENT */
 606:.\Generated_Source\PSoC4/BLE_eventHandler.c **** 
 607:.\Generated_Source\PSoC4/BLE_eventHandler.c **** #ifdef CYBLE_HIDS_CLIENT
 608:.\Generated_Source\PSoC4/BLE_eventHandler.c ****     if((cyBle_eventHandlerFlag & CYBLE_CALLBACK) != 0u)
 609:.\Generated_Source\PSoC4/BLE_eventHandler.c ****     {
 610:.\Generated_Source\PSoC4/BLE_eventHandler.c ****         CyBle_HidscWriteResponseEventHandler(eventParam);
 611:.\Generated_Source\PSoC4/BLE_eventHandler.c ****     }
 612:.\Generated_Source\PSoC4/BLE_eventHandler.c **** #endif /* CYBLE_HIDS_CLIENT */
 613:.\Generated_Source\PSoC4/BLE_eventHandler.c **** 
 614:.\Generated_Source\PSoC4/BLE_eventHandler.c **** #ifdef CYBLE_HRS_CLIENT
 615:.\Generated_Source\PSoC4/BLE_eventHandler.c ****     if((cyBle_eventHandlerFlag & CYBLE_CALLBACK) != 0u)
 616:.\Generated_Source\PSoC4/BLE_eventHandler.c ****     {
 617:.\Generated_Source\PSoC4/BLE_eventHandler.c ****         CyBle_HrscWriteResponseEventHandler(eventParam);
 618:.\Generated_Source\PSoC4/BLE_eventHandler.c ****     }
 619:.\Generated_Source\PSoC4/BLE_eventHandler.c **** #endif /* CYBLE_HRS_CLIENT */
 620:.\Generated_Source\PSoC4/BLE_eventHandler.c **** 
 621:.\Generated_Source\PSoC4/BLE_eventHandler.c **** #ifdef CYBLE_HTS_CLIENT
 622:.\Generated_Source\PSoC4/BLE_eventHandler.c ****     if((cyBle_eventHandlerFlag & CYBLE_CALLBACK) != 0u)
 623:.\Generated_Source\PSoC4/BLE_eventHandler.c ****     {
 624:.\Generated_Source\PSoC4/BLE_eventHandler.c ****         CyBle_HtscWriteResponseEventHandler(eventParam);
 625:.\Generated_Source\PSoC4/BLE_eventHandler.c ****     }
 626:.\Generated_Source\PSoC4/BLE_eventHandler.c **** #endif /* CYBLE_HTS_CLIENT */
 627:.\Generated_Source\PSoC4/BLE_eventHandler.c **** 
 628:.\Generated_Source\PSoC4/BLE_eventHandler.c **** #ifdef CYBLE_LLS_CLIENT
 629:.\Generated_Source\PSoC4/BLE_eventHandler.c ****     if((cyBle_eventHandlerFlag & CYBLE_CALLBACK) != 0u)
 630:.\Generated_Source\PSoC4/BLE_eventHandler.c ****     {
 631:.\Generated_Source\PSoC4/BLE_eventHandler.c ****         CyBle_LlscWriteResponseEventHandler(eventParam);
 632:.\Generated_Source\PSoC4/BLE_eventHandler.c ****     }
 633:.\Generated_Source\PSoC4/BLE_eventHandler.c **** #endif /* CYBLE_LLS_CLIENT */
 634:.\Generated_Source\PSoC4/BLE_eventHandler.c **** 
 635:.\Generated_Source\PSoC4/BLE_eventHandler.c **** #ifdef CYBLE_LNS_CLIENT
 636:.\Generated_Source\PSoC4/BLE_eventHandler.c ****     if((cyBle_eventHandlerFlag & CYBLE_CALLBACK) != 0u)
 637:.\Generated_Source\PSoC4/BLE_eventHandler.c ****     {
 638:.\Generated_Source\PSoC4/BLE_eventHandler.c ****         CyBle_LnscWriteResponseEventHandler(eventParam);
 639:.\Generated_Source\PSoC4/BLE_eventHandler.c ****     }
 640:.\Generated_Source\PSoC4/BLE_eventHandler.c **** #endif /* CYBLE_LNS_CLIENT */
 641:.\Generated_Source\PSoC4/BLE_eventHandler.c **** 
 642:.\Generated_Source\PSoC4/BLE_eventHandler.c **** #ifdef CYBLE_PASS_CLIENT
 643:.\Generated_Source\PSoC4/BLE_eventHandler.c ****     if((cyBle_eventHandlerFlag & CYBLE_CALLBACK) != 0u)
 644:.\Generated_Source\PSoC4/BLE_eventHandler.c ****     {
 645:.\Generated_Source\PSoC4/BLE_eventHandler.c ****         CyBle_PasscWriteResponseEventHandler(eventParam);
 646:.\Generated_Source\PSoC4/BLE_eventHandler.c ****     }
 647:.\Generated_Source\PSoC4/BLE_eventHandler.c **** #endif /* CYBLE_PASS_CLIENT */
 648:.\Generated_Source\PSoC4/BLE_eventHandler.c **** 
 649:.\Generated_Source\PSoC4/BLE_eventHandler.c **** #ifdef CYBLE_RSCS_CLIENT
 650:.\Generated_Source\PSoC4/BLE_eventHandler.c ****     if((cyBle_eventHandlerFlag & CYBLE_CALLBACK) != 0u)
 651:.\Generated_Source\PSoC4/BLE_eventHandler.c ****     {
 652:.\Generated_Source\PSoC4/BLE_eventHandler.c ****         CyBle_RscscWriteResponseEventHandler(eventParam);
 653:.\Generated_Source\PSoC4/BLE_eventHandler.c ****     }
 654:.\Generated_Source\PSoC4/BLE_eventHandler.c **** #endif /* CYBLE_RSCS_CLIENT */
 655:.\Generated_Source\PSoC4/BLE_eventHandler.c **** 
 656:.\Generated_Source\PSoC4/BLE_eventHandler.c **** #ifdef CYBLE_SCPS_CLIENT
 657:.\Generated_Source\PSoC4/BLE_eventHandler.c ****     if((cyBle_eventHandlerFlag & CYBLE_CALLBACK) != 0u)
 658:.\Generated_Source\PSoC4/BLE_eventHandler.c ****     {
 659:.\Generated_Source\PSoC4/BLE_eventHandler.c ****         CyBle_ScpscWriteResponseEventHandler(eventParam);
 660:.\Generated_Source\PSoC4/BLE_eventHandler.c ****     }
ARM GAS  C:\Users\JOHNSO~1\AppData\Local\Temp\ccaL6Noa.s 			page 13


 661:.\Generated_Source\PSoC4/BLE_eventHandler.c **** #endif /* CYBLE_SCPS_CLIENT */
 662:.\Generated_Source\PSoC4/BLE_eventHandler.c **** 
 663:.\Generated_Source\PSoC4/BLE_eventHandler.c **** #ifdef CYBLE_TPS_CLIENT
 664:.\Generated_Source\PSoC4/BLE_eventHandler.c ****     if((cyBle_eventHandlerFlag & CYBLE_CALLBACK) != 0u)
 665:.\Generated_Source\PSoC4/BLE_eventHandler.c ****     {
 666:.\Generated_Source\PSoC4/BLE_eventHandler.c ****         CyBle_TpscWriteResponseEventHandler(eventParam);
 667:.\Generated_Source\PSoC4/BLE_eventHandler.c ****     }
 668:.\Generated_Source\PSoC4/BLE_eventHandler.c **** #endif /* CYBLE_TPS_CLIENT */
 669:.\Generated_Source\PSoC4/BLE_eventHandler.c **** 
 670:.\Generated_Source\PSoC4/BLE_eventHandler.c **** #ifdef CYBLE_UDS_CLIENT
 671:.\Generated_Source\PSoC4/BLE_eventHandler.c ****     if((cyBle_eventHandlerFlag & CYBLE_CALLBACK) != 0u)
 672:.\Generated_Source\PSoC4/BLE_eventHandler.c ****     {
 673:.\Generated_Source\PSoC4/BLE_eventHandler.c ****         CyBle_UdscWriteResponseEventHandler(eventParam);
 674:.\Generated_Source\PSoC4/BLE_eventHandler.c ****     }
 675:.\Generated_Source\PSoC4/BLE_eventHandler.c **** #endif /* CYBLE_UDS_CLIENT */
 676:.\Generated_Source\PSoC4/BLE_eventHandler.c **** #ifdef CYBLE_WPTS_CLIENT
 677:.\Generated_Source\PSoC4/BLE_eventHandler.c ****     if((cyBle_eventHandlerFlag & CYBLE_CALLBACK) != 0u)
 678:.\Generated_Source\PSoC4/BLE_eventHandler.c ****     {
 679:.\Generated_Source\PSoC4/BLE_eventHandler.c ****         CyBle_WptscWriteResponseEventHandler(eventParam);
 680:.\Generated_Source\PSoC4/BLE_eventHandler.c ****     }
 681:.\Generated_Source\PSoC4/BLE_eventHandler.c **** #endif /* CYBLE_WPTS_CLIENT */
 682:.\Generated_Source\PSoC4/BLE_eventHandler.c **** #ifdef CYBLE_WSS_CLIENT
 683:.\Generated_Source\PSoC4/BLE_eventHandler.c ****     if((cyBle_eventHandlerFlag & CYBLE_CALLBACK) != 0u)
 684:.\Generated_Source\PSoC4/BLE_eventHandler.c ****     {
 685:.\Generated_Source\PSoC4/BLE_eventHandler.c ****         CyBle_WsscWriteResponseEventHandler(eventParam);
 686:.\Generated_Source\PSoC4/BLE_eventHandler.c ****     }
 687:.\Generated_Source\PSoC4/BLE_eventHandler.c **** #endif /* CYBLE_WSS_CLIENT */
 688:.\Generated_Source\PSoC4/BLE_eventHandler.c **** }
 689:.\Generated_Source\PSoC4/BLE_eventHandler.c **** 
 690:.\Generated_Source\PSoC4/BLE_eventHandler.c **** 
 691:.\Generated_Source\PSoC4/BLE_eventHandler.c **** /******************************************************************************    
 692:.\Generated_Source\PSoC4/BLE_eventHandler.c **** ##Function Name: CyBle_NotificationEventHandler
 693:.\Generated_Source\PSoC4/BLE_eventHandler.c **** *******************************************************************************
 694:.\Generated_Source\PSoC4/BLE_eventHandler.c **** 
 695:.\Generated_Source\PSoC4/BLE_eventHandler.c **** Summary:
 696:.\Generated_Source\PSoC4/BLE_eventHandler.c ****  Handles the Notification event from BLE stack.
 697:.\Generated_Source\PSoC4/BLE_eventHandler.c **** 
 698:.\Generated_Source\PSoC4/BLE_eventHandler.c **** Parameters:
 699:.\Generated_Source\PSoC4/BLE_eventHandler.c ****  CYBLE_GATTC_HANDLE_VALUE_NTF_PARAM_T * eventParam - event parameter
 700:.\Generated_Source\PSoC4/BLE_eventHandler.c **** 
 701:.\Generated_Source\PSoC4/BLE_eventHandler.c **** Return:
 702:.\Generated_Source\PSoC4/BLE_eventHandler.c ****  None
 703:.\Generated_Source\PSoC4/BLE_eventHandler.c **** 
 704:.\Generated_Source\PSoC4/BLE_eventHandler.c **** ******************************************************************************/
 705:.\Generated_Source\PSoC4/BLE_eventHandler.c **** static void CyBle_NotificationEventHandler(CYBLE_GATTC_HANDLE_VALUE_NTF_PARAM_T *eventParam)
 706:.\Generated_Source\PSoC4/BLE_eventHandler.c **** {
 707:.\Generated_Source\PSoC4/BLE_eventHandler.c **** #ifdef CYBLE_ANCS_CLIENT
 708:.\Generated_Source\PSoC4/BLE_eventHandler.c ****     CyBle_AncscNotificationEventHandler(eventParam);
 709:.\Generated_Source\PSoC4/BLE_eventHandler.c **** #endif /* CYBLE_ANCS_CLIENT */
 710:.\Generated_Source\PSoC4/BLE_eventHandler.c **** #ifdef CYBLE_ANS_CLIENT
 711:.\Generated_Source\PSoC4/BLE_eventHandler.c ****     if((cyBle_eventHandlerFlag & CYBLE_CALLBACK) != 0u)
 712:.\Generated_Source\PSoC4/BLE_eventHandler.c ****     {
 713:.\Generated_Source\PSoC4/BLE_eventHandler.c ****         CyBle_AnscNotificationEventHandler(eventParam);
 714:.\Generated_Source\PSoC4/BLE_eventHandler.c ****     }
 715:.\Generated_Source\PSoC4/BLE_eventHandler.c **** #endif /* CYBLE_ANS_CLIENT */
 716:.\Generated_Source\PSoC4/BLE_eventHandler.c **** #ifdef CYBLE_BAS_CLIENT
 717:.\Generated_Source\PSoC4/BLE_eventHandler.c ****     if((cyBle_eventHandlerFlag & CYBLE_CALLBACK) != 0u)
ARM GAS  C:\Users\JOHNSO~1\AppData\Local\Temp\ccaL6Noa.s 			page 14


 718:.\Generated_Source\PSoC4/BLE_eventHandler.c ****     {
 719:.\Generated_Source\PSoC4/BLE_eventHandler.c ****         CyBle_BascNotificationEventHandler(eventParam);
 720:.\Generated_Source\PSoC4/BLE_eventHandler.c ****     }
 721:.\Generated_Source\PSoC4/BLE_eventHandler.c **** #endif /* CYBLE_BAS_CLIENT */
 722:.\Generated_Source\PSoC4/BLE_eventHandler.c **** #ifdef CYBLE_BLS_CLIENT
 723:.\Generated_Source\PSoC4/BLE_eventHandler.c ****     if((cyBle_eventHandlerFlag & CYBLE_CALLBACK) != 0u)
 724:.\Generated_Source\PSoC4/BLE_eventHandler.c ****     {
 725:.\Generated_Source\PSoC4/BLE_eventHandler.c ****         CyBle_BlscNotificationEventHandler(eventParam);
 726:.\Generated_Source\PSoC4/BLE_eventHandler.c ****     }
 727:.\Generated_Source\PSoC4/BLE_eventHandler.c **** #endif /* CYBLE_BLS_CLIENT */
 728:.\Generated_Source\PSoC4/BLE_eventHandler.c **** #ifdef CYBLE_CGMS_CLIENT
 729:.\Generated_Source\PSoC4/BLE_eventHandler.c ****     if((cyBle_eventHandlerFlag & CYBLE_CALLBACK) != 0u)
 730:.\Generated_Source\PSoC4/BLE_eventHandler.c ****     {
 731:.\Generated_Source\PSoC4/BLE_eventHandler.c ****         CyBle_CgmscNotificationEventHandler(eventParam);
 732:.\Generated_Source\PSoC4/BLE_eventHandler.c ****     }
 733:.\Generated_Source\PSoC4/BLE_eventHandler.c **** #endif /* CYBLE_CGMS_CLIENT */
 734:.\Generated_Source\PSoC4/BLE_eventHandler.c **** #ifdef CYBLE_CPS_CLIENT
 735:.\Generated_Source\PSoC4/BLE_eventHandler.c ****     if((cyBle_eventHandlerFlag & CYBLE_CALLBACK) != 0u)
 736:.\Generated_Source\PSoC4/BLE_eventHandler.c ****     {
 737:.\Generated_Source\PSoC4/BLE_eventHandler.c ****         CyBle_CpscNotificationEventHandler(eventParam);
 738:.\Generated_Source\PSoC4/BLE_eventHandler.c ****     }
 739:.\Generated_Source\PSoC4/BLE_eventHandler.c **** #endif /* CYBLE_CPS_CLIENT */
 740:.\Generated_Source\PSoC4/BLE_eventHandler.c **** #ifdef CYBLE_CSCS_CLIENT
 741:.\Generated_Source\PSoC4/BLE_eventHandler.c ****     if((cyBle_eventHandlerFlag & CYBLE_CALLBACK) != 0u)
 742:.\Generated_Source\PSoC4/BLE_eventHandler.c ****     {
 743:.\Generated_Source\PSoC4/BLE_eventHandler.c ****         CyBle_CscscNotificationEventHandler(eventParam);
 744:.\Generated_Source\PSoC4/BLE_eventHandler.c ****     }
 745:.\Generated_Source\PSoC4/BLE_eventHandler.c **** #endif /* CYBLE_CSCS_CLIENT */
 746:.\Generated_Source\PSoC4/BLE_eventHandler.c **** #ifdef CYBLE_CTS_CLIENT
 747:.\Generated_Source\PSoC4/BLE_eventHandler.c ****     if((cyBle_eventHandlerFlag & CYBLE_CALLBACK) != 0u)
 748:.\Generated_Source\PSoC4/BLE_eventHandler.c ****     {
 749:.\Generated_Source\PSoC4/BLE_eventHandler.c ****         CyBle_CtscNotificationEventHandler(eventParam);
 750:.\Generated_Source\PSoC4/BLE_eventHandler.c ****     }
 751:.\Generated_Source\PSoC4/BLE_eventHandler.c **** #endif /* CYBLE_CTS_CLIENT */
 752:.\Generated_Source\PSoC4/BLE_eventHandler.c **** #ifdef CYBLE_ESS_CLIENT
 753:.\Generated_Source\PSoC4/BLE_eventHandler.c ****     if((cyBle_eventHandlerFlag & CYBLE_CALLBACK) != 0u)
 754:.\Generated_Source\PSoC4/BLE_eventHandler.c ****     {
 755:.\Generated_Source\PSoC4/BLE_eventHandler.c ****         CyBle_EsscNotificationEventHandler(eventParam);
 756:.\Generated_Source\PSoC4/BLE_eventHandler.c ****     }
 757:.\Generated_Source\PSoC4/BLE_eventHandler.c **** #endif /* CYBLE_ESS_CLIENT */
 758:.\Generated_Source\PSoC4/BLE_eventHandler.c **** #ifdef CYBLE_GLS_CLIENT
 759:.\Generated_Source\PSoC4/BLE_eventHandler.c ****     if((cyBle_eventHandlerFlag & CYBLE_CALLBACK) != 0u)
 760:.\Generated_Source\PSoC4/BLE_eventHandler.c ****     {
 761:.\Generated_Source\PSoC4/BLE_eventHandler.c ****         CyBle_GlscNotificationEventHandler(eventParam);
 762:.\Generated_Source\PSoC4/BLE_eventHandler.c ****     }
 763:.\Generated_Source\PSoC4/BLE_eventHandler.c **** #endif /* CYBLE_GLS_CLIENT */
 764:.\Generated_Source\PSoC4/BLE_eventHandler.c **** #ifdef CYBLE_HIDS_CLIENT
 765:.\Generated_Source\PSoC4/BLE_eventHandler.c ****     if((cyBle_eventHandlerFlag & CYBLE_CALLBACK) != 0u)
 766:.\Generated_Source\PSoC4/BLE_eventHandler.c ****     {
 767:.\Generated_Source\PSoC4/BLE_eventHandler.c ****         CyBle_HidscNotificationEventHandler(eventParam);
 768:.\Generated_Source\PSoC4/BLE_eventHandler.c ****     }
 769:.\Generated_Source\PSoC4/BLE_eventHandler.c **** #endif /* CYBLE_HIDS_CLIENT */
 770:.\Generated_Source\PSoC4/BLE_eventHandler.c **** #ifdef CYBLE_HRS_CLIENT
 771:.\Generated_Source\PSoC4/BLE_eventHandler.c ****     if((cyBle_eventHandlerFlag & CYBLE_CALLBACK) != 0u)
 772:.\Generated_Source\PSoC4/BLE_eventHandler.c ****     {
 773:.\Generated_Source\PSoC4/BLE_eventHandler.c ****         CyBle_HrscNotificationEventHandler(eventParam);
 774:.\Generated_Source\PSoC4/BLE_eventHandler.c ****     }
ARM GAS  C:\Users\JOHNSO~1\AppData\Local\Temp\ccaL6Noa.s 			page 15


 775:.\Generated_Source\PSoC4/BLE_eventHandler.c **** #endif /* CYBLE_HRS_CLIENT */
 776:.\Generated_Source\PSoC4/BLE_eventHandler.c **** #ifdef CYBLE_HTS_CLIENT
 777:.\Generated_Source\PSoC4/BLE_eventHandler.c ****     if((cyBle_eventHandlerFlag & CYBLE_CALLBACK) != 0u)
 778:.\Generated_Source\PSoC4/BLE_eventHandler.c ****     {
 779:.\Generated_Source\PSoC4/BLE_eventHandler.c ****         CyBle_HtscNotificationEventHandler(eventParam);
 780:.\Generated_Source\PSoC4/BLE_eventHandler.c ****     }
 781:.\Generated_Source\PSoC4/BLE_eventHandler.c **** #endif /* CYBLE_HTS_CLIENT */
 782:.\Generated_Source\PSoC4/BLE_eventHandler.c **** #ifdef CYBLE_LNS_CLIENT
 783:.\Generated_Source\PSoC4/BLE_eventHandler.c ****     if((cyBle_eventHandlerFlag & CYBLE_CALLBACK) != 0u)
 784:.\Generated_Source\PSoC4/BLE_eventHandler.c ****     {
 785:.\Generated_Source\PSoC4/BLE_eventHandler.c ****         CyBle_LnscNotificationEventHandler(eventParam);
 786:.\Generated_Source\PSoC4/BLE_eventHandler.c ****     }
 787:.\Generated_Source\PSoC4/BLE_eventHandler.c **** #endif /* CYBLE_LNS_CLIENT */
 788:.\Generated_Source\PSoC4/BLE_eventHandler.c **** #ifdef CYBLE_PASS_CLIENT
 789:.\Generated_Source\PSoC4/BLE_eventHandler.c ****     if((cyBle_eventHandlerFlag & CYBLE_CALLBACK) != 0u)
 790:.\Generated_Source\PSoC4/BLE_eventHandler.c ****     {
 791:.\Generated_Source\PSoC4/BLE_eventHandler.c ****         CyBle_PasscNotificationEventHandler(eventParam);
 792:.\Generated_Source\PSoC4/BLE_eventHandler.c ****     }
 793:.\Generated_Source\PSoC4/BLE_eventHandler.c **** #endif /* CYBLE_PASS_CLIENT */
 794:.\Generated_Source\PSoC4/BLE_eventHandler.c **** #ifdef CYBLE_RSCS_CLIENT
 795:.\Generated_Source\PSoC4/BLE_eventHandler.c ****     if((cyBle_eventHandlerFlag & CYBLE_CALLBACK) != 0u)
 796:.\Generated_Source\PSoC4/BLE_eventHandler.c ****     {
 797:.\Generated_Source\PSoC4/BLE_eventHandler.c ****         CyBle_RscscNotificationEventHandler(eventParam);
 798:.\Generated_Source\PSoC4/BLE_eventHandler.c ****     }
 799:.\Generated_Source\PSoC4/BLE_eventHandler.c **** #endif /* CYBLE_RSCS_CLIENT */
 800:.\Generated_Source\PSoC4/BLE_eventHandler.c **** #ifdef CYBLE_SCPS_CLIENT
 801:.\Generated_Source\PSoC4/BLE_eventHandler.c ****     if((cyBle_eventHandlerFlag & CYBLE_CALLBACK) != 0u)
 802:.\Generated_Source\PSoC4/BLE_eventHandler.c ****     {
 803:.\Generated_Source\PSoC4/BLE_eventHandler.c ****         CyBle_ScpscNotificationEventHandler(eventParam);
 804:.\Generated_Source\PSoC4/BLE_eventHandler.c ****     }
 805:.\Generated_Source\PSoC4/BLE_eventHandler.c **** #endif /* CYBLE_SCPS_CLIENT */
 806:.\Generated_Source\PSoC4/BLE_eventHandler.c **** #ifdef CYBLE_TPS_CLIENT
 807:.\Generated_Source\PSoC4/BLE_eventHandler.c ****     if((cyBle_eventHandlerFlag & CYBLE_CALLBACK) != 0u)
 808:.\Generated_Source\PSoC4/BLE_eventHandler.c ****     {
 809:.\Generated_Source\PSoC4/BLE_eventHandler.c ****         CyBle_TpscNotificationEventHandler(eventParam);
 810:.\Generated_Source\PSoC4/BLE_eventHandler.c ****     }
 811:.\Generated_Source\PSoC4/BLE_eventHandler.c **** #endif /* CYBLE_TPS_CLIENT */
 812:.\Generated_Source\PSoC4/BLE_eventHandler.c **** #ifdef CYBLE_UDS_CLIENT
 813:.\Generated_Source\PSoC4/BLE_eventHandler.c ****     if((cyBle_eventHandlerFlag & CYBLE_CALLBACK) != 0u)
 814:.\Generated_Source\PSoC4/BLE_eventHandler.c ****     {
 815:.\Generated_Source\PSoC4/BLE_eventHandler.c ****         CyBle_UdscNotificationEventHandler(eventParam);
 816:.\Generated_Source\PSoC4/BLE_eventHandler.c ****     }
 817:.\Generated_Source\PSoC4/BLE_eventHandler.c **** #endif /* CYBLE_UDS_CLIENT */
 818:.\Generated_Source\PSoC4/BLE_eventHandler.c **** #ifdef CYBLE_WPTS_CLIENT
 819:.\Generated_Source\PSoC4/BLE_eventHandler.c ****     if((cyBle_eventHandlerFlag & CYBLE_CALLBACK) != 0u)
 820:.\Generated_Source\PSoC4/BLE_eventHandler.c ****     {
 821:.\Generated_Source\PSoC4/BLE_eventHandler.c ****         CyBle_WptscNotificationEventHandler(eventParam);
 822:.\Generated_Source\PSoC4/BLE_eventHandler.c ****     }
 823:.\Generated_Source\PSoC4/BLE_eventHandler.c **** #endif /* CYBLE_WPTS_CLIENT */
 824:.\Generated_Source\PSoC4/BLE_eventHandler.c **** }
 825:.\Generated_Source\PSoC4/BLE_eventHandler.c **** 
 826:.\Generated_Source\PSoC4/BLE_eventHandler.c **** 
 827:.\Generated_Source\PSoC4/BLE_eventHandler.c **** /******************************************************************************    
 828:.\Generated_Source\PSoC4/BLE_eventHandler.c **** ##Function Name: CyBle_IndicationEventHandler
 829:.\Generated_Source\PSoC4/BLE_eventHandler.c **** *******************************************************************************
 830:.\Generated_Source\PSoC4/BLE_eventHandler.c **** 
 831:.\Generated_Source\PSoC4/BLE_eventHandler.c **** Summary:
ARM GAS  C:\Users\JOHNSO~1\AppData\Local\Temp\ccaL6Noa.s 			page 16


 832:.\Generated_Source\PSoC4/BLE_eventHandler.c ****  Handles the Indication event from BLE stack.
 833:.\Generated_Source\PSoC4/BLE_eventHandler.c **** 
 834:.\Generated_Source\PSoC4/BLE_eventHandler.c **** Parameters:
 835:.\Generated_Source\PSoC4/BLE_eventHandler.c ****  CYBLE_GATTC_HANDLE_VALUE_IND_PARAM_T * eventParam - event parameter
 836:.\Generated_Source\PSoC4/BLE_eventHandler.c **** 
 837:.\Generated_Source\PSoC4/BLE_eventHandler.c **** Return:
 838:.\Generated_Source\PSoC4/BLE_eventHandler.c ****  None
 839:.\Generated_Source\PSoC4/BLE_eventHandler.c **** 
 840:.\Generated_Source\PSoC4/BLE_eventHandler.c **** ******************************************************************************/
 841:.\Generated_Source\PSoC4/BLE_eventHandler.c **** static void CyBle_IndicationEventHandler(CYBLE_GATTC_HANDLE_VALUE_IND_PARAM_T *eventParam)
 842:.\Generated_Source\PSoC4/BLE_eventHandler.c **** {
 843:.\Generated_Source\PSoC4/BLE_eventHandler.c **** #ifdef CYBLE_BLS_CLIENT
 844:.\Generated_Source\PSoC4/BLE_eventHandler.c ****     if((cyBle_eventHandlerFlag & CYBLE_CALLBACK) != 0u)
 845:.\Generated_Source\PSoC4/BLE_eventHandler.c ****     {
 846:.\Generated_Source\PSoC4/BLE_eventHandler.c ****         CyBle_BlscIndicationEventHandler(eventParam);
 847:.\Generated_Source\PSoC4/BLE_eventHandler.c ****     }
 848:.\Generated_Source\PSoC4/BLE_eventHandler.c **** #endif /* CYBLE_BLS_CLIENT */
 849:.\Generated_Source\PSoC4/BLE_eventHandler.c **** #ifdef CYBLE_CGMS_CLIENT
 850:.\Generated_Source\PSoC4/BLE_eventHandler.c ****     if((cyBle_eventHandlerFlag & CYBLE_CALLBACK) != 0u)
 851:.\Generated_Source\PSoC4/BLE_eventHandler.c ****     {
 852:.\Generated_Source\PSoC4/BLE_eventHandler.c ****         CyBle_CgmscIndicationEventHandler(eventParam);
 853:.\Generated_Source\PSoC4/BLE_eventHandler.c ****     }
 854:.\Generated_Source\PSoC4/BLE_eventHandler.c **** #endif /* CYBLE_CGMS_CLIENT */
 855:.\Generated_Source\PSoC4/BLE_eventHandler.c **** #ifdef CYBLE_CPS_CLIENT
 856:.\Generated_Source\PSoC4/BLE_eventHandler.c ****     if((cyBle_eventHandlerFlag & CYBLE_CALLBACK) != 0u)
 857:.\Generated_Source\PSoC4/BLE_eventHandler.c ****     {
 858:.\Generated_Source\PSoC4/BLE_eventHandler.c ****         CyBle_CpscIndicationEventHandler(eventParam);
 859:.\Generated_Source\PSoC4/BLE_eventHandler.c ****     }
 860:.\Generated_Source\PSoC4/BLE_eventHandler.c **** #endif /* CYBLE_CPS_CLIENT */
 861:.\Generated_Source\PSoC4/BLE_eventHandler.c **** #ifdef CYBLE_CSCS_CLIENT
 862:.\Generated_Source\PSoC4/BLE_eventHandler.c ****     if((cyBle_eventHandlerFlag & CYBLE_CALLBACK) != 0u)
 863:.\Generated_Source\PSoC4/BLE_eventHandler.c ****     {
 864:.\Generated_Source\PSoC4/BLE_eventHandler.c ****         CyBle_CscscIndicationEventHandler(eventParam);
 865:.\Generated_Source\PSoC4/BLE_eventHandler.c ****     }
 866:.\Generated_Source\PSoC4/BLE_eventHandler.c **** #endif /* CYBLE_CSCS_CLIENT */
 867:.\Generated_Source\PSoC4/BLE_eventHandler.c **** #ifdef CYBLE_ESS_CLIENT
 868:.\Generated_Source\PSoC4/BLE_eventHandler.c ****     if((cyBle_eventHandlerFlag & CYBLE_CALLBACK) != 0u)
 869:.\Generated_Source\PSoC4/BLE_eventHandler.c ****     {
 870:.\Generated_Source\PSoC4/BLE_eventHandler.c ****         CyBle_EsscIndicationEventHandler(eventParam);
 871:.\Generated_Source\PSoC4/BLE_eventHandler.c ****     }
 872:.\Generated_Source\PSoC4/BLE_eventHandler.c **** #endif /* CYBLE_ESS_CLIENT */
 873:.\Generated_Source\PSoC4/BLE_eventHandler.c **** #ifdef CYBLE_GLS_CLIENT
 874:.\Generated_Source\PSoC4/BLE_eventHandler.c ****     if((cyBle_eventHandlerFlag & CYBLE_CALLBACK) != 0u)
 875:.\Generated_Source\PSoC4/BLE_eventHandler.c ****     {
 876:.\Generated_Source\PSoC4/BLE_eventHandler.c ****         CyBle_GlscIndicationEventHandler(eventParam);
 877:.\Generated_Source\PSoC4/BLE_eventHandler.c ****     }
 878:.\Generated_Source\PSoC4/BLE_eventHandler.c **** #endif /* CYBLE_GLS_CLIENT */
 879:.\Generated_Source\PSoC4/BLE_eventHandler.c **** #ifdef CYBLE_HTS_CLIENT
 880:.\Generated_Source\PSoC4/BLE_eventHandler.c ****     if((cyBle_eventHandlerFlag & CYBLE_CALLBACK) != 0u)
 881:.\Generated_Source\PSoC4/BLE_eventHandler.c ****     {
 882:.\Generated_Source\PSoC4/BLE_eventHandler.c ****         CyBle_HtscIndicationEventHandler(eventParam);
 883:.\Generated_Source\PSoC4/BLE_eventHandler.c ****     }
 884:.\Generated_Source\PSoC4/BLE_eventHandler.c **** #endif /* CYBLE_HTS_CLIENT */
 885:.\Generated_Source\PSoC4/BLE_eventHandler.c **** #ifdef CYBLE_LNS_CLIENT
 886:.\Generated_Source\PSoC4/BLE_eventHandler.c ****     if((cyBle_eventHandlerFlag & CYBLE_CALLBACK) != 0u)
 887:.\Generated_Source\PSoC4/BLE_eventHandler.c ****     {
 888:.\Generated_Source\PSoC4/BLE_eventHandler.c ****         CyBle_LnscIndicationEventHandler(eventParam);
ARM GAS  C:\Users\JOHNSO~1\AppData\Local\Temp\ccaL6Noa.s 			page 17


 889:.\Generated_Source\PSoC4/BLE_eventHandler.c ****     }
 890:.\Generated_Source\PSoC4/BLE_eventHandler.c **** #endif /* CYBLE_LNS_CLIENT */
 891:.\Generated_Source\PSoC4/BLE_eventHandler.c **** #ifdef CYBLE_RSCS_CLIENT
 892:.\Generated_Source\PSoC4/BLE_eventHandler.c ****     if((cyBle_eventHandlerFlag & CYBLE_CALLBACK) != 0u)
 893:.\Generated_Source\PSoC4/BLE_eventHandler.c ****     {
 894:.\Generated_Source\PSoC4/BLE_eventHandler.c ****         CyBle_RscscIndicationEventHandler(eventParam);
 895:.\Generated_Source\PSoC4/BLE_eventHandler.c ****     }
 896:.\Generated_Source\PSoC4/BLE_eventHandler.c **** #endif /* CYBLE_RSCS_CLIENT */
 897:.\Generated_Source\PSoC4/BLE_eventHandler.c **** #ifdef CYBLE_UDS_CLIENT
 898:.\Generated_Source\PSoC4/BLE_eventHandler.c ****     if((cyBle_eventHandlerFlag & CYBLE_CALLBACK) != 0u)
 899:.\Generated_Source\PSoC4/BLE_eventHandler.c ****     {
 900:.\Generated_Source\PSoC4/BLE_eventHandler.c ****         CyBle_UdscIndicationEventHandler(eventParam);
 901:.\Generated_Source\PSoC4/BLE_eventHandler.c ****     }
 902:.\Generated_Source\PSoC4/BLE_eventHandler.c **** #endif /* CYBLE_UDS_CLIENT */
 903:.\Generated_Source\PSoC4/BLE_eventHandler.c **** #ifdef CYBLE_WPTS_CLIENT
 904:.\Generated_Source\PSoC4/BLE_eventHandler.c ****     if((cyBle_eventHandlerFlag & CYBLE_CALLBACK) != 0u)
 905:.\Generated_Source\PSoC4/BLE_eventHandler.c ****     {
 906:.\Generated_Source\PSoC4/BLE_eventHandler.c ****         CyBle_WptscIndicationEventHandler(eventParam);
 907:.\Generated_Source\PSoC4/BLE_eventHandler.c ****     }
 908:.\Generated_Source\PSoC4/BLE_eventHandler.c **** #endif /* CYBLE_WPTS_CLIENT */
 909:.\Generated_Source\PSoC4/BLE_eventHandler.c **** #ifdef CYBLE_WSS_CLIENT
 910:.\Generated_Source\PSoC4/BLE_eventHandler.c ****     if((cyBle_eventHandlerFlag & CYBLE_CALLBACK) != 0u)
 911:.\Generated_Source\PSoC4/BLE_eventHandler.c ****     {
 912:.\Generated_Source\PSoC4/BLE_eventHandler.c ****         CyBle_WsscIndicationEventHandler(eventParam);
 913:.\Generated_Source\PSoC4/BLE_eventHandler.c ****     }
 914:.\Generated_Source\PSoC4/BLE_eventHandler.c **** #endif /* CYBLE_WSS_CLIENT */
 915:.\Generated_Source\PSoC4/BLE_eventHandler.c **** }
 916:.\Generated_Source\PSoC4/BLE_eventHandler.c **** 
 917:.\Generated_Source\PSoC4/BLE_eventHandler.c **** 
 918:.\Generated_Source\PSoC4/BLE_eventHandler.c **** 
 919:.\Generated_Source\PSoC4/BLE_eventHandler.c **** /******************************************************************************    
 920:.\Generated_Source\PSoC4/BLE_eventHandler.c **** ##Function Name: CyBle_ReadResponseEventHandler
 921:.\Generated_Source\PSoC4/BLE_eventHandler.c **** *******************************************************************************
 922:.\Generated_Source\PSoC4/BLE_eventHandler.c **** 
 923:.\Generated_Source\PSoC4/BLE_eventHandler.c **** Summary:
 924:.\Generated_Source\PSoC4/BLE_eventHandler.c ****  Handles the Read Response event from BLE stack.
 925:.\Generated_Source\PSoC4/BLE_eventHandler.c **** 
 926:.\Generated_Source\PSoC4/BLE_eventHandler.c **** Parameters:
 927:.\Generated_Source\PSoC4/BLE_eventHandler.c ****  CYBLE_GATTC_READ_RSP_PARAM_T * eventParam - event parameter
 928:.\Generated_Source\PSoC4/BLE_eventHandler.c **** 
 929:.\Generated_Source\PSoC4/BLE_eventHandler.c **** Return:
 930:.\Generated_Source\PSoC4/BLE_eventHandler.c ****  None
 931:.\Generated_Source\PSoC4/BLE_eventHandler.c **** 
 932:.\Generated_Source\PSoC4/BLE_eventHandler.c **** ******************************************************************************/
 933:.\Generated_Source\PSoC4/BLE_eventHandler.c **** static void CyBle_ReadResponseEventHandler(CYBLE_GATTC_READ_RSP_PARAM_T *eventParam)
 934:.\Generated_Source\PSoC4/BLE_eventHandler.c **** {
 935:.\Generated_Source\PSoC4/BLE_eventHandler.c **** #ifdef CYBLE_CUSTOM_CLIENT
 936:.\Generated_Source\PSoC4/BLE_eventHandler.c ****     /* Read response with 128-bit included service uuid */
 937:.\Generated_Source\PSoC4/BLE_eventHandler.c ****     if((CYBLE_CLIENT_STATE_INCL_DISCOVERING == CyBle_GetClientState()) &&
 938:.\Generated_Source\PSoC4/BLE_eventHandler.c ****        (cyBle_discInclInfo.inclDefHandle != 0u))
 939:.\Generated_Source\PSoC4/BLE_eventHandler.c ****     {
 940:.\Generated_Source\PSoC4/BLE_eventHandler.c ****         CYBLE_DISC_SRVC128_INFO_T discServInfo;
 941:.\Generated_Source\PSoC4/BLE_eventHandler.c **** 
 942:.\Generated_Source\PSoC4/BLE_eventHandler.c ****         /* Store service range */
 943:.\Generated_Source\PSoC4/BLE_eventHandler.c ****         discServInfo.range = cyBle_discInclInfo.inclHandleRange;
 944:.\Generated_Source\PSoC4/BLE_eventHandler.c ****         (void)memcpy((void *) discServInfo.uuid.uuid128.value, (void *)eventParam->value.val, event
 945:.\Generated_Source\PSoC4/BLE_eventHandler.c ****         CyBle_CustomcDiscoverServiceEventHandler(&discServInfo);
ARM GAS  C:\Users\JOHNSO~1\AppData\Local\Temp\ccaL6Noa.s 			page 18


 946:.\Generated_Source\PSoC4/BLE_eventHandler.c ****         
 947:.\Generated_Source\PSoC4/BLE_eventHandler.c ****         /* Re-initiate CyBle_GattcFindIncludedServices function, setting the start
 948:.\Generated_Source\PSoC4/BLE_eventHandler.c ****            handle to the attribute handle which is placed next to the one used in
 949:.\Generated_Source\PSoC4/BLE_eventHandler.c ****            the above step.
 950:.\Generated_Source\PSoC4/BLE_eventHandler.c ****         */
 951:.\Generated_Source\PSoC4/BLE_eventHandler.c ****         discServInfo.range.startHandle = cyBle_discInclInfo.inclDefHandle + 1;
 952:.\Generated_Source\PSoC4/BLE_eventHandler.c ****         discServInfo.range.endHandle = cyBle_serverInfo[cyBle_disCount].range.endHandle;
 953:.\Generated_Source\PSoC4/BLE_eventHandler.c ****         if(discServInfo.range.startHandle <= discServInfo.range.endHandle)
 954:.\Generated_Source\PSoC4/BLE_eventHandler.c ****         {
 955:.\Generated_Source\PSoC4/BLE_eventHandler.c ****             if(CYBLE_ERROR_OK != CyBle_GattcFindIncludedServices(cyBle_connHandle, &discServInfo.ra
 956:.\Generated_Source\PSoC4/BLE_eventHandler.c ****             {
 957:.\Generated_Source\PSoC4/BLE_eventHandler.c ****                 CyBle_ApplCallback(CYBLE_EVT_GATTC_INCL_DISCOVERY_FAILED, NULL);
 958:.\Generated_Source\PSoC4/BLE_eventHandler.c ****                 cyBle_eventHandlerFlag &= (uint8)~CYBLE_AUTO_DISCOVERY;
 959:.\Generated_Source\PSoC4/BLE_eventHandler.c ****             }
 960:.\Generated_Source\PSoC4/BLE_eventHandler.c ****         }
 961:.\Generated_Source\PSoC4/BLE_eventHandler.c ****         else /* Continue discovery of the following service */
 962:.\Generated_Source\PSoC4/BLE_eventHandler.c ****         {
 963:.\Generated_Source\PSoC4/BLE_eventHandler.c ****             CyBle_NextInclDiscovery(CYBLE_DISCOVERY_CONTINUE);
 964:.\Generated_Source\PSoC4/BLE_eventHandler.c ****         }
 965:.\Generated_Source\PSoC4/BLE_eventHandler.c ****         
 966:.\Generated_Source\PSoC4/BLE_eventHandler.c ****         cyBle_eventHandlerFlag &= (uint8)~CYBLE_CALLBACK;
 967:.\Generated_Source\PSoC4/BLE_eventHandler.c ****         cyBle_discInclInfo.inclDefHandle = 0u;
 968:.\Generated_Source\PSoC4/BLE_eventHandler.c ****         
 969:.\Generated_Source\PSoC4/BLE_eventHandler.c ****     }
 970:.\Generated_Source\PSoC4/BLE_eventHandler.c **** #endif /* CYBLE_CUSTOM_CLIENT */
 971:.\Generated_Source\PSoC4/BLE_eventHandler.c **** #ifdef CYBLE_ANS_CLIENT
 972:.\Generated_Source\PSoC4/BLE_eventHandler.c ****     if((cyBle_eventHandlerFlag & CYBLE_CALLBACK) != 0u)
 973:.\Generated_Source\PSoC4/BLE_eventHandler.c ****     {
 974:.\Generated_Source\PSoC4/BLE_eventHandler.c ****         CyBle_AnscReadResponseEventHandler(eventParam);
 975:.\Generated_Source\PSoC4/BLE_eventHandler.c ****     }
 976:.\Generated_Source\PSoC4/BLE_eventHandler.c **** #endif /* CYBLE_ANS_CLIENT */
 977:.\Generated_Source\PSoC4/BLE_eventHandler.c **** #ifdef CYBLE_BAS_CLIENT
 978:.\Generated_Source\PSoC4/BLE_eventHandler.c ****     if((cyBle_eventHandlerFlag & CYBLE_CALLBACK) != 0u)
 979:.\Generated_Source\PSoC4/BLE_eventHandler.c ****     {
 980:.\Generated_Source\PSoC4/BLE_eventHandler.c ****         CyBle_BascReadResponseEventHandler(eventParam);
 981:.\Generated_Source\PSoC4/BLE_eventHandler.c ****     }
 982:.\Generated_Source\PSoC4/BLE_eventHandler.c **** #endif /* CYBLE_BAS_CLIENT */
 983:.\Generated_Source\PSoC4/BLE_eventHandler.c **** #ifdef CYBLE_BLS_CLIENT
 984:.\Generated_Source\PSoC4/BLE_eventHandler.c ****     if((cyBle_eventHandlerFlag & CYBLE_CALLBACK) != 0u)
 985:.\Generated_Source\PSoC4/BLE_eventHandler.c ****     {
 986:.\Generated_Source\PSoC4/BLE_eventHandler.c ****         CyBle_BlscReadResponseEventHandler(eventParam);
 987:.\Generated_Source\PSoC4/BLE_eventHandler.c ****     }
 988:.\Generated_Source\PSoC4/BLE_eventHandler.c **** #endif /* CYBLE_BLS_CLIENT */
 989:.\Generated_Source\PSoC4/BLE_eventHandler.c **** #ifdef CYBLE_BMS_CLIENT
 990:.\Generated_Source\PSoC4/BLE_eventHandler.c ****     if((cyBle_eventHandlerFlag & CYBLE_CALLBACK) != 0u)
 991:.\Generated_Source\PSoC4/BLE_eventHandler.c ****     {
 992:.\Generated_Source\PSoC4/BLE_eventHandler.c ****         CyBle_BmscReadResponseEventHandler(eventParam);
 993:.\Generated_Source\PSoC4/BLE_eventHandler.c ****     }
 994:.\Generated_Source\PSoC4/BLE_eventHandler.c **** #endif /* CYBLE_BMS_CLIENT */
 995:.\Generated_Source\PSoC4/BLE_eventHandler.c **** #ifdef CYBLE_CGMS_CLIENT
 996:.\Generated_Source\PSoC4/BLE_eventHandler.c ****     if((cyBle_eventHandlerFlag & CYBLE_CALLBACK) != 0u)
 997:.\Generated_Source\PSoC4/BLE_eventHandler.c ****     {
 998:.\Generated_Source\PSoC4/BLE_eventHandler.c ****         CyBle_CgmscReadResponseEventHandler(eventParam);
 999:.\Generated_Source\PSoC4/BLE_eventHandler.c ****     }
1000:.\Generated_Source\PSoC4/BLE_eventHandler.c **** #endif /* CYBLE_CGMS_CLIENT */
1001:.\Generated_Source\PSoC4/BLE_eventHandler.c **** #ifdef CYBLE_CPS_CLIENT
1002:.\Generated_Source\PSoC4/BLE_eventHandler.c ****     if((cyBle_eventHandlerFlag & CYBLE_CALLBACK) != 0u)
ARM GAS  C:\Users\JOHNSO~1\AppData\Local\Temp\ccaL6Noa.s 			page 19


1003:.\Generated_Source\PSoC4/BLE_eventHandler.c ****     {
1004:.\Generated_Source\PSoC4/BLE_eventHandler.c ****         CyBle_CpscReadResponseEventHandler(eventParam);
1005:.\Generated_Source\PSoC4/BLE_eventHandler.c ****     }
1006:.\Generated_Source\PSoC4/BLE_eventHandler.c **** #endif /* CYBLE_CPS_CLIENT */
1007:.\Generated_Source\PSoC4/BLE_eventHandler.c **** #ifdef CYBLE_CSCS_CLIENT
1008:.\Generated_Source\PSoC4/BLE_eventHandler.c ****     if((cyBle_eventHandlerFlag & CYBLE_CALLBACK) != 0u)
1009:.\Generated_Source\PSoC4/BLE_eventHandler.c ****     {
1010:.\Generated_Source\PSoC4/BLE_eventHandler.c ****         CyBle_CscscReadResponseEventHandler(eventParam);
1011:.\Generated_Source\PSoC4/BLE_eventHandler.c ****     }
1012:.\Generated_Source\PSoC4/BLE_eventHandler.c **** #endif /* CYBLE_CSCS_CLIENT */
1013:.\Generated_Source\PSoC4/BLE_eventHandler.c **** #ifdef CYBLE_CTS_CLIENT
1014:.\Generated_Source\PSoC4/BLE_eventHandler.c ****     if((cyBle_eventHandlerFlag & CYBLE_CALLBACK) != 0u)
1015:.\Generated_Source\PSoC4/BLE_eventHandler.c ****     {
1016:.\Generated_Source\PSoC4/BLE_eventHandler.c ****         CyBle_CtscReadResponseEventHandler(eventParam);
1017:.\Generated_Source\PSoC4/BLE_eventHandler.c ****     }
1018:.\Generated_Source\PSoC4/BLE_eventHandler.c **** #endif /* CYBLE_BAS_CLIENT */
1019:.\Generated_Source\PSoC4/BLE_eventHandler.c **** #ifdef CYBLE_DIS_CLIENT
1020:.\Generated_Source\PSoC4/BLE_eventHandler.c ****     if((cyBle_eventHandlerFlag & CYBLE_CALLBACK) != 0u)
1021:.\Generated_Source\PSoC4/BLE_eventHandler.c ****     {
1022:.\Generated_Source\PSoC4/BLE_eventHandler.c ****         CyBle_DiscReadResponseEventHandler(eventParam);
1023:.\Generated_Source\PSoC4/BLE_eventHandler.c ****     }
1024:.\Generated_Source\PSoC4/BLE_eventHandler.c **** #endif /* CYBLE_DIS_CLIENT */
1025:.\Generated_Source\PSoC4/BLE_eventHandler.c **** #ifdef CYBLE_ESS_CLIENT
1026:.\Generated_Source\PSoC4/BLE_eventHandler.c ****     if((cyBle_eventHandlerFlag & CYBLE_CALLBACK) != 0u)
1027:.\Generated_Source\PSoC4/BLE_eventHandler.c ****     {
1028:.\Generated_Source\PSoC4/BLE_eventHandler.c ****         CyBle_EsscReadResponseEventHandler(eventParam);
1029:.\Generated_Source\PSoC4/BLE_eventHandler.c ****     }
1030:.\Generated_Source\PSoC4/BLE_eventHandler.c **** #endif /* CYBLE_ESS_CLIENT */
1031:.\Generated_Source\PSoC4/BLE_eventHandler.c **** #ifdef CYBLE_GLS_CLIENT
1032:.\Generated_Source\PSoC4/BLE_eventHandler.c ****     if((cyBle_eventHandlerFlag & CYBLE_CALLBACK) != 0u)
1033:.\Generated_Source\PSoC4/BLE_eventHandler.c ****     {
1034:.\Generated_Source\PSoC4/BLE_eventHandler.c ****         CyBle_GlscReadResponseEventHandler(eventParam);
1035:.\Generated_Source\PSoC4/BLE_eventHandler.c ****     }
1036:.\Generated_Source\PSoC4/BLE_eventHandler.c **** #endif /* CYBLE_GLS_CLIENT */
1037:.\Generated_Source\PSoC4/BLE_eventHandler.c **** #ifdef CYBLE_HIDS_CLIENT
1038:.\Generated_Source\PSoC4/BLE_eventHandler.c ****     if((cyBle_eventHandlerFlag & CYBLE_CALLBACK) != 0u)
1039:.\Generated_Source\PSoC4/BLE_eventHandler.c ****     {
1040:.\Generated_Source\PSoC4/BLE_eventHandler.c ****         CyBle_HidscReadResponseEventHandler(eventParam);
1041:.\Generated_Source\PSoC4/BLE_eventHandler.c ****     }
1042:.\Generated_Source\PSoC4/BLE_eventHandler.c **** #endif /* CYBLE_HIDS_CLIENT */
1043:.\Generated_Source\PSoC4/BLE_eventHandler.c **** #ifdef CYBLE_HRS_CLIENT
1044:.\Generated_Source\PSoC4/BLE_eventHandler.c ****     if((cyBle_eventHandlerFlag & CYBLE_CALLBACK) != 0u)
1045:.\Generated_Source\PSoC4/BLE_eventHandler.c ****     {
1046:.\Generated_Source\PSoC4/BLE_eventHandler.c ****         CyBle_HrscReadResponseEventHandler(eventParam);
1047:.\Generated_Source\PSoC4/BLE_eventHandler.c ****     }
1048:.\Generated_Source\PSoC4/BLE_eventHandler.c **** #endif /* CYBLE_HRS_CLIENT */
1049:.\Generated_Source\PSoC4/BLE_eventHandler.c **** #ifdef CYBLE_HTS_CLIENT
1050:.\Generated_Source\PSoC4/BLE_eventHandler.c ****     if((cyBle_eventHandlerFlag & CYBLE_CALLBACK) != 0u)
1051:.\Generated_Source\PSoC4/BLE_eventHandler.c ****     {
1052:.\Generated_Source\PSoC4/BLE_eventHandler.c ****         CyBle_HtscReadResponseEventHandler(eventParam);
1053:.\Generated_Source\PSoC4/BLE_eventHandler.c ****     }
1054:.\Generated_Source\PSoC4/BLE_eventHandler.c **** #endif /* CYBLE_HTS_CLIENT */
1055:.\Generated_Source\PSoC4/BLE_eventHandler.c **** #ifdef CYBLE_LLS_CLIENT
1056:.\Generated_Source\PSoC4/BLE_eventHandler.c ****     if((cyBle_eventHandlerFlag & CYBLE_CALLBACK) != 0u)
1057:.\Generated_Source\PSoC4/BLE_eventHandler.c ****     {
1058:.\Generated_Source\PSoC4/BLE_eventHandler.c ****         CyBle_LlscReadResponseEventHandler(eventParam);
1059:.\Generated_Source\PSoC4/BLE_eventHandler.c ****     }
ARM GAS  C:\Users\JOHNSO~1\AppData\Local\Temp\ccaL6Noa.s 			page 20


1060:.\Generated_Source\PSoC4/BLE_eventHandler.c **** #endif /* CYBLE_LLS_CLIENT */
1061:.\Generated_Source\PSoC4/BLE_eventHandler.c **** #ifdef CYBLE_LNS_CLIENT
1062:.\Generated_Source\PSoC4/BLE_eventHandler.c ****     if((cyBle_eventHandlerFlag & CYBLE_CALLBACK) != 0u)
1063:.\Generated_Source\PSoC4/BLE_eventHandler.c ****     {
1064:.\Generated_Source\PSoC4/BLE_eventHandler.c ****         CyBle_LnscReadResponseEventHandler(eventParam);
1065:.\Generated_Source\PSoC4/BLE_eventHandler.c ****     }
1066:.\Generated_Source\PSoC4/BLE_eventHandler.c **** #endif /* CYBLE_LNS_CLIENT */
1067:.\Generated_Source\PSoC4/BLE_eventHandler.c **** #ifdef CYBLE_NDCS_CLIENT
1068:.\Generated_Source\PSoC4/BLE_eventHandler.c ****     if((cyBle_eventHandlerFlag & CYBLE_CALLBACK) != 0u)
1069:.\Generated_Source\PSoC4/BLE_eventHandler.c ****     {
1070:.\Generated_Source\PSoC4/BLE_eventHandler.c ****         CyBle_NdcscReadResponseEventHandler(eventParam);
1071:.\Generated_Source\PSoC4/BLE_eventHandler.c ****     }
1072:.\Generated_Source\PSoC4/BLE_eventHandler.c **** #endif /* CYBLE_NDCS_CLIENT */
1073:.\Generated_Source\PSoC4/BLE_eventHandler.c **** #ifdef CYBLE_PASS_CLIENT
1074:.\Generated_Source\PSoC4/BLE_eventHandler.c ****     if((cyBle_eventHandlerFlag & CYBLE_CALLBACK) != 0u)
1075:.\Generated_Source\PSoC4/BLE_eventHandler.c ****     {
1076:.\Generated_Source\PSoC4/BLE_eventHandler.c ****         CyBle_PasscReadResponseEventHandler(eventParam);
1077:.\Generated_Source\PSoC4/BLE_eventHandler.c ****     }
1078:.\Generated_Source\PSoC4/BLE_eventHandler.c **** #endif /* CYBLE_PASS_CLIENT */
1079:.\Generated_Source\PSoC4/BLE_eventHandler.c **** #ifdef CYBLE_RSCS_CLIENT
1080:.\Generated_Source\PSoC4/BLE_eventHandler.c ****     if((cyBle_eventHandlerFlag & CYBLE_CALLBACK) != 0u)
1081:.\Generated_Source\PSoC4/BLE_eventHandler.c ****     {
1082:.\Generated_Source\PSoC4/BLE_eventHandler.c ****         CyBle_RscscReadResponseEventHandler(eventParam);
1083:.\Generated_Source\PSoC4/BLE_eventHandler.c ****     }
1084:.\Generated_Source\PSoC4/BLE_eventHandler.c **** #endif /* CYBLE_RSCS_CLIENT */
1085:.\Generated_Source\PSoC4/BLE_eventHandler.c **** #ifdef CYBLE_RTUS_CLIENT
1086:.\Generated_Source\PSoC4/BLE_eventHandler.c ****     if((cyBle_eventHandlerFlag & CYBLE_CALLBACK) != 0u)
1087:.\Generated_Source\PSoC4/BLE_eventHandler.c ****     {
1088:.\Generated_Source\PSoC4/BLE_eventHandler.c ****         CyBle_RtuscReadResponseEventHandler(eventParam);
1089:.\Generated_Source\PSoC4/BLE_eventHandler.c ****     }
1090:.\Generated_Source\PSoC4/BLE_eventHandler.c **** #endif /* CYBLE_RTUS_CLIENT */
1091:.\Generated_Source\PSoC4/BLE_eventHandler.c **** #ifdef CYBLE_SCPS_CLIENT
1092:.\Generated_Source\PSoC4/BLE_eventHandler.c ****     if((cyBle_eventHandlerFlag & CYBLE_CALLBACK) != 0u)
1093:.\Generated_Source\PSoC4/BLE_eventHandler.c ****     {
1094:.\Generated_Source\PSoC4/BLE_eventHandler.c ****         CyBle_ScpscReadResponseEventHandler(eventParam);
1095:.\Generated_Source\PSoC4/BLE_eventHandler.c ****     }
1096:.\Generated_Source\PSoC4/BLE_eventHandler.c **** #endif /* CYBLE_SCPS_CLIENT */
1097:.\Generated_Source\PSoC4/BLE_eventHandler.c **** #ifdef CYBLE_TPS_CLIENT
1098:.\Generated_Source\PSoC4/BLE_eventHandler.c ****     if((cyBle_eventHandlerFlag & CYBLE_CALLBACK) != 0u)
1099:.\Generated_Source\PSoC4/BLE_eventHandler.c ****     {
1100:.\Generated_Source\PSoC4/BLE_eventHandler.c ****         CyBle_TpscReadResponseEventHandler(eventParam);
1101:.\Generated_Source\PSoC4/BLE_eventHandler.c ****     }
1102:.\Generated_Source\PSoC4/BLE_eventHandler.c **** #endif /* CYBLE_TPS_CLIENT */
1103:.\Generated_Source\PSoC4/BLE_eventHandler.c **** #ifdef CYBLE_UDS_CLIENT
1104:.\Generated_Source\PSoC4/BLE_eventHandler.c ****     if((cyBle_eventHandlerFlag & CYBLE_CALLBACK) != 0u)
1105:.\Generated_Source\PSoC4/BLE_eventHandler.c ****     {
1106:.\Generated_Source\PSoC4/BLE_eventHandler.c ****         CyBle_UdscReadResponseEventHandler(eventParam);
1107:.\Generated_Source\PSoC4/BLE_eventHandler.c ****     }
1108:.\Generated_Source\PSoC4/BLE_eventHandler.c **** #endif /* CYBLE_UDS_CLIENT */
1109:.\Generated_Source\PSoC4/BLE_eventHandler.c **** #ifdef CYBLE_WPTS_CLIENT
1110:.\Generated_Source\PSoC4/BLE_eventHandler.c ****     if((cyBle_eventHandlerFlag & CYBLE_CALLBACK) != 0u)
1111:.\Generated_Source\PSoC4/BLE_eventHandler.c ****     {
1112:.\Generated_Source\PSoC4/BLE_eventHandler.c ****         CyBle_WptscReadResponseEventHandler(eventParam);
1113:.\Generated_Source\PSoC4/BLE_eventHandler.c ****     }
1114:.\Generated_Source\PSoC4/BLE_eventHandler.c **** #endif /* CYBLE_WPTS_CLIENT */
1115:.\Generated_Source\PSoC4/BLE_eventHandler.c **** #ifdef CYBLE_WSS_CLIENT
1116:.\Generated_Source\PSoC4/BLE_eventHandler.c ****     if((cyBle_eventHandlerFlag & CYBLE_CALLBACK) != 0u)
ARM GAS  C:\Users\JOHNSO~1\AppData\Local\Temp\ccaL6Noa.s 			page 21


1117:.\Generated_Source\PSoC4/BLE_eventHandler.c ****     {
1118:.\Generated_Source\PSoC4/BLE_eventHandler.c ****         CyBle_WsscReadResponseEventHandler(eventParam);
1119:.\Generated_Source\PSoC4/BLE_eventHandler.c ****     }
1120:.\Generated_Source\PSoC4/BLE_eventHandler.c **** #endif /* CYBLE_WSS_CLIENT */
1121:.\Generated_Source\PSoC4/BLE_eventHandler.c **** }
1122:.\Generated_Source\PSoC4/BLE_eventHandler.c **** #endif /* CYBLE_GATT_ROLE_CLIENT */
1123:.\Generated_Source\PSoC4/BLE_eventHandler.c **** 
1124:.\Generated_Source\PSoC4/BLE_eventHandler.c **** 
1125:.\Generated_Source\PSoC4/BLE_eventHandler.c **** /****************************************************************************** 
1126:.\Generated_Source\PSoC4/BLE_eventHandler.c **** ##Function Name: CyBle_DisconnectEventHandler
1127:.\Generated_Source\PSoC4/BLE_eventHandler.c **** *******************************************************************************
1128:.\Generated_Source\PSoC4/BLE_eventHandler.c **** 
1129:.\Generated_Source\PSoC4/BLE_eventHandler.c **** Summary:
1130:.\Generated_Source\PSoC4/BLE_eventHandler.c ****  Handles the GATT Disconnection event from the BLE stack.
1131:.\Generated_Source\PSoC4/BLE_eventHandler.c **** 
1132:.\Generated_Source\PSoC4/BLE_eventHandler.c **** Parameters:
1133:.\Generated_Source\PSoC4/BLE_eventHandler.c ****  None
1134:.\Generated_Source\PSoC4/BLE_eventHandler.c **** 
1135:.\Generated_Source\PSoC4/BLE_eventHandler.c **** Return:
1136:.\Generated_Source\PSoC4/BLE_eventHandler.c ****  None
1137:.\Generated_Source\PSoC4/BLE_eventHandler.c **** 
1138:.\Generated_Source\PSoC4/BLE_eventHandler.c **** ******************************************************************************/
1139:.\Generated_Source\PSoC4/BLE_eventHandler.c **** static void CyBle_GattDisconnectEventHandler(void)
1140:.\Generated_Source\PSoC4/BLE_eventHandler.c **** {
  25              		.loc 1 1140 0
  26              		.cfi_startproc
1141:.\Generated_Source\PSoC4/BLE_eventHandler.c ****     cyBle_connHandle.attId = 0u;
  27              		.loc 1 1141 0
  28 0000 024B     		ldr	r3, .L2
  29 0002 0022     		mov	r2, #0
  30 0004 5A70     		strb	r2, [r3, #1]
1142:.\Generated_Source\PSoC4/BLE_eventHandler.c ****     cyBle_connHandle.bdHandle = 0u;
  31              		.loc 1 1142 0
  32 0006 1A70     		strb	r2, [r3]
1143:.\Generated_Source\PSoC4/BLE_eventHandler.c ****     
1144:.\Generated_Source\PSoC4/BLE_eventHandler.c ****     #if (CYBLE_GATT_ROLE_CLIENT)
1145:.\Generated_Source\PSoC4/BLE_eventHandler.c ****         if(CYBLE_CLIENT_STATE_DISCOVERED == CyBle_GetClientState())
1146:.\Generated_Source\PSoC4/BLE_eventHandler.c ****         {
1147:.\Generated_Source\PSoC4/BLE_eventHandler.c ****             CyBle_SetClientState(CYBLE_CLIENT_STATE_DISCONNECTED_DISCOVERED);
1148:.\Generated_Source\PSoC4/BLE_eventHandler.c ****         }
1149:.\Generated_Source\PSoC4/BLE_eventHandler.c ****         else
1150:.\Generated_Source\PSoC4/BLE_eventHandler.c ****         {
1151:.\Generated_Source\PSoC4/BLE_eventHandler.c ****             CyBle_SetClientState(CYBLE_CLIENT_STATE_DISCONNECTED);
1152:.\Generated_Source\PSoC4/BLE_eventHandler.c ****         }
1153:.\Generated_Source\PSoC4/BLE_eventHandler.c ****     #endif /* CYBLE_GATT_ROLE_CLIENT */
1154:.\Generated_Source\PSoC4/BLE_eventHandler.c ****         
1155:.\Generated_Source\PSoC4/BLE_eventHandler.c ****     #ifdef CYBLE_CPS_SERVER
1156:.\Generated_Source\PSoC4/BLE_eventHandler.c ****         #if CYBLE_GAP_ROLE_BROADCASTER
1157:.\Generated_Source\PSoC4/BLE_eventHandler.c ****             CyBle_CpssDisconnectEventHandler();
1158:.\Generated_Source\PSoC4/BLE_eventHandler.c ****         #endif /* CYBLE_GAP_ROLE_BROADCASTER */
1159:.\Generated_Source\PSoC4/BLE_eventHandler.c ****     #endif /* CYBLE_CPS_SERVER */
1160:.\Generated_Source\PSoC4/BLE_eventHandler.c **** 
1161:.\Generated_Source\PSoC4/BLE_eventHandler.c ****     #ifdef CYBLE_CPS_CLIENT
1162:.\Generated_Source\PSoC4/BLE_eventHandler.c ****         CyBle_CpscDisconnectEventHandler();
1163:.\Generated_Source\PSoC4/BLE_eventHandler.c ****     #endif /* CYBLE_CPS_CLIENT */
1164:.\Generated_Source\PSoC4/BLE_eventHandler.c **** 
1165:.\Generated_Source\PSoC4/BLE_eventHandler.c ****     #ifdef CYBLE_IAS_SERVER
ARM GAS  C:\Users\JOHNSO~1\AppData\Local\Temp\ccaL6Noa.s 			page 22


1166:.\Generated_Source\PSoC4/BLE_eventHandler.c ****         CyBle_IassDisconnectEventHandler();
1167:.\Generated_Source\PSoC4/BLE_eventHandler.c ****     #endif /* CYBLE_IAS_SERVER */
1168:.\Generated_Source\PSoC4/BLE_eventHandler.c ****     
1169:.\Generated_Source\PSoC4/BLE_eventHandler.c ****     #ifdef CYBLE_GLS_SERVER
1170:.\Generated_Source\PSoC4/BLE_eventHandler.c ****         CyBle_GlsInit();
1171:.\Generated_Source\PSoC4/BLE_eventHandler.c ****     #endif /* CYBLE_GLS_SERVER */
1172:.\Generated_Source\PSoC4/BLE_eventHandler.c ****     
1173:.\Generated_Source\PSoC4/BLE_eventHandler.c ****     #ifdef CYBLE_LNS_SERVER
1174:.\Generated_Source\PSoC4/BLE_eventHandler.c ****         CyBle_LnsInit();
1175:.\Generated_Source\PSoC4/BLE_eventHandler.c ****     #endif /* CYBLE_LNS_SERVER */
1176:.\Generated_Source\PSoC4/BLE_eventHandler.c ****     
1177:.\Generated_Source\PSoC4/BLE_eventHandler.c ****     #ifdef CYBLE_UDS_SERVER
1178:.\Generated_Source\PSoC4/BLE_eventHandler.c ****         CyBle_UdsInit();
1179:.\Generated_Source\PSoC4/BLE_eventHandler.c ****     #endif /* CYBLE_UDS_SERVER */
1180:.\Generated_Source\PSoC4/BLE_eventHandler.c **** }
  33              		.loc 1 1180 0
  34              		@ sp needed
  35 0008 7047     		bx	lr
  36              	.L3:
  37 000a C046     		.align	2
  38              	.L2:
  39 000c 00000000 		.word	cyBle_connHandle
  40              		.cfi_endproc
  41              	.LFE4:
  42              		.size	CyBle_GattDisconnectEventHandler, .-CyBle_GattDisconnectEventHandler
  43              		.section	.text.CyBle_IsDeviceAddressValid,"ax",%progbits
  44              		.align	2
  45              		.code	16
  46              		.thumb_func
  47              		.type	CyBle_IsDeviceAddressValid, %function
  48              	CyBle_IsDeviceAddressValid:
  49              	.LFB7:
1181:.\Generated_Source\PSoC4/BLE_eventHandler.c **** 
1182:.\Generated_Source\PSoC4/BLE_eventHandler.c **** 
1183:.\Generated_Source\PSoC4/BLE_eventHandler.c **** /****************************************************************************** 
1184:.\Generated_Source\PSoC4/BLE_eventHandler.c **** ##Function Name: CyBle_TimeOutEventHandler
1185:.\Generated_Source\PSoC4/BLE_eventHandler.c **** *******************************************************************************
1186:.\Generated_Source\PSoC4/BLE_eventHandler.c **** 
1187:.\Generated_Source\PSoC4/BLE_eventHandler.c **** Summary:
1188:.\Generated_Source\PSoC4/BLE_eventHandler.c ****  Handles the CYBLE_EVT_TIMEOUT event from the BLE stack.
1189:.\Generated_Source\PSoC4/BLE_eventHandler.c **** 
1190:.\Generated_Source\PSoC4/BLE_eventHandler.c **** Parameters:
1191:.\Generated_Source\PSoC4/BLE_eventHandler.c ****  *eventParam - The pointer to a structure of type CYBLE_TO_REASON_CODE_T.
1192:.\Generated_Source\PSoC4/BLE_eventHandler.c **** 
1193:.\Generated_Source\PSoC4/BLE_eventHandler.c **** Return:
1194:.\Generated_Source\PSoC4/BLE_eventHandler.c ****  None
1195:.\Generated_Source\PSoC4/BLE_eventHandler.c **** 
1196:.\Generated_Source\PSoC4/BLE_eventHandler.c **** ******************************************************************************/
1197:.\Generated_Source\PSoC4/BLE_eventHandler.c **** static void CyBle_TimeOutEventHandler(const CYBLE_TO_REASON_CODE_T *eventParam)
1198:.\Generated_Source\PSoC4/BLE_eventHandler.c **** {
1199:.\Generated_Source\PSoC4/BLE_eventHandler.c ****     if(*eventParam == CYBLE_GATT_RSP_TO)
1200:.\Generated_Source\PSoC4/BLE_eventHandler.c ****     {
1201:.\Generated_Source\PSoC4/BLE_eventHandler.c ****     #if (CYBLE_GATT_ROLE_CLIENT)
1202:.\Generated_Source\PSoC4/BLE_eventHandler.c ****         if(0u != (cyBle_eventHandlerFlag & CYBLE_AUTO_DISCOVERY))
1203:.\Generated_Source\PSoC4/BLE_eventHandler.c ****         {
1204:.\Generated_Source\PSoC4/BLE_eventHandler.c ****             switch(CyBle_GetClientState())
1205:.\Generated_Source\PSoC4/BLE_eventHandler.c ****             {
ARM GAS  C:\Users\JOHNSO~1\AppData\Local\Temp\ccaL6Noa.s 			page 23


1206:.\Generated_Source\PSoC4/BLE_eventHandler.c ****                 case CYBLE_CLIENT_STATE_SRVC_DISCOVERING:
1207:.\Generated_Source\PSoC4/BLE_eventHandler.c ****                     CyBle_ApplCallback(CYBLE_EVT_GATTC_SRVC_DISCOVERY_FAILED, NULL);
1208:.\Generated_Source\PSoC4/BLE_eventHandler.c ****                     break;
1209:.\Generated_Source\PSoC4/BLE_eventHandler.c ****                 case CYBLE_CLIENT_STATE_INCL_DISCOVERING:
1210:.\Generated_Source\PSoC4/BLE_eventHandler.c ****                     CyBle_ApplCallback(CYBLE_EVT_GATTC_INCL_DISCOVERY_FAILED, NULL);
1211:.\Generated_Source\PSoC4/BLE_eventHandler.c ****                     break;
1212:.\Generated_Source\PSoC4/BLE_eventHandler.c ****                 case CYBLE_CLIENT_STATE_CHAR_DISCOVERING:
1213:.\Generated_Source\PSoC4/BLE_eventHandler.c ****                     CyBle_ApplCallback(CYBLE_EVT_GATTC_CHAR_DISCOVERY_FAILED, NULL);
1214:.\Generated_Source\PSoC4/BLE_eventHandler.c ****                     break;
1215:.\Generated_Source\PSoC4/BLE_eventHandler.c ****                 case CYBLE_CLIENT_STATE_DESCR_DISCOVERING:
1216:.\Generated_Source\PSoC4/BLE_eventHandler.c ****                     CyBle_ApplCallback(CYBLE_EVT_GATTC_DESCR_DISCOVERY_FAILED, NULL);
1217:.\Generated_Source\PSoC4/BLE_eventHandler.c ****                     break;
1218:.\Generated_Source\PSoC4/BLE_eventHandler.c ****                 default:        /* Other states should not be set in Auto discovery mode */
1219:.\Generated_Source\PSoC4/BLE_eventHandler.c ****                     break;
1220:.\Generated_Source\PSoC4/BLE_eventHandler.c ****             }
1221:.\Generated_Source\PSoC4/BLE_eventHandler.c ****             cyBle_eventHandlerFlag &= (uint8)~CYBLE_AUTO_DISCOVERY;
1222:.\Generated_Source\PSoC4/BLE_eventHandler.c ****             CyBle_SetClientState(CYBLE_CLIENT_STATE_CONNECTED);
1223:.\Generated_Source\PSoC4/BLE_eventHandler.c ****         }
1224:.\Generated_Source\PSoC4/BLE_eventHandler.c ****     #endif /* CYBLE_GATT_ROLE_CLIENT */
1225:.\Generated_Source\PSoC4/BLE_eventHandler.c ****     #ifdef CYBLE_CPS_SERVER
1226:.\Generated_Source\PSoC4/BLE_eventHandler.c ****         CyBle_CpssTimeOutEventHandler();
1227:.\Generated_Source\PSoC4/BLE_eventHandler.c ****     #endif /* CYBLE_CPS_SERVER */
1228:.\Generated_Source\PSoC4/BLE_eventHandler.c ****     }
1229:.\Generated_Source\PSoC4/BLE_eventHandler.c ****     
1230:.\Generated_Source\PSoC4/BLE_eventHandler.c ****     /* Connection procedure timeout */
1231:.\Generated_Source\PSoC4/BLE_eventHandler.c ****     if(*eventParam == CYBLE_GENERIC_TO)
1232:.\Generated_Source\PSoC4/BLE_eventHandler.c ****     {
1233:.\Generated_Source\PSoC4/BLE_eventHandler.c ****     #if(CYBLE_GAP_ROLE_CENTRAL)
1234:.\Generated_Source\PSoC4/BLE_eventHandler.c ****         if(CYBLE_STATE_CONNECTING == CyBle_GetState())
1235:.\Generated_Source\PSoC4/BLE_eventHandler.c ****         {
1236:.\Generated_Source\PSoC4/BLE_eventHandler.c ****             (void)CyBle_GapcCancelDeviceConnection();
1237:.\Generated_Source\PSoC4/BLE_eventHandler.c ****         }
1238:.\Generated_Source\PSoC4/BLE_eventHandler.c ****     #endif /* CYBLE_GAP_ROLE_CENTRAL */
1239:.\Generated_Source\PSoC4/BLE_eventHandler.c ****     }
1240:.\Generated_Source\PSoC4/BLE_eventHandler.c **** }
1241:.\Generated_Source\PSoC4/BLE_eventHandler.c **** 
1242:.\Generated_Source\PSoC4/BLE_eventHandler.c **** 
1243:.\Generated_Source\PSoC4/BLE_eventHandler.c **** /****************************************************************************** 
1244:.\Generated_Source\PSoC4/BLE_eventHandler.c **** ##Function Name: CyBle_GattConnectReqHandler
1245:.\Generated_Source\PSoC4/BLE_eventHandler.c **** *******************************************************************************
1246:.\Generated_Source\PSoC4/BLE_eventHandler.c **** 
1247:.\Generated_Source\PSoC4/BLE_eventHandler.c **** Summary:
1248:.\Generated_Source\PSoC4/BLE_eventHandler.c ****  Handles the GATT connect event from the BLE stack.
1249:.\Generated_Source\PSoC4/BLE_eventHandler.c **** 
1250:.\Generated_Source\PSoC4/BLE_eventHandler.c **** Parameters:
1251:.\Generated_Source\PSoC4/BLE_eventHandler.c ****  None
1252:.\Generated_Source\PSoC4/BLE_eventHandler.c **** 
1253:.\Generated_Source\PSoC4/BLE_eventHandler.c **** Return:
1254:.\Generated_Source\PSoC4/BLE_eventHandler.c ****  None
1255:.\Generated_Source\PSoC4/BLE_eventHandler.c **** 
1256:.\Generated_Source\PSoC4/BLE_eventHandler.c **** ******************************************************************************/
1257:.\Generated_Source\PSoC4/BLE_eventHandler.c **** static void CyBle_GattConnectReqHandler(void)
1258:.\Generated_Source\PSoC4/BLE_eventHandler.c **** {
1259:.\Generated_Source\PSoC4/BLE_eventHandler.c ****     #ifdef CYBLE_CGMS_SERVER
1260:.\Generated_Source\PSoC4/BLE_eventHandler.c ****         CyBle_CgmsInit();
1261:.\Generated_Source\PSoC4/BLE_eventHandler.c ****     #endif /* CYBLE_CGMS_SERVER */
1262:.\Generated_Source\PSoC4/BLE_eventHandler.c ****     
ARM GAS  C:\Users\JOHNSO~1\AppData\Local\Temp\ccaL6Noa.s 			page 24


1263:.\Generated_Source\PSoC4/BLE_eventHandler.c ****     #ifdef CYBLE_CPS_SERVER
1264:.\Generated_Source\PSoC4/BLE_eventHandler.c ****         CyBle_CpssConnectEventHandler();
1265:.\Generated_Source\PSoC4/BLE_eventHandler.c ****     #endif /* CYBLE_CPS_SERVER */
1266:.\Generated_Source\PSoC4/BLE_eventHandler.c ****     
1267:.\Generated_Source\PSoC4/BLE_eventHandler.c ****     #ifdef CYBLE_CSCS_SERVER
1268:.\Generated_Source\PSoC4/BLE_eventHandler.c ****             CyBle_CscsInit();
1269:.\Generated_Source\PSoC4/BLE_eventHandler.c ****     #endif /* CYBLE_CSCS_SERVER */
1270:.\Generated_Source\PSoC4/BLE_eventHandler.c ****     
1271:.\Generated_Source\PSoC4/BLE_eventHandler.c ****     #ifdef CYBLE_LLS_SERVER
1272:.\Generated_Source\PSoC4/BLE_eventHandler.c ****         CyBle_LlssConnectEventHandler();
1273:.\Generated_Source\PSoC4/BLE_eventHandler.c ****     #endif /* CYBLE_LLS_SERVER */
1274:.\Generated_Source\PSoC4/BLE_eventHandler.c ****     
1275:.\Generated_Source\PSoC4/BLE_eventHandler.c ****     #ifdef CYBLE_HIDS_SERVER
1276:.\Generated_Source\PSoC4/BLE_eventHandler.c ****         CyBle_HidssOnDeviceConnected();
1277:.\Generated_Source\PSoC4/BLE_eventHandler.c ****     #endif /* CYBLE_HIDS_SERVER */
1278:.\Generated_Source\PSoC4/BLE_eventHandler.c **** 
1279:.\Generated_Source\PSoC4/BLE_eventHandler.c ****     #ifdef CYBLE_RSCS_SERVER
1280:.\Generated_Source\PSoC4/BLE_eventHandler.c ****         CyBle_RscsInit();
1281:.\Generated_Source\PSoC4/BLE_eventHandler.c ****     #endif /* CYBLE_RSCS_SERVER */
1282:.\Generated_Source\PSoC4/BLE_eventHandler.c **** }
1283:.\Generated_Source\PSoC4/BLE_eventHandler.c **** 
1284:.\Generated_Source\PSoC4/BLE_eventHandler.c **** 
1285:.\Generated_Source\PSoC4/BLE_eventHandler.c **** #if (CYBLE_GATT_ROLE_SERVER || CYBLE_GATT_ROLE_CLIENT)
1286:.\Generated_Source\PSoC4/BLE_eventHandler.c **** 
1287:.\Generated_Source\PSoC4/BLE_eventHandler.c **** /****************************************************************************** 
1288:.\Generated_Source\PSoC4/BLE_eventHandler.c **** ##Function Name: CyBle_IsDeviceAddressValid
1289:.\Generated_Source\PSoC4/BLE_eventHandler.c **** *******************************************************************************
1290:.\Generated_Source\PSoC4/BLE_eventHandler.c **** 
1291:.\Generated_Source\PSoC4/BLE_eventHandler.c **** Summary:
1292:.\Generated_Source\PSoC4/BLE_eventHandler.c ****  This function verifies that BLE public address has been programmed to SFLASH 
1293:.\Generated_Source\PSoC4/BLE_eventHandler.c ****  during manufacture.
1294:.\Generated_Source\PSoC4/BLE_eventHandler.c **** 
1295:.\Generated_Source\PSoC4/BLE_eventHandler.c **** Parameters:
1296:.\Generated_Source\PSoC4/BLE_eventHandler.c ****  CYBLE_GAP_BD_ADDR_T *sflashDeviceAddress: the pointer to the BD address of 
1297:.\Generated_Source\PSoC4/BLE_eventHandler.c ****                                            type CYBLE_GAP_BD_ADDR_T. 
1298:.\Generated_Source\PSoC4/BLE_eventHandler.c **** 
1299:.\Generated_Source\PSoC4/BLE_eventHandler.c **** Return:
1300:.\Generated_Source\PSoC4/BLE_eventHandler.c ****  Non zero value when a device address differs from the default SFLASH content.
1301:.\Generated_Source\PSoC4/BLE_eventHandler.c **** 
1302:.\Generated_Source\PSoC4/BLE_eventHandler.c **** ******************************************************************************/
1303:.\Generated_Source\PSoC4/BLE_eventHandler.c **** static uint8 CyBle_IsDeviceAddressValid(const CYBLE_GAP_BD_ADDR_T *sflashDeviceAddress)
1304:.\Generated_Source\PSoC4/BLE_eventHandler.c **** {
  50              		.loc 1 1304 0
  51              		.cfi_startproc
  52              	.LVL0:
1305:.\Generated_Source\PSoC4/BLE_eventHandler.c ****     uint8 i;
1306:.\Generated_Source\PSoC4/BLE_eventHandler.c ****     uint8 sflashAddressValid = 0u;
1307:.\Generated_Source\PSoC4/BLE_eventHandler.c ****     
1308:.\Generated_Source\PSoC4/BLE_eventHandler.c ****     if(sflashDeviceAddress -> type == CYBLE_GAP_ADDR_TYPE_PUBLIC)  
  53              		.loc 1 1308 0
  54 0000 8379     		ldrb	r3, [r0, #6]
  55 0002 002B     		cmp	r3, #0
  56 0004 07D0     		beq	.L8
1306:.\Generated_Source\PSoC4/BLE_eventHandler.c ****     uint8 sflashAddressValid = 0u;
  57              		.loc 1 1306 0
  58 0006 0020     		mov	r0, #0
  59              	.LVL1:
ARM GAS  C:\Users\JOHNSO~1\AppData\Local\Temp\ccaL6Noa.s 			page 25


  60 0008 0BE0     		b	.L6
  61              	.LVL2:
  62              	.L7:
1309:.\Generated_Source\PSoC4/BLE_eventHandler.c ****     {
1310:.\Generated_Source\PSoC4/BLE_eventHandler.c ****         for(i = 0u; i < CYBLE_GAP_BD_ADDR_SIZE; i++)
1311:.\Generated_Source\PSoC4/BLE_eventHandler.c ****         {
1312:.\Generated_Source\PSoC4/BLE_eventHandler.c ****             if(sflashDeviceAddress->bdAddr[i] != 0u)
  63              		.loc 1 1312 0
  64 000a C25C     		ldrb	r2, [r0, r3]
  65 000c 002A     		cmp	r2, #0
  66 000e 07D1     		bne	.L9
1310:.\Generated_Source\PSoC4/BLE_eventHandler.c ****         for(i = 0u; i < CYBLE_GAP_BD_ADDR_SIZE; i++)
  67              		.loc 1 1310 0
  68 0010 0133     		add	r3, r3, #1
  69              	.LVL3:
  70 0012 DBB2     		uxtb	r3, r3
  71              	.LVL4:
  72 0014 00E0     		b	.L5
  73              	.LVL5:
  74              	.L8:
  75 0016 0023     		mov	r3, #0
  76              	.L5:
  77              	.LVL6:
1310:.\Generated_Source\PSoC4/BLE_eventHandler.c ****         for(i = 0u; i < CYBLE_GAP_BD_ADDR_SIZE; i++)
  78              		.loc 1 1310 0 is_stmt 0 discriminator 1
  79 0018 052B     		cmp	r3, #5
  80 001a F6D9     		bls	.L7
1306:.\Generated_Source\PSoC4/BLE_eventHandler.c ****     uint8 sflashAddressValid = 0u;
  81              		.loc 1 1306 0 is_stmt 1
  82 001c 0020     		mov	r0, #0
  83              	.LVL7:
  84 001e 00E0     		b	.L6
  85              	.LVL8:
  86              	.L9:
1313:.\Generated_Source\PSoC4/BLE_eventHandler.c ****             {
1314:.\Generated_Source\PSoC4/BLE_eventHandler.c ****                 sflashAddressValid = 1u;
  87              		.loc 1 1314 0
  88 0020 0120     		mov	r0, #1
  89              	.LVL9:
  90              	.L6:
1315:.\Generated_Source\PSoC4/BLE_eventHandler.c ****                 break;
1316:.\Generated_Source\PSoC4/BLE_eventHandler.c ****             }
1317:.\Generated_Source\PSoC4/BLE_eventHandler.c ****         }
1318:.\Generated_Source\PSoC4/BLE_eventHandler.c ****     }
1319:.\Generated_Source\PSoC4/BLE_eventHandler.c ****     return (sflashAddressValid);
1320:.\Generated_Source\PSoC4/BLE_eventHandler.c **** }
  91              		.loc 1 1320 0
  92              		@ sp needed
  93 0022 7047     		bx	lr
  94              		.cfi_endproc
  95              	.LFE7:
  96              		.size	CyBle_IsDeviceAddressValid, .-CyBle_IsDeviceAddressValid
  97              		.section	.text.CyBle_WriteReqHandler,"ax",%progbits
  98              		.align	2
  99              		.code	16
 100              		.thumb_func
 101              		.type	CyBle_WriteReqHandler, %function
ARM GAS  C:\Users\JOHNSO~1\AppData\Local\Temp\ccaL6Noa.s 			page 26


 102              	CyBle_WriteReqHandler:
 103              	.LFB2:
 223:.\Generated_Source\PSoC4/BLE_eventHandler.c **** {
 104              		.loc 1 223 0
 105              		.cfi_startproc
 106              	.LVL10:
 107 0000 10B5     		push	{r4, lr}
 108              		.cfi_def_cfa_offset 8
 109              		.cfi_offset 4, -8
 110              		.cfi_offset 14, -4
 111 0002 82B0     		sub	sp, sp, #8
 112              		.cfi_def_cfa_offset 16
 113 0004 041C     		mov	r4, r0
 229:.\Generated_Source\PSoC4/BLE_eventHandler.c ****     gattErr = CyBle_GattsWriteEventHandler(eventParam);
 114              		.loc 1 229 0
 115 0006 FFF7FEFF 		bl	CyBle_GattsWriteEventHandler
 116              	.LVL11:
 382:.\Generated_Source\PSoC4/BLE_eventHandler.c ****     if((cyBle_eventHandlerFlag & CYBLE_CALLBACK) == 0u)
 117              		.loc 1 382 0
 118 000a 0A4B     		ldr	r3, .L13
 119 000c 1B78     		ldrb	r3, [r3]
 120 000e D907     		lsl	r1, r3, #31
 121 0010 0ED4     		bmi	.L10
 384:.\Generated_Source\PSoC4/BLE_eventHandler.c ****         if(gattErr != CYBLE_GATT_ERR_NONE)
 122              		.loc 1 384 0
 123 0012 0028     		cmp	r0, #0
 124 0014 09D0     		beq	.L12
 125              	.LBB2:
 388:.\Generated_Source\PSoC4/BLE_eventHandler.c ****             err_param.opcode = (uint8) CYBLE_GATT_WRITE_REQ;
 126              		.loc 1 388 0
 127 0016 01A9     		add	r1, sp, #4
 128 0018 1223     		mov	r3, #18
 129 001a 8B70     		strb	r3, [r1, #2]
 389:.\Generated_Source\PSoC4/BLE_eventHandler.c ****             err_param.attrHandle = eventParam->handleValPair.attrHandle;
 130              		.loc 1 389 0
 131 001c A389     		ldrh	r3, [r4, #12]
 132 001e 0B80     		strh	r3, [r1]
 390:.\Generated_Source\PSoC4/BLE_eventHandler.c ****             err_param.errorCode = gattErr;
 133              		.loc 1 390 0
 134 0020 C870     		strb	r0, [r1, #3]
 393:.\Generated_Source\PSoC4/BLE_eventHandler.c ****             (void)CyBle_GattsErrorRsp(eventParam->connHandle, &err_param);
 135              		.loc 1 393 0
 136 0022 2068     		ldr	r0, [r4]
 137              	.LVL12:
 138 0024 FFF7FEFF 		bl	CyBle_GattsErrorRsp
 139              	.LVL13:
 140              	.LBE2:
 141 0028 02E0     		b	.L10
 142              	.LVL14:
 143              	.L12:
 397:.\Generated_Source\PSoC4/BLE_eventHandler.c ****             (void)CyBle_GattsWriteRsp(eventParam->connHandle);
 144              		.loc 1 397 0
 145 002a 2068     		ldr	r0, [r4]
 146              	.LVL15:
 147 002c FFF7FEFF 		bl	CyBle_GattsWriteRsp
 148              	.LVL16:
 149              	.L10:
ARM GAS  C:\Users\JOHNSO~1\AppData\Local\Temp\ccaL6Noa.s 			page 27


 400:.\Generated_Source\PSoC4/BLE_eventHandler.c **** }
 150              		.loc 1 400 0
 151 0030 02B0     		add	sp, sp, #8
 152              		@ sp needed
 153              	.LVL17:
 154 0032 10BD     		pop	{r4, pc}
 155              	.L14:
 156              		.align	2
 157              	.L13:
 158 0034 00000000 		.word	cyBle_eventHandlerFlag
 159              		.cfi_endproc
 160              	.LFE2:
 161              		.size	CyBle_WriteReqHandler, .-CyBle_WriteReqHandler
 162              		.section	.text.CyBle_EventHandler,"ax",%progbits
 163              		.align	2
 164              		.global	CyBle_EventHandler
 165              		.code	16
 166              		.thumb_func
 167              		.type	CyBle_EventHandler, %function
 168              	CyBle_EventHandler:
 169              	.LFB10:
1321:.\Generated_Source\PSoC4/BLE_eventHandler.c **** #endif /* CYBLE_GATT_ROLE_SERVER || CYBLE_GATT_ROLE_CLIENT */
1322:.\Generated_Source\PSoC4/BLE_eventHandler.c **** 
1323:.\Generated_Source\PSoC4/BLE_eventHandler.c **** 
1324:.\Generated_Source\PSoC4/BLE_eventHandler.c **** /****************************************************************************** 
1325:.\Generated_Source\PSoC4/BLE_eventHandler.c **** ##Function Name: CyBle_L2Cap_ConnParamUpdateRspHandler
1326:.\Generated_Source\PSoC4/BLE_eventHandler.c **** *******************************************************************************
1327:.\Generated_Source\PSoC4/BLE_eventHandler.c **** 
1328:.\Generated_Source\PSoC4/BLE_eventHandler.c **** Summary:
1329:.\Generated_Source\PSoC4/BLE_eventHandler.c ****  Handles the L2CAP connection parameter response event from
1330:.\Generated_Source\PSoC4/BLE_eventHandler.c ****  the BLE stack.
1331:.\Generated_Source\PSoC4/BLE_eventHandler.c **** 
1332:.\Generated_Source\PSoC4/BLE_eventHandler.c **** Parameters:
1333:.\Generated_Source\PSoC4/BLE_eventHandler.c ****  uint16 response:
1334:.\Generated_Source\PSoC4/BLE_eventHandler.c ****      * Accepted = 0x0000
1335:.\Generated_Source\PSoC4/BLE_eventHandler.c ****      * Rejected = 0x0001
1336:.\Generated_Source\PSoC4/BLE_eventHandler.c **** 
1337:.\Generated_Source\PSoC4/BLE_eventHandler.c **** Return:
1338:.\Generated_Source\PSoC4/BLE_eventHandler.c ****  None
1339:.\Generated_Source\PSoC4/BLE_eventHandler.c **** 
1340:.\Generated_Source\PSoC4/BLE_eventHandler.c **** ******************************************************************************/
1341:.\Generated_Source\PSoC4/BLE_eventHandler.c **** static void CyBle_L2Cap_ConnParamUpdateRspEventHandler(uint16 response)
1342:.\Generated_Source\PSoC4/BLE_eventHandler.c **** {
1343:.\Generated_Source\PSoC4/BLE_eventHandler.c ****     #ifdef CYBLE_CPS_SERVER
1344:.\Generated_Source\PSoC4/BLE_eventHandler.c ****         CyBle_CpssConnParamUpdateRspEventHandler(response);
1345:.\Generated_Source\PSoC4/BLE_eventHandler.c ****     #endif /* CYBLE_CPS_SERVER */
1346:.\Generated_Source\PSoC4/BLE_eventHandler.c ****     
1347:.\Generated_Source\PSoC4/BLE_eventHandler.c ****     /* Unreferenced variable warning workaround */
1348:.\Generated_Source\PSoC4/BLE_eventHandler.c ****     if(response != 0u)
1349:.\Generated_Source\PSoC4/BLE_eventHandler.c ****     {
1350:.\Generated_Source\PSoC4/BLE_eventHandler.c ****     }
1351:.\Generated_Source\PSoC4/BLE_eventHandler.c **** }
1352:.\Generated_Source\PSoC4/BLE_eventHandler.c **** 
1353:.\Generated_Source\PSoC4/BLE_eventHandler.c **** 
1354:.\Generated_Source\PSoC4/BLE_eventHandler.c **** /****************************************************************************** 
1355:.\Generated_Source\PSoC4/BLE_eventHandler.c **** ##Function Name: CyBle_GapConnUpdateCompleteEventHandler
1356:.\Generated_Source\PSoC4/BLE_eventHandler.c **** *******************************************************************************
ARM GAS  C:\Users\JOHNSO~1\AppData\Local\Temp\ccaL6Noa.s 			page 28


1357:.\Generated_Source\PSoC4/BLE_eventHandler.c **** 
1358:.\Generated_Source\PSoC4/BLE_eventHandler.c **** Summary:
1359:.\Generated_Source\PSoC4/BLE_eventHandler.c ****  Handles the CYBLE_EVT_GAP_CONNECTION_UPDATE_COMPLETE event from
1360:.\Generated_Source\PSoC4/BLE_eventHandler.c ****  the BLE stack.
1361:.\Generated_Source\PSoC4/BLE_eventHandler.c **** 
1362:.\Generated_Source\PSoC4/BLE_eventHandler.c **** Parameters:
1363:.\Generated_Source\PSoC4/BLE_eventHandler.c ****  *eventParam: The pointer to the data structure specified by the event.
1364:.\Generated_Source\PSoC4/BLE_eventHandler.c **** 
1365:.\Generated_Source\PSoC4/BLE_eventHandler.c **** Return:
1366:.\Generated_Source\PSoC4/BLE_eventHandler.c ****  None
1367:.\Generated_Source\PSoC4/BLE_eventHandler.c **** 
1368:.\Generated_Source\PSoC4/BLE_eventHandler.c **** ******************************************************************************/
1369:.\Generated_Source\PSoC4/BLE_eventHandler.c **** static void CyBle_GapConnUpdateCompleteEventHandler(const CYBLE_GAP_CONN_PARAM_UPDATED_IN_CONTROLLE
1370:.\Generated_Source\PSoC4/BLE_eventHandler.c **** {
1371:.\Generated_Source\PSoC4/BLE_eventHandler.c ****     #ifdef CYBLE_CPS_SERVER
1372:.\Generated_Source\PSoC4/BLE_eventHandler.c ****         CyBle_CpssConnUpdateCompleteEventHandler(eventParam);
1373:.\Generated_Source\PSoC4/BLE_eventHandler.c ****     #endif /* CYBLE_CPS_SERVER */
1374:.\Generated_Source\PSoC4/BLE_eventHandler.c ****     
1375:.\Generated_Source\PSoC4/BLE_eventHandler.c ****     /* Unreferenced variable warning workaround */
1376:.\Generated_Source\PSoC4/BLE_eventHandler.c ****     if(eventParam != 0u)
1377:.\Generated_Source\PSoC4/BLE_eventHandler.c ****     {
1378:.\Generated_Source\PSoC4/BLE_eventHandler.c ****     }
1379:.\Generated_Source\PSoC4/BLE_eventHandler.c **** }
1380:.\Generated_Source\PSoC4/BLE_eventHandler.c **** 
1381:.\Generated_Source\PSoC4/BLE_eventHandler.c **** 
1382:.\Generated_Source\PSoC4/BLE_eventHandler.c **** /****************************************************************************** 
1383:.\Generated_Source\PSoC4/BLE_eventHandler.c **** ##Function Name: CyBle_EventHandler
1384:.\Generated_Source\PSoC4/BLE_eventHandler.c **** *******************************************************************************
1385:.\Generated_Source\PSoC4/BLE_eventHandler.c **** 
1386:.\Generated_Source\PSoC4/BLE_eventHandler.c **** Summary:
1387:.\Generated_Source\PSoC4/BLE_eventHandler.c ****  Handles the events from the BLE stack
1388:.\Generated_Source\PSoC4/BLE_eventHandler.c **** 
1389:.\Generated_Source\PSoC4/BLE_eventHandler.c **** Parameters:
1390:.\Generated_Source\PSoC4/BLE_eventHandler.c ****  eventCode:    the event code
1391:.\Generated_Source\PSoC4/BLE_eventHandler.c ****  *eventParam:  the event parameters
1392:.\Generated_Source\PSoC4/BLE_eventHandler.c **** 
1393:.\Generated_Source\PSoC4/BLE_eventHandler.c **** Return:
1394:.\Generated_Source\PSoC4/BLE_eventHandler.c ****  None.
1395:.\Generated_Source\PSoC4/BLE_eventHandler.c **** 
1396:.\Generated_Source\PSoC4/BLE_eventHandler.c **** ******************************************************************************/
1397:.\Generated_Source\PSoC4/BLE_eventHandler.c **** void CyBle_EventHandler(uint8 eventCode, void *eventParam)
1398:.\Generated_Source\PSoC4/BLE_eventHandler.c **** {
 170              		.loc 1 1398 0
 171              		.cfi_startproc
 172              	.LVL18:
 173 0000 F0B5     		push	{r4, r5, r6, r7, lr}
 174              		.cfi_def_cfa_offset 20
 175              		.cfi_offset 4, -20
 176              		.cfi_offset 5, -16
 177              		.cfi_offset 6, -12
 178              		.cfi_offset 7, -8
 179              		.cfi_offset 14, -4
 180 0002 83B0     		sub	sp, sp, #12
 181              		.cfi_def_cfa_offset 32
 182 0004 041C     		mov	r4, r0
 183 0006 0E1C     		mov	r6, r1
1399:.\Generated_Source\PSoC4/BLE_eventHandler.c ****     cyBle_eventHandlerFlag |= CYBLE_CALLBACK;
ARM GAS  C:\Users\JOHNSO~1\AppData\Local\Temp\ccaL6Noa.s 			page 29


 184              		.loc 1 1399 0
 185 0008 744B     		ldr	r3, .L38
 186 000a 1D78     		ldrb	r5, [r3]
 187 000c 0122     		mov	r2, #1
 188 000e 2A43     		orr	r2, r5
 189 0010 1A70     		strb	r2, [r3]
1400:.\Generated_Source\PSoC4/BLE_eventHandler.c **** 
1401:.\Generated_Source\PSoC4/BLE_eventHandler.c ****     /* Common Profile event handling */
1402:.\Generated_Source\PSoC4/BLE_eventHandler.c ****     switch(eventCode)
 190              		.loc 1 1402 0
 191 0012 2828     		cmp	r0, #40
 192 0014 76D0     		beq	.L17
 193 0016 0CD8     		bhi	.L18
 194 0018 2128     		cmp	r0, #33
 195 001a 5ED0     		beq	.L19
 196 001c 04D8     		bhi	.L20
 197 001e 0128     		cmp	r0, #1
 198 0020 19D0     		beq	.L21
 199 0022 0528     		cmp	r0, #5
 200 0024 55D0     		beq	.L22
 201 0026 C7E0     		b	.L16
 202              	.L20:
 203 0028 2628     		cmp	r0, #38
 204 002a 6FD0     		beq	.L23
 205 002c 2728     		cmp	r0, #39
 206 002e 65D0     		beq	.L24
 207 0030 C2E0     		b	.L16
 208              	.L18:
 209 0032 4328     		cmp	r0, #67
 210 0034 00D1     		bne	.LCB194
 211 0036 AEE0     		b	.L25	@long jump
 212              	.LCB194:
 213 0038 06D8     		bhi	.L26
 214 003a 4128     		cmp	r0, #65
 215 003c 00D1     		bne	.LCB198
 216 003e 99E0     		b	.L27	@long jump
 217              	.LCB198:
 218 0040 4228     		cmp	r0, #66
 219 0042 00D1     		bne	.LCB200
 220 0044 A4E0     		b	.L28	@long jump
 221              	.LCB200:
 222 0046 B7E0     		b	.L16
 223              	.L26:
 224 0048 4C28     		cmp	r0, #76
 225 004a 00D1     		bne	.LCB206
 226 004c ABE0     		b	.L29	@long jump
 227              	.LCB206:
 228 004e FA28     		cmp	r0, #250
 229 0050 00D1     		bne	.LCB208
 230 0052 ACE0     		b	.L30	@long jump
 231              	.LCB208:
 232 0054 B0E0     		b	.L16
 233              	.L21:
 234              	.LBB3:
1403:.\Generated_Source\PSoC4/BLE_eventHandler.c ****     {
1404:.\Generated_Source\PSoC4/BLE_eventHandler.c ****         /**********************************************************
1405:.\Generated_Source\PSoC4/BLE_eventHandler.c ****         ##General events
ARM GAS  C:\Users\JOHNSO~1\AppData\Local\Temp\ccaL6Noa.s 			page 30


1406:.\Generated_Source\PSoC4/BLE_eventHandler.c ****         ***********************************************************/
1407:.\Generated_Source\PSoC4/BLE_eventHandler.c ****         case CYBLE_EVT_STACK_ON:
1408:.\Generated_Source\PSoC4/BLE_eventHandler.c ****         #if(CYBLE_MODE_PROFILE)
1409:.\Generated_Source\PSoC4/BLE_eventHandler.c ****         {
1410:.\Generated_Source\PSoC4/BLE_eventHandler.c ****             CYBLE_BLESS_PWR_IN_DB_T bleSsPowerLevel;
1411:.\Generated_Source\PSoC4/BLE_eventHandler.c ****             
1412:.\Generated_Source\PSoC4/BLE_eventHandler.c ****             /* Set Tx Power Level for advertising and connection channels */
1413:.\Generated_Source\PSoC4/BLE_eventHandler.c ****             bleSsPowerLevel.blePwrLevelInDbm = CYBLE_TX_POWER_LEVEL_ADV;
 235              		.loc 1 1413 0
 236 0056 01AD     		add	r5, sp, #4
 237 0058 0727     		mov	r7, #7
 238 005a 2F70     		strb	r7, [r5]
1414:.\Generated_Source\PSoC4/BLE_eventHandler.c ****             bleSsPowerLevel.bleSsChId = CYBLE_LL_ADV_CH_TYPE;
 239              		.loc 1 1414 0
 240 005c 0023     		mov	r3, #0
 241 005e 6B70     		strb	r3, [r5, #1]
1415:.\Generated_Source\PSoC4/BLE_eventHandler.c ****             (void) CyBle_SetTxPowerLevel (&bleSsPowerLevel);
 242              		.loc 1 1415 0
 243 0060 281C     		mov	r0, r5
 244              	.LVL19:
 245 0062 FFF7FEFF 		bl	CyBle_SetTxPowerLevel
 246              	.LVL20:
1416:.\Generated_Source\PSoC4/BLE_eventHandler.c ****             bleSsPowerLevel.blePwrLevelInDbm = CYBLE_TX_POWER_LEVEL_CONN;
 247              		.loc 1 1416 0
 248 0066 2F70     		strb	r7, [r5]
1417:.\Generated_Source\PSoC4/BLE_eventHandler.c ****             bleSsPowerLevel.bleSsChId = CYBLE_LL_CONN_CH_TYPE;
 249              		.loc 1 1417 0
 250 0068 0123     		mov	r3, #1
 251 006a 6B70     		strb	r3, [r5, #1]
1418:.\Generated_Source\PSoC4/BLE_eventHandler.c ****             (void) CyBle_SetTxPowerLevel (&bleSsPowerLevel);
 252              		.loc 1 1418 0
 253 006c 281C     		mov	r0, r5
 254 006e FFF7FEFF 		bl	CyBle_SetTxPowerLevel
 255              	.LVL21:
 256              	.LBE3:
1419:.\Generated_Source\PSoC4/BLE_eventHandler.c ****         }
1420:.\Generated_Source\PSoC4/BLE_eventHandler.c ****         #endif /* CYBLE_MODE_PROFILE */
1421:.\Generated_Source\PSoC4/BLE_eventHandler.c ****         #if (CYBLE_GATT_ROLE_SERVER || CYBLE_GATT_ROLE_CLIENT)
1422:.\Generated_Source\PSoC4/BLE_eventHandler.c ****             /* Set device Address  */
1423:.\Generated_Source\PSoC4/BLE_eventHandler.c ****             if(CyBle_IsDeviceAddressValid(cyBle_sflashDeviceAddress) != 0u)
 257              		.loc 1 1423 0
 258 0072 5B4B     		ldr	r3, .L38+4
 259 0074 1D68     		ldr	r5, [r3]
 260 0076 281C     		mov	r0, r5
 261 0078 FFF7FEFF 		bl	CyBle_IsDeviceAddressValid
 262              	.LVL22:
 263 007c 0028     		cmp	r0, #0
 264 007e 0CD0     		beq	.L31
1424:.\Generated_Source\PSoC4/BLE_eventHandler.c ****             {
1425:.\Generated_Source\PSoC4/BLE_eventHandler.c ****                 (void) CyBle_SetDeviceAddress(cyBle_sflashDeviceAddress);
 265              		.loc 1 1425 0
 266 0080 281C     		mov	r0, r5
 267 0082 FFF7FEFF 		bl	CyBle_SetDeviceAddress
 268              	.LVL23:
1426:.\Generated_Source\PSoC4/BLE_eventHandler.c ****                 #if(CYBLE_GAP_ROLE_PERIPHERAL || CYBLE_GAP_ROLE_BROADCASTER)
1427:.\Generated_Source\PSoC4/BLE_eventHandler.c ****                     CyBle_ChangeAdDeviceAddress(cyBle_sflashDeviceAddress, 0u);
 269              		.loc 1 1427 0
ARM GAS  C:\Users\JOHNSO~1\AppData\Local\Temp\ccaL6Noa.s 			page 31


 270 0086 564D     		ldr	r5, .L38+4
 271 0088 2868     		ldr	r0, [r5]
 272 008a 0021     		mov	r1, #0
 273 008c FFF7FEFF 		bl	CyBle_ChangeAdDeviceAddress
 274              	.LVL24:
1428:.\Generated_Source\PSoC4/BLE_eventHandler.c ****                     CyBle_ChangeAdDeviceAddress(cyBle_sflashDeviceAddress, 1u);
 275              		.loc 1 1428 0
 276 0090 2868     		ldr	r0, [r5]
 277 0092 0121     		mov	r1, #1
 278 0094 FFF7FEFF 		bl	CyBle_ChangeAdDeviceAddress
 279              	.LVL25:
 280 0098 14E0     		b	.L32
 281              	.L31:
1429:.\Generated_Source\PSoC4/BLE_eventHandler.c ****                 #endif /* CYBLE_GAP_ROLE_PERIPHERAL || CYBLE_GAP_ROLE_BROADCASTER */    
1430:.\Generated_Source\PSoC4/BLE_eventHandler.c ****             }
1431:.\Generated_Source\PSoC4/BLE_eventHandler.c ****             else
1432:.\Generated_Source\PSoC4/BLE_eventHandler.c ****             {
1433:.\Generated_Source\PSoC4/BLE_eventHandler.c ****             #if (SILICON_GENERATED_DEVICE_ADDRESS != 0u)
1434:.\Generated_Source\PSoC4/BLE_eventHandler.c ****                 cyBle_deviceAddress.bdAddr[0] = CYBLE_SFLASH_DIE_X_REG;
 282              		.loc 1 1434 0
 283 009a 524B     		ldr	r3, .L38+8
 284 009c 1B78     		ldrb	r3, [r3]
 285 009e 524D     		ldr	r5, .L38+12
 286 00a0 2B70     		strb	r3, [r5]
1435:.\Generated_Source\PSoC4/BLE_eventHandler.c ****                 cyBle_deviceAddress.bdAddr[1] = CYBLE_SFLASH_DIE_Y_REG;
 287              		.loc 1 1435 0
 288 00a2 524B     		ldr	r3, .L38+16
 289 00a4 1B78     		ldrb	r3, [r3]
 290 00a6 6B70     		strb	r3, [r5, #1]
1436:.\Generated_Source\PSoC4/BLE_eventHandler.c ****                 cyBle_deviceAddress.bdAddr[2] = CYBLE_SFLASH_DIE_WAFER_REG;
 291              		.loc 1 1436 0
 292 00a8 514B     		ldr	r3, .L38+20
 293 00aa 1B78     		ldrb	r3, [r3]
 294 00ac AB70     		strb	r3, [r5, #2]
1437:.\Generated_Source\PSoC4/BLE_eventHandler.c ****             #endif /* SILICON_GENERATED_DEVICE_ADDRESS != 0u */
1438:.\Generated_Source\PSoC4/BLE_eventHandler.c ****                 (void) CyBle_SetDeviceAddress(&cyBle_deviceAddress);
 295              		.loc 1 1438 0
 296 00ae 281C     		mov	r0, r5
 297 00b0 FFF7FEFF 		bl	CyBle_SetDeviceAddress
 298              	.LVL26:
1439:.\Generated_Source\PSoC4/BLE_eventHandler.c ****                 #if(CYBLE_GAP_ROLE_PERIPHERAL || CYBLE_GAP_ROLE_BROADCASTER)
1440:.\Generated_Source\PSoC4/BLE_eventHandler.c ****                     CyBle_ChangeAdDeviceAddress(&cyBle_deviceAddress, 0u);
 299              		.loc 1 1440 0
 300 00b4 281C     		mov	r0, r5
 301 00b6 0021     		mov	r1, #0
 302 00b8 FFF7FEFF 		bl	CyBle_ChangeAdDeviceAddress
 303              	.LVL27:
1441:.\Generated_Source\PSoC4/BLE_eventHandler.c ****                     CyBle_ChangeAdDeviceAddress(&cyBle_deviceAddress, 1u);
 304              		.loc 1 1441 0
 305 00bc 281C     		mov	r0, r5
 306 00be 0121     		mov	r1, #1
 307 00c0 FFF7FEFF 		bl	CyBle_ChangeAdDeviceAddress
 308              	.LVL28:
 309              	.L32:
1442:.\Generated_Source\PSoC4/BLE_eventHandler.c ****                 #endif /* CYBLE_GAP_ROLE_PERIPHERAL || CYBLE_GAP_ROLE_BROADCASTER */    
1443:.\Generated_Source\PSoC4/BLE_eventHandler.c ****             }
1444:.\Generated_Source\PSoC4/BLE_eventHandler.c ****             /* Set device IO Capability  */
ARM GAS  C:\Users\JOHNSO~1\AppData\Local\Temp\ccaL6Noa.s 			page 32


1445:.\Generated_Source\PSoC4/BLE_eventHandler.c ****             (void) CyBle_GapSetIoCap(CYBLE_IO_CAPABILITY);    
 310              		.loc 1 1445 0
 311 00c4 0020     		mov	r0, #0
 312 00c6 FFF7FEFF 		bl	CyBle_GapSetIoCap
 313              	.LVL29:
1446:.\Generated_Source\PSoC4/BLE_eventHandler.c ****         #endif /* CYBLE_GATT_ROLE_SERVER || CYBLE_GATT_ROLE_CLIENT */
1447:.\Generated_Source\PSoC4/BLE_eventHandler.c ****             CyBle_SetState(CYBLE_STATE_DISCONNECTED);
 314              		.loc 1 1447 0
 315 00ca 0422     		mov	r2, #4
 316 00cc 494B     		ldr	r3, .L38+24
 317 00ce 1A70     		strb	r2, [r3]
1448:.\Generated_Source\PSoC4/BLE_eventHandler.c ****             break;
 318              		.loc 1 1448 0
 319 00d0 72E0     		b	.L16
 320              	.LVL30:
 321              	.L22:
1449:.\Generated_Source\PSoC4/BLE_eventHandler.c ****         case CYBLE_EVT_TIMEOUT:
1450:.\Generated_Source\PSoC4/BLE_eventHandler.c ****             CyBle_TimeOutEventHandler((CYBLE_TO_REASON_CODE_T *)eventParam);
1451:.\Generated_Source\PSoC4/BLE_eventHandler.c ****             break;
1452:.\Generated_Source\PSoC4/BLE_eventHandler.c ****     	case CYBLE_EVT_STACK_BUSY_STATUS:
1453:.\Generated_Source\PSoC4/BLE_eventHandler.c ****             cyBle_busyStatus = *(uint8 *)eventParam;
 322              		.loc 1 1453 0
 323 00d2 0A78     		ldrb	r2, [r1]
 324 00d4 484B     		ldr	r3, .L38+28
 325 00d6 1A70     		strb	r2, [r3]
1454:.\Generated_Source\PSoC4/BLE_eventHandler.c ****             break;
 326              		.loc 1 1454 0
 327 00d8 6EE0     		b	.L16
 328              	.L19:
1455:.\Generated_Source\PSoC4/BLE_eventHandler.c **** 
1456:.\Generated_Source\PSoC4/BLE_eventHandler.c ****         /**********************************************************
1457:.\Generated_Source\PSoC4/BLE_eventHandler.c ****         ##GAP events
1458:.\Generated_Source\PSoC4/BLE_eventHandler.c ****         ***********************************************************/
1459:.\Generated_Source\PSoC4/BLE_eventHandler.c ****         case CYBLE_EVT_GAP_AUTH_REQ:
1460:.\Generated_Source\PSoC4/BLE_eventHandler.c ****         #if(CYBLE_MODE_PROFILE)
1461:.\Generated_Source\PSoC4/BLE_eventHandler.c ****             if(0u == (cyBle_eventHandlerFlag & CYBLE_DISABLE_AUTOMATIC_AUTH))
 329              		.loc 1 1461 0
 330 00da 404B     		ldr	r3, .L38
 331 00dc 1B78     		ldrb	r3, [r3]
 332 00de 9906     		lsl	r1, r3, #26
 333 00e0 6AD4     		bmi	.L16
 334              	.LVL31:
1462:.\Generated_Source\PSoC4/BLE_eventHandler.c ****             {
1463:.\Generated_Source\PSoC4/BLE_eventHandler.c ****                 /* If the responding device does not support pairing then the responding 
1464:.\Generated_Source\PSoC4/BLE_eventHandler.c ****                    device shall respond using the Pairing Failed message with the error 
1465:.\Generated_Source\PSoC4/BLE_eventHandler.c ****                    code "Pairing Not Supported" otherwise it responds with a Pairing 
1466:.\Generated_Source\PSoC4/BLE_eventHandler.c ****                    Response message.
1467:.\Generated_Source\PSoC4/BLE_eventHandler.c ****                 */
1468:.\Generated_Source\PSoC4/BLE_eventHandler.c ****                 if(cyBle_authInfo.security == (CYBLE_GAP_SEC_MODE_1 | CYBLE_GAP_SEC_LEVEL_1))
 335              		.loc 1 1468 0
 336 00e2 464B     		ldr	r3, .L38+32
 337 00e4 1B78     		ldrb	r3, [r3]
 338 00e6 102B     		cmp	r3, #16
 339 00e8 02D1     		bne	.L33
1469:.\Generated_Source\PSoC4/BLE_eventHandler.c ****                 {
1470:.\Generated_Source\PSoC4/BLE_eventHandler.c ****                     cyBle_authInfo.authErr = CYBLE_GAP_AUTH_ERROR_PAIRING_NOT_SUPPORTED;
 340              		.loc 1 1470 0
ARM GAS  C:\Users\JOHNSO~1\AppData\Local\Temp\ccaL6Noa.s 			page 33


 341 00ea 0522     		mov	r2, #5
 342 00ec 434B     		ldr	r3, .L38+32
 343 00ee DA70     		strb	r2, [r3, #3]
 344              	.L33:
1471:.\Generated_Source\PSoC4/BLE_eventHandler.c ****                 }    
1472:.\Generated_Source\PSoC4/BLE_eventHandler.c ****             #if(CYBLE_GAP_ROLE_PERIPHERAL)
1473:.\Generated_Source\PSoC4/BLE_eventHandler.c ****                 (void)CyBle_GappAuthReqReply(cyBle_connHandle.bdHandle, &cyBle_authInfo);
 345              		.loc 1 1473 0
 346 00f0 434B     		ldr	r3, .L38+36
 347 00f2 1878     		ldrb	r0, [r3]
 348              	.LVL32:
 349 00f4 4149     		ldr	r1, .L38+32
 350 00f6 FFF7FEFF 		bl	CyBle_GappAuthReqReply
 351              	.LVL33:
 352 00fa 5DE0     		b	.L16
 353              	.LVL34:
 354              	.L24:
1474:.\Generated_Source\PSoC4/BLE_eventHandler.c ****             #endif /* CYBLE_GAP_ROLE_PERIPHERAL */
1475:.\Generated_Source\PSoC4/BLE_eventHandler.c ****             #if (CYBLE_GAP_ROLE_CENTRAL)
1476:.\Generated_Source\PSoC4/BLE_eventHandler.c ****                 (void)CyBle_GapAuthReq(cyBle_connHandle.bdHandle, &cyBle_authInfo);
1477:.\Generated_Source\PSoC4/BLE_eventHandler.c ****             #endif /* CYBLE_GAP_ROLE_CENTRAL */
1478:.\Generated_Source\PSoC4/BLE_eventHandler.c ****             }
1479:.\Generated_Source\PSoC4/BLE_eventHandler.c ****         #endif /* CYBLE_MODE_PROFILE */
1480:.\Generated_Source\PSoC4/BLE_eventHandler.c ****             break;
1481:.\Generated_Source\PSoC4/BLE_eventHandler.c **** 
1482:.\Generated_Source\PSoC4/BLE_eventHandler.c ****         case CYBLE_EVT_GAP_CONNECTION_UPDATE_COMPLETE:
1483:.\Generated_Source\PSoC4/BLE_eventHandler.c ****             CyBle_GapConnUpdateCompleteEventHandler((const CYBLE_GAP_CONN_PARAM_UPDATED_IN_CONTROLL
1484:.\Generated_Source\PSoC4/BLE_eventHandler.c ****             break;
1485:.\Generated_Source\PSoC4/BLE_eventHandler.c ****             
1486:.\Generated_Source\PSoC4/BLE_eventHandler.c ****         case CYBLE_EVT_GAP_DEVICE_CONNECTED:
1487:.\Generated_Source\PSoC4/BLE_eventHandler.c ****             CyBle_GapConnUpdateCompleteEventHandler((const CYBLE_GAP_CONN_PARAM_UPDATED_IN_CONTROLL
1488:.\Generated_Source\PSoC4/BLE_eventHandler.c ****             #if(CYBLE_GAP_ROLE_CENTRAL)
1489:.\Generated_Source\PSoC4/BLE_eventHandler.c ****                 if(cyBle_connectingTimeout != 0u)
1490:.\Generated_Source\PSoC4/BLE_eventHandler.c ****                 {
1491:.\Generated_Source\PSoC4/BLE_eventHandler.c ****                    (void)CyBle_StopTimer();
1492:.\Generated_Source\PSoC4/BLE_eventHandler.c ****                 }
1493:.\Generated_Source\PSoC4/BLE_eventHandler.c ****             #endif /* CYBLE_GAP_ROLE_CENTRAL */
1494:.\Generated_Source\PSoC4/BLE_eventHandler.c ****             CyBle_SetState(CYBLE_STATE_CONNECTED);
 355              		.loc 1 1494 0
 356 00fc 0222     		mov	r2, #2
 357 00fe 3D4B     		ldr	r3, .L38+24
 358 0100 1A70     		strb	r2, [r3]
1495:.\Generated_Source\PSoC4/BLE_eventHandler.c ****             break;
 359              		.loc 1 1495 0
 360 0102 59E0     		b	.L16
 361              	.L17:
1496:.\Generated_Source\PSoC4/BLE_eventHandler.c **** 
1497:.\Generated_Source\PSoC4/BLE_eventHandler.c ****         case CYBLE_EVT_GAP_DEVICE_DISCONNECTED:
1498:.\Generated_Source\PSoC4/BLE_eventHandler.c ****             CyBle_SetState(CYBLE_STATE_DISCONNECTED);
 362              		.loc 1 1498 0
 363 0104 0422     		mov	r2, #4
 364 0106 3B4B     		ldr	r3, .L38+24
 365 0108 1A70     		strb	r2, [r3]
1499:.\Generated_Source\PSoC4/BLE_eventHandler.c ****             break;
 366              		.loc 1 1499 0
 367 010a 55E0     		b	.L16
 368              	.L23:
ARM GAS  C:\Users\JOHNSO~1\AppData\Local\Temp\ccaL6Noa.s 			page 34


1500:.\Generated_Source\PSoC4/BLE_eventHandler.c ****         #if(CYBLE_GAP_ROLE_PERIPHERAL || CYBLE_GAP_ROLE_BROADCASTER)
1501:.\Generated_Source\PSoC4/BLE_eventHandler.c ****             
1502:.\Generated_Source\PSoC4/BLE_eventHandler.c ****         case CYBLE_EVT_GAPP_ADVERTISEMENT_START_STOP:
1503:.\Generated_Source\PSoC4/BLE_eventHandler.c ****             #ifdef CYBLE_CPS_SERVER
1504:.\Generated_Source\PSoC4/BLE_eventHandler.c ****                 #if(CYBLE_GAP_ROLE_BROADCASTER)
1505:.\Generated_Source\PSoC4/BLE_eventHandler.c ****                     CyBle_CpssAdvertisementStartStopEventHandler();
1506:.\Generated_Source\PSoC4/BLE_eventHandler.c ****                 #endif /* CYBLE_GAP_ROLE_BROADCASTER */
1507:.\Generated_Source\PSoC4/BLE_eventHandler.c ****             #endif /* CYBLE_CPS_SERVER */
1508:.\Generated_Source\PSoC4/BLE_eventHandler.c ****             
1509:.\Generated_Source\PSoC4/BLE_eventHandler.c ****             if((CYBLE_STATE_CONNECTED != CyBle_GetState()) && ((cyBle_eventHandlerFlag & CYBLE_CALL
 369              		.loc 1 1509 0
 370 010c 394B     		ldr	r3, .L38+24
 371 010e 1B78     		ldrb	r3, [r3]
 372 0110 022B     		cmp	r3, #2
 373 0112 51D0     		beq	.L16
 374              		.loc 1 1509 0 is_stmt 0 discriminator 1
 375 0114 314A     		ldr	r2, .L38
 376 0116 1278     		ldrb	r2, [r2]
 377 0118 D107     		lsl	r1, r2, #31
 378 011a 4DD5     		bpl	.L16
 379              	.LVL35:
1510:.\Generated_Source\PSoC4/BLE_eventHandler.c ****             {
1511:.\Generated_Source\PSoC4/BLE_eventHandler.c ****                 /* After CyBle_GappStartAdvertisement first event indicates that advertising has be
1512:.\Generated_Source\PSoC4/BLE_eventHandler.c ****                 if(0u != (cyBle_eventHandlerFlag & CYBLE_START_FLAG))
 380              		.loc 1 1512 0 is_stmt 1
 381 011c 2F4A     		ldr	r2, .L38
 382 011e 1278     		ldrb	r2, [r2]
 383 0120 5107     		lsl	r1, r2, #29
 384 0122 08D5     		bpl	.L34
1513:.\Generated_Source\PSoC4/BLE_eventHandler.c ****                 {
1514:.\Generated_Source\PSoC4/BLE_eventHandler.c ****                     CyBle_SetState(CYBLE_STATE_ADVERTISING);
 385              		.loc 1 1514 0
 386 0124 0322     		mov	r2, #3
 387 0126 334B     		ldr	r3, .L38+24
 388 0128 1A70     		strb	r2, [r3]
1515:.\Generated_Source\PSoC4/BLE_eventHandler.c ****                     cyBle_eventHandlerFlag &= (uint8)~CYBLE_START_FLAG;
 389              		.loc 1 1515 0
 390 012a 2C4B     		ldr	r3, .L38
 391 012c 1A78     		ldrb	r2, [r3]
 392 012e 0421     		mov	r1, #4
 393 0130 8A43     		bic	r2, r1
 394 0132 1A70     		strb	r2, [r3]
 395 0134 40E0     		b	.L16
 396              	.L34:
1516:.\Generated_Source\PSoC4/BLE_eventHandler.c ****                 }
1517:.\Generated_Source\PSoC4/BLE_eventHandler.c ****                 /* When application initiated stop advertisement */
1518:.\Generated_Source\PSoC4/BLE_eventHandler.c ****                 else if(0u != (cyBle_eventHandlerFlag & CYBLE_STOP_FLAG))
 397              		.loc 1 1518 0
 398 0136 294A     		ldr	r2, .L38
 399 0138 1278     		ldrb	r2, [r2]
 400 013a 1107     		lsl	r1, r2, #28
 401 013c 08D5     		bpl	.L35
1519:.\Generated_Source\PSoC4/BLE_eventHandler.c ****                 {
1520:.\Generated_Source\PSoC4/BLE_eventHandler.c ****                     CyBle_SetState(CYBLE_STATE_DISCONNECTED);  
 402              		.loc 1 1520 0
 403 013e 0422     		mov	r2, #4
 404 0140 2C4B     		ldr	r3, .L38+24
ARM GAS  C:\Users\JOHNSO~1\AppData\Local\Temp\ccaL6Noa.s 			page 35


 405 0142 1A70     		strb	r2, [r3]
1521:.\Generated_Source\PSoC4/BLE_eventHandler.c ****                     cyBle_eventHandlerFlag &= (uint8)~CYBLE_STOP_FLAG;
 406              		.loc 1 1521 0
 407 0144 254B     		ldr	r3, .L38
 408 0146 1A78     		ldrb	r2, [r3]
 409 0148 0821     		mov	r1, #8
 410 014a 8A43     		bic	r2, r1
 411 014c 1A70     		strb	r2, [r3]
 412 014e 33E0     		b	.L16
 413              	.L35:
1522:.\Generated_Source\PSoC4/BLE_eventHandler.c ****                 }
1523:.\Generated_Source\PSoC4/BLE_eventHandler.c ****                 else /* Following event indicates that advertising has been stopped */
1524:.\Generated_Source\PSoC4/BLE_eventHandler.c ****                 {
1525:.\Generated_Source\PSoC4/BLE_eventHandler.c ****                     if(CYBLE_STATE_ADVERTISING == CyBle_GetState())
 414              		.loc 1 1525 0
 415 0150 032B     		cmp	r3, #3
 416 0152 31D1     		bne	.L16
1526:.\Generated_Source\PSoC4/BLE_eventHandler.c ****                     {
1527:.\Generated_Source\PSoC4/BLE_eventHandler.c ****                         CyBle_SetState(CYBLE_STATE_DISCONNECTED);
 417              		.loc 1 1527 0
 418 0154 0422     		mov	r2, #4
 419 0156 274B     		ldr	r3, .L38+24
 420 0158 1A70     		strb	r2, [r3]
1528:.\Generated_Source\PSoC4/BLE_eventHandler.c ****                     #if ((CYBLE_SLOW_ADV_ENABLED != 0u) && (CYBLE_FAST_ADV_TIMEOUT != 0u))
1529:.\Generated_Source\PSoC4/BLE_eventHandler.c ****                         if(cyBle_advertisingIntervalType == CYBLE_ADVERTISING_FAST)
 421              		.loc 1 1529 0
 422 015a 2A4B     		ldr	r3, .L38+40
 423 015c 1B78     		ldrb	r3, [r3]
 424 015e 002B     		cmp	r3, #0
 425 0160 2AD1     		bne	.L16
1530:.\Generated_Source\PSoC4/BLE_eventHandler.c ****                         {
1531:.\Generated_Source\PSoC4/BLE_eventHandler.c ****                             /* When fast advertising time out occur: Start slow advertising */
1532:.\Generated_Source\PSoC4/BLE_eventHandler.c ****                             if(CYBLE_ERROR_OK == CyBle_GappStartAdvertisement(CYBLE_ADVERTISING_SLO
 426              		.loc 1 1532 0
 427 0162 0120     		mov	r0, #1
 428              	.LVL36:
 429 0164 FFF7FEFF 		bl	CyBle_GappStartAdvertisement
 430              	.LVL37:
 431 0168 0028     		cmp	r0, #0
 432 016a 25D1     		bne	.L16
1533:.\Generated_Source\PSoC4/BLE_eventHandler.c ****                             {
1534:.\Generated_Source\PSoC4/BLE_eventHandler.c ****                                 CyBle_SetState(CYBLE_STATE_ADVERTISING);
 433              		.loc 1 1534 0
 434 016c 0322     		mov	r2, #3
 435 016e 214B     		ldr	r3, .L38+24
 436 0170 1A70     		strb	r2, [r3]
 437 0172 21E0     		b	.L16
 438              	.LVL38:
 439              	.L27:
1535:.\Generated_Source\PSoC4/BLE_eventHandler.c ****                             }
1536:.\Generated_Source\PSoC4/BLE_eventHandler.c ****                         }
1537:.\Generated_Source\PSoC4/BLE_eventHandler.c ****                     #endif /* CYBLE_SLOW_ADV_ENABLED */
1538:.\Generated_Source\PSoC4/BLE_eventHandler.c ****                     }
1539:.\Generated_Source\PSoC4/BLE_eventHandler.c ****                 }
1540:.\Generated_Source\PSoC4/BLE_eventHandler.c ****             }
1541:.\Generated_Source\PSoC4/BLE_eventHandler.c ****             break;
1542:.\Generated_Source\PSoC4/BLE_eventHandler.c ****         #endif /* CYBLE_GAP_ROLE_PERIPHERAL || CYBLE_GAP_ROLE_BROADCASTER */
ARM GAS  C:\Users\JOHNSO~1\AppData\Local\Temp\ccaL6Noa.s 			page 36


1543:.\Generated_Source\PSoC4/BLE_eventHandler.c ****         
1544:.\Generated_Source\PSoC4/BLE_eventHandler.c ****         #if(CYBLE_GAP_ROLE_CENTRAL || CYBLE_GAP_ROLE_OBSERVER)    
1545:.\Generated_Source\PSoC4/BLE_eventHandler.c ****         case CYBLE_EVT_GAPC_SCAN_START_STOP:
1546:.\Generated_Source\PSoC4/BLE_eventHandler.c ****             #ifdef CYBLE_CPS_CLIENT
1547:.\Generated_Source\PSoC4/BLE_eventHandler.c ****                 CyBle_CpscScanStartStopEventHandler();
1548:.\Generated_Source\PSoC4/BLE_eventHandler.c ****             #endif /* CYBLE_CPS_CLIENT */
1549:.\Generated_Source\PSoC4/BLE_eventHandler.c ****             
1550:.\Generated_Source\PSoC4/BLE_eventHandler.c ****             if((CYBLE_STATE_CONNECTED != CyBle_GetState()) && ((cyBle_eventHandlerFlag & CYBLE_CALL
1551:.\Generated_Source\PSoC4/BLE_eventHandler.c ****             {
1552:.\Generated_Source\PSoC4/BLE_eventHandler.c ****                 /* After CyBle_GapcStartScan first event indicates that scanning has been started *
1553:.\Generated_Source\PSoC4/BLE_eventHandler.c ****                 if(0u != (cyBle_eventHandlerFlag & CYBLE_START_FLAG))
1554:.\Generated_Source\PSoC4/BLE_eventHandler.c ****                 {
1555:.\Generated_Source\PSoC4/BLE_eventHandler.c ****                     CyBle_SetState(CYBLE_STATE_SCANNING);
1556:.\Generated_Source\PSoC4/BLE_eventHandler.c ****                     cyBle_eventHandlerFlag &= (uint8)~CYBLE_START_FLAG;
1557:.\Generated_Source\PSoC4/BLE_eventHandler.c ****                 }
1558:.\Generated_Source\PSoC4/BLE_eventHandler.c ****                 /* When application initiated stop scanning */
1559:.\Generated_Source\PSoC4/BLE_eventHandler.c ****                 else if(0u != (cyBle_eventHandlerFlag & CYBLE_STOP_FLAG))
1560:.\Generated_Source\PSoC4/BLE_eventHandler.c ****                 {
1561:.\Generated_Source\PSoC4/BLE_eventHandler.c ****                     CyBle_SetState(CYBLE_STATE_DISCONNECTED);  
1562:.\Generated_Source\PSoC4/BLE_eventHandler.c ****                     cyBle_eventHandlerFlag &= (uint8)~CYBLE_STOP_FLAG;
1563:.\Generated_Source\PSoC4/BLE_eventHandler.c ****                 }
1564:.\Generated_Source\PSoC4/BLE_eventHandler.c ****                 else /* Following event indicates that scanning has been stopped by stack */
1565:.\Generated_Source\PSoC4/BLE_eventHandler.c ****                 {
1566:.\Generated_Source\PSoC4/BLE_eventHandler.c ****                     if(CYBLE_STATE_SCANNING == CyBle_GetState())
1567:.\Generated_Source\PSoC4/BLE_eventHandler.c ****                     {
1568:.\Generated_Source\PSoC4/BLE_eventHandler.c ****                         CyBle_SetState(CYBLE_STATE_DISCONNECTED);  
1569:.\Generated_Source\PSoC4/BLE_eventHandler.c ****                     #if ((CYBLE_SLOW_SCAN_ENABLED != 0u) && (CYBLE_FAST_SCAN_TIMEOUT != 0u))
1570:.\Generated_Source\PSoC4/BLE_eventHandler.c ****                         if(cyBle_scanningIntervalType == CYBLE_SCANNING_FAST)
1571:.\Generated_Source\PSoC4/BLE_eventHandler.c ****                         {
1572:.\Generated_Source\PSoC4/BLE_eventHandler.c ****                             /* When fast scanning time out occur: Start slow scanning */
1573:.\Generated_Source\PSoC4/BLE_eventHandler.c ****                             if(CYBLE_ERROR_OK == CyBle_GapcStartScan(CYBLE_SCANNING_SLOW))
1574:.\Generated_Source\PSoC4/BLE_eventHandler.c ****                             {
1575:.\Generated_Source\PSoC4/BLE_eventHandler.c ****                                 CyBle_SetState(CYBLE_STATE_SCANNING);
1576:.\Generated_Source\PSoC4/BLE_eventHandler.c ****                             }
1577:.\Generated_Source\PSoC4/BLE_eventHandler.c ****                         }
1578:.\Generated_Source\PSoC4/BLE_eventHandler.c ****                     #endif /* CYBLE_SLOW_SCAN_ENABLED */
1579:.\Generated_Source\PSoC4/BLE_eventHandler.c ****                     }
1580:.\Generated_Source\PSoC4/BLE_eventHandler.c ****                 }
1581:.\Generated_Source\PSoC4/BLE_eventHandler.c ****             }
1582:.\Generated_Source\PSoC4/BLE_eventHandler.c ****             break;
1583:.\Generated_Source\PSoC4/BLE_eventHandler.c ****         #endif /* CYBLE_GAP_ROLE_CENTRAL || CYBLE_GAP_ROLE_OBSERVER */
1584:.\Generated_Source\PSoC4/BLE_eventHandler.c **** 
1585:.\Generated_Source\PSoC4/BLE_eventHandler.c ****         /**********************************************************
1586:.\Generated_Source\PSoC4/BLE_eventHandler.c ****         ##L2AP events 
1587:.\Generated_Source\PSoC4/BLE_eventHandler.c ****         ***********************************************************/
1588:.\Generated_Source\PSoC4/BLE_eventHandler.c ****         case CYBLE_EVT_L2CAP_CONN_PARAM_UPDATE_RSP:
1589:.\Generated_Source\PSoC4/BLE_eventHandler.c ****             CyBle_L2Cap_ConnParamUpdateRspEventHandler(*(uint16 *)eventParam);
1590:.\Generated_Source\PSoC4/BLE_eventHandler.c ****             break;
1591:.\Generated_Source\PSoC4/BLE_eventHandler.c ****         
1592:.\Generated_Source\PSoC4/BLE_eventHandler.c ****         /**********************************************************
1593:.\Generated_Source\PSoC4/BLE_eventHandler.c ****         ##GATT events
1594:.\Generated_Source\PSoC4/BLE_eventHandler.c ****         ***********************************************************/        
1595:.\Generated_Source\PSoC4/BLE_eventHandler.c ****         case CYBLE_EVT_GATT_CONNECT_IND:
1596:.\Generated_Source\PSoC4/BLE_eventHandler.c ****             cyBle_connHandle = *(CYBLE_CONN_HANDLE_T *)eventParam;
 440              		.loc 1 1596 0
 441 0174 224D     		ldr	r5, .L38+36
 442 0176 281C     		mov	r0, r5
ARM GAS  C:\Users\JOHNSO~1\AppData\Local\Temp\ccaL6Noa.s 			page 37


 443              	.LVL39:
 444 0178 0222     		mov	r2, #2
 445 017a FFF7FEFF 		bl	memcpy
 446              	.LVL40:
1597:.\Generated_Source\PSoC4/BLE_eventHandler.c ****             
1598:.\Generated_Source\PSoC4/BLE_eventHandler.c ****         #if((CYBLE_GATT_ROLE_SERVER) && (CYBLE_GATT_DB_CCCD_COUNT != 0u))
1599:.\Generated_Source\PSoC4/BLE_eventHandler.c ****             /* Init CCCD values in RAM */
1600:.\Generated_Source\PSoC4/BLE_eventHandler.c ****         	(void) memcpy (cyBle_attValuesCCCD, cyBle_attValuesCCCDFlashMemory[cyBle_connHandle.bdHand
 447              		.loc 1 1600 0
 448 017e 2978     		ldrb	r1, [r5]
 449 0180 8900     		lsl	r1, r1, #2
 450 0182 214B     		ldr	r3, .L38+44
 451 0184 5918     		add	r1, r3, r1
 452 0186 2148     		ldr	r0, .L38+48
 453 0188 0422     		mov	r2, #4
 454 018a FFF7FEFF 		bl	memcpy
 455              	.LVL41:
1601:.\Generated_Source\PSoC4/BLE_eventHandler.c ****                             CYBLE_GATT_DB_CCCD_COUNT);
1602:.\Generated_Source\PSoC4/BLE_eventHandler.c ****         #endif /* CYBLE_GATT_ROLE_SERVER */
1603:.\Generated_Source\PSoC4/BLE_eventHandler.c ****         
1604:.\Generated_Source\PSoC4/BLE_eventHandler.c ****         #if (CYBLE_GATT_ROLE_CLIENT)
1605:.\Generated_Source\PSoC4/BLE_eventHandler.c ****             CyBle_SetClientState(CYBLE_CLIENT_STATE_CONNECTED);
1606:.\Generated_Source\PSoC4/BLE_eventHandler.c ****         #endif /* CYBLE_GATT_ROLE_CLIENT */
1607:.\Generated_Source\PSoC4/BLE_eventHandler.c ****         
1608:.\Generated_Source\PSoC4/BLE_eventHandler.c ****             CyBle_GattConnectReqHandler();
1609:.\Generated_Source\PSoC4/BLE_eventHandler.c ****             break;
 456              		.loc 1 1609 0
 457 018e 13E0     		b	.L16
 458              	.LVL42:
 459              	.L28:
1610:.\Generated_Source\PSoC4/BLE_eventHandler.c **** 
1611:.\Generated_Source\PSoC4/BLE_eventHandler.c ****         case CYBLE_EVT_GATT_DISCONNECT_IND:
1612:.\Generated_Source\PSoC4/BLE_eventHandler.c ****             CyBle_GattDisconnectEventHandler();
 460              		.loc 1 1612 0
 461 0190 FFF7FEFF 		bl	CyBle_GattDisconnectEventHandler
 462              	.LVL43:
1613:.\Generated_Source\PSoC4/BLE_eventHandler.c ****             break;
 463              		.loc 1 1613 0
 464 0194 10E0     		b	.L16
 465              	.LVL44:
 466              	.L25:
 467              	.LBB4:
1614:.\Generated_Source\PSoC4/BLE_eventHandler.c **** 
1615:.\Generated_Source\PSoC4/BLE_eventHandler.c ****     #if((CYBLE_GATT_ROLE_SERVER) || (CYBLE_GATT_ROLE_CLIENT))
1616:.\Generated_Source\PSoC4/BLE_eventHandler.c ****         case CYBLE_EVT_GATTS_XCNHG_MTU_REQ:
1617:.\Generated_Source\PSoC4/BLE_eventHandler.c ****             {
1618:.\Generated_Source\PSoC4/BLE_eventHandler.c ****                 uint16 cyBle_mtuSize;
1619:.\Generated_Source\PSoC4/BLE_eventHandler.c ****                 if(CYBLE_GATT_MTU > ((CYBLE_GATT_XCHG_MTU_PARAM_T *)eventParam)->mtu)
 468              		.loc 1 1619 0
 469 0196 4988     		ldrh	r1, [r1, #2]
 470              	.LVL45:
 471 0198 1629     		cmp	r1, #22
 472 019a 00D9     		bls	.L36
1620:.\Generated_Source\PSoC4/BLE_eventHandler.c ****                 {
1621:.\Generated_Source\PSoC4/BLE_eventHandler.c ****                     cyBle_mtuSize = ((CYBLE_GATT_XCHG_MTU_PARAM_T *)eventParam)->mtu;
1622:.\Generated_Source\PSoC4/BLE_eventHandler.c ****                 }
1623:.\Generated_Source\PSoC4/BLE_eventHandler.c ****                 else
ARM GAS  C:\Users\JOHNSO~1\AppData\Local\Temp\ccaL6Noa.s 			page 38


1624:.\Generated_Source\PSoC4/BLE_eventHandler.c ****                 {
1625:.\Generated_Source\PSoC4/BLE_eventHandler.c ****                     cyBle_mtuSize = CYBLE_GATT_MTU;
 473              		.loc 1 1625 0
 474 019c 1721     		mov	r1, #23
 475              	.L36:
 476              	.LVL46:
1626:.\Generated_Source\PSoC4/BLE_eventHandler.c ****                 }
1627:.\Generated_Source\PSoC4/BLE_eventHandler.c ****                 (void)CyBle_GattsExchangeMtuRsp(((CYBLE_GATT_XCHG_MTU_PARAM_T *)eventParam)->connHa
 477              		.loc 1 1627 0
 478 019e 3088     		ldrh	r0, [r6]
 479              	.LVL47:
 480 01a0 FFF7FEFF 		bl	CyBle_GattsExchangeMtuRsp
 481              	.LVL48:
 482              	.LBE4:
1628:.\Generated_Source\PSoC4/BLE_eventHandler.c ****             }
1629:.\Generated_Source\PSoC4/BLE_eventHandler.c ****             break;
 483              		.loc 1 1629 0
 484 01a4 08E0     		b	.L16
 485              	.LVL49:
 486              	.L29:
1630:.\Generated_Source\PSoC4/BLE_eventHandler.c ****     #endif /* CYBLE_GATT_ROLE_SERVER || CYBLE_GATT_ROLE_CLIENT */
1631:.\Generated_Source\PSoC4/BLE_eventHandler.c ****     
1632:.\Generated_Source\PSoC4/BLE_eventHandler.c ****     #if (CYBLE_GATT_ROLE_CLIENT)
1633:.\Generated_Source\PSoC4/BLE_eventHandler.c ****         case CYBLE_EVT_GAPC_SCAN_PROGRESS_RESULT:
1634:.\Generated_Source\PSoC4/BLE_eventHandler.c ****         #ifdef CYBLE_CPS_CLIENT
1635:.\Generated_Source\PSoC4/BLE_eventHandler.c ****                 CyBle_CpscScanProcessEventHandler((CYBLE_GAPC_ADV_REPORT_T *)eventParam);
1636:.\Generated_Source\PSoC4/BLE_eventHandler.c ****         #endif /* CYBLE_CPS_CLIENT */
1637:.\Generated_Source\PSoC4/BLE_eventHandler.c ****             break;
1638:.\Generated_Source\PSoC4/BLE_eventHandler.c ****     #endif /* CYBLE_GATT_ROLE_CLIENT */
1639:.\Generated_Source\PSoC4/BLE_eventHandler.c **** 
1640:.\Generated_Source\PSoC4/BLE_eventHandler.c ****     #if(CYBLE_GATT_ROLE_SERVER)
1641:.\Generated_Source\PSoC4/BLE_eventHandler.c ****         case CYBLE_EVT_GATTS_WRITE_REQ:
1642:.\Generated_Source\PSoC4/BLE_eventHandler.c ****             CyBle_WriteReqHandler((CYBLE_GATTS_WRITE_REQ_PARAM_T *)eventParam);
 487              		.loc 1 1642 0
 488 01a6 081C     		mov	r0, r1
 489              	.LVL50:
 490 01a8 FFF7FEFF 		bl	CyBle_WriteReqHandler
 491              	.LVL51:
1643:.\Generated_Source\PSoC4/BLE_eventHandler.c ****             break;
 492              		.loc 1 1643 0
 493 01ac 04E0     		b	.L16
 494              	.LVL52:
 495              	.L30:
1644:.\Generated_Source\PSoC4/BLE_eventHandler.c **** 
1645:.\Generated_Source\PSoC4/BLE_eventHandler.c ****         case CYBLE_EVT_GATTS_WRITE_CMD_REQ:
1646:.\Generated_Source\PSoC4/BLE_eventHandler.c ****         #ifdef CYBLE_IAS_SERVER
1647:.\Generated_Source\PSoC4/BLE_eventHandler.c ****             if((cyBle_eventHandlerFlag & CYBLE_CALLBACK) != 0u)
1648:.\Generated_Source\PSoC4/BLE_eventHandler.c ****             {
1649:.\Generated_Source\PSoC4/BLE_eventHandler.c ****                 (void)CyBle_IassWriteCmdEventHandler((CYBLE_GATTS_WRITE_REQ_PARAM_T *)eventParam);
1650:.\Generated_Source\PSoC4/BLE_eventHandler.c ****             }
1651:.\Generated_Source\PSoC4/BLE_eventHandler.c ****         #endif /* CYBLE_IAS_SERVER */
1652:.\Generated_Source\PSoC4/BLE_eventHandler.c ****         #ifdef CYBLE_HIDS_SERVER
1653:.\Generated_Source\PSoC4/BLE_eventHandler.c ****             if((cyBle_eventHandlerFlag & CYBLE_CALLBACK) != 0u)
1654:.\Generated_Source\PSoC4/BLE_eventHandler.c ****             {
1655:.\Generated_Source\PSoC4/BLE_eventHandler.c ****                 (void)CyBle_HidssWriteEventHandler((CYBLE_GATTS_WRITE_REQ_PARAM_T *)eventParam);
1656:.\Generated_Source\PSoC4/BLE_eventHandler.c ****             }
1657:.\Generated_Source\PSoC4/BLE_eventHandler.c ****         #endif /* CYBLE_HIDS_SERVER */
ARM GAS  C:\Users\JOHNSO~1\AppData\Local\Temp\ccaL6Noa.s 			page 39


1658:.\Generated_Source\PSoC4/BLE_eventHandler.c ****         #ifdef CYBLE_PASS_SERVER
1659:.\Generated_Source\PSoC4/BLE_eventHandler.c ****             if((cyBle_eventHandlerFlag & CYBLE_CALLBACK) != 0u)
1660:.\Generated_Source\PSoC4/BLE_eventHandler.c ****             {
1661:.\Generated_Source\PSoC4/BLE_eventHandler.c ****                 (void)CyBle_PasssWriteCmdEventHandler((CYBLE_GATTS_WRITE_REQ_PARAM_T *)eventParam);
1662:.\Generated_Source\PSoC4/BLE_eventHandler.c ****             }
1663:.\Generated_Source\PSoC4/BLE_eventHandler.c ****         #endif /* CYBLE_PASS_SERVER */
1664:.\Generated_Source\PSoC4/BLE_eventHandler.c ****         #ifdef CYBLE_RTUS_SERVER
1665:.\Generated_Source\PSoC4/BLE_eventHandler.c ****             if((cyBle_eventHandlerFlag & CYBLE_CALLBACK) != 0u)
1666:.\Generated_Source\PSoC4/BLE_eventHandler.c ****             {
1667:.\Generated_Source\PSoC4/BLE_eventHandler.c ****                 (void)CyBle_RtussWriteCmdEventHandler((CYBLE_GATTS_WRITE_REQ_PARAM_T *)eventParam);
1668:.\Generated_Source\PSoC4/BLE_eventHandler.c ****             }
1669:.\Generated_Source\PSoC4/BLE_eventHandler.c ****         #endif /* CYBLE_RTUS_SERVER */
1670:.\Generated_Source\PSoC4/BLE_eventHandler.c ****         #ifdef CYBLE_SCPS_SERVER
1671:.\Generated_Source\PSoC4/BLE_eventHandler.c ****             if((cyBle_eventHandlerFlag & CYBLE_CALLBACK) != 0u)
1672:.\Generated_Source\PSoC4/BLE_eventHandler.c ****             {
1673:.\Generated_Source\PSoC4/BLE_eventHandler.c ****                 (void)CyBle_ScpssWriteEventHandler((CYBLE_GATTS_WRITE_REQ_PARAM_T *)eventParam);
1674:.\Generated_Source\PSoC4/BLE_eventHandler.c ****             }
1675:.\Generated_Source\PSoC4/BLE_eventHandler.c ****         #endif /* CYBLE_SCPS_SERVER */
1676:.\Generated_Source\PSoC4/BLE_eventHandler.c ****             break;
1677:.\Generated_Source\PSoC4/BLE_eventHandler.c ****         
1678:.\Generated_Source\PSoC4/BLE_eventHandler.c ****         case CYBLE_EVT_GATTS_PREP_WRITE_REQ:
1679:.\Generated_Source\PSoC4/BLE_eventHandler.c ****         #ifdef CYBLE_BMS_SERVER
1680:.\Generated_Source\PSoC4/BLE_eventHandler.c ****             CyBle_BmssPrepareWriteRequestEventHandler((CYBLE_GATTS_PREP_WRITE_REQ_PARAM_T *)eventPa
1681:.\Generated_Source\PSoC4/BLE_eventHandler.c ****         #endif /* CYBLE_BMS_SERVER */
1682:.\Generated_Source\PSoC4/BLE_eventHandler.c ****         #ifdef CYBLE_BTS_SERVER
1683:.\Generated_Source\PSoC4/BLE_eventHandler.c ****             if((cyBle_eventHandlerFlag & CYBLE_CALLBACK) != 0u)
1684:.\Generated_Source\PSoC4/BLE_eventHandler.c ****             {
1685:.\Generated_Source\PSoC4/BLE_eventHandler.c ****                 CyBle_BtssPrepareWriteRequestEventHandler((CYBLE_GATTS_PREP_WRITE_REQ_PARAM_T *)eve
1686:.\Generated_Source\PSoC4/BLE_eventHandler.c ****             }
1687:.\Generated_Source\PSoC4/BLE_eventHandler.c ****         #endif /* CYBLE_BTS_SERVER */
1688:.\Generated_Source\PSoC4/BLE_eventHandler.c ****         #ifdef CYBLE_ESS_SERVER
1689:.\Generated_Source\PSoC4/BLE_eventHandler.c ****             if((cyBle_eventHandlerFlag & CYBLE_CALLBACK) != 0u)
1690:.\Generated_Source\PSoC4/BLE_eventHandler.c ****             {
1691:.\Generated_Source\PSoC4/BLE_eventHandler.c ****                 CyBle_EsssPrepareWriteRequestEventHandler((CYBLE_GATTS_PREP_WRITE_REQ_PARAM_T *)eve
1692:.\Generated_Source\PSoC4/BLE_eventHandler.c ****             }
1693:.\Generated_Source\PSoC4/BLE_eventHandler.c ****         #endif /* CYBLE_ESS_SERVER */
1694:.\Generated_Source\PSoC4/BLE_eventHandler.c **** 		#ifdef CYBLE_UDS_SERVER
1695:.\Generated_Source\PSoC4/BLE_eventHandler.c ****             if((cyBle_eventHandlerFlag & CYBLE_CALLBACK) != 0u)
1696:.\Generated_Source\PSoC4/BLE_eventHandler.c ****             {
1697:.\Generated_Source\PSoC4/BLE_eventHandler.c ****                 CyBle_UdssPrepareWriteRequestEventHandler((CYBLE_GATTS_PREP_WRITE_REQ_PARAM_T *)eve
1698:.\Generated_Source\PSoC4/BLE_eventHandler.c ****             }
1699:.\Generated_Source\PSoC4/BLE_eventHandler.c ****         #endif /* CYBLE_UDS_SERVER */
1700:.\Generated_Source\PSoC4/BLE_eventHandler.c ****             break;
1701:.\Generated_Source\PSoC4/BLE_eventHandler.c **** 
1702:.\Generated_Source\PSoC4/BLE_eventHandler.c ****         case CYBLE_EVT_GATTS_EXEC_WRITE_REQ:
1703:.\Generated_Source\PSoC4/BLE_eventHandler.c ****         #ifdef CYBLE_BMS_SERVER
1704:.\Generated_Source\PSoC4/BLE_eventHandler.c ****             CyBle_BmssExecuteWriteRequestEventHandler((CYBLE_GATTS_EXEC_WRITE_REQ_T *)eventParam);
1705:.\Generated_Source\PSoC4/BLE_eventHandler.c ****         #endif /* CYBLE_BMS_SERVER */
1706:.\Generated_Source\PSoC4/BLE_eventHandler.c ****         #ifdef CYBLE_BTS_SERVER
1707:.\Generated_Source\PSoC4/BLE_eventHandler.c ****             if((cyBle_eventHandlerFlag & CYBLE_CALLBACK) != 0u)
1708:.\Generated_Source\PSoC4/BLE_eventHandler.c ****             {
1709:.\Generated_Source\PSoC4/BLE_eventHandler.c ****                 CyBle_BtssExecuteWriteRequestEventHandler((CYBLE_GATTS_EXEC_WRITE_REQ_T *)eventPara
1710:.\Generated_Source\PSoC4/BLE_eventHandler.c ****             }
1711:.\Generated_Source\PSoC4/BLE_eventHandler.c ****         #endif /* CYBLE_BTS_SERVER */
1712:.\Generated_Source\PSoC4/BLE_eventHandler.c ****         #ifdef CYBLE_ESS_SERVER
1713:.\Generated_Source\PSoC4/BLE_eventHandler.c ****             if((cyBle_eventHandlerFlag & CYBLE_CALLBACK) != 0u)
1714:.\Generated_Source\PSoC4/BLE_eventHandler.c ****             {
ARM GAS  C:\Users\JOHNSO~1\AppData\Local\Temp\ccaL6Noa.s 			page 40


1715:.\Generated_Source\PSoC4/BLE_eventHandler.c ****                 CyBle_EsssExecuteWriteRequestEventHandler((CYBLE_GATTS_EXEC_WRITE_REQ_T *)eventPara
1716:.\Generated_Source\PSoC4/BLE_eventHandler.c ****             }
1717:.\Generated_Source\PSoC4/BLE_eventHandler.c ****         #endif /* CYBLE_ESS_SERVER */
1718:.\Generated_Source\PSoC4/BLE_eventHandler.c **** 		#ifdef CYBLE_UDS_SERVER
1719:.\Generated_Source\PSoC4/BLE_eventHandler.c ****             if((cyBle_eventHandlerFlag & CYBLE_CALLBACK) != 0u)
1720:.\Generated_Source\PSoC4/BLE_eventHandler.c ****             {
1721:.\Generated_Source\PSoC4/BLE_eventHandler.c ****                 CyBle_UdssExecuteWriteRequestEventHandler((CYBLE_GATTS_EXEC_WRITE_REQ_T *)eventPara
1722:.\Generated_Source\PSoC4/BLE_eventHandler.c ****             }
1723:.\Generated_Source\PSoC4/BLE_eventHandler.c ****         #endif /* CYBLE_UDS_SERVER */
1724:.\Generated_Source\PSoC4/BLE_eventHandler.c ****             break;
1725:.\Generated_Source\PSoC4/BLE_eventHandler.c ****         
1726:.\Generated_Source\PSoC4/BLE_eventHandler.c ****         case CYBLE_EVT_GATTS_HANDLE_VALUE_CNF:
1727:.\Generated_Source\PSoC4/BLE_eventHandler.c ****             CyBle_ValueConfirmation((CYBLE_CONN_HANDLE_T *)eventParam);
1728:.\Generated_Source\PSoC4/BLE_eventHandler.c ****             break;
1729:.\Generated_Source\PSoC4/BLE_eventHandler.c ****             
1730:.\Generated_Source\PSoC4/BLE_eventHandler.c ****         case CYBLE_EVT_GATTS_READ_CHAR_VAL_ACCESS_REQ:
1731:.\Generated_Source\PSoC4/BLE_eventHandler.c ****         #ifdef CYBLE_UDS_SERVER
1732:.\Generated_Source\PSoC4/BLE_eventHandler.c ****             CyBle_UdssReadRequestEventHandler((CYBLE_GATTS_CHAR_VAL_READ_REQ_T *)eventParam);
1733:.\Generated_Source\PSoC4/BLE_eventHandler.c ****         #endif /* CYBLE_UDS_SERVER */
1734:.\Generated_Source\PSoC4/BLE_eventHandler.c ****             break;
1735:.\Generated_Source\PSoC4/BLE_eventHandler.c ****             
1736:.\Generated_Source\PSoC4/BLE_eventHandler.c ****     #endif /* CYBLE_GATT_ROLE_SERVER */
1737:.\Generated_Source\PSoC4/BLE_eventHandler.c **** 
1738:.\Generated_Source\PSoC4/BLE_eventHandler.c ****     #if (CYBLE_GATT_ROLE_CLIENT)
1739:.\Generated_Source\PSoC4/BLE_eventHandler.c ****         
1740:.\Generated_Source\PSoC4/BLE_eventHandler.c ****         case CYBLE_EVT_GATTC_READ_BY_GROUP_TYPE_RSP:
1741:.\Generated_Source\PSoC4/BLE_eventHandler.c ****             CyBle_ReadByGroupEventHandler((CYBLE_GATTC_READ_BY_GRP_RSP_PARAM_T *)eventParam);
1742:.\Generated_Source\PSoC4/BLE_eventHandler.c ****             break;
1743:.\Generated_Source\PSoC4/BLE_eventHandler.c **** 
1744:.\Generated_Source\PSoC4/BLE_eventHandler.c ****         case CYBLE_EVT_GATTC_READ_BY_TYPE_RSP:
1745:.\Generated_Source\PSoC4/BLE_eventHandler.c ****             CyBle_ReadByTypeEventHandler((CYBLE_GATTC_READ_BY_TYPE_RSP_PARAM_T *)eventParam);
1746:.\Generated_Source\PSoC4/BLE_eventHandler.c ****             break;
1747:.\Generated_Source\PSoC4/BLE_eventHandler.c **** 
1748:.\Generated_Source\PSoC4/BLE_eventHandler.c ****         case CYBLE_EVT_GATTC_READ_BLOB_RSP:
1749:.\Generated_Source\PSoC4/BLE_eventHandler.c ****         #ifdef CYBLE_ESS_CLIENT
1750:.\Generated_Source\PSoC4/BLE_eventHandler.c ****             CyBle_EsscReadLongRespEventHandler((CYBLE_GATTC_READ_RSP_PARAM_T *)eventParam);
1751:.\Generated_Source\PSoC4/BLE_eventHandler.c ****         #endif /* CYBLE_ESS_CLIENT */
1752:.\Generated_Source\PSoC4/BLE_eventHandler.c ****             break;
1753:.\Generated_Source\PSoC4/BLE_eventHandler.c ****         
1754:.\Generated_Source\PSoC4/BLE_eventHandler.c ****         case CYBLE_EVT_GATTC_FIND_INFO_RSP:
1755:.\Generated_Source\PSoC4/BLE_eventHandler.c ****             CyBle_FindInfoEventHandler((CYBLE_GATTC_FIND_INFO_RSP_PARAM_T *)eventParam);
1756:.\Generated_Source\PSoC4/BLE_eventHandler.c ****             break;
1757:.\Generated_Source\PSoC4/BLE_eventHandler.c **** 
1758:.\Generated_Source\PSoC4/BLE_eventHandler.c ****         case CYBLE_EVT_GATTC_ERROR_RSP:
1759:.\Generated_Source\PSoC4/BLE_eventHandler.c ****             CyBle_ErrorResponseEventHandler((CYBLE_GATTC_ERR_RSP_PARAM_T *)eventParam);
1760:.\Generated_Source\PSoC4/BLE_eventHandler.c ****             break;
1761:.\Generated_Source\PSoC4/BLE_eventHandler.c **** 
1762:.\Generated_Source\PSoC4/BLE_eventHandler.c ****         case CYBLE_EVT_GATTC_HANDLE_VALUE_NTF:
1763:.\Generated_Source\PSoC4/BLE_eventHandler.c ****             CyBle_NotificationEventHandler((CYBLE_GATTC_HANDLE_VALUE_NTF_PARAM_T *)eventParam);
1764:.\Generated_Source\PSoC4/BLE_eventHandler.c ****             break;
1765:.\Generated_Source\PSoC4/BLE_eventHandler.c **** 
1766:.\Generated_Source\PSoC4/BLE_eventHandler.c ****         case CYBLE_EVT_GATTC_HANDLE_VALUE_IND:
1767:.\Generated_Source\PSoC4/BLE_eventHandler.c ****             CyBle_GattcIndicationEventHandler((CYBLE_GATTC_HANDLE_VALUE_IND_PARAM_T *)eventParam);
1768:.\Generated_Source\PSoC4/BLE_eventHandler.c ****             CyBle_IndicationEventHandler((CYBLE_GATTC_HANDLE_VALUE_IND_PARAM_T *)eventParam);
1769:.\Generated_Source\PSoC4/BLE_eventHandler.c ****         
1770:.\Generated_Source\PSoC4/BLE_eventHandler.c ****             /* Respond with a Handle Value Confirmation when request handled */
1771:.\Generated_Source\PSoC4/BLE_eventHandler.c ****             if((cyBle_eventHandlerFlag & CYBLE_CALLBACK) == 0u)
ARM GAS  C:\Users\JOHNSO~1\AppData\Local\Temp\ccaL6Noa.s 			page 41


1772:.\Generated_Source\PSoC4/BLE_eventHandler.c ****             {
1773:.\Generated_Source\PSoC4/BLE_eventHandler.c ****                 (void)CyBle_GattcConfirmation(((CYBLE_GATTC_HANDLE_VALUE_IND_PARAM_T *)eventParam)-
1774:.\Generated_Source\PSoC4/BLE_eventHandler.c ****             }
1775:.\Generated_Source\PSoC4/BLE_eventHandler.c ****             break;
1776:.\Generated_Source\PSoC4/BLE_eventHandler.c ****         
1777:.\Generated_Source\PSoC4/BLE_eventHandler.c ****         case CYBLE_EVT_GATTC_READ_RSP:
1778:.\Generated_Source\PSoC4/BLE_eventHandler.c ****             CyBle_ReadResponseEventHandler((CYBLE_GATTC_READ_RSP_PARAM_T *)eventParam);
1779:.\Generated_Source\PSoC4/BLE_eventHandler.c ****             break;
1780:.\Generated_Source\PSoC4/BLE_eventHandler.c **** 
1781:.\Generated_Source\PSoC4/BLE_eventHandler.c ****         case CYBLE_EVT_GATTC_WRITE_RSP:
1782:.\Generated_Source\PSoC4/BLE_eventHandler.c ****             CyBle_GattcWriteResponseEventHandler((CYBLE_CONN_HANDLE_T *)eventParam);
1783:.\Generated_Source\PSoC4/BLE_eventHandler.c ****             break;
1784:.\Generated_Source\PSoC4/BLE_eventHandler.c ****             
1785:.\Generated_Source\PSoC4/BLE_eventHandler.c ****         case CYBLE_EVT_GATTC_EXEC_WRITE_RSP:
1786:.\Generated_Source\PSoC4/BLE_eventHandler.c ****         #ifdef CYBLE_BMS_CLIENT
1787:.\Generated_Source\PSoC4/BLE_eventHandler.c ****             CyBle_BmscExecuteWriteResponseEventHandler((CYBLE_GATTC_EXEC_WRITE_RSP_T *)eventParam);
1788:.\Generated_Source\PSoC4/BLE_eventHandler.c ****         #endif /* CYBLE_BMS_CLIENT */
1789:.\Generated_Source\PSoC4/BLE_eventHandler.c ****         #ifdef CYBLE_ESS_CLIENT
1790:.\Generated_Source\PSoC4/BLE_eventHandler.c ****             if((cyBle_eventHandlerFlag & CYBLE_CALLBACK) != 0u)
1791:.\Generated_Source\PSoC4/BLE_eventHandler.c ****             {
1792:.\Generated_Source\PSoC4/BLE_eventHandler.c ****                 CyBle_EsscExecuteWriteResponseEventHandler((CYBLE_GATTC_EXEC_WRITE_RSP_T *)eventPar
1793:.\Generated_Source\PSoC4/BLE_eventHandler.c ****             }
1794:.\Generated_Source\PSoC4/BLE_eventHandler.c ****         #endif /* CYBLE_ESS_CLIENT */
1795:.\Generated_Source\PSoC4/BLE_eventHandler.c ****             break;
1796:.\Generated_Source\PSoC4/BLE_eventHandler.c ****             
1797:.\Generated_Source\PSoC4/BLE_eventHandler.c ****     #endif /* CYBLE_GATT_ROLE_CLIENT */
1798:.\Generated_Source\PSoC4/BLE_eventHandler.c **** 
1799:.\Generated_Source\PSoC4/BLE_eventHandler.c ****     #if((CYBLE_GAP_ROLE_PERIPHERAL || CYBLE_GAP_ROLE_CENTRAL) && (CYBLE_BONDING_REQUIREMENT == CYBL
1800:.\Generated_Source\PSoC4/BLE_eventHandler.c **** 
1801:.\Generated_Source\PSoC4/BLE_eventHandler.c ****         case CYBLE_EVT_PENDING_FLASH_WRITE:
1802:.\Generated_Source\PSoC4/BLE_eventHandler.c ****             cyBle_pendingFlashWrite |= CYBLE_PENDING_STACK_FLASH_WRITE_BIT;
 496              		.loc 1 1802 0
 497 01ae 184B     		ldr	r3, .L38+52
 498 01b0 1978     		ldrb	r1, [r3]
 499              	.LVL53:
 500 01b2 0122     		mov	r2, #1
 501 01b4 0A43     		orr	r2, r1
 502 01b6 1A70     		strb	r2, [r3]
 503              	.LVL54:
 504              	.L16:
1803:.\Generated_Source\PSoC4/BLE_eventHandler.c ****             break;
1804:.\Generated_Source\PSoC4/BLE_eventHandler.c ****         
1805:.\Generated_Source\PSoC4/BLE_eventHandler.c ****     #endif  /* (CYBLE_BONDING_REQUIREMENT == CYBLE_BONDING_YES) */
1806:.\Generated_Source\PSoC4/BLE_eventHandler.c ****     
1807:.\Generated_Source\PSoC4/BLE_eventHandler.c ****         default:
1808:.\Generated_Source\PSoC4/BLE_eventHandler.c ****             break;
1809:.\Generated_Source\PSoC4/BLE_eventHandler.c ****     }
1810:.\Generated_Source\PSoC4/BLE_eventHandler.c **** 
1811:.\Generated_Source\PSoC4/BLE_eventHandler.c ****     if(0u != (cyBle_eventHandlerFlag & (CYBLE_CALLBACK | CYBLE_ENABLE_ALL_EVENTS))) 
 505              		.loc 1 1811 0
 506 01b8 084B     		ldr	r3, .L38
 507 01ba 1A78     		ldrb	r2, [r3]
 508 01bc 1123     		mov	r3, #17
 509 01be 1A42     		tst	r2, r3
 510 01c0 09D0     		beq	.L15
1812:.\Generated_Source\PSoC4/BLE_eventHandler.c ****     {
1813:.\Generated_Source\PSoC4/BLE_eventHandler.c ****         cyBle_eventHandlerFlag &= (uint8)~CYBLE_CALLBACK;
ARM GAS  C:\Users\JOHNSO~1\AppData\Local\Temp\ccaL6Noa.s 			page 42


 511              		.loc 1 1813 0
 512 01c2 064B     		ldr	r3, .L38
 513 01c4 1A78     		ldrb	r2, [r3]
 514 01c6 0121     		mov	r1, #1
 515 01c8 8A43     		bic	r2, r1
 516 01ca 1A70     		strb	r2, [r3]
1814:.\Generated_Source\PSoC4/BLE_eventHandler.c ****         CyBle_ApplCallback((uint32)eventCode, eventParam);
 517              		.loc 1 1814 0
 518 01cc 114B     		ldr	r3, .L38+56
 519 01ce 1B68     		ldr	r3, [r3]
 520 01d0 201C     		mov	r0, r4
 521 01d2 311C     		mov	r1, r6
 522 01d4 9847     		blx	r3
 523              	.LVL55:
 524              	.L15:
1815:.\Generated_Source\PSoC4/BLE_eventHandler.c ****     }
1816:.\Generated_Source\PSoC4/BLE_eventHandler.c **** 
1817:.\Generated_Source\PSoC4/BLE_eventHandler.c **** }
 525              		.loc 1 1817 0
 526 01d6 03B0     		add	sp, sp, #12
 527              		@ sp needed
 528              	.LVL56:
 529 01d8 F0BD     		pop	{r4, r5, r6, r7, pc}
 530              	.L39:
 531 01da C046     		.align	2
 532              	.L38:
 533 01dc 00000000 		.word	cyBle_eventHandlerFlag
 534 01e0 00000000 		.word	cyBle_sflashDeviceAddress
 535 01e4 7CF1FF0F 		.word	268431740
 536 01e8 00000000 		.word	cyBle_deviceAddress
 537 01ec 7DF1FF0F 		.word	268431741
 538 01f0 7BF1FF0F 		.word	268431739
 539 01f4 00000000 		.word	cyBle_state
 540 01f8 00000000 		.word	cyBle_busyStatus
 541 01fc 00000000 		.word	.LANCHOR0
 542 0200 00000000 		.word	cyBle_connHandle
 543 0204 00000000 		.word	cyBle_advertisingIntervalType
 544 0208 00000000 		.word	cyBle_attValuesCCCDFlashMemory
 545 020c 00000000 		.word	cyBle_attValuesCCCD
 546 0210 00000000 		.word	cyBle_pendingFlashWrite
 547 0214 00000000 		.word	CyBle_ApplCallback
 548              		.cfi_endproc
 549              	.LFE10:
 550              		.size	CyBle_EventHandler, .-CyBle_EventHandler
 551              		.global	cyBle_authInfo
 552              		.comm	cyBle_advertisingIntervalType,1,1
 553              		.comm	cyBle_busyStatus,1,1
 554              		.comm	cyBle_eventHandlerFlag,1,1
 555              		.comm	cyBle_connHandle,2,4
 556              		.data
 557              		.align	2
 558              		.set	.LANCHOR0,. + 0
 559              		.type	cyBle_authInfo, %object
 560              		.size	cyBle_authInfo, 4
 561              	cyBle_authInfo:
 562 0000 10       		.byte	16
 563 0001 01       		.byte	1
ARM GAS  C:\Users\JOHNSO~1\AppData\Local\Temp\ccaL6Noa.s 			page 43


 564 0002 10       		.byte	16
 565 0003 00       		.byte	0
 566              		.text
 567              	.Letext0:
 568              		.file 2 ".\\Generated_Source\\PSoC4\\cytypes.h"
 569              		.file 3 ".\\Generated_Source\\PSoC4\\BLE_Stack.h"
 570              		.file 4 ".\\Generated_Source\\PSoC4\\BLE_StackHostMain.h"
 571              		.file 5 ".\\Generated_Source\\PSoC4\\BLE_StackGap.h"
 572              		.file 6 ".\\Generated_Source\\PSoC4\\BLE_StackGatt.h"
 573              		.file 7 ".\\Generated_Source\\PSoC4\\BLE_StackGattServer.h"
 574              		.file 8 ".\\Generated_Source\\PSoC4\\BLE.h"
 575              		.file 9 ".\\Generated_Source\\PSoC4\\BLE_eventHandler.h"
 576              		.file 10 ".\\Generated_Source\\PSoC4\\BLE_gatt.h"
