ARM GAS  C:\Users\JOHNSO~1\AppData\Local\Temp\ccvqa3A8.s 			page 1


   1              		.cpu cortex-m0
   2              		.fpu softvfp
   3              		.eabi_attribute 20, 1
   4              		.eabi_attribute 21, 1
   5              		.eabi_attribute 23, 3
   6              		.eabi_attribute 24, 1
   7              		.eabi_attribute 25, 1
   8              		.eabi_attribute 26, 1
   9              		.eabi_attribute 30, 1
  10              		.eabi_attribute 34, 0
  11              		.eabi_attribute 18, 4
  12              		.code	16
  13              		.file	"BLE_gatt.c"
  14              		.text
  15              	.Ltext0:
  16              		.cfi_sections	.debug_frame
  17              		.section	.text.CyBle_GattsReInitGattDb,"ax",%progbits
  18              		.align	2
  19              		.global	CyBle_GattsReInitGattDb
  20              		.code	16
  21              		.thumb_func
  22              		.type	CyBle_GattsReInitGattDb, %function
  23              	CyBle_GattsReInitGattDb:
  24              	.LFB2:
  25              		.file 1 ".\\Generated_Source\\PSoC4\\BLE_gatt.c"
   1:.\Generated_Source\PSoC4/BLE_gatt.c **** /*******************************************************************************
   2:.\Generated_Source\PSoC4/BLE_gatt.c **** File Name: CYBLE_gatt.c
   3:.\Generated_Source\PSoC4/BLE_gatt.c **** Version 2.10
   4:.\Generated_Source\PSoC4/BLE_gatt.c **** 
   5:.\Generated_Source\PSoC4/BLE_gatt.c **** Description:
   6:.\Generated_Source\PSoC4/BLE_gatt.c ****  This file contains the source code for the GATT API of the BLE Component.
   7:.\Generated_Source\PSoC4/BLE_gatt.c **** 
   8:.\Generated_Source\PSoC4/BLE_gatt.c **** ********************************************************************************
   9:.\Generated_Source\PSoC4/BLE_gatt.c **** Copyright 2014-2015, Cypress Semiconductor Corporation.  All rights reserved.
  10:.\Generated_Source\PSoC4/BLE_gatt.c **** You may use this file only in accordance with the license, terms, conditions,
  11:.\Generated_Source\PSoC4/BLE_gatt.c **** disclaimers, and limitations in the end user license agreement accompanying
  12:.\Generated_Source\PSoC4/BLE_gatt.c **** the software package with which this file was provided.
  13:.\Generated_Source\PSoC4/BLE_gatt.c **** *******************************************************************************/
  14:.\Generated_Source\PSoC4/BLE_gatt.c **** 
  15:.\Generated_Source\PSoC4/BLE_gatt.c **** 
  16:.\Generated_Source\PSoC4/BLE_gatt.c **** #include "BLE_eventHandler.h"
  17:.\Generated_Source\PSoC4/BLE_gatt.c **** 
  18:.\Generated_Source\PSoC4/BLE_gatt.c **** 
  19:.\Generated_Source\PSoC4/BLE_gatt.c **** /***************************************
  20:.\Generated_Source\PSoC4/BLE_gatt.c **** ##Global variables
  21:.\Generated_Source\PSoC4/BLE_gatt.c **** ***************************************/
  22:.\Generated_Source\PSoC4/BLE_gatt.c **** 
  23:.\Generated_Source\PSoC4/BLE_gatt.c **** CYBLE_STATE_T cyBle_state;
  24:.\Generated_Source\PSoC4/BLE_gatt.c **** 
  25:.\Generated_Source\PSoC4/BLE_gatt.c **** 
  26:.\Generated_Source\PSoC4/BLE_gatt.c **** #if(CYBLE_GATT_ROLE_SERVER)
  27:.\Generated_Source\PSoC4/BLE_gatt.c ****     
  28:.\Generated_Source\PSoC4/BLE_gatt.c ****     const CYBLE_GATTS_T cyBle_gatts =
  29:.\Generated_Source\PSoC4/BLE_gatt.c **** {
  30:.\Generated_Source\PSoC4/BLE_gatt.c ****     0x0008u,    /* Handle of the GATT service */
  31:.\Generated_Source\PSoC4/BLE_gatt.c ****     0x000Au,    /* Handle of the Service Changed characteristic */
  32:.\Generated_Source\PSoC4/BLE_gatt.c ****     0x000Bu,    /* Handle of the Client Characteristic Configuration descriptor */
ARM GAS  C:\Users\JOHNSO~1\AppData\Local\Temp\ccvqa3A8.s 			page 2


  33:.\Generated_Source\PSoC4/BLE_gatt.c **** };
  34:.\Generated_Source\PSoC4/BLE_gatt.c ****     
  35:.\Generated_Source\PSoC4/BLE_gatt.c ****     static uint8 cyBle_attValues[0x39u] = {
  36:.\Generated_Source\PSoC4/BLE_gatt.c ****     /* Device Name */
  37:.\Generated_Source\PSoC4/BLE_gatt.c ****     (uint8)'P', (uint8)'n', (uint8)'e', (uint8)'u', (uint8)'m', (uint8)'a', (uint8)'t', (uint8)'i',
  38:.\Generated_Source\PSoC4/BLE_gatt.c **** (uint8)'W', (uint8)'a', (uint8)'l', (uint8)'k', (uint8)'i', (uint8)'n', (uint8)'g', (uint8)' ', (ui
  39:.\Generated_Source\PSoC4/BLE_gatt.c **** (uint8)'b', (uint8)'o', (uint8)'t', 
  40:.\Generated_Source\PSoC4/BLE_gatt.c **** 
  41:.\Generated_Source\PSoC4/BLE_gatt.c ****     /* Appearance */
  42:.\Generated_Source\PSoC4/BLE_gatt.c ****     0x00u, 0x00u, 
  43:.\Generated_Source\PSoC4/BLE_gatt.c **** 
  44:.\Generated_Source\PSoC4/BLE_gatt.c ****     /* Peripheral Preferred Connection Parameters */
  45:.\Generated_Source\PSoC4/BLE_gatt.c ****     0x06u, 0x00u, 0x28u, 0x00u, 0x00u, 0x00u, 0xE8u, 0x03u, 
  46:.\Generated_Source\PSoC4/BLE_gatt.c **** 
  47:.\Generated_Source\PSoC4/BLE_gatt.c ****     /* Service Changed */
  48:.\Generated_Source\PSoC4/BLE_gatt.c ****     0x00u, 0x00u, 0x00u, 0x00u, 
  49:.\Generated_Source\PSoC4/BLE_gatt.c **** 
  50:.\Generated_Source\PSoC4/BLE_gatt.c ****     /* Robot Command Rx/Tx */
  51:.\Generated_Source\PSoC4/BLE_gatt.c ****     0x00u, 
  52:.\Generated_Source\PSoC4/BLE_gatt.c **** 
  53:.\Generated_Source\PSoC4/BLE_gatt.c ****     /* Custom Descriptor */
  54:.\Generated_Source\PSoC4/BLE_gatt.c ****     0x00u, 0xFBu, 0x34u, 0x9Bu, 0x5Fu, 0x80u, 0x00u, 0x00u, 0x80u, 0x00u, 0x10u, 0x00u, 0x00u, 0x00
  55:.\Generated_Source\PSoC4/BLE_gatt.c **** 
  56:.\Generated_Source\PSoC4/BLE_gatt.c ****     /* Characteristic Extended Properties */
  57:.\Generated_Source\PSoC4/BLE_gatt.c ****     0x01u, 0x00u, 
  58:.\Generated_Source\PSoC4/BLE_gatt.c **** 
  59:.\Generated_Source\PSoC4/BLE_gatt.c **** };
  60:.\Generated_Source\PSoC4/BLE_gatt.c **** 
  61:.\Generated_Source\PSoC4/BLE_gatt.c **** #if defined(__GNUC__) || defined(__ARMCC_VERSION)
  62:.\Generated_Source\PSoC4/BLE_gatt.c **** const uint8 cyBle_attValuesCCCDFlashMemory[CYBLE_GAP_MAX_BONDED_DEVICE + 1u][CYBLE_GATT_DB_CCCD_COU
  63:.\Generated_Source\PSoC4/BLE_gatt.c **** #elif defined(__ICCARM__)
  64:.\Generated_Source\PSoC4/BLE_gatt.c **** /* The cyBle_attValuesCCCDFlashMemory[] should be aligned to the size of a Flash row */
  65:.\Generated_Source\PSoC4/BLE_gatt.c **** #pragma data_alignment=CY_FLASH_SIZEOF_ROW
  66:.\Generated_Source\PSoC4/BLE_gatt.c **** const uint8 cyBle_attValuesCCCDFlashMemory[CYBLE_GAP_MAX_BONDED_DEVICE + 1u][CYBLE_GATT_DB_CCCD_COU
  67:.\Generated_Source\PSoC4/BLE_gatt.c **** #endif /* defined(__GNUC__) || defined(__ARMCC_VERSION) */
  68:.\Generated_Source\PSoC4/BLE_gatt.c **** {
  69:.\Generated_Source\PSoC4/BLE_gatt.c ****     0x00u, 0x00u, 
  70:.\Generated_Source\PSoC4/BLE_gatt.c ****     0x00u, 0x00u, 
  71:.\Generated_Source\PSoC4/BLE_gatt.c **** },
  72:.\Generated_Source\PSoC4/BLE_gatt.c **** {
  73:.\Generated_Source\PSoC4/BLE_gatt.c ****     0x00u, 0x00u, 
  74:.\Generated_Source\PSoC4/BLE_gatt.c ****     0x00u, 0x00u, 
  75:.\Generated_Source\PSoC4/BLE_gatt.c **** },
  76:.\Generated_Source\PSoC4/BLE_gatt.c **** {
  77:.\Generated_Source\PSoC4/BLE_gatt.c ****     0x00u, 0x00u, 
  78:.\Generated_Source\PSoC4/BLE_gatt.c ****     0x00u, 0x00u, 
  79:.\Generated_Source\PSoC4/BLE_gatt.c **** },
  80:.\Generated_Source\PSoC4/BLE_gatt.c **** {
  81:.\Generated_Source\PSoC4/BLE_gatt.c ****     0x00u, 0x00u, 
  82:.\Generated_Source\PSoC4/BLE_gatt.c ****     0x00u, 0x00u, 
  83:.\Generated_Source\PSoC4/BLE_gatt.c **** },
  84:.\Generated_Source\PSoC4/BLE_gatt.c **** {
  85:.\Generated_Source\PSoC4/BLE_gatt.c ****     0x00u, 0x00u, 
  86:.\Generated_Source\PSoC4/BLE_gatt.c ****     0x00u, 0x00u, 
  87:.\Generated_Source\PSoC4/BLE_gatt.c **** },
  88:.\Generated_Source\PSoC4/BLE_gatt.c **** };
  89:.\Generated_Source\PSoC4/BLE_gatt.c **** uint8 cyBle_attValuesCCCD[CYBLE_GATT_DB_CCCD_COUNT];
ARM GAS  C:\Users\JOHNSO~1\AppData\Local\Temp\ccvqa3A8.s 			page 3


  90:.\Generated_Source\PSoC4/BLE_gatt.c **** 
  91:.\Generated_Source\PSoC4/BLE_gatt.c **** const uint8 cyBle_attUuid128[][16u] = {
  92:.\Generated_Source\PSoC4/BLE_gatt.c ****     /* Robot Command */
  93:.\Generated_Source\PSoC4/BLE_gatt.c ****     { 0xD5u, 0xB3u, 0xDBu, 0x13u, 0x69u, 0x27u, 0x88u, 0x8Du, 0x8Cu, 0x42u, 0xD2u, 0xE0u, 0x98u, 0x
  94:.\Generated_Source\PSoC4/BLE_gatt.c ****     /* Robot Command Rx/Tx */
  95:.\Generated_Source\PSoC4/BLE_gatt.c ****     { 0xD5u, 0xB3u, 0xDBu, 0x13u, 0x69u, 0x27u, 0x88u, 0x8Du, 0x8Cu, 0x42u, 0xD2u, 0xE0u, 0x98u, 0x
  96:.\Generated_Source\PSoC4/BLE_gatt.c **** };
  97:.\Generated_Source\PSoC4/BLE_gatt.c **** 
  98:.\Generated_Source\PSoC4/BLE_gatt.c **** CYBLE_GATTS_ATT_GEN_VAL_LEN_T cyBle_attValuesLen[CYBLE_GATT_DB_ATT_VAL_COUNT] = {
  99:.\Generated_Source\PSoC4/BLE_gatt.c ****     { 0x0017u, (void *)&cyBle_attValues[0] }, /* Device Name */
 100:.\Generated_Source\PSoC4/BLE_gatt.c ****     { 0x0002u, (void *)&cyBle_attValues[23] }, /* Appearance */
 101:.\Generated_Source\PSoC4/BLE_gatt.c ****     { 0x0008u, (void *)&cyBle_attValues[25] }, /* Peripheral Preferred Connection Parameters */
 102:.\Generated_Source\PSoC4/BLE_gatt.c ****     { 0x0004u, (void *)&cyBle_attValues[33] }, /* Service Changed */
 103:.\Generated_Source\PSoC4/BLE_gatt.c ****     { 0x0002u, (void *)&cyBle_attValuesCCCD[0] }, /* Client Characteristic Configuration */
 104:.\Generated_Source\PSoC4/BLE_gatt.c ****     { 0x0010u, (void *)&cyBle_attUuid128[0] }, /* Robot Command UUID */
 105:.\Generated_Source\PSoC4/BLE_gatt.c ****     { 0x0010u, (void *)&cyBle_attUuid128[1] }, /* Robot Command Rx/Tx UUID */
 106:.\Generated_Source\PSoC4/BLE_gatt.c ****     { 0x0001u, (void *)&cyBle_attValues[37] }, /* Robot Command Rx/Tx */
 107:.\Generated_Source\PSoC4/BLE_gatt.c ****     { 0x0011u, (void *)&cyBle_attValues[38] }, /* Custom Descriptor */
 108:.\Generated_Source\PSoC4/BLE_gatt.c ****     { 0x0002u, (void *)&cyBle_attValues[55] }, /* Characteristic Extended Properties */
 109:.\Generated_Source\PSoC4/BLE_gatt.c ****     { 0x0002u, (void *)&cyBle_attValuesCCCD[2] }, /* Client Characteristic Configuration */
 110:.\Generated_Source\PSoC4/BLE_gatt.c **** };
 111:.\Generated_Source\PSoC4/BLE_gatt.c **** 
 112:.\Generated_Source\PSoC4/BLE_gatt.c **** const CYBLE_GATTS_DB_T cyBle_gattDB[0x11u] = {
 113:.\Generated_Source\PSoC4/BLE_gatt.c ****     { 0x0001u, 0x2800u /* Primary service                     */, 0x00000001u /*               */, 
 114:.\Generated_Source\PSoC4/BLE_gatt.c ****     { 0x0002u, 0x2803u /* Characteristic                      */, 0x00000201u /* rd            */, 
 115:.\Generated_Source\PSoC4/BLE_gatt.c ****     { 0x0003u, 0x2A00u /* Device Name                         */, 0x00000201u /* rd            */, 
 116:.\Generated_Source\PSoC4/BLE_gatt.c ****     { 0x0004u, 0x2803u /* Characteristic                      */, 0x00000201u /* rd            */, 
 117:.\Generated_Source\PSoC4/BLE_gatt.c ****     { 0x0005u, 0x2A01u /* Appearance                          */, 0x00000201u /* rd            */, 
 118:.\Generated_Source\PSoC4/BLE_gatt.c ****     { 0x0006u, 0x2803u /* Characteristic                      */, 0x00000201u /* rd            */, 
 119:.\Generated_Source\PSoC4/BLE_gatt.c ****     { 0x0007u, 0x2A04u /* Peripheral Preferred Connection Par */, 0x00000201u /* rd            */, 
 120:.\Generated_Source\PSoC4/BLE_gatt.c ****     { 0x0008u, 0x2800u /* Primary service                     */, 0x00000001u /*               */, 
 121:.\Generated_Source\PSoC4/BLE_gatt.c ****     { 0x0009u, 0x2803u /* Characteristic                      */, 0x00002201u /* rd,ind        */, 
 122:.\Generated_Source\PSoC4/BLE_gatt.c ****     { 0x000Au, 0x2A05u /* Service Changed                     */, 0x00002201u /* rd,ind        */, 
 123:.\Generated_Source\PSoC4/BLE_gatt.c ****     { 0x000Bu, 0x2902u /* Client Characteristic Configuration */, 0x00000A04u /* rd,wr         */, 
 124:.\Generated_Source\PSoC4/BLE_gatt.c ****     { 0x000Cu, 0x2800u /* Primary service                     */, 0x00080001u /*               */, 
 125:.\Generated_Source\PSoC4/BLE_gatt.c ****     { 0x000Du, 0x2803u /* Characteristic                      */, 0x00009A01u /* rd,wr,ntf,rwr */, 
 126:.\Generated_Source\PSoC4/BLE_gatt.c ****     { 0x000Eu, 0x2898u /* Robot Command Rx/Tx                 */, 0x00089A04u /* rd,wr,ntf,rwr */, 
 127:.\Generated_Source\PSoC4/BLE_gatt.c ****     { 0x000Fu, 0x0000u /* Custom Descriptor                   */, 0x00080001u /*               */, 
 128:.\Generated_Source\PSoC4/BLE_gatt.c ****     { 0x0010u, 0x2900u /* Characteristic Extended Properties  */, 0x00000201u /* rd            */, 
 129:.\Generated_Source\PSoC4/BLE_gatt.c ****     { 0x0011u, 0x2902u /* Client Characteristic Configuration */, 0x00000A04u /* rd,wr         */, 
 130:.\Generated_Source\PSoC4/BLE_gatt.c **** };
 131:.\Generated_Source\PSoC4/BLE_gatt.c **** 
 132:.\Generated_Source\PSoC4/BLE_gatt.c **** 
 133:.\Generated_Source\PSoC4/BLE_gatt.c **** #endif /* (CYBLE_GATT_ROLE_SERVER) */
 134:.\Generated_Source\PSoC4/BLE_gatt.c **** 
 135:.\Generated_Source\PSoC4/BLE_gatt.c **** #if(CYBLE_GATT_ROLE_CLIENT)
 136:.\Generated_Source\PSoC4/BLE_gatt.c ****     
 137:.\Generated_Source\PSoC4/BLE_gatt.c **** CYBLE_CLIENT_STATE_T cyBle_clientState;
 138:.\Generated_Source\PSoC4/BLE_gatt.c **** CYBLE_GATTC_T cyBle_gattc;
 139:.\Generated_Source\PSoC4/BLE_gatt.c ****     
 140:.\Generated_Source\PSoC4/BLE_gatt.c **** #endif /* (CYBLE_GATT_ROLE_CLIENT) */
 141:.\Generated_Source\PSoC4/BLE_gatt.c **** 
 142:.\Generated_Source\PSoC4/BLE_gatt.c **** 
 143:.\Generated_Source\PSoC4/BLE_gatt.c **** #if(CYBLE_GATT_ROLE_SERVER)
 144:.\Generated_Source\PSoC4/BLE_gatt.c **** 
 145:.\Generated_Source\PSoC4/BLE_gatt.c **** /****************************************************************************** 
 146:.\Generated_Source\PSoC4/BLE_gatt.c **** ##Function Name: CyBle_GattsReInitGattDb
ARM GAS  C:\Users\JOHNSO~1\AppData\Local\Temp\ccvqa3A8.s 			page 4


 147:.\Generated_Source\PSoC4/BLE_gatt.c **** *******************************************************************************
 148:.\Generated_Source\PSoC4/BLE_gatt.c **** 
 149:.\Generated_Source\PSoC4/BLE_gatt.c **** Summary:
 150:.\Generated_Source\PSoC4/BLE_gatt.c ****  Reinitializes the GATT database.
 151:.\Generated_Source\PSoC4/BLE_gatt.c **** 
 152:.\Generated_Source\PSoC4/BLE_gatt.c **** Parameters:
 153:.\Generated_Source\PSoC4/BLE_gatt.c ****  None
 154:.\Generated_Source\PSoC4/BLE_gatt.c **** 
 155:.\Generated_Source\PSoC4/BLE_gatt.c **** Return:
 156:.\Generated_Source\PSoC4/BLE_gatt.c ****  CYBLE_API_RESULT_T: An API result states if the API succeeded or failed with
 157:.\Generated_Source\PSoC4/BLE_gatt.c ****  error codes:
 158:.\Generated_Source\PSoC4/BLE_gatt.c ****   * CYBLE_ERROR_OK: GATT database was reinitialized successfully
 159:.\Generated_Source\PSoC4/BLE_gatt.c ****   * CYBLE_ERROR_INVALID_STATE: If the function is called in any state except
 160:.\Generated_Source\PSoC4/BLE_gatt.c ****                                 CYBLE_STATE_DISCONNECTED.
 161:.\Generated_Source\PSoC4/BLE_gatt.c ****   * Any of the CyBle_GattsDbRegister() stack API function return values.
 162:.\Generated_Source\PSoC4/BLE_gatt.c **** 
 163:.\Generated_Source\PSoC4/BLE_gatt.c **** ******************************************************************************/
 164:.\Generated_Source\PSoC4/BLE_gatt.c **** CYBLE_API_RESULT_T CyBle_GattsReInitGattDb(void)
 165:.\Generated_Source\PSoC4/BLE_gatt.c **** {
  26              		.loc 1 165 0
  27              		.cfi_startproc
  28 0000 08B5     		push	{r3, lr}
  29              		.cfi_def_cfa_offset 8
  30              		.cfi_offset 3, -8
  31              		.cfi_offset 14, -4
 166:.\Generated_Source\PSoC4/BLE_gatt.c ****     CYBLE_API_RESULT_T apiResult;
 167:.\Generated_Source\PSoC4/BLE_gatt.c ****     
 168:.\Generated_Source\PSoC4/BLE_gatt.c ****     if(CYBLE_STATE_DISCONNECTED == CyBle_GetState())
  32              		.loc 1 168 0
  33 0002 064B     		ldr	r3, .L4
  34 0004 1B78     		ldrb	r3, [r3]
  35 0006 042B     		cmp	r3, #4
  36 0008 05D1     		bne	.L3
 169:.\Generated_Source\PSoC4/BLE_gatt.c ****     {
 170:.\Generated_Source\PSoC4/BLE_gatt.c ****         apiResult = CyBle_GattsDbRegister(cyBle_gattDB, CYBLE_GATT_DB_INDEX_COUNT, CYBLE_GATT_DB_MA
  37              		.loc 1 170 0
  38 000a 0548     		ldr	r0, .L4+4
  39 000c 1121     		mov	r1, #17
  40 000e 1722     		mov	r2, #23
  41 0010 FFF7FEFF 		bl	CyBle_GattsDbRegister
  42              	.LVL0:
  43 0014 01E0     		b	.L2
  44              	.LVL1:
  45              	.L3:
 171:.\Generated_Source\PSoC4/BLE_gatt.c ****     }
 172:.\Generated_Source\PSoC4/BLE_gatt.c ****     else
 173:.\Generated_Source\PSoC4/BLE_gatt.c ****     {
 174:.\Generated_Source\PSoC4/BLE_gatt.c ****         apiResult = CYBLE_ERROR_INVALID_STATE;
  46              		.loc 1 174 0
  47 0016 0420     		mov	r0, #4
  48 0018 FF30     		add	r0, r0, #255
  49              	.L2:
  50              	.LVL2:
 175:.\Generated_Source\PSoC4/BLE_gatt.c ****     }
 176:.\Generated_Source\PSoC4/BLE_gatt.c ****     
 177:.\Generated_Source\PSoC4/BLE_gatt.c ****     return(apiResult);
 178:.\Generated_Source\PSoC4/BLE_gatt.c **** }
ARM GAS  C:\Users\JOHNSO~1\AppData\Local\Temp\ccvqa3A8.s 			page 5


  51              		.loc 1 178 0
  52              		@ sp needed
  53 001a 08BD     		pop	{r3, pc}
  54              	.L5:
  55              		.align	2
  56              	.L4:
  57 001c 00000000 		.word	cyBle_state
  58 0020 00000000 		.word	.LANCHOR0
  59              		.cfi_endproc
  60              	.LFE2:
  61              		.size	CyBle_GattsReInitGattDb, .-CyBle_GattsReInitGattDb
  62              		.section	.text.CyBle_GattsWriteEventHandler,"ax",%progbits
  63              		.align	2
  64              		.global	CyBle_GattsWriteEventHandler
  65              		.code	16
  66              		.thumb_func
  67              		.type	CyBle_GattsWriteEventHandler, %function
  68              	CyBle_GattsWriteEventHandler:
  69              	.LFB3:
 179:.\Generated_Source\PSoC4/BLE_gatt.c **** 
 180:.\Generated_Source\PSoC4/BLE_gatt.c **** 
 181:.\Generated_Source\PSoC4/BLE_gatt.c **** /****************************************************************************** 
 182:.\Generated_Source\PSoC4/BLE_gatt.c **** ##Function Name: CyBle_GattsWriteEventHandler
 183:.\Generated_Source\PSoC4/BLE_gatt.c **** *******************************************************************************
 184:.\Generated_Source\PSoC4/BLE_gatt.c **** 
 185:.\Generated_Source\PSoC4/BLE_gatt.c **** Summary:
 186:.\Generated_Source\PSoC4/BLE_gatt.c ****  Handles the Write Request Event for GATT service.
 187:.\Generated_Source\PSoC4/BLE_gatt.c **** 
 188:.\Generated_Source\PSoC4/BLE_gatt.c **** Parameters:
 189:.\Generated_Source\PSoC4/BLE_gatt.c ****  *eventParam: The pointer to the data structure specified by the event.
 190:.\Generated_Source\PSoC4/BLE_gatt.c **** 
 191:.\Generated_Source\PSoC4/BLE_gatt.c **** Return:
 192:.\Generated_Source\PSoC4/BLE_gatt.c ****  * CYBLE_GATT_ERR_CODE_T: An API result returns one of the following status 
 193:.\Generated_Source\PSoC4/BLE_gatt.c ****     values
 194:.\Generated_Source\PSoC4/BLE_gatt.c ****  * CYBLE_GATT_ERR_NONE - Write is successful.
 195:.\Generated_Source\PSoC4/BLE_gatt.c **** 
 196:.\Generated_Source\PSoC4/BLE_gatt.c **** ******************************************************************************/
 197:.\Generated_Source\PSoC4/BLE_gatt.c **** CYBLE_GATT_ERR_CODE_T CyBle_GattsWriteEventHandler(CYBLE_GATTS_WRITE_REQ_PARAM_T *eventParam)
 198:.\Generated_Source\PSoC4/BLE_gatt.c **** {
  70              		.loc 1 198 0
  71              		.cfi_startproc
  72              	.LVL3:
  73 0000 38B5     		push	{r3, r4, r5, lr}
  74              		.cfi_def_cfa_offset 16
  75              		.cfi_offset 3, -16
  76              		.cfi_offset 4, -12
  77              		.cfi_offset 5, -8
  78              		.cfi_offset 14, -4
  79 0002 041C     		mov	r4, r0
  80              	.LVL4:
 199:.\Generated_Source\PSoC4/BLE_gatt.c ****     CYBLE_GATT_ERR_CODE_T gattErr = CYBLE_GATT_ERR_NONE;
 200:.\Generated_Source\PSoC4/BLE_gatt.c ****     
 201:.\Generated_Source\PSoC4/BLE_gatt.c ****     /* Client Characteristic Configuration descriptor write request */
 202:.\Generated_Source\PSoC4/BLE_gatt.c ****     if(eventParam->handleValPair.attrHandle == cyBle_gatts.cccdHandle)
  81              		.loc 1 202 0
  82 0004 8389     		ldrh	r3, [r0, #12]
  83 0006 0B2B     		cmp	r3, #11
ARM GAS  C:\Users\JOHNSO~1\AppData\Local\Temp\ccvqa3A8.s 			page 6


  84 0008 1FD1     		bne	.L10
 203:.\Generated_Source\PSoC4/BLE_gatt.c ****     {
 204:.\Generated_Source\PSoC4/BLE_gatt.c ****         /* Store value to database */
 205:.\Generated_Source\PSoC4/BLE_gatt.c ****         gattErr = CyBle_GattsWriteAttributeValue(&eventParam->handleValPair, 0u, 
  85              		.loc 1 205 0
  86 000a 0430     		add	r0, r0, #4
  87              	.LVL5:
  88 000c 0021     		mov	r1, #0
  89 000e 221C     		mov	r2, r4
  90 0010 4023     		mov	r3, #64
  91 0012 FFF7FEFF 		bl	CyBle_GattsWriteAttributeValue
  92              	.LVL6:
  93 0016 051E     		sub	r5, r0, #0
  94              	.LVL7:
 206:.\Generated_Source\PSoC4/BLE_gatt.c ****                         &eventParam->connHandle, CYBLE_GATT_DB_PEER_INITIATED);
 207:.\Generated_Source\PSoC4/BLE_gatt.c ****         
 208:.\Generated_Source\PSoC4/BLE_gatt.c ****         if(CYBLE_GATT_ERR_NONE == gattErr)
  95              		.loc 1 208 0
  96 0018 11D1     		bne	.L8
 209:.\Generated_Source\PSoC4/BLE_gatt.c ****         {
 210:.\Generated_Source\PSoC4/BLE_gatt.c ****             if(CYBLE_IS_INDICATION_ENABLED_IN_PTR(eventParam->handleValPair.value.val))
  97              		.loc 1 210 0
  98 001a 6068     		ldr	r0, [r4, #4]
  99              	.LVL8:
 100 001c FFF7FEFF 		bl	CyBle_Get16ByPtr
 101              	.LVL9:
 102 0020 8307     		lsl	r3, r0, #30
 103 0022 06D5     		bpl	.L9
 211:.\Generated_Source\PSoC4/BLE_gatt.c ****             {
 212:.\Generated_Source\PSoC4/BLE_gatt.c ****                 CyBle_ApplCallback((uint32)CYBLE_EVT_GATTS_INDICATION_ENABLED, eventParam);
 104              		.loc 1 212 0
 105 0024 0A4B     		ldr	r3, .L11
 106 0026 1B68     		ldr	r3, [r3]
 107 0028 8220     		mov	r0, #130
 108 002a 4000     		lsl	r0, r0, #1
 109 002c 211C     		mov	r1, r4
 110 002e 9847     		blx	r3
 111              	.LVL10:
 112 0030 05E0     		b	.L8
 113              	.L9:
 213:.\Generated_Source\PSoC4/BLE_gatt.c ****             }
 214:.\Generated_Source\PSoC4/BLE_gatt.c ****             else
 215:.\Generated_Source\PSoC4/BLE_gatt.c ****             {
 216:.\Generated_Source\PSoC4/BLE_gatt.c ****                 CyBle_ApplCallback((uint32)CYBLE_EVT_GATTS_INDICATION_DISABLED, eventParam);
 114              		.loc 1 216 0
 115 0032 074B     		ldr	r3, .L11
 116 0034 1B68     		ldr	r3, [r3]
 117 0036 0620     		mov	r0, #6
 118 0038 FF30     		add	r0, r0, #255
 119 003a 211C     		mov	r1, r4
 120 003c 9847     		blx	r3
 121              	.LVL11:
 122              	.L8:
 217:.\Generated_Source\PSoC4/BLE_gatt.c ****             }
 218:.\Generated_Source\PSoC4/BLE_gatt.c ****         }
 219:.\Generated_Source\PSoC4/BLE_gatt.c ****         cyBle_eventHandlerFlag &= (uint8)~CYBLE_CALLBACK;
 123              		.loc 1 219 0
ARM GAS  C:\Users\JOHNSO~1\AppData\Local\Temp\ccvqa3A8.s 			page 7


 124 003e 054B     		ldr	r3, .L11+4
 125 0040 1A78     		ldrb	r2, [r3]
 126 0042 0121     		mov	r1, #1
 127 0044 8A43     		bic	r2, r1
 128 0046 1A70     		strb	r2, [r3]
 129 0048 00E0     		b	.L7
 130              	.LVL12:
 131              	.L10:
 199:.\Generated_Source\PSoC4/BLE_gatt.c ****     CYBLE_GATT_ERR_CODE_T gattErr = CYBLE_GATT_ERR_NONE;
 132              		.loc 1 199 0
 133 004a 0025     		mov	r5, #0
 134              	.LVL13:
 135              	.L7:
 220:.\Generated_Source\PSoC4/BLE_gatt.c ****     }
 221:.\Generated_Source\PSoC4/BLE_gatt.c ****     return (gattErr);
 222:.\Generated_Source\PSoC4/BLE_gatt.c **** }
 136              		.loc 1 222 0
 137 004c 281C     		mov	r0, r5
 138              		@ sp needed
 139              	.LVL14:
 140              	.LVL15:
 141 004e 38BD     		pop	{r3, r4, r5, pc}
 142              	.L12:
 143              		.align	2
 144              	.L11:
 145 0050 00000000 		.word	CyBle_ApplCallback
 146 0054 00000000 		.word	cyBle_eventHandlerFlag
 147              		.cfi_endproc
 148              	.LFE3:
 149              		.size	CyBle_GattsWriteEventHandler, .-CyBle_GattsWriteEventHandler
 150              		.global	cyBle_gattDB
 151              		.global	cyBle_attValuesLen
 152              		.global	cyBle_attUuid128
 153              		.comm	cyBle_attValuesCCCD,4,4
 154              		.global	cyBle_attValuesCCCDFlashMemory
 155              		.global	cyBle_gatts
 156              		.comm	cyBle_state,1,1
 157              		.section	.rodata
 158              		.align	7
 159              		.set	.LANCHOR0,. + 0
 160              		.type	cyBle_gattDB, %object
 161              		.size	cyBle_gattDB, 340
 162              	cyBle_gattDB:
 163 0000 0100     		.short	1
 164 0002 0028     		.short	10240
 165 0004 01000000 		.word	1
 166 0008 0700     		.short	7
 167 000a 0000     		.space	2
 168 000c 0018     		.short	6144
 169 000e 0000     		.space	2
 170 0010 00000000 		.word	0
 171 0014 0200     		.short	2
 172 0016 0328     		.short	10243
 173 0018 01020000 		.word	513
 174 001c 0300     		.short	3
 175 001e 0000     		.space	2
 176 0020 002A     		.short	10752
ARM GAS  C:\Users\JOHNSO~1\AppData\Local\Temp\ccvqa3A8.s 			page 8


 177 0022 0000     		.space	2
 178 0024 00000000 		.word	0
 179 0028 0300     		.short	3
 180 002a 002A     		.short	10752
 181 002c 01020000 		.word	513
 182 0030 0300     		.short	3
 183 0032 0000     		.space	2
 184 0034 1700     		.short	23
 185 0036 0000     		.space	2
 186 0038 00000000 		.word	cyBle_attValuesLen
 187 003c 0400     		.short	4
 188 003e 0328     		.short	10243
 189 0040 01020000 		.word	513
 190 0044 0500     		.short	5
 191 0046 0000     		.space	2
 192 0048 012A     		.short	10753
 193 004a 0000     		.space	2
 194 004c 00000000 		.word	0
 195 0050 0500     		.short	5
 196 0052 012A     		.short	10753
 197 0054 01020000 		.word	513
 198 0058 0500     		.short	5
 199 005a 0000     		.space	2
 200 005c 0200     		.short	2
 201 005e 0000     		.space	2
 202 0060 08000000 		.word	cyBle_attValuesLen+8
 203 0064 0600     		.short	6
 204 0066 0328     		.short	10243
 205 0068 01020000 		.word	513
 206 006c 0700     		.short	7
 207 006e 0000     		.space	2
 208 0070 042A     		.short	10756
 209 0072 0000     		.space	2
 210 0074 00000000 		.word	0
 211 0078 0700     		.short	7
 212 007a 042A     		.short	10756
 213 007c 01020000 		.word	513
 214 0080 0700     		.short	7
 215 0082 0000     		.space	2
 216 0084 0800     		.short	8
 217 0086 0000     		.space	2
 218 0088 10000000 		.word	cyBle_attValuesLen+16
 219 008c 0800     		.short	8
 220 008e 0028     		.short	10240
 221 0090 01000000 		.word	1
 222 0094 0B00     		.short	11
 223 0096 0000     		.space	2
 224 0098 0118     		.short	6145
 225 009a 0000     		.space	2
 226 009c 00000000 		.word	0
 227 00a0 0900     		.short	9
 228 00a2 0328     		.short	10243
 229 00a4 01220000 		.word	8705
 230 00a8 0B00     		.short	11
 231 00aa 0000     		.space	2
 232 00ac 052A     		.short	10757
 233 00ae 0000     		.space	2
ARM GAS  C:\Users\JOHNSO~1\AppData\Local\Temp\ccvqa3A8.s 			page 9


 234 00b0 00000000 		.word	0
 235 00b4 0A00     		.short	10
 236 00b6 052A     		.short	10757
 237 00b8 01220000 		.word	8705
 238 00bc 0B00     		.short	11
 239 00be 0000     		.space	2
 240 00c0 0400     		.short	4
 241 00c2 0000     		.space	2
 242 00c4 18000000 		.word	cyBle_attValuesLen+24
 243 00c8 0B00     		.short	11
 244 00ca 0229     		.short	10498
 245 00cc 040A0000 		.word	2564
 246 00d0 0B00     		.short	11
 247 00d2 0000     		.space	2
 248 00d4 0200     		.short	2
 249 00d6 0000     		.space	2
 250 00d8 20000000 		.word	cyBle_attValuesLen+32
 251 00dc 0C00     		.short	12
 252 00de 0028     		.short	10240
 253 00e0 01000800 		.word	524289
 254 00e4 1100     		.short	17
 255 00e6 0000     		.space	2
 256 00e8 1000     		.short	16
 257 00ea 0000     		.space	2
 258 00ec 28000000 		.word	cyBle_attValuesLen+40
 259 00f0 0D00     		.short	13
 260 00f2 0328     		.short	10243
 261 00f4 019A0000 		.word	39425
 262 00f8 1100     		.short	17
 263 00fa 0000     		.space	2
 264 00fc 1000     		.short	16
 265 00fe 0000     		.space	2
 266 0100 30000000 		.word	cyBle_attValuesLen+48
 267 0104 0E00     		.short	14
 268 0106 9828     		.short	10392
 269 0108 049A0800 		.word	563716
 270 010c 1100     		.short	17
 271 010e 0000     		.space	2
 272 0110 0100     		.short	1
 273 0112 0000     		.space	2
 274 0114 38000000 		.word	cyBle_attValuesLen+56
 275 0118 0F00     		.short	15
 276 011a 0000     		.short	0
 277 011c 01000800 		.word	524289
 278 0120 0F00     		.short	15
 279 0122 0000     		.space	2
 280 0124 0100     		.short	1
 281 0126 0000     		.space	2
 282 0128 40000000 		.word	cyBle_attValuesLen+64
 283 012c 1000     		.short	16
 284 012e 0029     		.short	10496
 285 0130 01020000 		.word	513
 286 0134 1000     		.short	16
 287 0136 0000     		.space	2
 288 0138 0200     		.short	2
 289 013a 0000     		.space	2
 290 013c 48000000 		.word	cyBle_attValuesLen+72
ARM GAS  C:\Users\JOHNSO~1\AppData\Local\Temp\ccvqa3A8.s 			page 10


 291 0140 1100     		.short	17
 292 0142 0229     		.short	10498
 293 0144 040A0000 		.word	2564
 294 0148 1100     		.short	17
 295 014a 0000     		.space	2
 296 014c 0200     		.short	2
 297 014e 0000     		.space	2
 298 0150 50000000 		.word	cyBle_attValuesLen+80
 299              		.type	cyBle_attUuid128, %object
 300              		.size	cyBle_attUuid128, 32
 301              	cyBle_attUuid128:
 302 0154 D5       		.byte	-43
 303 0155 B3       		.byte	-77
 304 0156 DB       		.byte	-37
 305 0157 13       		.byte	19
 306 0158 69       		.byte	105
 307 0159 27       		.byte	39
 308 015a 88       		.byte	-120
 309 015b 8D       		.byte	-115
 310 015c 8C       		.byte	-116
 311 015d 42       		.byte	66
 312 015e D2       		.byte	-46
 313 015f E0       		.byte	-32
 314 0160 98       		.byte	-104
 315 0161 28       		.byte	40
 316 0162 77       		.byte	119
 317 0163 23       		.byte	35
 318 0164 D5       		.byte	-43
 319 0165 B3       		.byte	-77
 320 0166 DB       		.byte	-37
 321 0167 13       		.byte	19
 322 0168 69       		.byte	105
 323 0169 27       		.byte	39
 324 016a 88       		.byte	-120
 325 016b 8D       		.byte	-115
 326 016c 8C       		.byte	-116
 327 016d 42       		.byte	66
 328 016e D2       		.byte	-46
 329 016f E0       		.byte	-32
 330 0170 98       		.byte	-104
 331 0171 28       		.byte	40
 332 0172 77       		.byte	119
 333 0173 23       		.byte	35
 334 0174 00000000 		.space	12
 334      00000000 
 334      00000000 
 335              		.type	cyBle_attValuesCCCDFlashMemory, %object
 336              		.size	cyBle_attValuesCCCDFlashMemory, 20
 337              	cyBle_attValuesCCCDFlashMemory:
 338 0180 00000000 		.space	20
 338      00000000 
 338      00000000 
 338      00000000 
 338      00000000 
 339              		.type	cyBle_gatts, %object
 340              		.size	cyBle_gatts, 6
 341              	cyBle_gatts:
ARM GAS  C:\Users\JOHNSO~1\AppData\Local\Temp\ccvqa3A8.s 			page 11


 342 0194 0800     		.short	8
 343 0196 0A00     		.short	10
 344 0198 0B00     		.short	11
 345 019a 00000000 		.data
 345      00000000 
 345      00000000 
 345      00000000 
 345      00000000 
 346              		.align	2
 347              		.type	cyBle_attValuesLen, %object
 348              		.size	cyBle_attValuesLen, 88
 349              	cyBle_attValuesLen:
 350 0000 1700     		.short	23
 351 0002 0000     		.space	2
 352 0004 58000000 		.word	cyBle_attValues
 353 0008 0200     		.short	2
 354 000a 0000     		.space	2
 355 000c 6F000000 		.word	cyBle_attValues+23
 356 0010 0800     		.short	8
 357 0012 0000     		.space	2
 358 0014 71000000 		.word	cyBle_attValues+25
 359 0018 0400     		.short	4
 360 001a 0000     		.space	2
 361 001c 79000000 		.word	cyBle_attValues+33
 362 0020 0200     		.short	2
 363 0022 0000     		.space	2
 364 0024 00000000 		.word	cyBle_attValuesCCCD
 365 0028 1000     		.short	16
 366 002a 0000     		.space	2
 367 002c 00000000 		.word	cyBle_attUuid128
 368 0030 1000     		.short	16
 369 0032 0000     		.space	2
 370 0034 10000000 		.word	cyBle_attUuid128+16
 371 0038 0100     		.short	1
 372 003a 0000     		.space	2
 373 003c 7D000000 		.word	cyBle_attValues+37
 374 0040 1100     		.short	17
 375 0042 0000     		.space	2
 376 0044 7E000000 		.word	cyBle_attValues+38
 377 0048 0200     		.short	2
 378 004a 0000     		.space	2
 379 004c 8F000000 		.word	cyBle_attValues+55
 380 0050 0200     		.short	2
 381 0052 0000     		.space	2
 382 0054 02000000 		.word	cyBle_attValuesCCCD+2
 383              		.type	cyBle_attValues, %object
 384              		.size	cyBle_attValues, 57
 385              	cyBle_attValues:
 386 0058 50       		.byte	80
 387 0059 6E       		.byte	110
 388 005a 65       		.byte	101
 389 005b 75       		.byte	117
 390 005c 6D       		.byte	109
 391 005d 61       		.byte	97
 392 005e 74       		.byte	116
 393 005f 69       		.byte	105
 394 0060 63       		.byte	99
ARM GAS  C:\Users\JOHNSO~1\AppData\Local\Temp\ccvqa3A8.s 			page 12


 395 0061 20       		.byte	32
 396 0062 57       		.byte	87
 397 0063 61       		.byte	97
 398 0064 6C       		.byte	108
 399 0065 6B       		.byte	107
 400 0066 69       		.byte	105
 401 0067 6E       		.byte	110
 402 0068 67       		.byte	103
 403 0069 20       		.byte	32
 404 006a 52       		.byte	82
 405 006b 6F       		.byte	111
 406 006c 62       		.byte	98
 407 006d 6F       		.byte	111
 408 006e 74       		.byte	116
 409 006f 00       		.byte	0
 410 0070 00       		.byte	0
 411 0071 06       		.byte	6
 412 0072 00       		.byte	0
 413 0073 28       		.byte	40
 414 0074 00       		.byte	0
 415 0075 00       		.byte	0
 416 0076 00       		.byte	0
 417 0077 E8       		.byte	-24
 418 0078 03       		.byte	3
 419 0079 00       		.byte	0
 420 007a 00       		.byte	0
 421 007b 00       		.byte	0
 422 007c 00       		.byte	0
 423 007d 00       		.byte	0
 424 007e 00       		.byte	0
 425 007f FB       		.byte	-5
 426 0080 34       		.byte	52
 427 0081 9B       		.byte	-101
 428 0082 5F       		.byte	95
 429 0083 80       		.byte	-128
 430 0084 00       		.byte	0
 431 0085 00       		.byte	0
 432 0086 80       		.byte	-128
 433 0087 00       		.byte	0
 434 0088 10       		.byte	16
 435 0089 00       		.byte	0
 436 008a 00       		.byte	0
 437 008b 00       		.byte	0
 438 008c 00       		.byte	0
 439 008d 00       		.byte	0
 440 008e 00       		.byte	0
 441 008f 01       		.byte	1
 442 0090 00       		.byte	0
 443 0091 000000   		.text
 444              	.Letext0:
 445              		.file 2 ".\\Generated_Source\\PSoC4\\cytypes.h"
 446              		.file 3 ".\\Generated_Source\\PSoC4\\BLE_Stack.h"
 447              		.file 4 ".\\Generated_Source\\PSoC4\\BLE_StackGatt.h"
 448              		.file 5 ".\\Generated_Source\\PSoC4\\BLE_StackGattServer.h"
 449              		.file 6 ".\\Generated_Source\\PSoC4\\BLE_StackGattDb.h"
 450              		.file 7 ".\\Generated_Source\\PSoC4\\BLE.h"
 451              		.file 8 ".\\Generated_Source\\PSoC4\\BLE_gatt.h"
ARM GAS  C:\Users\JOHNSO~1\AppData\Local\Temp\ccvqa3A8.s 			page 13


 452              		.file 9 ".\\Generated_Source\\PSoC4\\BLE_eventHandler.h"
