ARM GAS  C:\Users\JOHNSO~1\AppData\Local\Temp\ccxoB6gk.s 			page 1


   1              		.cpu cortex-m0
   2              		.fpu softvfp
   3              		.eabi_attribute 20, 1
   4              		.eabi_attribute 21, 1
   5              		.eabi_attribute 23, 3
   6              		.eabi_attribute 24, 1
   7              		.eabi_attribute 25, 1
   8              		.eabi_attribute 26, 1
   9              		.eabi_attribute 30, 1
  10              		.eabi_attribute 34, 0
  11              		.eabi_attribute 18, 4
  12              		.code	16
  13              		.file	"BLE_bless_isr.c"
  14              		.text
  15              	.Ltext0:
  16              		.cfi_sections	.debug_frame
  17              		.section	.text.BLE_bless_isr_Interrupt,"ax",%progbits
  18              		.align	2
  19              		.global	BLE_bless_isr_Interrupt
  20              		.code	16
  21              		.thumb_func
  22              		.type	BLE_bless_isr_Interrupt, %function
  23              	BLE_bless_isr_Interrupt:
  24              	.LFB5:
  25              		.file 1 ".\\Generated_Source\\PSoC4\\BLE_bless_isr.c"
   1:.\Generated_Source\PSoC4/BLE_bless_isr.c **** /*******************************************************************************
   2:.\Generated_Source\PSoC4/BLE_bless_isr.c **** * File Name: BLE_bless_isr.c  
   3:.\Generated_Source\PSoC4/BLE_bless_isr.c **** * Version 1.70
   4:.\Generated_Source\PSoC4/BLE_bless_isr.c **** *
   5:.\Generated_Source\PSoC4/BLE_bless_isr.c **** *  Description:
   6:.\Generated_Source\PSoC4/BLE_bless_isr.c **** *   API for controlling the state of an interrupt.
   7:.\Generated_Source\PSoC4/BLE_bless_isr.c **** *
   8:.\Generated_Source\PSoC4/BLE_bless_isr.c **** *
   9:.\Generated_Source\PSoC4/BLE_bless_isr.c **** *  Note:
  10:.\Generated_Source\PSoC4/BLE_bless_isr.c **** *
  11:.\Generated_Source\PSoC4/BLE_bless_isr.c **** ********************************************************************************
  12:.\Generated_Source\PSoC4/BLE_bless_isr.c **** * Copyright 2008-2015, Cypress Semiconductor Corporation.  All rights reserved.
  13:.\Generated_Source\PSoC4/BLE_bless_isr.c **** * You may use this file only in accordance with the license, terms, conditions, 
  14:.\Generated_Source\PSoC4/BLE_bless_isr.c **** * disclaimers, and limitations in the end user license agreement accompanying 
  15:.\Generated_Source\PSoC4/BLE_bless_isr.c **** * the software package with which this file was provided.
  16:.\Generated_Source\PSoC4/BLE_bless_isr.c **** *******************************************************************************/
  17:.\Generated_Source\PSoC4/BLE_bless_isr.c **** 
  18:.\Generated_Source\PSoC4/BLE_bless_isr.c **** 
  19:.\Generated_Source\PSoC4/BLE_bless_isr.c **** #include <cydevice_trm.h>
  20:.\Generated_Source\PSoC4/BLE_bless_isr.c **** #include <CyLib.h>
  21:.\Generated_Source\PSoC4/BLE_bless_isr.c **** #include <BLE_bless_isr.h>
  22:.\Generated_Source\PSoC4/BLE_bless_isr.c **** 
  23:.\Generated_Source\PSoC4/BLE_bless_isr.c **** #if !defined(BLE_bless_isr__REMOVED) /* Check for removal by optimization */
  24:.\Generated_Source\PSoC4/BLE_bless_isr.c **** 
  25:.\Generated_Source\PSoC4/BLE_bless_isr.c **** /*******************************************************************************
  26:.\Generated_Source\PSoC4/BLE_bless_isr.c **** *  Place your includes, defines and code here 
  27:.\Generated_Source\PSoC4/BLE_bless_isr.c **** ********************************************************************************/
  28:.\Generated_Source\PSoC4/BLE_bless_isr.c **** /* `#START BLE_bless_isr_intc` */
  29:.\Generated_Source\PSoC4/BLE_bless_isr.c **** 
  30:.\Generated_Source\PSoC4/BLE_bless_isr.c **** /* `#END` */
  31:.\Generated_Source\PSoC4/BLE_bless_isr.c **** 
  32:.\Generated_Source\PSoC4/BLE_bless_isr.c **** extern cyisraddress CyRamVectors[CYINT_IRQ_BASE + CY_NUM_INTERRUPTS];
ARM GAS  C:\Users\JOHNSO~1\AppData\Local\Temp\ccxoB6gk.s 			page 2


  33:.\Generated_Source\PSoC4/BLE_bless_isr.c **** 
  34:.\Generated_Source\PSoC4/BLE_bless_isr.c **** /* Declared in startup, used to set unused interrupts to. */
  35:.\Generated_Source\PSoC4/BLE_bless_isr.c **** CY_ISR_PROTO(IntDefaultHandler);
  36:.\Generated_Source\PSoC4/BLE_bless_isr.c **** 
  37:.\Generated_Source\PSoC4/BLE_bless_isr.c **** 
  38:.\Generated_Source\PSoC4/BLE_bless_isr.c **** /*******************************************************************************
  39:.\Generated_Source\PSoC4/BLE_bless_isr.c **** * Function Name: BLE_bless_isr_Start
  40:.\Generated_Source\PSoC4/BLE_bless_isr.c **** ********************************************************************************
  41:.\Generated_Source\PSoC4/BLE_bless_isr.c **** *
  42:.\Generated_Source\PSoC4/BLE_bless_isr.c **** * Summary:
  43:.\Generated_Source\PSoC4/BLE_bless_isr.c **** *  Set up the interrupt and enable it. This function disables the interrupt, 
  44:.\Generated_Source\PSoC4/BLE_bless_isr.c **** *  sets the default interrupt vector, sets the priority from the value in the
  45:.\Generated_Source\PSoC4/BLE_bless_isr.c **** *  Design Wide Resources Interrupt Editor, then enables the interrupt to the 
  46:.\Generated_Source\PSoC4/BLE_bless_isr.c **** *  interrupt controller.
  47:.\Generated_Source\PSoC4/BLE_bless_isr.c **** *
  48:.\Generated_Source\PSoC4/BLE_bless_isr.c **** * Parameters:  
  49:.\Generated_Source\PSoC4/BLE_bless_isr.c **** *   None
  50:.\Generated_Source\PSoC4/BLE_bless_isr.c **** *
  51:.\Generated_Source\PSoC4/BLE_bless_isr.c **** * Return:
  52:.\Generated_Source\PSoC4/BLE_bless_isr.c **** *   None
  53:.\Generated_Source\PSoC4/BLE_bless_isr.c **** *
  54:.\Generated_Source\PSoC4/BLE_bless_isr.c **** *******************************************************************************/
  55:.\Generated_Source\PSoC4/BLE_bless_isr.c **** void BLE_bless_isr_Start(void)
  56:.\Generated_Source\PSoC4/BLE_bless_isr.c **** {
  57:.\Generated_Source\PSoC4/BLE_bless_isr.c ****     /* For all we know the interrupt is active. */
  58:.\Generated_Source\PSoC4/BLE_bless_isr.c ****     BLE_bless_isr_Disable();
  59:.\Generated_Source\PSoC4/BLE_bless_isr.c **** 
  60:.\Generated_Source\PSoC4/BLE_bless_isr.c ****     /* Set the ISR to point to the BLE_bless_isr Interrupt. */
  61:.\Generated_Source\PSoC4/BLE_bless_isr.c ****     BLE_bless_isr_SetVector(&BLE_bless_isr_Interrupt);
  62:.\Generated_Source\PSoC4/BLE_bless_isr.c **** 
  63:.\Generated_Source\PSoC4/BLE_bless_isr.c ****     /* Set the priority. */
  64:.\Generated_Source\PSoC4/BLE_bless_isr.c ****     BLE_bless_isr_SetPriority((uint8)BLE_bless_isr_INTC_PRIOR_NUMBER);
  65:.\Generated_Source\PSoC4/BLE_bless_isr.c **** 
  66:.\Generated_Source\PSoC4/BLE_bless_isr.c ****     /* Enable it. */
  67:.\Generated_Source\PSoC4/BLE_bless_isr.c ****     BLE_bless_isr_Enable();
  68:.\Generated_Source\PSoC4/BLE_bless_isr.c **** }
  69:.\Generated_Source\PSoC4/BLE_bless_isr.c **** 
  70:.\Generated_Source\PSoC4/BLE_bless_isr.c **** 
  71:.\Generated_Source\PSoC4/BLE_bless_isr.c **** /*******************************************************************************
  72:.\Generated_Source\PSoC4/BLE_bless_isr.c **** * Function Name: BLE_bless_isr_StartEx
  73:.\Generated_Source\PSoC4/BLE_bless_isr.c **** ********************************************************************************
  74:.\Generated_Source\PSoC4/BLE_bless_isr.c **** *
  75:.\Generated_Source\PSoC4/BLE_bless_isr.c **** * Summary:
  76:.\Generated_Source\PSoC4/BLE_bless_isr.c **** *  Sets up the interrupt and enables it. This function disables the interrupt,
  77:.\Generated_Source\PSoC4/BLE_bless_isr.c **** *  sets the interrupt vector based on the address passed in, sets the priority 
  78:.\Generated_Source\PSoC4/BLE_bless_isr.c **** *  from the value in the Design Wide Resources Interrupt Editor, then enables 
  79:.\Generated_Source\PSoC4/BLE_bless_isr.c **** *  the interrupt to the interrupt controller.
  80:.\Generated_Source\PSoC4/BLE_bless_isr.c **** *  
  81:.\Generated_Source\PSoC4/BLE_bless_isr.c **** *  When defining ISR functions, the CY_ISR and CY_ISR_PROTO macros should be 
  82:.\Generated_Source\PSoC4/BLE_bless_isr.c **** *  used to provide consistent definition across compilers:
  83:.\Generated_Source\PSoC4/BLE_bless_isr.c **** *  
  84:.\Generated_Source\PSoC4/BLE_bless_isr.c **** *  Function definition example:
  85:.\Generated_Source\PSoC4/BLE_bless_isr.c **** *   CY_ISR(MyISR)
  86:.\Generated_Source\PSoC4/BLE_bless_isr.c **** *   {
  87:.\Generated_Source\PSoC4/BLE_bless_isr.c **** *   }
  88:.\Generated_Source\PSoC4/BLE_bless_isr.c **** *   Function prototype example:
  89:.\Generated_Source\PSoC4/BLE_bless_isr.c **** *   CY_ISR_PROTO(MyISR);
ARM GAS  C:\Users\JOHNSO~1\AppData\Local\Temp\ccxoB6gk.s 			page 3


  90:.\Generated_Source\PSoC4/BLE_bless_isr.c **** *
  91:.\Generated_Source\PSoC4/BLE_bless_isr.c **** * Parameters:  
  92:.\Generated_Source\PSoC4/BLE_bless_isr.c **** *   address: Address of the ISR to set in the interrupt vector table.
  93:.\Generated_Source\PSoC4/BLE_bless_isr.c **** *
  94:.\Generated_Source\PSoC4/BLE_bless_isr.c **** * Return:
  95:.\Generated_Source\PSoC4/BLE_bless_isr.c **** *   None
  96:.\Generated_Source\PSoC4/BLE_bless_isr.c **** *
  97:.\Generated_Source\PSoC4/BLE_bless_isr.c **** *******************************************************************************/
  98:.\Generated_Source\PSoC4/BLE_bless_isr.c **** void BLE_bless_isr_StartEx(cyisraddress address)
  99:.\Generated_Source\PSoC4/BLE_bless_isr.c **** {
 100:.\Generated_Source\PSoC4/BLE_bless_isr.c ****     /* For all we know the interrupt is active. */
 101:.\Generated_Source\PSoC4/BLE_bless_isr.c ****     BLE_bless_isr_Disable();
 102:.\Generated_Source\PSoC4/BLE_bless_isr.c **** 
 103:.\Generated_Source\PSoC4/BLE_bless_isr.c ****     /* Set the ISR to point to the BLE_bless_isr Interrupt. */
 104:.\Generated_Source\PSoC4/BLE_bless_isr.c ****     BLE_bless_isr_SetVector(address);
 105:.\Generated_Source\PSoC4/BLE_bless_isr.c **** 
 106:.\Generated_Source\PSoC4/BLE_bless_isr.c ****     /* Set the priority. */
 107:.\Generated_Source\PSoC4/BLE_bless_isr.c ****     BLE_bless_isr_SetPriority((uint8)BLE_bless_isr_INTC_PRIOR_NUMBER);
 108:.\Generated_Source\PSoC4/BLE_bless_isr.c **** 
 109:.\Generated_Source\PSoC4/BLE_bless_isr.c ****     /* Enable it. */
 110:.\Generated_Source\PSoC4/BLE_bless_isr.c ****     BLE_bless_isr_Enable();
 111:.\Generated_Source\PSoC4/BLE_bless_isr.c **** }
 112:.\Generated_Source\PSoC4/BLE_bless_isr.c **** 
 113:.\Generated_Source\PSoC4/BLE_bless_isr.c **** 
 114:.\Generated_Source\PSoC4/BLE_bless_isr.c **** /*******************************************************************************
 115:.\Generated_Source\PSoC4/BLE_bless_isr.c **** * Function Name: BLE_bless_isr_Stop
 116:.\Generated_Source\PSoC4/BLE_bless_isr.c **** ********************************************************************************
 117:.\Generated_Source\PSoC4/BLE_bless_isr.c **** *
 118:.\Generated_Source\PSoC4/BLE_bless_isr.c **** * Summary:
 119:.\Generated_Source\PSoC4/BLE_bless_isr.c **** *   Disables and removes the interrupt.
 120:.\Generated_Source\PSoC4/BLE_bless_isr.c **** *
 121:.\Generated_Source\PSoC4/BLE_bless_isr.c **** * Parameters:  
 122:.\Generated_Source\PSoC4/BLE_bless_isr.c **** *   None
 123:.\Generated_Source\PSoC4/BLE_bless_isr.c **** *
 124:.\Generated_Source\PSoC4/BLE_bless_isr.c **** * Return:
 125:.\Generated_Source\PSoC4/BLE_bless_isr.c **** *   None
 126:.\Generated_Source\PSoC4/BLE_bless_isr.c **** *
 127:.\Generated_Source\PSoC4/BLE_bless_isr.c **** *******************************************************************************/
 128:.\Generated_Source\PSoC4/BLE_bless_isr.c **** void BLE_bless_isr_Stop(void)
 129:.\Generated_Source\PSoC4/BLE_bless_isr.c **** {
 130:.\Generated_Source\PSoC4/BLE_bless_isr.c ****     /* Disable this interrupt. */
 131:.\Generated_Source\PSoC4/BLE_bless_isr.c ****     BLE_bless_isr_Disable();
 132:.\Generated_Source\PSoC4/BLE_bless_isr.c **** 
 133:.\Generated_Source\PSoC4/BLE_bless_isr.c ****     /* Set the ISR to point to the passive one. */
 134:.\Generated_Source\PSoC4/BLE_bless_isr.c ****     BLE_bless_isr_SetVector(&IntDefaultHandler);
 135:.\Generated_Source\PSoC4/BLE_bless_isr.c **** }
 136:.\Generated_Source\PSoC4/BLE_bless_isr.c **** 
 137:.\Generated_Source\PSoC4/BLE_bless_isr.c **** 
 138:.\Generated_Source\PSoC4/BLE_bless_isr.c **** /*******************************************************************************
 139:.\Generated_Source\PSoC4/BLE_bless_isr.c **** * Function Name: BLE_bless_isr_Interrupt
 140:.\Generated_Source\PSoC4/BLE_bless_isr.c **** ********************************************************************************
 141:.\Generated_Source\PSoC4/BLE_bless_isr.c **** *
 142:.\Generated_Source\PSoC4/BLE_bless_isr.c **** * Summary:
 143:.\Generated_Source\PSoC4/BLE_bless_isr.c **** *   The default Interrupt Service Routine for BLE_bless_isr.
 144:.\Generated_Source\PSoC4/BLE_bless_isr.c **** *
 145:.\Generated_Source\PSoC4/BLE_bless_isr.c **** *   Add custom code between the START and END comments to keep the next version
 146:.\Generated_Source\PSoC4/BLE_bless_isr.c **** *   of this file from over-writing your code.
ARM GAS  C:\Users\JOHNSO~1\AppData\Local\Temp\ccxoB6gk.s 			page 4


 147:.\Generated_Source\PSoC4/BLE_bless_isr.c **** *
 148:.\Generated_Source\PSoC4/BLE_bless_isr.c **** *   Note You may use either the default ISR by using this API, or you may define
 149:.\Generated_Source\PSoC4/BLE_bless_isr.c **** *   your own separate ISR through ISR_StartEx().
 150:.\Generated_Source\PSoC4/BLE_bless_isr.c **** *
 151:.\Generated_Source\PSoC4/BLE_bless_isr.c **** * Parameters:  
 152:.\Generated_Source\PSoC4/BLE_bless_isr.c **** *   None
 153:.\Generated_Source\PSoC4/BLE_bless_isr.c **** *
 154:.\Generated_Source\PSoC4/BLE_bless_isr.c **** * Return:
 155:.\Generated_Source\PSoC4/BLE_bless_isr.c **** *   None
 156:.\Generated_Source\PSoC4/BLE_bless_isr.c **** *
 157:.\Generated_Source\PSoC4/BLE_bless_isr.c **** *******************************************************************************/
 158:.\Generated_Source\PSoC4/BLE_bless_isr.c **** CY_ISR(BLE_bless_isr_Interrupt)
 159:.\Generated_Source\PSoC4/BLE_bless_isr.c **** {
  26              		.loc 1 159 0
  27              		.cfi_startproc
 160:.\Generated_Source\PSoC4/BLE_bless_isr.c ****     /*  Place your Interrupt code here. */
 161:.\Generated_Source\PSoC4/BLE_bless_isr.c ****     /* `#START BLE_bless_isr_Interrupt` */
 162:.\Generated_Source\PSoC4/BLE_bless_isr.c **** 
 163:.\Generated_Source\PSoC4/BLE_bless_isr.c ****     /* `#END` */
 164:.\Generated_Source\PSoC4/BLE_bless_isr.c **** }
  28              		.loc 1 164 0
  29              		@ sp needed
  30 0000 7047     		bx	lr
  31              		.cfi_endproc
  32              	.LFE5:
  33              		.size	BLE_bless_isr_Interrupt, .-BLE_bless_isr_Interrupt
  34 0002 C046     		.section	.text.BLE_bless_isr_SetVector,"ax",%progbits
  35              		.align	2
  36              		.global	BLE_bless_isr_SetVector
  37              		.code	16
  38              		.thumb_func
  39              		.type	BLE_bless_isr_SetVector, %function
  40              	BLE_bless_isr_SetVector:
  41              	.LFB6:
 165:.\Generated_Source\PSoC4/BLE_bless_isr.c **** 
 166:.\Generated_Source\PSoC4/BLE_bless_isr.c **** 
 167:.\Generated_Source\PSoC4/BLE_bless_isr.c **** /*******************************************************************************
 168:.\Generated_Source\PSoC4/BLE_bless_isr.c **** * Function Name: BLE_bless_isr_SetVector
 169:.\Generated_Source\PSoC4/BLE_bless_isr.c **** ********************************************************************************
 170:.\Generated_Source\PSoC4/BLE_bless_isr.c **** *
 171:.\Generated_Source\PSoC4/BLE_bless_isr.c **** * Summary:
 172:.\Generated_Source\PSoC4/BLE_bless_isr.c **** *   Change the ISR vector for the Interrupt. Note calling BLE_bless_isr_Start
 173:.\Generated_Source\PSoC4/BLE_bless_isr.c **** *   will override any effect this method would have had. To set the vector 
 174:.\Generated_Source\PSoC4/BLE_bless_isr.c **** *   before the component has been started use BLE_bless_isr_StartEx instead.
 175:.\Generated_Source\PSoC4/BLE_bless_isr.c **** * 
 176:.\Generated_Source\PSoC4/BLE_bless_isr.c **** *   When defining ISR functions, the CY_ISR and CY_ISR_PROTO macros should be 
 177:.\Generated_Source\PSoC4/BLE_bless_isr.c **** *   used to provide consistent definition across compilers:
 178:.\Generated_Source\PSoC4/BLE_bless_isr.c **** *
 179:.\Generated_Source\PSoC4/BLE_bless_isr.c **** *   Function definition example:
 180:.\Generated_Source\PSoC4/BLE_bless_isr.c **** *   CY_ISR(MyISR)
 181:.\Generated_Source\PSoC4/BLE_bless_isr.c **** *   {
 182:.\Generated_Source\PSoC4/BLE_bless_isr.c **** *   }
 183:.\Generated_Source\PSoC4/BLE_bless_isr.c **** *
 184:.\Generated_Source\PSoC4/BLE_bless_isr.c **** *   Function prototype example:
 185:.\Generated_Source\PSoC4/BLE_bless_isr.c **** *     CY_ISR_PROTO(MyISR);
 186:.\Generated_Source\PSoC4/BLE_bless_isr.c **** *
 187:.\Generated_Source\PSoC4/BLE_bless_isr.c **** * Parameters:
ARM GAS  C:\Users\JOHNSO~1\AppData\Local\Temp\ccxoB6gk.s 			page 5


 188:.\Generated_Source\PSoC4/BLE_bless_isr.c **** *   address: Address of the ISR to set in the interrupt vector table.
 189:.\Generated_Source\PSoC4/BLE_bless_isr.c **** *
 190:.\Generated_Source\PSoC4/BLE_bless_isr.c **** * Return:
 191:.\Generated_Source\PSoC4/BLE_bless_isr.c **** *   None
 192:.\Generated_Source\PSoC4/BLE_bless_isr.c **** *
 193:.\Generated_Source\PSoC4/BLE_bless_isr.c **** *******************************************************************************/
 194:.\Generated_Source\PSoC4/BLE_bless_isr.c **** void BLE_bless_isr_SetVector(cyisraddress address)
 195:.\Generated_Source\PSoC4/BLE_bless_isr.c **** {
  42              		.loc 1 195 0
  43              		.cfi_startproc
  44              	.LVL0:
 196:.\Generated_Source\PSoC4/BLE_bless_isr.c ****     CyRamVectors[CYINT_IRQ_BASE + BLE_bless_isr__INTC_NUMBER] = address;
  45              		.loc 1 196 0
  46 0000 014B     		ldr	r3, .L3
  47 0002 1867     		str	r0, [r3, #112]
 197:.\Generated_Source\PSoC4/BLE_bless_isr.c **** }
  48              		.loc 1 197 0
  49              		@ sp needed
  50 0004 7047     		bx	lr
  51              	.L4:
  52 0006 C046     		.align	2
  53              	.L3:
  54 0008 00000000 		.word	CyRamVectors
  55              		.cfi_endproc
  56              	.LFE6:
  57              		.size	BLE_bless_isr_SetVector, .-BLE_bless_isr_SetVector
  58              		.section	.text.BLE_bless_isr_GetVector,"ax",%progbits
  59              		.align	2
  60              		.global	BLE_bless_isr_GetVector
  61              		.code	16
  62              		.thumb_func
  63              		.type	BLE_bless_isr_GetVector, %function
  64              	BLE_bless_isr_GetVector:
  65              	.LFB7:
 198:.\Generated_Source\PSoC4/BLE_bless_isr.c **** 
 199:.\Generated_Source\PSoC4/BLE_bless_isr.c **** 
 200:.\Generated_Source\PSoC4/BLE_bless_isr.c **** /*******************************************************************************
 201:.\Generated_Source\PSoC4/BLE_bless_isr.c **** * Function Name: BLE_bless_isr_GetVector
 202:.\Generated_Source\PSoC4/BLE_bless_isr.c **** ********************************************************************************
 203:.\Generated_Source\PSoC4/BLE_bless_isr.c **** *
 204:.\Generated_Source\PSoC4/BLE_bless_isr.c **** * Summary:
 205:.\Generated_Source\PSoC4/BLE_bless_isr.c **** *   Gets the "address" of the current ISR vector for the Interrupt.
 206:.\Generated_Source\PSoC4/BLE_bless_isr.c **** *
 207:.\Generated_Source\PSoC4/BLE_bless_isr.c **** * Parameters:
 208:.\Generated_Source\PSoC4/BLE_bless_isr.c **** *   None
 209:.\Generated_Source\PSoC4/BLE_bless_isr.c **** *
 210:.\Generated_Source\PSoC4/BLE_bless_isr.c **** * Return:
 211:.\Generated_Source\PSoC4/BLE_bless_isr.c **** *   Address of the ISR in the interrupt vector table.
 212:.\Generated_Source\PSoC4/BLE_bless_isr.c **** *
 213:.\Generated_Source\PSoC4/BLE_bless_isr.c **** *******************************************************************************/
 214:.\Generated_Source\PSoC4/BLE_bless_isr.c **** cyisraddress BLE_bless_isr_GetVector(void)
 215:.\Generated_Source\PSoC4/BLE_bless_isr.c **** {
  66              		.loc 1 215 0
  67              		.cfi_startproc
 216:.\Generated_Source\PSoC4/BLE_bless_isr.c ****     return CyRamVectors[CYINT_IRQ_BASE + BLE_bless_isr__INTC_NUMBER];
  68              		.loc 1 216 0
  69 0000 014B     		ldr	r3, .L6
ARM GAS  C:\Users\JOHNSO~1\AppData\Local\Temp\ccxoB6gk.s 			page 6


  70 0002 186F     		ldr	r0, [r3, #112]
 217:.\Generated_Source\PSoC4/BLE_bless_isr.c **** }
  71              		.loc 1 217 0
  72              		@ sp needed
  73 0004 7047     		bx	lr
  74              	.L7:
  75 0006 C046     		.align	2
  76              	.L6:
  77 0008 00000000 		.word	CyRamVectors
  78              		.cfi_endproc
  79              	.LFE7:
  80              		.size	BLE_bless_isr_GetVector, .-BLE_bless_isr_GetVector
  81              		.section	.text.BLE_bless_isr_SetPriority,"ax",%progbits
  82              		.align	2
  83              		.global	BLE_bless_isr_SetPriority
  84              		.code	16
  85              		.thumb_func
  86              		.type	BLE_bless_isr_SetPriority, %function
  87              	BLE_bless_isr_SetPriority:
  88              	.LFB8:
 218:.\Generated_Source\PSoC4/BLE_bless_isr.c **** 
 219:.\Generated_Source\PSoC4/BLE_bless_isr.c **** 
 220:.\Generated_Source\PSoC4/BLE_bless_isr.c **** /*******************************************************************************
 221:.\Generated_Source\PSoC4/BLE_bless_isr.c **** * Function Name: BLE_bless_isr_SetPriority
 222:.\Generated_Source\PSoC4/BLE_bless_isr.c **** ********************************************************************************
 223:.\Generated_Source\PSoC4/BLE_bless_isr.c **** *
 224:.\Generated_Source\PSoC4/BLE_bless_isr.c **** * Summary:
 225:.\Generated_Source\PSoC4/BLE_bless_isr.c **** *   Sets the Priority of the Interrupt. 
 226:.\Generated_Source\PSoC4/BLE_bless_isr.c **** *
 227:.\Generated_Source\PSoC4/BLE_bless_isr.c **** *   Note calling BLE_bless_isr_Start or BLE_bless_isr_StartEx will 
 228:.\Generated_Source\PSoC4/BLE_bless_isr.c **** *   override any effect this API would have had. This API should only be called
 229:.\Generated_Source\PSoC4/BLE_bless_isr.c **** *   after BLE_bless_isr_Start or BLE_bless_isr_StartEx has been called. 
 230:.\Generated_Source\PSoC4/BLE_bless_isr.c **** *   To set the initial priority for the component, use the Design-Wide Resources
 231:.\Generated_Source\PSoC4/BLE_bless_isr.c **** *   Interrupt Editor.
 232:.\Generated_Source\PSoC4/BLE_bless_isr.c **** *
 233:.\Generated_Source\PSoC4/BLE_bless_isr.c **** *   Note This API has no effect on Non-maskable interrupt NMI).
 234:.\Generated_Source\PSoC4/BLE_bless_isr.c **** *
 235:.\Generated_Source\PSoC4/BLE_bless_isr.c **** * Parameters:
 236:.\Generated_Source\PSoC4/BLE_bless_isr.c **** *   priority: Priority of the interrupt, 0 being the highest priority
 237:.\Generated_Source\PSoC4/BLE_bless_isr.c **** *             PSoC 3 and PSoC 5LP: Priority is from 0 to 7.
 238:.\Generated_Source\PSoC4/BLE_bless_isr.c **** *             PSoC 4: Priority is from 0 to 3.
 239:.\Generated_Source\PSoC4/BLE_bless_isr.c **** *
 240:.\Generated_Source\PSoC4/BLE_bless_isr.c **** * Return:
 241:.\Generated_Source\PSoC4/BLE_bless_isr.c **** *   None
 242:.\Generated_Source\PSoC4/BLE_bless_isr.c **** *
 243:.\Generated_Source\PSoC4/BLE_bless_isr.c **** *******************************************************************************/
 244:.\Generated_Source\PSoC4/BLE_bless_isr.c **** void BLE_bless_isr_SetPriority(uint8 priority)
 245:.\Generated_Source\PSoC4/BLE_bless_isr.c **** {
  89              		.loc 1 245 0
  90              		.cfi_startproc
  91              	.LVL1:
  92 0000 10B5     		push	{r4, lr}
  93              		.cfi_def_cfa_offset 8
  94              		.cfi_offset 4, -8
  95              		.cfi_offset 14, -4
  96 0002 041C     		mov	r4, r0
  97              	.LVL2:
ARM GAS  C:\Users\JOHNSO~1\AppData\Local\Temp\ccxoB6gk.s 			page 7


 246:.\Generated_Source\PSoC4/BLE_bless_isr.c **** 	uint8 interruptState;
 247:.\Generated_Source\PSoC4/BLE_bless_isr.c ****     uint32 priorityOffset = ((BLE_bless_isr__INTC_NUMBER % 4u) * 8u) + 6u;
 248:.\Generated_Source\PSoC4/BLE_bless_isr.c ****     
 249:.\Generated_Source\PSoC4/BLE_bless_isr.c **** 	interruptState = CyEnterCriticalSection();
  98              		.loc 1 249 0
  99 0004 FFF7FEFF 		bl	CyEnterCriticalSection
 100              	.LVL3:
 250:.\Generated_Source\PSoC4/BLE_bless_isr.c ****     *BLE_bless_isr_INTC_PRIOR = (*BLE_bless_isr_INTC_PRIOR & (uint32)(~BLE_bless_isr__INTC_PRIOR_MA
 101              		.loc 1 250 0
 102 0008 054B     		ldr	r3, .L9
 103 000a 1968     		ldr	r1, [r3]
 104 000c C022     		mov	r2, #192
 105 000e 9143     		bic	r1, r2
 251:.\Generated_Source\PSoC4/BLE_bless_isr.c ****                                     ((uint32)priority << priorityOffset);
 106              		.loc 1 251 0
 107 0010 A201     		lsl	r2, r4, #6
 250:.\Generated_Source\PSoC4/BLE_bless_isr.c ****     *BLE_bless_isr_INTC_PRIOR = (*BLE_bless_isr_INTC_PRIOR & (uint32)(~BLE_bless_isr__INTC_PRIOR_MA
 108              		.loc 1 250 0
 109 0012 0C1C     		mov	r4, r1
 110 0014 1443     		orr	r4, r2
 111 0016 1C60     		str	r4, [r3]
 252:.\Generated_Source\PSoC4/BLE_bless_isr.c **** 	CyExitCriticalSection(interruptState);
 112              		.loc 1 252 0
 113 0018 FFF7FEFF 		bl	CyExitCriticalSection
 114              	.LVL4:
 253:.\Generated_Source\PSoC4/BLE_bless_isr.c **** }
 115              		.loc 1 253 0
 116              		@ sp needed
 117 001c 10BD     		pop	{r4, pc}
 118              	.L10:
 119 001e C046     		.align	2
 120              	.L9:
 121 0020 0CE400E0 		.word	-536812532
 122              		.cfi_endproc
 123              	.LFE8:
 124              		.size	BLE_bless_isr_SetPriority, .-BLE_bless_isr_SetPriority
 125              		.section	.text.BLE_bless_isr_GetPriority,"ax",%progbits
 126              		.align	2
 127              		.global	BLE_bless_isr_GetPriority
 128              		.code	16
 129              		.thumb_func
 130              		.type	BLE_bless_isr_GetPriority, %function
 131              	BLE_bless_isr_GetPriority:
 132              	.LFB9:
 254:.\Generated_Source\PSoC4/BLE_bless_isr.c **** 
 255:.\Generated_Source\PSoC4/BLE_bless_isr.c **** 
 256:.\Generated_Source\PSoC4/BLE_bless_isr.c **** /*******************************************************************************
 257:.\Generated_Source\PSoC4/BLE_bless_isr.c **** * Function Name: BLE_bless_isr_GetPriority
 258:.\Generated_Source\PSoC4/BLE_bless_isr.c **** ********************************************************************************
 259:.\Generated_Source\PSoC4/BLE_bless_isr.c **** *
 260:.\Generated_Source\PSoC4/BLE_bless_isr.c **** * Summary:
 261:.\Generated_Source\PSoC4/BLE_bless_isr.c **** *   Gets the Priority of the Interrupt.
 262:.\Generated_Source\PSoC4/BLE_bless_isr.c **** *
 263:.\Generated_Source\PSoC4/BLE_bless_isr.c **** * Parameters:
 264:.\Generated_Source\PSoC4/BLE_bless_isr.c **** *   None
 265:.\Generated_Source\PSoC4/BLE_bless_isr.c **** *
 266:.\Generated_Source\PSoC4/BLE_bless_isr.c **** * Return:
ARM GAS  C:\Users\JOHNSO~1\AppData\Local\Temp\ccxoB6gk.s 			page 8


 267:.\Generated_Source\PSoC4/BLE_bless_isr.c **** *   Priority of the interrupt, 0 being the highest priority
 268:.\Generated_Source\PSoC4/BLE_bless_isr.c **** *    PSoC 3 and PSoC 5LP: Priority is from 0 to 7.
 269:.\Generated_Source\PSoC4/BLE_bless_isr.c **** *    PSoC 4: Priority is from 0 to 3.
 270:.\Generated_Source\PSoC4/BLE_bless_isr.c **** *
 271:.\Generated_Source\PSoC4/BLE_bless_isr.c **** *******************************************************************************/
 272:.\Generated_Source\PSoC4/BLE_bless_isr.c **** uint8 BLE_bless_isr_GetPriority(void)
 273:.\Generated_Source\PSoC4/BLE_bless_isr.c **** {
 133              		.loc 1 273 0
 134              		.cfi_startproc
 135              	.LVL5:
 274:.\Generated_Source\PSoC4/BLE_bless_isr.c ****     uint32 priority;
 275:.\Generated_Source\PSoC4/BLE_bless_isr.c **** 	uint32 priorityOffset = ((BLE_bless_isr__INTC_NUMBER % 4u) * 8u) + 6u;
 276:.\Generated_Source\PSoC4/BLE_bless_isr.c **** 
 277:.\Generated_Source\PSoC4/BLE_bless_isr.c ****     priority = (*BLE_bless_isr_INTC_PRIOR & BLE_bless_isr__INTC_PRIOR_MASK) >> priorityOffset;
 136              		.loc 1 277 0
 137 0000 024B     		ldr	r3, .L12
 138 0002 1868     		ldr	r0, [r3]
 139 0004 0006     		lsl	r0, r0, #24
 140              	.LVL6:
 278:.\Generated_Source\PSoC4/BLE_bless_isr.c **** 
 279:.\Generated_Source\PSoC4/BLE_bless_isr.c ****     return (uint8)priority;
 141              		.loc 1 279 0
 142 0006 800F     		lsr	r0, r0, #30
 143              	.LVL7:
 280:.\Generated_Source\PSoC4/BLE_bless_isr.c **** }
 144              		.loc 1 280 0
 145              		@ sp needed
 146 0008 7047     		bx	lr
 147              	.L13:
 148 000a C046     		.align	2
 149              	.L12:
 150 000c 0CE400E0 		.word	-536812532
 151              		.cfi_endproc
 152              	.LFE9:
 153              		.size	BLE_bless_isr_GetPriority, .-BLE_bless_isr_GetPriority
 154              		.section	.text.BLE_bless_isr_Enable,"ax",%progbits
 155              		.align	2
 156              		.global	BLE_bless_isr_Enable
 157              		.code	16
 158              		.thumb_func
 159              		.type	BLE_bless_isr_Enable, %function
 160              	BLE_bless_isr_Enable:
 161              	.LFB10:
 281:.\Generated_Source\PSoC4/BLE_bless_isr.c **** 
 282:.\Generated_Source\PSoC4/BLE_bless_isr.c **** 
 283:.\Generated_Source\PSoC4/BLE_bless_isr.c **** /*******************************************************************************
 284:.\Generated_Source\PSoC4/BLE_bless_isr.c **** * Function Name: BLE_bless_isr_Enable
 285:.\Generated_Source\PSoC4/BLE_bless_isr.c **** ********************************************************************************
 286:.\Generated_Source\PSoC4/BLE_bless_isr.c **** *
 287:.\Generated_Source\PSoC4/BLE_bless_isr.c **** * Summary:
 288:.\Generated_Source\PSoC4/BLE_bless_isr.c **** *   Enables the interrupt to the interrupt controller. Do not call this function
 289:.\Generated_Source\PSoC4/BLE_bless_isr.c **** *   unless ISR_Start() has been called or the functionality of the ISR_Start() 
 290:.\Generated_Source\PSoC4/BLE_bless_isr.c **** *   function, which sets the vector and the priority, has been called.
 291:.\Generated_Source\PSoC4/BLE_bless_isr.c **** *
 292:.\Generated_Source\PSoC4/BLE_bless_isr.c **** * Parameters:
 293:.\Generated_Source\PSoC4/BLE_bless_isr.c **** *   None
 294:.\Generated_Source\PSoC4/BLE_bless_isr.c **** *
ARM GAS  C:\Users\JOHNSO~1\AppData\Local\Temp\ccxoB6gk.s 			page 9


 295:.\Generated_Source\PSoC4/BLE_bless_isr.c **** * Return:
 296:.\Generated_Source\PSoC4/BLE_bless_isr.c **** *   None
 297:.\Generated_Source\PSoC4/BLE_bless_isr.c **** *
 298:.\Generated_Source\PSoC4/BLE_bless_isr.c **** *******************************************************************************/
 299:.\Generated_Source\PSoC4/BLE_bless_isr.c **** void BLE_bless_isr_Enable(void)
 300:.\Generated_Source\PSoC4/BLE_bless_isr.c **** {
 162              		.loc 1 300 0
 163              		.cfi_startproc
 301:.\Generated_Source\PSoC4/BLE_bless_isr.c ****     /* Enable the general interrupt. */
 302:.\Generated_Source\PSoC4/BLE_bless_isr.c ****     *BLE_bless_isr_INTC_SET_EN = BLE_bless_isr__INTC_MASK;
 164              		.loc 1 302 0
 165 0000 8022     		mov	r2, #128
 166 0002 5201     		lsl	r2, r2, #5
 167 0004 014B     		ldr	r3, .L15
 168 0006 1A60     		str	r2, [r3]
 303:.\Generated_Source\PSoC4/BLE_bless_isr.c **** }
 169              		.loc 1 303 0
 170              		@ sp needed
 171 0008 7047     		bx	lr
 172              	.L16:
 173 000a C046     		.align	2
 174              	.L15:
 175 000c 00E100E0 		.word	-536813312
 176              		.cfi_endproc
 177              	.LFE10:
 178              		.size	BLE_bless_isr_Enable, .-BLE_bless_isr_Enable
 179              		.section	.text.BLE_bless_isr_GetState,"ax",%progbits
 180              		.align	2
 181              		.global	BLE_bless_isr_GetState
 182              		.code	16
 183              		.thumb_func
 184              		.type	BLE_bless_isr_GetState, %function
 185              	BLE_bless_isr_GetState:
 186              	.LFB11:
 304:.\Generated_Source\PSoC4/BLE_bless_isr.c **** 
 305:.\Generated_Source\PSoC4/BLE_bless_isr.c **** 
 306:.\Generated_Source\PSoC4/BLE_bless_isr.c **** /*******************************************************************************
 307:.\Generated_Source\PSoC4/BLE_bless_isr.c **** * Function Name: BLE_bless_isr_GetState
 308:.\Generated_Source\PSoC4/BLE_bless_isr.c **** ********************************************************************************
 309:.\Generated_Source\PSoC4/BLE_bless_isr.c **** *
 310:.\Generated_Source\PSoC4/BLE_bless_isr.c **** * Summary:
 311:.\Generated_Source\PSoC4/BLE_bless_isr.c **** *   Gets the state (enabled, disabled) of the Interrupt.
 312:.\Generated_Source\PSoC4/BLE_bless_isr.c **** *
 313:.\Generated_Source\PSoC4/BLE_bless_isr.c **** * Parameters:
 314:.\Generated_Source\PSoC4/BLE_bless_isr.c **** *   None
 315:.\Generated_Source\PSoC4/BLE_bless_isr.c **** *
 316:.\Generated_Source\PSoC4/BLE_bless_isr.c **** * Return:
 317:.\Generated_Source\PSoC4/BLE_bless_isr.c **** *   1 if enabled, 0 if disabled.
 318:.\Generated_Source\PSoC4/BLE_bless_isr.c **** *
 319:.\Generated_Source\PSoC4/BLE_bless_isr.c **** *******************************************************************************/
 320:.\Generated_Source\PSoC4/BLE_bless_isr.c **** uint8 BLE_bless_isr_GetState(void)
 321:.\Generated_Source\PSoC4/BLE_bless_isr.c **** {
 187              		.loc 1 321 0
 188              		.cfi_startproc
 322:.\Generated_Source\PSoC4/BLE_bless_isr.c ****     /* Get the state of the general interrupt. */
 323:.\Generated_Source\PSoC4/BLE_bless_isr.c ****     return ((*BLE_bless_isr_INTC_SET_EN & (uint32)BLE_bless_isr__INTC_MASK) != 0u) ? 1u:0u;
 189              		.loc 1 323 0
ARM GAS  C:\Users\JOHNSO~1\AppData\Local\Temp\ccxoB6gk.s 			page 10


 190 0000 034B     		ldr	r3, .L20
 191 0002 1B68     		ldr	r3, [r3]
 192 0004 DA04     		lsl	r2, r3, #19
 193 0006 01D5     		bpl	.L19
 194 0008 0120     		mov	r0, #1
 195 000a 00E0     		b	.L18
 196              	.L19:
 197 000c 0020     		mov	r0, #0
 198              	.L18:
 324:.\Generated_Source\PSoC4/BLE_bless_isr.c **** }
 199              		.loc 1 324 0 discriminator 3
 200              		@ sp needed
 201 000e 7047     		bx	lr
 202              	.L21:
 203              		.align	2
 204              	.L20:
 205 0010 00E100E0 		.word	-536813312
 206              		.cfi_endproc
 207              	.LFE11:
 208              		.size	BLE_bless_isr_GetState, .-BLE_bless_isr_GetState
 209              		.section	.text.BLE_bless_isr_Disable,"ax",%progbits
 210              		.align	2
 211              		.global	BLE_bless_isr_Disable
 212              		.code	16
 213              		.thumb_func
 214              		.type	BLE_bless_isr_Disable, %function
 215              	BLE_bless_isr_Disable:
 216              	.LFB12:
 325:.\Generated_Source\PSoC4/BLE_bless_isr.c **** 
 326:.\Generated_Source\PSoC4/BLE_bless_isr.c **** 
 327:.\Generated_Source\PSoC4/BLE_bless_isr.c **** /*******************************************************************************
 328:.\Generated_Source\PSoC4/BLE_bless_isr.c **** * Function Name: BLE_bless_isr_Disable
 329:.\Generated_Source\PSoC4/BLE_bless_isr.c **** ********************************************************************************
 330:.\Generated_Source\PSoC4/BLE_bless_isr.c **** *
 331:.\Generated_Source\PSoC4/BLE_bless_isr.c **** * Summary:
 332:.\Generated_Source\PSoC4/BLE_bless_isr.c **** *   Disables the Interrupt in the interrupt controller.
 333:.\Generated_Source\PSoC4/BLE_bless_isr.c **** *
 334:.\Generated_Source\PSoC4/BLE_bless_isr.c **** * Parameters:
 335:.\Generated_Source\PSoC4/BLE_bless_isr.c **** *   None
 336:.\Generated_Source\PSoC4/BLE_bless_isr.c **** *
 337:.\Generated_Source\PSoC4/BLE_bless_isr.c **** * Return:
 338:.\Generated_Source\PSoC4/BLE_bless_isr.c **** *   None
 339:.\Generated_Source\PSoC4/BLE_bless_isr.c **** *
 340:.\Generated_Source\PSoC4/BLE_bless_isr.c **** *******************************************************************************/
 341:.\Generated_Source\PSoC4/BLE_bless_isr.c **** void BLE_bless_isr_Disable(void)
 342:.\Generated_Source\PSoC4/BLE_bless_isr.c **** {
 217              		.loc 1 342 0
 218              		.cfi_startproc
 343:.\Generated_Source\PSoC4/BLE_bless_isr.c ****     /* Disable the general interrupt. */
 344:.\Generated_Source\PSoC4/BLE_bless_isr.c ****     *BLE_bless_isr_INTC_CLR_EN = BLE_bless_isr__INTC_MASK;
 219              		.loc 1 344 0
 220 0000 8022     		mov	r2, #128
 221 0002 5201     		lsl	r2, r2, #5
 222 0004 014B     		ldr	r3, .L23
 223 0006 1A60     		str	r2, [r3]
 345:.\Generated_Source\PSoC4/BLE_bless_isr.c **** }
 224              		.loc 1 345 0
ARM GAS  C:\Users\JOHNSO~1\AppData\Local\Temp\ccxoB6gk.s 			page 11


 225              		@ sp needed
 226 0008 7047     		bx	lr
 227              	.L24:
 228 000a C046     		.align	2
 229              	.L23:
 230 000c 80E100E0 		.word	-536813184
 231              		.cfi_endproc
 232              	.LFE12:
 233              		.size	BLE_bless_isr_Disable, .-BLE_bless_isr_Disable
 234              		.section	.text.BLE_bless_isr_Start,"ax",%progbits
 235              		.align	2
 236              		.global	BLE_bless_isr_Start
 237              		.code	16
 238              		.thumb_func
 239              		.type	BLE_bless_isr_Start, %function
 240              	BLE_bless_isr_Start:
 241              	.LFB2:
  56:.\Generated_Source\PSoC4/BLE_bless_isr.c **** {
 242              		.loc 1 56 0
 243              		.cfi_startproc
 244 0000 08B5     		push	{r3, lr}
 245              		.cfi_def_cfa_offset 8
 246              		.cfi_offset 3, -8
 247              		.cfi_offset 14, -4
  58:.\Generated_Source\PSoC4/BLE_bless_isr.c ****     BLE_bless_isr_Disable();
 248              		.loc 1 58 0
 249 0002 FFF7FEFF 		bl	BLE_bless_isr_Disable
 250              	.LVL8:
  61:.\Generated_Source\PSoC4/BLE_bless_isr.c ****     BLE_bless_isr_SetVector(&BLE_bless_isr_Interrupt);
 251              		.loc 1 61 0
 252 0006 0448     		ldr	r0, .L26
 253 0008 FFF7FEFF 		bl	BLE_bless_isr_SetVector
 254              	.LVL9:
  64:.\Generated_Source\PSoC4/BLE_bless_isr.c ****     BLE_bless_isr_SetPriority((uint8)BLE_bless_isr_INTC_PRIOR_NUMBER);
 255              		.loc 1 64 0
 256 000c 0120     		mov	r0, #1
 257 000e FFF7FEFF 		bl	BLE_bless_isr_SetPriority
 258              	.LVL10:
  67:.\Generated_Source\PSoC4/BLE_bless_isr.c ****     BLE_bless_isr_Enable();
 259              		.loc 1 67 0
 260 0012 FFF7FEFF 		bl	BLE_bless_isr_Enable
 261              	.LVL11:
  68:.\Generated_Source\PSoC4/BLE_bless_isr.c **** }
 262              		.loc 1 68 0
 263              		@ sp needed
 264 0016 08BD     		pop	{r3, pc}
 265              	.L27:
 266              		.align	2
 267              	.L26:
 268 0018 00000000 		.word	BLE_bless_isr_Interrupt
 269              		.cfi_endproc
 270              	.LFE2:
 271              		.size	BLE_bless_isr_Start, .-BLE_bless_isr_Start
 272              		.section	.text.BLE_bless_isr_StartEx,"ax",%progbits
 273              		.align	2
 274              		.global	BLE_bless_isr_StartEx
 275              		.code	16
ARM GAS  C:\Users\JOHNSO~1\AppData\Local\Temp\ccxoB6gk.s 			page 12


 276              		.thumb_func
 277              		.type	BLE_bless_isr_StartEx, %function
 278              	BLE_bless_isr_StartEx:
 279              	.LFB3:
  99:.\Generated_Source\PSoC4/BLE_bless_isr.c **** {
 280              		.loc 1 99 0
 281              		.cfi_startproc
 282              	.LVL12:
 283 0000 10B5     		push	{r4, lr}
 284              		.cfi_def_cfa_offset 8
 285              		.cfi_offset 4, -8
 286              		.cfi_offset 14, -4
 287 0002 041C     		mov	r4, r0
 101:.\Generated_Source\PSoC4/BLE_bless_isr.c ****     BLE_bless_isr_Disable();
 288              		.loc 1 101 0
 289 0004 FFF7FEFF 		bl	BLE_bless_isr_Disable
 290              	.LVL13:
 104:.\Generated_Source\PSoC4/BLE_bless_isr.c ****     BLE_bless_isr_SetVector(address);
 291              		.loc 1 104 0
 292 0008 201C     		mov	r0, r4
 293 000a FFF7FEFF 		bl	BLE_bless_isr_SetVector
 294              	.LVL14:
 107:.\Generated_Source\PSoC4/BLE_bless_isr.c ****     BLE_bless_isr_SetPriority((uint8)BLE_bless_isr_INTC_PRIOR_NUMBER);
 295              		.loc 1 107 0
 296 000e 0120     		mov	r0, #1
 297 0010 FFF7FEFF 		bl	BLE_bless_isr_SetPriority
 298              	.LVL15:
 110:.\Generated_Source\PSoC4/BLE_bless_isr.c ****     BLE_bless_isr_Enable();
 299              		.loc 1 110 0
 300 0014 FFF7FEFF 		bl	BLE_bless_isr_Enable
 301              	.LVL16:
 111:.\Generated_Source\PSoC4/BLE_bless_isr.c **** }
 302              		.loc 1 111 0
 303              		@ sp needed
 304              	.LVL17:
 305 0018 10BD     		pop	{r4, pc}
 306              		.cfi_endproc
 307              	.LFE3:
 308              		.size	BLE_bless_isr_StartEx, .-BLE_bless_isr_StartEx
 309 001a C046     		.section	.text.BLE_bless_isr_Stop,"ax",%progbits
 310              		.align	2
 311              		.global	BLE_bless_isr_Stop
 312              		.code	16
 313              		.thumb_func
 314              		.type	BLE_bless_isr_Stop, %function
 315              	BLE_bless_isr_Stop:
 316              	.LFB4:
 129:.\Generated_Source\PSoC4/BLE_bless_isr.c **** {
 317              		.loc 1 129 0
 318              		.cfi_startproc
 319 0000 08B5     		push	{r3, lr}
 320              		.cfi_def_cfa_offset 8
 321              		.cfi_offset 3, -8
 322              		.cfi_offset 14, -4
 131:.\Generated_Source\PSoC4/BLE_bless_isr.c ****     BLE_bless_isr_Disable();
 323              		.loc 1 131 0
 324 0002 FFF7FEFF 		bl	BLE_bless_isr_Disable
ARM GAS  C:\Users\JOHNSO~1\AppData\Local\Temp\ccxoB6gk.s 			page 13


 325              	.LVL18:
 134:.\Generated_Source\PSoC4/BLE_bless_isr.c ****     BLE_bless_isr_SetVector(&IntDefaultHandler);
 326              		.loc 1 134 0
 327 0006 0248     		ldr	r0, .L30
 328 0008 FFF7FEFF 		bl	BLE_bless_isr_SetVector
 329              	.LVL19:
 135:.\Generated_Source\PSoC4/BLE_bless_isr.c **** }
 330              		.loc 1 135 0
 331              		@ sp needed
 332 000c 08BD     		pop	{r3, pc}
 333              	.L31:
 334 000e C046     		.align	2
 335              	.L30:
 336 0010 00000000 		.word	IntDefaultHandler
 337              		.cfi_endproc
 338              	.LFE4:
 339              		.size	BLE_bless_isr_Stop, .-BLE_bless_isr_Stop
 340              		.section	.text.BLE_bless_isr_SetPending,"ax",%progbits
 341              		.align	2
 342              		.global	BLE_bless_isr_SetPending
 343              		.code	16
 344              		.thumb_func
 345              		.type	BLE_bless_isr_SetPending, %function
 346              	BLE_bless_isr_SetPending:
 347              	.LFB13:
 346:.\Generated_Source\PSoC4/BLE_bless_isr.c **** 
 347:.\Generated_Source\PSoC4/BLE_bless_isr.c **** 
 348:.\Generated_Source\PSoC4/BLE_bless_isr.c **** /*******************************************************************************
 349:.\Generated_Source\PSoC4/BLE_bless_isr.c **** * Function Name: BLE_bless_isr_SetPending
 350:.\Generated_Source\PSoC4/BLE_bless_isr.c **** ********************************************************************************
 351:.\Generated_Source\PSoC4/BLE_bless_isr.c **** *
 352:.\Generated_Source\PSoC4/BLE_bless_isr.c **** * Summary:
 353:.\Generated_Source\PSoC4/BLE_bless_isr.c **** *   Causes the Interrupt to enter the pending state, a software method of
 354:.\Generated_Source\PSoC4/BLE_bless_isr.c **** *   generating the interrupt.
 355:.\Generated_Source\PSoC4/BLE_bless_isr.c **** *
 356:.\Generated_Source\PSoC4/BLE_bless_isr.c **** * Parameters:
 357:.\Generated_Source\PSoC4/BLE_bless_isr.c **** *   None
 358:.\Generated_Source\PSoC4/BLE_bless_isr.c **** *
 359:.\Generated_Source\PSoC4/BLE_bless_isr.c **** * Return:
 360:.\Generated_Source\PSoC4/BLE_bless_isr.c **** *   None
 361:.\Generated_Source\PSoC4/BLE_bless_isr.c **** *
 362:.\Generated_Source\PSoC4/BLE_bless_isr.c **** * Side Effects:
 363:.\Generated_Source\PSoC4/BLE_bless_isr.c **** *   If interrupts are enabled and the interrupt is set up properly, the ISR is
 364:.\Generated_Source\PSoC4/BLE_bless_isr.c **** *   entered (depending on the priority of this interrupt and other pending 
 365:.\Generated_Source\PSoC4/BLE_bless_isr.c **** *   interrupts).
 366:.\Generated_Source\PSoC4/BLE_bless_isr.c **** *
 367:.\Generated_Source\PSoC4/BLE_bless_isr.c **** *******************************************************************************/
 368:.\Generated_Source\PSoC4/BLE_bless_isr.c **** void BLE_bless_isr_SetPending(void)
 369:.\Generated_Source\PSoC4/BLE_bless_isr.c **** {
 348              		.loc 1 369 0
 349              		.cfi_startproc
 370:.\Generated_Source\PSoC4/BLE_bless_isr.c ****     *BLE_bless_isr_INTC_SET_PD = BLE_bless_isr__INTC_MASK;
 350              		.loc 1 370 0
 351 0000 8022     		mov	r2, #128
 352 0002 5201     		lsl	r2, r2, #5
 353 0004 014B     		ldr	r3, .L33
 354 0006 1A60     		str	r2, [r3]
ARM GAS  C:\Users\JOHNSO~1\AppData\Local\Temp\ccxoB6gk.s 			page 14


 371:.\Generated_Source\PSoC4/BLE_bless_isr.c **** }
 355              		.loc 1 371 0
 356              		@ sp needed
 357 0008 7047     		bx	lr
 358              	.L34:
 359 000a C046     		.align	2
 360              	.L33:
 361 000c 00E200E0 		.word	-536813056
 362              		.cfi_endproc
 363              	.LFE13:
 364              		.size	BLE_bless_isr_SetPending, .-BLE_bless_isr_SetPending
 365              		.section	.text.BLE_bless_isr_ClearPending,"ax",%progbits
 366              		.align	2
 367              		.global	BLE_bless_isr_ClearPending
 368              		.code	16
 369              		.thumb_func
 370              		.type	BLE_bless_isr_ClearPending, %function
 371              	BLE_bless_isr_ClearPending:
 372              	.LFB14:
 372:.\Generated_Source\PSoC4/BLE_bless_isr.c **** 
 373:.\Generated_Source\PSoC4/BLE_bless_isr.c **** 
 374:.\Generated_Source\PSoC4/BLE_bless_isr.c **** /*******************************************************************************
 375:.\Generated_Source\PSoC4/BLE_bless_isr.c **** * Function Name: BLE_bless_isr_ClearPending
 376:.\Generated_Source\PSoC4/BLE_bless_isr.c **** ********************************************************************************
 377:.\Generated_Source\PSoC4/BLE_bless_isr.c **** *
 378:.\Generated_Source\PSoC4/BLE_bless_isr.c **** * Summary:
 379:.\Generated_Source\PSoC4/BLE_bless_isr.c **** *   Clears a pending interrupt in the interrupt controller.
 380:.\Generated_Source\PSoC4/BLE_bless_isr.c **** *
 381:.\Generated_Source\PSoC4/BLE_bless_isr.c **** *   Note Some interrupt sources are clear-on-read and require the block 
 382:.\Generated_Source\PSoC4/BLE_bless_isr.c **** *   interrupt/status register to be read/cleared with the appropriate block API 
 383:.\Generated_Source\PSoC4/BLE_bless_isr.c **** *   (GPIO, UART, and so on). Otherwise the ISR will continue to remain in 
 384:.\Generated_Source\PSoC4/BLE_bless_isr.c **** *   pending state even though the interrupt itself is cleared using this API.
 385:.\Generated_Source\PSoC4/BLE_bless_isr.c **** *
 386:.\Generated_Source\PSoC4/BLE_bless_isr.c **** * Parameters:
 387:.\Generated_Source\PSoC4/BLE_bless_isr.c **** *   None
 388:.\Generated_Source\PSoC4/BLE_bless_isr.c **** *
 389:.\Generated_Source\PSoC4/BLE_bless_isr.c **** * Return:
 390:.\Generated_Source\PSoC4/BLE_bless_isr.c **** *   None
 391:.\Generated_Source\PSoC4/BLE_bless_isr.c **** *
 392:.\Generated_Source\PSoC4/BLE_bless_isr.c **** *******************************************************************************/
 393:.\Generated_Source\PSoC4/BLE_bless_isr.c **** void BLE_bless_isr_ClearPending(void)
 394:.\Generated_Source\PSoC4/BLE_bless_isr.c **** {
 373              		.loc 1 394 0
 374              		.cfi_startproc
 395:.\Generated_Source\PSoC4/BLE_bless_isr.c ****     *BLE_bless_isr_INTC_CLR_PD = BLE_bless_isr__INTC_MASK;
 375              		.loc 1 395 0
 376 0000 8022     		mov	r2, #128
 377 0002 5201     		lsl	r2, r2, #5
 378 0004 014B     		ldr	r3, .L36
 379 0006 1A60     		str	r2, [r3]
 396:.\Generated_Source\PSoC4/BLE_bless_isr.c **** }
 380              		.loc 1 396 0
 381              		@ sp needed
 382 0008 7047     		bx	lr
 383              	.L37:
 384 000a C046     		.align	2
 385              	.L36:
ARM GAS  C:\Users\JOHNSO~1\AppData\Local\Temp\ccxoB6gk.s 			page 15


 386 000c 80E200E0 		.word	-536812928
 387              		.cfi_endproc
 388              	.LFE14:
 389              		.size	BLE_bless_isr_ClearPending, .-BLE_bless_isr_ClearPending
 390              		.text
 391              	.Letext0:
 392              		.file 2 "Generated_Source\\PSoC4/cytypes.h"
 393              		.file 3 "Generated_Source\\PSoC4/CyLib.h"
