ARM GAS  C:\Users\JOHNSO~1\AppData\Local\Temp\ccbNqaaZ.s 			page 1


   1              		.cpu cortex-m0
   2              		.fpu softvfp
   3              		.eabi_attribute 20, 1
   4              		.eabi_attribute 21, 1
   5              		.eabi_attribute 23, 3
   6              		.eabi_attribute 24, 1
   7              		.eabi_attribute 25, 1
   8              		.eabi_attribute 26, 1
   9              		.eabi_attribute 30, 1
  10              		.eabi_attribute 34, 0
  11              		.eabi_attribute 18, 4
  12              		.code	16
  13              		.file	"PSoC_SPI_PM.c"
  14              		.text
  15              	.Ltext0:
  16              		.cfi_sections	.debug_frame
  17              		.section	.text.PSoC_SPI_SaveConfig,"ax",%progbits
  18              		.align	2
  19              		.global	PSoC_SPI_SaveConfig
  20              		.code	16
  21              		.thumb_func
  22              		.type	PSoC_SPI_SaveConfig, %function
  23              	PSoC_SPI_SaveConfig:
  24              	.LFB2:
  25              		.file 1 ".\\Generated_Source\\PSoC4\\PSoC_SPI_PM.c"
   1:.\Generated_Source\PSoC4/PSoC_SPI_PM.c **** /*******************************************************************************
   2:.\Generated_Source\PSoC4/PSoC_SPI_PM.c **** * File Name: PSoC_SPI_PM.c
   3:.\Generated_Source\PSoC4/PSoC_SPI_PM.c **** * Version 2.70
   4:.\Generated_Source\PSoC4/PSoC_SPI_PM.c **** *
   5:.\Generated_Source\PSoC4/PSoC_SPI_PM.c **** * Description:
   6:.\Generated_Source\PSoC4/PSoC_SPI_PM.c **** *  This file contains the setup, control and status commands to support
   7:.\Generated_Source\PSoC4/PSoC_SPI_PM.c **** *  component operations in low power mode.
   8:.\Generated_Source\PSoC4/PSoC_SPI_PM.c **** *
   9:.\Generated_Source\PSoC4/PSoC_SPI_PM.c **** * Note:
  10:.\Generated_Source\PSoC4/PSoC_SPI_PM.c **** *
  11:.\Generated_Source\PSoC4/PSoC_SPI_PM.c **** ********************************************************************************
  12:.\Generated_Source\PSoC4/PSoC_SPI_PM.c **** * Copyright 2008-2015, Cypress Semiconductor Corporation.  All rights reserved.
  13:.\Generated_Source\PSoC4/PSoC_SPI_PM.c **** * You may use this file only in accordance with the license, terms, conditions,
  14:.\Generated_Source\PSoC4/PSoC_SPI_PM.c **** * disclaimers, and limitations in the end user license agreement accompanying
  15:.\Generated_Source\PSoC4/PSoC_SPI_PM.c **** * the software package with which this file was provided.
  16:.\Generated_Source\PSoC4/PSoC_SPI_PM.c **** *******************************************************************************/
  17:.\Generated_Source\PSoC4/PSoC_SPI_PM.c **** 
  18:.\Generated_Source\PSoC4/PSoC_SPI_PM.c **** #include "PSoC_SPI_PVT.h"
  19:.\Generated_Source\PSoC4/PSoC_SPI_PM.c **** 
  20:.\Generated_Source\PSoC4/PSoC_SPI_PM.c **** static PSoC_SPI_BACKUP_STRUCT PSoC_SPI_backup = 
  21:.\Generated_Source\PSoC4/PSoC_SPI_PM.c **** {
  22:.\Generated_Source\PSoC4/PSoC_SPI_PM.c ****     PSoC_SPI_DISABLED,
  23:.\Generated_Source\PSoC4/PSoC_SPI_PM.c ****     PSoC_SPI_BITCTR_INIT,
  24:.\Generated_Source\PSoC4/PSoC_SPI_PM.c **** };
  25:.\Generated_Source\PSoC4/PSoC_SPI_PM.c **** 
  26:.\Generated_Source\PSoC4/PSoC_SPI_PM.c **** 
  27:.\Generated_Source\PSoC4/PSoC_SPI_PM.c **** /*******************************************************************************
  28:.\Generated_Source\PSoC4/PSoC_SPI_PM.c **** * Function Name: PSoC_SPI_SaveConfig
  29:.\Generated_Source\PSoC4/PSoC_SPI_PM.c **** ********************************************************************************
  30:.\Generated_Source\PSoC4/PSoC_SPI_PM.c **** *
  31:.\Generated_Source\PSoC4/PSoC_SPI_PM.c **** * Summary:
  32:.\Generated_Source\PSoC4/PSoC_SPI_PM.c **** *  Empty function. Included for consistency with other components.
ARM GAS  C:\Users\JOHNSO~1\AppData\Local\Temp\ccbNqaaZ.s 			page 2


  33:.\Generated_Source\PSoC4/PSoC_SPI_PM.c **** *
  34:.\Generated_Source\PSoC4/PSoC_SPI_PM.c **** * Parameters:
  35:.\Generated_Source\PSoC4/PSoC_SPI_PM.c **** *  None.
  36:.\Generated_Source\PSoC4/PSoC_SPI_PM.c **** *
  37:.\Generated_Source\PSoC4/PSoC_SPI_PM.c **** * Return:
  38:.\Generated_Source\PSoC4/PSoC_SPI_PM.c **** *  None.
  39:.\Generated_Source\PSoC4/PSoC_SPI_PM.c **** *
  40:.\Generated_Source\PSoC4/PSoC_SPI_PM.c **** *******************************************************************************/
  41:.\Generated_Source\PSoC4/PSoC_SPI_PM.c **** void PSoC_SPI_SaveConfig(void) 
  42:.\Generated_Source\PSoC4/PSoC_SPI_PM.c **** {
  26              		.loc 1 42 0
  27              		.cfi_startproc
  43:.\Generated_Source\PSoC4/PSoC_SPI_PM.c **** 
  44:.\Generated_Source\PSoC4/PSoC_SPI_PM.c **** }
  28              		.loc 1 44 0
  29              		@ sp needed
  30 0000 7047     		bx	lr
  31              		.cfi_endproc
  32              	.LFE2:
  33              		.size	PSoC_SPI_SaveConfig, .-PSoC_SPI_SaveConfig
  34 0002 C046     		.section	.text.PSoC_SPI_RestoreConfig,"ax",%progbits
  35              		.align	2
  36              		.global	PSoC_SPI_RestoreConfig
  37              		.code	16
  38              		.thumb_func
  39              		.type	PSoC_SPI_RestoreConfig, %function
  40              	PSoC_SPI_RestoreConfig:
  41              	.LFB3:
  45:.\Generated_Source\PSoC4/PSoC_SPI_PM.c **** 
  46:.\Generated_Source\PSoC4/PSoC_SPI_PM.c **** 
  47:.\Generated_Source\PSoC4/PSoC_SPI_PM.c **** /*******************************************************************************
  48:.\Generated_Source\PSoC4/PSoC_SPI_PM.c **** * Function Name: PSoC_SPI_RestoreConfig
  49:.\Generated_Source\PSoC4/PSoC_SPI_PM.c **** ********************************************************************************
  50:.\Generated_Source\PSoC4/PSoC_SPI_PM.c **** *
  51:.\Generated_Source\PSoC4/PSoC_SPI_PM.c **** * Summary:
  52:.\Generated_Source\PSoC4/PSoC_SPI_PM.c **** *  Empty function. Included for consistency with other components.
  53:.\Generated_Source\PSoC4/PSoC_SPI_PM.c **** *
  54:.\Generated_Source\PSoC4/PSoC_SPI_PM.c **** * Parameters:
  55:.\Generated_Source\PSoC4/PSoC_SPI_PM.c **** *  None.
  56:.\Generated_Source\PSoC4/PSoC_SPI_PM.c **** *
  57:.\Generated_Source\PSoC4/PSoC_SPI_PM.c **** * Return:
  58:.\Generated_Source\PSoC4/PSoC_SPI_PM.c **** *  None.
  59:.\Generated_Source\PSoC4/PSoC_SPI_PM.c **** *
  60:.\Generated_Source\PSoC4/PSoC_SPI_PM.c **** *******************************************************************************/
  61:.\Generated_Source\PSoC4/PSoC_SPI_PM.c **** void PSoC_SPI_RestoreConfig(void) 
  62:.\Generated_Source\PSoC4/PSoC_SPI_PM.c **** {
  42              		.loc 1 62 0
  43              		.cfi_startproc
  63:.\Generated_Source\PSoC4/PSoC_SPI_PM.c **** 
  64:.\Generated_Source\PSoC4/PSoC_SPI_PM.c **** }
  44              		.loc 1 64 0
  45              		@ sp needed
  46 0000 7047     		bx	lr
  47              		.cfi_endproc
  48              	.LFE3:
  49              		.size	PSoC_SPI_RestoreConfig, .-PSoC_SPI_RestoreConfig
  50 0002 C046     		.section	.text.PSoC_SPI_Sleep,"ax",%progbits
ARM GAS  C:\Users\JOHNSO~1\AppData\Local\Temp\ccbNqaaZ.s 			page 3


  51              		.align	2
  52              		.global	PSoC_SPI_Sleep
  53              		.code	16
  54              		.thumb_func
  55              		.type	PSoC_SPI_Sleep, %function
  56              	PSoC_SPI_Sleep:
  57              	.LFB4:
  65:.\Generated_Source\PSoC4/PSoC_SPI_PM.c **** 
  66:.\Generated_Source\PSoC4/PSoC_SPI_PM.c **** 
  67:.\Generated_Source\PSoC4/PSoC_SPI_PM.c **** /*******************************************************************************
  68:.\Generated_Source\PSoC4/PSoC_SPI_PM.c **** * Function Name: PSoC_SPI_Sleep
  69:.\Generated_Source\PSoC4/PSoC_SPI_PM.c **** ********************************************************************************
  70:.\Generated_Source\PSoC4/PSoC_SPI_PM.c **** *
  71:.\Generated_Source\PSoC4/PSoC_SPI_PM.c **** * Summary:
  72:.\Generated_Source\PSoC4/PSoC_SPI_PM.c **** *  Prepare SPI Slave Component goes to sleep.
  73:.\Generated_Source\PSoC4/PSoC_SPI_PM.c **** *
  74:.\Generated_Source\PSoC4/PSoC_SPI_PM.c **** * Parameters:
  75:.\Generated_Source\PSoC4/PSoC_SPI_PM.c **** *  None.
  76:.\Generated_Source\PSoC4/PSoC_SPI_PM.c **** *
  77:.\Generated_Source\PSoC4/PSoC_SPI_PM.c **** * Return:
  78:.\Generated_Source\PSoC4/PSoC_SPI_PM.c **** *  None.
  79:.\Generated_Source\PSoC4/PSoC_SPI_PM.c **** *
  80:.\Generated_Source\PSoC4/PSoC_SPI_PM.c **** * Global Variables:
  81:.\Generated_Source\PSoC4/PSoC_SPI_PM.c **** *  PSoC_SPI_backup - modified when non-retention registers are saved.
  82:.\Generated_Source\PSoC4/PSoC_SPI_PM.c **** *
  83:.\Generated_Source\PSoC4/PSoC_SPI_PM.c **** * Reentrant:
  84:.\Generated_Source\PSoC4/PSoC_SPI_PM.c **** *  No.
  85:.\Generated_Source\PSoC4/PSoC_SPI_PM.c **** *
  86:.\Generated_Source\PSoC4/PSoC_SPI_PM.c **** *******************************************************************************/
  87:.\Generated_Source\PSoC4/PSoC_SPI_PM.c **** void PSoC_SPI_Sleep(void) 
  88:.\Generated_Source\PSoC4/PSoC_SPI_PM.c **** {
  58              		.loc 1 88 0
  59              		.cfi_startproc
  60 0000 08B5     		push	{r3, lr}
  61              		.cfi_def_cfa_offset 8
  62              		.cfi_offset 3, -8
  63              		.cfi_offset 14, -4
  89:.\Generated_Source\PSoC4/PSoC_SPI_PM.c ****     /* Save components enable state */
  90:.\Generated_Source\PSoC4/PSoC_SPI_PM.c ****     if ((PSoC_SPI_TX_STATUS_ACTL_REG & PSoC_SPI_INT_ENABLE) != 0u)
  64              		.loc 1 90 0
  65 0002 074B     		ldr	r3, .L6
  66 0004 1B78     		ldrb	r3, [r3]
  67 0006 DA06     		lsl	r2, r3, #27
  68 0008 03D5     		bpl	.L4
  91:.\Generated_Source\PSoC4/PSoC_SPI_PM.c ****     {
  92:.\Generated_Source\PSoC4/PSoC_SPI_PM.c ****         PSoC_SPI_backup.enableState = 1u;
  69              		.loc 1 92 0
  70 000a 0122     		mov	r2, #1
  71 000c 054B     		ldr	r3, .L6+4
  72 000e 1A70     		strb	r2, [r3]
  73 0010 02E0     		b	.L5
  74              	.L4:
  93:.\Generated_Source\PSoC4/PSoC_SPI_PM.c ****     }
  94:.\Generated_Source\PSoC4/PSoC_SPI_PM.c ****     else /* Components block is disabled */
  95:.\Generated_Source\PSoC4/PSoC_SPI_PM.c ****     {
  96:.\Generated_Source\PSoC4/PSoC_SPI_PM.c ****         PSoC_SPI_backup.enableState = 0u;
  75              		.loc 1 96 0
ARM GAS  C:\Users\JOHNSO~1\AppData\Local\Temp\ccbNqaaZ.s 			page 4


  76 0012 0022     		mov	r2, #0
  77 0014 034B     		ldr	r3, .L6+4
  78 0016 1A70     		strb	r2, [r3]
  79              	.L5:
  97:.\Generated_Source\PSoC4/PSoC_SPI_PM.c ****     }
  98:.\Generated_Source\PSoC4/PSoC_SPI_PM.c **** 
  99:.\Generated_Source\PSoC4/PSoC_SPI_PM.c ****     PSoC_SPI_Stop();
  80              		.loc 1 99 0
  81 0018 FFF7FEFF 		bl	PSoC_SPI_Stop
  82              	.LVL0:
 100:.\Generated_Source\PSoC4/PSoC_SPI_PM.c **** 
 101:.\Generated_Source\PSoC4/PSoC_SPI_PM.c **** }
  83              		.loc 1 101 0
  84              		@ sp needed
  85 001c 08BD     		pop	{r3, pc}
  86              	.L7:
  87 001e C046     		.align	2
  88              	.L6:
  89 0020 92000F40 		.word	1074725010
  90 0024 00000000 		.word	.LANCHOR0
  91              		.cfi_endproc
  92              	.LFE4:
  93              		.size	PSoC_SPI_Sleep, .-PSoC_SPI_Sleep
  94              		.section	.text.PSoC_SPI_Wakeup,"ax",%progbits
  95              		.align	2
  96              		.global	PSoC_SPI_Wakeup
  97              		.code	16
  98              		.thumb_func
  99              		.type	PSoC_SPI_Wakeup, %function
 100              	PSoC_SPI_Wakeup:
 101              	.LFB5:
 102:.\Generated_Source\PSoC4/PSoC_SPI_PM.c **** 
 103:.\Generated_Source\PSoC4/PSoC_SPI_PM.c **** 
 104:.\Generated_Source\PSoC4/PSoC_SPI_PM.c **** /*******************************************************************************
 105:.\Generated_Source\PSoC4/PSoC_SPI_PM.c **** * Function Name: PSoC_SPI_Wakeup
 106:.\Generated_Source\PSoC4/PSoC_SPI_PM.c **** ********************************************************************************
 107:.\Generated_Source\PSoC4/PSoC_SPI_PM.c **** *
 108:.\Generated_Source\PSoC4/PSoC_SPI_PM.c **** * Summary:
 109:.\Generated_Source\PSoC4/PSoC_SPI_PM.c **** *  Prepare SPIM Component to wake up.
 110:.\Generated_Source\PSoC4/PSoC_SPI_PM.c **** *
 111:.\Generated_Source\PSoC4/PSoC_SPI_PM.c **** * Parameters:
 112:.\Generated_Source\PSoC4/PSoC_SPI_PM.c **** *  None.
 113:.\Generated_Source\PSoC4/PSoC_SPI_PM.c **** *
 114:.\Generated_Source\PSoC4/PSoC_SPI_PM.c **** * Return:
 115:.\Generated_Source\PSoC4/PSoC_SPI_PM.c **** *  None.
 116:.\Generated_Source\PSoC4/PSoC_SPI_PM.c **** *
 117:.\Generated_Source\PSoC4/PSoC_SPI_PM.c **** * Global Variables:
 118:.\Generated_Source\PSoC4/PSoC_SPI_PM.c **** *  PSoC_SPI_backup - used when non-retention registers are restored.
 119:.\Generated_Source\PSoC4/PSoC_SPI_PM.c **** *  PSoC_SPI_txBufferWrite - modified every function call - resets to
 120:.\Generated_Source\PSoC4/PSoC_SPI_PM.c **** *  zero.
 121:.\Generated_Source\PSoC4/PSoC_SPI_PM.c **** *  PSoC_SPI_txBufferRead - modified every function call - resets to
 122:.\Generated_Source\PSoC4/PSoC_SPI_PM.c **** *  zero.
 123:.\Generated_Source\PSoC4/PSoC_SPI_PM.c **** *  PSoC_SPI_rxBufferWrite - modified every function call - resets to
 124:.\Generated_Source\PSoC4/PSoC_SPI_PM.c **** *  zero.
 125:.\Generated_Source\PSoC4/PSoC_SPI_PM.c **** *  PSoC_SPI_rxBufferRead - modified every function call - resets to
 126:.\Generated_Source\PSoC4/PSoC_SPI_PM.c **** *  zero.
 127:.\Generated_Source\PSoC4/PSoC_SPI_PM.c **** *
ARM GAS  C:\Users\JOHNSO~1\AppData\Local\Temp\ccbNqaaZ.s 			page 5


 128:.\Generated_Source\PSoC4/PSoC_SPI_PM.c **** * Reentrant:
 129:.\Generated_Source\PSoC4/PSoC_SPI_PM.c **** *  No.
 130:.\Generated_Source\PSoC4/PSoC_SPI_PM.c **** *
 131:.\Generated_Source\PSoC4/PSoC_SPI_PM.c **** *******************************************************************************/
 132:.\Generated_Source\PSoC4/PSoC_SPI_PM.c **** void PSoC_SPI_Wakeup(void) 
 133:.\Generated_Source\PSoC4/PSoC_SPI_PM.c **** {
 102              		.loc 1 133 0
 103              		.cfi_startproc
 104 0000 08B5     		push	{r3, lr}
 105              		.cfi_def_cfa_offset 8
 106              		.cfi_offset 3, -8
 107              		.cfi_offset 14, -4
 134:.\Generated_Source\PSoC4/PSoC_SPI_PM.c ****     #if (PSoC_SPI_TX_SOFTWARE_BUF_ENABLED)
 135:.\Generated_Source\PSoC4/PSoC_SPI_PM.c ****         PSoC_SPI_txBufferFull = 0u;
 136:.\Generated_Source\PSoC4/PSoC_SPI_PM.c ****         PSoC_SPI_txBufferRead = 0u;
 137:.\Generated_Source\PSoC4/PSoC_SPI_PM.c ****         PSoC_SPI_txBufferWrite = 0u;
 138:.\Generated_Source\PSoC4/PSoC_SPI_PM.c ****     #endif /* PSoC_SPI_TX_SOFTWARE_BUF_ENABLED */
 139:.\Generated_Source\PSoC4/PSoC_SPI_PM.c **** 
 140:.\Generated_Source\PSoC4/PSoC_SPI_PM.c ****     #if (PSoC_SPI_RX_SOFTWARE_BUF_ENABLED)
 141:.\Generated_Source\PSoC4/PSoC_SPI_PM.c ****         PSoC_SPI_rxBufferFull = 0u;
 142:.\Generated_Source\PSoC4/PSoC_SPI_PM.c ****         PSoC_SPI_rxBufferRead = 0u;
 143:.\Generated_Source\PSoC4/PSoC_SPI_PM.c ****         PSoC_SPI_rxBufferWrite = 0u;
 144:.\Generated_Source\PSoC4/PSoC_SPI_PM.c ****     #endif /* PSoC_SPI_RX_SOFTWARE_BUF_ENABLED */
 145:.\Generated_Source\PSoC4/PSoC_SPI_PM.c **** 
 146:.\Generated_Source\PSoC4/PSoC_SPI_PM.c ****     PSoC_SPI_ClearFIFO();
 108              		.loc 1 146 0
 109 0002 FFF7FEFF 		bl	PSoC_SPI_ClearFIFO
 110              	.LVL1:
 147:.\Generated_Source\PSoC4/PSoC_SPI_PM.c **** 
 148:.\Generated_Source\PSoC4/PSoC_SPI_PM.c ****     /* Restore components block enable state */
 149:.\Generated_Source\PSoC4/PSoC_SPI_PM.c ****     if (PSoC_SPI_backup.enableState != 0u)
 111              		.loc 1 149 0
 112 0006 034B     		ldr	r3, .L10
 113 0008 1B78     		ldrb	r3, [r3]
 114 000a 002B     		cmp	r3, #0
 115 000c 01D0     		beq	.L8
 150:.\Generated_Source\PSoC4/PSoC_SPI_PM.c ****     {
 151:.\Generated_Source\PSoC4/PSoC_SPI_PM.c ****          /* Components block was enabled */
 152:.\Generated_Source\PSoC4/PSoC_SPI_PM.c ****          PSoC_SPI_Enable();
 116              		.loc 1 152 0
 117 000e FFF7FEFF 		bl	PSoC_SPI_Enable
 118              	.LVL2:
 119              	.L8:
 153:.\Generated_Source\PSoC4/PSoC_SPI_PM.c ****     } /* Do nothing if components block was disabled */
 154:.\Generated_Source\PSoC4/PSoC_SPI_PM.c **** }
 120              		.loc 1 154 0
 121              		@ sp needed
 122 0012 08BD     		pop	{r3, pc}
 123              	.L11:
 124              		.align	2
 125              	.L10:
 126 0014 00000000 		.word	.LANCHOR0
 127              		.cfi_endproc
 128              	.LFE5:
 129              		.size	PSoC_SPI_Wakeup, .-PSoC_SPI_Wakeup
 130              		.data
 131              		.align	2
ARM GAS  C:\Users\JOHNSO~1\AppData\Local\Temp\ccbNqaaZ.s 			page 6


 132              		.set	.LANCHOR0,. + 0
 133              		.type	PSoC_SPI_backup, %object
 134              		.size	PSoC_SPI_backup, 2
 135              	PSoC_SPI_backup:
 136 0000 00       		.byte	0
 137 0001 07       		.byte	7
 138 0002 0000     		.text
 139              	.Letext0:
 140              		.file 2 ".\\Generated_Source\\PSoC4\\cytypes.h"
 141              		.file 3 ".\\Generated_Source\\PSoC4\\PSoC_SPI.h"
