ARM GAS  C:\Users\JOHNSO~1\AppData\Local\Temp\ccBuA6sA.s 			page 1


   1              		.cpu cortex-m0
   2              		.fpu softvfp
   3              		.eabi_attribute 20, 1
   4              		.eabi_attribute 21, 1
   5              		.eabi_attribute 23, 3
   6              		.eabi_attribute 24, 1
   7              		.eabi_attribute 25, 1
   8              		.eabi_attribute 26, 1
   9              		.eabi_attribute 30, 1
  10              		.eabi_attribute 34, 0
  11              		.eabi_attribute 18, 4
  12              		.code	16
  13              		.file	"PSoC_SPI.c"
  14              		.text
  15              	.Ltext0:
  16              		.cfi_sections	.debug_frame
  17              		.section	.text.PSoC_SPI_Enable,"ax",%progbits
  18              		.align	2
  19              		.global	PSoC_SPI_Enable
  20              		.code	16
  21              		.thumb_func
  22              		.type	PSoC_SPI_Enable, %function
  23              	PSoC_SPI_Enable:
  24              	.LFB3:
  25              		.file 1 ".\\Generated_Source\\PSoC4\\PSoC_SPI.c"
   1:.\Generated_Source\PSoC4/PSoC_SPI.c **** /*******************************************************************************
   2:.\Generated_Source\PSoC4/PSoC_SPI.c **** * File Name: PSoC_SPI.c
   3:.\Generated_Source\PSoC4/PSoC_SPI.c **** * Version 2.70
   4:.\Generated_Source\PSoC4/PSoC_SPI.c **** *
   5:.\Generated_Source\PSoC4/PSoC_SPI.c **** * Description:
   6:.\Generated_Source\PSoC4/PSoC_SPI.c **** *  This file provides all API functionality of the SPI Slave component.
   7:.\Generated_Source\PSoC4/PSoC_SPI.c **** *
   8:.\Generated_Source\PSoC4/PSoC_SPI.c **** * Note:
   9:.\Generated_Source\PSoC4/PSoC_SPI.c **** *  None.
  10:.\Generated_Source\PSoC4/PSoC_SPI.c **** *
  11:.\Generated_Source\PSoC4/PSoC_SPI.c **** ********************************************************************************
  12:.\Generated_Source\PSoC4/PSoC_SPI.c **** * Copyright 2008-2015, Cypress Semiconductor Corporation.  All rights reserved.
  13:.\Generated_Source\PSoC4/PSoC_SPI.c **** * You may use this file only in accordance with the license, terms, conditions,
  14:.\Generated_Source\PSoC4/PSoC_SPI.c **** * disclaimers, and limitations in the end user license agreement accompanying
  15:.\Generated_Source\PSoC4/PSoC_SPI.c **** * the software package with which this file was provided.
  16:.\Generated_Source\PSoC4/PSoC_SPI.c **** *******************************************************************************/
  17:.\Generated_Source\PSoC4/PSoC_SPI.c **** 
  18:.\Generated_Source\PSoC4/PSoC_SPI.c **** #include "PSoC_SPI_PVT.h"
  19:.\Generated_Source\PSoC4/PSoC_SPI.c **** 
  20:.\Generated_Source\PSoC4/PSoC_SPI.c **** #if (PSoC_SPI_TX_SOFTWARE_BUF_ENABLED)
  21:.\Generated_Source\PSoC4/PSoC_SPI.c **** 
  22:.\Generated_Source\PSoC4/PSoC_SPI.c ****     volatile uint8 PSoC_SPI_txBuffer[PSoC_SPI_TX_BUFFER_SIZE];
  23:.\Generated_Source\PSoC4/PSoC_SPI.c ****     volatile uint8 PSoC_SPI_txBufferRead;
  24:.\Generated_Source\PSoC4/PSoC_SPI.c ****     volatile uint8 PSoC_SPI_txBufferWrite;
  25:.\Generated_Source\PSoC4/PSoC_SPI.c ****     volatile uint8 PSoC_SPI_txBufferFull;
  26:.\Generated_Source\PSoC4/PSoC_SPI.c **** 
  27:.\Generated_Source\PSoC4/PSoC_SPI.c **** #endif /* PSoC_SPI_TX_SOFTWARE_BUF_ENABLED*/
  28:.\Generated_Source\PSoC4/PSoC_SPI.c **** 
  29:.\Generated_Source\PSoC4/PSoC_SPI.c **** #if (PSoC_SPI_RX_SOFTWARE_BUF_ENABLED)
  30:.\Generated_Source\PSoC4/PSoC_SPI.c **** 
  31:.\Generated_Source\PSoC4/PSoC_SPI.c ****     volatile uint8 PSoC_SPI_rxBuffer[PSoC_SPI_RX_BUFFER_SIZE];
  32:.\Generated_Source\PSoC4/PSoC_SPI.c ****     volatile uint8 PSoC_SPI_rxBufferRead;
ARM GAS  C:\Users\JOHNSO~1\AppData\Local\Temp\ccBuA6sA.s 			page 2


  33:.\Generated_Source\PSoC4/PSoC_SPI.c ****     volatile uint8 PSoC_SPI_rxBufferWrite;
  34:.\Generated_Source\PSoC4/PSoC_SPI.c ****     volatile uint8 PSoC_SPI_rxBufferFull;
  35:.\Generated_Source\PSoC4/PSoC_SPI.c **** 
  36:.\Generated_Source\PSoC4/PSoC_SPI.c **** #endif /* PSoC_SPI_RX_SOFTWARE_BUF_ENABLED */
  37:.\Generated_Source\PSoC4/PSoC_SPI.c **** 
  38:.\Generated_Source\PSoC4/PSoC_SPI.c **** uint8 PSoC_SPI_initVar = 0u;
  39:.\Generated_Source\PSoC4/PSoC_SPI.c **** 
  40:.\Generated_Source\PSoC4/PSoC_SPI.c **** volatile uint8 PSoC_SPI_swStatusTx;
  41:.\Generated_Source\PSoC4/PSoC_SPI.c **** volatile uint8 PSoC_SPI_swStatusRx;
  42:.\Generated_Source\PSoC4/PSoC_SPI.c **** 
  43:.\Generated_Source\PSoC4/PSoC_SPI.c **** 
  44:.\Generated_Source\PSoC4/PSoC_SPI.c **** /*******************************************************************************
  45:.\Generated_Source\PSoC4/PSoC_SPI.c **** * Function Name: PSoC_SPI_Init
  46:.\Generated_Source\PSoC4/PSoC_SPI.c **** ********************************************************************************
  47:.\Generated_Source\PSoC4/PSoC_SPI.c **** *
  48:.\Generated_Source\PSoC4/PSoC_SPI.c **** * Summary:
  49:.\Generated_Source\PSoC4/PSoC_SPI.c **** *  Inits/Restores default SPIS configuration provided with customizer.
  50:.\Generated_Source\PSoC4/PSoC_SPI.c **** *
  51:.\Generated_Source\PSoC4/PSoC_SPI.c **** * Parameters:
  52:.\Generated_Source\PSoC4/PSoC_SPI.c **** *  None.
  53:.\Generated_Source\PSoC4/PSoC_SPI.c **** *
  54:.\Generated_Source\PSoC4/PSoC_SPI.c **** * Return:
  55:.\Generated_Source\PSoC4/PSoC_SPI.c **** *  None.
  56:.\Generated_Source\PSoC4/PSoC_SPI.c **** *
  57:.\Generated_Source\PSoC4/PSoC_SPI.c **** * Side Effects:
  58:.\Generated_Source\PSoC4/PSoC_SPI.c **** *  When this function is called it initializes all of the necessary parameters
  59:.\Generated_Source\PSoC4/PSoC_SPI.c **** *  for execution. i.e. setting the initial interrupt mask, configuring the
  60:.\Generated_Source\PSoC4/PSoC_SPI.c **** *  interrupt service routine, configuring the bit-counter parameters and
  61:.\Generated_Source\PSoC4/PSoC_SPI.c **** *  clearing the FIFO and Status Register.
  62:.\Generated_Source\PSoC4/PSoC_SPI.c **** *
  63:.\Generated_Source\PSoC4/PSoC_SPI.c **** * Reentrant:
  64:.\Generated_Source\PSoC4/PSoC_SPI.c **** *  No.
  65:.\Generated_Source\PSoC4/PSoC_SPI.c **** *
  66:.\Generated_Source\PSoC4/PSoC_SPI.c **** *******************************************************************************/
  67:.\Generated_Source\PSoC4/PSoC_SPI.c **** void PSoC_SPI_Init(void) 
  68:.\Generated_Source\PSoC4/PSoC_SPI.c **** {
  69:.\Generated_Source\PSoC4/PSoC_SPI.c ****     /*Initialize the Bit counter */
  70:.\Generated_Source\PSoC4/PSoC_SPI.c ****     PSoC_SPI_COUNTER_PERIOD_REG = PSoC_SPI_BITCTR_INIT;
  71:.\Generated_Source\PSoC4/PSoC_SPI.c **** 
  72:.\Generated_Source\PSoC4/PSoC_SPI.c ****     /* ISR initialization */
  73:.\Generated_Source\PSoC4/PSoC_SPI.c ****     #if(PSoC_SPI_INTERNAL_TX_INT_ENABLED)
  74:.\Generated_Source\PSoC4/PSoC_SPI.c **** 
  75:.\Generated_Source\PSoC4/PSoC_SPI.c ****         CyIntDisable(PSoC_SPI_TX_ISR_NUMBER);
  76:.\Generated_Source\PSoC4/PSoC_SPI.c **** 
  77:.\Generated_Source\PSoC4/PSoC_SPI.c ****         /* Set the ISR to point to the PSoC_SPI_isr Interrupt. */
  78:.\Generated_Source\PSoC4/PSoC_SPI.c ****         (void)CyIntSetVector(PSoC_SPI_TX_ISR_NUMBER, &PSoC_SPI_TX_ISR);
  79:.\Generated_Source\PSoC4/PSoC_SPI.c **** 
  80:.\Generated_Source\PSoC4/PSoC_SPI.c ****         /* Set the priority. */
  81:.\Generated_Source\PSoC4/PSoC_SPI.c ****         CyIntSetPriority(PSoC_SPI_TX_ISR_NUMBER, PSoC_SPI_TX_ISR_PRIORITY);
  82:.\Generated_Source\PSoC4/PSoC_SPI.c **** 
  83:.\Generated_Source\PSoC4/PSoC_SPI.c ****     #endif /* PSoC_SPI_INTERNAL_TX_INT_ENABLED */
  84:.\Generated_Source\PSoC4/PSoC_SPI.c **** 
  85:.\Generated_Source\PSoC4/PSoC_SPI.c ****     #if(PSoC_SPI_INTERNAL_RX_INT_ENABLED)
  86:.\Generated_Source\PSoC4/PSoC_SPI.c **** 
  87:.\Generated_Source\PSoC4/PSoC_SPI.c ****         CyIntDisable(PSoC_SPI_RX_ISR_NUMBER);
  88:.\Generated_Source\PSoC4/PSoC_SPI.c **** 
  89:.\Generated_Source\PSoC4/PSoC_SPI.c ****         /* Set the ISR to point to the PSoC_SPI_isr Interrupt. */
ARM GAS  C:\Users\JOHNSO~1\AppData\Local\Temp\ccBuA6sA.s 			page 3


  90:.\Generated_Source\PSoC4/PSoC_SPI.c ****         (void)CyIntSetVector(PSoC_SPI_RX_ISR_NUMBER, &PSoC_SPI_RX_ISR);
  91:.\Generated_Source\PSoC4/PSoC_SPI.c **** 
  92:.\Generated_Source\PSoC4/PSoC_SPI.c ****         /* Set the priority. */
  93:.\Generated_Source\PSoC4/PSoC_SPI.c ****         CyIntSetPriority(PSoC_SPI_RX_ISR_NUMBER, PSoC_SPI_RX_ISR_PRIORITY);
  94:.\Generated_Source\PSoC4/PSoC_SPI.c **** 
  95:.\Generated_Source\PSoC4/PSoC_SPI.c ****     #endif /* PSoC_SPI_INTERNAL_RX_INT_ENABLED */
  96:.\Generated_Source\PSoC4/PSoC_SPI.c **** 
  97:.\Generated_Source\PSoC4/PSoC_SPI.c ****     /* Clear any stray data from the RX and TX FIFO */
  98:.\Generated_Source\PSoC4/PSoC_SPI.c ****     PSoC_SPI_ClearFIFO();
  99:.\Generated_Source\PSoC4/PSoC_SPI.c **** 
 100:.\Generated_Source\PSoC4/PSoC_SPI.c ****     #if(PSoC_SPI_RX_SOFTWARE_BUF_ENABLED)
 101:.\Generated_Source\PSoC4/PSoC_SPI.c ****         PSoC_SPI_rxBufferFull = 0u;
 102:.\Generated_Source\PSoC4/PSoC_SPI.c ****         PSoC_SPI_rxBufferRead = 0u;
 103:.\Generated_Source\PSoC4/PSoC_SPI.c ****         PSoC_SPI_rxBufferWrite = 0u;
 104:.\Generated_Source\PSoC4/PSoC_SPI.c ****     #endif /* PSoC_SPI_RX_SOFTWARE_BUF_ENABLED */
 105:.\Generated_Source\PSoC4/PSoC_SPI.c **** 
 106:.\Generated_Source\PSoC4/PSoC_SPI.c ****     #if(PSoC_SPI_TX_SOFTWARE_BUF_ENABLED)
 107:.\Generated_Source\PSoC4/PSoC_SPI.c ****         PSoC_SPI_txBufferFull = 0u;
 108:.\Generated_Source\PSoC4/PSoC_SPI.c ****         PSoC_SPI_txBufferRead = 0u;
 109:.\Generated_Source\PSoC4/PSoC_SPI.c ****         PSoC_SPI_txBufferWrite = 0u;
 110:.\Generated_Source\PSoC4/PSoC_SPI.c ****     #endif /* PSoC_SPI_TX_SOFTWARE_BUF_ENABLED */
 111:.\Generated_Source\PSoC4/PSoC_SPI.c **** 
 112:.\Generated_Source\PSoC4/PSoC_SPI.c ****     (void) PSoC_SPI_ReadTxStatus(); /* Clear any pending status bits */
 113:.\Generated_Source\PSoC4/PSoC_SPI.c ****     (void) PSoC_SPI_ReadRxStatus(); /* Clear any pending status bits */
 114:.\Generated_Source\PSoC4/PSoC_SPI.c **** 
 115:.\Generated_Source\PSoC4/PSoC_SPI.c **** 
 116:.\Generated_Source\PSoC4/PSoC_SPI.c ****     /* Configure the Initial interrupt mask */
 117:.\Generated_Source\PSoC4/PSoC_SPI.c ****     #if (PSoC_SPI_TX_SOFTWARE_BUF_ENABLED)
 118:.\Generated_Source\PSoC4/PSoC_SPI.c ****         PSoC_SPI_TX_STATUS_MASK_REG  = (PSoC_SPI_TX_INIT_INTERRUPTS_MASK &
 119:.\Generated_Source\PSoC4/PSoC_SPI.c ****                                                 (uint8)~PSoC_SPI_STS_TX_FIFO_NOT_FULL);
 120:.\Generated_Source\PSoC4/PSoC_SPI.c ****     #else /* PSoC_SPI_TX_SOFTWARE_BUF_ENABLED */
 121:.\Generated_Source\PSoC4/PSoC_SPI.c ****         PSoC_SPI_TX_STATUS_MASK_REG  = PSoC_SPI_TX_INIT_INTERRUPTS_MASK;
 122:.\Generated_Source\PSoC4/PSoC_SPI.c ****     #endif /* PSoC_SPI_TX_SOFTWARE_BUF_ENABLED */
 123:.\Generated_Source\PSoC4/PSoC_SPI.c **** 
 124:.\Generated_Source\PSoC4/PSoC_SPI.c ****     PSoC_SPI_RX_STATUS_MASK_REG  = PSoC_SPI_RX_INIT_INTERRUPTS_MASK;
 125:.\Generated_Source\PSoC4/PSoC_SPI.c **** }
 126:.\Generated_Source\PSoC4/PSoC_SPI.c **** 
 127:.\Generated_Source\PSoC4/PSoC_SPI.c **** 
 128:.\Generated_Source\PSoC4/PSoC_SPI.c **** /*******************************************************************************
 129:.\Generated_Source\PSoC4/PSoC_SPI.c **** * Function Name: PSoC_SPI_Enable
 130:.\Generated_Source\PSoC4/PSoC_SPI.c **** ********************************************************************************
 131:.\Generated_Source\PSoC4/PSoC_SPI.c **** *
 132:.\Generated_Source\PSoC4/PSoC_SPI.c **** * Summary:
 133:.\Generated_Source\PSoC4/PSoC_SPI.c **** *  Enable SPIS component.
 134:.\Generated_Source\PSoC4/PSoC_SPI.c **** *
 135:.\Generated_Source\PSoC4/PSoC_SPI.c **** * Parameters:
 136:.\Generated_Source\PSoC4/PSoC_SPI.c **** *  None.
 137:.\Generated_Source\PSoC4/PSoC_SPI.c **** *
 138:.\Generated_Source\PSoC4/PSoC_SPI.c **** * Return:
 139:.\Generated_Source\PSoC4/PSoC_SPI.c **** *  None.
 140:.\Generated_Source\PSoC4/PSoC_SPI.c **** *
 141:.\Generated_Source\PSoC4/PSoC_SPI.c **** *******************************************************************************/
 142:.\Generated_Source\PSoC4/PSoC_SPI.c **** void PSoC_SPI_Enable(void) 
 143:.\Generated_Source\PSoC4/PSoC_SPI.c **** {
  26              		.loc 1 143 0
  27              		.cfi_startproc
  28 0000 08B5     		push	{r3, lr}
ARM GAS  C:\Users\JOHNSO~1\AppData\Local\Temp\ccBuA6sA.s 			page 4


  29              		.cfi_def_cfa_offset 8
  30              		.cfi_offset 3, -8
  31              		.cfi_offset 14, -4
 144:.\Generated_Source\PSoC4/PSoC_SPI.c ****     uint8 enableInterrupts;
 145:.\Generated_Source\PSoC4/PSoC_SPI.c ****     enableInterrupts = CyEnterCriticalSection();
  32              		.loc 1 145 0
  33 0002 FFF7FEFF 		bl	CyEnterCriticalSection
  34              	.LVL0:
 146:.\Generated_Source\PSoC4/PSoC_SPI.c **** 
 147:.\Generated_Source\PSoC4/PSoC_SPI.c ****     PSoC_SPI_COUNTER_CONTROL_REG |= PSoC_SPI_CNTR_ENABLE;
  35              		.loc 1 147 0
  36 0006 094B     		ldr	r3, .L2
  37 0008 1978     		ldrb	r1, [r3]
  38 000a 2022     		mov	r2, #32
  39 000c 0A43     		orr	r2, r1
  40 000e 1A70     		strb	r2, [r3]
 148:.\Generated_Source\PSoC4/PSoC_SPI.c ****     PSoC_SPI_TX_STATUS_ACTL_REG |= PSoC_SPI_INT_ENABLE;
  41              		.loc 1 148 0
  42 0010 074B     		ldr	r3, .L2+4
  43 0012 1978     		ldrb	r1, [r3]
  44 0014 1022     		mov	r2, #16
  45 0016 1143     		orr	r1, r2
  46 0018 C9B2     		uxtb	r1, r1
  47 001a 1970     		strb	r1, [r3]
 149:.\Generated_Source\PSoC4/PSoC_SPI.c ****     PSoC_SPI_RX_STATUS_ACTL_REG |= PSoC_SPI_INT_ENABLE;
  48              		.loc 1 149 0
  49 001c 054B     		ldr	r3, .L2+8
  50 001e 1978     		ldrb	r1, [r3]
  51 0020 0A43     		orr	r2, r1
  52 0022 D2B2     		uxtb	r2, r2
  53 0024 1A70     		strb	r2, [r3]
 150:.\Generated_Source\PSoC4/PSoC_SPI.c **** 
 151:.\Generated_Source\PSoC4/PSoC_SPI.c ****     CyExitCriticalSection(enableInterrupts);
  54              		.loc 1 151 0
  55 0026 FFF7FEFF 		bl	CyExitCriticalSection
  56              	.LVL1:
 152:.\Generated_Source\PSoC4/PSoC_SPI.c **** 
 153:.\Generated_Source\PSoC4/PSoC_SPI.c ****     #if(PSoC_SPI_INTERNAL_TX_INT_ENABLED)
 154:.\Generated_Source\PSoC4/PSoC_SPI.c ****         CyIntEnable(PSoC_SPI_TX_ISR_NUMBER);
 155:.\Generated_Source\PSoC4/PSoC_SPI.c ****     #endif /* PSoC_SPI_INTERNAL_TX_INT_ENABLED */
 156:.\Generated_Source\PSoC4/PSoC_SPI.c **** 
 157:.\Generated_Source\PSoC4/PSoC_SPI.c ****     #if(PSoC_SPI_INTERNAL_RX_INT_ENABLED)
 158:.\Generated_Source\PSoC4/PSoC_SPI.c ****         CyIntEnable(PSoC_SPI_RX_ISR_NUMBER);
 159:.\Generated_Source\PSoC4/PSoC_SPI.c ****     #endif /* PSoC_SPI_INTERNAL_RX_INT_ENABLED */
 160:.\Generated_Source\PSoC4/PSoC_SPI.c **** }
  57              		.loc 1 160 0
  58              		@ sp needed
  59 002a 08BD     		pop	{r3, pc}
  60              	.L3:
  61              		.align	2
  62              	.L2:
  63 002c 90000F40 		.word	1074725008
  64 0030 92000F40 		.word	1074725010
  65 0034 91000F40 		.word	1074725009
  66              		.cfi_endproc
  67              	.LFE3:
  68              		.size	PSoC_SPI_Enable, .-PSoC_SPI_Enable
ARM GAS  C:\Users\JOHNSO~1\AppData\Local\Temp\ccBuA6sA.s 			page 5


  69              		.section	.text.PSoC_SPI_Stop,"ax",%progbits
  70              		.align	2
  71              		.global	PSoC_SPI_Stop
  72              		.code	16
  73              		.thumb_func
  74              		.type	PSoC_SPI_Stop, %function
  75              	PSoC_SPI_Stop:
  76              	.LFB5:
 161:.\Generated_Source\PSoC4/PSoC_SPI.c **** 
 162:.\Generated_Source\PSoC4/PSoC_SPI.c **** 
 163:.\Generated_Source\PSoC4/PSoC_SPI.c **** /*******************************************************************************
 164:.\Generated_Source\PSoC4/PSoC_SPI.c **** * Function Name: PSoC_SPI_Start
 165:.\Generated_Source\PSoC4/PSoC_SPI.c **** ********************************************************************************
 166:.\Generated_Source\PSoC4/PSoC_SPI.c **** *
 167:.\Generated_Source\PSoC4/PSoC_SPI.c **** * Summary:
 168:.\Generated_Source\PSoC4/PSoC_SPI.c **** *  Initialize and Enable the SPI Slave component.
 169:.\Generated_Source\PSoC4/PSoC_SPI.c **** *
 170:.\Generated_Source\PSoC4/PSoC_SPI.c **** * Parameters:
 171:.\Generated_Source\PSoC4/PSoC_SPI.c **** *  None.
 172:.\Generated_Source\PSoC4/PSoC_SPI.c **** *
 173:.\Generated_Source\PSoC4/PSoC_SPI.c **** * Return:
 174:.\Generated_Source\PSoC4/PSoC_SPI.c **** *  None.
 175:.\Generated_Source\PSoC4/PSoC_SPI.c **** *
 176:.\Generated_Source\PSoC4/PSoC_SPI.c **** * Global variables:
 177:.\Generated_Source\PSoC4/PSoC_SPI.c **** *  PSoC_SPI_initVar - used to check initial configuration, modified on
 178:.\Generated_Source\PSoC4/PSoC_SPI.c **** *  first function call.
 179:.\Generated_Source\PSoC4/PSoC_SPI.c **** *
 180:.\Generated_Source\PSoC4/PSoC_SPI.c **** * Theory:
 181:.\Generated_Source\PSoC4/PSoC_SPI.c **** *  Enable the clock input to enable operation.
 182:.\Generated_Source\PSoC4/PSoC_SPI.c **** *
 183:.\Generated_Source\PSoC4/PSoC_SPI.c **** * Reentrant:
 184:.\Generated_Source\PSoC4/PSoC_SPI.c **** *  No.
 185:.\Generated_Source\PSoC4/PSoC_SPI.c **** *
 186:.\Generated_Source\PSoC4/PSoC_SPI.c **** *******************************************************************************/
 187:.\Generated_Source\PSoC4/PSoC_SPI.c **** void PSoC_SPI_Start(void) 
 188:.\Generated_Source\PSoC4/PSoC_SPI.c **** {
 189:.\Generated_Source\PSoC4/PSoC_SPI.c ****     if(PSoC_SPI_initVar == 0u)
 190:.\Generated_Source\PSoC4/PSoC_SPI.c ****     {
 191:.\Generated_Source\PSoC4/PSoC_SPI.c ****         PSoC_SPI_Init();
 192:.\Generated_Source\PSoC4/PSoC_SPI.c ****         PSoC_SPI_initVar = 1u;
 193:.\Generated_Source\PSoC4/PSoC_SPI.c ****     }
 194:.\Generated_Source\PSoC4/PSoC_SPI.c **** 
 195:.\Generated_Source\PSoC4/PSoC_SPI.c ****     PSoC_SPI_Enable();
 196:.\Generated_Source\PSoC4/PSoC_SPI.c **** }
 197:.\Generated_Source\PSoC4/PSoC_SPI.c **** 
 198:.\Generated_Source\PSoC4/PSoC_SPI.c **** 
 199:.\Generated_Source\PSoC4/PSoC_SPI.c **** /*******************************************************************************
 200:.\Generated_Source\PSoC4/PSoC_SPI.c **** * Function Name: PSoC_SPI_Stop
 201:.\Generated_Source\PSoC4/PSoC_SPI.c **** ********************************************************************************
 202:.\Generated_Source\PSoC4/PSoC_SPI.c **** *
 203:.\Generated_Source\PSoC4/PSoC_SPI.c **** * Summary:
 204:.\Generated_Source\PSoC4/PSoC_SPI.c **** *  Disable the SPI Slave component.
 205:.\Generated_Source\PSoC4/PSoC_SPI.c **** *
 206:.\Generated_Source\PSoC4/PSoC_SPI.c **** * Parameters:
 207:.\Generated_Source\PSoC4/PSoC_SPI.c **** *  None.
 208:.\Generated_Source\PSoC4/PSoC_SPI.c **** *
 209:.\Generated_Source\PSoC4/PSoC_SPI.c **** * Return:
ARM GAS  C:\Users\JOHNSO~1\AppData\Local\Temp\ccBuA6sA.s 			page 6


 210:.\Generated_Source\PSoC4/PSoC_SPI.c **** *  None.
 211:.\Generated_Source\PSoC4/PSoC_SPI.c **** *
 212:.\Generated_Source\PSoC4/PSoC_SPI.c **** * Theory:
 213:.\Generated_Source\PSoC4/PSoC_SPI.c **** *  Disable the internal interrupt if one is used.
 214:.\Generated_Source\PSoC4/PSoC_SPI.c **** *
 215:.\Generated_Source\PSoC4/PSoC_SPI.c **** *******************************************************************************/
 216:.\Generated_Source\PSoC4/PSoC_SPI.c **** void PSoC_SPI_Stop(void) 
 217:.\Generated_Source\PSoC4/PSoC_SPI.c **** {
  77              		.loc 1 217 0
  78              		.cfi_startproc
  79 0000 08B5     		push	{r3, lr}
  80              		.cfi_def_cfa_offset 8
  81              		.cfi_offset 3, -8
  82              		.cfi_offset 14, -4
 218:.\Generated_Source\PSoC4/PSoC_SPI.c ****     uint8 enableInterrupts;
 219:.\Generated_Source\PSoC4/PSoC_SPI.c ****     enableInterrupts = CyEnterCriticalSection();
  83              		.loc 1 219 0
  84 0002 FFF7FEFF 		bl	CyEnterCriticalSection
  85              	.LVL2:
 220:.\Generated_Source\PSoC4/PSoC_SPI.c **** 
 221:.\Generated_Source\PSoC4/PSoC_SPI.c ****     PSoC_SPI_TX_STATUS_ACTL_REG &= (uint8)~PSoC_SPI_INT_ENABLE;
  86              		.loc 1 221 0
  87 0006 064B     		ldr	r3, .L5
  88 0008 1978     		ldrb	r1, [r3]
  89 000a 1022     		mov	r2, #16
  90 000c 9143     		bic	r1, r2
  91 000e 1970     		strb	r1, [r3]
 222:.\Generated_Source\PSoC4/PSoC_SPI.c ****     PSoC_SPI_RX_STATUS_ACTL_REG &= (uint8)~PSoC_SPI_INT_ENABLE;
  92              		.loc 1 222 0
  93 0010 044B     		ldr	r3, .L5+4
  94 0012 1978     		ldrb	r1, [r3]
  95 0014 9143     		bic	r1, r2
  96 0016 1970     		strb	r1, [r3]
 223:.\Generated_Source\PSoC4/PSoC_SPI.c **** 
 224:.\Generated_Source\PSoC4/PSoC_SPI.c ****     CyExitCriticalSection(enableInterrupts);
  97              		.loc 1 224 0
  98 0018 FFF7FEFF 		bl	CyExitCriticalSection
  99              	.LVL3:
 225:.\Generated_Source\PSoC4/PSoC_SPI.c **** 
 226:.\Generated_Source\PSoC4/PSoC_SPI.c ****     #if(PSoC_SPI_INTERNAL_TX_INT_ENABLED)
 227:.\Generated_Source\PSoC4/PSoC_SPI.c ****         CyIntDisable(PSoC_SPI_TX_ISR_NUMBER);
 228:.\Generated_Source\PSoC4/PSoC_SPI.c ****     #endif /* PSoC_SPI_INTERNAL_TX_INT_ENABLED */
 229:.\Generated_Source\PSoC4/PSoC_SPI.c **** 
 230:.\Generated_Source\PSoC4/PSoC_SPI.c ****     #if(PSoC_SPI_INTERNAL_RX_INT_ENABLED)
 231:.\Generated_Source\PSoC4/PSoC_SPI.c ****         CyIntDisable(PSoC_SPI_RX_ISR_NUMBER);
 232:.\Generated_Source\PSoC4/PSoC_SPI.c ****     #endif /* PSoC_SPI_INTERNAL_RX_INT_ENABLED */
 233:.\Generated_Source\PSoC4/PSoC_SPI.c **** }
 100              		.loc 1 233 0
 101              		@ sp needed
 102 001c 08BD     		pop	{r3, pc}
 103              	.L6:
 104 001e C046     		.align	2
 105              	.L5:
 106 0020 92000F40 		.word	1074725010
 107 0024 91000F40 		.word	1074725009
 108              		.cfi_endproc
 109              	.LFE5:
ARM GAS  C:\Users\JOHNSO~1\AppData\Local\Temp\ccBuA6sA.s 			page 7


 110              		.size	PSoC_SPI_Stop, .-PSoC_SPI_Stop
 111              		.section	.text.PSoC_SPI_EnableTxInt,"ax",%progbits
 112              		.align	2
 113              		.global	PSoC_SPI_EnableTxInt
 114              		.code	16
 115              		.thumb_func
 116              		.type	PSoC_SPI_EnableTxInt, %function
 117              	PSoC_SPI_EnableTxInt:
 118              	.LFB6:
 234:.\Generated_Source\PSoC4/PSoC_SPI.c **** 
 235:.\Generated_Source\PSoC4/PSoC_SPI.c **** 
 236:.\Generated_Source\PSoC4/PSoC_SPI.c **** /*******************************************************************************
 237:.\Generated_Source\PSoC4/PSoC_SPI.c **** * Function Name: PSoC_SPI_EnableTxInt
 238:.\Generated_Source\PSoC4/PSoC_SPI.c **** ********************************************************************************
 239:.\Generated_Source\PSoC4/PSoC_SPI.c **** *
 240:.\Generated_Source\PSoC4/PSoC_SPI.c **** * Summary:
 241:.\Generated_Source\PSoC4/PSoC_SPI.c **** *  Enable internal Tx interrupt generation.
 242:.\Generated_Source\PSoC4/PSoC_SPI.c **** *
 243:.\Generated_Source\PSoC4/PSoC_SPI.c **** * Parameters:
 244:.\Generated_Source\PSoC4/PSoC_SPI.c **** *  None.
 245:.\Generated_Source\PSoC4/PSoC_SPI.c **** *
 246:.\Generated_Source\PSoC4/PSoC_SPI.c **** * Return:
 247:.\Generated_Source\PSoC4/PSoC_SPI.c **** *  None.
 248:.\Generated_Source\PSoC4/PSoC_SPI.c **** *
 249:.\Generated_Source\PSoC4/PSoC_SPI.c **** * Theory:
 250:.\Generated_Source\PSoC4/PSoC_SPI.c **** *  Enable the internal Tx interrupt output -or- the interrupt component itself.
 251:.\Generated_Source\PSoC4/PSoC_SPI.c **** *
 252:.\Generated_Source\PSoC4/PSoC_SPI.c **** *******************************************************************************/
 253:.\Generated_Source\PSoC4/PSoC_SPI.c **** void PSoC_SPI_EnableTxInt(void) 
 254:.\Generated_Source\PSoC4/PSoC_SPI.c **** {
 119              		.loc 1 254 0
 120              		.cfi_startproc
 255:.\Generated_Source\PSoC4/PSoC_SPI.c ****     #if(PSoC_SPI_INTERNAL_TX_INT_ENABLED)
 256:.\Generated_Source\PSoC4/PSoC_SPI.c ****         CyIntEnable(PSoC_SPI_TX_ISR_NUMBER);
 257:.\Generated_Source\PSoC4/PSoC_SPI.c ****     #endif /* PSoC_SPI_INTERNAL_TX_INT_ENABLED */
 258:.\Generated_Source\PSoC4/PSoC_SPI.c **** }
 121              		.loc 1 258 0
 122              		@ sp needed
 123 0000 7047     		bx	lr
 124              		.cfi_endproc
 125              	.LFE6:
 126              		.size	PSoC_SPI_EnableTxInt, .-PSoC_SPI_EnableTxInt
 127 0002 C046     		.section	.text.PSoC_SPI_EnableRxInt,"ax",%progbits
 128              		.align	2
 129              		.global	PSoC_SPI_EnableRxInt
 130              		.code	16
 131              		.thumb_func
 132              		.type	PSoC_SPI_EnableRxInt, %function
 133              	PSoC_SPI_EnableRxInt:
 134              	.LFB7:
 259:.\Generated_Source\PSoC4/PSoC_SPI.c **** 
 260:.\Generated_Source\PSoC4/PSoC_SPI.c **** 
 261:.\Generated_Source\PSoC4/PSoC_SPI.c **** /*******************************************************************************
 262:.\Generated_Source\PSoC4/PSoC_SPI.c **** * Function Name: PSoC_SPI_EnableRxInt
 263:.\Generated_Source\PSoC4/PSoC_SPI.c **** ********************************************************************************
 264:.\Generated_Source\PSoC4/PSoC_SPI.c **** *
 265:.\Generated_Source\PSoC4/PSoC_SPI.c **** * Summary:
ARM GAS  C:\Users\JOHNSO~1\AppData\Local\Temp\ccBuA6sA.s 			page 8


 266:.\Generated_Source\PSoC4/PSoC_SPI.c **** *  Enable internal Rx interrupt generation.
 267:.\Generated_Source\PSoC4/PSoC_SPI.c **** *
 268:.\Generated_Source\PSoC4/PSoC_SPI.c **** * Parameters:
 269:.\Generated_Source\PSoC4/PSoC_SPI.c **** *  None.
 270:.\Generated_Source\PSoC4/PSoC_SPI.c **** *
 271:.\Generated_Source\PSoC4/PSoC_SPI.c **** * Return:
 272:.\Generated_Source\PSoC4/PSoC_SPI.c **** *  None.
 273:.\Generated_Source\PSoC4/PSoC_SPI.c **** *
 274:.\Generated_Source\PSoC4/PSoC_SPI.c **** * Theory:
 275:.\Generated_Source\PSoC4/PSoC_SPI.c **** *  Enable the internal Rx interrupt output -or- the interrupt component itself.
 276:.\Generated_Source\PSoC4/PSoC_SPI.c **** *
 277:.\Generated_Source\PSoC4/PSoC_SPI.c **** *******************************************************************************/
 278:.\Generated_Source\PSoC4/PSoC_SPI.c **** void PSoC_SPI_EnableRxInt(void) 
 279:.\Generated_Source\PSoC4/PSoC_SPI.c **** {
 135              		.loc 1 279 0
 136              		.cfi_startproc
 280:.\Generated_Source\PSoC4/PSoC_SPI.c ****     #if(PSoC_SPI_INTERNAL_RX_INT_ENABLED)
 281:.\Generated_Source\PSoC4/PSoC_SPI.c ****         CyIntEnable(PSoC_SPI_RX_ISR_NUMBER);
 282:.\Generated_Source\PSoC4/PSoC_SPI.c ****     #endif /* PSoC_SPI_INTERNAL_RX_INT_ENABLED */
 283:.\Generated_Source\PSoC4/PSoC_SPI.c **** }
 137              		.loc 1 283 0
 138              		@ sp needed
 139 0000 7047     		bx	lr
 140              		.cfi_endproc
 141              	.LFE7:
 142              		.size	PSoC_SPI_EnableRxInt, .-PSoC_SPI_EnableRxInt
 143 0002 C046     		.section	.text.PSoC_SPI_DisableTxInt,"ax",%progbits
 144              		.align	2
 145              		.global	PSoC_SPI_DisableTxInt
 146              		.code	16
 147              		.thumb_func
 148              		.type	PSoC_SPI_DisableTxInt, %function
 149              	PSoC_SPI_DisableTxInt:
 150              	.LFB8:
 284:.\Generated_Source\PSoC4/PSoC_SPI.c **** 
 285:.\Generated_Source\PSoC4/PSoC_SPI.c **** 
 286:.\Generated_Source\PSoC4/PSoC_SPI.c **** /*******************************************************************************
 287:.\Generated_Source\PSoC4/PSoC_SPI.c **** * Function Name: PSoC_SPI_DisableTxInt
 288:.\Generated_Source\PSoC4/PSoC_SPI.c **** ********************************************************************************
 289:.\Generated_Source\PSoC4/PSoC_SPI.c **** *
 290:.\Generated_Source\PSoC4/PSoC_SPI.c **** * Summary:
 291:.\Generated_Source\PSoC4/PSoC_SPI.c **** *  Disable internal Tx interrupt generation.
 292:.\Generated_Source\PSoC4/PSoC_SPI.c **** *
 293:.\Generated_Source\PSoC4/PSoC_SPI.c **** * Parameters:
 294:.\Generated_Source\PSoC4/PSoC_SPI.c **** *  None.
 295:.\Generated_Source\PSoC4/PSoC_SPI.c **** *
 296:.\Generated_Source\PSoC4/PSoC_SPI.c **** * Return:
 297:.\Generated_Source\PSoC4/PSoC_SPI.c **** *  None.
 298:.\Generated_Source\PSoC4/PSoC_SPI.c **** *
 299:.\Generated_Source\PSoC4/PSoC_SPI.c **** * Theory:
 300:.\Generated_Source\PSoC4/PSoC_SPI.c **** *  Disable the internal Tx interrupt output -or- the interrupt component itself.
 301:.\Generated_Source\PSoC4/PSoC_SPI.c **** *
 302:.\Generated_Source\PSoC4/PSoC_SPI.c **** *******************************************************************************/
 303:.\Generated_Source\PSoC4/PSoC_SPI.c **** void PSoC_SPI_DisableTxInt(void) 
 304:.\Generated_Source\PSoC4/PSoC_SPI.c **** {
 151              		.loc 1 304 0
 152              		.cfi_startproc
ARM GAS  C:\Users\JOHNSO~1\AppData\Local\Temp\ccBuA6sA.s 			page 9


 305:.\Generated_Source\PSoC4/PSoC_SPI.c ****     #if(PSoC_SPI_INTERNAL_TX_INT_ENABLED)
 306:.\Generated_Source\PSoC4/PSoC_SPI.c ****         CyIntDisable(PSoC_SPI_TX_ISR_NUMBER);
 307:.\Generated_Source\PSoC4/PSoC_SPI.c ****     #endif /* PSoC_SPI_INTERNAL_TX_INT_ENABLED */
 308:.\Generated_Source\PSoC4/PSoC_SPI.c **** }
 153              		.loc 1 308 0
 154              		@ sp needed
 155 0000 7047     		bx	lr
 156              		.cfi_endproc
 157              	.LFE8:
 158              		.size	PSoC_SPI_DisableTxInt, .-PSoC_SPI_DisableTxInt
 159 0002 C046     		.section	.text.PSoC_SPI_DisableRxInt,"ax",%progbits
 160              		.align	2
 161              		.global	PSoC_SPI_DisableRxInt
 162              		.code	16
 163              		.thumb_func
 164              		.type	PSoC_SPI_DisableRxInt, %function
 165              	PSoC_SPI_DisableRxInt:
 166              	.LFB9:
 309:.\Generated_Source\PSoC4/PSoC_SPI.c **** 
 310:.\Generated_Source\PSoC4/PSoC_SPI.c **** 
 311:.\Generated_Source\PSoC4/PSoC_SPI.c **** /*******************************************************************************
 312:.\Generated_Source\PSoC4/PSoC_SPI.c **** * Function Name: PSoC_SPI_DisableRxInt
 313:.\Generated_Source\PSoC4/PSoC_SPI.c **** ********************************************************************************
 314:.\Generated_Source\PSoC4/PSoC_SPI.c **** *
 315:.\Generated_Source\PSoC4/PSoC_SPI.c **** * Summary:
 316:.\Generated_Source\PSoC4/PSoC_SPI.c **** *  Disable internal Rx interrupt generation.
 317:.\Generated_Source\PSoC4/PSoC_SPI.c **** *
 318:.\Generated_Source\PSoC4/PSoC_SPI.c **** * Parameters:
 319:.\Generated_Source\PSoC4/PSoC_SPI.c **** *  None.
 320:.\Generated_Source\PSoC4/PSoC_SPI.c **** *
 321:.\Generated_Source\PSoC4/PSoC_SPI.c **** * Return:
 322:.\Generated_Source\PSoC4/PSoC_SPI.c **** *  None.
 323:.\Generated_Source\PSoC4/PSoC_SPI.c **** *
 324:.\Generated_Source\PSoC4/PSoC_SPI.c **** * Theory:
 325:.\Generated_Source\PSoC4/PSoC_SPI.c **** *  Disable the internal Rx interrupt output -or- the interrupt component itself.
 326:.\Generated_Source\PSoC4/PSoC_SPI.c **** *
 327:.\Generated_Source\PSoC4/PSoC_SPI.c **** *******************************************************************************/
 328:.\Generated_Source\PSoC4/PSoC_SPI.c **** void PSoC_SPI_DisableRxInt(void) 
 329:.\Generated_Source\PSoC4/PSoC_SPI.c **** {
 167              		.loc 1 329 0
 168              		.cfi_startproc
 330:.\Generated_Source\PSoC4/PSoC_SPI.c ****     #if(PSoC_SPI_INTERNAL_RX_INT_ENABLED)
 331:.\Generated_Source\PSoC4/PSoC_SPI.c ****         CyIntDisable(PSoC_SPI_RX_ISR_NUMBER);
 332:.\Generated_Source\PSoC4/PSoC_SPI.c ****     #endif /* PSoC_SPI_INTERNAL_RX_INT_ENABLED */
 333:.\Generated_Source\PSoC4/PSoC_SPI.c **** }
 169              		.loc 1 333 0
 170              		@ sp needed
 171 0000 7047     		bx	lr
 172              		.cfi_endproc
 173              	.LFE9:
 174              		.size	PSoC_SPI_DisableRxInt, .-PSoC_SPI_DisableRxInt
 175 0002 C046     		.section	.text.PSoC_SPI_SetTxInterruptMode,"ax",%progbits
 176              		.align	2
 177              		.global	PSoC_SPI_SetTxInterruptMode
 178              		.code	16
 179              		.thumb_func
 180              		.type	PSoC_SPI_SetTxInterruptMode, %function
ARM GAS  C:\Users\JOHNSO~1\AppData\Local\Temp\ccBuA6sA.s 			page 10


 181              	PSoC_SPI_SetTxInterruptMode:
 182              	.LFB10:
 334:.\Generated_Source\PSoC4/PSoC_SPI.c **** 
 335:.\Generated_Source\PSoC4/PSoC_SPI.c **** 
 336:.\Generated_Source\PSoC4/PSoC_SPI.c **** /*******************************************************************************
 337:.\Generated_Source\PSoC4/PSoC_SPI.c **** * Function Name: PSoC_SPI_SetTxInterruptMode
 338:.\Generated_Source\PSoC4/PSoC_SPI.c **** ********************************************************************************
 339:.\Generated_Source\PSoC4/PSoC_SPI.c **** *
 340:.\Generated_Source\PSoC4/PSoC_SPI.c **** * Summary:
 341:.\Generated_Source\PSoC4/PSoC_SPI.c **** *  Configure which status bits trigger an interrupt event.
 342:.\Generated_Source\PSoC4/PSoC_SPI.c **** *
 343:.\Generated_Source\PSoC4/PSoC_SPI.c **** * Parameters:
 344:.\Generated_Source\PSoC4/PSoC_SPI.c **** *  intSrc: An or'd combination of the desired status bit masks (defined in the
 345:.\Generated_Source\PSoC4/PSoC_SPI.c **** *  header file).
 346:.\Generated_Source\PSoC4/PSoC_SPI.c **** *
 347:.\Generated_Source\PSoC4/PSoC_SPI.c **** * Return:
 348:.\Generated_Source\PSoC4/PSoC_SPI.c **** *  None.
 349:.\Generated_Source\PSoC4/PSoC_SPI.c **** *
 350:.\Generated_Source\PSoC4/PSoC_SPI.c **** * Theory:
 351:.\Generated_Source\PSoC4/PSoC_SPI.c **** *  Enables the output of specific status bits to the interrupt controller.
 352:.\Generated_Source\PSoC4/PSoC_SPI.c **** *
 353:.\Generated_Source\PSoC4/PSoC_SPI.c **** *******************************************************************************/
 354:.\Generated_Source\PSoC4/PSoC_SPI.c **** void PSoC_SPI_SetTxInterruptMode(uint8 intSrc) 
 355:.\Generated_Source\PSoC4/PSoC_SPI.c **** {
 183              		.loc 1 355 0
 184              		.cfi_startproc
 185              	.LVL4:
 356:.\Generated_Source\PSoC4/PSoC_SPI.c ****     PSoC_SPI_TX_STATUS_MASK_REG  = intSrc;
 186              		.loc 1 356 0
 187 0000 014B     		ldr	r3, .L12
 188 0002 1870     		strb	r0, [r3]
 357:.\Generated_Source\PSoC4/PSoC_SPI.c **** }
 189              		.loc 1 357 0
 190              		@ sp needed
 191 0004 7047     		bx	lr
 192              	.L13:
 193 0006 C046     		.align	2
 194              	.L12:
 195 0008 82000F40 		.word	1074724994
 196              		.cfi_endproc
 197              	.LFE10:
 198              		.size	PSoC_SPI_SetTxInterruptMode, .-PSoC_SPI_SetTxInterruptMode
 199              		.section	.text.PSoC_SPI_SetRxInterruptMode,"ax",%progbits
 200              		.align	2
 201              		.global	PSoC_SPI_SetRxInterruptMode
 202              		.code	16
 203              		.thumb_func
 204              		.type	PSoC_SPI_SetRxInterruptMode, %function
 205              	PSoC_SPI_SetRxInterruptMode:
 206              	.LFB11:
 358:.\Generated_Source\PSoC4/PSoC_SPI.c **** 
 359:.\Generated_Source\PSoC4/PSoC_SPI.c **** 
 360:.\Generated_Source\PSoC4/PSoC_SPI.c **** /*******************************************************************************
 361:.\Generated_Source\PSoC4/PSoC_SPI.c **** * Function Name: PSoC_SPI_SetRxInterruptMode
 362:.\Generated_Source\PSoC4/PSoC_SPI.c **** ********************************************************************************
 363:.\Generated_Source\PSoC4/PSoC_SPI.c **** *
 364:.\Generated_Source\PSoC4/PSoC_SPI.c **** * Summary:
ARM GAS  C:\Users\JOHNSO~1\AppData\Local\Temp\ccBuA6sA.s 			page 11


 365:.\Generated_Source\PSoC4/PSoC_SPI.c **** *  Configure which status bits trigger an interrupt event.
 366:.\Generated_Source\PSoC4/PSoC_SPI.c **** *
 367:.\Generated_Source\PSoC4/PSoC_SPI.c **** * Parameters:
 368:.\Generated_Source\PSoC4/PSoC_SPI.c **** *  intSrc: An or'd combination of the desired status bit masks (defined in the
 369:.\Generated_Source\PSoC4/PSoC_SPI.c **** *  header file).
 370:.\Generated_Source\PSoC4/PSoC_SPI.c **** *
 371:.\Generated_Source\PSoC4/PSoC_SPI.c **** * Return:
 372:.\Generated_Source\PSoC4/PSoC_SPI.c **** *  None.
 373:.\Generated_Source\PSoC4/PSoC_SPI.c **** *
 374:.\Generated_Source\PSoC4/PSoC_SPI.c **** * Theory:
 375:.\Generated_Source\PSoC4/PSoC_SPI.c **** *  Enables the output of specific status bits to the interrupt controller.
 376:.\Generated_Source\PSoC4/PSoC_SPI.c **** *
 377:.\Generated_Source\PSoC4/PSoC_SPI.c **** *******************************************************************************/
 378:.\Generated_Source\PSoC4/PSoC_SPI.c **** void PSoC_SPI_SetRxInterruptMode(uint8 intSrc) 
 379:.\Generated_Source\PSoC4/PSoC_SPI.c **** {
 207              		.loc 1 379 0
 208              		.cfi_startproc
 209              	.LVL5:
 380:.\Generated_Source\PSoC4/PSoC_SPI.c ****     PSoC_SPI_RX_STATUS_MASK_REG  = intSrc;
 210              		.loc 1 380 0
 211 0000 014B     		ldr	r3, .L15
 212 0002 1870     		strb	r0, [r3]
 381:.\Generated_Source\PSoC4/PSoC_SPI.c **** }
 213              		.loc 1 381 0
 214              		@ sp needed
 215 0004 7047     		bx	lr
 216              	.L16:
 217 0006 C046     		.align	2
 218              	.L15:
 219 0008 81000F40 		.word	1074724993
 220              		.cfi_endproc
 221              	.LFE11:
 222              		.size	PSoC_SPI_SetRxInterruptMode, .-PSoC_SPI_SetRxInterruptMode
 223              		.section	.text.PSoC_SPI_ReadTxStatus,"ax",%progbits
 224              		.align	2
 225              		.global	PSoC_SPI_ReadTxStatus
 226              		.code	16
 227              		.thumb_func
 228              		.type	PSoC_SPI_ReadTxStatus, %function
 229              	PSoC_SPI_ReadTxStatus:
 230              	.LFB12:
 382:.\Generated_Source\PSoC4/PSoC_SPI.c **** 
 383:.\Generated_Source\PSoC4/PSoC_SPI.c **** 
 384:.\Generated_Source\PSoC4/PSoC_SPI.c **** /*******************************************************************************
 385:.\Generated_Source\PSoC4/PSoC_SPI.c **** * Function Name: PSoC_SPI_ReadTxStatus
 386:.\Generated_Source\PSoC4/PSoC_SPI.c **** ********************************************************************************
 387:.\Generated_Source\PSoC4/PSoC_SPI.c **** *
 388:.\Generated_Source\PSoC4/PSoC_SPI.c **** * Summary:
 389:.\Generated_Source\PSoC4/PSoC_SPI.c **** *  Read the Tx status register for the component.
 390:.\Generated_Source\PSoC4/PSoC_SPI.c **** *
 391:.\Generated_Source\PSoC4/PSoC_SPI.c **** * Parameters:
 392:.\Generated_Source\PSoC4/PSoC_SPI.c **** *  None.
 393:.\Generated_Source\PSoC4/PSoC_SPI.c **** *
 394:.\Generated_Source\PSoC4/PSoC_SPI.c **** * Return:
 395:.\Generated_Source\PSoC4/PSoC_SPI.c **** *  Contents of the Tx status register.
 396:.\Generated_Source\PSoC4/PSoC_SPI.c **** *
 397:.\Generated_Source\PSoC4/PSoC_SPI.c **** * Global variables:
ARM GAS  C:\Users\JOHNSO~1\AppData\Local\Temp\ccBuA6sA.s 			page 12


 398:.\Generated_Source\PSoC4/PSoC_SPI.c **** *  PSoC_SPI_swStatusTx - used to store in software status register,
 399:.\Generated_Source\PSoC4/PSoC_SPI.c **** *  modified every function call - resets to zero.
 400:.\Generated_Source\PSoC4/PSoC_SPI.c **** *
 401:.\Generated_Source\PSoC4/PSoC_SPI.c **** * Theory:
 402:.\Generated_Source\PSoC4/PSoC_SPI.c **** *  Allows the user and the API to read the Tx status register for error
 403:.\Generated_Source\PSoC4/PSoC_SPI.c **** *  detection and flow control.
 404:.\Generated_Source\PSoC4/PSoC_SPI.c **** *
 405:.\Generated_Source\PSoC4/PSoC_SPI.c **** * Side Effects:
 406:.\Generated_Source\PSoC4/PSoC_SPI.c **** *  Clear Tx status register of the component.
 407:.\Generated_Source\PSoC4/PSoC_SPI.c **** *
 408:.\Generated_Source\PSoC4/PSoC_SPI.c **** * Reentrant:
 409:.\Generated_Source\PSoC4/PSoC_SPI.c **** *  No.
 410:.\Generated_Source\PSoC4/PSoC_SPI.c **** *
 411:.\Generated_Source\PSoC4/PSoC_SPI.c **** *******************************************************************************/
 412:.\Generated_Source\PSoC4/PSoC_SPI.c **** uint8 PSoC_SPI_ReadTxStatus(void) 
 413:.\Generated_Source\PSoC4/PSoC_SPI.c **** {
 231              		.loc 1 413 0
 232              		.cfi_startproc
 414:.\Generated_Source\PSoC4/PSoC_SPI.c ****     uint8 tmpStatus;
 415:.\Generated_Source\PSoC4/PSoC_SPI.c **** 
 416:.\Generated_Source\PSoC4/PSoC_SPI.c ****     #if (PSoC_SPI_TX_SOFTWARE_BUF_ENABLED)
 417:.\Generated_Source\PSoC4/PSoC_SPI.c **** 
 418:.\Generated_Source\PSoC4/PSoC_SPI.c ****         PSoC_SPI_DisableTxInt();
 419:.\Generated_Source\PSoC4/PSoC_SPI.c **** 
 420:.\Generated_Source\PSoC4/PSoC_SPI.c ****         tmpStatus = PSoC_SPI_GET_STATUS_TX(PSoC_SPI_swStatusTx);
 421:.\Generated_Source\PSoC4/PSoC_SPI.c **** 
 422:.\Generated_Source\PSoC4/PSoC_SPI.c ****         PSoC_SPI_swStatusTx = 0u;
 423:.\Generated_Source\PSoC4/PSoC_SPI.c **** 
 424:.\Generated_Source\PSoC4/PSoC_SPI.c ****         /* Enable Interrupts */
 425:.\Generated_Source\PSoC4/PSoC_SPI.c ****         PSoC_SPI_EnableTxInt();
 426:.\Generated_Source\PSoC4/PSoC_SPI.c **** 
 427:.\Generated_Source\PSoC4/PSoC_SPI.c ****     #else /* !PSoC_SPI_TX_SOFTWARE_BUF_ENABLED */
 428:.\Generated_Source\PSoC4/PSoC_SPI.c **** 
 429:.\Generated_Source\PSoC4/PSoC_SPI.c ****         tmpStatus = PSoC_SPI_TX_STATUS_REG;
 233              		.loc 1 429 0
 234 0000 014B     		ldr	r3, .L18
 235 0002 1878     		ldrb	r0, [r3]
 236 0004 C0B2     		uxtb	r0, r0
 237              	.LVL6:
 430:.\Generated_Source\PSoC4/PSoC_SPI.c **** 
 431:.\Generated_Source\PSoC4/PSoC_SPI.c ****     #endif /* PSoC_SPI_TX_SOFTWARE_BUF_ENABLED */
 432:.\Generated_Source\PSoC4/PSoC_SPI.c **** 
 433:.\Generated_Source\PSoC4/PSoC_SPI.c ****     return(tmpStatus);
 434:.\Generated_Source\PSoC4/PSoC_SPI.c **** }
 238              		.loc 1 434 0
 239              		@ sp needed
 240 0006 7047     		bx	lr
 241              	.L19:
 242              		.align	2
 243              	.L18:
 244 0008 62000F40 		.word	1074724962
 245              		.cfi_endproc
 246              	.LFE12:
 247              		.size	PSoC_SPI_ReadTxStatus, .-PSoC_SPI_ReadTxStatus
 248              		.section	.text.PSoC_SPI_ReadRxStatus,"ax",%progbits
 249              		.align	2
 250              		.global	PSoC_SPI_ReadRxStatus
ARM GAS  C:\Users\JOHNSO~1\AppData\Local\Temp\ccBuA6sA.s 			page 13


 251              		.code	16
 252              		.thumb_func
 253              		.type	PSoC_SPI_ReadRxStatus, %function
 254              	PSoC_SPI_ReadRxStatus:
 255              	.LFB13:
 435:.\Generated_Source\PSoC4/PSoC_SPI.c **** 
 436:.\Generated_Source\PSoC4/PSoC_SPI.c **** 
 437:.\Generated_Source\PSoC4/PSoC_SPI.c **** /*******************************************************************************
 438:.\Generated_Source\PSoC4/PSoC_SPI.c **** * Function Name: PSoC_SPI_ReadRxStatus
 439:.\Generated_Source\PSoC4/PSoC_SPI.c **** ********************************************************************************
 440:.\Generated_Source\PSoC4/PSoC_SPI.c **** *
 441:.\Generated_Source\PSoC4/PSoC_SPI.c **** * Summary:
 442:.\Generated_Source\PSoC4/PSoC_SPI.c **** *  Read the Rx status register for the component.
 443:.\Generated_Source\PSoC4/PSoC_SPI.c **** *
 444:.\Generated_Source\PSoC4/PSoC_SPI.c **** * Parameters:
 445:.\Generated_Source\PSoC4/PSoC_SPI.c **** *  None.
 446:.\Generated_Source\PSoC4/PSoC_SPI.c **** *
 447:.\Generated_Source\PSoC4/PSoC_SPI.c **** * Return:
 448:.\Generated_Source\PSoC4/PSoC_SPI.c **** *  Contents of the Rx status register.
 449:.\Generated_Source\PSoC4/PSoC_SPI.c **** *
 450:.\Generated_Source\PSoC4/PSoC_SPI.c **** * Global variables:
 451:.\Generated_Source\PSoC4/PSoC_SPI.c **** *  PSoC_SPI_swStatusRx - used to store in software Rx status register,
 452:.\Generated_Source\PSoC4/PSoC_SPI.c **** *  modified every function call - resets to zero.
 453:.\Generated_Source\PSoC4/PSoC_SPI.c **** *
 454:.\Generated_Source\PSoC4/PSoC_SPI.c **** * Theory:
 455:.\Generated_Source\PSoC4/PSoC_SPI.c **** *  Allows the user and the API to read the Rx status register for error
 456:.\Generated_Source\PSoC4/PSoC_SPI.c **** *  detection and flow control.
 457:.\Generated_Source\PSoC4/PSoC_SPI.c **** *
 458:.\Generated_Source\PSoC4/PSoC_SPI.c **** * Side Effects:
 459:.\Generated_Source\PSoC4/PSoC_SPI.c **** *  Clear Rx status register of the component.
 460:.\Generated_Source\PSoC4/PSoC_SPI.c **** *
 461:.\Generated_Source\PSoC4/PSoC_SPI.c **** * Reentrant:
 462:.\Generated_Source\PSoC4/PSoC_SPI.c **** *  No.
 463:.\Generated_Source\PSoC4/PSoC_SPI.c **** *
 464:.\Generated_Source\PSoC4/PSoC_SPI.c **** *******************************************************************************/
 465:.\Generated_Source\PSoC4/PSoC_SPI.c **** uint8 PSoC_SPI_ReadRxStatus(void) 
 466:.\Generated_Source\PSoC4/PSoC_SPI.c **** {
 256              		.loc 1 466 0
 257              		.cfi_startproc
 467:.\Generated_Source\PSoC4/PSoC_SPI.c ****     uint8 tmpStatus;
 468:.\Generated_Source\PSoC4/PSoC_SPI.c **** 
 469:.\Generated_Source\PSoC4/PSoC_SPI.c ****     #if (PSoC_SPI_RX_SOFTWARE_BUF_ENABLED)
 470:.\Generated_Source\PSoC4/PSoC_SPI.c **** 
 471:.\Generated_Source\PSoC4/PSoC_SPI.c ****         PSoC_SPI_DisableRxInt();
 472:.\Generated_Source\PSoC4/PSoC_SPI.c **** 
 473:.\Generated_Source\PSoC4/PSoC_SPI.c ****         tmpStatus = PSoC_SPI_GET_STATUS_RX(PSoC_SPI_swStatusRx);
 474:.\Generated_Source\PSoC4/PSoC_SPI.c **** 
 475:.\Generated_Source\PSoC4/PSoC_SPI.c ****         PSoC_SPI_swStatusRx = 0u;
 476:.\Generated_Source\PSoC4/PSoC_SPI.c **** 
 477:.\Generated_Source\PSoC4/PSoC_SPI.c ****         /* Enable Interrupts */
 478:.\Generated_Source\PSoC4/PSoC_SPI.c ****         PSoC_SPI_EnableRxInt();
 479:.\Generated_Source\PSoC4/PSoC_SPI.c **** 
 480:.\Generated_Source\PSoC4/PSoC_SPI.c ****     #else /* !PSoC_SPI_RX_SOFTWARE_BUF_ENABLED */
 481:.\Generated_Source\PSoC4/PSoC_SPI.c **** 
 482:.\Generated_Source\PSoC4/PSoC_SPI.c ****         tmpStatus = PSoC_SPI_RX_STATUS_REG;
 258              		.loc 1 482 0
 259 0000 014B     		ldr	r3, .L21
ARM GAS  C:\Users\JOHNSO~1\AppData\Local\Temp\ccBuA6sA.s 			page 14


 260 0002 1878     		ldrb	r0, [r3]
 261 0004 C0B2     		uxtb	r0, r0
 262              	.LVL7:
 483:.\Generated_Source\PSoC4/PSoC_SPI.c **** 
 484:.\Generated_Source\PSoC4/PSoC_SPI.c ****     #endif /* PSoC_SPI_RX_SOFTWARE_BUF_ENABLED */
 485:.\Generated_Source\PSoC4/PSoC_SPI.c **** 
 486:.\Generated_Source\PSoC4/PSoC_SPI.c ****     return(tmpStatus);
 487:.\Generated_Source\PSoC4/PSoC_SPI.c **** }
 263              		.loc 1 487 0
 264              		@ sp needed
 265 0006 7047     		bx	lr
 266              	.L22:
 267              		.align	2
 268              	.L21:
 269 0008 61000F40 		.word	1074724961
 270              		.cfi_endproc
 271              	.LFE13:
 272              		.size	PSoC_SPI_ReadRxStatus, .-PSoC_SPI_ReadRxStatus
 273              		.section	.text.PSoC_SPI_WriteTxData,"ax",%progbits
 274              		.align	2
 275              		.global	PSoC_SPI_WriteTxData
 276              		.code	16
 277              		.thumb_func
 278              		.type	PSoC_SPI_WriteTxData, %function
 279              	PSoC_SPI_WriteTxData:
 280              	.LFB14:
 488:.\Generated_Source\PSoC4/PSoC_SPI.c **** 
 489:.\Generated_Source\PSoC4/PSoC_SPI.c **** 
 490:.\Generated_Source\PSoC4/PSoC_SPI.c **** /*******************************************************************************
 491:.\Generated_Source\PSoC4/PSoC_SPI.c **** * Function Name: PSoC_SPI_WriteTxData
 492:.\Generated_Source\PSoC4/PSoC_SPI.c **** ********************************************************************************
 493:.\Generated_Source\PSoC4/PSoC_SPI.c **** *
 494:.\Generated_Source\PSoC4/PSoC_SPI.c **** * Summary:
 495:.\Generated_Source\PSoC4/PSoC_SPI.c **** *  Write a byte of data to be sent across the SPI.
 496:.\Generated_Source\PSoC4/PSoC_SPI.c **** *
 497:.\Generated_Source\PSoC4/PSoC_SPI.c **** * Parameters:
 498:.\Generated_Source\PSoC4/PSoC_SPI.c **** *  txDataByte: The data value to send across the SPI.
 499:.\Generated_Source\PSoC4/PSoC_SPI.c **** *
 500:.\Generated_Source\PSoC4/PSoC_SPI.c **** * Return:
 501:.\Generated_Source\PSoC4/PSoC_SPI.c **** *  None.
 502:.\Generated_Source\PSoC4/PSoC_SPI.c **** *
 503:.\Generated_Source\PSoC4/PSoC_SPI.c **** * Global variables:
 504:.\Generated_Source\PSoC4/PSoC_SPI.c **** *  PSoC_SPI_txBufferWrite - used for the account of the bytes which
 505:.\Generated_Source\PSoC4/PSoC_SPI.c **** *  have been written down in the TX software buffer, modified every function
 506:.\Generated_Source\PSoC4/PSoC_SPI.c **** *  call if TX Software Buffer is used.
 507:.\Generated_Source\PSoC4/PSoC_SPI.c **** *  PSoC_SPI_txBufferRead - used for the account of the bytes which
 508:.\Generated_Source\PSoC4/PSoC_SPI.c **** *  have been read from the TX software buffer.
 509:.\Generated_Source\PSoC4/PSoC_SPI.c **** *  PSoC_SPI_txBuffer[PSoC_SPI_TX_BUFFER_SIZE] - used to store
 510:.\Generated_Source\PSoC4/PSoC_SPI.c **** *  data to sending, modified every function call if TX Software Buffer is used.
 511:.\Generated_Source\PSoC4/PSoC_SPI.c **** *
 512:.\Generated_Source\PSoC4/PSoC_SPI.c **** * Theory:
 513:.\Generated_Source\PSoC4/PSoC_SPI.c **** *  Allows the user to transmit any byte of data in a single transfer.
 514:.\Generated_Source\PSoC4/PSoC_SPI.c **** *
 515:.\Generated_Source\PSoC4/PSoC_SPI.c **** * Side Effects:
 516:.\Generated_Source\PSoC4/PSoC_SPI.c **** *  If this function is called again before the previous byte is finished then
 517:.\Generated_Source\PSoC4/PSoC_SPI.c **** *  the next byte will be appended to the transfer with no time between
 518:.\Generated_Source\PSoC4/PSoC_SPI.c **** *  the byte transfers. Clear Tx status register of the component.
ARM GAS  C:\Users\JOHNSO~1\AppData\Local\Temp\ccBuA6sA.s 			page 15


 519:.\Generated_Source\PSoC4/PSoC_SPI.c **** *
 520:.\Generated_Source\PSoC4/PSoC_SPI.c **** * Reentrant:
 521:.\Generated_Source\PSoC4/PSoC_SPI.c **** *  No.
 522:.\Generated_Source\PSoC4/PSoC_SPI.c **** *
 523:.\Generated_Source\PSoC4/PSoC_SPI.c **** *******************************************************************************/
 524:.\Generated_Source\PSoC4/PSoC_SPI.c **** void PSoC_SPI_WriteTxData(uint8 txData) 
 525:.\Generated_Source\PSoC4/PSoC_SPI.c **** {
 281              		.loc 1 525 0
 282              		.cfi_startproc
 283              	.LVL8:
 526:.\Generated_Source\PSoC4/PSoC_SPI.c ****     #if(PSoC_SPI_TX_SOFTWARE_BUF_ENABLED)
 527:.\Generated_Source\PSoC4/PSoC_SPI.c **** 
 528:.\Generated_Source\PSoC4/PSoC_SPI.c ****         uint8 tempStatus;
 529:.\Generated_Source\PSoC4/PSoC_SPI.c ****         uint8 tmpTxBufferRead;
 530:.\Generated_Source\PSoC4/PSoC_SPI.c **** 
 531:.\Generated_Source\PSoC4/PSoC_SPI.c ****         /* Block if buffer is full, so we don't overwrite. */
 532:.\Generated_Source\PSoC4/PSoC_SPI.c ****         do
 533:.\Generated_Source\PSoC4/PSoC_SPI.c ****         {
 534:.\Generated_Source\PSoC4/PSoC_SPI.c ****             tmpTxBufferRead = PSoC_SPI_txBufferRead;
 535:.\Generated_Source\PSoC4/PSoC_SPI.c ****             if (0u == tmpTxBufferRead)
 536:.\Generated_Source\PSoC4/PSoC_SPI.c ****             {
 537:.\Generated_Source\PSoC4/PSoC_SPI.c ****                 tmpTxBufferRead = PSoC_SPI_TX_BUFFER_SIZE - 1u;
 538:.\Generated_Source\PSoC4/PSoC_SPI.c ****             }
 539:.\Generated_Source\PSoC4/PSoC_SPI.c ****             else
 540:.\Generated_Source\PSoC4/PSoC_SPI.c ****             {
 541:.\Generated_Source\PSoC4/PSoC_SPI.c ****                 tmpTxBufferRead--;
 542:.\Generated_Source\PSoC4/PSoC_SPI.c ****             }
 543:.\Generated_Source\PSoC4/PSoC_SPI.c **** 
 544:.\Generated_Source\PSoC4/PSoC_SPI.c ****         }
 545:.\Generated_Source\PSoC4/PSoC_SPI.c ****         while(tmpTxBufferRead == PSoC_SPI_txBufferWrite);
 546:.\Generated_Source\PSoC4/PSoC_SPI.c **** 
 547:.\Generated_Source\PSoC4/PSoC_SPI.c ****         /* Disable Interrupt to protect variables that could change on interrupt. */
 548:.\Generated_Source\PSoC4/PSoC_SPI.c ****         PSoC_SPI_DisableTxInt();
 549:.\Generated_Source\PSoC4/PSoC_SPI.c **** 
 550:.\Generated_Source\PSoC4/PSoC_SPI.c ****         tempStatus = PSoC_SPI_GET_STATUS_TX(PSoC_SPI_swStatusTx);
 551:.\Generated_Source\PSoC4/PSoC_SPI.c ****         PSoC_SPI_swStatusTx = tempStatus;
 552:.\Generated_Source\PSoC4/PSoC_SPI.c **** 
 553:.\Generated_Source\PSoC4/PSoC_SPI.c ****         if((PSoC_SPI_txBufferRead == PSoC_SPI_txBufferWrite) &&
 554:.\Generated_Source\PSoC4/PSoC_SPI.c ****             (0u != (PSoC_SPI_swStatusTx & PSoC_SPI_STS_TX_FIFO_NOT_FULL)))
 555:.\Generated_Source\PSoC4/PSoC_SPI.c ****         {
 556:.\Generated_Source\PSoC4/PSoC_SPI.c ****             /* Put data element into the TX FIFO */
 557:.\Generated_Source\PSoC4/PSoC_SPI.c ****             CY_SET_REG8(PSoC_SPI_TXDATA_PTR, txData);
 558:.\Generated_Source\PSoC4/PSoC_SPI.c ****         }
 559:.\Generated_Source\PSoC4/PSoC_SPI.c ****         else
 560:.\Generated_Source\PSoC4/PSoC_SPI.c ****         {
 561:.\Generated_Source\PSoC4/PSoC_SPI.c ****             /* Put data element into the software buffer */
 562:.\Generated_Source\PSoC4/PSoC_SPI.c ****             PSoC_SPI_txBufferWrite++;
 563:.\Generated_Source\PSoC4/PSoC_SPI.c ****             if(PSoC_SPI_txBufferWrite >= PSoC_SPI_TX_BUFFER_SIZE)
 564:.\Generated_Source\PSoC4/PSoC_SPI.c ****             {
 565:.\Generated_Source\PSoC4/PSoC_SPI.c ****                 PSoC_SPI_txBufferWrite = 0u;
 566:.\Generated_Source\PSoC4/PSoC_SPI.c ****             }
 567:.\Generated_Source\PSoC4/PSoC_SPI.c **** 
 568:.\Generated_Source\PSoC4/PSoC_SPI.c ****             if(PSoC_SPI_txBufferWrite == PSoC_SPI_txBufferRead)
 569:.\Generated_Source\PSoC4/PSoC_SPI.c ****             {
 570:.\Generated_Source\PSoC4/PSoC_SPI.c ****                 PSoC_SPI_txBufferRead++;
 571:.\Generated_Source\PSoC4/PSoC_SPI.c ****                 if(PSoC_SPI_txBufferRead >= PSoC_SPI_RX_BUFFER_SIZE)
 572:.\Generated_Source\PSoC4/PSoC_SPI.c ****                 {
ARM GAS  C:\Users\JOHNSO~1\AppData\Local\Temp\ccBuA6sA.s 			page 16


 573:.\Generated_Source\PSoC4/PSoC_SPI.c ****                     PSoC_SPI_txBufferRead = 0u;
 574:.\Generated_Source\PSoC4/PSoC_SPI.c ****                 }
 575:.\Generated_Source\PSoC4/PSoC_SPI.c ****                 PSoC_SPI_txBufferFull = 1u;
 576:.\Generated_Source\PSoC4/PSoC_SPI.c ****             }
 577:.\Generated_Source\PSoC4/PSoC_SPI.c **** 
 578:.\Generated_Source\PSoC4/PSoC_SPI.c ****             PSoC_SPI_txBuffer[PSoC_SPI_txBufferWrite] = txData;
 579:.\Generated_Source\PSoC4/PSoC_SPI.c **** 
 580:.\Generated_Source\PSoC4/PSoC_SPI.c ****             PSoC_SPI_TX_STATUS_MASK_REG |= PSoC_SPI_STS_TX_FIFO_NOT_FULL;
 581:.\Generated_Source\PSoC4/PSoC_SPI.c ****         }
 582:.\Generated_Source\PSoC4/PSoC_SPI.c **** 
 583:.\Generated_Source\PSoC4/PSoC_SPI.c ****         /* Enable Interrupt. */
 584:.\Generated_Source\PSoC4/PSoC_SPI.c ****         PSoC_SPI_EnableTxInt();
 585:.\Generated_Source\PSoC4/PSoC_SPI.c **** 
 586:.\Generated_Source\PSoC4/PSoC_SPI.c ****     #else /* !PSoC_SPI_TX_SOFTWARE_BUF_ENABLED */
 587:.\Generated_Source\PSoC4/PSoC_SPI.c ****         /* Wait until TX FIFO has a place */
 588:.\Generated_Source\PSoC4/PSoC_SPI.c ****         while(0u == (PSoC_SPI_TX_STATUS_REG & PSoC_SPI_STS_TX_FIFO_NOT_FULL))
 284              		.loc 1 588 0
 285 0000 0349     		ldr	r1, .L26
 286 0002 0222     		mov	r2, #2
 287              	.L24:
 288              		.loc 1 588 0 is_stmt 0 discriminator 1
 289 0004 0B78     		ldrb	r3, [r1]
 290 0006 1342     		tst	r3, r2
 291 0008 FCD0     		beq	.L24
 589:.\Generated_Source\PSoC4/PSoC_SPI.c ****         {
 590:.\Generated_Source\PSoC4/PSoC_SPI.c ****         }
 591:.\Generated_Source\PSoC4/PSoC_SPI.c **** 
 592:.\Generated_Source\PSoC4/PSoC_SPI.c ****         /* Put data element into the TX FIFO */
 593:.\Generated_Source\PSoC4/PSoC_SPI.c ****         CY_SET_REG8(PSoC_SPI_TXDATA_PTR, txData);
 292              		.loc 1 593 0 is_stmt 1
 293 000a 024B     		ldr	r3, .L26+4
 294 000c 1870     		strb	r0, [r3]
 594:.\Generated_Source\PSoC4/PSoC_SPI.c ****         
 595:.\Generated_Source\PSoC4/PSoC_SPI.c ****     #endif /* PSoC_SPI_TX_SOFTWARE_BUF_ENABLED */
 596:.\Generated_Source\PSoC4/PSoC_SPI.c **** }
 295              		.loc 1 596 0
 296              		@ sp needed
 297 000e 7047     		bx	lr
 298              	.L27:
 299              		.align	2
 300              	.L26:
 301 0010 62000F40 		.word	1074724962
 302 0014 40000F40 		.word	1074724928
 303              		.cfi_endproc
 304              	.LFE14:
 305              		.size	PSoC_SPI_WriteTxData, .-PSoC_SPI_WriteTxData
 306              		.section	.text.PSoC_SPI_WriteTxDataZero,"ax",%progbits
 307              		.align	2
 308              		.global	PSoC_SPI_WriteTxDataZero
 309              		.code	16
 310              		.thumb_func
 311              		.type	PSoC_SPI_WriteTxDataZero, %function
 312              	PSoC_SPI_WriteTxDataZero:
 313              	.LFB15:
 597:.\Generated_Source\PSoC4/PSoC_SPI.c **** 
 598:.\Generated_Source\PSoC4/PSoC_SPI.c **** #if(PSoC_SPI_MODE_USE_ZERO != 0u)
 599:.\Generated_Source\PSoC4/PSoC_SPI.c **** 
ARM GAS  C:\Users\JOHNSO~1\AppData\Local\Temp\ccBuA6sA.s 			page 17


 600:.\Generated_Source\PSoC4/PSoC_SPI.c ****     /*******************************************************************************
 601:.\Generated_Source\PSoC4/PSoC_SPI.c ****     * Function Name: PSoC_SPI_WriteTxDataZero
 602:.\Generated_Source\PSoC4/PSoC_SPI.c ****     ********************************************************************************
 603:.\Generated_Source\PSoC4/PSoC_SPI.c ****     *
 604:.\Generated_Source\PSoC4/PSoC_SPI.c ****     * Summary:
 605:.\Generated_Source\PSoC4/PSoC_SPI.c ****     *  Write a byte zero of data to be sent across the SPI. This must be used in
 606:.\Generated_Source\PSoC4/PSoC_SPI.c ****     *  Mode 00 and 01 if the FIFO is empty and data is not being sent.
 607:.\Generated_Source\PSoC4/PSoC_SPI.c ****     *
 608:.\Generated_Source\PSoC4/PSoC_SPI.c ****     * Parameters:
 609:.\Generated_Source\PSoC4/PSoC_SPI.c ****     *  txDataByte: The data value to send across the SPI.
 610:.\Generated_Source\PSoC4/PSoC_SPI.c ****     *
 611:.\Generated_Source\PSoC4/PSoC_SPI.c ****     * Return:
 612:.\Generated_Source\PSoC4/PSoC_SPI.c ****     *  None.
 613:.\Generated_Source\PSoC4/PSoC_SPI.c ****     *
 614:.\Generated_Source\PSoC4/PSoC_SPI.c ****     * Theory:
 615:.\Generated_Source\PSoC4/PSoC_SPI.c ****     *  Allows the user to transmit any byte of data in a single transfer. Clear
 616:.\Generated_Source\PSoC4/PSoC_SPI.c ****     *  status register of the component.
 617:.\Generated_Source\PSoC4/PSoC_SPI.c ****     *
 618:.\Generated_Source\PSoC4/PSoC_SPI.c ****     *******************************************************************************/
 619:.\Generated_Source\PSoC4/PSoC_SPI.c ****     void PSoC_SPI_WriteTxDataZero(uint8 txDataByte)
 620:.\Generated_Source\PSoC4/PSoC_SPI.c ****                                         
 621:.\Generated_Source\PSoC4/PSoC_SPI.c ****     {
 314              		.loc 1 621 0
 315              		.cfi_startproc
 316              	.LVL9:
 622:.\Generated_Source\PSoC4/PSoC_SPI.c ****         CY_SET_REG8(PSoC_SPI_TXDATA_ZERO_PTR, txDataByte);
 317              		.loc 1 622 0
 318 0000 014B     		ldr	r3, .L29
 319 0002 1870     		strb	r0, [r3]
 623:.\Generated_Source\PSoC4/PSoC_SPI.c ****     }
 320              		.loc 1 623 0
 321              		@ sp needed
 322 0004 7047     		bx	lr
 323              	.L30:
 324 0006 C046     		.align	2
 325              	.L29:
 326 0008 00000F40 		.word	1074724864
 327              		.cfi_endproc
 328              	.LFE15:
 329              		.size	PSoC_SPI_WriteTxDataZero, .-PSoC_SPI_WriteTxDataZero
 330              		.section	.text.PSoC_SPI_ReadRxData,"ax",%progbits
 331              		.align	2
 332              		.global	PSoC_SPI_ReadRxData
 333              		.code	16
 334              		.thumb_func
 335              		.type	PSoC_SPI_ReadRxData, %function
 336              	PSoC_SPI_ReadRxData:
 337              	.LFB16:
 624:.\Generated_Source\PSoC4/PSoC_SPI.c **** 
 625:.\Generated_Source\PSoC4/PSoC_SPI.c **** #endif /* (PSoC_SPI_MODE_USE_ZERO != 0u) */
 626:.\Generated_Source\PSoC4/PSoC_SPI.c **** 
 627:.\Generated_Source\PSoC4/PSoC_SPI.c **** 
 628:.\Generated_Source\PSoC4/PSoC_SPI.c **** /*******************************************************************************
 629:.\Generated_Source\PSoC4/PSoC_SPI.c **** * Function Name: PSoC_SPI_ReadRxData
 630:.\Generated_Source\PSoC4/PSoC_SPI.c **** ********************************************************************************
 631:.\Generated_Source\PSoC4/PSoC_SPI.c **** *
 632:.\Generated_Source\PSoC4/PSoC_SPI.c **** * Summary:
ARM GAS  C:\Users\JOHNSO~1\AppData\Local\Temp\ccBuA6sA.s 			page 18


 633:.\Generated_Source\PSoC4/PSoC_SPI.c **** *  Read the next byte of data received across the SPI.
 634:.\Generated_Source\PSoC4/PSoC_SPI.c **** *
 635:.\Generated_Source\PSoC4/PSoC_SPI.c **** * Parameters:
 636:.\Generated_Source\PSoC4/PSoC_SPI.c **** *  None.
 637:.\Generated_Source\PSoC4/PSoC_SPI.c **** *
 638:.\Generated_Source\PSoC4/PSoC_SPI.c **** * Return:
 639:.\Generated_Source\PSoC4/PSoC_SPI.c **** *  The next byte of data read from the FIFO.
 640:.\Generated_Source\PSoC4/PSoC_SPI.c **** *
 641:.\Generated_Source\PSoC4/PSoC_SPI.c **** * Global variables:
 642:.\Generated_Source\PSoC4/PSoC_SPI.c **** *  PSoC_SPI_rxBufferWrite - used for the account of the bytes which
 643:.\Generated_Source\PSoC4/PSoC_SPI.c **** *  have been written down in the RX software buffer.
 644:.\Generated_Source\PSoC4/PSoC_SPI.c **** *  PSoC_SPI_rxBufferRead - used for the account of the bytes which
 645:.\Generated_Source\PSoC4/PSoC_SPI.c **** *  have been read from the RX software buffer, modified every function
 646:.\Generated_Source\PSoC4/PSoC_SPI.c **** *  call if RX Software Buffer is used.
 647:.\Generated_Source\PSoC4/PSoC_SPI.c **** *  PSoC_SPI_rxBuffer[PSoC_SPI_RX_BUFFER_SIZE] - used to store
 648:.\Generated_Source\PSoC4/PSoC_SPI.c **** *  received data.
 649:.\Generated_Source\PSoC4/PSoC_SPI.c **** *
 650:.\Generated_Source\PSoC4/PSoC_SPI.c **** * Theory:
 651:.\Generated_Source\PSoC4/PSoC_SPI.c **** *  Allows the user to read a byte of data received.
 652:.\Generated_Source\PSoC4/PSoC_SPI.c **** *
 653:.\Generated_Source\PSoC4/PSoC_SPI.c **** * Side Effects:
 654:.\Generated_Source\PSoC4/PSoC_SPI.c **** *  Will return invalid data if the FIFO is empty.  User should poll for FIFO
 655:.\Generated_Source\PSoC4/PSoC_SPI.c **** *  empty status before calling Read function.
 656:.\Generated_Source\PSoC4/PSoC_SPI.c **** *
 657:.\Generated_Source\PSoC4/PSoC_SPI.c **** * Reentrant:
 658:.\Generated_Source\PSoC4/PSoC_SPI.c **** *  No.
 659:.\Generated_Source\PSoC4/PSoC_SPI.c **** *
 660:.\Generated_Source\PSoC4/PSoC_SPI.c **** *******************************************************************************/
 661:.\Generated_Source\PSoC4/PSoC_SPI.c **** uint8 PSoC_SPI_ReadRxData(void) 
 662:.\Generated_Source\PSoC4/PSoC_SPI.c **** {
 338              		.loc 1 662 0
 339              		.cfi_startproc
 663:.\Generated_Source\PSoC4/PSoC_SPI.c ****     uint8 rxData;
 664:.\Generated_Source\PSoC4/PSoC_SPI.c **** 
 665:.\Generated_Source\PSoC4/PSoC_SPI.c ****     #if(PSoC_SPI_RX_SOFTWARE_BUF_ENABLED)
 666:.\Generated_Source\PSoC4/PSoC_SPI.c **** 
 667:.\Generated_Source\PSoC4/PSoC_SPI.c ****         /* Disable Interrupt to protect variables that could change on interrupt. */
 668:.\Generated_Source\PSoC4/PSoC_SPI.c ****         PSoC_SPI_DisableRxInt();
 669:.\Generated_Source\PSoC4/PSoC_SPI.c **** 
 670:.\Generated_Source\PSoC4/PSoC_SPI.c ****         if(PSoC_SPI_rxBufferRead != PSoC_SPI_rxBufferWrite)
 671:.\Generated_Source\PSoC4/PSoC_SPI.c ****         {
 672:.\Generated_Source\PSoC4/PSoC_SPI.c ****             if(PSoC_SPI_rxBufferFull == 0u)
 673:.\Generated_Source\PSoC4/PSoC_SPI.c ****             {
 674:.\Generated_Source\PSoC4/PSoC_SPI.c ****                 PSoC_SPI_rxBufferRead++;
 675:.\Generated_Source\PSoC4/PSoC_SPI.c ****                 if(PSoC_SPI_rxBufferRead >= PSoC_SPI_RX_BUFFER_SIZE)
 676:.\Generated_Source\PSoC4/PSoC_SPI.c ****                 {
 677:.\Generated_Source\PSoC4/PSoC_SPI.c ****                     PSoC_SPI_rxBufferRead = 0u;
 678:.\Generated_Source\PSoC4/PSoC_SPI.c ****                 }
 679:.\Generated_Source\PSoC4/PSoC_SPI.c ****             }
 680:.\Generated_Source\PSoC4/PSoC_SPI.c ****             else
 681:.\Generated_Source\PSoC4/PSoC_SPI.c ****             {
 682:.\Generated_Source\PSoC4/PSoC_SPI.c ****                 PSoC_SPI_rxBufferFull = 0u;
 683:.\Generated_Source\PSoC4/PSoC_SPI.c ****             }
 684:.\Generated_Source\PSoC4/PSoC_SPI.c ****         }
 685:.\Generated_Source\PSoC4/PSoC_SPI.c **** 
 686:.\Generated_Source\PSoC4/PSoC_SPI.c ****         rxData = PSoC_SPI_rxBuffer[PSoC_SPI_rxBufferRead];
 687:.\Generated_Source\PSoC4/PSoC_SPI.c **** 
ARM GAS  C:\Users\JOHNSO~1\AppData\Local\Temp\ccBuA6sA.s 			page 19


 688:.\Generated_Source\PSoC4/PSoC_SPI.c ****         /* Enable Interrupt. */
 689:.\Generated_Source\PSoC4/PSoC_SPI.c ****         PSoC_SPI_EnableRxInt();
 690:.\Generated_Source\PSoC4/PSoC_SPI.c **** 
 691:.\Generated_Source\PSoC4/PSoC_SPI.c ****     #else /* !PSoC_SPI_RX_SOFTWARE_BUF_ENABLED */
 692:.\Generated_Source\PSoC4/PSoC_SPI.c **** 
 693:.\Generated_Source\PSoC4/PSoC_SPI.c ****         rxData = CY_GET_REG8(PSoC_SPI_RXDATA_PTR);
 340              		.loc 1 693 0
 341 0000 014B     		ldr	r3, .L32
 342 0002 1878     		ldrb	r0, [r3]
 343 0004 C0B2     		uxtb	r0, r0
 344              	.LVL10:
 694:.\Generated_Source\PSoC4/PSoC_SPI.c **** 
 695:.\Generated_Source\PSoC4/PSoC_SPI.c ****     #endif /* PSoC_SPI_RX_SOFTWARE_BUF_ENABLED */
 696:.\Generated_Source\PSoC4/PSoC_SPI.c **** 
 697:.\Generated_Source\PSoC4/PSoC_SPI.c ****     return (rxData);
 698:.\Generated_Source\PSoC4/PSoC_SPI.c **** 
 699:.\Generated_Source\PSoC4/PSoC_SPI.c **** }
 345              		.loc 1 699 0
 346              		@ sp needed
 347 0006 7047     		bx	lr
 348              	.L33:
 349              		.align	2
 350              	.L32:
 351 0008 50000F40 		.word	1074724944
 352              		.cfi_endproc
 353              	.LFE16:
 354              		.size	PSoC_SPI_ReadRxData, .-PSoC_SPI_ReadRxData
 355              		.section	.text.PSoC_SPI_GetRxBufferSize,"ax",%progbits
 356              		.align	2
 357              		.global	PSoC_SPI_GetRxBufferSize
 358              		.code	16
 359              		.thumb_func
 360              		.type	PSoC_SPI_GetRxBufferSize, %function
 361              	PSoC_SPI_GetRxBufferSize:
 362              	.LFB17:
 700:.\Generated_Source\PSoC4/PSoC_SPI.c **** 
 701:.\Generated_Source\PSoC4/PSoC_SPI.c **** 
 702:.\Generated_Source\PSoC4/PSoC_SPI.c **** /*******************************************************************************
 703:.\Generated_Source\PSoC4/PSoC_SPI.c **** * Function Name: PSoC_SPI_GetRxBufferSize
 704:.\Generated_Source\PSoC4/PSoC_SPI.c **** ********************************************************************************
 705:.\Generated_Source\PSoC4/PSoC_SPI.c **** *
 706:.\Generated_Source\PSoC4/PSoC_SPI.c **** * Summary:
 707:.\Generated_Source\PSoC4/PSoC_SPI.c **** *  Returns the number of bytes/words of data currently held in the RX buffer.
 708:.\Generated_Source\PSoC4/PSoC_SPI.c **** *  If RX Software Buffer not used then function return 0 if FIFO empty or 1 if
 709:.\Generated_Source\PSoC4/PSoC_SPI.c **** *  FIFO not empty. In another case function return size of RX Software Buffer.
 710:.\Generated_Source\PSoC4/PSoC_SPI.c **** *
 711:.\Generated_Source\PSoC4/PSoC_SPI.c **** * Parameters:
 712:.\Generated_Source\PSoC4/PSoC_SPI.c **** *  None.
 713:.\Generated_Source\PSoC4/PSoC_SPI.c **** *
 714:.\Generated_Source\PSoC4/PSoC_SPI.c **** * Return:
 715:.\Generated_Source\PSoC4/PSoC_SPI.c **** *  Integer count of the number of bytes/words in the RX buffer.
 716:.\Generated_Source\PSoC4/PSoC_SPI.c **** *
 717:.\Generated_Source\PSoC4/PSoC_SPI.c **** * Global variables:
 718:.\Generated_Source\PSoC4/PSoC_SPI.c **** *  PSoC_SPI_rxBufferWrite - used for the account of the bytes which
 719:.\Generated_Source\PSoC4/PSoC_SPI.c **** *  have been written down in the RX software buffer.
 720:.\Generated_Source\PSoC4/PSoC_SPI.c **** *  PSoC_SPI_rxBufferRead - used for the account of the bytes which
 721:.\Generated_Source\PSoC4/PSoC_SPI.c **** *  have been read from the RX software buffer.
ARM GAS  C:\Users\JOHNSO~1\AppData\Local\Temp\ccBuA6sA.s 			page 20


 722:.\Generated_Source\PSoC4/PSoC_SPI.c **** *
 723:.\Generated_Source\PSoC4/PSoC_SPI.c **** * Theory:
 724:.\Generated_Source\PSoC4/PSoC_SPI.c **** *  Allows the user to find out how full the RX Buffer is.
 725:.\Generated_Source\PSoC4/PSoC_SPI.c **** *
 726:.\Generated_Source\PSoC4/PSoC_SPI.c **** *******************************************************************************/
 727:.\Generated_Source\PSoC4/PSoC_SPI.c **** uint8 PSoC_SPI_GetRxBufferSize(void) 
 728:.\Generated_Source\PSoC4/PSoC_SPI.c **** {
 363              		.loc 1 728 0
 364              		.cfi_startproc
 729:.\Generated_Source\PSoC4/PSoC_SPI.c ****     uint8 size;
 730:.\Generated_Source\PSoC4/PSoC_SPI.c **** 
 731:.\Generated_Source\PSoC4/PSoC_SPI.c ****     #if(PSoC_SPI_RX_SOFTWARE_BUF_ENABLED)
 732:.\Generated_Source\PSoC4/PSoC_SPI.c **** 
 733:.\Generated_Source\PSoC4/PSoC_SPI.c ****         /* Disable Interrupt to protect variables that could change on interrupt. */
 734:.\Generated_Source\PSoC4/PSoC_SPI.c ****         PSoC_SPI_DisableRxInt();
 735:.\Generated_Source\PSoC4/PSoC_SPI.c **** 
 736:.\Generated_Source\PSoC4/PSoC_SPI.c ****         if(PSoC_SPI_rxBufferRead == PSoC_SPI_rxBufferWrite)
 737:.\Generated_Source\PSoC4/PSoC_SPI.c ****         {
 738:.\Generated_Source\PSoC4/PSoC_SPI.c ****             size = 0u; /* No data in RX buffer */
 739:.\Generated_Source\PSoC4/PSoC_SPI.c ****         }
 740:.\Generated_Source\PSoC4/PSoC_SPI.c ****         else if(PSoC_SPI_rxBufferRead < PSoC_SPI_rxBufferWrite)
 741:.\Generated_Source\PSoC4/PSoC_SPI.c ****         {
 742:.\Generated_Source\PSoC4/PSoC_SPI.c ****             size = (PSoC_SPI_rxBufferWrite - PSoC_SPI_rxBufferRead);
 743:.\Generated_Source\PSoC4/PSoC_SPI.c ****         }
 744:.\Generated_Source\PSoC4/PSoC_SPI.c ****         else
 745:.\Generated_Source\PSoC4/PSoC_SPI.c ****         {
 746:.\Generated_Source\PSoC4/PSoC_SPI.c ****             size = (PSoC_SPI_RX_BUFFER_SIZE - PSoC_SPI_rxBufferRead) + PSoC_SPI_rxBufferWrite;
 747:.\Generated_Source\PSoC4/PSoC_SPI.c ****         }
 748:.\Generated_Source\PSoC4/PSoC_SPI.c **** 
 749:.\Generated_Source\PSoC4/PSoC_SPI.c ****         /* Enable interrupt. */
 750:.\Generated_Source\PSoC4/PSoC_SPI.c ****         PSoC_SPI_EnableRxInt();
 751:.\Generated_Source\PSoC4/PSoC_SPI.c **** 
 752:.\Generated_Source\PSoC4/PSoC_SPI.c ****     #else /* !PSoC_SPI_RX_SOFTWARE_BUF_ENABLED*/
 753:.\Generated_Source\PSoC4/PSoC_SPI.c **** 
 754:.\Generated_Source\PSoC4/PSoC_SPI.c ****         /* We can only know if there is data in the fifo. */
 755:.\Generated_Source\PSoC4/PSoC_SPI.c ****         size = ((PSoC_SPI_RX_STATUS_REG & PSoC_SPI_STS_RX_FIFO_NOT_EMPTY) != 0u) ? 1u : 0u;
 365              		.loc 1 755 0
 366 0000 034B     		ldr	r3, .L37
 367 0002 1B78     		ldrb	r3, [r3]
 368 0004 1A07     		lsl	r2, r3, #28
 369 0006 01D5     		bpl	.L36
 370 0008 0120     		mov	r0, #1
 371 000a 00E0     		b	.L35
 372              	.L36:
 373 000c 0020     		mov	r0, #0
 374              	.L35:
 375              	.LVL11:
 756:.\Generated_Source\PSoC4/PSoC_SPI.c **** 
 757:.\Generated_Source\PSoC4/PSoC_SPI.c ****     #endif /* PSoC_SPI_RX_SOFTWARE_BUF_ENABLED */
 758:.\Generated_Source\PSoC4/PSoC_SPI.c **** 
 759:.\Generated_Source\PSoC4/PSoC_SPI.c ****     return (size);
 760:.\Generated_Source\PSoC4/PSoC_SPI.c **** }
 376              		.loc 1 760 0 discriminator 3
 377              		@ sp needed
 378 000e 7047     		bx	lr
 379              	.L38:
 380              		.align	2
ARM GAS  C:\Users\JOHNSO~1\AppData\Local\Temp\ccBuA6sA.s 			page 21


 381              	.L37:
 382 0010 61000F40 		.word	1074724961
 383              		.cfi_endproc
 384              	.LFE17:
 385              		.size	PSoC_SPI_GetRxBufferSize, .-PSoC_SPI_GetRxBufferSize
 386              		.section	.text.PSoC_SPI_GetTxBufferSize,"ax",%progbits
 387              		.align	2
 388              		.global	PSoC_SPI_GetTxBufferSize
 389              		.code	16
 390              		.thumb_func
 391              		.type	PSoC_SPI_GetTxBufferSize, %function
 392              	PSoC_SPI_GetTxBufferSize:
 393              	.LFB18:
 761:.\Generated_Source\PSoC4/PSoC_SPI.c **** 
 762:.\Generated_Source\PSoC4/PSoC_SPI.c **** 
 763:.\Generated_Source\PSoC4/PSoC_SPI.c **** /*******************************************************************************
 764:.\Generated_Source\PSoC4/PSoC_SPI.c **** * Function Name: PSoC_SPI_GetTxBufferSize
 765:.\Generated_Source\PSoC4/PSoC_SPI.c **** ********************************************************************************
 766:.\Generated_Source\PSoC4/PSoC_SPI.c **** *
 767:.\Generated_Source\PSoC4/PSoC_SPI.c **** * Summary:
 768:.\Generated_Source\PSoC4/PSoC_SPI.c **** *  Returns the number of bytes/words of data currently held in the TX buffer.
 769:.\Generated_Source\PSoC4/PSoC_SPI.c **** *  If TX Software Buffer not used then function return 0 - if FIFO empty, 1 - if
 770:.\Generated_Source\PSoC4/PSoC_SPI.c **** *  FIFO not full, 4 - if FIFO full. In another case function return size of TX
 771:.\Generated_Source\PSoC4/PSoC_SPI.c **** *  Software Buffer.
 772:.\Generated_Source\PSoC4/PSoC_SPI.c **** *
 773:.\Generated_Source\PSoC4/PSoC_SPI.c **** * Parameters:
 774:.\Generated_Source\PSoC4/PSoC_SPI.c **** *  None.
 775:.\Generated_Source\PSoC4/PSoC_SPI.c **** *
 776:.\Generated_Source\PSoC4/PSoC_SPI.c **** * Return:
 777:.\Generated_Source\PSoC4/PSoC_SPI.c **** *  Integer count of the number of bytes/words in the TX buffer.
 778:.\Generated_Source\PSoC4/PSoC_SPI.c **** *
 779:.\Generated_Source\PSoC4/PSoC_SPI.c **** * Global variables:
 780:.\Generated_Source\PSoC4/PSoC_SPI.c **** *  PSoC_SPI_txBufferWrite - used for the account of the bytes which
 781:.\Generated_Source\PSoC4/PSoC_SPI.c **** *  have been written down in the TX software buffer.
 782:.\Generated_Source\PSoC4/PSoC_SPI.c **** *  PSoC_SPI_txBufferRead - used for the account of the bytes which
 783:.\Generated_Source\PSoC4/PSoC_SPI.c **** *  have been read from the TX software buffer.
 784:.\Generated_Source\PSoC4/PSoC_SPI.c **** *
 785:.\Generated_Source\PSoC4/PSoC_SPI.c **** * Theory:
 786:.\Generated_Source\PSoC4/PSoC_SPI.c **** *  Allows the user to find out how full the TX Buffer is.
 787:.\Generated_Source\PSoC4/PSoC_SPI.c **** *
 788:.\Generated_Source\PSoC4/PSoC_SPI.c **** * Side Effects:
 789:.\Generated_Source\PSoC4/PSoC_SPI.c **** *  Clear status register of the component.
 790:.\Generated_Source\PSoC4/PSoC_SPI.c **** *
 791:.\Generated_Source\PSoC4/PSoC_SPI.c **** *******************************************************************************/
 792:.\Generated_Source\PSoC4/PSoC_SPI.c **** uint8  PSoC_SPI_GetTxBufferSize(void) 
 793:.\Generated_Source\PSoC4/PSoC_SPI.c **** {
 394              		.loc 1 793 0
 395              		.cfi_startproc
 794:.\Generated_Source\PSoC4/PSoC_SPI.c ****     uint8 size;
 795:.\Generated_Source\PSoC4/PSoC_SPI.c **** 
 796:.\Generated_Source\PSoC4/PSoC_SPI.c ****     #if(PSoC_SPI_TX_SOFTWARE_BUF_ENABLED)
 797:.\Generated_Source\PSoC4/PSoC_SPI.c **** 
 798:.\Generated_Source\PSoC4/PSoC_SPI.c ****         /* Disable Interrupt to protect variables that could change on interrupt. */
 799:.\Generated_Source\PSoC4/PSoC_SPI.c ****         PSoC_SPI_DisableTxInt();
 800:.\Generated_Source\PSoC4/PSoC_SPI.c **** 
 801:.\Generated_Source\PSoC4/PSoC_SPI.c ****         if(PSoC_SPI_txBufferRead == PSoC_SPI_txBufferWrite)
 802:.\Generated_Source\PSoC4/PSoC_SPI.c ****         {
ARM GAS  C:\Users\JOHNSO~1\AppData\Local\Temp\ccBuA6sA.s 			page 22


 803:.\Generated_Source\PSoC4/PSoC_SPI.c ****             size = 0u;
 804:.\Generated_Source\PSoC4/PSoC_SPI.c ****         }
 805:.\Generated_Source\PSoC4/PSoC_SPI.c ****         else if(PSoC_SPI_txBufferRead < PSoC_SPI_txBufferWrite)
 806:.\Generated_Source\PSoC4/PSoC_SPI.c ****         {
 807:.\Generated_Source\PSoC4/PSoC_SPI.c ****             size = (PSoC_SPI_txBufferWrite - PSoC_SPI_txBufferRead);
 808:.\Generated_Source\PSoC4/PSoC_SPI.c ****         }
 809:.\Generated_Source\PSoC4/PSoC_SPI.c ****         else
 810:.\Generated_Source\PSoC4/PSoC_SPI.c ****         {
 811:.\Generated_Source\PSoC4/PSoC_SPI.c ****             size = (PSoC_SPI_TX_BUFFER_SIZE - PSoC_SPI_txBufferRead) + PSoC_SPI_txBufferWrite;
 812:.\Generated_Source\PSoC4/PSoC_SPI.c ****         }
 813:.\Generated_Source\PSoC4/PSoC_SPI.c **** 
 814:.\Generated_Source\PSoC4/PSoC_SPI.c ****         /* Enable Interrupt. */
 815:.\Generated_Source\PSoC4/PSoC_SPI.c ****         PSoC_SPI_EnableTxInt();
 816:.\Generated_Source\PSoC4/PSoC_SPI.c **** 
 817:.\Generated_Source\PSoC4/PSoC_SPI.c ****     #else /* !PSoC_SPI_TX_SOFTWARE_BUF_ENABLED */
 818:.\Generated_Source\PSoC4/PSoC_SPI.c **** 
 819:.\Generated_Source\PSoC4/PSoC_SPI.c ****         size = PSoC_SPI_TX_STATUS_REG;
 396              		.loc 1 819 0
 397 0000 064B     		ldr	r3, .L43
 398 0002 1B78     		ldrb	r3, [r3]
 399 0004 DBB2     		uxtb	r3, r3
 400              	.LVL12:
 820:.\Generated_Source\PSoC4/PSoC_SPI.c **** 
 821:.\Generated_Source\PSoC4/PSoC_SPI.c ****         /* Is the fifo is full. */
 822:.\Generated_Source\PSoC4/PSoC_SPI.c ****         if((size & PSoC_SPI_STS_TX_FIFO_EMPTY) != 0u)
 401              		.loc 1 822 0
 402 0006 5A07     		lsl	r2, r3, #29
 403 0008 03D4     		bmi	.L41
 823:.\Generated_Source\PSoC4/PSoC_SPI.c ****         {
 824:.\Generated_Source\PSoC4/PSoC_SPI.c ****             size = 0u;
 825:.\Generated_Source\PSoC4/PSoC_SPI.c ****         }
 826:.\Generated_Source\PSoC4/PSoC_SPI.c ****         else if((size & PSoC_SPI_STS_TX_FIFO_NOT_FULL) != 0u)
 404              		.loc 1 826 0
 405 000a 9A07     		lsl	r2, r3, #30
 406 000c 03D5     		bpl	.L42
 827:.\Generated_Source\PSoC4/PSoC_SPI.c ****         {
 828:.\Generated_Source\PSoC4/PSoC_SPI.c ****             size = 1u;
 407              		.loc 1 828 0
 408 000e 0120     		mov	r0, #1
 409 0010 02E0     		b	.L40
 410              	.L41:
 824:.\Generated_Source\PSoC4/PSoC_SPI.c ****             size = 0u;
 411              		.loc 1 824 0
 412 0012 0020     		mov	r0, #0
 413 0014 00E0     		b	.L40
 414              	.L42:
 829:.\Generated_Source\PSoC4/PSoC_SPI.c ****         }
 830:.\Generated_Source\PSoC4/PSoC_SPI.c ****         else
 831:.\Generated_Source\PSoC4/PSoC_SPI.c ****         {
 832:.\Generated_Source\PSoC4/PSoC_SPI.c ****             size = 4u;
 415              		.loc 1 832 0
 416 0016 0420     		mov	r0, #4
 417              	.L40:
 418              	.LVL13:
 833:.\Generated_Source\PSoC4/PSoC_SPI.c ****         }
 834:.\Generated_Source\PSoC4/PSoC_SPI.c **** 
 835:.\Generated_Source\PSoC4/PSoC_SPI.c ****     #endif /* PSoC_SPI_TX_SOFTWARE_BUF_ENABLED */
ARM GAS  C:\Users\JOHNSO~1\AppData\Local\Temp\ccBuA6sA.s 			page 23


 836:.\Generated_Source\PSoC4/PSoC_SPI.c **** 
 837:.\Generated_Source\PSoC4/PSoC_SPI.c ****     return (size);
 838:.\Generated_Source\PSoC4/PSoC_SPI.c **** }
 419              		.loc 1 838 0
 420              		@ sp needed
 421 0018 7047     		bx	lr
 422              	.L44:
 423 001a C046     		.align	2
 424              	.L43:
 425 001c 62000F40 		.word	1074724962
 426              		.cfi_endproc
 427              	.LFE18:
 428              		.size	PSoC_SPI_GetTxBufferSize, .-PSoC_SPI_GetTxBufferSize
 429              		.section	.text.PSoC_SPI_ClearRxBuffer,"ax",%progbits
 430              		.align	2
 431              		.global	PSoC_SPI_ClearRxBuffer
 432              		.code	16
 433              		.thumb_func
 434              		.type	PSoC_SPI_ClearRxBuffer, %function
 435              	PSoC_SPI_ClearRxBuffer:
 436              	.LFB19:
 839:.\Generated_Source\PSoC4/PSoC_SPI.c **** 
 840:.\Generated_Source\PSoC4/PSoC_SPI.c **** 
 841:.\Generated_Source\PSoC4/PSoC_SPI.c **** /*******************************************************************************
 842:.\Generated_Source\PSoC4/PSoC_SPI.c **** * Function Name: PSoC_SPI_ClearRxBuffer
 843:.\Generated_Source\PSoC4/PSoC_SPI.c **** ********************************************************************************
 844:.\Generated_Source\PSoC4/PSoC_SPI.c **** *
 845:.\Generated_Source\PSoC4/PSoC_SPI.c **** * Summary:
 846:.\Generated_Source\PSoC4/PSoC_SPI.c **** *  Clear the RX RAM buffer by setting the read and write pointers both to zero.
 847:.\Generated_Source\PSoC4/PSoC_SPI.c **** *
 848:.\Generated_Source\PSoC4/PSoC_SPI.c **** * Parameters:
 849:.\Generated_Source\PSoC4/PSoC_SPI.c **** *  None.
 850:.\Generated_Source\PSoC4/PSoC_SPI.c **** *
 851:.\Generated_Source\PSoC4/PSoC_SPI.c **** * Return:
 852:.\Generated_Source\PSoC4/PSoC_SPI.c **** *  None.
 853:.\Generated_Source\PSoC4/PSoC_SPI.c **** *
 854:.\Generated_Source\PSoC4/PSoC_SPI.c **** * Global variables:
 855:.\Generated_Source\PSoC4/PSoC_SPI.c **** *  PSoC_SPI_rxBufferWrite - used for the account of the bytes which
 856:.\Generated_Source\PSoC4/PSoC_SPI.c **** *  have been written down in the RX software buffer, modified every function
 857:.\Generated_Source\PSoC4/PSoC_SPI.c **** *  call - resets to zero.
 858:.\Generated_Source\PSoC4/PSoC_SPI.c **** *  PSoC_SPI_rxBufferRead - used for the account of the bytes which
 859:.\Generated_Source\PSoC4/PSoC_SPI.c **** *  have been read from the RX software buffer, modified every function call -
 860:.\Generated_Source\PSoC4/PSoC_SPI.c **** *  resets to zero.
 861:.\Generated_Source\PSoC4/PSoC_SPI.c **** *
 862:.\Generated_Source\PSoC4/PSoC_SPI.c **** * Theory:
 863:.\Generated_Source\PSoC4/PSoC_SPI.c **** *  Setting the pointers to zero makes the system believe there is no data to
 864:.\Generated_Source\PSoC4/PSoC_SPI.c **** *  read and writing will resume at address 0 overwriting any data that may have
 865:.\Generated_Source\PSoC4/PSoC_SPI.c **** *  remained in the RAM.
 866:.\Generated_Source\PSoC4/PSoC_SPI.c **** *
 867:.\Generated_Source\PSoC4/PSoC_SPI.c **** * Side Effects:
 868:.\Generated_Source\PSoC4/PSoC_SPI.c **** *  Any received data not read from the RAM buffer will be lost when overwritten.
 869:.\Generated_Source\PSoC4/PSoC_SPI.c **** *
 870:.\Generated_Source\PSoC4/PSoC_SPI.c **** * Reentrant:
 871:.\Generated_Source\PSoC4/PSoC_SPI.c **** *  No.
 872:.\Generated_Source\PSoC4/PSoC_SPI.c **** *
 873:.\Generated_Source\PSoC4/PSoC_SPI.c **** *******************************************************************************/
 874:.\Generated_Source\PSoC4/PSoC_SPI.c **** void PSoC_SPI_ClearRxBuffer(void) 
ARM GAS  C:\Users\JOHNSO~1\AppData\Local\Temp\ccBuA6sA.s 			page 24


 875:.\Generated_Source\PSoC4/PSoC_SPI.c **** {
 437              		.loc 1 875 0
 438              		.cfi_startproc
 876:.\Generated_Source\PSoC4/PSoC_SPI.c ****     /* Clear Hardware RX FIFO */
 877:.\Generated_Source\PSoC4/PSoC_SPI.c ****     while((PSoC_SPI_RX_STATUS_REG & PSoC_SPI_STS_RX_FIFO_NOT_EMPTY) != 0u)
 439              		.loc 1 877 0
 440 0000 0449     		ldr	r1, .L48
 441 0002 0822     		mov	r2, #8
 878:.\Generated_Source\PSoC4/PSoC_SPI.c ****     {
 879:.\Generated_Source\PSoC4/PSoC_SPI.c ****         CY_GET_REG8(PSoC_SPI_RXDATA_PTR);
 442              		.loc 1 879 0
 443 0004 0448     		ldr	r0, .L48+4
 877:.\Generated_Source\PSoC4/PSoC_SPI.c ****     while((PSoC_SPI_RX_STATUS_REG & PSoC_SPI_STS_RX_FIFO_NOT_EMPTY) != 0u)
 444              		.loc 1 877 0
 445 0006 00E0     		b	.L46
 446              	.L47:
 447              		.loc 1 879 0
 448 0008 0378     		ldrb	r3, [r0]
 449              	.L46:
 877:.\Generated_Source\PSoC4/PSoC_SPI.c ****     while((PSoC_SPI_RX_STATUS_REG & PSoC_SPI_STS_RX_FIFO_NOT_EMPTY) != 0u)
 450              		.loc 1 877 0 discriminator 1
 451 000a 0B78     		ldrb	r3, [r1]
 452 000c 1342     		tst	r3, r2
 453 000e FBD1     		bne	.L47
 880:.\Generated_Source\PSoC4/PSoC_SPI.c ****     }
 881:.\Generated_Source\PSoC4/PSoC_SPI.c **** 
 882:.\Generated_Source\PSoC4/PSoC_SPI.c ****     #if(PSoC_SPI_RX_SOFTWARE_BUF_ENABLED)
 883:.\Generated_Source\PSoC4/PSoC_SPI.c **** 
 884:.\Generated_Source\PSoC4/PSoC_SPI.c ****         /* Disable interrupt to protect variables that could change on interrupt. */
 885:.\Generated_Source\PSoC4/PSoC_SPI.c ****         PSoC_SPI_DisableRxInt();
 886:.\Generated_Source\PSoC4/PSoC_SPI.c **** 
 887:.\Generated_Source\PSoC4/PSoC_SPI.c ****         PSoC_SPI_rxBufferRead  = 0u;
 888:.\Generated_Source\PSoC4/PSoC_SPI.c ****         PSoC_SPI_rxBufferWrite = 0u;
 889:.\Generated_Source\PSoC4/PSoC_SPI.c **** 		PSoC_SPI_rxBufferFull  = 0u;
 890:.\Generated_Source\PSoC4/PSoC_SPI.c ****         /* Enable interrupt. */
 891:.\Generated_Source\PSoC4/PSoC_SPI.c ****         PSoC_SPI_EnableRxInt();
 892:.\Generated_Source\PSoC4/PSoC_SPI.c **** 
 893:.\Generated_Source\PSoC4/PSoC_SPI.c ****     #endif /* PSoC_SPI_RX_SOFTWARE_BUF_ENABLED */
 894:.\Generated_Source\PSoC4/PSoC_SPI.c **** }
 454              		.loc 1 894 0
 455              		@ sp needed
 456 0010 7047     		bx	lr
 457              	.L49:
 458 0012 C046     		.align	2
 459              	.L48:
 460 0014 61000F40 		.word	1074724961
 461 0018 50000F40 		.word	1074724944
 462              		.cfi_endproc
 463              	.LFE19:
 464              		.size	PSoC_SPI_ClearRxBuffer, .-PSoC_SPI_ClearRxBuffer
 465              		.section	.text.PSoC_SPI_ClearTxBuffer,"ax",%progbits
 466              		.align	2
 467              		.global	PSoC_SPI_ClearTxBuffer
 468              		.code	16
 469              		.thumb_func
 470              		.type	PSoC_SPI_ClearTxBuffer, %function
 471              	PSoC_SPI_ClearTxBuffer:
ARM GAS  C:\Users\JOHNSO~1\AppData\Local\Temp\ccBuA6sA.s 			page 25


 472              	.LFB20:
 895:.\Generated_Source\PSoC4/PSoC_SPI.c **** 
 896:.\Generated_Source\PSoC4/PSoC_SPI.c **** 
 897:.\Generated_Source\PSoC4/PSoC_SPI.c **** /*******************************************************************************
 898:.\Generated_Source\PSoC4/PSoC_SPI.c **** * Function Name: PSoC_SPI_ClearTxBuffer
 899:.\Generated_Source\PSoC4/PSoC_SPI.c **** ********************************************************************************
 900:.\Generated_Source\PSoC4/PSoC_SPI.c **** *
 901:.\Generated_Source\PSoC4/PSoC_SPI.c **** * Summary:
 902:.\Generated_Source\PSoC4/PSoC_SPI.c **** *  Clear the TX RAM buffer by setting the read and write pointers both to zero.
 903:.\Generated_Source\PSoC4/PSoC_SPI.c **** *
 904:.\Generated_Source\PSoC4/PSoC_SPI.c **** * Parameters:
 905:.\Generated_Source\PSoC4/PSoC_SPI.c **** *  None.
 906:.\Generated_Source\PSoC4/PSoC_SPI.c **** *
 907:.\Generated_Source\PSoC4/PSoC_SPI.c **** * Return:
 908:.\Generated_Source\PSoC4/PSoC_SPI.c **** *  None.
 909:.\Generated_Source\PSoC4/PSoC_SPI.c **** *
 910:.\Generated_Source\PSoC4/PSoC_SPI.c **** * Global variables:
 911:.\Generated_Source\PSoC4/PSoC_SPI.c **** *  PSoC_SPI_txBufferWrite - used for the account of the bytes which
 912:.\Generated_Source\PSoC4/PSoC_SPI.c **** *  have been written down in the TX software buffer, modified every function
 913:.\Generated_Source\PSoC4/PSoC_SPI.c **** *  call - resets to zero.
 914:.\Generated_Source\PSoC4/PSoC_SPI.c **** *  PSoC_SPI_txBufferRead - used for the account of the bytes which
 915:.\Generated_Source\PSoC4/PSoC_SPI.c **** *  have been read from the TX software buffer, modified every function call -
 916:.\Generated_Source\PSoC4/PSoC_SPI.c **** *  resets to zero.
 917:.\Generated_Source\PSoC4/PSoC_SPI.c **** *
 918:.\Generated_Source\PSoC4/PSoC_SPI.c **** * Theory:
 919:.\Generated_Source\PSoC4/PSoC_SPI.c **** *  Setting the pointers to zero makes the system believe there is no data to
 920:.\Generated_Source\PSoC4/PSoC_SPI.c **** *  read and writing will resume at address 0 overwriting any data that may have
 921:.\Generated_Source\PSoC4/PSoC_SPI.c **** *  remained in the RAM.
 922:.\Generated_Source\PSoC4/PSoC_SPI.c **** *
 923:.\Generated_Source\PSoC4/PSoC_SPI.c **** * Side Effects:
 924:.\Generated_Source\PSoC4/PSoC_SPI.c **** *  Any data not yet transmitted from the RAM buffer will be lost when
 925:.\Generated_Source\PSoC4/PSoC_SPI.c **** *  overwritten.
 926:.\Generated_Source\PSoC4/PSoC_SPI.c **** *
 927:.\Generated_Source\PSoC4/PSoC_SPI.c **** * Reentrant:
 928:.\Generated_Source\PSoC4/PSoC_SPI.c **** *  No.
 929:.\Generated_Source\PSoC4/PSoC_SPI.c **** *
 930:.\Generated_Source\PSoC4/PSoC_SPI.c **** *******************************************************************************/
 931:.\Generated_Source\PSoC4/PSoC_SPI.c **** void PSoC_SPI_ClearTxBuffer(void) 
 932:.\Generated_Source\PSoC4/PSoC_SPI.c **** {
 473              		.loc 1 932 0
 474              		.cfi_startproc
 475 0000 08B5     		push	{r3, lr}
 476              		.cfi_def_cfa_offset 8
 477              		.cfi_offset 3, -8
 478              		.cfi_offset 14, -4
 933:.\Generated_Source\PSoC4/PSoC_SPI.c ****     uint8 enableInterrupts;
 934:.\Generated_Source\PSoC4/PSoC_SPI.c **** 
 935:.\Generated_Source\PSoC4/PSoC_SPI.c ****     /* Clear Hardware TX FIFO */
 936:.\Generated_Source\PSoC4/PSoC_SPI.c ****     enableInterrupts = CyEnterCriticalSection();
 479              		.loc 1 936 0
 480 0002 FFF7FEFF 		bl	CyEnterCriticalSection
 481              	.LVL14:
 937:.\Generated_Source\PSoC4/PSoC_SPI.c **** 
 938:.\Generated_Source\PSoC4/PSoC_SPI.c ****     #if(PSoC_SPI_DATA_WIDTH <= 8u)
 939:.\Generated_Source\PSoC4/PSoC_SPI.c **** 
 940:.\Generated_Source\PSoC4/PSoC_SPI.c ****         /* Clear TX FIFO */
 941:.\Generated_Source\PSoC4/PSoC_SPI.c ****         PSoC_SPI_TX_AUX_CONTROL_DP0_REG |= (uint8)PSoC_SPI_FIFO_CLR;
ARM GAS  C:\Users\JOHNSO~1\AppData\Local\Temp\ccBuA6sA.s 			page 26


 482              		.loc 1 941 0
 483 0006 064B     		ldr	r3, .L51
 484 0008 1978     		ldrb	r1, [r3]
 485 000a 0322     		mov	r2, #3
 486 000c 0A43     		orr	r2, r1
 487 000e 1A70     		strb	r2, [r3]
 942:.\Generated_Source\PSoC4/PSoC_SPI.c ****         PSoC_SPI_TX_AUX_CONTROL_DP0_REG &= (uint8)~PSoC_SPI_FIFO_CLR;
 488              		.loc 1 942 0
 489 0010 1A78     		ldrb	r2, [r3]
 490 0012 0321     		mov	r1, #3
 491 0014 8A43     		bic	r2, r1
 492 0016 1A70     		strb	r2, [r3]
 943:.\Generated_Source\PSoC4/PSoC_SPI.c **** 
 944:.\Generated_Source\PSoC4/PSoC_SPI.c ****     #else
 945:.\Generated_Source\PSoC4/PSoC_SPI.c **** 
 946:.\Generated_Source\PSoC4/PSoC_SPI.c ****         /* Clear TX FIFO */
 947:.\Generated_Source\PSoC4/PSoC_SPI.c ****         PSoC_SPI_TX_AUX_CONTROL_DP0_REG |= (uint8)PSoC_SPI_FIFO_CLR;
 948:.\Generated_Source\PSoC4/PSoC_SPI.c ****         PSoC_SPI_TX_AUX_CONTROL_DP0_REG &= (uint8)~PSoC_SPI_FIFO_CLR;
 949:.\Generated_Source\PSoC4/PSoC_SPI.c ****         PSoC_SPI_TX_AUX_CONTROL_DP1_REG |= (uint8)PSoC_SPI_FIFO_CLR;
 950:.\Generated_Source\PSoC4/PSoC_SPI.c ****         PSoC_SPI_TX_AUX_CONTROL_DP1_REG &= (uint8)~PSoC_SPI_FIFO_CLR;
 951:.\Generated_Source\PSoC4/PSoC_SPI.c **** 
 952:.\Generated_Source\PSoC4/PSoC_SPI.c ****     #endif /* PSoC_SPI_DATA_WIDTH > 8u */
 953:.\Generated_Source\PSoC4/PSoC_SPI.c **** 
 954:.\Generated_Source\PSoC4/PSoC_SPI.c ****     CyExitCriticalSection(enableInterrupts);
 493              		.loc 1 954 0
 494 0018 FFF7FEFF 		bl	CyExitCriticalSection
 495              	.LVL15:
 955:.\Generated_Source\PSoC4/PSoC_SPI.c **** 
 956:.\Generated_Source\PSoC4/PSoC_SPI.c ****     #if(PSoC_SPI_TX_SOFTWARE_BUF_ENABLED)
 957:.\Generated_Source\PSoC4/PSoC_SPI.c **** 
 958:.\Generated_Source\PSoC4/PSoC_SPI.c ****         /* Disable Interrupt to protect variables that could change on interrupt. */
 959:.\Generated_Source\PSoC4/PSoC_SPI.c ****         PSoC_SPI_DisableTxInt();
 960:.\Generated_Source\PSoC4/PSoC_SPI.c **** 
 961:.\Generated_Source\PSoC4/PSoC_SPI.c ****         PSoC_SPI_txBufferRead  = 0u;
 962:.\Generated_Source\PSoC4/PSoC_SPI.c ****         PSoC_SPI_txBufferWrite = 0u;
 963:.\Generated_Source\PSoC4/PSoC_SPI.c **** 		PSoC_SPI_txBufferFull  = 0u;
 964:.\Generated_Source\PSoC4/PSoC_SPI.c **** 		
 965:.\Generated_Source\PSoC4/PSoC_SPI.c ****         /* If Buffer is empty then disable TX FIFO status interrupt */
 966:.\Generated_Source\PSoC4/PSoC_SPI.c ****         PSoC_SPI_TX_STATUS_MASK_REG &= (uint8)~PSoC_SPI_STS_TX_FIFO_NOT_FULL;
 967:.\Generated_Source\PSoC4/PSoC_SPI.c **** 
 968:.\Generated_Source\PSoC4/PSoC_SPI.c ****         /* Enable Interrupt. */
 969:.\Generated_Source\PSoC4/PSoC_SPI.c ****         PSoC_SPI_EnableTxInt();
 970:.\Generated_Source\PSoC4/PSoC_SPI.c **** 
 971:.\Generated_Source\PSoC4/PSoC_SPI.c ****     #endif /* PSoC_SPI_TX_SOFTWARE_BUF_ENABLED */
 972:.\Generated_Source\PSoC4/PSoC_SPI.c **** }
 496              		.loc 1 972 0
 497              		@ sp needed
 498 001c 08BD     		pop	{r3, pc}
 499              	.L52:
 500 001e C046     		.align	2
 501              	.L51:
 502 0020 90000F40 		.word	1074725008
 503              		.cfi_endproc
 504              	.LFE20:
 505              		.size	PSoC_SPI_ClearTxBuffer, .-PSoC_SPI_ClearTxBuffer
 506              		.section	.text.PSoC_SPI_TxEnable,"ax",%progbits
 507              		.align	2
ARM GAS  C:\Users\JOHNSO~1\AppData\Local\Temp\ccBuA6sA.s 			page 27


 508              		.global	PSoC_SPI_TxEnable
 509              		.code	16
 510              		.thumb_func
 511              		.type	PSoC_SPI_TxEnable, %function
 512              	PSoC_SPI_TxEnable:
 513              	.LFB21:
 973:.\Generated_Source\PSoC4/PSoC_SPI.c **** 
 974:.\Generated_Source\PSoC4/PSoC_SPI.c **** 
 975:.\Generated_Source\PSoC4/PSoC_SPI.c **** #if (PSoC_SPI_BIDIRECTIONAL_MODE != 0u)
 976:.\Generated_Source\PSoC4/PSoC_SPI.c **** 
 977:.\Generated_Source\PSoC4/PSoC_SPI.c ****     /*******************************************************************************
 978:.\Generated_Source\PSoC4/PSoC_SPI.c ****     * Function Name: PSoC_SPI_TxEnable
 979:.\Generated_Source\PSoC4/PSoC_SPI.c ****     ********************************************************************************
 980:.\Generated_Source\PSoC4/PSoC_SPI.c ****     *
 981:.\Generated_Source\PSoC4/PSoC_SPI.c ****     * Summary:
 982:.\Generated_Source\PSoC4/PSoC_SPI.c ****     *  If the SPI Slave is configured to use a single bi-directional pin then this
 983:.\Generated_Source\PSoC4/PSoC_SPI.c ****     *  will set the bi-directional pin to transmit.
 984:.\Generated_Source\PSoC4/PSoC_SPI.c ****     *
 985:.\Generated_Source\PSoC4/PSoC_SPI.c ****     * Parameters:
 986:.\Generated_Source\PSoC4/PSoC_SPI.c ****     *  None.
 987:.\Generated_Source\PSoC4/PSoC_SPI.c ****     *
 988:.\Generated_Source\PSoC4/PSoC_SPI.c ****     * Return:
 989:.\Generated_Source\PSoC4/PSoC_SPI.c ****     *  None.
 990:.\Generated_Source\PSoC4/PSoC_SPI.c ****     *
 991:.\Generated_Source\PSoC4/PSoC_SPI.c ****     *******************************************************************************/
 992:.\Generated_Source\PSoC4/PSoC_SPI.c ****     void PSoC_SPI_TxEnable(void) 
 993:.\Generated_Source\PSoC4/PSoC_SPI.c ****     {
 514              		.loc 1 993 0
 515              		.cfi_startproc
 994:.\Generated_Source\PSoC4/PSoC_SPI.c ****             PSoC_SPI_CONTROL_REG |= PSoC_SPI_CTRL_TX_SIGNAL_EN;
 516              		.loc 1 994 0
 517 0000 024B     		ldr	r3, .L54
 518 0002 1978     		ldrb	r1, [r3]
 519 0004 0122     		mov	r2, #1
 520 0006 0A43     		orr	r2, r1
 521 0008 1A70     		strb	r2, [r3]
 995:.\Generated_Source\PSoC4/PSoC_SPI.c ****     }
 522              		.loc 1 995 0
 523              		@ sp needed
 524 000a 7047     		bx	lr
 525              	.L55:
 526              		.align	2
 527              	.L54:
 528 000c 71000F40 		.word	1074724977
 529              		.cfi_endproc
 530              	.LFE21:
 531              		.size	PSoC_SPI_TxEnable, .-PSoC_SPI_TxEnable
 532              		.section	.text.PSoC_SPI_TxDisable,"ax",%progbits
 533              		.align	2
 534              		.global	PSoC_SPI_TxDisable
 535              		.code	16
 536              		.thumb_func
 537              		.type	PSoC_SPI_TxDisable, %function
 538              	PSoC_SPI_TxDisable:
 539              	.LFB22:
 996:.\Generated_Source\PSoC4/PSoC_SPI.c **** 
 997:.\Generated_Source\PSoC4/PSoC_SPI.c **** 
ARM GAS  C:\Users\JOHNSO~1\AppData\Local\Temp\ccBuA6sA.s 			page 28


 998:.\Generated_Source\PSoC4/PSoC_SPI.c ****     /*******************************************************************************
 999:.\Generated_Source\PSoC4/PSoC_SPI.c ****     * Function Name: PSoC_SPI_TxDisable
1000:.\Generated_Source\PSoC4/PSoC_SPI.c ****     ********************************************************************************
1001:.\Generated_Source\PSoC4/PSoC_SPI.c ****     *
1002:.\Generated_Source\PSoC4/PSoC_SPI.c ****     * Summary:
1003:.\Generated_Source\PSoC4/PSoC_SPI.c ****     *  If the SPI Slave is configured to use a single bi-directional pin then this
1004:.\Generated_Source\PSoC4/PSoC_SPI.c ****     *  will set the bi-directional pin to receive.
1005:.\Generated_Source\PSoC4/PSoC_SPI.c ****     *
1006:.\Generated_Source\PSoC4/PSoC_SPI.c ****     * Parameters:
1007:.\Generated_Source\PSoC4/PSoC_SPI.c ****     *  None.
1008:.\Generated_Source\PSoC4/PSoC_SPI.c ****     *
1009:.\Generated_Source\PSoC4/PSoC_SPI.c ****     * Return:
1010:.\Generated_Source\PSoC4/PSoC_SPI.c ****     *  None.
1011:.\Generated_Source\PSoC4/PSoC_SPI.c ****     *
1012:.\Generated_Source\PSoC4/PSoC_SPI.c ****     *******************************************************************************/
1013:.\Generated_Source\PSoC4/PSoC_SPI.c ****     void PSoC_SPI_TxDisable(void) 
1014:.\Generated_Source\PSoC4/PSoC_SPI.c ****     {
 540              		.loc 1 1014 0
 541              		.cfi_startproc
1015:.\Generated_Source\PSoC4/PSoC_SPI.c ****             PSoC_SPI_CONTROL_REG &= (uint8)~PSoC_SPI_CTRL_TX_SIGNAL_EN;
 542              		.loc 1 1015 0
 543 0000 024B     		ldr	r3, .L57
 544 0002 1A78     		ldrb	r2, [r3]
 545 0004 0121     		mov	r1, #1
 546 0006 8A43     		bic	r2, r1
 547 0008 1A70     		strb	r2, [r3]
1016:.\Generated_Source\PSoC4/PSoC_SPI.c ****     }
 548              		.loc 1 1016 0
 549              		@ sp needed
 550 000a 7047     		bx	lr
 551              	.L58:
 552              		.align	2
 553              	.L57:
 554 000c 71000F40 		.word	1074724977
 555              		.cfi_endproc
 556              	.LFE22:
 557              		.size	PSoC_SPI_TxDisable, .-PSoC_SPI_TxDisable
 558              		.section	.text.PSoC_SPI_PutArray,"ax",%progbits
 559              		.align	2
 560              		.global	PSoC_SPI_PutArray
 561              		.code	16
 562              		.thumb_func
 563              		.type	PSoC_SPI_PutArray, %function
 564              	PSoC_SPI_PutArray:
 565              	.LFB23:
1017:.\Generated_Source\PSoC4/PSoC_SPI.c **** 
1018:.\Generated_Source\PSoC4/PSoC_SPI.c **** #endif /* PSoC_SPI_BIDIRECTIONAL_MODE != 0u */
1019:.\Generated_Source\PSoC4/PSoC_SPI.c **** 
1020:.\Generated_Source\PSoC4/PSoC_SPI.c **** 
1021:.\Generated_Source\PSoC4/PSoC_SPI.c **** /*******************************************************************************
1022:.\Generated_Source\PSoC4/PSoC_SPI.c **** * Function Name: PSoC_SPI_PutArray
1023:.\Generated_Source\PSoC4/PSoC_SPI.c **** ********************************************************************************
1024:.\Generated_Source\PSoC4/PSoC_SPI.c **** *
1025:.\Generated_Source\PSoC4/PSoC_SPI.c **** * Summary:
1026:.\Generated_Source\PSoC4/PSoC_SPI.c **** *  Write available data from RAM/ROM to the TX buffer while space is available
1027:.\Generated_Source\PSoC4/PSoC_SPI.c **** *  in the TX buffer. Keep trying until all data is passed to the TX buffer. If
1028:.\Generated_Source\PSoC4/PSoC_SPI.c **** *  used Mode 00 or 01 before PutArray() function should be called
ARM GAS  C:\Users\JOHNSO~1\AppData\Local\Temp\ccBuA6sA.s 			page 29


1029:.\Generated_Source\PSoC4/PSoC_SPI.c **** *  WriteTxDataZero() function.
1030:.\Generated_Source\PSoC4/PSoC_SPI.c **** *
1031:.\Generated_Source\PSoC4/PSoC_SPI.c **** * Parameters:
1032:.\Generated_Source\PSoC4/PSoC_SPI.c **** *  *buffer: Pointer to the location in RAM containing the data to send
1033:.\Generated_Source\PSoC4/PSoC_SPI.c **** *  byteCount: The number of bytes to move to the transmit buffer.
1034:.\Generated_Source\PSoC4/PSoC_SPI.c **** *
1035:.\Generated_Source\PSoC4/PSoC_SPI.c **** * Return:
1036:.\Generated_Source\PSoC4/PSoC_SPI.c **** *  None.
1037:.\Generated_Source\PSoC4/PSoC_SPI.c **** *
1038:.\Generated_Source\PSoC4/PSoC_SPI.c **** * Side Effects:
1039:.\Generated_Source\PSoC4/PSoC_SPI.c **** *  Will stay in this routine until all data has been sent.  May get locked in
1040:.\Generated_Source\PSoC4/PSoC_SPI.c **** *  this loop if data is not being initiated by the master if there is not
1041:.\Generated_Source\PSoC4/PSoC_SPI.c **** *  enough room in the TX FIFO.
1042:.\Generated_Source\PSoC4/PSoC_SPI.c **** *
1043:.\Generated_Source\PSoC4/PSoC_SPI.c **** * Reentrant:
1044:.\Generated_Source\PSoC4/PSoC_SPI.c **** *  No.
1045:.\Generated_Source\PSoC4/PSoC_SPI.c **** *
1046:.\Generated_Source\PSoC4/PSoC_SPI.c **** *******************************************************************************/
1047:.\Generated_Source\PSoC4/PSoC_SPI.c **** void PSoC_SPI_PutArray(const uint8 buffer[], uint8 byteCount)
1048:.\Generated_Source\PSoC4/PSoC_SPI.c ****                                                                     
1049:.\Generated_Source\PSoC4/PSoC_SPI.c **** {
 566              		.loc 1 1049 0
 567              		.cfi_startproc
 568              	.LVL16:
 569 0000 70B5     		push	{r4, r5, r6, lr}
 570              		.cfi_def_cfa_offset 16
 571              		.cfi_offset 4, -16
 572              		.cfi_offset 5, -12
 573              		.cfi_offset 6, -8
 574              		.cfi_offset 14, -4
 575 0002 061C     		mov	r6, r0
 576 0004 0C1C     		mov	r4, r1
 577              	.LVL17:
1050:.\Generated_Source\PSoC4/PSoC_SPI.c ****     uint8 bufIndex;
1051:.\Generated_Source\PSoC4/PSoC_SPI.c ****     bufIndex = 0u;
 578              		.loc 1 1051 0
 579 0006 0025     		mov	r5, #0
1052:.\Generated_Source\PSoC4/PSoC_SPI.c **** 
1053:.\Generated_Source\PSoC4/PSoC_SPI.c ****     while(byteCount > 0u)
 580              		.loc 1 1053 0
 581 0008 06E0     		b	.L60
 582              	.LVL18:
 583              	.L61:
1054:.\Generated_Source\PSoC4/PSoC_SPI.c ****     {
1055:.\Generated_Source\PSoC4/PSoC_SPI.c ****         PSoC_SPI_WriteTxData(buffer[bufIndex]);
 584              		.loc 1 1055 0
 585 000a 705D     		ldrb	r0, [r6, r5]
 586 000c FFF7FEFF 		bl	PSoC_SPI_WriteTxData
 587              	.LVL19:
1056:.\Generated_Source\PSoC4/PSoC_SPI.c ****         bufIndex++;
 588              		.loc 1 1056 0
 589 0010 0135     		add	r5, r5, #1
 590              	.LVL20:
 591 0012 EDB2     		uxtb	r5, r5
 592              	.LVL21:
1057:.\Generated_Source\PSoC4/PSoC_SPI.c ****         byteCount--;
 593              		.loc 1 1057 0
ARM GAS  C:\Users\JOHNSO~1\AppData\Local\Temp\ccBuA6sA.s 			page 30


 594 0014 013C     		sub	r4, r4, #1
 595              	.LVL22:
 596 0016 E4B2     		uxtb	r4, r4
 597              	.LVL23:
 598              	.L60:
1053:.\Generated_Source\PSoC4/PSoC_SPI.c ****     while(byteCount > 0u)
 599              		.loc 1 1053 0 discriminator 1
 600 0018 002C     		cmp	r4, #0
 601 001a F6D1     		bne	.L61
1058:.\Generated_Source\PSoC4/PSoC_SPI.c ****     }
1059:.\Generated_Source\PSoC4/PSoC_SPI.c **** }
 602              		.loc 1 1059 0
 603              		@ sp needed
 604              	.LVL24:
 605              	.LVL25:
 606              	.LVL26:
 607 001c 70BD     		pop	{r4, r5, r6, pc}
 608              		.cfi_endproc
 609              	.LFE23:
 610              		.size	PSoC_SPI_PutArray, .-PSoC_SPI_PutArray
 611 001e C046     		.section	.text.PSoC_SPI_ClearFIFO,"ax",%progbits
 612              		.align	2
 613              		.global	PSoC_SPI_ClearFIFO
 614              		.code	16
 615              		.thumb_func
 616              		.type	PSoC_SPI_ClearFIFO, %function
 617              	PSoC_SPI_ClearFIFO:
 618              	.LFB24:
1060:.\Generated_Source\PSoC4/PSoC_SPI.c **** 
1061:.\Generated_Source\PSoC4/PSoC_SPI.c **** 
1062:.\Generated_Source\PSoC4/PSoC_SPI.c **** /*******************************************************************************
1063:.\Generated_Source\PSoC4/PSoC_SPI.c **** * Function Name: PSoC_SPI_ClearFIFO
1064:.\Generated_Source\PSoC4/PSoC_SPI.c **** ********************************************************************************
1065:.\Generated_Source\PSoC4/PSoC_SPI.c **** *
1066:.\Generated_Source\PSoC4/PSoC_SPI.c **** * Summary:
1067:.\Generated_Source\PSoC4/PSoC_SPI.c **** *  Clear the RX and TX FIFO's of all data for a fresh start.
1068:.\Generated_Source\PSoC4/PSoC_SPI.c **** *
1069:.\Generated_Source\PSoC4/PSoC_SPI.c **** * Parameters:
1070:.\Generated_Source\PSoC4/PSoC_SPI.c **** *  None.
1071:.\Generated_Source\PSoC4/PSoC_SPI.c **** *
1072:.\Generated_Source\PSoC4/PSoC_SPI.c **** * Return:
1073:.\Generated_Source\PSoC4/PSoC_SPI.c **** *  None.
1074:.\Generated_Source\PSoC4/PSoC_SPI.c **** *
1075:.\Generated_Source\PSoC4/PSoC_SPI.c **** * Side Effects:
1076:.\Generated_Source\PSoC4/PSoC_SPI.c **** *  Clear status register of the component.
1077:.\Generated_Source\PSoC4/PSoC_SPI.c **** *
1078:.\Generated_Source\PSoC4/PSoC_SPI.c **** *******************************************************************************/
1079:.\Generated_Source\PSoC4/PSoC_SPI.c **** void PSoC_SPI_ClearFIFO(void) 
1080:.\Generated_Source\PSoC4/PSoC_SPI.c **** {
 619              		.loc 1 1080 0
 620              		.cfi_startproc
 621 0000 08B5     		push	{r3, lr}
 622              		.cfi_def_cfa_offset 8
 623              		.cfi_offset 3, -8
 624              		.cfi_offset 14, -4
1081:.\Generated_Source\PSoC4/PSoC_SPI.c ****     uint8 enableInterrupts;
1082:.\Generated_Source\PSoC4/PSoC_SPI.c **** 
ARM GAS  C:\Users\JOHNSO~1\AppData\Local\Temp\ccBuA6sA.s 			page 31


1083:.\Generated_Source\PSoC4/PSoC_SPI.c ****     while((PSoC_SPI_RX_STATUS_REG & PSoC_SPI_STS_RX_FIFO_NOT_EMPTY) != 0u)
 625              		.loc 1 1083 0
 626 0002 0B49     		ldr	r1, .L65
 627 0004 0822     		mov	r2, #8
1084:.\Generated_Source\PSoC4/PSoC_SPI.c ****     {
1085:.\Generated_Source\PSoC4/PSoC_SPI.c ****         CY_GET_REG8(PSoC_SPI_RXDATA_PTR);
 628              		.loc 1 1085 0
 629 0006 0B48     		ldr	r0, .L65+4
1083:.\Generated_Source\PSoC4/PSoC_SPI.c ****     while((PSoC_SPI_RX_STATUS_REG & PSoC_SPI_STS_RX_FIFO_NOT_EMPTY) != 0u)
 630              		.loc 1 1083 0
 631 0008 00E0     		b	.L63
 632              	.L64:
 633              		.loc 1 1085 0
 634 000a 0378     		ldrb	r3, [r0]
 635              	.L63:
1083:.\Generated_Source\PSoC4/PSoC_SPI.c ****     while((PSoC_SPI_RX_STATUS_REG & PSoC_SPI_STS_RX_FIFO_NOT_EMPTY) != 0u)
 636              		.loc 1 1083 0 discriminator 1
 637 000c 0B78     		ldrb	r3, [r1]
 638 000e 1342     		tst	r3, r2
 639 0010 FBD1     		bne	.L64
1086:.\Generated_Source\PSoC4/PSoC_SPI.c ****     }
1087:.\Generated_Source\PSoC4/PSoC_SPI.c **** 
1088:.\Generated_Source\PSoC4/PSoC_SPI.c ****     enableInterrupts = CyEnterCriticalSection();
 640              		.loc 1 1088 0
 641 0012 FFF7FEFF 		bl	CyEnterCriticalSection
 642              	.LVL27:
1089:.\Generated_Source\PSoC4/PSoC_SPI.c **** 
1090:.\Generated_Source\PSoC4/PSoC_SPI.c ****     #if(PSoC_SPI_DATA_WIDTH <= 8u)
1091:.\Generated_Source\PSoC4/PSoC_SPI.c **** 
1092:.\Generated_Source\PSoC4/PSoC_SPI.c ****         /* Clear TX FIFO */
1093:.\Generated_Source\PSoC4/PSoC_SPI.c ****         PSoC_SPI_TX_AUX_CONTROL_DP0_REG |= (uint8)PSoC_SPI_FIFO_CLR;
 643              		.loc 1 1093 0
 644 0016 084B     		ldr	r3, .L65+8
 645 0018 1978     		ldrb	r1, [r3]
 646 001a 0322     		mov	r2, #3
 647 001c 0A43     		orr	r2, r1
 648 001e 1A70     		strb	r2, [r3]
1094:.\Generated_Source\PSoC4/PSoC_SPI.c ****         PSoC_SPI_TX_AUX_CONTROL_DP0_REG &= (uint8)~PSoC_SPI_FIFO_CLR;
 649              		.loc 1 1094 0
 650 0020 1A78     		ldrb	r2, [r3]
 651 0022 0321     		mov	r1, #3
 652 0024 8A43     		bic	r2, r1
 653 0026 1A70     		strb	r2, [r3]
1095:.\Generated_Source\PSoC4/PSoC_SPI.c **** 
1096:.\Generated_Source\PSoC4/PSoC_SPI.c ****     #else
1097:.\Generated_Source\PSoC4/PSoC_SPI.c **** 
1098:.\Generated_Source\PSoC4/PSoC_SPI.c ****         /* Clear TX FIFO */
1099:.\Generated_Source\PSoC4/PSoC_SPI.c ****         PSoC_SPI_TX_AUX_CONTROL_DP0_REG |= (uint8)PSoC_SPI_FIFO_CLR;
1100:.\Generated_Source\PSoC4/PSoC_SPI.c ****         PSoC_SPI_TX_AUX_CONTROL_DP0_REG &= (uint8)~PSoC_SPI_FIFO_CLR;
1101:.\Generated_Source\PSoC4/PSoC_SPI.c ****         PSoC_SPI_TX_AUX_CONTROL_DP1_REG |= (uint8)PSoC_SPI_FIFO_CLR;
1102:.\Generated_Source\PSoC4/PSoC_SPI.c ****         PSoC_SPI_TX_AUX_CONTROL_DP1_REG &= (uint8)~PSoC_SPI_FIFO_CLR;
1103:.\Generated_Source\PSoC4/PSoC_SPI.c **** 
1104:.\Generated_Source\PSoC4/PSoC_SPI.c ****     #endif /* PSoC_SPI_DATA_WIDTH <= 8u */
1105:.\Generated_Source\PSoC4/PSoC_SPI.c **** 
1106:.\Generated_Source\PSoC4/PSoC_SPI.c ****     CyExitCriticalSection(enableInterrupts);
 654              		.loc 1 1106 0
 655 0028 FFF7FEFF 		bl	CyExitCriticalSection
ARM GAS  C:\Users\JOHNSO~1\AppData\Local\Temp\ccBuA6sA.s 			page 32


 656              	.LVL28:
1107:.\Generated_Source\PSoC4/PSoC_SPI.c **** }
 657              		.loc 1 1107 0
 658              		@ sp needed
 659 002c 08BD     		pop	{r3, pc}
 660              	.L66:
 661 002e C046     		.align	2
 662              	.L65:
 663 0030 61000F40 		.word	1074724961
 664 0034 50000F40 		.word	1074724944
 665 0038 90000F40 		.word	1074725008
 666              		.cfi_endproc
 667              	.LFE24:
 668              		.size	PSoC_SPI_ClearFIFO, .-PSoC_SPI_ClearFIFO
 669              		.section	.text.PSoC_SPI_Init,"ax",%progbits
 670              		.align	2
 671              		.global	PSoC_SPI_Init
 672              		.code	16
 673              		.thumb_func
 674              		.type	PSoC_SPI_Init, %function
 675              	PSoC_SPI_Init:
 676              	.LFB2:
  68:.\Generated_Source\PSoC4/PSoC_SPI.c **** {
 677              		.loc 1 68 0
 678              		.cfi_startproc
 679 0000 08B5     		push	{r3, lr}
 680              		.cfi_def_cfa_offset 8
 681              		.cfi_offset 3, -8
 682              		.cfi_offset 14, -4
  70:.\Generated_Source\PSoC4/PSoC_SPI.c ****     PSoC_SPI_COUNTER_PERIOD_REG = PSoC_SPI_BITCTR_INIT;
 683              		.loc 1 70 0
 684 0002 0722     		mov	r2, #7
 685 0004 064B     		ldr	r3, .L68
 686 0006 1A70     		strb	r2, [r3]
  98:.\Generated_Source\PSoC4/PSoC_SPI.c ****     PSoC_SPI_ClearFIFO();
 687              		.loc 1 98 0
 688 0008 FFF7FEFF 		bl	PSoC_SPI_ClearFIFO
 689              	.LVL29:
 112:.\Generated_Source\PSoC4/PSoC_SPI.c ****     (void) PSoC_SPI_ReadTxStatus(); /* Clear any pending status bits */
 690              		.loc 1 112 0
 691 000c FFF7FEFF 		bl	PSoC_SPI_ReadTxStatus
 692              	.LVL30:
 113:.\Generated_Source\PSoC4/PSoC_SPI.c ****     (void) PSoC_SPI_ReadRxStatus(); /* Clear any pending status bits */
 693              		.loc 1 113 0
 694 0010 FFF7FEFF 		bl	PSoC_SPI_ReadRxStatus
 695              	.LVL31:
 121:.\Generated_Source\PSoC4/PSoC_SPI.c ****         PSoC_SPI_TX_STATUS_MASK_REG  = PSoC_SPI_TX_INIT_INTERRUPTS_MASK;
 696              		.loc 1 121 0
 697 0014 0023     		mov	r3, #0
 698 0016 034A     		ldr	r2, .L68+4
 699 0018 1370     		strb	r3, [r2]
 124:.\Generated_Source\PSoC4/PSoC_SPI.c ****     PSoC_SPI_RX_STATUS_MASK_REG  = PSoC_SPI_RX_INIT_INTERRUPTS_MASK;
 700              		.loc 1 124 0
 701 001a 034A     		ldr	r2, .L68+8
 702 001c 1370     		strb	r3, [r2]
 125:.\Generated_Source\PSoC4/PSoC_SPI.c **** }
 703              		.loc 1 125 0
ARM GAS  C:\Users\JOHNSO~1\AppData\Local\Temp\ccBuA6sA.s 			page 33


 704              		@ sp needed
 705 001e 08BD     		pop	{r3, pc}
 706              	.L69:
 707              		.align	2
 708              	.L68:
 709 0020 80000F40 		.word	1074724992
 710 0024 82000F40 		.word	1074724994
 711 0028 81000F40 		.word	1074724993
 712              		.cfi_endproc
 713              	.LFE2:
 714              		.size	PSoC_SPI_Init, .-PSoC_SPI_Init
 715              		.section	.text.PSoC_SPI_Start,"ax",%progbits
 716              		.align	2
 717              		.global	PSoC_SPI_Start
 718              		.code	16
 719              		.thumb_func
 720              		.type	PSoC_SPI_Start, %function
 721              	PSoC_SPI_Start:
 722              	.LFB4:
 188:.\Generated_Source\PSoC4/PSoC_SPI.c **** {
 723              		.loc 1 188 0
 724              		.cfi_startproc
 725 0000 08B5     		push	{r3, lr}
 726              		.cfi_def_cfa_offset 8
 727              		.cfi_offset 3, -8
 728              		.cfi_offset 14, -4
 189:.\Generated_Source\PSoC4/PSoC_SPI.c ****     if(PSoC_SPI_initVar == 0u)
 729              		.loc 1 189 0
 730 0002 064B     		ldr	r3, .L72
 731 0004 1B78     		ldrb	r3, [r3]
 732 0006 002B     		cmp	r3, #0
 733 0008 04D1     		bne	.L71
 191:.\Generated_Source\PSoC4/PSoC_SPI.c ****         PSoC_SPI_Init();
 734              		.loc 1 191 0
 735 000a FFF7FEFF 		bl	PSoC_SPI_Init
 736              	.LVL32:
 192:.\Generated_Source\PSoC4/PSoC_SPI.c ****         PSoC_SPI_initVar = 1u;
 737              		.loc 1 192 0
 738 000e 0122     		mov	r2, #1
 739 0010 024B     		ldr	r3, .L72
 740 0012 1A70     		strb	r2, [r3]
 741              	.L71:
 195:.\Generated_Source\PSoC4/PSoC_SPI.c ****     PSoC_SPI_Enable();
 742              		.loc 1 195 0
 743 0014 FFF7FEFF 		bl	PSoC_SPI_Enable
 744              	.LVL33:
 196:.\Generated_Source\PSoC4/PSoC_SPI.c **** }
 745              		.loc 1 196 0
 746              		@ sp needed
 747 0018 08BD     		pop	{r3, pc}
 748              	.L73:
 749 001a C046     		.align	2
 750              	.L72:
 751 001c 00000000 		.word	.LANCHOR0
 752              		.cfi_endproc
 753              	.LFE4:
 754              		.size	PSoC_SPI_Start, .-PSoC_SPI_Start
ARM GAS  C:\Users\JOHNSO~1\AppData\Local\Temp\ccBuA6sA.s 			page 34


 755              		.section	.text.PSoC_SPI_EnableInt,"ax",%progbits
 756              		.align	2
 757              		.global	PSoC_SPI_EnableInt
 758              		.code	16
 759              		.thumb_func
 760              		.type	PSoC_SPI_EnableInt, %function
 761              	PSoC_SPI_EnableInt:
 762              	.LFB25:
1108:.\Generated_Source\PSoC4/PSoC_SPI.c **** 
1109:.\Generated_Source\PSoC4/PSoC_SPI.c **** 
1110:.\Generated_Source\PSoC4/PSoC_SPI.c **** /* Following functions are for version Compatibility, they are obsolete.
1111:.\Generated_Source\PSoC4/PSoC_SPI.c **** *  Please do not use it in new projects.
1112:.\Generated_Source\PSoC4/PSoC_SPI.c **** */
1113:.\Generated_Source\PSoC4/PSoC_SPI.c **** 
1114:.\Generated_Source\PSoC4/PSoC_SPI.c **** 
1115:.\Generated_Source\PSoC4/PSoC_SPI.c **** /*******************************************************************************
1116:.\Generated_Source\PSoC4/PSoC_SPI.c **** * Function Name: PSoC_SPI_EnableInt
1117:.\Generated_Source\PSoC4/PSoC_SPI.c **** ********************************************************************************
1118:.\Generated_Source\PSoC4/PSoC_SPI.c **** *
1119:.\Generated_Source\PSoC4/PSoC_SPI.c **** * Summary:
1120:.\Generated_Source\PSoC4/PSoC_SPI.c **** *  Enable internal interrupt generation.
1121:.\Generated_Source\PSoC4/PSoC_SPI.c **** *
1122:.\Generated_Source\PSoC4/PSoC_SPI.c **** * Parameters:
1123:.\Generated_Source\PSoC4/PSoC_SPI.c **** *  None.
1124:.\Generated_Source\PSoC4/PSoC_SPI.c **** *
1125:.\Generated_Source\PSoC4/PSoC_SPI.c **** * Return:
1126:.\Generated_Source\PSoC4/PSoC_SPI.c **** *  None.
1127:.\Generated_Source\PSoC4/PSoC_SPI.c **** *
1128:.\Generated_Source\PSoC4/PSoC_SPI.c **** * Theory:
1129:.\Generated_Source\PSoC4/PSoC_SPI.c **** *  Enable the internal interrupt output -or- the interrupt component itself.
1130:.\Generated_Source\PSoC4/PSoC_SPI.c **** *
1131:.\Generated_Source\PSoC4/PSoC_SPI.c **** *******************************************************************************/
1132:.\Generated_Source\PSoC4/PSoC_SPI.c **** void PSoC_SPI_EnableInt(void) 
1133:.\Generated_Source\PSoC4/PSoC_SPI.c **** {
 763              		.loc 1 1133 0
 764              		.cfi_startproc
1134:.\Generated_Source\PSoC4/PSoC_SPI.c ****     #if(PSoC_SPI_INTERNAL_TX_INT_ENABLED)
1135:.\Generated_Source\PSoC4/PSoC_SPI.c ****         CyIntEnable(PSoC_SPI_TX_ISR_NUMBER);
1136:.\Generated_Source\PSoC4/PSoC_SPI.c ****     #endif /* PSoC_SPI_INTERNAL_TX_INT_ENABLED */
1137:.\Generated_Source\PSoC4/PSoC_SPI.c **** 
1138:.\Generated_Source\PSoC4/PSoC_SPI.c ****     #if(PSoC_SPI_INTERNAL_RX_INT_ENABLED)
1139:.\Generated_Source\PSoC4/PSoC_SPI.c ****         CyIntEnable(PSoC_SPI_RX_ISR_NUMBER);
1140:.\Generated_Source\PSoC4/PSoC_SPI.c ****     #endif /* PSoC_SPI_INTERNAL_RX_INT_ENABLED */
1141:.\Generated_Source\PSoC4/PSoC_SPI.c **** }
 765              		.loc 1 1141 0
 766              		@ sp needed
 767 0000 7047     		bx	lr
 768              		.cfi_endproc
 769              	.LFE25:
 770              		.size	PSoC_SPI_EnableInt, .-PSoC_SPI_EnableInt
 771 0002 C046     		.section	.text.PSoC_SPI_DisableInt,"ax",%progbits
 772              		.align	2
 773              		.global	PSoC_SPI_DisableInt
 774              		.code	16
 775              		.thumb_func
 776              		.type	PSoC_SPI_DisableInt, %function
 777              	PSoC_SPI_DisableInt:
ARM GAS  C:\Users\JOHNSO~1\AppData\Local\Temp\ccBuA6sA.s 			page 35


 778              	.LFB26:
1142:.\Generated_Source\PSoC4/PSoC_SPI.c **** 
1143:.\Generated_Source\PSoC4/PSoC_SPI.c **** 
1144:.\Generated_Source\PSoC4/PSoC_SPI.c **** /*******************************************************************************
1145:.\Generated_Source\PSoC4/PSoC_SPI.c **** * Function Name: PSoC_SPI_DisableInt
1146:.\Generated_Source\PSoC4/PSoC_SPI.c **** ********************************************************************************
1147:.\Generated_Source\PSoC4/PSoC_SPI.c **** *
1148:.\Generated_Source\PSoC4/PSoC_SPI.c **** * Summary:
1149:.\Generated_Source\PSoC4/PSoC_SPI.c **** *  Disable internal interrupt generation.
1150:.\Generated_Source\PSoC4/PSoC_SPI.c **** *
1151:.\Generated_Source\PSoC4/PSoC_SPI.c **** * Parameters:
1152:.\Generated_Source\PSoC4/PSoC_SPI.c **** *  None.
1153:.\Generated_Source\PSoC4/PSoC_SPI.c **** *
1154:.\Generated_Source\PSoC4/PSoC_SPI.c **** * Return:
1155:.\Generated_Source\PSoC4/PSoC_SPI.c **** *  None.
1156:.\Generated_Source\PSoC4/PSoC_SPI.c **** *
1157:.\Generated_Source\PSoC4/PSoC_SPI.c **** * Theory:
1158:.\Generated_Source\PSoC4/PSoC_SPI.c **** *  Disable the internal interrupt output -or- the interrupt component itself.
1159:.\Generated_Source\PSoC4/PSoC_SPI.c **** *
1160:.\Generated_Source\PSoC4/PSoC_SPI.c **** *******************************************************************************/
1161:.\Generated_Source\PSoC4/PSoC_SPI.c **** void PSoC_SPI_DisableInt(void) 
1162:.\Generated_Source\PSoC4/PSoC_SPI.c **** {
 779              		.loc 1 1162 0
 780              		.cfi_startproc
1163:.\Generated_Source\PSoC4/PSoC_SPI.c ****     #if(PSoC_SPI_INTERNAL_TX_INT_ENABLED)
1164:.\Generated_Source\PSoC4/PSoC_SPI.c ****         CyIntDisable(PSoC_SPI_TX_ISR_NUMBER);
1165:.\Generated_Source\PSoC4/PSoC_SPI.c ****     #endif /* PSoC_SPI_INTERNAL_TX_INT_ENABLED */
1166:.\Generated_Source\PSoC4/PSoC_SPI.c **** 
1167:.\Generated_Source\PSoC4/PSoC_SPI.c ****     #if(PSoC_SPI_INTERNAL_RX_INT_ENABLED)
1168:.\Generated_Source\PSoC4/PSoC_SPI.c ****         CyIntDisable(PSoC_SPI_RX_ISR_NUMBER);
1169:.\Generated_Source\PSoC4/PSoC_SPI.c ****     #endif /* PSoC_SPI_INTERNAL_RX_INT_ENABLED */
1170:.\Generated_Source\PSoC4/PSoC_SPI.c **** }
 781              		.loc 1 1170 0
 782              		@ sp needed
 783 0000 7047     		bx	lr
 784              		.cfi_endproc
 785              	.LFE26:
 786              		.size	PSoC_SPI_DisableInt, .-PSoC_SPI_DisableInt
 787 0002 C046     		.section	.text.PSoC_SPI_SetInterruptMode,"ax",%progbits
 788              		.align	2
 789              		.global	PSoC_SPI_SetInterruptMode
 790              		.code	16
 791              		.thumb_func
 792              		.type	PSoC_SPI_SetInterruptMode, %function
 793              	PSoC_SPI_SetInterruptMode:
 794              	.LFB27:
1171:.\Generated_Source\PSoC4/PSoC_SPI.c **** 
1172:.\Generated_Source\PSoC4/PSoC_SPI.c **** 
1173:.\Generated_Source\PSoC4/PSoC_SPI.c **** /*******************************************************************************
1174:.\Generated_Source\PSoC4/PSoC_SPI.c **** * Function Name: PSoC_SPI_SetInterruptMode
1175:.\Generated_Source\PSoC4/PSoC_SPI.c **** ********************************************************************************
1176:.\Generated_Source\PSoC4/PSoC_SPI.c **** *
1177:.\Generated_Source\PSoC4/PSoC_SPI.c **** * Summary:
1178:.\Generated_Source\PSoC4/PSoC_SPI.c **** *  Configure which status bits trigger an interrupt event.
1179:.\Generated_Source\PSoC4/PSoC_SPI.c **** *
1180:.\Generated_Source\PSoC4/PSoC_SPI.c **** * Parameters:
1181:.\Generated_Source\PSoC4/PSoC_SPI.c **** *  intSrc: An or'd combination of the desired status bit masks (defined in the
ARM GAS  C:\Users\JOHNSO~1\AppData\Local\Temp\ccBuA6sA.s 			page 36


1182:.\Generated_Source\PSoC4/PSoC_SPI.c **** *  header file).
1183:.\Generated_Source\PSoC4/PSoC_SPI.c **** *
1184:.\Generated_Source\PSoC4/PSoC_SPI.c **** * Return:
1185:.\Generated_Source\PSoC4/PSoC_SPI.c **** *  None.
1186:.\Generated_Source\PSoC4/PSoC_SPI.c **** *
1187:.\Generated_Source\PSoC4/PSoC_SPI.c **** * Theory:
1188:.\Generated_Source\PSoC4/PSoC_SPI.c **** *  Enables the output of specific status bits to the interrupt controller.
1189:.\Generated_Source\PSoC4/PSoC_SPI.c **** *
1190:.\Generated_Source\PSoC4/PSoC_SPI.c **** *******************************************************************************/
1191:.\Generated_Source\PSoC4/PSoC_SPI.c **** void PSoC_SPI_SetInterruptMode(uint8 intSrc) 
1192:.\Generated_Source\PSoC4/PSoC_SPI.c **** {
 795              		.loc 1 1192 0
 796              		.cfi_startproc
 797              	.LVL34:
1193:.\Generated_Source\PSoC4/PSoC_SPI.c ****     PSoC_SPI_TX_STATUS_MASK_REG  = intSrc;
 798              		.loc 1 1193 0
 799 0000 024B     		ldr	r3, .L77
 800 0002 1870     		strb	r0, [r3]
1194:.\Generated_Source\PSoC4/PSoC_SPI.c ****     PSoC_SPI_RX_STATUS_MASK_REG  = intSrc;
 801              		.loc 1 1194 0
 802 0004 024B     		ldr	r3, .L77+4
 803 0006 1870     		strb	r0, [r3]
1195:.\Generated_Source\PSoC4/PSoC_SPI.c **** }
 804              		.loc 1 1195 0
 805              		@ sp needed
 806 0008 7047     		bx	lr
 807              	.L78:
 808 000a C046     		.align	2
 809              	.L77:
 810 000c 82000F40 		.word	1074724994
 811 0010 81000F40 		.word	1074724993
 812              		.cfi_endproc
 813              	.LFE27:
 814              		.size	PSoC_SPI_SetInterruptMode, .-PSoC_SPI_SetInterruptMode
 815              		.section	.text.PSoC_SPI_ReadStatus,"ax",%progbits
 816              		.align	2
 817              		.global	PSoC_SPI_ReadStatus
 818              		.code	16
 819              		.thumb_func
 820              		.type	PSoC_SPI_ReadStatus, %function
 821              	PSoC_SPI_ReadStatus:
 822              	.LFB28:
1196:.\Generated_Source\PSoC4/PSoC_SPI.c **** 
1197:.\Generated_Source\PSoC4/PSoC_SPI.c **** 
1198:.\Generated_Source\PSoC4/PSoC_SPI.c **** /*******************************************************************************
1199:.\Generated_Source\PSoC4/PSoC_SPI.c **** * Function Name: PSoC_SPI_ReadStatus
1200:.\Generated_Source\PSoC4/PSoC_SPI.c **** ********************************************************************************
1201:.\Generated_Source\PSoC4/PSoC_SPI.c **** *
1202:.\Generated_Source\PSoC4/PSoC_SPI.c **** * Summary:
1203:.\Generated_Source\PSoC4/PSoC_SPI.c **** *  Read the status register for the component.
1204:.\Generated_Source\PSoC4/PSoC_SPI.c **** *
1205:.\Generated_Source\PSoC4/PSoC_SPI.c **** * Parameters:
1206:.\Generated_Source\PSoC4/PSoC_SPI.c **** *  None.
1207:.\Generated_Source\PSoC4/PSoC_SPI.c **** *
1208:.\Generated_Source\PSoC4/PSoC_SPI.c **** * Return:
1209:.\Generated_Source\PSoC4/PSoC_SPI.c **** *  Contents of the status register.
1210:.\Generated_Source\PSoC4/PSoC_SPI.c **** *
ARM GAS  C:\Users\JOHNSO~1\AppData\Local\Temp\ccBuA6sA.s 			page 37


1211:.\Generated_Source\PSoC4/PSoC_SPI.c **** * Global variables:
1212:.\Generated_Source\PSoC4/PSoC_SPI.c **** *  PSoC_SPI_swStatus - used to store in software status register,
1213:.\Generated_Source\PSoC4/PSoC_SPI.c **** *  modified every function call - resets to zero.
1214:.\Generated_Source\PSoC4/PSoC_SPI.c **** *
1215:.\Generated_Source\PSoC4/PSoC_SPI.c **** * Theory:
1216:.\Generated_Source\PSoC4/PSoC_SPI.c **** *  Allows the user and the API to read the status register for error detection
1217:.\Generated_Source\PSoC4/PSoC_SPI.c **** *  and flow control.
1218:.\Generated_Source\PSoC4/PSoC_SPI.c **** *
1219:.\Generated_Source\PSoC4/PSoC_SPI.c **** * Side Effects:
1220:.\Generated_Source\PSoC4/PSoC_SPI.c **** *  Clear status register of the component.
1221:.\Generated_Source\PSoC4/PSoC_SPI.c **** *
1222:.\Generated_Source\PSoC4/PSoC_SPI.c **** * Reentrant:
1223:.\Generated_Source\PSoC4/PSoC_SPI.c **** *  No.
1224:.\Generated_Source\PSoC4/PSoC_SPI.c **** *
1225:.\Generated_Source\PSoC4/PSoC_SPI.c **** *******************************************************************************/
1226:.\Generated_Source\PSoC4/PSoC_SPI.c **** uint8 PSoC_SPI_ReadStatus(void) 
1227:.\Generated_Source\PSoC4/PSoC_SPI.c **** {
 823              		.loc 1 1227 0
 824              		.cfi_startproc
1228:.\Generated_Source\PSoC4/PSoC_SPI.c ****     uint8 tmpStatus;
1229:.\Generated_Source\PSoC4/PSoC_SPI.c **** 
1230:.\Generated_Source\PSoC4/PSoC_SPI.c ****     #if ((PSoC_SPI_TX_SOFTWARE_BUF_ENABLED) || (PSoC_SPI_RX_SOFTWARE_BUF_ENABLED))
1231:.\Generated_Source\PSoC4/PSoC_SPI.c **** 
1232:.\Generated_Source\PSoC4/PSoC_SPI.c ****         PSoC_SPI_DisableInt();
1233:.\Generated_Source\PSoC4/PSoC_SPI.c **** 
1234:.\Generated_Source\PSoC4/PSoC_SPI.c ****         tmpStatus = PSoC_SPI_GET_STATUS_TX(PSoC_SPI_swStatusTx) |
1235:.\Generated_Source\PSoC4/PSoC_SPI.c ****               (PSoC_SPI_GET_STATUS_RX(PSoC_SPI_swStatusRx) & (uint8)~PSoC_SPI_STS_RX_FIFO_FULL);
1236:.\Generated_Source\PSoC4/PSoC_SPI.c **** 
1237:.\Generated_Source\PSoC4/PSoC_SPI.c ****         PSoC_SPI_swStatusTx = 0u;
1238:.\Generated_Source\PSoC4/PSoC_SPI.c ****         PSoC_SPI_swStatusRx = 0u;
1239:.\Generated_Source\PSoC4/PSoC_SPI.c **** 
1240:.\Generated_Source\PSoC4/PSoC_SPI.c ****         /* Enable Interrupts */
1241:.\Generated_Source\PSoC4/PSoC_SPI.c ****         PSoC_SPI_EnableInt();
1242:.\Generated_Source\PSoC4/PSoC_SPI.c **** 
1243:.\Generated_Source\PSoC4/PSoC_SPI.c ****     #else /* !((PSoC_SPI_TX_SOFTWARE_BUF_ENABLED) || (PSoC_SPI_RX_SOFTWARE_BUF_ENABLED)) */
1244:.\Generated_Source\PSoC4/PSoC_SPI.c **** 
1245:.\Generated_Source\PSoC4/PSoC_SPI.c ****         tmpStatus = PSoC_SPI_TX_STATUS_REG | (PSoC_SPI_RX_STATUS_REG &
 825              		.loc 1 1245 0
 826 0000 034B     		ldr	r3, .L80
 827 0002 1B78     		ldrb	r3, [r3]
 828 0004 034A     		ldr	r2, .L80+4
 829 0006 1078     		ldrb	r0, [r2]
 830 0008 4022     		mov	r2, #64
 831 000a 9043     		bic	r0, r2
 832 000c 1843     		orr	r0, r3
 833              	.LVL35:
1246:.\Generated_Source\PSoC4/PSoC_SPI.c ****                                                       (uint8)~PSoC_SPI_STS_RX_FIFO_FULL);
1247:.\Generated_Source\PSoC4/PSoC_SPI.c **** 
1248:.\Generated_Source\PSoC4/PSoC_SPI.c ****     #endif /* (PSoC_SPI_TX_SOFTWARE_BUF_ENABLED) || (PSoC_SPI_RX_SOFTWARE_BUF_ENABLED) */
1249:.\Generated_Source\PSoC4/PSoC_SPI.c **** 
1250:.\Generated_Source\PSoC4/PSoC_SPI.c ****     return(tmpStatus);
1251:.\Generated_Source\PSoC4/PSoC_SPI.c **** }
 834              		.loc 1 1251 0
 835              		@ sp needed
 836 000e 7047     		bx	lr
 837              	.L81:
 838              		.align	2
ARM GAS  C:\Users\JOHNSO~1\AppData\Local\Temp\ccBuA6sA.s 			page 38


 839              	.L80:
 840 0010 62000F40 		.word	1074724962
 841 0014 61000F40 		.word	1074724961
 842              		.cfi_endproc
 843              	.LFE28:
 844              		.size	PSoC_SPI_ReadStatus, .-PSoC_SPI_ReadStatus
 845              		.comm	PSoC_SPI_swStatusRx,1,1
 846              		.comm	PSoC_SPI_swStatusTx,1,1
 847              		.global	PSoC_SPI_initVar
 848              		.bss
 849              		.set	.LANCHOR0,. + 0
 850              		.type	PSoC_SPI_initVar, %object
 851              		.size	PSoC_SPI_initVar, 1
 852              	PSoC_SPI_initVar:
 853 0000 00       		.space	1
 854              		.text
 855              	.Letext0:
 856              		.file 2 ".\\Generated_Source\\PSoC4\\cytypes.h"
 857              		.file 3 ".\\Generated_Source\\PSoC4\\CyLib.h"
